:020000040800F2
:1000000000000220F9FB0008BD150008C515000816
:10001000CD150008D5150008DD1500087118000879
:10002000000000000000000000000000E5150008CE
:10003000F315000800000000011600080F16000864
:10004000711800087118000871180008711800086C
:10005000711800087118000871180008711800085C
:10006000711800087118000871180008711800084C
:10007000711800087118000871180008711800083C
:10008000711800087118000871180008711800082C
:10009000711800087118000871180008711800081C
:1000A000711800087118000871180008711800080C
:1000B00071180008711800087118000871180008FC
:1000C00071180008711800087118000871180008EC
:1000D00071180008711800087118000871180008DC
:1000E00071180008711800087118000871180008CC
:1000F00071180008711800087118000871180008BC
:1001000071180008711800087118000871180008AB
:10011000711800087118000871180008711800089B
:10012000711800087118000871180008711800088B
:1001300071180008411600087118000871180008AD
:1001400071180008711800081D16000871180008C1
:10015000711800087118000871180008711800085B
:1001600010B5054C237833B9044B13B10448AFF3F1
:1001700000800123237010BDA005002000000000B6
:1001800064F3020808B5034B1BB103490348AFF3FE
:10019000008008BD00000000A405002064F30208F0
:1001A00070B4840746D04C1E002941D0D5B2034616
:1001B00002E0611EE4B30C4603F8015B9907F8D135
:1001C000032C2ED9D5B245EA05250F2C45EA054565
:1001D00019D9264603F11001103E0F2E41F8105C8C
:1001E00041F80C5C41F8085C41F8045C01F1100135
:1001F000F2D8A4F1100121F00F0104F00F04103126
:10020000032C0B440DD91E4621460439032946F818
:10021000045BFAD8211F21F0030104310B4404F0E0
:1002200003042CB1D2B21C4403F8012BA342FBD12E
:1002300070BC70470C460346C2E7034613F8012B17
:10024000002AFBD1181A01387047000053B94AB987
:10025000002908BF00281CBF4FF0FF314FF0FF30CE
:1002600000F07EB9ADF1080C6DE904CE00F006F89F
:10027000DDF804E0DDE9022304B070472DE9F04F1A
:10028000099D0C46002B4DD18A420F468446964666
:10029000B2FA82F360D94BB102FA03FEC3F1200235
:1002A0009F4000FA03FC20FA02F217434FEA1E4671
:1002B0001FFA8EF44FEA1C42B7FBF6F106FB1177EA
:1002C00001FB04F042EA0742904208D91EEB020209
:1002D00001F1FF3702D2904200F22D813946121A05
:1002E0001FFA8CFCB2FBF6F006FB102200FB04F4B4
:1002F0004CEA024C644508D91EEB0C0C00F1FF32AD
:1003000002D2644500F21A81104640EA0140ACEB8B
:10031000040C002125B12CFA03F30022C5E90032B8
:10032000BDE8F08F8B4205D90DB1C5E90001002170
:100330000846F5E7B3FA83F100294DD1A342C0F096
:10034000F280904280F0EF80064623460846002D5A
:10035000E6D0C5E90063E3E7002B40F0A2808A1AEB
:100360004FEA1E471FFA8EF60121B2FBF7F407FB96
:1003700014204FEA1C4242EA004206FB04F090427D
:100380000FD91EEB020204F1FF382CBF4FF0010918
:100390004FF00009904203D9B9F1000F00F0C88076
:1003A0004446121A1FFA8CFCB2FBF7F007FB10222E
:1003B00000FB06F64CEA024C664508D91EEB0C0C15
:1003C00000F1FF3202D2664500F2BB801046ACEB72
:1003D000060C40EA04409DE7C1F120068B4004FA78
:1003E00001FE22FA06F720FA06FCF4408A401F4379
:1003F0004EEA0C0300FA01FE4FEA17484FEA134990
:100400001FFA87FCB4FBF8F008FB104449EA0444E7
:1004100000FB0CF9A1450ED93C1900F1FF3A2CBFA5
:100420004FF0010B4FF0000BA14503D9BBF1000FBA
:1004300000F093805046A4EB09041FFA83F9B4FB43
:10044000F8F308FB134403FB0CFC49EA0444A445FD
:1004500006D93C1903F1FF3801D2A4457AD84346A6
:1004600043EA0040A4EB0C04A0FB02984445CC46B0
:10047000434602D306D1CE4504D20138B9EB020C73
:1004800068EB07035DB1BEEB0C0264EB030404FAF6
:1004900006F622FA01F3CC401E43C5E900640021B0
:1004A0003EE702FA03FEC3F1200104FA03F200FA68
:1004B00003FCCC404FEA1E4720FA01F11FFA8EF6EA
:1004C000B4FBF7F00A4307FB1044110C41EA044166
:1004D00000FB06F48C420ED91EEB010100F1FF383F
:1004E0002CBF4FF001094FF000098C4202D9B9F13D
:1004F000000F2CD04046091B92B2B1FBF7F407FB6A
:10050000141142EA014204FB06F1914207D91EEBA5
:10051000020204F1FF3801D2914215D84446521A22
:1005200044EA004121E7861A64EB030301200EE749
:10053000023C724435E702397244D0E6F444023892
:10054000E3E6F444023842E7023C7244E7E702384B
:100550007144D0E7023B3C4482E702383C446AE7FE
:10056000704700BF80B400AF064BD3F8F430054AA3
:1005700043F40003C2F8F43000BFBD465DF8047BCD
:10058000704700BF000C024680B500AF00F064F871
:1005900000BF80BD80B582B000AF7860002008F059
:1005A000FFFC00F073F800F081F80FF00BF924481D
:1005B0000CF0DEFB234A002140200FF083FC224B8D
:1005C0001B884FF6FF7293420ED01F4B1B88002BE7
:1005D00008D01D4B1B889B025B0B03F57F533E33FA
:1005E0005B0302E0194B00E0184B18460AF0FEF9D5
:1005F000174A002180200FF065FC164A00212020B8
:100600000FF060FC08F06EF800F09EF80121012068
:1006100009F034FD0021022009F030FD0021002006
:1006200009F02CFD06F032FC0121022009F026FD24
:10063000002008F0C0FC002318460837BD4680BDE6
:10064000100000207DD40008A007F90B00C00F089F
:10065000A1A30008DD88000880B582B000AF0023A8
:100660007B603B1D194600200EF098FA0346002BD4
:1006700003D00C2004F060F804E07B689B7B1846F4
:1006800004F05AF800BF0837BD4680BD80B500AF02
:10069000FFF768FF0FF0BCFC034802F07DFF0DF090
:1006A00075FD00BF80BD00BF4000003080B588B040
:1006B00000AF0EF033FD07F10C0300221A605A6000
:1006C0009A60DA601A6103233B6100237B614FF477
:1006D0006043FB60194BD3F88C30184A43F0010398
:1006E000C2F88C30154BD3F88C3003F00103BB609B
:1006F000BB6807F10C031946114802F0EDFC032317
:100700003B6100237B611823FB600C4BD3F88C30DA
:100710000A4A43F00203C2F88C30084BD3F88C30FD
:1007200003F002037B607B6807F10C031946054860
:1007300002F0D2FC00BF2037BD4680BD000C02464F
:10074000000002420004024280B500AF09F046F901
:10075000034A002101200FF0B5FB00BF80BD00BFA0
:10076000CD9A000880B582B000AF786039603B68F0
:100770009B00194678680CF0ADFF00BF0837BD46F6
:1007800080BD80B582B000AF78607B689B00184662
:100790000CF0D4FE034618460837BD4680BD80B530
:1007A00082B000AF786078680CF058FF00BF08375F
:1007B000BD4680BD80B500AF4FF0FF300FF080FA2E
:1007C00000BF80BD80B400AF00BFBD465DF8047BB4
:1007D000704780B400AF00BFBD465DF8047B704732
:1007E00080B400AF00BFBD465DF8047B704780B5A4
:1007F00000AF002120200FF087FB00BF80BD80B537
:1008000000AF002101200FF07FFB00BF80BD000082
:1008100080B483B000AF78607B68074A1A607B6859
:10082000064A5A607B68064A9A6000BF0C37BD468C
:100830005DF8047B704700BF650700088307000868
:100840009F07000880B500AF002140200FF05CFB3F
:1008500000BF80BD80B500AF002180200FF054FBA9
:1008600000BF80BD80B500AF01F004F8FFF78CFE3B
:1008700000F070F800F0D8F800F06AFB00F084F99E
:1008800000F0EEF800F00CFA00F00CFB00F052F96A
:1008900000F08EF900F0A0F900F0B4F900F080FA51
:1008A000244B184664231A4600212EF0DFF8224913
:1008B00020482EF091F81F48FFF7BFFC03469AB27C
:1008C00064231C491D4805F06BFA0020FFF762FE07
:1008D000FFF770FF01F080F80346194A1360194BC7
:1008E0001B6803F59C530833154A1268934205D2DE
:1008F000134B1B68134A136007F0ACFD124B1B68C7
:1009000003F164020E4B1B689A42E1D20F4B1B7835
:10091000002B05D0012204210D4802F0E5FD04E082
:10092000002204210A4802F0DFFD054B1B68064A3D
:100930001360CDE7901700207CF30208EC1600202E
:100940008C170020881700208417002080170020B3
:100950000000024280B598B000AF07F120034022AA
:10096000002118462EF082F83B462022002118462E
:100970002EF07CF802F000FE2A4BD3F8F03023F082
:100980001803284A43F00803C2F8F0300F233B62F3
:100990004FF480337B620023BB628123FB624FF400
:1009A00080733B6310237B634FF08063BB63002342
:1009B000FB6302233B6403237B640223BB640823A1
:1009C000FB6402233B6502237B650823BB65002390
:1009D000FB6507F12003184602F066FE0346002B74
:1009E00001D000F031FB3F233B6003237B600023F9
:1009F000BB600023FB6000233B6100237B61042379
:100A0000BB610023FB613B460021184603F05CFA02
:100A10000346002B01D000F017FB00BF6037BD4636
:100A200080BD00BF000C024680B592B000AF3B46CF
:100A30004822002118462EF019F84FF400433B607D
:100A40004FF480237B643B46184603F07FFC03464B
:100A5000002B01D000F0F8FA00BF4837BD4680BD3A
:100A600080B584B000AF3B1D00221A605A609A60C6
:100A70002D4B2E4A1A602C4B00225A602A4B002222
:100A80009A60294B0022DA60274B00221A61264B1C
:100A900004225A61244B00225A76234B0022DA6149
:100AA000214B00221A76204B002283F820201E4B77
:100AB00001225A621C4B4FF4B862DA621A4B4FF4AF
:100AC00080621A63184B002283F83420164B4FF0D3
:100AD00000525A65144B00229A63134B0022DA63CA
:100AE000114B00221A64104B002283F844200E4858
:100AF00001F0E2F80346002B01D000F0A5FA0C4B00
:100B00007B600023BB600023FB603B1D1946064849
:100B100001F00CFB0346002B01D000F095FA00BF5A
:100B20001037BD4680BD00BF74150020001002467E
:100B3000002000B480B500AF114B124A1A60104B70
:100B400001221A710E4B00225A710D4B41F6B75219
:100B50009A600B4B0822DA60094B00225A61084B5D
:100B600000229A61064B03221A62054801F054FEE6
:100B70000346002B01D000F067FA00BF80BD00BF24
:100B8000E01500200030024080B500AF002002F0E8
:100B9000C3FC0346002B01D000F056FA02F0DCFC47
:100BA0000346002B01D000F04FFA00BF80BD0000CB
:100BB00080B500AF064B074A1A60054802F02AFDCF
:100BC0000346002B01D000F03FFA00BF80BD00BFFC
:100BD000041600200060024080B500AF074B084AB1
:100BE0001A60064B00225A60044803F0E1FD0346F8
:100BF000002B01D000F028FA00BF80BD10160020A5
:100C000000080C4280B588B000AF3B1D00221A607E
:100C10005A609A60DA601A615A619A611E4B1F4AE3
:100C20001A601D4B00225A601B4B7F229A601A4BA0
:100C3000FF22DA60184B00221A61174B00225A611A
:100C4000154B00229A61144B4FF08042DA61124B2F
:100C500000221A62104B00225A620F4803F044FE31
:100C60000346002B01D000F0EFF900237B60002346
:100C70003B6100237B610023BB613B1D1946064895
:100C800004F004F90346002B01D000F0DDF900BFA9
:100C90002037BD4680BD00BF2416002000780046E6
:100CA00080B58EB000AF07F1280300221A605A60A9
:100CB0009A60DA6007F11C0300221A605A609A6099
:100CC0003B4600221A605A609A60DA601A615A61E3
:100CD0009A61324B4FF080421A60304B00225A60CA
:100CE0002E4B00229A602D4B4FF0FF32DA602B4BD7
:100CF00000221A61294B80229A61284804F0F4F8F6
:100D00000346002B01D000F09FF94FF48053BB62E3
:100D100007F128031946214804F072FA0346002B14
:100D200001D000F091F91D4804F035F90346002B7D
:100D300001D000F089F90821184804F08DF9034624
:100D4000002B01D000F080F90023FB6100237B62BF
:100D500007F11C031946114804F0DCFE0346002B82
:100D600001D000F071F930233B6000237B60002349
:100D7000BB6000233B613B460C221946074804F048
:100D8000C5F90346002B01D000F05EF9034800F0DE
:100D9000FFFA00BF3837BD4680BD00BF54160020A3
:100DA00080B594B000AF07F1340300221A605A6096
:100DB0009A60DA601A615A619A613B4634220021D6
:100DC00018462DF053FE354B354A1A60334B00223E
:100DD0005A60324B00229A60304B4FF6FF72DA6055
:100DE0002E4B00221A612D4B00225A612B4B802280
:100DF0009A612A4804F078F80346002B01D000F0ED
:100E000023F9264804F0C7F80346002B01D000F070
:100E10001BF90821214804F01FF90346002B01D0DB
:100E200000F012F930237B630023BB630023FB63D4
:100E300000233B6400237B640023BB640023FB642A
:100E400007F1340300221946144804F05FF9034601
:100E5000002B01D000F0F8F800233B6000237B60FA
:100E60000023BB600023FB6000233B614FF4005371
:100E70007B610023BB6100233B633B461946074867
:100E800004F0B0FE0346002B01D000F0DDF803486B
:100E900000F07EFA00BF5037BD4680BDA01600208E
:100EA0000048014080B500AF274B284A1A60264B06
:100EB0004FF4E1325A60244B00229A60224B002208
:100EC000DA60214B00221A611F4B08225A611E4B27
:100ED00000229A611C4B4FF40042DA611A4B002247
:100EE0001A62194B00225A62174B30229A62164B33
:100EF0004FF48052DA63144B4FF400521A641248D4
:100F000004F0F6FE0346002B01D000F09DF800210E
:100F10000D4805F0CBFC0346002B01D000F094F8FF
:100F20000021094805F000FD0346002B01D000F028
:100F30008BF8054805F07FFC0346002B01D000F03C
:100F400083F800BF80BD00BFEC16002000440040C5
:100F500080B588B000AF07F10C0300221A605A6018
:100F60009A60DA601A61354BD3F88C30334A43F01B
:100F70000203C2F88C30314BD3F88C3003F00203FB
:100F8000BB60BB682D4BD3F88C302C4A43F0010377
:100F9000C2F88C30294BD3F88C3003F001037B600E
:100FA0007B68264BD3F88C30244A43F00403C2F804
:100FB0008C30224BD3F88C3003F004033B603B6849
:100FC00000224FF480511E4802F08EFA00224FF4A6
:100FD000C2711C4802F088FA4FF48053FB60012371
:100FE0003B6100237B610023BB6107F10C031946C1
:100FF000134802F071F84FF4C273FB6001233B61A8
:1010000000237B610023BB6107F10C0319460D48E7
:1010100002F062F84FF40043FB604FF488133B6129
:1010200000237B6107F10C031946064802F054F8CF
:1010300007F0CCFF00BF2037BD4680BD000C024644
:10104000000402420000024280B400AF72B600BF4A
:1010500000BFFDE780B582B000AF0D4BD3F89430F0
:101060000B4A43F00403C2F89430094BD3F8943090
:1010700003F004037B607B6800220521422001F01D
:1010800009FB422001F023FB00BF0837BD4680BDAD
:10109000000C024680B59CB000AF786007F15C039D
:1010A00000221A605A609A60DA601A6107F114032C
:1010B0004822002118462DF0D9FC7B681B68204A85
:1010C000934238D14FF400537B6100233B6507F115
:1010D0001403184603F03AF90346002B01D0FFF73A
:1010E000B3FF184BD3F89430164A43F02003C2F8EC
:1010F0009430144BD3F8943003F020033B613B69E8
:10110000104BD3F88C300F4A43F00103C2F88C30F7
:101110000C4BD3F88C3003F00103FB60FB68032316
:10112000FB6503233B6600237B6607F15C031946DE
:10113000054801F0D1FF00BF7037BD4680BD00BF3C
:1011400000100246000C02460000024280B582B048
:1011500000AF78607B681B68094A93420BD1094B4A
:10116000D3F89430074A23F02003C2F894300321C7
:10117000054802F0FDF800BF0837BD4680BD00BF3E
:1011800000100246000C02460000024280B485B006
:1011900000AF78607B681B680B4A93420ED10B4B03
:1011A000D3F88830094A43F48053C2F88830074B9B
:1011B000D3F8883003F48053FB60FB6800BF14371A
:1011C000BD465DF8047B704700300240000C0246CB
:1011D00080B483B000AF78607B681B68084A934294
:1011E00007D1084BD3F88830064A23F48053C2F85D
:1011F000883000BF0C37BD465DF8047B704700BFE8
:1012000000300240000C024680B485B000AF786028
:101210000A4BD3F88830094A43F40033C2F88830C7
:10122000064BD3F8883003F40033FB60FB6800BF43
:101230001437BD465DF8047B704700BF000C0246C2
:1012400080B596B000AF786007F110034822002106
:1012500018462DF00BFC7B681B68134A93421ED185
:101260004FF480733B614FF400537B6307F110032D
:10127000184603F06BF80346002B01D0FFF7E4FE9D
:101280000A4BD3F88C30094A43F48023C2F88C30DF
:10129000064BD3F88C3003F48023FB60FB6800BF5F
:1012A0005837BD4680BD00BF00080C42000C024606
:1012B00080B596B000AF786007F110034822002196
:1012C00018462DF0D3FB7B681B68134A93421ED14E
:1012D0004FF480433B614FF400733B6507F110030B
:1012E000184603F033F80346002B01D0FFF7ACFE9D
:1012F0000A4BD3F8A830094A43F40013C2F8A830C7
:10130000064BD3F8A83003F40013FB60FB6800BF62
:101310005837BD4680BD00BF00780046000C02462D
:1013200080B485B000AF78607B681B68B3F1804FF4
:101330000FD1154BD3F89C30134A43F00103C2F888
:101340009C30114BD3F89C3003F00103FB60FB6829
:1013500013E07B681B680D4A93420ED10A4BD3F809
:10136000A430094A43F48023C2F8A430064BD3F8D2
:10137000A43003F48023BB60BB6800BF1437BD46B4
:101380005DF8047B704700BF000C02460048014036
:1013900080B58AB000AF786007F1140300221A60AC
:1013A0005A609A60DA601A617B681B68B3F1804FFB
:1013B0001FD1244BD3F88C30224A43F00103C2F8EA
:1013C0008C30204BD3F88C3003F001033B613B6938
:1013D00040237B610223BB610023FB6100233B624E
:1013E00001237B6207F114031946174801F074FECC
:1013F00023E07B681B68154A93421ED1114BD3F83A
:101400008C30104A43F00203C2F88C300D4BD3F8F5
:101410008C3003F00203FB60FB6810237B61022326
:10142000BB610023FB6100233B620E237B6207F15B
:1014300014031946064801F04FFE00BF2837BD4689
:1014400080BD00BF000C024600000242004801407F
:101450000004024280B59CB000AF786007F15C03E5
:1014600000221A605A609A60DA601A6107F1140368
:101470004822002118462DF0F9FA7B681B68224AA1
:1014800093423CD102237B610023FB6107F11403EB
:10149000184602F05BFF0346002B01D0FFF7D4FD96
:1014A0001A4BD3F89C30194A43F40033C2F89C30ED
:1014B000164BD3F89C3003F400333B613B69134B6C
:1014C000D3F88C30114A43F00103C2F88C300F4B33
:1014D000D3F88C3003F00103FB60FB684FF48053BA
:1014E000FB6512233B6600237B660023BB66032358
:1014F000FB6607F15C031946054801F0EDFD00BFEE
:101500007037BD4680BD00BF00440040000C02465D
:101510000000024280B483B000AF0346FB7197F92C
:101520000730002B0BDBFB7903F01F02074997F90B
:1015300007305B09012000FA02F241F8232000BFC6
:101540000C37BD465DF8047B704700BF00E100E04A
:1015500080B483B000AF0346FB7197F90730002BCE
:1015600012DBFB7903F01F020A4997F907305B0988
:10157000012000FA02F2203341F82320BFF34F8FFD
:1015800000BFBFF36F8F00BF00BF0C37BD465DF8D3
:10159000047B704700E100E080B400AF064BD3F855
:1015A0000832054A23F48033C2F8083200BFBD4632
:1015B0005DF8047B704700BF000C024680B400AFAA
:1015C00000BFFDE780B400AF00BFFDE780B400AF0F
:1015D00000BFFDE780B400AF00BFFDE780B400AFFF
:1015E00000BFFDE780B400AF00BFBD465DF8047BDF
:1015F000704780B400AF00BFBD465DF8047B704704
:1016000080B400AF00BFBD465DF8047B704780B575
:1016100000AF00F0CDF900BF80BD000080B500AF85
:10162000064B1B68002B02D0044B1B689847FFF742
:10163000B3FFBFF36F8F00BF00BF80BDD048002055
:1016400080B500AF3D20FFF783FF0C4B1B68002BDC
:1016500002D00A4B1B689847094B1B78DBB2002B62
:1016600007D0002205213D2001F014F8044B002290
:101670001A703D20FFF74EFF00BF80BDD448002008
:10168000F048002080B586B000AF7860144A154B52
:10169000D31A7B617B693B61134B1B68002B02D122
:1016A000114B124A1A60104B1A687B6813443A694E
:1016B0009A4207D22DF0E2F903460C221A604FF04D
:1016C000FF3309E0084B1B68FB60074B1A687B6817
:1016D0001344054A1360FB6818461837BD4680BDA1
:1016E0000000022000040000F41700207881002090
:1016F00080B400AF064BD3F88830054A43F470033A
:10170000C2F8883000BFBD465DF8047B704700BF5B
:1017100000ED00E080B489B000AF4F4BDB6903F00F
:101720000C03082B02D00C2B0BD07DE04A4B1B681E
:101730001B0D03F00103494A22FA03F3484A1360E0
:1017400076E0454B9B6AFB61434B5B6B7B61FB69BE
:101750001B0A03F0070301333B617B69C3F30803F2
:101760000133FB607B691B0E03F07F030133BB6019
:10177000FB6903F01003002B0BD0374B9B6BDB088E
:10178000C3F30C0307EE903AF8EE677AC7ED067ADA
:1017900002E04FF00003BB61FB6903F003037B60D1
:1017A0007B68022B03D07B68032B03D00CE02D4B0E
:1017B000FB610CE0284B1B681B0D03F00103274A5B
:1017C00022FA03F3FB6102E00023FB6100BFFB6927
:1017D00007EE903AF8EE676A3B6907EE903AF8EE4A
:1017E000677A86EEA77AFB6807EE903AF8EE676AAA
:1017F00097ED066ADFED1C5AC6EE257A76EEA77ADB
:1018000067EE277AC7ED007ABB6807EE903AB8EE2C
:10181000677AD7ED006AC6EE877AFCEEE77A17EEB4
:10182000902A0F4B1A6003E00D4B0E4A1A6000BF5E
:10183000094B1B6A03F007030C4AD35CFB61084B9E
:101840001A68FB6922FA03F3054A136000BF2437C4
:10185000BD465DF8047B7047000C02460048E80175
:10186000200000200024F40000000046440003088B
:10187000FEE7000080B500AF0D4B1B680C4A43F437
:1018800080731360032000F0FAFEFFF743FF04208B
:1018900000F06AFF0F2000F00DF80346002B01D086
:1018A000012302E0FFF7D6FB0023184680BD00BFEE
:1018B0000020024080B584B000AF78600023FB6058
:1018C000364B1B78002B01D1012362E0344B1B689F
:1018D00003F00403042B0CD1324B1A682F4B1B78F6
:1018E00019464FF47A73B3FBF1F3B2FBF3F3FB60E9
:1018F0003DE02D4BD3F8E03003F44003BB60BB6800
:10190000B3F5000F25D0BB68B3F5000F2ED8BB6828
:10191000002B04D0BB68B3F5800F0DD026E0214B1F
:101920001A681E4B1B7819464FF4FA53B3FBF1F3B8
:10193000B2FBF3F3FB601AE0184B1B781A464FF426
:101940007A73B3FBF2F34FF4FA42B2FBF3F3FB60AA
:101950000DE0124B1B781A464FF47A73B3FBF2F387
:101960004FF40042B2FBF3F3FB6000E000BFF86805
:1019700000F0CAFE0346002B01D0012309E000223B
:1019800079684FF0FF3000F085FE084A7B681360ED
:10199000002318461037BD4680BD00BF2800002038
:1019A00010E000E020000020000C0246240000208F
:1019B00080B400AF064B1B781A46064B1B681344D5
:1019C000044A136000BFBD465DF8047B704700BF4A
:1019D00028000020F817002080B400AF034B1B68DC
:1019E0001846BD465DF8047B704700BFF81700201D
:1019F00080B483B000AF786039607B681B6823F4E3
:101A000040023B681A437B681A6000BF0C37BD4632
:101A10005DF8047B704780B483B000AF78607B686A
:101A20001B6803F4400318460C37BD465DF8047B81
:101A3000704780B485B000AFF860B9607A60FB6829
:101A40005A69BB6803F00403072101FA03F3DB437F
:101A50001A40BB6803F00403796801FA03F31A43E0
:101A6000FB685A6100BF1437BD465DF8047B7047C0
:101A700080B485B000AFF860B9607A60FB689A6A9C
:101A8000BB6803F01F030F2101FA03F3DB431A4085
:101A90007B689B0E03F00F01BB6803F01F0301FA84
:101AA00003F31A43FB689A6200BF1437BD465DF822
:101AB000047B704780B483B000AF786039607B6886
:101AC0009A6A3B68C3F311031A437B689A6200BFAA
:101AD0000C37BD465DF8047B704780B483B000AF1F
:101AE000786039607B689A6A3B68C3F31103DB4313
:101AF0001A407B689A6200BF0C37BD465DF8047BD4
:101B0000704780B485B000AFF860B9607A60FB6858
:101B10005A69BB681B02DB431A40BB6819027B6829
:101B20000B4023F07C4323F0FF031A43FB685A6108
:101B300000BF1437BD465DF8047B704780B483B0A6
:101B400000AF78607B689B6823F0104323F0170395
:101B500043F080527B689A6000BF0C37BD465DF849
:101B6000047B704780B483B000AF78607B689B686B
:101B700023F0104323F017037A68936000BF0C37FB
:101B8000BD465DF8047B704780B483B000AF7860D9
:101B90007B689B6803F08053B3F1805F01D1012320
:101BA00000E0002318460C37BD465DF8047B704703
:101BB00080B483B000AF78607B689B6823F00043FB
:101BC00023F0170343F002027B689A6000BF0C37D2
:101BD000BD465DF8047B704780B483B000AF786089
:101BE0007B689B6803F00103012B01D1012300E016
:101BF000002318460C37BD465DF8047B704780B45F
:101C000083B000AF78607B689B6803F00203022B0F
:101C100001D1012300E0002318460C37BD465DF8D2
:101C2000047B704780B483B000AF78607B689B68AA
:101C300023F0004323F0170343F010027B689A60FF
:101C400000BF0C37BD465DF8047B704780B483B09D
:101C500000AF78607B689B6803F00403042B01D11C
:101C6000012300E0002318460C37BD465DF8047BD5
:101C7000704780B483B000AF78607B681B6803F462
:101C80008053B3F5805F01D1012300E000231846A3
:101C90000C37BD465DF8047B704780B483B000AF5D
:101CA00078607B684FF480521A6000BF0C37BD46E5
:101CB0005DF8047B7047000080B588B000AF7860A5
:101CC0000023FB770023BB6100237B617B68002B33
:101CD00001D1012390E17B681B69002B7B681B6E9F
:101CE000002B09D17868FFF7D5F97B6800225A6686
:101CF0007B68002283F85C207B681B681846FFF72E
:101D000043FF0346002B32D17B681B681846FFF760
:101D1000C4FF7B681B681846FFF710FFFFF75CFEE7
:101D200038611CE0FFF758FE02463B69D31A012BCD
:101D300015D97B681B681846FFF79BFF0346002BED
:101D40000DD17B681B6E43F010027B681A667B68BE
:101D50005B6E43F001027B685A6601234CE17B68AD
:101D60001B681846FFF785FF0346002BDAD07B6817
:101D70001B681846FFF708FF0346002B0DD17B6850
:101D80001B6E43F010027B681A667B685B6E43F043
:101D900001027B685A660123FB777B681B68184643
:101DA000FFF754FFF8607B681B6E03F01003002BF5
:101DB00040F01981FB68002B40F015817B681B6E99
:101DC00023F4817343F002027B681A667B681B6808
:101DD0001846FFF701FF0346002B36D17B681B68CE
:101DE000DB6823F00C017B689A687B681B680A43F8
:101DF000DA607B685B6D7A6913437B617B6893F87B
:101E00004430012B0CD17B689A6C7B68DB6C1A43E5
:101E10007B681B6D1A437B69134343F001037B61AD
:101E20007B681B681A69764B13407A681268796977
:101E30000B431361734B1B6823F470127B685B6860
:101E400003F470136F4913430B607B681B7E9A0386
:101E50007B6893F820305B0313437A68926B002A07
:101E600002D04FF4805200E000221A437B68DB6806
:101E70001A437B681B69002B04DA7B681B6923F01B
:101E8000004301E04FF400131A437B6893F83430A9
:101E90005B001343BA691343BB617B6893F8283036
:101EA000012B15D17B6893F82030002B04D1BB693E
:101EB00043F48033BB610BE07B681B6E43F0200270
:101EC0007B681A667B685B6E43F001027B685A662A
:101ED0007B68DB6A002B09D07B68DB6A03F4E07265
:101EE0007B681B6B1343BA691343BB617B681B6838
:101EF000DA68454B13407A681268B9690B43D360BE
:101F00007B681B681A693E4B13407A6812687969CE
:101F10000B4313617B681B685B6C23F003017B68D8
:101F20005B7E1A467B68DB691A437B681B680A4341
:101F30005A647B6818687B68DB6B1A460021FFF7E0
:101F400078FD7B6818687B681B6C1A462F49FFF781
:101F500070FD7B681B69002B08D17B681B689A6A3F
:101F60007B681B6862F00F029A6217E07B681B694E
:101F7000B3F5001F12D17B681B689B6A7B685B6AA4
:101F8000013B9B0003F01C036FF00F0202FA03F108
:101F90007B689A6E7B681B680A439A627B681B6841
:101FA000DA681B4B1340BA699A420BD17B68002256
:101FB0005A667B681B6E23F0030343F001027B68C3
:101FC0001A6618E07B681B6E23F0120343F01002C0
:101FD0007B681A667B685B6E43F001027B685A6619
:101FE0000123FB7707E07B681B6E43F010027B68E0
:101FF0001A660123FB77FB7F18462037BD4680BD5C
:1020000002FCFFDF081302460D82DEFF04FFFF0320
:10201000F3FF3F8380B584B000AF78607B68002B0E
:1020200001D101237AE07B681B6E43F002027B68DA
:102030001A66786800F090F90346FB73FB7B002B6F
:102040000FD1786800F0CDF90346FB73FB7B002BC2
:1020500002D17B6801221A667B681B681846FFF76D
:1020600081FD7B681B685B687A68126823F467737C
:1020700023F0030353607B681B6840F29F321A60B1
:102080007B681B68D9687B681A68264B0B40D36055
:102090007B681B685A697B681B6822F007025A61DB
:1020A0007B681B689B6A7B681B6800229A627B685E
:1020B0001B681A6A7B681B6802F0F0221A627B6850
:1020C0001B685A6A7B681B6802F0F0225A627B68C0
:1020D0001B68DA6A7B681B6802F0F022DA627B68B0
:1020E0001B685A6C7B681B6822F001025A640E4B15
:1020F0001B680D4A23F47C0313607868FFF726F809
:102100007B6800229A667B6800225A667B68002200
:102110001A667B68002283F85C20FB7B1846103728
:10212000BD4680BD00821E830813024680B588B07C
:1021300000AF786039600023FB770023BB607B68C9
:102140001B69B3F1004F7B6893F85C30012B01D120
:102150000223F0E07B68012283F85C207B681B6827
:102160001846FFF773FD0346002B40F0D7803B680D
:102170005B68022B00F09E807B681B69B3F1004F07
:1021800004D07B681B696E4A934208D17B681A6849
:102190003B681B6819461046FFF78CFC41E07B68E2
:1021A0009A6E3B685B6803F01F030F2101FA03F38B
:1021B000DB431A403B681B68C3F31103002B05D1B6
:1021C0003B681B689B0E03F01F0311E03B681B6814
:1021D0003B613B6993FAA3F3FB60FB687B617B691E
:1021E000002B01D1202303E07B69B3FA83F3DBB238
:1021F0003968496801F01F018B401A437B689A6671
:102200003B685B689B085A1C7B685B6A9A4208D8EB
:102210007B6818683B6859683B681B681A46FFF77B
:1022200027FC7B6818683B6819683B689B681A46FE
:10223000FFF767FC3B681B68002B77DA4148FFF724
:10224000EAFBB8613B681B683F4A934220D1BB69F7
:1022500003F40003002B1BD1BB6943F400031946B0
:102260003848FFF7C5FB394B1B689B09384AA2FB6E
:1022700003239B095A1C13465B0013449B00BB605D
:1022800002E0BB68013BBB60BB68002BF9D14DE0AD
:102290003B681B682F4A934248D1BB6903F4800313
:1022A000002B43D1BB6943F4800319462548FFF74F
:1022B0009FFB3BE07B681B69B3F1004F04D07B6858
:1022C0001B691F4A934207D17B681A683B681B68E9
:1022D00019461046FFF701FC3B681B68002B25DA06
:1022E0001848FFF798FBB8613B681B68164A934291
:1022F00007D1BB6923F4000319461248FFF778FBA6
:1023000014E03B681B68134A93420FD1BB6923F466
:10231000800319460B48FFF76BFB07E07B681B6ED9
:1023200043F020027B681A660123FB777B6800225A
:1023300083F85C20FB7F18462037BD4680BD00BF78
:102340001000008008130246002000B42000002086
:10235000632D3E050100008080B584B000AF786039
:102360007B681B681846FFF771FC0346002B33D0CF
:102370007B681B681846FFF742FC0346002B04D11C
:102380007B681B681846FFF74DFCFFF725FBF860DC
:102390001BE0FFF721FB0246FB68D31A022B14D97E
:1023A0007B681B689B6803F00403002B0DD07B68DF
:1023B0001B6E43F010027B681A667B685B6E43F00D
:1023C00001027B685A66012307E07B681B689B68F3
:1023D00003F00403002BDCD1002318461037BD4660
:1023E00080BD80B584B000AF78607B681B681846FC
:1023F000FFF705FCF8607B681B681846FFF7ECFBED
:102400000346002B47D0FB68002B44D17B681B6838
:102410009B6803F00503012B0CD17B681B681846F1
:10242000FFF7C6FB7B681B6803221A60FFF7D4FA2C
:10243000B86029E07B681B6E43F010027B681A6667
:102440007B685B6E43F001027B685A66012323E0E0
:10245000FFF7C2FA0246BB68D31A022B14D97B6875
:102460001B689B6803F00103002B0DD07B681B6E7B
:1024700043F010027B681A667B685B6E43F00102D2
:102480007B685A66012307E07B681B689B6803F042
:102490000103002BDCD1002318461037BD4680BD58
:1024A00080B485B000AF78607B6803F00703FB6001
:1024B0000C4BDB68BB60BA684FF6FF031340BB6090
:1024C000FB681A02BB68134343F0BF6343F4003355
:1024D000BB60044ABB68D36000BF1437BD465DF8DB
:1024E000047B704700ED00E080B400AF044BDB6874
:1024F0001B0A03F007031846BD465DF8047B7047CE
:1025000000ED00E080B483B000AF0346FB7197F9A3
:102510000730002B0BDBFB7903F01F02074997F90B
:1025200007305B09012000FA02F241F8232000BFC6
:102530000C37BD465DF8047B704700BF00E100E04A
:1025400080B483B000AF0346FB7197F90730002BCE
:1025500012DBFB7903F01F020A4997F907305B0988
:10256000012000FA02F2203341F82320BFF34F8FFD
:1025700000BFBFF36F8F00BF00BF0C37BD465DF8D3
:10258000047B704700E100E080B483B000AF0346F5
:10259000FB7197F90730002B0CDBFB7903F01F026E
:1025A000074997F907305B09012000FA02F240332E
:1025B00041F8232000BF0C37BD465DF8047B70470F
:1025C00000E100E080B483B000AF03463960FB71E6
:1025D00097F90730002B0ADB3B68DAB20C4997F910
:1025E00007301201D2B20B4483F800230AE03B68A3
:1025F000DAB20849FB7903F00F03043B1201D2B2AF
:102600000B441A7600BF0C37BD465DF8047B70475B
:1026100000E100E000ED00E080B489B000AFF860B8
:10262000B9607A60FB6803F00703FB61FB69C3F1E3
:102630000703042B28BF0423BB61FB690433062B6B
:1026400002D9FB69033B00E000237B614FF0FF32BE
:10265000BB6902FA03F3DA43BB681A407B699A400C
:102660004FF0FF317B6901FA03F3D9437B680B40DC
:10267000134318462437BD465DF8047B704780B588
:1026800082B000AF78607868FFF70AFF00BF0837B4
:10269000BD4680BD80B586B000AF0346B9607A60A4
:1026A000FB73FFF721FF034603F007037B617A68A2
:1026B000B9687869FFF7B0FF024697F90F30114605
:1026C0001846FFF77FFF00BF1837BD4680BD80B5B5
:1026D00082B000AF0346FB7197F907301846FFF749
:1026E00011FF00BF0837BD4680BD80B582B000AF86
:1026F0000346FB7197F907301846FFF721FF00BF2B
:102700000837BD4680BD000080B483B000AF78605C
:102710007B68013BB3F1807F01D301230DE00A4ABE
:102720007B68013B5360084B00229A60064B1B6894
:10273000054A43F003031360002318460C37BD46D7
:102740005DF8047B704700BF10E000E080B582B008
:1027500000AF0346FB7197F907301846FFF714FFE7
:1027600000BF0837BD4680BD80B483B000AF78603D
:102770007B68042B44D801A252F823F09F2700085D
:10278000BD270008DF27000801280008912700085E
:102790001F4B1B681E4A43F00403136031E01C4BBF
:1027A0001B681B4A23F0040313601A4BD3F8E03074
:1027B000184A23F44003C2F8E03022E0144B1B68AF
:1027C000134A23F004031360124BD3F8E03023F4D0
:1027D0004003104A43F48003C2F8E03011E00C4B90
:1027E0001B680B4A23F0040313600A4BD3F8E03054
:1027F00023F44003074A43F40003C2F8E03000E04A
:1028000000BF00BF0C37BD465DF8047B704700BFBA
:1028100010E000E0000C024680B582B000AF7860A6
:102820007B68002B01D1012354E07B685B7FDBB226
:10283000002B05D17B6800221A777868FEF7A6FC8A
:102840007B6802225A777B681B79002B0CD17B684E
:102850001B68224A5A617B681B689A687B681B6800
:1028600022F018029A600CE07B6899687B68DB684C
:102870001A46786800F0BCF90346002B01D001230A
:1028800028E07B685B79002B05D17B681B684FF0E3
:10289000FF321A6104E07B681B687A6812691A616A
:1028A0007B681B689B6823F060017B685A697B68C2
:1028B0001B680A439A607B681B689B6823F0800151
:1028C0007B689A697B681B680A439A607B6801226F
:1028D0005A77002318460837BD4680BDB71DC1048E
:1028E00080B582B000AF78607B68002B01D10123F6
:1028F00022E07B685B7FDBB2022B01D102231BE06D
:102900007B6802225A777B681B689A687B681B6821
:1029100042F001029A607B681B685B687B681B68F9
:1029200000225A607868FEF753FC7B6800225A77D1
:102930007B6800221A77002318460837BD4680BD01
:1029400080B586B000AFF860B9607A6000233B6163
:10295000FB6802225A77FB681B6A032B06D0032B05
:1029600029D8012B19D0022B1ED024E000237B6133
:102970000AE07B699B00BA681A44FB681B6812680E
:102980001A607B6901337B617A697B689A42F0D374
:10299000FB681B681B683B610EE07A68B968F868E1
:1029A00000F05EF8386107E07A68B968F86800F00E
:1029B000E5F8386100E000BFFB6801225A773B6907
:1029C00018461837BD4680BD80B586B000AFF860A8
:1029D000B9607A6000233B61FB6802225A77FB688A
:1029E0001B689A68FB681B6842F001029A60FB68EA
:1029F0001B6A032B06D0032B29D8012B19D0022BDD
:102A00001ED024E000237B610AE07B699B00BA684A
:102A10001A44FB681B6812681A607B6901337B618A
:102A20007A697B689A42F0D3FB681B681B683B613C
:102A30000EE07A68B968F86800F012F8386107E0CB
:102A40007A68B968F86800F099F8386100E000BF6A
:102A5000FB6801225A773B6918461837BD4680BD8E
:102A600080B489B000AFF860B9607A600023FB6180
:102A700023E0FB699B00BA6813441B781A06FB69C4
:102A80009B000133B9680B441B781B041A43FB6994
:102A90009B000233B9680B441B781B021A43FB6985
:102AA0009B000333B9680B441B781946FB681B680D
:102AB0000A431A60FB690133FB617B689B08FA6972
:102AC0009A42D6D37B6803F00303002B4DD07B687A
:102AD00003F00303012B07D1FB699B00BA68134481
:102AE000FA6812681B7813707B6803F00303022BEB
:102AF00016D1FB699B00BA6813441B781B021AB2FB
:102B0000FB699B000133B9680B441B781BB213436C
:102B10001BB27B83FB681B687B617B697A8B1A80A5
:102B20007B6803F00303032B1FD1FB699B00BA688A
:102B300013441B781B021AB2FB699B000133B9686E
:102B40000B441B781BB213431BB27B83FB681B68CF
:102B50007B617B697A8B1A80FB699B000233BA68C0
:102B60001344FA6812681B781370FB681B681B68B3
:102B700018462437BD465DF8047B704780B487B0A3
:102B800000AFF860B9607A6000237B6113E07B6975
:102B90009B00BA6813441B881A047B699B000233AC
:102BA000B9680B441B881946FB681B680A431A6006
:102BB0007B6901337B617B685B087A699A42E6D363
:102BC0007B6803F00103002B09D0FB681B683B61A5
:102BD0007B699B00BA6813441A883B691A80FB68BA
:102BE0001B681B6818461C37BD465DF8047B7047A0
:102BF00080B487B000AFF860B9607A600023FB75DD
:102C00001F233B61BB6803F00103002B02D10123AA
:102C1000FB7563E000BF3B695A1E3A61002B09D087
:102C20003B6903F01F03BA6822FA03F303F00103C0
:102C3000002BF0D07B68182B46D801A252F823F065
:102C4000CF2C0008C92C0008C92C0008C92C00088A
:102C5000C92C0008C92C0008C92C0008C92C000880
:102C6000BD2C0008C92C0008C92C0008C92C00087C
:102C7000C92C0008C92C0008C92C0008C92C000860
:102C8000B12C0008C92C0008C92C0008C92C000868
:102C9000C92C0008C92C0008C92C0008C92C000840
:102CA000A52C00083B69062B13D90123FB7510E006
:102CB0003B69072B0FD90123FB750CE03B690F2BF8
:102CC0000BD90123FB7508E00123FB7506E000BF6B
:102CD00004E000BF02E000BF00E000BFFB7D002B6E
:102CE0000DD1FB681B68BA685A61FB681B689B685A
:102CF00023F01801FB681B687A680A439A60FB7D21
:102D000018461C37BD465DF8047B704780B586B019
:102D100000AFF860B9607A601F4B1B78012B01D1BE
:102D2000022334E01C4B01221A701B4B00225A6014
:102D30004FF47A7000F070F80346FB75FB7D002BB2
:102D400021D1154AFB689360144B3B61FB6823F06B
:102D50000043012B04D17968B86800F0A3F803E0C0
:102D60007968B86800F0DAF84FF47A7000F054F837
:102D70000346FB753B691A68FB6823F00043DB439D
:102D80001A403B691A60044B00221A70FB7D1846FA
:102D90001837BD4680BD00BFFC1700202820024028
:102DA00080B483B000AF0023FB710B4B9B6A002BF8
:102DB0000BDA094B094A9A60074B094A9A60064B9D
:102DC0009B6A002B01DA0123FB71FB7918460C3753
:102DD000BD465DF8047B7047002002402301674533
:102DE000AB89EFCD80B483B000AF0123FB71094BF9
:102DF0009B6A084A43F000439362064B9B6A002B90
:102E000001DA0023FB71FB7918460C37BD465DF8EB
:102E1000047B70470020024080B586B000AF786028
:102E2000FEF7DAFD02467B6813447B611B4B3B6176
:102E30000BE07B68B3F1FF3F07D0FEF7CDFD024604
:102E40007B69934201D8032323E03B691B6803F4A9
:102E50004033002BEDD13B691A6842F2FA0313406C
:102E6000FB60FB68002B0AD00D4B5A68FB681343CC
:102E70000B4A53603B69FA681A60012309E03B6919
:102E80001B6803F00103002B02D03B6901221A608A
:102E9000002318461837BD4680BD00BF20200240E1
:102EA000FC17002080B48BB000AF78603960042339
:102EB00087F827307B683B623B68FB61164BBB6140
:102EC000BB691B6843F00102BB691A60EFF3108312
:102ED0003B613B697B6172B600BFFB691A683B6A64
:102EE0001A603B6A04333B62FB690433FB6197F869
:102EF0002730013B87F8273097F82730002BECD19B
:102F00007B69FB60FB6883F3108800BF00BF2C3730
:102F1000BD465DF8047B70472820024080B48BB02A
:102F200000AF78603960202387F827307B683B62E8
:102F30003B68FB61174BBB61BB691B6843F4804373
:102F400043F00103BA691360EFF310833B613B69FF
:102F50007B6172B600BFFB691A683B6A1A603B6A04
:102F600004333B62FB690433FB6197F82730013B74
:102F700087F8273097F82730002BECD17B69FB606E
:102F8000FB6883F3108800BF00BF2C37BD465DF897
:102F9000047B70472820024080B586B000AF78607F
:102FA0003960314B1B78012B01D1022358E02E4BA5
:102FB00001221A702C4B00225A604FF47A70FFF7EE
:102FC0002BFF0346FB75FB7D002B45D17B681B68FF
:102FD000254A9360254BFB607B681B6823F0004308
:102FE000042B08D100F044F84FF47A70FFF714FF77
:102FF0000346FB7522E03B684FF0FF321A607B68A6
:103000005B683B6112E0386900F048F84FF47A7071
:10301000FFF702FF0346FB75FB7D002B03D03B68E7
:103020003A691A600AE03B6901333B617B685A6880
:103030007B689B6813443A699A42E4D3FB681A6838
:103040007B681B6823F0004323F47E7343F47E7394
:10305000DB431A40FB681A60034B00221A70FB7DA9
:1030600018461837BD4680BDFC17002028200240B6
:1030700080B483B000AF084B7B607B681B6843F46F
:10308000803343F004037A68136000BF0C37BD46F9
:103090005DF8047B704700BF2820024080B485B0F3
:1030A00000AF78600B4BFB60FB681B6823F4813337
:1030B00023F4FD737A68D200134343F4803343F062
:1030C0000203FA68136000BF1437BD465DF8047B45
:1030D000704700BF2820024080B487B000AF7860FE
:1030E000396000237B6130E13B681A6801217B690C
:1030F00001FA03F31340FB60FB68002B00F0228110
:103100003B685B6803F00303012B05D03B685B68F9
:1031100003F00303022B30D17B689B683B617B6922
:103120005B00032202FA03F3DB433A6913403B617D
:103130003B68DA687B695B0002FA03F33A69134380
:103140003B617B683A699A607B685B683B610122FE
:103150007B6902FA03F3DB433A6913403B613B6846
:103160005B681B0903F001027B6902FA03F33A6909
:1031700013433B617B683A695A603B685B6803F0C4
:103180000303032B17D07B68DB683B617B695B0023
:10319000032202FA03F3DB433A6913403B613B68C5
:1031A0009A687B695B0002FA03F33A6913433B6157
:1031B0007B683A69DA603B685B6803F00303022BC3
:1031C00023D17B69DA087B68083253F822303B61EF
:1031D0007B6903F007039B000F2202FA03F3DB4332
:1031E0003A6913403B613B681A697B6903F0070346
:1031F0009B0002FA03F33A6913433B617B69DA08E7
:103200007B680832396943F822107B681B683B6190
:103210007B695B00032202FA03F3DB433A69134044
:103220003B613B685B6803F003027B695B0002FA69
:1032300003F33A6913433B617B683A691A603B6860
:103240005B6803F44033002B7CD0474A7B699B08C2
:10325000183352F823303B617B6903F00303DB0032
:103260000F2202FA03F3DB433A6913403B617B68A8
:103270009A0A3E4B13407A6902F00302D20093404F
:103280003A6913433B6138497B699B0818333A69B3
:1032900041F82320344B1B683B61FB68DB433A69F0
:1032A00013403B613B685B6803F48013002B03D041
:1032B0003A69FB6813433B612B4A3B6913602A4B15
:1032C0005B683B61FB68DB433A6913403B613B68E9
:1032D0005B6803F40013002B03D03A69FB681343C7
:1032E0003B61214A3B6953601F4BD3F884303B61FB
:1032F000FB68DB433A6913403B613B685B6803F45E
:103300000033002B03D03A69FB6813433B61164A34
:103310003B69C2F88430144BD3F880303B61FB68C2
:10332000DB433A6913403B613B685B6803F48033DD
:10333000002B03D03A69FB6813433B610A4A3B699F
:10334000C2F880307B6901337B613B681A687B6916
:1033500022FA03F3002B7FF4C7AE00BF00BF1C3777
:10336000BD465DF8047B7047002002467F7F2F003A
:1033700080B487B000AF7860396000237B61A0E043
:1033800001227B6902FA03F33A6813403B613B690F
:10339000002B00F09380524A7B699B08183352F847
:1033A0002330FB607B6903F00303DB000F2202FA8A
:1033B00003F3FA681340FB607B689A0A494B134099
:1033C0007A6902F00302D2009340FA689A4236D139
:1033D000434BD3F880203B69DB4341491340C1F89C
:1033E00080303F4BD3F884203B69DB433C4913409A
:1033F000C1F884303A4B5A683B69DB433849134083
:103400004B60374B1A683B69DB43354913400B600F
:103410007B6903F00303DB000F2202FA03F3FB6076
:103420002F4A7B699B08183352F82310FB68DA4354
:103430002B487B699B080A40183340F823207B689F
:103440001A687B695B00032101FA03F31A437B6866
:103450001A607B69DA087B68083253F822107B69AE
:1034600003F007039B000F2202FA03F3DB437A69A0
:10347000D20819407B68083243F822107B689A68AA
:103480007B695B00032101FA03F3DB431A407B688D
:103490009A607B685A6801217B6901FA03F3DB4378
:1034A0001A407B685A607B68DA687B695B0003219D
:1034B00001FA03F3DB431A407B68DA607B6901336E
:1034C0007B613A687B6922FA03F3002B7FF458AFE3
:1034D00000BF00BF1C37BD465DF8047B704700BFCE
:1034E000002002467F7F2F0080B483B000AF786059
:1034F0000B467B8013467B707B78002B03D07A8849
:103500007B689A6102E07A887B689A6200BF0C3718
:10351000BD465DF8047B704780B485B000AF78602D
:103520000023FB730B4B1B6803F00103002B02D03D
:103530000123FB7307E0074B1B6823F004020549D6
:103540007B6813430B60FB7B18461437BD465DF860
:10355000047B70470004034080B400AF054B1B6838
:10356000044A43F00103136000231846BD465DF88A
:10357000047B70470004034080B400AF054B9B6A96
:10358000044A43F00103936200BFBD465DF8047B2B
:10359000704700BF0008024680B487B000AF786073
:1035A0001B4B9A697B68DBB2DB431A407B681B0AC2
:1035B000174913438B61164BDA697B68DBB23B61B9
:1035C0003B6993FAA3F3FB60FB687B617B69002B8B
:1035D00001D1202303E07B69B3FA83F3DBB25B0004
:1035E000032101FA03F3DB431A407B681B0C0849F3
:1035F0001343CB61064B5A697B68DBB20449134322
:103600004B6100BF1C37BD465DF8047B704700BFAF
:103610000008024680B582B000AF78607B68002B5E
:1036200001D101230CE07B6802221A717868FDF752
:10363000EBFD7B6800229A607B6801221A710023EF
:1036400018460837BD4680BD80B483B000AF7860AF
:1036500039607B681B79DBB2012B0BD17B680222BE
:103660001A717B681B683A681A607B6801221A71BC
:10367000002303E07B6802229A60012318460C377E
:10368000BD465DF8047B704780B483B000AF7860BE
:103690007B681B681B6803F4E02318460C37BD46A3
:1036A0005DF8047B7047000080B58CB000AF786097
:1036B0007B68002B02D1012300F000BC8F4BDB693B
:1036C00003F00C033B628D4B9B6A03F00303FB6228
:1036D0007B681B6803F00103002B72D03B6A082B48
:1036E00005D03B6A0C2B2AD1FB6A032B27D17B68C0
:1036F0005B68002B01D10123E0E33B6A082B5FD11B
:103700007E4B1B6823F488127B689B6813437B4ABB
:1037100043F480331360794B1B681B0D03F00103E6
:10372000774A22FA03F3774A1360774B1B681846EF
:10373000FEF7C0F80346002B42D00123BEE37B68AE
:103740005B68002B1FD06D4B1B6823F488127B68CD
:1037500059687B689B680B43684913430B60FEF70D
:103760003BF9F86108E0FEF737F90246FB69D31A26
:10377000642B01D90323A1E3604B1B6803F40033DE
:10378000002BF0D01DE05D4B1B6823F488127B6892
:103790005B685A4913430B60FEF71EF9F86108E0B5
:1037A000FEF71AF90246FB69D31A642B01D90323E9
:1037B00084E3524B1B6803F40033002BF0D100E08C
:1037C00000BF7B681B6803F00203002B5AD03B6AE2
:1037D000002B05D03B6A0C2B13D1FB6A022B10D1B6
:1037E0007B681B69002B01D1012367E3434B1B69F5
:1037F00023F4F8127B685B691B04404913430B6197
:1038000040E07B681B69002B23D03C4B1B683B4A84
:1038100043F480731360FEF7DFF8F86108E0FEF709
:10382000DBF80246FB69D31A022B01D9032345E3D7
:10383000324B1B6803F48063002BF0D02F4B1B69C5
:1038400023F4F8127B685B691B042C4913430B615A
:1038500018E02A4B1B68294A23F480731360FEF793
:10386000BBF8F86108E0FEF7B7F80246FB69D31A27
:10387000022B01D9032321E3204B1B6803F480634F
:10388000002BF0D17B681B6803F00803002B00F0CD
:10389000F880002387F82730184BD3F8943003F0D2
:1038A0000403002B11D1154BD3F89430134A43F085
:1038B0000403C2F89430114BD3F8943003F004039E
:1038C0003B613B69012387F82730104B9B6A03F06B
:1038D0000103002B22D10D4B9B6A0C4A43F00103DC
:1038E0009362FEF779F8F86112E0FEF775F8024688
:1038F000FB69D31A022B0BD90323DFE2000C02462B
:103900000048E801200000202400002000080246B2
:10391000A84B9B6A03F00103002BE6D0A64BD3F81B
:10392000F030BB624FF08063BB61BB6943F0005372
:10393000BB617B689B69002B79D07B689B6903F036
:103940008063002B30D07B68DA69BB6A03F0805358
:103950009A4220D0BB6A03F00063002B1BD0BB6AE5
:1039600023F08063BB62944ABB6AC2F8F030FEF772
:1039700033F8F86108E0FEF72FF80246FB69D31A26
:10398000142B01D9032399E28B4BD3F8F03003F0C9
:103990000063002BEFD1BB6A23F08053BB627B68CE
:1039A000DB69BA6A1343BB627B689B69BA6A1343DB
:1039B000BB62814ABB6AC2F8F030FEF70DF8F861CD
:1039C00008E0FEF709F80246FB69D31A142B01D967
:1039D000032373E2784BD3F8F0207B689B695B008C
:1039E0001340002BEDD07B689B69BA695340BB61E3
:1039F000BB69DB43BA6A1340BB626F4ABB6AC2F859
:103A0000F030FDF7E9FFF86108E0FDF7E5FF024659
:103A1000FB69D31A142B01D903234FE2664BD3F869
:103A2000F020BB695B001340002BEED11DE0BB69A9
:103A3000DB43BA6A1340BB625F4ABB6AC2F8F0302C
:103A4000FDF7CAFFF86108E0FDF7C6FF0246FB6913
:103A5000D31A142B01D9032330E2574BD3F8F020AB
:103A6000BB695B001340002BEED197F82730012B88
:103A700007D1514BD3F894304F4A23F00403C2F8D6
:103A800094307B681B6803F00403002B00F0E28095
:103A9000002387F82630484BD3F8943003F0040312
:103AA000002B11D1444BD3F89430434A43F0040324
:103AB000C2F89430404BD3F8943003F00403FB6019
:103AC000FB68012387F826303A4B9B6A03F0010319
:103AD000002B18D1374B9B6A364A43F0010393629F
:103AE000FDF77AFFF86108E0FDF776FF0246FB6913
:103AF000D31A022B01D90323E0E12E4B9B6A03F07A
:103B00000103002BF0D07B68DB68002B56D02A4BDA
:103B1000D3F8F03023F08003BB627B68DB68BA6ABD
:103B20001343BB62244ABB6AC2F8F030FDF754FF6E
:103B3000F8610AE0FDF750FF0246FB69D31A41F233
:103B40008832934201D90323B8E11B4BD3F8F030FC
:103B500003F00203002BEDD07B68DB6803F08003E9
:103B6000002B1ED00AE0FDF737FF0246FB69D31A8F
:103B700041F28832934201D903239FE10E4BD3F8DF
:103B8000F03003F40063002BEDD057E0FDF724FF85
:103B90000246FB69D31A41F28832934201D90323CA
:103BA0008CE1054BD3F8F03003F40063002BEDD12A
:103BB00044E000BF00080246000C02468A4BD3F8DE
:103BC000F030894A23F08103C2F8F030864BD3F8F5
:103BD000F030854A23F00403C2F8F030FDF7FCFE14
:103BE000F8610AE0FDF7F8FE0246FB69D31A41F2DC
:103BF0008832934201D9032360E17B4BD3F8F03044
:103C000003F00203002BEDD1774BD3F8F03003F033
:103C10008003002B12D00AE0FDF7DEFE0246FB69AE
:103C2000D31A41F28832934201D9032346E16E4B05
:103C3000D3F8F03003F40063002BEDD197F8263071
:103C4000012B07D1684BD3F89430674A23F0040363
:103C5000C2F894307B681B6A002B00F02E813B6A0F
:103C60000C2B00F0BA807B681B6A022B40F093801B
:103C70005D4B1B6823F08073BB625B4ABB6A1360B9
:103C8000FDF7AAFEF861584B1B68BB62FDF7A4FE66
:103C90000246FB69D31A022B01D903230EE1BB6A4A
:103CA00003F00073002BEED17B685B6A032B08D115
:103CB000BB6A1B0D03F001034C4A22FA03F3FB62BB
:103CC00001E04B4BFB627B689B6AFA6AB2FBF3F341
:103CD000FB62FB6A474A934202D90C23FB6201E074
:103CE0000023FB62404B9B6A7B617B6923F4E363A7
:103CF00023F007037B617B685A6AFB6A1A437B687F
:103D00009B6A013B1B021A437B69134343F48023E4
:103D10007B61354A7B6993627B68DB6A5A1E7B68EC
:103D20001B6B013B5B021A437B685B6B013B1B0413
:103D30001A437B689B6B013B1B0613437B612A4A3A
:103D40007B6953637B68DB6B002B0AD07B68DB6B82
:103D5000254ADB009363244B9B6A234A43F01003FC
:103D60009362214B1B68204A43F080731360FDF778
:103D700033FEF86108E0FDF72FFE0246FB69D31A17
:103D8000022B01D9032399E0174B1B6803F0007342
:103D9000002BF0D091E0144B1B68134A23F0807382
:103DA0001360FDF719FEF86108E0FDF715FE024605
:103DB000FB69D31A022B01D903237FE00A4B1B684E
:103DC00003F00073002BF0D1074B9B6A064A23F4E3
:103DD000E02323F0030393626FE07B681B6A012BEF
:103DE0000AD101236AE000BF000C02460048E80146
:103DF0000024F40000127A00324B9B6ABB62314B04
:103E00005B6B7B61BB6A03F003027B685B6A9A426F
:103E10002BD1BB6A1B0A03F007027B689B6A013B3C
:103E20009A4222D17B69C3F308027B68DB6A013BBB
:103E30009A421AD17B695B0A03F07F027B681B6B95
:103E4000013B9A4211D17B691B0C03F07F027B6816
:103E50005B6B013B9A4208D17B691B0E03F07F022A
:103E60007B689B6B013B9A4201D0012326E0154BF6
:103E70009B6BDB08C3F30C03BB627B68DB6BBA6A2A
:103E80009A421AD00F4B9B6A0E4A23F0100393629A
:103E9000FDF7A2FDF86100BFFDF79EFD0246FB693C
:103EA0009342F9D07B68DB6B064ADB009363054BDA
:103EB0009B6A044A43F0100393620023184630378C
:103EC000BD4680BD000C024680B586B000AF78606C
:103ED00039607B68002B01D1012315E18C4B1B68F5
:103EE00003F00F033A689A4210D9894B1B6823F0FC
:103EF0000F0287493B6813430B60854B1B6803F037
:103F00000F033A689A4201D00123FDE07B681B68E9
:103F100003F02003002B0DD07E4BD3F8003223F0AA
:103F200017027B6899697B68DB690B437949134306
:103F3000C1F800327B681B6803F00103002B6FD0CF
:103F4000744B1B687B617B685B68032B18D17B69B2
:103F500003F00073002B01D10123D5E06D4BDB6929
:103F600003F00C027B685B689B009A421AD0694B95
:103F70009B6A23F44013674A43F48013936211E071
:103F80007B685B68022B06D17B6903F40033002B4E
:103F900008D10123B8E07B6903F48063002B01D1D1
:103FA0000123B1E05B4BDB6923F003027B685B68B4
:103FB00058491343CB61FDF70FFDF8600AE0FDF7A8
:103FC0000BFD0246FB68D31A41F28832934201D9B5
:103FD000032399E04F4BDB6903F00C027B685B68BD
:103FE0009B009A42EBD17B685B68032B18D1494B4D
:103FF0009B6A484A23F480139362FDF7EDFCF86056
:1040000008E0FDF7E9FC0246FB68D31A0A2B01D948
:10401000032379E03F4B9B6A03F48003002BF0D02D
:104020003C4B1B6A7B6100233B617B681B6803F090
:104030000203002B0AD07B6923F007037B617B68B6
:104040009B687A6913437B6101233B617B681B6832
:1040500003F00403002B0AD07B6923F070037B611B
:104060007B68DB687A6913437B6101233B617B6872
:104070001B6803F00803002B0BD07B6923F4E0637B
:104080007B617B681B691B017A6913437B61012398
:104090003B613B69002B02D01E4A7B6913627B683F
:1040A0001B6803F01003002B03D01A4A7B685B697E
:1040B0005362174B1B6803F00F033A689A4210D201
:1040C000134B1B6823F00F0211493B6813430B602D
:1040D0000F4B1B6803F00F033A689A4201D001238B
:1040E00012E000F01FF802460A4B1B6A03F00703B8
:1040F0000949CB5C22FA03F3084A1360084B1B689A
:104100001846FDF7D7FB034618461837BD4680BD55
:1041100000200240000C024644000308200000205A
:104120002400002080B582B000AF104BDB6903F0A3
:104130000C037B607B68002B02D10D4B7B600FE092
:104140007B68082B09D1094B1B681B0D03F0010389
:10415000084A22FA03F37B6002E000F063F878601B
:104160007B6818460837BD4680BD00BF000C02467C
:104170000024F4000048E80180B500AFFFF7D2FF4B
:104180000246074B1B6A03F007030649CB5C22FA81
:1041900003F3054A1360044B1B68184680BD00BF3B
:1041A000000C0246440003082000002080B500AF48
:1041B000FFF7E2FF0246054B1B6A1B0903F00703EA
:1041C0000349CB5C22FA03F3184680BD000C02467B
:1041D0004C00030880B500AFFFF7CEFF0246054B49
:1041E0001B6A1B0A03F007030349CB5C22FA03F3A3
:1041F000184680BD000C02464C00030880B500AF95
:10420000FFF7BAFF0246054B5B6A1B0903F0070381
:104210000349CB5C22FA03F3184680BD000C02462A
:104220004C00030880B582B000AF0B4B5B6B1B0EDC
:1042300003F07F0301337B6000F010F8F0EE407A6A
:10424000FCEEE77A17EE902A7B68B2FBF3F3184690
:104250000837BD4680BD00BF000C024680B487B061
:1042600000AF364B5B6BFB60FB68C3F308030133A5
:104270007B617B6907EE903AF8EE677AC7ED027AC8
:104280002E4B9B6AFB60FB681B0A03F0070301339C
:104290007B617B6907EE903AF8EE677AC7ED017AA9
:1042A000FB6803F01003002B06D0244B9B6BDB084C
:1042B000C3F30C037B6101E000237B617B6907EEA4
:1042C000903AF8EE677AC7ED007AFB6803F00303D3
:1042D000022B02D0032B03D013E0194B3B6114E0F7
:1042E000164B1B681B0D03F00103164A22FA03F359
:1042F0007B617B6907EE903AF8EE677AC7ED047A46
:1043000003E04FF000033B6100BFD7ED046AD7ED37
:10431000017A86EEA77AD7ED007A9FED0B6AC7EE99
:10432000866AD7ED027A76EEA77A67EE277AB0EE44
:10433000670A1C37BD465DF8047B7047000C0246D7
:104340000024744B0048E8010000004680B588B0A6
:1043500000AF78607B681B6803F00103002B0AD074
:10436000464BD3F8E03023F003027B685B68434997
:104370001343C1F8E0307B681B6803F00203002B95
:104380000AD03E4BD3F8E03023F00C027B689B68E8
:104390003A491343C1F8E0307B681B6803F004031B
:1043A000002B0AD0354BD3F8E03023F440627B6811
:1043B000DB6832491343C1F8E0307B681B6803F0C7
:1043C0000803002B0AD02D4BD3F8E03023F4402211
:1043D0007B681B6929491343C1F8E0307B681B687F
:1043E00003F01003002B0AD0244BD3F8E03023F461
:1043F00040127B685B6921491343C1F8E0307B6858
:104400001B6803F02003002B0AD01C4BD3F8E030CC
:1044100023F440027B689B6918491343C1F8E030DC
:104420007B681B6803F04003002B0AD0134BD3F8C2
:10443000E03023F000427B68DB6910491343C1F888
:10444000E0307B681B6803F08003002B22D00B4B0D
:10445000D3F8E43023F0E0027B681B6A074913437A
:10446000C1F8E4307B681B6A002B09D1034B9B6ABF
:10447000024A43F4803393620CE000BF000C024612
:104480007B681B6A202B05D1A84B9B6AA74A43F483
:10449000003393627B681B6803F48073002B15D094
:1044A000A24BD3F8E43023F440527B685B6A9F4907
:1044B0001343C1F8E4307B685B6AB3F5405F05D114
:1044C0009A4B9B6A994A43F4003393627B681B685A
:1044D00003F40013002B0AD0944BD3F8E43023F0FC
:1044E00080427B689B6A91491343C1F8E4307B6842
:1044F0001B6803F40073002B0AD08C4BD3F8E83010
:1045000023F003027B68DB6A88491343C1F8E83073
:104510007B681B6803F48063002B0AD0834BD3F8BD
:10452000E83023F018027B681B6B80491343C1F805
:10453000E8307B681B6803F40063002B0AD07B4BD8
:10454000D3F8E83023F0C0027B685B6B77491343F4
:10455000C1F8E8307B681B6803F48053002B0AD055
:10456000724BD3F8E83023F440627B689B6B6F4951
:104570001343C1F8E8307B681B6803F40053002B39
:1045800015D06A4BD3F8E83023F4E0427B68DB6B4C
:1045900066491343C1F8E8307B68DB6BB3F5005F15
:1045A00005D1624B9B6A614A43F4803393627B6816
:1045B0001B6803F48043002B00F096800023FB77F8
:1045C0005A4BD3F8F03003F44073BB617B681B6C2B
:1045D000BA699A4200F08880544BD3F8943003F0C3
:1045E0000403002B10D1514BD3F894304F4A43F0C1
:1045F0000403C2F894304D4BD3F8943003F0040315
:10460000FB60FB680123FB77494B9B6A484A43F0F8
:1046100001039362FDF7E0F9786108E0FDF7DCF94A
:1046200002467B69D31A022B01D9032379E0404B60
:104630009B6A03F00103002BF0D03C4BD3F8F03021
:1046400023F440733B61BB69002B17D0374BD3F881
:10465000F830BB61354BD3F8F030344A43F4803343
:10466000C2F8F030314BD3F8F030304A23F48033C5
:10467000C2F8F0302D4ABB69C2F8F8307B681A6C7A
:104680002A493B691343C1F8F0302A4BBB61BB692F
:1046900043F00053BB61BA693B691340BB61BB691E
:1046A000002B16D0FDF798F978610AE0FDF794F930
:1046B00002467B69D31A41F28832934201D903231F
:1046C0002FE01A4BD3F8F020BB695B001340002B9E
:1046D000ECD0FB7F012B07D1144BD3F89430134A55
:1046E00023F00403C2F894307B681B6803F4004392
:1046F000002B15D00D4BD3F8F03023F440227B680B
:104700005B6C0A491343C1F8F030084BD3F8F03022
:1047100003F440227B685B6C9A4201D0012300E0E5
:10472000002318462037BD4680BD00BF000C02465E
:10473000000802460100000480B483B000AF786036
:10474000084BD3F8103223F47C127B681B04054914
:104750001343C1F8103200BF0C37BD465DF8047B2F
:10476000704700BF000C024680B400AF064BD3F880
:104770000832054A43F00203C2F8083200BFBD46C2
:104780005DF8047B704700BF000C024680B400AFA8
:10479000064BD3F80832054A23F00203C2F8083268
:1047A00000BFBD465DF8047B704700BF000C0246A9
:1047B00080B584B000AF78607B68002B01D1012305
:1047C0008BE07B685B7ADBB2002B05D17B68002233
:1047D0001A727868FCF734FD7B6802225A727B6893
:1047E0001B681A687B681B6822F004021A607B68E9
:1047F0001B681A683B4B13407A68526813437A6807
:10480000126843F0804343F4005313607B681B68D5
:104810001A687B681B6822F080421A60FDF7DCF89A
:10482000F86016E0FDF7D8F80246FB68D31A0A2BA9
:104830000FD97B681B681B6803F08043B3F1804F7E
:1048400007D17B6801225A727B680222DA60012359
:1048500043E07B681B681B6803F08043B3F1804F23
:10486000E0D07B681B681A687B681B6842F0040212
:104870001A607B681B685B6803F04003402B04D11F
:104880007B6804225A72012327E0FDF7A5F8F8603F
:1048900015E0FDF7A1F80246FB68D31A0A2B0ED9E2
:1048A0007B681B685B6803F00403042B07D17B68FB
:1048B00004225A727B680222DA6001230DE07B68D1
:1048C0001B685B6803F00403042BE2D07B680122C1
:1048D0005A727B680022DA60002318461037BD4602
:1048E00080BD00BFDF1FFFBF80B584B000AF786020
:1048F0000123FB737B68002B71D07B6893F82D300C
:10490000DBB2002B06D17B68002283F82C2078686C
:10491000FCF7CEFC7B68022283F82D20324BDB684B
:1049200003F01003102B51D02F4BCA225A622E4B8A
:1049300053225A62786800F0CDF90346FB73FB7B83
:10494000002B3FD1284B9B69274A23F08E6323F02D
:1049500040039361244B9A697B6859687B681B69A3
:1049600019437B689B690B431F4913438B617B6829
:10497000DA687B689B681B041B4913430B611A4B65
:10498000DB6823F4F8527B68596A7B689B6A0B43A7
:1049900015491343CB60786800F0D8F90346FB73E0
:1049A000FB7B002B0ED1104B9B6923F060427B6890
:1049B000196A7B68DB6919437B685B690B430A49A9
:1049C00013438B61084BFF225A6201E00023FB7303
:1049D000FB7B002B03D17B68012283F82D20FB7B1E
:1049E00018461037BD4680BD0078004690B587B0A8
:1049F00000AFF860B9607A6000237B61FB6893F8D0
:104A00002C30012B01D10223EAE0FB68012283F85C
:104A10002C20FB68022283F82D20734BDB6803F403
:104A200040733B613B69B3F5807F5CD07B68002BB2
:104A300036D16D4B9B6903F04003002B02D1BB685C
:104A40000022DA70BB681B78184600F0BDF90346F7
:104A50001C04BB685B78184600F0B6F903461B02DD
:104A60001C43BB689B78184600F0AEF9034644EA45
:104A70000302BB68DB789B0542EA0304BB6893F83A
:104A80002430184600F0A0F903461B0644EA03024E
:104A9000BB681B6A1A43BB685B6913437B6122E0F6
:104AA000514B9B6903F04003002B02D1BB680022ED
:104AB000DA70BB681B781A04BB685B781B0213436F
:104AC000BA6892781A43BB68DB789B051A43BB68C7
:104AD00093F824301B061A43BB681B6A1A43BB6851
:104AE0005B6913437B61BB68DB6AB3F5807F37D1B9
:104AF0003D4B9B693C4A23F4885393613A4B012216
:104B0000DA653B69B3F5807F07D1BB689A69BB68FA
:104B1000DB69354913434B6406E0334A7B69136410
:104B2000314ABB689B6953642F4ABB685B68136753
:104B3000BB689B6A012B06D12B4B9B692A4A43F029
:104B40000063936105E0284B9B69274A23F00063CB
:104B50009361254B9B69244A43F48853936136E063
:104B6000214B9B69204A23F4085393611E4B022278
:104B7000DA653B69B3F5807F07D1BB689A69BB688A
:104B8000DB6919491343CB6406E0174A7B699364D8
:104B9000154ABB689B69D364134ABB685B6853675B
:104BA000BB689B6A012B06D10F4B9B690E4A43F0F1
:104BB0008053936105E00C4B9B690B4A23F08053B3
:104BC0009361094B9B69084A43F408539361FB685E
:104BD000012283F82D20FB68002283F82C2000237B
:104BE00018461C37BD4690BD0078004680B483B09F
:104BF00000AF786039607B6893F82C30012B01D1CD
:104C000002232DE07B68012283F82C207B6802229E
:104C100083F82D203B68B3F5807F0CD1134B9B6943
:104C2000124A23F488539361104B5B6C0F4A23F0B4
:104C3000004353640BE00D4B9B690C4A23F408536B
:104C400093610A4BDB6C094A23F00043D3647B6811
:104C5000012283F82D207B68002283F82C2000237A
:104C600018460C37BD465DF8047B70470078004657
:104C700080B584B000AF7860154BDB68144A23F030
:104C80002003D360FCF7A8FEF86013E0FCF7A4FE55
:104C90000246FB68D31AB3F57A7F0BD90C4BDB685D
:104CA00003F02003002B0CD17B68032283F82D2016
:104CB000032308E0064BDB6803F02003002BE5D05C
:104CC00000E000BF002318461037BD4680BD00BF7E
:104CD0000078004680B584B000AF78600023FB7395
:104CE000194BDB6803F04003002B28D1164BDB681F
:104CF000154A43F08003D360FCF76EFEB86013E002
:104D0000FCF76AFE0246BB68D31AB3F57A7F0BD96B
:104D10000D4BDB6803F04003002B0FD10323FB7323
:104D20007B68032283F82D20074BDB6803F04003E8
:104D3000002B04D1FB7B032BE2D100E000BFFB7B07
:104D400018461037BD4680BD0078004680B584B057
:104D500000AF78600023FB731A4BDB68194A23F01D
:104D60008003D360174B9B6903F02003002B0CD109
:104D70007868FFF77DFF0346002B1ED07B68032277
:104D800083F82D200323FB7317E00E4B9B690D4A1C
:104D900023F0200393617868FFF76AFF0346002B36
:104DA00005D07B68032283F82D200323FB73054B7A
:104DB0009B69044A43F020039361FB7B184610373C
:104DC000BD4680BD0078004680B485B000AF034684
:104DD000FB710023FB60FB79FB7205E0FB6801338C
:104DE000FB60FB7A0A3BFB72FB7A092BF6D8FB6867
:104DF000DBB21B01DAB2FB7A1343DBB2184614377D
:104E0000BD465DF8047B704780B483B000AF786026
:104E10007B6893F82C30012B01D1022316E07B68CC
:104E2000012283F82C207B68022283F82D200A4B74
:104E30009B69094A43F0200393617B68012283F850
:104E40002D207B68002283F82C20002318460C3785
:104E5000BD465DF8047B70470078004680B487B09B
:104E600000AFF860B9607A60074B7B61BB689B005C
:104E70007A6913447B617B697A681A6000BF1C37CA
:104E8000BD465DF8047B7047007D004680B483B06A
:104E900000AF786039603B681A683B685B6810490E
:104EA0001343CB613B689A683B68DB681A433B68F5
:104EB0009B690C4913434B620A4B1B6A03F0FF22A8
:104EC0003B6819693B685B691B040B430549134345
:104ED0000B62002318460C37BD465DF8047B704713
:104EE00000780046007C004680B582B000AF786054
:104EF0007B68002B01D1012349E07B6893F83D30AA
:104F0000DBB2002B06D17B68002283F83C20786856
:104F1000FCF706FA7B68022283F83D207B681A685A
:104F20007B6804331946104600F044FA7B6801227E
:104F300083F848207B68012283F83E207B680122A9
:104F400083F83F207B68012283F840207B680122A0
:104F500083F841207B68012283F842207B6801228C
:104F600083F843207B68012283F844207B68012278
:104F700083F845207B68012283F846207B68012264
:104F800083F847207B68012283F83D2000231846E0
:104F90000837BD4680BD80B582B000AF78607B68C1
:104FA000002B01D1012349E07B6893F83D30DBB24F
:104FB000002B06D17B68002283F83C20786800F043
:104FC00041F87B68022283F83D207B681A687B6881
:104FD00004331946104600F0EDF97B68012283F88E
:104FE00048207B68012283F83E207B68012283F8F9
:104FF0003F207B68012283F840207B68012283F8F0
:1050000041207B68012283F842207B68012283F8DB
:1050100043207B68012283F844207B68012283F8C7
:1050200045207B68012283F846207B68012283F8B3
:1050300047207B68012283F83D200023184608376B
:10504000BD4680BD80B483B000AF786000BF0C3730
:10505000BD465DF8047B704780B582B000AF7860D4
:1050600039607B68002B01D1012341E07B6893F814
:105070003D30DBB2002B06D17B68002283F83C2058
:10508000786800F039F87B68022283F83D207B685D
:105090001A687B6804331946104600F08BF97B6868
:1050A0001B681A687B681B6822F008021A607B681C
:1050B0001B6819687B681B683A680A431A607B683A
:1050C000012283F848207B68012283F83E207B6818
:1050D000012283F83F207B68012283F844207B680B
:1050E000012283F845207B68012283F83D200023BC
:1050F00018460837BD4680BD80B483B000AF7860E5
:1051000000BF0C37BD465DF8047B704780B586B0A4
:1051100000AFF860B9607A600023FB75FB6893F814
:105120003C30012B01D1022366E0FB68012283F8A9
:105130003C207B68142B57D801A252F823F000BF03
:1051400095510008E9510008E9510008E9510008AB
:10515000A3510008E9510008E9510008E95100088D
:10516000B1510008E9510008E9510008E95100086F
:10517000BF510008E9510008E9510008E951000851
:10518000CD510008E9510008E9510008E951000833
:10519000DB510008FB681B68B968184600F084F909
:1051A00025E0FB681B68B968184600F0F9F91EE0B5
:1051B000FB681B68B968184600F06CFA17E0FB68DA
:1051C0001B68B968184600F0DDFA10E0FB681B6840
:1051D000B968184600F050FB09E0FB681B68B96825
:1051E000184600F0A1FB02E00123FB7500BFFB683D
:1051F000002283F83C20FB7D18461837BD4680BD51
:1052000080B584B000AF786039600023FB737B68A1
:1052100093F83C30012B01D10223C2E07B680122CC
:1052200083F83C207B68022283F83D207B681B6862
:105230009B68BB60BB6823F4441323F07703BB6017
:10524000BB6823F47F43BB607B681B68BA689A60C5
:105250003B681B68554A934200F08D80534A934245
:1052600000F29280524A934200F08580504A934265
:1052700000F28A80B3F5005F3AD0B3F5005F00F228
:105280008380B3F5805F00F08280B3F5805F7BD8C8
:10529000702B16D0702B77D8602B4CD0602B73D826
:1052A000502B38D0502B6FD8402B54D0402B6BD87C
:1052B000202B60D0202B67D8002B5CD0102B5AD02D
:1052C00062E07B6818683B6899683B685A683B688D
:1052D000DB6800F0FFFB7B681B689B68BB60BB68FA
:1052E00043F07703BB607B681B68BA689A604FE045
:1052F0007B6818683B6899683B685A683B68DB685C
:1053000000F0E8FB7B681B689A687B681B6842F4C6
:1053100080429A603CE07B6818683B6859683B684B
:10532000DB681A4600F05AFB7B681B685021184660
:1053300000F0B3FB2CE07B6818683B6859683B6859
:10534000DB681A4600F079FB7B681B686021184611
:1053500000F0A3FB1CE07B6818683B6859683B6859
:10536000DB681A4600F03AFB7B681B684021184650
:1053700000F093FB0CE07B681A683B681B681946D9
:10538000104600F08AFB03E00123FB7300E000BF3E
:105390007B68012283F83D207B68002283F83C2053
:1053A000FB7B18461037BD4680BD00BF4000100093
:1053B0003000100080B485B000AF786039607B6841
:1053C0001B68FB607B68344A934207D07B68B3F16B
:1053D000804F03D07B68314A934208D1FB6823F0A9
:1053E0007003FB603B685B68FA681343FB607B6893
:1053F000294A93420FD07B68B3F1804F0BD07B6872
:10540000264A934207D07B68254A934203D07B68A3
:10541000244A934208D1FB6823F44073FB603B6845
:10542000DB68FA681343FB60FB6823F080023B688B
:105430005B691343FB607B68FA681A603B689A6893
:105440007B68DA623B681A687B689A627B68124AFA
:10545000934207D07B68124A934203D07B68114A7B
:10546000934203D13B681A697B681A637B68012207
:105470005A617B681B6903F00103012B05D17B682E
:105480001B6923F001027B681A6100BF1437BD4617
:105490005DF8047B704700BF002C01400004004011
:1054A000004401400048014080B487B000AF7860FC
:1054B00039607B681B6A7B617B681B6A23F0010291
:1054C0007B681A627B685B683B617B689B69FB60F9
:1054D000FB6823F4803323F07003FB60FB6823F048
:1054E0000303FB603B681B68FA681343FB607B693E
:1054F00023F002037B613B689B687A6913437B61FD
:105500007B68244A934207D07B68234A934203D0A6
:105510007B68224A93420CD17B6923F008037B61AC
:105520003B68DB687A6913437B617B6923F0040382
:105530007B617B68174A934207D07B68164A934287
:1055400003D07B68154A934211D13B6923F48073E1
:105550003B613B6923F400733B613B685B693A69DB
:1055600013433B613B689B693A6913433B617B682A
:105570003A695A607B68FA689A613B685A687B6846
:105580005A637B687A691A6200BF1C37BD465DF8B2
:10559000047B7047002C014000440140004801405A
:1055A00080B487B000AF786039607B681B6A7B612C
:1055B0007B681B6A23F010027B681A627B685B6859
:1055C0003B617B689B69FB60FB6823F0807323F47D
:1055D000E043FB60FB6823F44073FB603B681B689F
:1055E0001B02FA681343FB607B6923F020037B6195
:1055F0003B689B681B017A6913437B617B68224A85
:1056000093420DD17B6923F080037B613B68DB68AB
:105610001B017A6913437B617B6923F040037B6143
:105620007B68194A934207D07B68184A934203D09B
:105630007B68174A934213D13B6923F480633B6133
:105640003B6923F400633B613B685B699B003A69FB
:1056500013433B613B689B699B003A6913433B6181
:105660007B683A695A607B68FA689A613B685A6855
:105670007B689A637B687A691A6200BF1C37BD46F3
:105680005DF8047B704700BF002C014000440140DE
:105690000048014080B487B000AF786039607B6813
:1056A0001B6A7B617B681B6A23F480727B681A62C9
:1056B0007B685B683B617B68DB69FB60FB6823F4AC
:1056C000803323F07003FB60FB6823F00303FB606F
:1056D0003B681B68FA681343FB607B6923F4007323
:1056E0007B613B689B681B027A6913437B617B6823
:1056F000214A93420DD17B6923F400637B613B68AF
:10570000DB681B027A6913437B617B6923F4806346
:105710007B617B68184A934207D07B68174A9342A3
:1057200003D07B68164A934213D13B6923F480531C
:105730003B613B6923F400533B613B685B691B01A0
:105740003A6913433B613B689B691B013A69134308
:105750003B617B683A695A607B68FA68DA613B684A
:105760005A687B68DA637B687A691A6200BF1C3703
:10577000BD465DF8047B7047002C014000440140A9
:105780000048014080B487B000AF786039607B6822
:105790001B6A7B617B681B6A23F480527B681A62F8
:1057A0007B685B683B617B68DB69FB60FB6823F0BF
:1057B000807323F4E043FB60FB6823F44073FB60D9
:1057C0003B681B681B02FA681343FB607B6923F488
:1057D00000537B613B689B681B037A6913437B61C1
:1057E0007B68224A93420DD17B6923F400437B619D
:1057F0003B68DB681B037A6913437B617B6923F495
:1058000080437B617B68194A934207D07B68184AC2
:10581000934203D07B68174A934213D13B6923F428
:1058200080433B613B6923F400433B613B685B6918
:105830009B013A6913433B613B689B699B013A6951
:1058400013433B617B683A695A607B68FA68DA61A6
:105850003B685A687B681A647B687A691A6200BF81
:105860001C37BD465DF8047B704700BF002C01402B
:10587000004401400048014080B487B000AF786028
:1058800039607B681B6A3B617B681B6A23F480324A
:105890007B681A627B685B687B617B681B6DFB6061
:1058A000FB6823F4803323F07003FB603B681B68C4
:1058B000FA681343FB603B6923F400333B613B68A8
:1058C0009B681B043A6913433B617B68134A93420C
:1058D00007D07B68124A934203D07B68114A9342F7
:1058E00009D17B6923F480337B613B685B691B02D0
:1058F0007A6913437B617B687A695A607B68FA68CE
:105900001A653B685A687B689A647B683A691A62D0
:1059100000BF1C37BD465DF8047B7047002C01407A
:10592000004401400048014080B487B000AF786077
:1059300039607B681B6A3B617B681B6A23F48012B9
:105940007B681A627B685B687B617B681B6DFB60B0
:10595000FB6823F0807323F4E043FB603B681B6823
:105960001B02FA681343FB603B6923F400133B619D
:105970003B689B681B053A6913433B617B68144A8B
:10598000934207D07B68134A934203D07B68124A44
:10599000934209D17B6923F480237B613B685B6977
:1059A0009B027A6913437B617B687A695A607B68E2
:1059B000FA681A653B685A687B68DA647B683A69FA
:1059C0001A6200BF1C37BD465DF8047B704700BFFC
:1059D000002C0140004401400048014080B487B0E1
:1059E00000AFF860B9607A60FB681B6A7B61FB6896
:1059F0001B6A23F00102FB681A62FB689B693B612A
:105A00003B6923F0F0033B617B681B013A69134358
:105A10003B617B6923F00A037B617A69BB681343AE
:105A20007B61FB683A699A61FB687A691A6200BF18
:105A30001C37BD465DF8047B704780B487B000AF6B
:105A4000F860B9607A60FB681B6A7B61FB681B6A5F
:105A500023F01002FB681A62FB689B693B613B699B
:105A600023F470433B617B681B033A6913433B613A
:105A70007B6923F0A0037B61BB681B017A69134338
:105A80007B61FB683A699A61FB687A691A6200BFB8
:105A90001C37BD465DF8047B704780B485B000AF0D
:105AA000786039607B689B68FB60FB6823F4401377
:105AB00023F07003FB603A68FB68134343F007036D
:105AC000FB607B68FA689A6000BF1437BD465DF8DA
:105AD000047B704780B487B000AFF860B9607A602B
