:020000040800F2
:1000000000000220693C0108013700080937000898
:10001000113700081937000821370008A13D0008F2
:100020000000000000000000000000002937000868
:100030003737000800000000453700085337000834
:10004000A13D0008A13D000861370008A13D00085E
:10005000A13D0008A13D0008A13D0008A13D000808
:10006000A13D0008A13D0008A13D0008A13D0008F8
:10007000A13D0008A13D0008A13D0008A13D0008E8
:10008000A13D0008A13D0008A13D0008A13D0008D8
:10009000A13D0008A13D0008A13D0008A13D0008C8
:1000A000A13D0008A13D000861380008A13D0008FD
:1000B000A13D0008B1380008A13D0008A13D00089D
:1000C000A13D0008A13D0008A13D0008A13D000898
:1000D000A13D0008A13D0008A13D0008A13D000888
:1000E000A13D0008A13D0008A13D0008A13D000878
:1000F000A13D0008A13D0008A13D0008A13D000868
:10010000A13D0008E5390008A13D0008A13D000817
:10011000F9390008A13D0008A13D0008A13D0008F3
:10012000A13D0008A13D0008A13D0008A13D000837
:10013000A13D0008513A0008A13D0008A13D00087A
:10014000A13D0008193A00082D3A0008A13D000819
:10015000A13D0008A13D0008A13D0008A13D000807
:1001600010B5054C237833B9044B13B10448AFF3F1
:1001700000800123237010BD500600200000000005
:10018000B456030808B5034B1BB103490348AFF34A
:10019000008008BD0000000054060020B45603088B
:1001A00070B4840746D04C1E002941D0D5B2034616
:1001B00002E0611EE4B30C4603F8015B9907F8D135
:1001C000032C2ED9D5B245EA05250F2C45EA054565
:1001D00019D9264603F11001103E0F2E41F8105C8C
:1001E00041F80C5C41F8085C41F8045C01F1100135
:1001F000F2D8A4F1100121F00F0104F00F04103126
:10020000032C0B440DD91E4621460439032946F818
:10021000045BFAD8211F21F0030104310B4404F0E0
:1002200003042CB1D2B21C4403F8012BA342FBD12E
:1002300070BC70470C460346C2E7034613F8012B17
:10024000002AFBD1181A01387047000081F00041E4
:1002500002E000BF83F0004330B54FEA41044FEAAB
:10026000430594EA050F08BF90EA020F1FBF54EA46
:10027000000C55EA020C7FEA645C7FEA655C00F0E2
:10028000E2804FEA5454D4EB5555B8BF6D420CDDB3
:100290002C4480EA020281EA030382EA000083EA36
:1002A000010180EA020281EA0303362D88BF30BDD6
:1002B00011F0004F4FEA01314FF4801C4CEA11312C
:1002C00002D0404261EB410113F0004F4FEA03338B
:1002D0004CEA133302D0524263EB430394EA050F16
:1002E00000F0A780A4F10104D5F1200E0DDB02FA85
:1002F0000EFC22FA05F2801841F1000103FA0EF219
:10030000801843FA05F359410EE0A5F120050EF1DE
:10031000200E012A03FA0EFC28BF4CF0020C43FA0F
:1003200005F3C01851EBE37101F0004507D54FF01C
:10033000000EDCF1000C7EEB00006EEB0101B1F56C
:10034000801F1BD3B1F5001F0CD349085FEA3000B2
:100350004FEA3C0C04F101044FEA445212F5800FBD
:1003600080F09A80BCF1004F08BF5FEA500C50F15A
:10037000000041EB045141EA050130BD5FEA4C0C3D
:10038000404141EB0101013C28BFB1F5801FE9D29A
:1003900091F0000F04BF01460020B1FA81F308BFBD
:1003A0002033A3F10B03B3F120020CDA0C3208DD89
:1003B00002F1140CC2F10C0201FA0CF021FA02F164
:1003C0000CE002F11402D8BFC2F1200C01FA02F1D4
:1003D00020FA0CFCDCBF41EA0C019040E41AA2BFF9
:1003E00001EB0451294330BD6FEA04041F3C1CDAC1
:1003F0000C340EDC04F11404C4F1200220FA04F0E1
:1004000001FA02F340EA030021FA04F345EA03018A
:1004100030BDC4F10C04C4F1200220FA02F001FA4C
:1004200004F340EA0300294630BD21FA04F02946CE
:1004300030BD94F0000F83F4801306BF81F4801167
:100440000134013D4EE77FEA645C18BF7FEA655CDA
:1004500029D094EA050F08BF90EA020F05D054EAAC
:10046000000C04BF1946104630BD91EA030F1EBFB1
:100470000021002030BD5FEA545C05D140004941B5
:1004800028BF41F0004130BD14F580043CBF01F5A8
:10049000801130BD01F0004545F0FE4141F470018E
:1004A0004FF0000030BD7FEA645C1ABF1946104669
:1004B0007FEA655C1CBF0B46024650EA013406BF6A
:1004C00052EA033591EA030F41F4002130BD00BF29
:1004D00090F0000F04BF0021704730B54FF48064E6
:1004E00004F132044FF000054FF0000150E700BF67
:1004F00090F0000F04BF0021704730B54FF48064C6
:1005000004F1320410F0004548BF40424FF00001B2
:100510003EE700BF42004FEAE2014FEA31014FEAF5
:1005200002701FBF12F07F4393F07F4F81F0605144
:10053000704732F07F4208BF704793F07F4F04BF8F
:1005400041F40021704730B54FF4607401F000456C
:1005500021F000411CE700BF50EA010208BF7047CC
:1005600030B54FF000050AE050EA010208BF7047BD
:1005700030B511F0004502D5404261EB41014FF426
:10058000806404F132045FEA915C3FF4D8AE4FF02E
:1005900003025FEADC0C18BF03325FEADC0C18BF11
:1005A000033202EBDC02C2F1200300FA03FC20FA62
:1005B00002F001FA03FE40EA0E0021FA02F11444AF
:1005C000BDE600BF70B54FF0FF0C4CF4E06C1CEAC8
:1005D00011541DBF1CEA135594EA0C0F95EA0C0F39
:1005E00000F0DEF82C4481EA030621EA4C5123EAAC
:1005F0004C5350EA013518BF52EA033541F48011DB
:1006000043F4801338D0A0FB02CE4FF00005E1FB8D
:1006100002E506F00042E0FB03E54FF00006E1FBD7
:1006200003569CF0000F18BF4EF0010EA4F1FF041A
:10063000B6F5007F64F5407404D25FEA4E0E6D415A
:1006400046EB060642EAC62141EA55514FEAC5206B
:1006500040EA5E504FEACE2EB4F1FD0C88BFBCF5E7
:10066000E06F1ED8BEF1004F08BF5FEA500E50F198
:10067000000041EB045170BD06F0004646EA01015E
:1006800040EA020081EA0301B4EB5C04C2BFD4EB90
:100690000C0541EA045170BD41F480114FF0000E89
:1006A000013C00F3AB8014F1360FDEBF002001F0F7
:1006B000004170BDC4F10004203C35DA0C341BDC71
:1006C00004F11404C4F1200500FA05F320FA04F043
:1006D00001FA05F240EA020001F0004221F0004177
:1006E00010EBD37021FA04F642EB06015EEA430EEA
:1006F00008BF20EAD37070BDC4F10C04C4F120051A
:1007000000FA04F320FA05F001FA04F240EA0200CC
:1007100001F0004110EBD37041F100015EEA430E9D
:1007200008BF20EAD37070BDC4F1200500FA05F2BD
:100730004EEA020E20FA04F301FA05F243EA02033C
:1007400021FA04F001F0004121FA04F220EA02004B
:1007500000EBD3705EEA430E08BF20EAD37070BD91
:1007600094F0000F0FD101F00046400041EB010171
:1007700011F4801F08BF013CF7D041EA060195F053
:10078000000F18BF704703F00046520043EB03030D
:1007900013F4801F08BF013DF7D043EA06037047FA
:1007A00094EA0C0F0CEA135518BF95EA0C0F0CD005
:1007B00050EA410618BF52EA4306D1D181EA03014B
:1007C00001F000414FF0000070BD50EA410606BF45
:1007D0001046194652EA430619D094EA0C0F02D18A
:1007E00050EA013613D195EA0C0F05D152EA0336CF
:1007F0001CBF104619460AD181EA030101F00041ED
:1008000041F0FE4141F470014FF0000070BD41F035
:10081000FE4141F4780170BD70B54FF0FF0C4CF40F
:10082000E06C1CEA11541DBF1CEA135594EA0C0F2E
:1008300095EA0C0F00F0A7F8A4EB050481EA030E7B
:1008400052EA03354FEA013100F088804FEA033362
:100850004FF0805545EA131343EA12634FEA022230
:1008600045EA111545EA10654FEA00260EF00041F1
:100870009D4208BF964244F1FD0404F5407402D243
:100880005B084FEA3202B61A65EB03055B084FEAD4
:1008900032024FF480104FF4002CB6EB020E75EBD1
:1008A000030E22BFB61A754640EA0C005B084FEAF9
:1008B0003202B6EB020E75EB030E22BFB61A754676
:1008C00040EA5C005B084FEA3202B6EB020E75EBC1
:1008D000030E22BFB61A754640EA9C005B084FEA39
:1008E0003202B6EB020E75EB030E22BFB61A754646
:1008F00040EADC0055EA060E18D04FEA051545EA35
:1009000016754FEA06164FEAC30343EA52734FEADD
:10091000C2025FEA1C1CC0D111F4801F0BD141EA56
:1009200000014FF000004FF0004CB6E711F4801FBB
:1009300004BF01430020B4F1FD0C88BFBCF5E06F9B
:100940003FF6AFAEB5EB030C04BFB6EB020C5FEAAB
:10095000500C50F1000041EB045170BD0EF0004E00
:100960004EEA113114EB5C04C2BFD4EB0C0541EA32
:10097000045170BD41F480114FF0000E013C90E62F
:1009800045EA060E8DE60CEA135594EA0C0F08BFF3
:1009900095EA0C0F3FF43BAF94EA0C0F0AD150EAF2
:1009A00001347FF434AF95EA0C0F7FF425AF104685
:1009B00019462CE795EA0C0F06D152EA03353FF4AD
:1009C000FDAE1046194622E750EA410618BF52EA2A
:1009D00043067FF4C5AE50EA41047FF40DAF52EAFE
:1009E00043057FF4EBAE12E74FF0FF3C06E000BF9B
:1009F0004FF0010C02E000BF4FF0010C4DF804CDA8
:100A00004FEA410C7FEA6C5C4FEA430C18BF7FEA67
:100A10006C5C1BD001B050EA410C0CBF52EA430C95
:100A200091EA030F02BF90EA020F0020704710F115
:100A3000000F91EA030F58BF994208BF90422CBFA4
:100A4000D8176FEAE37040F0010070474FEA410C9D
:100A50007FEA6C5C02D150EA013C07D14FEA430CBB
:100A60007FEA6C5CD6D152EA033CD3D05DF8040B2C
:100A7000704700BF8446104662468C46194663465E
:100A800000E000BF01B5FFF7B7FF002848BF10F135
:100A9000000F01BD4DF808EDFFF7F4FF0CBF01207A
:100AA00000205DF808FB00BF4DF808EDFFF7EAFFF6
:100AB00034BF012000205DF808FB00BF4DF808EDB1
:100AC000FFF7E0FF94BF012000205DF808FB00BFA6
:100AD0004DF808EDFFF7CEFF94BF012000205DF830
:100AE00008FB00BF4DF808EDFFF7C4FF34BF01203D
:100AF00000205DF808FB00BF4FEA410C7FEA6C5C08
:100B000002D150EA013C0AD14FEA430C7FEA6C5C07
:100B100002D152EA033C02D14FF0000070474FF07F
:100B2000010070474FEA410212F5001215D211D5AB
:100B30006FF47873B3EB625212D94FEAC12343F0DA
:100B4000004343EA505311F0004F23FA02F018BF5C
:100B5000404270474FF00000704750EA013005D125
:100B600011F0004008BF6FF0004070474FF00000E8
:100B7000704700BF53B94AB9002908BF00281CBFFD
:100B80004FF0FF314FF0FF3000F07EB9ADF1080CAF
:100B90006DE904CE00F006F8DDF804E0DDE902239B
:100BA00004B070472DE9F04F099D0C46002B4DD144
:100BB0008A420F4684469646B2FA82F360D94BB118
:100BC00002FA03FEC3F120029F4000FA03FC20FA60
:100BD00002F217434FEA1E461FFA8EF44FEA1C42F8
:100BE000B7FBF6F106FB117701FB04F042EA07427E
:100BF000904208D91EEB020201F1FF3702D2904267
:100C000000F22D813946121A1FFA8CFCB2FBF6F065
:100C100006FB102200FB04F44CEA024C644508D9A0
:100C20001EEB0C0C00F1FF3202D2644500F21A8177
:100C3000104640EA0140ACEB040C002125B12CFA2F
:100C400003F30022C5E90032BDE8F08F8B4205D9DD
:100C50000DB1C5E9000100210846F5E7B3FA83F1BB
:100C600000294DD1A342C0F0F280904280F0EF8085
:100C7000064623460846002DE6D0C5E90063E3E7B3
:100C8000002B40F0A2808A1A4FEA1E471FFA8EF608
:100C90000121B2FBF7F407FB14204FEA1C4242EAA1
:100CA000004206FB04F090420FD91EEB020204F151
:100CB000FF382CBF4FF001094FF00009904203D9D3
:100CC000B9F1000F00F0C8804446121A1FFA8CFCDC
:100CD000B2FBF7F007FB102200FB06F64CEA024CD1
:100CE000664508D91EEB0C0C00F1FF3202D26645B6
:100CF00000F2BB801046ACEB060C40EA04409DE7D6
:100D0000C1F120068B4004FA01FE22FA06F720FA10
:100D100006FCF4408A401F434EEA0C0300FA01FE31
:100D20004FEA17484FEA13491FFA87FCB4FBF8F063
:100D300008FB104449EA044400FB0CF9A1450ED914
:100D40003C1900F1FF3A2CBF4FF0010B4FF0000BA4
:100D5000A14503D9BBF1000F00F093805046A4EBEE
:100D600009041FFA83F9B4FBF8F308FB134403FBEF
:100D70000CFC49EA0444A44506D93C1903F1FF38A8
:100D800001D2A4457AD8434643EA0040A4EB0C04C0
:100D9000A0FB02984445CC46434602D306D1CE453B
:100DA00004D20138B9EB020C68EB07035DB1BEEB6E
:100DB0000C0264EB030404FA06F622FA01F3CC40B9
:100DC0001E43C5E9006400213EE702FA03FEC3F1B9
:100DD000200104FA03F200FA03FCCC404FEA1E475C
:100DE00020FA01F11FFA8EF6B4FBF7F00A4307FB75
:100DF0001044110C41EA044100FB06F48C420ED968
:100E00001EEB010100F1FF382CBF4FF001094FF03C
:100E100000098C4202D9B9F1000F2CD04046091BC1
:100E200092B2B1FBF7F407FB141142EA014204FB52
:100E300006F1914207D91EEB020204F1FF3801D2FC
:100E4000914215D84446521A44EA004121E7861AD5
:100E500064EB030301200EE7023C724435E70239DC
:100E60007244D0E6F4440238E3E6F444023842E740
:100E7000023C7244E7E702387144D0E7023B3C444D
:100E800082E702383C446AE7704700BF80B584B00F
:100E900000AF03460A46FB711346BB80BB889B002C
:100EA0009AB240F6FC731340FB81FB79002B10D102
:100EB0003C4B1B88BA889A426BD03A4ABB88138055
:100EC000FB8943F07F4343F47F0343F41043FB81EA
:100ED00012E0FB79012B5ED1334B1B88BA889A4212
:100EE0005BD0314ABB881380FB8943F07F4343F4D6
:100EF0007F0343F42043FB81002280212B4805F02F
:100F0000DBFF01228021294805F0D6FF01224FF4A2
:100F10008071264805F0D0FF00224FF480712348ED
:100F200005F0CAFF00228021204805F0C5FF0023FC
:100F3000BB6025E0FA89BB68C3F10F0342FA03F3F3
:100F400003F00103002B06D100224FF48051184812
:100F500005F0B2FF05E001224FF48051144805F07E
:100F6000ABFF01224FF48071104805F0A5FF00226D
:100F70004FF480710D4805F09FFFBB680133BB60E3
:100F8000BB680F2BD6DD01228021084805F094FFB5
:100F900004E000BF02E000BF00E000BF1037BD4624
:100FA00080BD00BF6C0600206E06002000000242DB
:100FB0000004024280B400AF064BD3F8F430054A77
:100FC00043F40003C2F8F43000BFBD465DF8047B73
:100FD000704700BF000C024680B500AF00F062F819
:100FE00000BF80BD80B582B000AF786000200CF0FB
:100FF000EEFC00F071F800F07DF8244810F0D0FB12
:10100000234A0021202012F095FF224B1B884FF627
:10101000FF7293420ED01F4B1B88002B08D01D4B34
:101020001B889B025B0B03F57F533E335B0302E09F
:10103000194B00E0184B18460EF0F0F9174A002142
:10104000402012F077FF164A0021102012F072FFA4
:101050000CF082F800F09CF8012101200DF026FD33
:10106000002102200DF022FD002100200DF01EFDC8
:101070000AF0DCFB012102200DF018FD00200CF02D
:10108000B1FC002318460837BD4680BD1000002083
:10109000AD1E0108A007F90B00C00F08D1ED000834
:1010A00051D3000880B582B000AF00237B603B1DA8
:1010B0001946002011F0F6FD0346002B03D00C204A
:1010C00007F0FCFE04E07B689B7B184607F0F6FE09
:1010D00000BF0837BD4680BD80B500AFFFF76AFF8F
:1010E00012F0CEFF024806F0BBFD00BF80BD00BF7E
:1010F0004000003080B588B000AF12F093F807F1DF
:101100000C0300221A605A609A60DA601A610323A5
:101110003B6100237B614FF46043FB60194BD3F8C4
:101120008C30184A43F00103C2F88C30154BD3F8C9
:101130008C3003F00103BB60BB6807F10C03194658
:10114000114805F0B1FC03233B6100237B611823A8
:10115000FB600C4BD3F88C300A4A43F00203C2F810
:101160008C30084BD3F88C3003F002037B607B6833
:1011700007F10C031946054805F096FC00BF20371F
:10118000BD4680BD000C024600000242000402423F
:1011900080B500AF0DF03AF9034A0021012012F0AA
:1011A000C9FE00BF80BD00BFFDE4000880B582B06D
:1011B00000AF786039603B689B001946786810F092
:1011C000A1FF00BF0837BD4680BD80B582B000AF2B
:1011D00078607B689B00184610F0C8FE03461846EE
:1011E0000837BD4680BD80B582B000AF78607868B2
:1011F00010F04CFF00BF0837BD4680BD80B500AF82
:101200004FF0FF3012F094FD00BF80BD80B400AFFE
:1012100000BFBD465DF8047B704780B400AF00BFDF
:10122000BD465DF8047B704780B400AF00BFBD468B
:101230005DF8047B704780B500AF0021102012F0EC
:101240009BFE00BF80BD80B500AF0021012012F0E1
:1012500093FE00BF80BD000080B483B000AF786013
:101260007B68074A1A607B68064A5A607B68064AB0
:101270009A6000BF0C37BD465DF8047B704700BF25
:10128000AD110008CB110008E711000880B500AFD0
:101290000021202012F070FE00BF80BD80B500AF9D
:1012A0000021402012F068FE00BF80BD80B582B0F2
:1012B00000AF03463960FB710D4B1B78002B03D147
:1012C0000C4B1B78002B0FD00B4A3B6853630A482A
:1012D00005F076FE0346002B06D1084AFB79137011
:1012E0000021054806F00EF800BF0837BD4680BD56
:1012F00020000020210000206417002070610020E1
:1013000080B400AF1B4B1B6807EE903AF8EEE76A1B
:10131000194B93ED007AC6EE877AFCEEE77A17EE6A
:10132000902A164B1A60164B1B6807EE903AF8EE9F
:10133000E76A114B93ED007AC6EE877AFCEEE77A06
:1013400017EE902A0F4B1A600F4B1B6807EE903A6E
:10135000F8EEE76A084B93ED007AC6EE877AFCEE6A
:10136000E77A17EE902A094B1A6000BFBD465DF878
:10137000047B70473C6100205461002048610020DC
:10138000406100204C610020446100205061002039
:1013900080B58AB000AF7E4B1B881A467D4B1B88F8
:1013A000D31A07EE903AB8EEE77ADFED7B6AC6EE25
:1013B000877A7A4BC3ED007A764B1B889BB207EE97
:1013C000903AB8EE677A754BD3ED007A67EE277ADC
:1013D000B3EE0E7A77EE677A714BC3ED007A6F4BFE
:1013E000D3ED007A9FED6F7A27EE877AF0EE086AE8
:1013F000C7EE267A694BC3ED007A02F0D3FCFFF703
:10140000EBFD00F071FA00F0CFFA00F0BFFD00F044
:10141000A3FB00F0E5FA00F063FD00F073FB00F0C1
:1014200061FC00F073FC00F087FC00F0B5FB00F0FD
:101430000FFC00F0C5FB00F0D3FC5B4803F077FD28
:101440005A4809F03DF90020FFF7CCFD01F032FACF
:10145000FFF756FF564B1B8819460020FFF716FD75
:10146000544B1B8819460120FFF710FD524B1B7887
:10147000002B18D0032251494B4803F0A9F84A4BDE
:101480009B6D1B685A69484B9B6D1B6822F4007268
:101490005A61454B1B689B6A434B9A6E424B1B68D3
:1014A00062F00F029A62464B00221A60454B0022FE
:1014B0001A60454B00221A60FFF7A0FE02F024FDDF
:1014C0000346424A1360424B1B6803F5FA623F4BE6
:1014D0001B689A4203D23D4B1B683D4A13603D4B4B
:1014E0001B78002B00F0C5813B4B1B6803F59C5318
:1014F0000833364A1268934280F0BB81334B1B6835
:10150000354A1360354A3B1D92E8030083E8030027
:101510000023FB840023BB84314B1B78052B69D847
:1015200001A252F823F000BF411500085115000830
:10153000611500087115000881150008E5150008FF
:101540000923FB8440F24943BB8400233B7251E0F2
:101550001123FB8440F61903BB8400233B7249E04E
:101560002223FB8441F23303BB8400233B7241E01E
:101570000323FB8440F26D13BB8400233B7239E0EC
:101580000123FB847923BB8400233B7232E000BF3C
:101590004207F90B1007F90B0000C8423461002024
:1015A00038610020333333402816002020190020F2
:1015B0002A00002028000020B8190020E41900208B
:1015C000DC190020E0190020F0190020D8190020B3
:1015D000D0190020B4190020CC190020D0560308DF
:1015E000C81B00200423FB8440F2E713BB840023C4
:1015F0003B7200BFFB8CDBB2FB713B791AB27B798B
:101600001B021BB223F0FF031BB213431BB29AB29F
:10161000864B1A80BB791AB2FB791B021BB223F0EE
:10162000FF031BB213431BB29AB2804B5A803B7A22
:101630001AB27B7A1B021BB223F0FF031BB21343C7
:101640001BB29AB2794B9A80BB7A1AB2FB7A1B0210
:101650001BB223F0FF031BB213431BB29AB2734BAE
:10166000DA80734B1B689AB2704B5A81704B1B68BF
:101670001B0C9AB26D4B9A816E4B1B689AB26B4BE6
:10168000DA816C4B1B681B0C9AB2684B1A826A4B4E
:101690001B689AB2654B5A82674B1B681B0C9AB247
:1016A000624B9A82624B1B6807EE903AF8EE676ACB
:1016B000614B1B6807EE903AB8EE677AC6EE877A00
:1016C0005E4BC3ED007A5D4B1A88584BDA825B4B58
:1016D0005A88564B1A835A4B1B8807EE903AB8EE3D
:1016E000677A584BD3ED007A27EE277A564BD3ED25
:1016F000007A77EE277A554BC3ED007A544B1B885E
:1017000007EE903AF8EEE77A9FED527A27EE877A65
:10171000DFED516AC7EE267A504BC3ED007A4B4B92
:101720001A88424B5A83494B5A88404B9A834B4BF9
:101730001A883E4BDA83494B5A883C4B1A84002363
:101740007B840023FB613723BB610CE0FB695A1CDF
:10175000FA61434A32F81310344ABB6922F8131075
:10176000BB690133BB61BB8CBA699A42EEDBBB8CAF
:101770002E4A002122F813100023FB6100237B6115
:101780004FE0384B1B7883F00103DBB2002B6FD1A5
:1017900000233B6124E0FB695A1CFA61234A32F8BA
:1017A0001330FB81FB897B733B695A1C3A612E49DC
:1017B0007A7BCA547B7B9AB27B8C13447B84FB89F3
:1017C0001B0A9BB27B73284A3B6913447A7B1A70CD
:1017D0007B7B9AB27B8C13447B843B6901333B61F6
:1017E000224B1B881A463B699342D4DBBB8CFA69B7
:1017F0009A420BDB7B8CDAB21B4B83F8F2207B8C9A
:101800001B0A9BB2DAB2184B83F8F32016480BF090
:1018100081FBFFF7F3FC282002F082FB7B69013398
:101820007B61FB8C7A699A42ABDB22E0C8400020E6
:10183000C4190020F4190020C01900206C61002098
:10184000C01C002034610020386100206461002049
:10185000C21C00206666864000007F45686100204B
:10186000C41C0020B4190020CC1B0020E0900020F4
:1018700000BF184B1B6803F57A72174B1B689A421E
:1018800003D2154B1B68134A1360144B1B6803F5F6
:101890007A72114B1B689A42BFF40EAE0E4B1B6856
:1018A0000E4A13600E4B1B7883F00103DBB2002B52
:1018B0003FF402AE0B4B1B689B6A0A4B9B6E094AB6
:1018C00012686FEA03536FEA13539362044B0122C9
:1018D0001A70F1E5C8190020D8190020D419002089
:1018E000316100202816002080B598B000AF07F1C4
:1018F000200340220021184631F00AFD3B462022F9
:101900000021184631F004FD002006F0E7F90346F7
:10191000002B01D000F04EFC06F092F9214BD3F8D9
:10192000F03023F018031F4A43F00803C2F8F030E8
:1019300007233B624FF480337B624FF48013BB621A
:101940008123FB624FF480733B6310237B6300238E
:101950003B6407F12003184606F068FA0346002BA3
:1019600001D000F027FC3F233B6000237B60042371
:10197000BB600023FB6000233B6100237B610023ED
:10198000BB611023FB613B460021184606F05EFE5A
:101990000346002B01D000F00DFC00BF6037BD46B0
:1019A00080BD00BF000C024680B592B000AF3B4640
:1019B00048220021184631F0ABFC4FF400433B6055
:1019C0004FF480237B643B46184607F081F80346BA
:1019D000002B01D000F0EEFB00BF4837BD4680BDB4
:1019E00080B584B000AF3B1D00221A605A609A6037
:1019F0003E4B3F4A1A603D4B00225A603B4B00224F
:101A00009A603A4B0022DA60384B4FF400121A61A8
:101A1000364B04225A61354B00225A76334B002252
:101A2000DA61324B00221A76304B002283F82020F4
:101A30002E4B03225A622D4B012283F828202B4B78
:101A40004FF4B862DA62294B4FF480621A63274B75
:101A5000012283F83420254B00225A65234B4FF492
:101A600080529A63214B0322DA63204B07221A64C7
:101A70001E4B002283F844201C4802F0FBFB034667
:101A8000002B01D000F096FB1A4B7B600023BB605B
:101A90000023FB603B1D1946144802F099FF0346E2
:101AA000002B01D000F086FB134B7B600423BB604E
:101AB000124BFB603B1D19460C4802F089FF0346A0
:101AC000002B01D000F076FB0D4B7B600823BB6040
:101AD0003B1D1946054802F07BFF0346002B01D051
:101AE00000F068FB00BF1037BD4680BD28160020FF
:101AF00000100246000200248000001C04FFFF03C7
:101B0000002000B480B500AF114B124A1A60104B90
:101B100001221A710E4B00225A710D4B41F6B75239
:101B20009A600B4B0822DA60094B00225A61084B7D
:101B300000229A61064B03221A62054803F06CFCEE
:101B40000346002B01D000F035FB00BF80BD00BF75
:101B5000401700200030024080B582B000AF0D4B2E
:101B6000D3F888300B4A43F00103C2F88830094BA0
:101B7000D3F8883003F001037B607B6800220021EA
:101B80001D2003F087FB1D2003F0A1FB00BF0837D9
:101B9000BD4680BD000C024680B500AF002005F0B8
:101BA000DFF90346002B01D000F004FB05F0F8F943
:101BB0000346002B01D000F0FDFA00BF80BD0000FD
:101BC00080B582B000AF3B4600221A605A601E4BBF
:101BD0001E4A1A601C4B00225A601B4B4FF4606275
:101BE0009A60194B4FF6FF725A61174B42F210720E
:101BF0001A62154B00225A62134B00229A62124B52
:101C00000022DA62104B00221A630F4B00225A6343
:101C10000D4805F0D5F90346002B01D000F0CAFAB3
:101C20004FF47A633B6000237B603B4600221946F9
:101C3000054805F0CDFC0346002B01D000F0BAFAB0
:101C400000BF0837BD4680BD641700200044004631
:101C500080B582B000AF3B4600221A605A601F4B2D
:101C60001F4A1A601D4B00225A601C4B00229A60CA
:101C70001A4B4FF6FF725A61184B40F6EC121A627B
:101C8000164B00225A62154B00229A62134B002217
:101C9000DA62124B00221A63104B00225A630F487B
:101CA00005F08EF90346002B01D000F083FA40F2D4
:101CB000F6433B6000237B603B4601221946074800
:101CC00005F086FC0346002B01D000F073FA0348B0
:101CD00001F04CFB00BF0837BD4680BDF417002063
:101CE0000094004080B500AF064B074A1A600548D3
:101CF00006F052F80346002B01D000F05BFA00BF5B
:101D000080BD00BF841800200060024080B500AF95
:101D1000074B084A1A60064B00225A60044807F035
:101D200009F90346002B01D000F044FA00BF80BD42
:101D30009018002000080C4280B588B000AF3B1D11
:101D400000221A605A609A60DA601A615A619A61D8
:101D5000214B224A1A60204B7F229A601E4B0022A0
:101D60001A611D4B00225A611B4B00229A611A4BCB
:101D70004FF08042DA61184B00221A62164B4FF482
:101D800080725A62144807F071F90346002B01D0A3
:101D900000F010FA00237B6000233B6100237B618D
:101DA0000023BB613B1D19460B4807F0C1FC0346ED
:101DB000002B01D000F0FEF9002304220021064888
:101DC00007F0E4FB0346002B01D000F0F3F900BF5D
:101DD0002037BD4680BD00BFA41800200078004613
:101DE00080B594B000AF07F1340300221A605A6046
:101DF0009A60DA601A615A619A613B463422002186
:101E0000184631F085FA344B344A1A60324B0F22AF
:101E10005A60314B00229A602F4B4FF6FF72DA6006
:101E20002D4B00221A612C4B00225A612A4B802232
:101E30009A61294807F0AAFC0346002B01D000F064
:101E4000B9F9254807F04EFD0346002B01D000F0FC
:101E5000B1F90821204807F0A6FD0346002B01D068
:101E600000F0A8F930237B630023BB630023FB63EE
:101E700000233B6400237B640023BB640023FB64DA
:101E800007F1340300221946134807F035FF0346D3
:101E9000002B01D000F08EF900233B6000237B6013
:101EA0000023BB600023FB6000233B614FF4005321
:101EB0007B610023BB6100233B633B461946064818
:101EC00008F0DAFA0346002B01D000F073F900BFE6
:101ED0005037BD4680BD00BFD418002000480140E7
:101EE00080B500AF274B284A1A60264B4FF4E132E9
:101EF0005A60244B00229A60224B0022DA60214B68
:101F000000221A611F4B08225A611E4B00229A615F
:101F10001C4B4FF40042DA611A4B00221A62194B33
:101F200000225A62174B30229A62164B4FF48052AD
:101F3000DA63144B4FF400521A64124808F068FB3D
:101F40000346002B01D000F035F900210D4809F0BF
:101F50007DF90346002B01D000F02CF9002109483F
:101F600009F0B2F90346002B01D000F023F905482F
:101F700009F031F90346002B01D000F01BF900BF36
:101F800080BD00BF201900200044004080B588B00B
:101F900000AF07F10C0300221A605A609A60DA6001
:101FA0001A61394BD3F88C30374A43F00203C2F838
:101FB0008C30354BD3F88C3003F00203BB60BB6828
:101FC000314BD3F88C30304A43F00103C2F88C30E7
:101FD0002D4BD3F88C3003F001037B607B682A4BD8
:101FE000D3F88C30284A43F00403C2F88C30264BD7
:101FF000D3F88C3003F004033B603B6800224FF4BD
:102000008051224804F058FF00224FF4F07120481C
:1020100004F052FF4FF48053FB6001233B61002327
:102020007B610023BB6107F10C031946174804F0DC
:102030003BFD4FF4F073FB6001233B6100237B61A8
:102040000023BB6107F10C031946114804F02CFD75
:102050004FF40043FB604FF488133B6100237B6126
:1020600007F10C031946094804F01EFD0BF0C5FCEE
:10207000002200211A2003F00DF91A2003F027F99D
:1020800000BF2037BD4680BD000C0246000402425E
:102090000000024280B582B000AF78607B6893F8A0
:1020A0003830012B2ED1194B1B78002B07D0174B42
:1020B00000221A7000222021154804F0FDFE154B65
:1020C0001B78002B0CD0144B1B7803F00103002B62
:1020D00006D0124B01221A700121114805F05AF85E
:1020E000104B1B78002B0DD00B4B1B7803F0020319
:1020F000002B07D00C4B01221A700122402104480A
:1021000004F0DAFE00BF0837BD4680BDB5190020D7
:10211000000002422000002070610020B61900205B
:10212000F417002021000020B719002080B582B0EC
:1021300000AF78600D4B1B78002B06D00B4B0022B4
:102140001A7001210A4805F08FF80A4B1B78002B02
:1021500007D0084B00221A7000224021064804F0E4
:10216000ABFE00BF0837BD4680BD00BFB6190020DA
:10217000F4170020B71900200000024280B582B099
:1021800000AF78600021084805F06EF9012107488A
:1021900005F06AF800224021054804F08DFE00BFDA
:1021A0000837BD4680BD00BF64170020F41700202B
:1021B0000000024280B400AF72B600BF00BFFDE76E
:1021C00080B582B000AF0346FB71FB79002B23D0B2
:1021D000304B1B785A1CD1B22E4A1170022B04D8F6
:1021E0002D4900200DF0DEFD50E02C4B18464FF439
:1021F000C8731A46002131F08BF82949274831F07D
:102200003DF82648FEF719F803469AB2642323499D
:10221000244808F094FA39E0234B1B884FF6FF72EC
:1022200093420BD0204B1B88002B05D01E4B1B88E4
:102230009A021E4B134402E01D4B00E01C4B1B682E
:102240001C4A934222D0134B1B785A1CD1B2114A1C
:102250001170022B04D8104900200DF0A3FD15E0E9
:102260000E4B18464FF4C8731A46002131F050F84F
:102270000B490A4831F002F80848FDF7DEFF034633
:102280009AB264230549074808F059FA00BF083795
:10229000BD4680BD71610020C1210008F8190020F1
:1022A000D856030820190020A007F90B10C0FF071B
:1022B00010C00F08684523012DE9B04FD8B000AF1A
:1022C000002387F85731544951A3D3E90023C1E9CA
:1022D00000234FF000024FF00003C7E956234F4B95
:1022E0001B78002B06D04FF001024FF00003C7E926
:1022F000562305E04FF000024FF00003C7E95623D4
:10230000474B1B78002B06D0D7E9562342F0020436
:102310001D46C7E95645434B1B78002B06D0D7E92D
:10232000562342F004089946C7E956893E4B1B786C
:10233000002B06D0D7E9562342F0080A9B46C7E98E
:1023400056AB3A4B1B78002B09D0D7E9562342F005
:10235000100139677B67D7E91C34C7E95634344B21
:102360001B78002B09D0D7E9562342F02001B9662B
:10237000FB66D7E91A34C7E956342E4B1B78002B7D
:1023800009D0D7E9562342F0400139667B66D7E988
:102390001834C7E95634284B1B78002B09D0D7E9ED
:1023A000562342F08001B965FB65D7E91634C7E9C9
:1023B0005634224B1B78002B09D0D7E9562342F420
:1023C000807139657B65D7E91434C7E956341C4BF5
:1023D0001B78022B10D0022B35DC002B32D0012BC6
:1023E00031D1D7E9562342F40071B964FB64D7E9CF
:1023F0001234C7E9563426E0D7E9562342F4806107
:1024000039647B64D7E91034C7E956341BE000BF58
:102410006845230100000000881B002020000020E8
:102420003061002021000020220000202300002035
:102430002400002025000020260000202700002086
:10244000C81B002000BFD94B1B78002B09D0D7E94F
:10245000562342F40061B963FB63D7E90E34C7E940
:102460005634D34B1B881B03DA17C7F84831C7F81B
:102470004C21D7E95623D7E9524521461143396308
:10248000294619437963D7E90C34C7E95634C94B57
:102490001B889BB20022C7F84031C7F84421D7E916
:1024A00050120B469B0AC7F83C310B469B05C7F8F8
:1024B0003831D7E95623D7E94E4521461143B96251
:1024C00029461943F962D7E90A34C7E95634BA4BA9
:1024D0001B78DBB20022C7F83031C7F834214FF047
:1024E00000004FF00001D7F8303119000020B24B46
:1024F0005B78DBB20022C7F82831C7F82C214FF0F7
:1025000000024FF00003D7F828412302002240EADE
:102510000204C7F820410B43C7F82431A64B9B782F
:10252000DBB20022C7F81831C7F81C214FF00002B7
:102530004FF00003D7F818110B040022D7E94845E3
:1025400021461143C7F8101129461943C7F8141141
:10255000994BDB78DBB20022C7F80831C7F80C21B1
:102560004FF000024FF00003D7F808110B060022CD
:10257000D7E9444521461143C7F8001129461943BC
:10258000C7F80411D7E95623D7E94045214611433E
:102590003962294619437962D7E90834C7E95634C4
:1025A0008649D7E95623C1E90223854B1B68DA1710
:1025B000C7F8F830C7F8FC20824B1B68DA17C7F859
:1025C000F030C7F8F4204FF000024FF00003D7F8C6
:1025D000F0100B000022D7E93E4521461143B961B6
:1025E00029461943F961D7E90634C7E956347349D6
:1025F000D7E95623C1E90423734B1B68DA173B6103
:102600007A61D7E90434C7E956346C49D7E95623CF
:10261000C1E906236D4B1B78DBB20022C7F8E83016
:10262000C7F8EC20694B5B78DBB20022C7F8E030DA
:10263000C7F8E4204FF000024FF00003D7E9384517
:1026400029460B02214643EA116321460A02D7E9D3
:102650003A4521461143C7F8D81029461943C7F80F
:10266000DC105A4B9B78DBB20022C7F8D030C7F899
:10267000D4204FF000024FF00003D7E9344529463B
:102680000B04214643EA114321460A04D7E93645A3
:1026900021461143C7F8C81029461943C7F8CC1082
:1026A0004A4BDB78DBB20022C7F8C030C7F8C42041
:1026B000D7E930120B461B0AC7F8BC300B461B0685
:1026C000C7F8B830D7E932452346D7E92E0102468C
:1026D0001343C7F8B0302B460A461343C7F8B4304B
:1026E0003B4B1B78DBB20022C7F8A830C7F8AC2000
:1026F0004FF000024FF00003D7F8A8100B000022A3
:10270000D7E92C4521461143C7F8A01029461943A3
:10271000C7F8A4102E4B5B78DBB20022C7F89830C4
:10272000C7F89C204FF000024FF00003D7F8981034
:102730000B020022D7E9284521461143C7F8901023
:1027400029461943C7F89410214B9B78DBB200222D
:10275000C7F88830C7F88C204FF000024FF0000314
:10276000D7F888100B040022D7E9244521461143ED
:10277000C7F8801029461943C7F88410144BDB783A
:10278000DBB20022BB67FA674FF000024FF0000394
:10279000B96F0B060022D7E9204521461143B960E5
:1027A00029461943F960D7E9023413E0B81900202B
:1027B000280000202A00002054610020881B0020EF
:1027C0003C610020406100204461002058610020ED
:1027D0005C610020C7E956342F49D7E95623C1E987
:1027E00008232E4B1B781A462C4B5B781B021A438E
:1027F0002A4B9B781B041A43284BDB781B06134398
:10280000DA173B607A60D7E90034C7E956342249C9
:10281000D7E95623C1E90A231F494FF0CC324FF0C4
:10282000DD33C1E90C231C494FF0EE324FF0FF338A
:10283000C1E90E231A4B00221A701A4900200DF02C
:10284000B1FA034687F85631174B18464FF4C87350
:102850001A46002130F05CFD97F85631002B12D05B
:1028600097F856311A4611490F4830F007FD0E48C7
:10287000FDF7E3FC03469AB264230B490C4807F0CA
:102880005EFF012301E097F85731184607F5B0774E
:10289000BD46BDE8B08F00BF881B002060610020EE
:1028A00071610020C1210008F8190020E0560308DA
:1028B000201900202DE9F04FADB018AF0023FB64C4
:1028C0000023BB643FE0634B1B884FF6FF729342CB
:1028D0000BD0604B1B88002B05D05E4B1B889A02E7
:1028E0005D4B134402E05D4B00E05C4BBA6C920020
:1028F00013443B645A4B18464FF4C8731A460021E0
:1029000030F006FD3B6C1B683A6C5649544830F079
:10291000B5FC5348FDF791FC03469AB26423504935
:10292000514807F00CFFFB6C5A1CFA64022B07DDC0
:102930000023FB64642302224C494B4807F0FFFE4E
:10294000BB6C0133BB64BB6C0F2BBCD9642302226C
:102950004649454807F0F3FE3E4B1B884FF6FF7291
:1029600093420BD03B4B1B88002B05D0394B1B8867
:102970009A02394B134402E0384B00E0374B1B6896
:102980003B4A934240F0AB82354B18464FF4C87334
:102990001A46002130F0BCFC3649314830F06EFC5C
:1029A0002F48FDF74AFC03469AB264232C492E486F
:1029B00007F0C5FE2A4B18464FF4C8731A4600218B
:1029C00030F0A6FC234B1B884FF6FF7293420BD0CE
:1029D000204B1B88002B05D01E4B1B889B02264AD0
:1029E0001A4402E0254A00E0244A1A4B1B884FF69D
:1029F000FF718B420BD0174B1B88002B05D0154B5A
:102A00001B8899021C4B0B4402E01C4B00E01B4B43
:102A10001B681B49124830F031FC1148FDF70DFCD2
:102A200003469AB264230E490F4807F088FE094B0B
:102A30001B884FF6FF72934228D0064B1B88002B51
:102A400005D0044B1B889A020E4B13441FE00E4B1B
:102A50001DE000BFA007F90B10C0FF0710C00F0852
:102A6000F8190020F8560308201900200C57030815
:102A700068452301105703081CC0FF071CC00F083E
:102A80002457030818C0FF0718C00F08914B1B6894
:102A90007B647B6C03F00103002B14BF0123002334
:102AA000DAB28D4B1A707B6C03F00203002B14BF5B
:102AB00001230023DAB2894B1A707B6C03F0040304
:102AC000002B14BF01230023DAB2854B1A707B6CF4
:102AD00003F00803002B14BF01230023DAB2814B5B
:102AE0001A707B6C03F01003002B14BF012300232A
:102AF000DAB27D4B1A707B6C03F02003002B14BFFD
:102B000001230023DAB2794B1A707B6C03F0400387
:102B1000002B14BF01230023DAB2754B1A707B6CB3
:102B200003F08003002B14BF01230023DAB2714BA2
:102B30001A707B6C03F48073002B14BF01230023F5
:102B4000DAB26D4B1A707B6C03F40063002B14BF78
:102B500001230023DAB2694B1A707B6C5B0ADBB28B
:102B600003F00303DAB2664B1A707B6C1B0B9BB24B
:102B7000C3F309039AB2634B1A807B6C9B0D9AB224
:102B8000614B1A80614B1B884FF6FF7293420BD04A
:102B90005E4B1B88002B05D05C4B1B889A025C4B5C
:102BA000134402E05B4B00E05A4B1B687B647B6C78
:102BB000DAB2594B1A707B6C1B0ADAB2564B5A7058
:102BC0007B6C1B0CDAB2544B9A707B6C1B0EDAB226
:102BD000514BDA704D4B1B884FF6FF7293420BD06E
:102BE0004A4B1B88002B05D0484B1B889A024B4B45
:102BF000134402E04A4B00E0494B1B681A46494B1C
:102C00001A60424B1B884FF6FF7293420BD03F4B2A
:102C10001B88002B05D03D4B1B889A02424B134466
:102C200002E0424B00E0414B1B681A46404B1A60E1
:102C3000364B1B884FF6FF7293420BD0334B1B88E9
:102C4000002B05D0314B1B889A023A4B134402E00B
:102C5000394B00E0384B1B681A46384B1A602B4B37
:102C60001B884FF6FF7293420BD0284B1B88002B1A
:102C700005D0264B1B889A02314B134402E0314B9E
:102C800000E0304B1B687B647B6CDAB22E4B1A7011
:102C90007B6C1B0ADAB22C4B5A707B6C1B0CDAB2C1
:102CA000294B9A707B6C1B0EDAB2274BDA70174BEC
:102CB0001B884FF6FF7293424CD0144B1B88002B9D
:102CC00005D0124B1B889A02204B134443E0204B43
:102CD00041E000BF18C00F08200000203061002034
:102CE00021000020220000202300002024000020DA
:102CF000250000202600002027000020B819002011
:102D0000C81B0020280000202A000020A007F90B83
:102D10001CC0FF071CC00F085461002020C0FF0723
:102D200020C00F083C61002024C0FF0724C00F080A
:102D30004061002028C0FF0728C00F084461002020
:102D400030C0FF0730C00F085861002034C0FF07B3
:102D500034C00F088E4B1B687B647B6CDAB28D4BE2
:102D60001A707B6C1B0ADAB28A4B5A707B6C1B0C94
:102D7000DAB2884B9A707B6C1B0EDAB2854BDA7034
:102D8000854B1B884FF6FF7293420BD0824B1B88FA
:102D9000002B05D0804B1B889A02804B134402E025
:102DA0007F4B00E07E4B1B687B647B6CDAB27D4B13
:102DB0001A707B6C1B0ADAB27A4B5A707B6C1B0C54
:102DC000DAB2784B9A707B6C1B0EDAB2754BDA7004
:102DD000754B18464FF4C8731A46002130F098FA24
:102DE000724B1B78FB63724B1B78BB63714B1B7878
:102DF0007B63714B1B783B63704B1B78FB62704BA2
:102E00001B78BB626F4B1B787B626F4B1B783B62FE
:102E10006E4B1B78FB616E4B1B78BB616D4B1B7857
:102E20007B616D4B1B883B616C4B1B88FB606C4B63
:102E30001B681846FDF76EFB82468B46694B196886
:102E4000B960694B18687860684B1E68684B1B68EE
:102E50001846FDF75FFB804689464E4B1B681846B7
:102E6000FDF758FB04460D464E4B1B681846FDF710
:102E700051FB02460B46CDE91623CDE91445CDE9B9
:102E80001289109678680F90B9680E91CDE90CAB55
:102E9000F9680A913969099179690891B9690791C5
:102EA000F9690691396A0591796A0491B96A0391C1
:102EB000F96A0291396B0191796B0091BB6BFA6BE6
:102EC0004C49394830F0DAF93748FDF7B6F903468E
:102ED0009AB264233449484807F031FC52E0324B3F
:102EE00018464FF4C8731A46002130F011FA4349CE
:102EF0002D4830F0C3F92C48FDF79FF903469AB2EC
:102F0000642329493C4807F01AFC284B01221A7017
:102F1000274B00221A70274B01221A70264B0122E0
:102F20001A70264B01221A70254B01221A70254B6C
:102F300001221A70244B01221A70244B01221A70AC
:102F4000244B00221A70244B4FF448721A80234BF2
:102F50004FF416721A80234B1E221A60224B3C2219
:102F60001A60224B78221A601D4B254A1A60204BAA
:102F7000244A1A60074B244A1A600A4B234A1A60F3
:102F8000FFF79AF9002318465437BD46BDE8F08F85
:102F900034C00F085C610020A007F90B38C0FF07A0
:102FA00038C00F0860610020F819002020000020C0
:102FB000306100202100002022000020230000209A
:102FC00024000020250000202600002027000020EB
:102FD000B8190020C81B0020280000202A0000206B
:102FE000546100203C6100204061002044610020C9
:102FF000586100203857030820190020645803083E
:103000003333333F6F12833ACDCC8C3FCDCC0C4061
:1030100080B582B000AF0D4BD3F894300B4A43F02B
:103020000403C2F89430094BD3F8943003F004033E
:103030007B607B6800220521422002F02BF94220B0
:1030400002F045F900BF0837BD4680BD000C0246BE
:1030500080B5B2B000AF786007F1B40300221A6007
:103060005A609A60DA601A6107F11403482200215D
:10307000184630F04DF97B681B68634A934240F074
:10308000BE804FF400537B614FF480433B6507F1F2
:103090001403184605F01CFD0346002B01D0FFF772
:1030A00089F85A4BD3F89430584A43F02003C2F8B9
:1030B0009430564BD3F8943003F020033B613B69C6
:1030C000524BD3F88C30514A43F00103C2F88C3094
:1030D0004E4BD3F88C3003F00103FB60FB680523F3
:1030E000C7F8B4300323C7F8B8300023C7F8BC30A2
:1030F00007F1B4031946464803F0D6FC2123FB65CB
:1031000000233B6600237B660023BB660023FB662F
:103110004FF400233B6701237B674FF48033BB6789
:103120000123C7F880300123C7F884300023C7F893
:1031300088300023C7F88C300023C7F89030002374
:10314000C7F8A0300023C7F894300023C7F89830A0
:1031500007F15C032F49184602F00CFF0346002BD1
:1031600001D0FFF727F82B4A00212B4802F018FF67
:103170000346002B01D0FFF71DF8274802F0D9FFC6
:103180000346002B01D0FFF715F8244B244A1A60A0
:10319000224B00229A63214B0022DA631F4B00224C
:1031A0001A641E4B00225A641C4B81229A641B48ED
:1031B00002F0CEFD0346002B01D0FEF7FBFF1649BF
:1031C000164803F016F80346002B01D0FEF7F2FF75
:1031D0007B68124A9A65114A7B68D36510210F48B3
:1031E00002F055FD0346002B01D0FEF7E3FF00225D
:1031F0000021412002F04EF8412002F068F800BFA3
:10320000C837BD4680BD00BF00100246000C024614
:103210000000024294160020B0160020C8160020BC
:103220005000024080B485B000AF78607B681B68B6
:103230000B4A93420ED10B4BD3F88830094A43F422
:103240008053C2F88830074BD3F8883003F480539A
:10325000FB60FB6800BF1437BD465DF8047B704718
:1032600000300240000C024680B483B000AF7860AA
:103270007B681B68084A934207D1084BD3F8883013
:10328000064A23F48053C2F8883000BF0C37BD468D
:103290005DF8047B704700BF00300240000C02461E
:1032A00080B596B000AF786007F110034822002186
:1032B000184630F02DF87B681B68294A934227D1C5
:1032C0004FF480533B614FF40063BB6407F110037C
:1032D000184605F0FDFB0346002B01D0FEF76AFF00
:1032E000204BD3F8A8301F4A43F40063C2F8A8303B
:1032F0001C4BD3F8A83003F40063FB60FB6800228A
:103300000021312001F0C6FF312001F0E0FF22E072
:103310007B681B68144A93421DD108233B614FF41C
:1033200000233B6207F11003184605F0D1FB03466A
:10333000002B01D0FEF73EFF0A4BD3F8A030094A1C
:1033400043F02003C2F8A030064BD3F8A03003F0BE
:103350002003BB60BB6800BF5837BD4680BD00BFBF
:1033600000440046000C02460094004080B588B03E
:1033700000AF786007F10C0300221A605A609A606F
:10338000DA601A617B681B68124A93421ED1124BA5
:10339000D3F88C30104A43F00103C2F88C300E4B46
:1033A000D3F88C3003F00103BB60BB680223FB60E1
:1033B00002233B6100237B610023BB610D23FB6182
:1033C00007F10C031946054803F06EFB00BF2037D8
:1033D000BD4680BD00940040000C02460000024241
:1033E00080B485B000AF78600A4BD3F88830094AC2
:1033F00043F40033C2F88830064BD3F8883003F426
:103400000033FB60FB6800BF1437BD465DF8047BEA
:10341000704700BF000C024680B596B000AF7860E0
:1034200007F110034822002118462FF071FF7B6836
:103430001B68134A93421ED14FF480733B614FF4D3
:1034400000537B6307F11003184605F041FB034668
:10345000002B01D0FEF7AEFE0A4BD3F88C30094AA0
:1034600043F48023C2F88C30064BD3F88C3003F43D
:103470008023FB60FB6800BF5837BD4680BD00BF9E
:1034800000080C42000C024680B596B000AF786090
:1034900007F110034822002118462FF039FF7B68FE
:1034A0001B68174A934226D14FF480433B614FF487
:1034B00080733B6507F11003184605F009FB0346CE
:1034C000002B01D0FEF776FE0E4BD3F8A8300D4A44
:1034D00043F40013C2F8A8300A4BD3F8A83003F421
:1034E0000013FB60FB6800220021022001F0D2FEE5
:1034F000022001F0ECFE00BF5837BD4680BD00BF82
:1035000000780046000C024680B584B000AF7860B9
:103510007B681B680E4A934216D10E4BD3F8A43039
:103520000C4A43F48023C2F8A4300A4BD3F8A430E9
:1035300003F48023FB60FB6800220021342001F0AB
:10354000A9FE342001F0C3FE00BF1037BD4680BD88
:1035500000480140000C024680B59CB000AF786086
:1035600007F15C0300221A605A609A60DA601A61FF
:1035700007F114034822002118462FF0C9FE7B688A
:103580001B68224A93423CD102237B610823FB61E2
:1035900007F11403184605F09BFA0346002B01D0EF
:1035A000FEF708FE1A4BD3F89C30194A43F4003357
:1035B000C2F89C30164BD3F89C3003F400333B61C7
:1035C0003B69134BD3F88C30114A43F00103C2F826
:1035D0008C300F4BD3F88C3003F00103FB60FB6899
:1035E0004FF48053FB6512233B6600237B66002368
:1035F000BB660323FB6607F15C031946054803F02D
:1036000053FA00BF7037BD4680BD00BF0044004084
:10361000000C02460000024280B582B000AF786024
:103620007B681B68094A93420CD1094BD3F89C3044
:10363000074A23F40033C2F89C304FF48051054808
:1036400003F07EFB00BF0837BD4680BD004400404C
:10365000000C02460000024280B483B000AF034673
:10366000FB7197F90730002B0BDBFB7903F01F028E
:10367000074997F907305B09012000FA02F241F887
:10368000232000BF0C37BD465DF8047B704700BFA8
:1036900000E100E080B483B000AF0346FB7197F90E
:1036A0000730002B12DBFB7903F01F020A4997F960
:1036B00007305B09012000FA02F2203341F8232091
:1036C000BFF34F8F00BFBFF36F8F00BF00BF0C373A
:1036D000BD465DF8047B704700E100E080B400AFB8
:1036E000064BD3F80832054A23F48033C2F8083277
:1036F00000BFBD465DF8047B704700BF000C02466A
:1037000080B400AF00BFFDE780B400AF00BFFDE7AD
:1037100080B400AF00BFFDE780B400AF00BFFDE79D
:1037200080B400AF00BFFDE780B400AF00BFBD466E
:103730005DF8047B704780B400AF00BFBD465DF804
:10374000047B704780B400AF00BFBD465DF8047BCA
:10375000704780B500AF00F0C3FB00BF80BD000024
:1037600080B500AF2E4805F07DFF2E4B1B685A1C1C
:103770002C490A602C4A13602C4B1B682C4A13609E
:103780002C4B1B682C4A13602C4B1B68B3F5007F35
:1037900002DB2A4B00221A60264B1868274B1B6855
:1037A0005A1C26490A6081B2254A22F81310214B7F
:1037B00000221A60234B00221A60234B1B68002B47
:1037C00008DD1D4B1A68214B1B689A4202D91D4B1C
:1037D00001221A601E4B1B68002B08DD164B1A686D
:1037E0001C4B1B689A4202D9164B02221A601A4BD4
:1037F0001B68002B08DD104B1A68184B1B689A4297
:1038000002D9104B03221A600E4B1B68002B05D007
:103810000C4B1B6819460120FDF748FD00BF80BD19
:10382000A4180020F0190020C0190020DC19002085
:10383000C4190020E0190020F4190020C440002021
:10384000C43C0020BC1900203C61002048610020DD
:10385000406100204C610020446100205061002044
:1038600080B500AF4FF4004003F03EFB0B4B1B68EC
:1038700001330A4A13600A4B1B680133084A13607C
:10388000084B1B78002B07D001222021064803F0AB
:1038900013FB064805F0D2FF00BF80BDDC190020F5
:1038A000E01900203061002000000242D4180020FE
:1038B00080B500AF434802F089F8434B1B78022BD8
:1038C0003ED0022B5BDC002B02D0012B1CD056E03B
:1038D0003E4B1B689B08C3F3090337333C4A32F85D
:1038E00013304FF6FF72934244D0384B1B689B084D
:1038F000C3F309033733364A32F81320013291B249
:10390000334A22F8131035E0304B1B685B08C3F3D1
:103910000A0337332E4A32F813304FF6FF729342C0
:103920002AD02A4B1B685B08C3F30A033733284AA3
:1039300032F81320013291B2254A22F813101BE00D
:10394000224B1B68C3F30B033733214A32F8133081
:103950004FF6FF72934211D01C4B1B68C3F30B034D
:1039600037331B4A32F81320013291B2184A22F839
:10397000131003E000BF02E000BF00E000BF154BE2
:103980001B78002B1CD0134B00221A70124B1B68A3
:103990009B6A114B9A6E104B1B6862F00F029A6281
:1039A0000A4B9B689BB2C3F30B039AB20B4B1A8072
:1039B000064B5B689BB2C3F30B039AB2084B1A80A9
:1039C00000BF80BDC8160020C81B0020E4190020DD
:1039D000C41C00203161002028160020C21C0020D9
:1039E000C01C002080B500AF024803F024FE00BFD9
:1039F00080BD00BF6417002080B500AF044806F00A
:103A00002CF800222021034803F056FA00BF80BDA5
:103A1000D41800200000024280B500AF024800F038
:103A200093FE00BF80BD00BF2816002080B500AF08
:103A3000064B1B68002B02D0044B1B689847FFF70E
:103A40004DFEBFF36F8F00BF00BF80BD50920020BE
:103A500080B500AF3D20FFF71DFE0C4B1B68002B0F
:103A600002D00A4B1B689847094B1B78DBB2002B2E
:103A700007D0002205213D2001F00CFC044B002260
:103A80001A703D20FFF7E8FD00BF80BD5492002072
:103A90007092002080B400AF01231846BD465DF847
:103AA000047B704780B582B000AF786039602FF03A
:103AB0003BFC034616221A604FF0FF3318460837C6
:103AC000BD4680BD80B582B000AF78604FF0FF3159
:103AD0007868FFF7E7FF00BFFDE780B586B000AF6D
:103AE000F860B9607A6000237B610AE0AFF3008080
:103AF0000146BB685A1CBA60CAB21A707B690133AE
:103B00007B617A697B689A42F0DB7B6818461837DC
:103B1000BD4680BD80B586B000AFF860B9607A6000
:103B200000237B6109E0BB685A1CBA601B78184609
:103B3000AFF300807B6901337B617A697B689A42CD
:103B4000F1DB7B6818461837BD4680BD80B483B072
:103B500000AF78604FF0FF3318460C37BD465DF874
:103B6000047B704780B483B000AF786039603B68F5
:103B70004FF400525A60002318460C37BD465DF8DA
:103B8000047B704780B483B000AF7860012318468F
:103B90000C37BD465DF8047B704780B485B000AF3C
:103BA000F860B9607A60002318461437BD465DF8A6
:103BB000047B704780B586B000AF7860144A154B1F
:103BC000D31A7B617B693B61134B1B68002B02D1CD
:103BD000114B124A1A60104B1A687B6813443A69F9
:103BE0009A4207D22FF0A0FB03460C221A604FF036
:103BF000FF3309E0084B1B68FB60074B1A687B68C2
:103C00001344054A1360FB6818461837BD4680BD4B
:103C100000000220000400007461002020CC00207D
:103C200080B400AF064BD3F88830054A43F47003E4
:103C3000C2F8883000BFBD465DF8047B704700BF06
:103C400000ED00E080B489B000AF4F4BDB6903F0BA
:103C50000C03082B02D00C2B0BD07DE04A4B1B68C9
:103C60001B0D03F00103494A22FA03F3484A13608B
:103C700076E0454B9B6AFB61434B5B6B7B61FB6969
:103C80001B0A03F0070301333B617B69C3F308039D
:103C90000133FB607B691B0E03F07F030133BB60C4
:103CA000FB6903F01003002B0BD0374B9B6BDB0839
:103CB000C3F30C0307EE903AF8EE677AC7ED067A85
:103CC00002E04FF00003BB61FB6903F003037B607C
:103CD0007B68022B03D07B68032B03D00CE02D4BB9
:103CE000FB610CE0284B1B681B0D03F00103274A06
:103CF00022FA03F3FB6102E00023FB6100BFFB69D2
:103D000007EE903AF8EE676A3B6907EE903AF8EEF4
:103D1000677A86EEA77AFB6807EE903AF8EE676A54
:103D200097ED066ADFED1C5AC6EE257A76EEA77A85
:103D300067EE277AC7ED007ABB6807EE903AB8EED7
:103D4000677AD7ED006AC6EE877AFCEEE77A17EE5F
:103D5000902A0F4B1A6003E00D4B0E4A1A6000BF09
:103D6000094B1B6A03F007030C4AD35CFB61084B49
:103D70001A68FB6922FA03F3054A136000BF24376F
:103D8000BD465DF8047B7047000C02460048E80120
:103D90002C0000200024F400000000464C630308BF
:103DA000FEE7000080B500AF0D4B1B680C4A43F4E2
:103DB00080731360032001F062FAFFF743FF0420D1
:103DC00001F0D2FA0F2000F00DF80346002B01D0CD
:103DD000012302E0FFF71CF90023184680BD00BF55
:103DE0000020024080B584B000AF78600023FB6003
:103DF000364B1B78002B01D1012362E0344B1B684A
:103E000003F00403042B0CD1324B1A682F4B1B78A0
:103E100019464FF47A73B3FBF1F3B2FBF3F3FB6093
:103E20003DE02D4BD3F8E03003F44003BB60BB68AA
:103E3000B3F5000F25D0BB68B3F5000F2ED8BB68D3
:103E4000002B04D0BB68B3F5800F0DD026E0214BCA
:103E50001A681E4B1B7819464FF4FA53B3FBF1F363
:103E6000B2FBF3F3FB601AE0184B1B781A464FF4D1
:103E70007A73B3FBF2F34FF4FA42B2FBF3F3FB6055
:103E80000DE0124B1B781A464FF47A73B3FBF2F332
:103E90004FF40042B2FBF3F3FB6000E000BFF868B0
:103EA00001F032FA0346002B01D0012309E0002281
:103EB00079684FF0FF3001F0EDF9084A7B68136034
:103EC000002318461037BD4680BD00BF34000020D7
:103ED00010E000E02C000020000C02463000002022
:103EE00080B400AF064B1B781A46064B1B68134480
:103EF000044A136000BFBD465DF8047B704700BFF5
:103F0000340000207861002080B400AF034B1B68B0
:103F10001846BD465DF8047B704700BF78610020FD
:103F200080B584B000AF7860FFF7EEFFB8607B68C3
:103F3000FB60FB68B3F1FF3F05D00A4B1B781A46C4
:103F4000FB681344FB6000BFFFF7DEFF0246BB685F
:103F5000D31AFA689A42F7D800BF00BF1037BD469F
:103F600080BD00BF3400002080B483B000AF786013
:103F700039607B681B6823F440023B681A437B6806
:103F80001A6000BF0C37BD465DF8047B704780B4F3
:103F900083B000AF78607B681B6803F44003184669
:103FA0000C37BD465DF8047B704780B485B000AF28
:103FB000F860B9607A60FB685A69BB6803F0040373
:103FC000072101FA03F3DB431A40BB6803F0040343
:103FD000796801FA03F31A43FB685A6100BF14378A
:103FE000BD465DF8047B704780B483B000AF786055
:103FF0007B68DB6803F44063002B01D1012300E000
:10400000002318460C37BD465DF8047B704780B42A
:1040100085B000AFF860B9607A60FB689A6ABB68E7
:1040200003F01F030F2101FA03F3DB431A407B68FF
:104030009B0E03F00F01BB6803F01F0301FA03F3AB
:104040001A43FB689A6200BF1437BD465DF8047BD3
:10405000704780B483B000AF786039607B689A6A3B
:104060003B68C3F311031A437B689A6200BF0C37A5
:10407000BD465DF8047B704780B483B000AF7860C4
:1040800039607B689A6A3B68C3F31103DB431A40CB
:104090007B689A6200BF0C37BD465DF8047B7047B1
:1040A00080B483B000AF78607B68DB6803F0030303
:1040B00018460C37BD465DF8047B704780B485B068
:1040C00000AFF860B9607A60FB685A69BB681B0290
:1040D000DB431A40BB6819027B680B4023F07C432A
:1040E00023F0FF031A43FB685A6100BF1437BD4633
:1040F0005DF8047B704780B483B000AF78607B6864
:104100009B6823F0104323F0170343F080527B6831
:104110009A6000BF0C37BD465DF8047B704780B4E1
:1041200083B000AF78607B689B6803F08053B3F185
:10413000805F01D1012300E0002318460C37BD4603
:104140005DF8047B704780B483B000AF78607B6813
:104150009B6823F0004323F0170343F001027B68C0
:104160009A6000BF0C37BD465DF8047B704780B491
:1041700083B000AF78607B689B6823F0004323F036
:10418000170343F002027B689A6000BF0C37BD46FC
:104190005DF8047B704780B483B000AF78607B68C3
:1041A0009B6803F00103012B01D1012300E00023F0
:1041B00018460C37BD465DF8047B704780B483B069
:1041C00000AF78607B689B6803F00203022B01D18B
:1041D000012300E0002318460C37BD465DF8047B40
:1041E000704780B483B000AF78607B689B6823F031
:1041F000004323F0170343F004027B689A6000BF7A
:104200000C37BD465DF8047B704780B483B000AFC7
:1042100078607B689B6803F00403042B01D10123C1
:1042200000E0002318460C37BD465DF8047B70475C
:1042300080B483B000AF78607B681B6803F4805360
:10424000B3F5805F01D1012300E0002318460C374D
:10425000BD465DF8047B704780B483B000AF7860E2
:104260007B684FF480521A6000BF0C37BD465DF882
:10427000047B704780B588B000AF78600023FB777F
:104280000023BB6100237B617B68002B01D10123EC
:1042900090E17B681B69002B7B681B6E002B09D1AA
:1042A0007868FEF7D5FE7B6800225A667B6800229C
:1042B00083F85C207B681B681846FFF730FF0346D5
:1042C000002B32D17B681B681846FFF7C5FF7B685F
:1042D0001B681846FFF70FFFFFF716FE38611CE05A
:1042E000FFF712FE02463B69D31A012B15D97B68F2
:1042F0001B681846FFF79CFF0346002B0DD17B6817
:104300001B6E43F010027B681A667B685B6E43F09D
:1043100001027B685A6601234CE17B681B681846E2
:10432000FFF786FF0346002BDAD07B681B68184630
:10433000FFF7F5FE0346002B0DD17B681B6E43F0A3
:1043400010027B681A667B685B6E43F001027B6833
:104350005A660123FB777B681B681846FFF755FFF9
:10436000F8607B681B6E03F01003002B40F019818E
:10437000FB68002B40F015817B681B6E23F4817372
:1043800043F002027B681A667B681B681846FFF7D9
:1043900002FF0346002B36D17B681B68DB6823F0E5
:1043A0000C017B689A687B681B680A43DA607B684B
:1043B0005B6D7A6913437B617B6893F84430012B12
:1043C0000CD17B689A6C7B68DB6C1A437B681B6D35
:1043D0001A437B69134343F001037B617B681B68CD
:1043E0001A69764B13407A68126879690B43136136
:1043F000734B1B6823F470127B685B6803F47013C3
:104400006F4913430B607B681B7E9A037B6893F8AC
:1044100020305B0313437A68926B002A02D04FF47A
:10442000805200E000221A437B68DB681A437B68F5
:104430001B69002B04DA7B681B6923F0004301E051
:104440004FF400131A437B6893F834305B00134336
:10445000BA691343BB617B6893F82830012B15D1EF
:104460007B6893F82030002B04D1BB6943F4803380
:10447000BB610BE07B681B6E43F020027B681A6611
:104480007B685B6E43F001027B685A667B68DB6A7F
:10449000002B09D07B68DB6A03F4E0727B681B6B3E
:1044A0001343BA691343BB617B681B68DA68454BE9
:1044B00013407A681268B9690B43D3607B681B6844
:1044C0001A693E4B13407A68126879690B4313618D
:1044D0007B681B685B6C23F003017B685B7E1A467C
:1044E0007B68DB691A437B681B680A435A647B68F4
:1044F00018687B68DB6B1A460021FFF756FD7B6866
:1045000018687B681B6C1A462F49FFF74EFD7B68C5
:104510001B69002B08D17B681B689A6A7B681B6843
:1045200062F00F029A6217E07B681B69B3F5001F07
:1045300012D17B681B689B6A7B685B6A013B9B00AE
:1045400003F01C036FF00F0202FA03F17B689A6E0E
:104550007B681B680A439A627B681B68DA681B4B9E
:104560001340BA699A420BD17B6800225A667B6875
:104570001B6E23F0030343F001027B681A6618E008
:104580007B681B6E23F0120343F010027B681A66EF
:104590007B685B6E43F001027B685A660123FB7700
:1045A00007E07B681B6E43F010027B681A660123EC
:1045B000FB77FB7F18462037BD4680BD02FCFFDF3E
:1045C000081302460D82DEFF04FFFF03F3FF3F8363
:1045D00080B586B000AFF860B9607A60FB681B6890
:1045E0001846FFF712FE0346002B40F09F80FB6841
:1045F00093F85C30012B01D102239AE0FB68012281
:1046000083F85C20FB681B68DB6803F00103002B68
:1046100014D1FB681B681846FFF7BDFD0346002B4D
:1046200004D0FB681B681846FFF7A1FDFB681B68F8
:10463000DA68FB681B6842F00102DA60F86800F093
:10464000DDFA0346FB75FB7D002B71D1FB681B6E09
:1046500023F4706323F0010343F48072FB681A664D
:10466000FB6800225A66FB689B6D344A1A66FB6839
:104670009B6D334A5A66FB689B6D324A9A66FB68AB
:104680001B681C221A60FB68002283F85C20FB6810
:104690001B685A68FB681B6842F010025A607B680E
:1046A0009B003B61FB689B6D1B6D03F08003002B3F
:1046B0002AD0FB689B6D5B6F002B22D0FB689B6D43
:1046C0005B6F1B68002B1CD0FB689B6D5B6F1B68CE
:1046D0003A699A60FB681B6803F14002FB689B6DB6
:1046E0005B6F1B68DA60FB689B6D5B6F1B68BA6869
:1046F0001A61FB689B6D184601F0A8FB0346FB7529
:104700000EE00123FB750BE0FB68986DFB681B68EE
:1047100040331946BA683B6901F0F8F80346FB7567
:10472000FB681B681846FFF75CFD01E00223FB7580
:10473000FB7D18461837BD4680BD00BFC74D000839
:10474000914E0008AD4E000880B586B000AF78608D
:1047500000237B617B681B681B683B617B681B686F
:104760005B68FB603B6903F00203002B17D0FB681A
:1047700003F00203002B12D07B681B6E03F01003C2
:10478000002B05D17B681B6E43F400627B681A66C0
:10479000786800F070FC7B681B6802221A603B6935
:1047A00003F00403002B04D0FB6803F00403002B88
:1047B00009D13B6903F00803002B52D0FB6803F0DA
:1047C0000803002B4DD07B681B6E03F01003002BF9
:1047D00005D17B681B6E43F400727B681A667B68A8
:1047E0001B681846FFF700FC0346002B32D07B689D
:1047F00093F82030002B2DD17B681B681B6803F0D9
:104800000803082B26D17B681B681846FFF7FDFCC0
:104810000346002B12D17B681B685A687B681B68B3
:1048200022F00C025A607B681B6E23F4807323F025
:10483000010343F001027B681A660BE07B681B6E84
:1048400043F020027B681A667B685B6E43F00102CE
:104850007B685A66786800F092F87B681B680C22C7
:104860001A603B6903F08003002B11D0FB6803F052
:104870008003002B0CD07B681B6E43F480327B6876
:104880001A66786800F08FF87B681B6880221A60CF
:104890003B6903F48073002B12D0FB6803F4807330
:1048A000002B0DD07B681B6E43F400327B681A66C8
:1048B000786800F0CCFB7B681B684FF480721A604C
:1048C0003B6903F40073002B12D0FB6803F4007300
:1048D000002B0DD07B681B6E43F480227B681A6628
:1048E000786800F0BEFB7B681B684FF400721A60AA
:1048F0003B6903F01003002B2BD0FB6803F010037F
:10490000002B26D07B689B6B002B02D101237B619F
:1049100009E07B681B681846FFF7C2FB0346002BC3
:1049200001D001237B617B69012B0ED17B681B6E5B
:1049300043F480627B681A667B685B6E43F0020218
:104940007B685A66786800F038F87B681B6810222C
:104950001A603B6903F48053002B0CD0FB6803F40E
:104960008053002B07D0786800F08FFB7B681B68B2
:104970004FF480521A6000BF1837BD4680BD80B426
:1049800083B000AF786000BF0C37BD465DF8047B94
:10499000704780B483B000AF786000BF0C37BD466D
:1049A0005DF8047B704780B483B000AF786000BFCF
:1049B0000C37BD465DF8047B704780B483B000AF10
:1049C000786000BF0C37BD465DF8047B704700007F
:1049D00080B588B000AF786039600023FB77002392
:1049E000BB607B681B69B3F1004F7B6893F85C3058
:1049F000012B01D10223F0E07B68012283F85C20C7
:104A00007B681B681846FFF700FC0346002B40F04C
:104A1000D7803B685B68022B00F09E807B681B6937
:104A2000B3F1004F04D07B681B696E4A934208D1F2
:104A30007B681A683B681B6819461046FFF709FB3C
:104A400041E07B689A6E3B685B6803F01F030F21AF
:104A500001FA03F3DB431A403B681B68C3F31103FD
:104A6000002B05D13B681B689B0E03F01F0311E070
:104A70003B681B683B613B6993FAA3F3FB60FB68EF
:104A80007B617B69002B01D1202303E07B69B3FAB2
:104A900083F3DBB23968496801F01F018B401A4388
:104AA0007B689A663B685B689B085A1C7B685B6AFC
:104AB0009A4208D87B6818683B6859683B681B684D
:104AC0001A46FFF7A4FA7B6818683B6819683B68C8
:104AD0009B681A46FFF7F2FA3B681B68002B77DAEF
:104AE0004148FFF754FAB8613B681B683F4A93425C
:104AF00020D1BB6903F40003002B1BD1BB6943F435
:104B0000000319463848FFF72FFA394B1B689B09F9
:104B1000384AA2FB03239B095A1C13465B0013442B
:104B20009B00BB6002E0BB68013BBB60BB68002B25
:104B3000F9D14DE03B681B682F4A934248D1BB69CD
:104B400003F48003002B43D1BB6943F4800319466F
:104B50002548FFF709FA3BE07B681B69B3F1004F7A
:104B600004D07B681B691F4A934207D17B681A688F
:104B70003B681B6819461046FFF77EFA3B681B68C6
:104B8000002B25DA1848FFF702FAB8613B681B686A
:104B9000164A934207D1BB6923F400031946124811
:104BA000FFF7E2F914E03B681B68134A93420FD108
:104BB000BB6923F4800319460B48FFF7D5F907E0DA
:104BC0007B681B6E43F020027B681A660123FB772B
:104BD0007B68002283F85C20FB7F18462037BD46A7
:104BE00080BD00BF1000008008130246002000B402
:104BF0002C000020632D3E050100008080B584B0AC
:104C000000AF78600023BB607B681B681846FFF725
:104C1000C2FA0346002B69D17B681B689A68364B41
:104C20001340002B0DD07B681B6E43F010027B6895
:104C30001A667B685B6E43F001027B685A6601234B
:104C400055E07B681B681846FFF77DFA2B48FFF795
:104C50009EF9034603F40003002B0FD0284B1B687A
:104C60009B09284AA2FB03239B090133BB6002E096
:104C7000BB68013BBB60BB68002BF9D17B685B7EE6
:104C8000012B33D0FFF740F9F86028E07B681B6800
:104C90001846FFF780FA0346002B04D17B681B6897
:104CA0001846FFF750FAFFF72FF90246FB68D31AB0
:104CB000022B14D97B681B681B6803F00103012BCE
:104CC0000DD07B681B6E43F010027B681A667B6810
:104CD0005B6E43F001027B685A66012307E07B6844
:104CE0001B681B6803F00103012BCFD1002318467A
:104CF0001037BD4680BD00BF170000800813024674
:104D00002C000020632D3E0580B584B000AF786094
:104D10007B681B681846FFF751FAF8607B681B68D0
:104D20001846FFF738FA0346002B47D0FB68002BE4
:104D300044D17B681B689B6803F00503012B0CD1F1
:104D40007B681B681846FFF712FA7B681B68032212
:104D50001A60FFF7D9F8B86029E07B681B6E43F052
:104D600010027B681A667B685B6E43F001027B6809
:104D70005A66012323E0FFF7C7F80246BB68D31A3F
:104D8000022B14D97B681B689B6803F00103002B7E
:104D90000DD07B681B6E43F010027B681A667B683F
:104DA0005B6E43F001027B685A66012307E07B6873
:104DB0001B689B6803F00103002BDCD1002318461D
:104DC0001037BD4680BD80B584B000AF78607B6889
:104DD000DB6DFB60FB681B6E03F05003002B44D1BE
:104DE000FB681B6E43F40072FB681A66FB681B6865
:104DF0001846FFF7F9F80346002B32D0FB6893F80A
:104E00002030002B2DD1FB681B681B6803F00803C2
:104E1000082B26D1FB681B681846FFF7F6F90346F6
:104E2000002B12D1FB681B685A68FB681B6822F0D4
:104E30000C025A60FB681B6E23F4807323F001039D
:104E400043F00102FB681A660BE0FB681B6E43F03F
:104E50002002FB681A66FB685B6E43F00102FB6888
:104E60005A66F868FFF78BFD0EE0FB681B6E03F0D7
:104E70001003002B03D0F868FFF79FFD04E0FB68E8
:104E80009B6D9B6E7868984700BF1037BD4680BD0C
:104E900080B584B000AF78607B68DB6DFB60F8683C
:104EA000FFF777FD00BF1037BD4680BD80B584B0E9
:104EB00000AF78607B68DB6DFB60FB681B6E43F0C6
:104EC0004002FB681A66FB685B6E43F00402FB68F5
:104ED0005A66F868FFF771FD00BF1037BD4680BD08
:104EE00080B483B000AF78607B689B6803F00103F7
:104EF000012B01D1012300E0002318460C37BD46E9
:104F00005DF8047B704780B483B000AF78607B6845
:104F10009B6803F00043B3F1004F01D1012300E08F
:104F2000002318460C37BD465DF8047B704780B5FA
:104F300086B000AF78600023BB607B6893F85C307C
:104F4000012B01D102237EE07B68012283F85C20E3
:104F50007868FFF7D9FE0346FB757B681B68184627
:104F6000FFF7BEFF0346002B62D17B681B6E23F464
:104F7000817343F002027B681A667B681B685B6C76
:104F800003F001033B617B681B68DB6803F00303EC
:104F9000FB607B681B68DA687B681B6822F0030291
:104FA000DA607B681B685A6C7B681B6822F0010220
:104FB0005A647B681B689A687B681B6842F00042F1
:104FC0009A6014E0BB680133BB60BB68B3F52E3F49
:104FD0000DD37B681B6E23F0120343F010027B6835
:104FE0001A667B68002283F85C2001232BE07B6833
:104FF0001B681846FFF787FF0346002BE2D17B684A
:105000001B68D9687B681B68FA680A43DA607B68AA
:105010001B68596C7B681B683A690A435A647B6851
:105020001B6E23F0030343F001027B681A6605E060
:105030007B681B6E43F010027B681A667B68002257
:1050400083F85C20FB7D18461837BD4680BD80B4D0
:1050500083B000AF786000BF0C37BD465DF8047BBD
:10506000704780B483B000AF786000BF0C37BD4696
:105070005DF8047B704780B483B000AF786000BFF8
:105080000C37BD465DF8047B704780B483B000AF39
:10509000786000BF0C37BD465DF8047B70470000A8
:1050A00080B485B000AF78607B6803F00703FB60D5
:1050B0000C4BDB68BB60BA684FF6FF031340BB6064
:1050C000FB681A02BB68134343F0BF6343F4003329
:1050D000BB60044ABB68D36000BF1437BD465DF8AF
:1050E000047B704700ED00E080B400AF044BDB6848
:1050F0001B0A03F007031846BD465DF8047B7047A2
:1051000000ED00E080B483B000AF0346FB7197F977
:105110000730002B0BDBFB7903F01F02074997F9DF
:1051200007305B09012000FA02F241F8232000BF9A
:105130000C37BD465DF8047B704700BF00E100E01E
:1051400080B483B000AF0346FB7197F90730002BA2
:1051500012DBFB7903F01F020A4997F907305B095C
:10516000012000FA02F2203341F82320BFF34F8FD1
:1051700000BFBFF36F8F00BF00BF0C37BD465DF8A7
:10518000047B704700E100E080B483B000AF0346C9
:10519000FB7197F90730002B0CDBFB7903F01F0242
:1051A000074997F907305B09012000FA02F2403302
:1051B00041F8232000BF0C37BD465DF8047B7047E3
:1051C00000E100E080B483B000AF03463960FB71BA
:1051D00097F90730002B0ADB3B68DAB20C4997F9E4
:1051E00007301201D2B20B4483F800230AE03B6877
:1051F000DAB20849FB7903F00F03043B1201D2B283
:105200000B441A7600BF0C37BD465DF8047B70472F
:1052100000E100E000ED00E080B489B000AFF8608C
:10522000B9607A60FB6803F00703FB61FB69C3F1B7
:105230000703042B28BF0423BB61FB690433062B3F
:1052400002D9FB69033B00E000237B614FF0FF3292
:10525000BB6902FA03F3DA43BB681A407B699A40E0
:105260004FF0FF317B6901FA03F3D9437B680B40B0
:10527000134318462437BD465DF8047B704780B55C
:1052800082B000AF78607868FFF70AFF00BF083788
:10529000BD4680BD80B586B000AF0346B9607A6078
:1052A000FB73FFF721FF034603F007037B617A6876
:1052B000B9687869FFF7B0FF024697F90F301146D9
:1052C0001846FFF77FFF00BF1837BD4680BD80B589
:1052D00082B000AF0346FB7197F907301846FFF71D
:1052E00011FF00BF0837BD4680BD80B582B000AF5A
:1052F0000346FB7197F907301846FFF721FF00BFFF
:105300000837BD4680BD000080B483B000AF786030
:105310007B68013BB3F1807F01D301230DE00A4A92
:105320007B68013B5360084B00229A60064B1B6868
:10533000054A43F003031360002318460C37BD46AB
:105340005DF8047B704700BF10E000E080B582B0DC
:1053500000AF0346FB7197F907301846FFF714FFBB
:1053600000BF0837BD4680BD80B483B000AF786011
:105370007B68042B44D801A252F823F09F53000805
:10538000BD530008DF530008015400089153000882
:105390001F4B1B681E4A43F00403136031E01C4B93
:1053A0001B681B4A23F0040313601A4BD3F8E03048
:1053B000184A23F44003C2F8E03022E0144B1B6883
:1053C000134A23F004031360124BD3F8E03023F4A4
:1053D0004003104A43F48003C2F8E03011E00C4B64
:1053E0001B680B4A23F0040313600A4BD3F8E03028
:1053F00023F44003074A43F40003C2F8E03000E01E
:1054000000BF00BF0C37BD465DF8047B704700BF8E
:1054100010E000E0000C024680B582B000AF78607A
:105420007B68002B01D1012354E07B685B7FDBB2FA
:10543000002B05D17B6800221A777868FDF7F2FE11
:105440007B6802225A777B681B79002B0CD17B6822
:105450001B68224A5A617B681B689A687B681B68D4
:1054600022F018029A600CE07B6899687B68DB6820
:105470001A46786800F0BCF90346002B01D00123DE
:1054800028E07B685B79002B05D17B681B684FF0B7
:10549000FF321A6104E07B681B687A6812691A613E
:1054A0007B681B689B6823F060017B685A697B6896
:1054B0001B680A439A607B681B689B6823F0800125
:1054C0007B689A697B681B680A439A607B68012243
:1054D0005A77002318460837BD4680BDB71DC10462
:1054E00080B582B000AF78607B68002B01D10123CA
:1054F00022E07B685B7FDBB2022B01D102231BE041
:105500007B6802225A777B681B689A687B681B68F5
:1055100042F001029A607B681B685B687B681B68CD
:1055200000225A607868FDF79FFE7B6800225A7758
:105530007B6800221A77002318460837BD4680BDD5
:1055400080B586B000AFF860B9607A6000233B6137
:10555000FB6802225A77FB681B6A032B06D0032BD9
:1055600029D8012B19D0022B1ED024E000237B6107
:105570000AE07B699B00BA681A44FB681B681268E2
:105580001A607B6901337B617A697B689A42F0D348
:10559000FB681B681B683B610EE07A68B968F868B5
:1055A00000F05EF8386107E07A68B968F86800F0E2
:1055B000E5F8386100E000BFFB6801225A773B69DB
:1055C00018461837BD4680BD80B586B000AFF8607C
:1055D000B9607A6000233B61FB6802225A77FB685E
:1055E0001B689A68FB681B6842F001029A60FB68BE
:1055F0001B6A032B06D0032B29D8012B19D0022BB1
:105600001ED024E000237B610AE07B699B00BA681E
:105610001A44FB681B6812681A607B6901337B615E
:105620007A697B689A42F0D3FB681B681B683B6110
:105630000EE07A68B968F86800F012F8386107E09F
:105640007A68B968F86800F099F8386100E000BF3E
:10565000FB6801225A773B6918461837BD4680BD62
:1056600080B489B000AFF860B9607A600023FB6154
:1056700023E0FB699B00BA6813441B781A06FB6998
:105680009B000133B9680B441B781B041A43FB6968
:105690009B000233B9680B441B781B021A43FB6959
:1056A0009B000333B9680B441B781946FB681B68E1
:1056B0000A431A60FB690133FB617B689B08FA6946
:1056C0009A42D6D37B6803F00303002B4DD07B684E
:1056D00003F00303012B07D1FB699B00BA68134455
:1056E000FA6812681B7813707B6803F00303022BBF
:1056F00016D1FB699B00BA6813441B781B021AB2CF
:10570000FB699B000133B9680B441B781BB2134340
:105710001BB27B83FB681B687B617B697A8B1A8079
:105720007B6803F00303032B1FD1FB699B00BA685E
:1057300013441B781B021AB2FB699B000133B96842
:105740000B441B781BB213431BB27B83FB681B68A3
:105750007B617B697A8B1A80FB699B000233BA6894
:105760001344FA6812681B781370FB681B681B6887
:1057700018462437BD465DF8047B704780B487B077
:1057800000AFF860B9607A6000237B6113E07B6949
:105790009B00BA6813441B881A047B699B00023380
:1057A000B9680B441B881946FB681B680A431A60DA
:1057B0007B6901337B617B685B087A699A42E6D337
:1057C0007B6803F00103002B09D0FB681B683B6179
:1057D0007B699B00BA6813441A883B691A80FB688E
:1057E0001B681B6818461C37BD465DF8047B704774
:1057F00080B487B000AFF860B9607A600023FB75B1
:105800001F233B61BB6803F00103002B02D101237E
:10581000FB7563E000BF3B695A1E3A61002B09D05B
:105820003B6903F01F03BA6822FA03F303F0010394
:10583000002BF0D07B68182B46D801A252F823F039
:10584000CF580008C9580008C9580008C9580008AE
:10585000C9580008C9580008C9580008C9580008A4
:10586000BD580008C9580008C9580008C9580008A0
:10587000C9580008C9580008C9580008C958000884
:10588000B1580008C9580008C9580008C95800088C
:10589000C9580008C9580008C9580008C958000864
:1058A000A55800083B69062B13D90123FB7510E0AE
:1058B0003B69072B0FD90123FB750CE03B690F2BCC
:1058C0000BD90123FB7508E00123FB7506E000BF3F
:1058D00004E000BF02E000BF00E000BFFB7D002B42
:1058E0000DD1FB681B68BA685A61FB681B689B682E
:1058F00023F01801FB681B687A680A439A60FB7DF5
:1059000018461C37BD465DF8047B704780B584B0EF
:1059100000AFF860B9607A603B60FB68002B01D192
:1059200001234FE0FB6893F84C30012B01D1022397
:1059300048E0FB68012283F84C20FB6893F8543060
:10594000DBB2012B36D1FB68022283F85420FB68BE
:1059500000229A653B687A68B968F86800F0D3F964
:10596000FB681B685A69FB681B6842F4BA425A61BB
:10597000FB685B6E002B07D0FB681B685A69FB68ED
:105980001B6842F400725A61FB681B6F002B07D042
:10599000FB681B685A69FB681B6842F400525A6135
:1059A000FB681B685A69FB681B6842F001025A6178
:1059B000002307E0FB6840229A65FB68002283F819
:1059C0004C20012318461037BD4680BD80B586B0F7
:1059D00000AF78607B681B6823F47F6323F00F03BC
:1059E0007B617B681B68C3F30B03503BDB0903F04F
:1059F0001F03012202FA03F33B617B69DB683A690A
:105A00001340FB60FB68002B00F03B817B681B6848
:105A10001B6903F48063002B11D07B681B685B69F2
:105A200003F48063002B0AD07B681B684FF480620C
:105A3000DA607B689B6D43F001027B689A657B6846
:105A40001B681B6903F40063002B11D07B681B6883
:105A50005B6903F40063002B0AD07B681B684FF47A
:105A60000062DA607B689B6D43F002027B689A6596
:105A70007B681B681B6903F48053002B11D07B6883
:105A80001B685B6903F48053002B0AD07B681B689A
:105A90004FF48052DA607B689B6D43F004027B68B0
:105AA0009A657B681B681B6903F48043002B11D047
:105AB0007B681B685B6903F48043002B0AD07B681A
:105AC0001B684FF48042DA607B689B6D43F00802EC
:105AD0007B689A657B681B681B6903F40073002B65
