:020000040800F2
:10000000000002206DF70008651500086D15000856
:10001000751500087D150008851500088118000871
:100020000000000000000000000000008D15000826
:100030009B15000800000000A9150008B71500086E
:10004000811800088118000881180008811800082C
:10005000811800088118000881180008811800081C
:10006000811800088118000881180008811800080C
:1000700081180008811800088118000881180008FC
:1000800081180008811800088118000881180008EC
:1000900081180008811800088118000881180008DC
:1000A00081180008811800088118000881180008CC
:1000B00081180008811800088118000881180008BC
:1000C00081180008811800088118000881180008AC
:1000D0008118000881180008C5150008811800085B
:1000E00081180008ED150008811800088118000823
:1000F000811800088118000881180008811800087C
:10010000811800088118000881180008811800086B
:10011000811800088118000881180008811800085B
:10012000811800088118000881180008811800084B
:10013000811800085116000881180008811800086D
:1001400081180008011600082D1600088118000803
:10015000811800088118000881180008811800081B
:1001600010B5054C237833B9044B13B10448AFF3F1
:1001700000800123237010BDD00400200000000087
:100180004CEE020808B5034B1BB103490348AFF31B
:10019000008008BD00000000D40400204CEE0208DE
:1001A00070B4840746D04C1E002941D0D5B2034616
:1001B00002E0611EE4B30C4603F8015B9907F8D135
:1001C000032C2ED9D5B245EA05250F2C45EA054565
:1001D00019D9264603F11001103E0F2E41F8105C8C
:1001E00041F80C5C41F8085C41F8045C01F1100135
:1001F000F2D8A4F1100121F00F0104F00F04103126
:10020000032C0B440DD91E4621460439032946F818
:10021000045BFAD8211F21F0030104310B4404F0E0
:1002200003042CB1D2B21C4403F8012BA342FBD12E
:1002300070BC70470C460346C2E7034613F8012B17
:10024000002AFBD1181A01387047000053B94AB987
:10025000002908BF00281CBF4FF0FF314FF0FF30CE
:1002600000F07EB9ADF1080C6DE904CE00F006F89F
:10027000DDF804E0DDE9022304B070472DE9F04F1A
:10028000099D0C46002B4DD18A420F468446964666
:10029000B2FA82F360D94BB102FA03FEC3F1200235
:1002A0009F4000FA03FC20FA02F217434FEA1E4671
:1002B0001FFA8EF44FEA1C42B7FBF6F106FB1177EA
:1002C00001FB04F042EA0742904208D91EEB020209
:1002D00001F1FF3702D2904200F22D813946121A05
:1002E0001FFA8CFCB2FBF6F006FB102200FB04F4B4
:1002F0004CEA024C644508D91EEB0C0C00F1FF32AD
:1003000002D2644500F21A81104640EA0140ACEB8B
:10031000040C002125B12CFA03F30022C5E90032B8
:10032000BDE8F08F8B4205D90DB1C5E90001002170
:100330000846F5E7B3FA83F100294DD1A342C0F096
:10034000F280904280F0EF80064623460846002D5A
:10035000E6D0C5E90063E3E7002B40F0A2808A1AEB
:100360004FEA1E471FFA8EF60121B2FBF7F407FB96
:1003700014204FEA1C4242EA004206FB04F090427D
:100380000FD91EEB020204F1FF382CBF4FF0010918
:100390004FF00009904203D9B9F1000F00F0C88076
:1003A0004446121A1FFA8CFCB2FBF7F007FB10222E
:1003B00000FB06F64CEA024C664508D91EEB0C0C15
:1003C00000F1FF3202D2664500F2BB801046ACEB72
:1003D000060C40EA04409DE7C1F120068B4004FA78
:1003E00001FE22FA06F720FA06FCF4408A401F4379
:1003F0004EEA0C0300FA01FE4FEA17484FEA134990
:100400001FFA87FCB4FBF8F008FB104449EA0444E7
:1004100000FB0CF9A1450ED93C1900F1FF3A2CBFA5
:100420004FF0010B4FF0000BA14503D9BBF1000FBA
:1004300000F093805046A4EB09041FFA83F9B4FB43
:10044000F8F308FB134403FB0CFC49EA0444A445FD
:1004500006D93C1903F1FF3801D2A4457AD84346A6
:1004600043EA0040A4EB0C04A0FB02984445CC46B0
:10047000434602D306D1CE4504D20138B9EB020C73
:1004800068EB07035DB1BEEB0C0264EB030404FAF6
:1004900006F622FA01F3CC401E43C5E900640021B0
:1004A0003EE702FA03FEC3F1200104FA03F200FA68
:1004B00003FCCC404FEA1E4720FA01F11FFA8EF6EA
:1004C000B4FBF7F00A4307FB1044110C41EA044166
:1004D00000FB06F48C420ED91EEB010100F1FF383F
:1004E0002CBF4FF001094FF000098C4202D9B9F13D
:1004F000000F2CD04046091B92B2B1FBF7F407FB6A
:10050000141142EA014204FB06F1914207D91EEBA5
:10051000020204F1FF3801D2914215D84446521A22
:1005200044EA004121E7861A64EB030301200EE749
:10053000023C724435E702397244D0E6F444023892
:10054000E3E6F444023842E7023C7244E7E702384B
:100550007144D0E7023B3C4482E702383C446AE7FE
:10056000704700BF80B400AF064BD3F8F430054AA3
:1005700043F40003C2F8F43000BFBD465DF8047BCD
:10058000704700BF000C024680B500AF00F062F873
:1005900000BF80BD80B582B000AF7860002008F059
:1005A00098FF00F071F800F07DF824480CF07AFE16
:1005B000234A002120200FF03FFA224B1B884FF6E0
:1005C000FF7293420ED01F4B1B88002B08D01D4B8F
:1005D0001B889B025B0B03F57F533E335B0302E0FA
:1005E000194B00E0184B18460AF09AFC174A0021F4
:1005F00040200FF021FA164A002110200FF01CFABB
:1006000008F02CFB00F09CF80121012009F0D0FF3C
:100610000021022009F0CCFF0021002009F0C8FFD2
:1006200006F0F0FE0121022009F0C2FF002008F0D0
:100630005BFF002318460837BD4680BD1000002030
:10064000B1D90008A007F90B00C00F08D5A8000811
:10065000558E000880B582B000AF00237B603B1D43
:10066000194600200EF0A0F80346002B03D00C2002
:1006700004F0D2F804E07B689B7B184604F0CCF8C9
:1006800000BF0837BD4680BD80B500AFFFF76AFFE9
:100690000FF078FA024802F0EFFF00BF80BD00BF04
:1006A0004000003080B588B000AF0EF03DFB07F190
:1006B0000C0300221A605A609A60DA601A61032300
:1006C0003B6100237B614FF46043FB60194BD3F81F
:1006D0008C30184A43F00103C2F88C30154BD3F824
:1006E0008C3003F00103BB60BB6807F10C031946B3
:1006F000114802F01DFE03233B6100237B61182398
:10070000FB600C4BD3F88C300A4A43F00203C2F86A
:100710008C30084BD3F88C3003F002037B607B688D
:1007200007F10C031946054802F002FE00BF20370E
:10073000BD4680BD000C0246000002420004024299
:1007400080B500AF09F0E4FB034A002101200FF05F
:1007500073F900BF80BD00BF01A0000880B582B062
:1007600000AF786039603B689B00194678680DF0EF
:100770004BFA00BF0837BD4680BD80B582B000AFE0
:1007800078607B689B0018460DF072F903461846A6
:100790000837BD4680BD80B582B000AF786078680C
:1007A0000DF0F6F900BF0837BD4680BD80B500AF3B
:1007B0004FF0FF300FF03EF800BF80BD80B400AFB7
:1007C00000BFBD465DF8047B704780B400AF00BF3A
:1007D000BD465DF8047B704780B400AF00BFBD46E6
:1007E0005DF8047B704780B500AF002110200FF04A
:1007F00045F900BF80BD80B500AF002101200FF09A
:100800003DF900BF80BD000080B483B000AF7860C8
:100810007B68074A1A607B68064A5A607B68064A0A
:100820009A6000BF0C37BD465DF8047B704700BF7F
:100830005D0700087B0700089707000880B500AF38
:10084000002120200FF01AF900BF80BD80B500AF55
:10085000002140200FF012F900BF80BD80B500AF2D
:1008600001F010F8FFF790FE00F08AF800F0ECF8C5
:1008700000F0AEFB00F098F900F002F900F0D6FAB3
:1008800000F050FB00F066F900F0A2F900F0B4F9B6
:1008900000F0C8F900F014FA2F4B184664231A46EA
:1008A00000212DF057FE2D492B482DF009FE2A4836
:1008B000FFF7C3FC03469AB264232749284805F092
:1008C0002BFD01224021274802F07EFE264B1B68AB
:1008D0006FF001021A61244804F0CEFB0020FFF7FC
:1008E00059FE224801F09AFBFFF760FF01F07CF807
:1008F00003461F4A13601F4B1B6803F59C530833C4
:100900001B4A1268934205D2194B1B68194A13609F
:1009100008F05CF8184B1B6803F16402144B1B6869
:100920009A4212D2154B1B78002B05D001220421CC
:100930000C4802F049FE04E000220421094802F0BC
:1009400043FE0B4B1B680C4A136001222021054813
:1009500002F03AFEC8E700BFC016002064EE0208AD
:100960001C1600200000024284150020A414002060
:10097000BC160020B8160020B4160020B0160020C7
:1009800080B598B000AF07F120034022002118463F
:100990002DF0E0FD3B462022002118462DF0DAFD27
:1009A00002F05AFE274BD3F8F03023F01803254A03
:1009B00043F00803C2F8F03007233B624FF4803362
:1009C0007B620023BB628123FB624FF480733B6335
:1009D00010237B6302233B6403237B640223BB64F9
:1009E0000823FB6402233B6502237B650823BB6568
:1009F0000023FB6507F12003184602F0C5FE0346FD
:100A0000002B01D000F060FB3F233B6003237B60A1
:100A10000023BB600023FB6000233B6100237B615C
:100A20000423BB610023FB613B460021184603F011
:100A3000BBFA0346002B01D000F046FB00BF603735
:100A4000BD4680BD000C024680B592B000AF3B466B
:100A50004822002118462DF07DFD4FF400433B60F5
:100A60004FF480237B643B46184603F0DFFC0346CB
:100A7000002B01D000F028FB00BF4837BD4680BDE9
:100A800080B584B000AF3B1D00221A605A609A60A6
:100A90002D4B2E4A1A602C4B00225A602A4B002202
:100AA0009A60294B0022DA60274B00221A61264BFC
:100AB00004225A61244B00225A76234B0022DA6129
:100AC000214B00221A76204B002283F820201E4B57
:100AD00001225A621C4B4FF4B862DA621A4B4FF48F
:100AE00080621A63184B002283F83420164B0022D0
:100AF0005A65154B4FF480529A63134B0022DA6308
:100B0000114B00221A64104B002283F844200E4837
:100B100001F0D6F80346002B01D000F0D5FA0C4BBB
:100B20007B600023BB600023FB603B1D1946064829
:100B300001F01EFC0346002B01D000F0C5FA00BFF7
:100B40001037BD4680BD00BFA4140020001002462F
:100B5000002000B480B500AF114B124A1A60104B50
:100B600001221A710E4B00225A710D4B41F6B752F9
:100B70009A600B4B0822DA60094B00225A61084B3D
:100B800000229A61064B03221A62054801F070FFA9
:100B90000346002B01D000F097FA00BF80BD00BFD4
:100BA000101500200030024080B500AF002002F098
:100BB00023FD0346002B01D000F086FA02F03CFD35
:100BC0000346002B01D000F07FFA00BF80BD00007B
:100BD00080B500AF064B074A1A60054802F08AFD4F
:100BE0000346002B01D000F06FFA00BF80BD00BFAC
:100BF000341500200060024080B500AF074B084A62
:100C00001A60064B00225A60044803F041FE034676
:100C1000002B01D000F058FA00BF80BD4015002025
:100C200000080C4280B588B000AF3B1D00221A605E
:100C30005A609A60DA601A615A619A611E4B1F4AC3
:100C40001A601D4B00225A601B4B7F229A601A4B80
:100C5000FF22DA60184B00221A61174B00225A61FA
:100C6000154B00229A61144B4FF08042DA61124B0F
:100C700000221A62104B00225A620F4803F0A4FEB1
:100C80000346002B01D000F01FFA00237B600023F5
:100C90003B6100237B610023BB613B1D1946064875
:100CA00004F064F90346002B01D000F00DFA00BFF8
:100CB0002037BD4680BD00BF541500200078004697
:100CC00080B59CB000AF07F1600300221A605A6043
:100CD0009A60DA6007F1540300221A605A609A6041
:100CE00007F1380300221A605A609A60DA601A61CC
:100CF0005A619A613B1D3422002118462DF02AFCCE
:100D0000484B494A1A60474B4FF6FF725A60454BB1
:100D100000229A60434B0A22DA60424B00221A6199
:100D2000404B00225A613F4B80229A613D4804F0BB
:100D30004BF90346002B01D000F0C6F94FF4805365
:100D40003B6607F160031946364804F09DFC0346F4
:100D5000002B01D000F0B8F9324804F010FA034635
:100D6000002B01D000F0B0F908212E4804F068FAF9
:100D70000346002B01D000F0A7F920237B65002358
:100D8000BB650023FB6507F154031946254805F0B0
:100D900037F90346002B01D000F096F93023BB63EE
:100DA0000023FB6300233B6400237B640023BB64BC
:100DB0000023FB6400233B6507F13803002219463A
:100DC000184804F0E7FB0346002B01D000F07CF943
:100DD00000237B600023BB600023FB6000233B619A
:100DE00000237B614FF40053BB610023FB610023B0
:100DF0003B6200237B624FF00073BB620023FB6207
:100E000000233B6300237B633B1D1946054805F027
:100E10005FF90346002B01D000F056F900BF703790
:100E2000BD4680BD84150020002C014080B58EB0E9
:100E300000AF07F1280300221A605A609A60DA6056
:100E400007F11C0300221A605A609A603B46002298
:100E50001A605A609A60DA601A615A619A61304B7E
:100E60004FF080421A602E4B4FF6FF725A602C4BA7
:100E700000229A602A4B0A22DA60294B00221A616A
:100E8000274B80229A61264804F09EF80346002BE7
:100E900001D000F019F94FF48053BB6207F1280329
:100EA00019461F4804F0F0FB0346002B01D000F068
:100EB0000BF91B4804F063F90346002B01D000F046
:100EC00003F90821164804F0BBF90346002B01D0B2
:100ED00000F0FAF82023FB6100237B6207F11C037A
:100EE00019460F4805F08CF80346002B01D000F09E
:100EF000EBF830233B6000237B600023BB600023C2
:100F00003B613B4600221946054804F043FB03467B
:100F1000002B01D000F0D8F800BF3837BD4680BDA7
:100F2000D015002080B500AF274B284A1A60264B09
:100F30004FF4E1325A60244B00229A60224B002287
:100F4000DA60214B00221A611F4B08225A611E4BA6
:100F500000229A611C4B4FF40042DA611A4B0022C6
:100F60001A62194B00225A62174B30229A62164BB2
:100F70004FF48052DA63144B4FF400521A64124853
:100F800005F072F90346002B01D000F09DF8002116
:100F90000D4805F047FF0346002B01D000F094F800
:100FA0000021094805F07CFF0346002B01D000F02A
:100FB0008BF8054805F0FBFE0346002B01D000F03E
:100FC00083F800BF80BD00BF1C1600200044004015
:100FD00080B588B000AF07F10C0300221A605A6098
:100FE0009A60DA601A61354BD3F88C30334A43F09B
:100FF0000203C2F88C30314BD3F88C3003F002037B
:10100000BB60BB682D4BD3F88C302C4A43F00103F6
:10101000C2F88C30294BD3F88C3003F001037B608D
:101020007B68264BD3F88C30244A43F00403C2F883
:101030008C30224BD3F88C3003F004033B603B68C8
:1010400000224FF480511E4802F0BEFA00224FF4F5
:10105000F2711C4802F0B8FA4FF48053FB60012390
:101060003B6100237B610023BB6107F10C03194640
:10107000134802F05DF94FF4F273FB6001233B610A
:1010800000237B610023BB6107F10C0319460D4867
:1010900002F04EF94FF40043FB604FF488133B61BC
:1010A00000237B6107F10C031946054802F040F963
:1010B00008F025FA00BF2037BD4680BD000C02466F
:1010C000000402420000024280B400AF72B600BFCA
:1010D00000BFFDE780B582B000AF0D4BD3F8943070
:1010E0000B4A43F00403C2F89430094BD3F8943010
:1010F00003F004037B607B6800220521422001F09D
:10110000F5FB422001F00FFC00BF0837BD4680BD53
:10111000000C024680B59CB000AF786007F15C031C
:1011200000221A605A609A60DA601A6107F11403AB
:101130004822002118462DF00DFA7B681B68244ACE
:10114000934240D14FF400537B6100233B6507F18C
:101150001403184603F06AF90346002B01D0FFF789
:10116000B3FF1C4BD3F894301A4A43F02003C2F863
:101170009430184BD3F8943003F020033B613B6963
:10118000144BD3F88C30134A43F00103C2F88C306F
:10119000104BD3F88C3003F00103FB60FB68032392
:1011A000FB6503233B6600237B6607F15C0319465E
:1011B000094802F0BDF800220021412001F096FB11
:1011C000412001F0B0FB00BF7037BD4680BD00BFBD
:1011D00000100246000C02460000024280B485B0B6
:1011E00000AF78607B681B680B4A93420ED10B4BB3
:1011F000D3F88830094A43F48053C2F88830074B4B
:10120000D3F8883003F48053FB60FB6800BF1437C9
:10121000BD465DF8047B704700300240000C02467A
:1012200080B483B000AF78607B681B68084A934243
:1012300007D1084BD3F88830064A23F48053C2F80C
:10124000883000BF0C37BD465DF8047B704700BF97
:1012500000300240000C024680B485B000AF7860D8
:101260000A4BD3F88830094A43F40033C2F8883077
:10127000064BD3F8883003F40033FB60FB6800BFF3
:101280001437BD465DF8047B704700BF000C024672
:1012900080B596B000AF786007F1100348220021B6
:1012A00018462DF057F97B681B68134A93421ED1EC
:1012B0004FF480733B614FF400537B6307F11003DD
:1012C000184603F0B3F80346002B01D0FFF7FCFEED
:1012D0000A4BD3F88C30094A43F48023C2F88C308F
:1012E000064BD3F88C3003F48023FB60FB6800BF0F
:1012F0005837BD4680BD00BF00080C42000C0246B6
:1013000080B596B000AF786007F110034822002145
:1013100018462DF01FF97B681B68134A93421ED1B3
:101320004FF480433B614FF480733B6507F110033A
:10133000184603F07BF80346002B01D0FFF7C4FEEC
:101340000A4BD3F8A830094A43F40013C2F8A83076
:10135000064BD3F8A83003F40013FB60FB6800BF12
:101360005837BD4680BD00BF00780046000C0246DD
:1013700080B584B000AF78607B681B681D4A9342DB
:1013800017D11D4BD3F8A4301B4A43F40063C2F8B5
:10139000A430194BD3F8A43003F40063FB60FB685E
:1013A00000220021262001F0A1FA262001F0BBFA3C
:1013B0001BE07B681B68B3F1804F16D10E4BD3F84E
:1013C0009C300D4A43F00103C2F89C300A4BD3F81D
:1013D0009C3003F00103BB60BB6800220721292079
:1013E00001F084FA292001F09EFA00BF1037BD46B3
:1013F00080BD00BF002C0140000C024680B59CB0AF
:1014000000AF786007F15C0300221A605A609A60AE
:10141000DA601A6107F114034822002118462DF002
:1014200099F87B681B68224A93423CD102237B6176
:101430000023FB6107F11403184602F0F7FF03468F
:10144000002B01D0FFF740FE1A4BD3F89C30194A0D
:1014500043F40033C2F89C30164BD3F89C3003F4AD
:1014600000333B613B69134BD3F88C30114A43F096
:101470000103C2F88C300F4BD3F88C3003F001031A
:10148000FB60FB684FF48053FB6512233B6600232F
:101490007B660023BB660323FB6607F15C031946EA
:1014A000054801F045FF00BF7037BD4680BD00BF55
:1014B00000440040000C02460000024280B483B0A9
:1014C00000AF0346FB7197F90730002B0BDBFB796C
:1014D00003F01F02074997F907305B09012000FA62
:1014E00002F241F8232000BF0C37BD465DF8047BB3
:1014F000704700BF00E100E080B483B000AF034656
:10150000FB7197F90730002B12DBFB7903F01F0208
:101510000A4997F907305B09012000FA02F22033EB
:1015200041F82320BFF34F8F00BFBFF36F8F00BF81
:1015300000BF0C37BD465DF8047B704700E100E05A
:1015400080B400AF064BD3F80832054A23F4803349
:10155000C2F8083200BFBD465DF8047B704700BF8B
:10156000000C024680B400AF00BFFDE780B400AFBE
:1015700000BFFDE780B400AF00BFFDE780B400AF5F
:1015800000BFFDE780B400AF00BFFDE780B400AF4F
:1015900000BFBD465DF8047B704780B400AF00BF5C
:1015A000BD465DF8047B704780B400AF00BFBD4608
:1015B0005DF8047B704780B500AF00F001FA00BF12
:1015C00080BD000080B500AF064803F093FE002206
:1015D0004021054801F0F8FF024803F0A1FD00BFDB
:1015E00080BD00BF841500200000024280B500AF1E
:1015F000024803F07FFE00BF80BD00BFD015002071
:1016000080B500AF064800F079FD01224021054871
:1016100001F0DAFF044803F02FFD00BF80BD00BFDA
:10162000A414002000000242D015002080B500AFB5
:10163000064B1B68002B02D0044B1B689847FFF732
:101640007FFFBFF36F8F00BF00BF80BD0048002049
:1016500080B500AF3D20FFF74FFF0C4B1B68002B00
:1016600002D00A4B1B689847094B1B78DBB2002B52
:1016700007D0002205213D2001F038F9044B00225B
:101680001A703D20FFF71AFF00BF80BD04480020FC
:101690002048002080B586B000AF7860144A154B12
:1016A000D31A7B617B693B61134B1B68002B02D112
:1016B000114B124A1A60104B1A687B6813443A693E
:1016C0009A4207D22CF04EFF03460C221A604FF0CC
:1016D000FF3309E0084B1B68FB60074B1A687B6807
:1016E0001344054A1360FB6818461837BD4680BD91
:1016F0000000022000040000241700209880002031
:1017000080B400AF064BD3F88830054A43F4700329
:10171000C2F8883000BFBD465DF8047B704700BF4B
:1017200000ED00E080B489B000AF4F4BDB6903F0FF
:101730000C03082B02D00C2B0BD07DE04A4B1B680E
:101740001B0D03F00103494A22FA03F3484A1360D0
:1017500076E0454B9B6AFB61434B5B6B7B61FB69AE
:101760001B0A03F0070301333B617B69C3F30803E2
:101770000133FB607B691B0E03F07F030133BB6009
:10178000FB6903F01003002B0BD0374B9B6BDB087E
:10179000C3F30C0307EE903AF8EE677AC7ED067ACA
:1017A00002E04FF00003BB61FB6903F003037B60C1
:1017B0007B68022B03D07B68032B03D00CE02D4BFE
:1017C000FB610CE0284B1B681B0D03F00103274A4B
:1017D00022FA03F3FB6102E00023FB6100BFFB6917
:1017E00007EE903AF8EE676A3B6907EE903AF8EE3A
:1017F000677A86EEA77AFB6807EE903AF8EE676A9A
:1018000097ED066ADFED1C5AC6EE257A76EEA77ACA
:1018100067EE277AC7ED007ABB6807EE903AB8EE1C
:10182000677AD7ED006AC6EE877AFCEEE77A17EEA4
:10183000902A0F4B1A6003E00D4B0E4A1A6000BF4E
:10184000094B1B6A03F007030C4AD35CFB61084B8E
:101850001A68FB6922FA03F3054A136000BF2437B4
:10186000BD465DF8047B7047000C02460048E80165
:10187000200000200024F400000000462CFB020899
:10188000FEE7000080B500AF0D4B1B680C4A43F427
:1018900080731360032001F01EF8FFF743FF04205C
:1018A00001F08EF80F2000F00DF80346002B01D058
:1018B000012302E0FFF70EFC0023184680BD00BFA5
:1018C0000020024080B584B000AF78600023FB6048
:1018D000364B1B78002B01D1012362E0344B1B688F
:1018E00003F00403042B0CD1324B1A682F4B1B78E6
:1018F00019464FF47A73B3FBF1F3B2FBF3F3FB60D9
:101900003DE02D4BD3F8E03003F44003BB60BB68EF
:10191000B3F5000F25D0BB68B3F5000F2ED8BB6818
:10192000002B04D0BB68B3F5800F0DD026E0214B0F
:101930001A681E4B1B7819464FF4FA53B3FBF1F3A8
:10194000B2FBF3F3FB601AE0184B1B781A464FF416
:101950007A73B3FBF2F34FF4FA42B2FBF3F3FB609A
:101960000DE0124B1B781A464FF47A73B3FBF2F377
:101970004FF40042B2FBF3F3FB6000E000BFF868F5
:1019800000F0EEFF0346002B01D0012309E0002206
:1019900079684FF0FF3000F0A9FF084A7B681360B8
:1019A000002318461037BD4680BD00BF2800002028
:1019B00010E000E020000020000C0246240000207F
:1019C00080B400AF064B1B781A46064B1B681344C5
:1019D000044A136000BFBD465DF8047B704700BF3A
:1019E000280000202817002080B400AF034B1B689C
:1019F0001846BD465DF8047B704700BF28170020DD
:101A000080B483B000AF786039607B681B6823F4D2
:101A100040023B681A437B681A6000BF0C37BD4622
:101A20005DF8047B704780B483B000AF78607B685A
:101A30001B6803F4400318460C37BD465DF8047B71
:101A4000704780B485B000AFF860B9607A60FB6819
:101A50005A69BB6803F00403072101FA03F3DB436F
:101A60001A40BB6803F00403796801FA03F31A43D0
:101A7000FB685A6100BF1437BD465DF8047B7047B0
:101A800080B483B000AF78607B68DB6803F44063A8
:101A9000002B01D1012300E0002318460C37BD467E
:101AA0005DF8047B704780B485B000AFF860B96022
:101AB0007A60FB689A6ABB6803F01F030F2101FA82
:101AC00003F3DB431A407B689B0E03F00F01BB68F6
:101AD00003F01F0301FA03F31A43FB689A6200BF85
:101AE0001437BD465DF8047B704780B483B000AF07
:101AF000786039607B689A6A3B68C3F311031A43C4
:101B00007B689A6200BF0C37BD465DF8047B704766
:101B100080B483B000AF786039607B689A6A3B68B4
:101B2000C3F31103DB431A407B689A6200BF0C3792
:101B3000BD465DF8047B704780B483B000AF786029
:101B40007B68DB6803F0030318460C37BD465DF87D
:101B5000047B704780B485B000AFF860B9607A60EC
:101B6000FB685A69BB681B02DB431A40BB68190259
:101B70007B680B4023F07C4323F0FF031A43FB6890
:101B80005A6100BF1437BD465DF8047B704780B4CE
:101B900083B000AF78607B689B6823F0104323F02C
:101BA000170343F080527B689A6000BF0C37BD4634
:101BB0005DF8047B704780B483B000AF78607B68C9
:101BC0009B6803F08053B3F1805F01D1012300E0F3
:101BD000002318460C37BD465DF8047B704780B47F
:101BE00083B000AF78607B689B6823F0004323F0EC
:101BF000170343F001027B689A6000BF0C37BD46B3
:101C00005DF8047B704780B483B000AF78607B6878
:101C10009B6803F00103012B01D1012300E00023A5
:101C200018460C37BD465DF8047B704780B483B01E
:101C300000AF78607B689B6823F0004323F01703B4
:101C400043F004027B689A6000BF0C37BD465DF824
:101C5000047B704780B483B000AF78607B689B687A
:101C600003F00403042B01D1012300E000231846F4
:101C70000C37BD465DF8047B704780B483B000AF7D
:101C800078607B681B6803F48053B3F5805F01D1F3
:101C9000012300E0002318460C37BD465DF8047BA5
:101CA000704780B483B000AF78607B684FF4805297
:101CB0001A6000BF0C37BD465DF8047B704700001A
:101CC00080B588B000AF78600023FB770023BB614C
:101CD00000237B617B68002B01D1012390E17B68AD
:101CE0001B69002B7B681B6E002B09D17868FFF7FE
:101CF00011FA7B6800225A667B68002283F85C2018
:101D00007B681B681846FFF756FF0346002B32D14D
:101D10007B681B681846FFF7C4FF7B681B68184682
:101D2000FFF735FFFFF760FE38611CE0FFF75CFE50
:101D300002463B69D31A012B15D97B681B681846EC
:101D4000FFF79BFF0346002B0DD17B681B6E43F012
:101D500010027B681A667B685B6E43F001027B6849
:101D60005A6601234CE17B681B681846FFF785FF24
:101D70000346002BDAD07B681B681846FFF71BFF71
:101D80000346002B0DD17B681B6E43F010027B686D
:101D90001A667B685B6E43F001027B685A6601231A
:101DA000FB777B681B681846FFF754FFF8607B6879
:101DB0001B6E03F01003002B40F01981FB68002B11
:101DC00040F015817B681B6E23F4817343F002029F
:101DD0007B681A667B681B681846FFF714FF03468A
:101DE000002B36D17B681B68DB6823F00C017B6815
:101DF0009A687B681B680A43DA607B685B6D7A6966
:101E000013437B617B6893F84430012B0CD17B68D2
:101E10009A6C7B68DB6C1A437B681B6D1A437B6989
:101E2000134343F001037B617B681B681A69764B9F
:101E300013407A68126879690B431361734B1B680E
:101E400023F470127B685B6803F470136F491343CB
:101E50000B607B681B7E9A037B6893F820305B03E2
:101E600013437A68926B002A02D04FF4805200E04C
:101E700000221A437B68DB681A437B681B69002BCE
:101E800004DA7B681B6923F0004301E04FF4001380
:101E90001A437B6893F834305B001343BA691343E9
:101EA000BB617B6893F82830012B15D17B6893F8D0
:101EB0002030002B04D1BB6943F48033BB610BE0BD
:101EC0007B681B6E43F020027B681A667B685B6E42
:101ED00043F001027B685A667B68DB6A002B09D0FD
:101EE0007B68DB6A03F4E0727B681B6B1343BA699F
:101EF0001343BB617B681B68DA68454B13407A6803
:101F00001268B9690B43D3607B681B681A693E4B42
:101F100013407A68126879690B4313617B681B6808
:101F20005B6C23F003017B685B7E1A467B68DB6990
:101F30001A437B681B680A435A647B6818687B688D
:101F4000DB6B1A460021FFF77CFD7B6818687B6815
:101F50001B6C1A462F49FFF774FD7B681B69002B29
:101F600008D17B681B689A6A7B681B6862F00F0265
:101F70009A6217E07B681B69B3F5001F12D17B687A
:101F80001B689B6A7B685B6A013B9B0003F01C0338
:101F90006FF00F0202FA03F17B689A6E7B681B6890
:101FA0000A439A627B681B68DA681B4B1340BA6964
:101FB0009A420BD17B6800225A667B681B6E23F025
:101FC000030343F001027B681A6618E07B681B6E0E
:101FD00023F0120343F010027B681A667B685B6E85
:101FE00043F001027B685A660123FB7707E07B68B8
:101FF0001B6E43F010027B681A660123FB77FB7FA0
:1020000018462037BD4680BD02FCFFDF081302469C
:102010000D82DEFF04FFFF03F3FF3F8380B584B032
:1020200000AF78607B681B681846FFF713FE034615
:10203000002B5CD17B6893F85C30012B01D102232B
:1020400058E07B68012283F85C20786800F0A6FAEB
:102050000346FB73FB7B002B44D17B681B6E23F490
:10206000706323F0010343F480727B681A667B6817
:1020700000225A667B681B681C221A607B6800225B
:1020800083F85C207B681B685A687B681B6822F0B9
:102090001C025A607B685B69082B08D17B681B684F
:1020A0005A687B681B6842F008025A6008E07B6847
:1020B0001B685A687B681B6842F004025A6000BFC4
:1020C0007B689B6B002B07D17B681B685A687B6819
:1020D0001B6842F010025A607B681B681846FFF7C5
:1020E000A5FD06E07B68002283F85C2001E0022366
:1020F000FB73FB7B18461037BD4680BD80B586B0AC
:1021000000AF786000237B617B681B681B683B61C4
:102110007B681B685B68FB603B6903F00203002B74
:1021200017D0FB6803F00203002B12D07B681B6EF4
:1021300003F01003002B05D17B681B6E43F4006293
:102140007B681A66786800F0C3FA7B681B68022215
:102150001A603B6903F00403002B04D0FB6803F012
:102160000403002B09D13B6903F00803002B52D074
:10217000FB6803F00803002B4DD07B681B6E03F057
:102180001003002B05D17B681B6E43F400727B6843
:102190001A667B681B681846FFF772FC0346002B23
:1021A00032D07B6893F82030002B2DD17B681B68E0
:1021B0001B6803F00803082B26D17B681B681846B0
:1021C000FFF748FD0346002B12D17B681B685A6855
:1021D0007B681B6822F00C025A607B681B6E23F43C
:1021E000807323F0010343F001027B681A660BE061
:1021F0007B681B6E43F020027B681A667B685B6E0F
:1022000043F001027B685A66786800F092F87B68B8
:102210001B680C221A603B6903F08003002B11D06D
:10222000FB6803F08003002B0CD07B681B6E43F42B
:1022300080327B681A66786800F085F87B681B68D6
:1022400080221A603B6903F48073002B12D0FB6874
:1022500003F48073002B0DD07B681B6E43F40032B7
:102260007B681A66786800F01FFA7B681B684FF479
:1022700080721A603B6903F40073002B12D0FB6874
:1022800003F40073002B0DD07B681B6E43F4802297
:102290007B681A66786800F011FA7B681B684FF457
:1022A00000721A603B6903F01003002B2BD0FB680F
:1022B00003F01003002B26D07B689B6B002B02D110
:1022C00001237B6109E07B681B681846FFF734FC3B
:1022D0000346002B01D001237B617B69012B0ED1CA
:1022E0007B681B6E43F480627B681A667B685B6E5A
:1022F00043F002027B685A66786800F02EF87B682B
:102300001B6810221A603B6903F48053002B0CD029
:10231000FB6803F48053002B07D0786800F0E2F9E3
:102320007B681B684FF480521A6000BF1837BD46A7
:1023300080BD80B483B000AF786000BF0C37BD466D
:102340005DF8047B704780B483B000AF786000BF55
:102350000C37BD465DF8047B704780B483B000AF96
:10236000786000BF0C37BD465DF8047B7047000005
:1023700080B588B000AF786039600023FB77002318
:10238000BB607B681B69B3F1004F7B6893F85C30DE
:10239000012B01D10223F0E07B68012283F85C204D
:1023A0007B681B681846FFF755FC0346002B40F07E
:1023B000D7803B685B68022B00F09E807B681B69BE
:1023C000B3F1004F04D07B681B696E4A934208D179
:1023D0007B681A683B681B6819461046FFF785FB47
:1023E00041E07B689A6E3B685B6803F01F030F2136
:1023F00001FA03F3DB431A403B681B68C3F3110384
:10240000002B05D13B681B689B0E03F01F0311E0F6
:102410003B681B683B613B6993FAA3F3FB60FB6875
:102420007B617B69002B01D1202303E07B69B3FA38
:1024300083F3DBB23968496801F01F018B401A430E
:102440007B689A663B685B689B085A1C7B685B6A82
:102450009A4208D87B6818683B6859683B681B68D3
:102460001A46FFF720FB7B6818683B6819683B68D1
:102470009B681A46FFF76EFB3B681B68002B77DAF8
:102480004148FFF7D0FAB8613B681B683F4A934266
:1024900020D1BB6903F40003002B1BD1BB6943F4BB
:1024A000000319463848FFF7ABFA394B1B689B0904
:1024B000384AA2FB03239B095A1C13465B001344B2
:1024C0009B00BB6002E0BB68013BBB60BB68002BAC
:1024D000F9D14DE03B681B682F4A934248D1BB6954
:1024E00003F48003002B43D1BB6943F480031946F6
:1024F0002548FFF785FA3BE07B681B69B3F1004F85
:1025000004D07B681B691F4A934207D17B681A6815
:102510003B681B6819461046FFF7FAFA3B681B68D0
:10252000002B25DA1848FFF77EFAB8613B681B6874
:10253000164A934207D1BB6923F400031946124897
:10254000FFF75EFA14E03B681B68134A93420FD111
:10255000BB6923F4800319460B48FFF751FA07E0E3
:102560007B681B6E43F020027B681A660123FB77B1
:102570007B68002283F85C20FB7F18462037BD462D
:1025800080BD00BF1000008008130246002000B488
:1025900020000020632D3E050100008080B584B03E
:1025A00000AF78600023BB607B681B681846FFF7AC
:1025B0002AFB0346002B69D17B681B689A68364B5F
:1025C0001340002B0DD07B681B6E43F010027B681C
:1025D0001A667B685B6E43F001027B685A660123D2
:1025E00055E07B681B681846FFF7F9FA2B48FFF7A0
:1025F0001AFA034603F40003002B0FD0284B1B6884
:102600009B09284AA2FB03239B090133BB6002E01C
:10261000BB68013BBB60BB68002BF9D17B685B7E6C
:10262000012B33D0FFF7E0F9F86028E07B681B68E6
:102630001846FFF7E8FA0346002B04D17B681B68B5
:102640001846FFF7CCFAFFF7CFF90246FB68D31A1A
:10265000022B14D97B681B681B6803F00103012B54
:102660000DD07B681B6E43F010027B681A667B6896
:102670005B6E43F001027B685A66012307E07B68CA
:102680001B681B6803F00103012BCFD10023184600
:102690001037BD4680BD00BF1700008008130246FA
:1026A00020000020632D3E0580B483B000AF786029
:1026B00000BF0C37BD465DF8047B704780B483B023
:1026C00000AF786000BF0C37BD465DF8047B7047F3
:1026D00080B483B000AF786000BF0C37BD465DF8B2
:1026E000047B704780B483B000AF786000BF0C37C4
:1026F000BD465DF8047B704780B485B000AF78605C
:102700007B6803F00703FB600C4BDB68BB60BA68B7
:102710004FF6FF031340BB60FB681A02BB6813430C
:1027200043F0BF6343F40033BB60044ABB68D3602B
:1027300000BF1437BD465DF8047B704700ED00E034
:1027400080B400AF044BDB681B0A03F00703184694
:10275000BD465DF8047B704700ED00E080B483B0B7
:1027600000AF0346FB7197F90730002B0BDBFB79B9
:1027700003F01F02074997F907305B09012000FAAF
:1027800002F241F8232000BF0C37BD465DF8047B00
:10279000704700BF00E100E080B483B000AF0346A3
:1027A000FB7197F90730002B12DBFB7903F01F0256
:1027B0000A4997F907305B09012000FA02F2203339
:1027C00041F82320BFF34F8F00BFBFF36F8F00BFCF
:1027D00000BF0C37BD465DF8047B704700E100E0A8
:1027E00080B483B000AF0346FB7197F90730002B2C
:1027F0000CDBFB7903F01F02074997F907305B09EF
:10280000012000FA02F2403341F8232000BF0C37C8
:10281000BD465DF8047B704700E100E080B483B002
:1028200000AF03463960FB7197F90730002B0ADBD4
:102830003B68DAB20C4997F907301201D2B20B4467
:1028400083F800230AE03B68DAB20849FB7903F019
:102850000F03043B1201D2B20B441A7600BF0C37AF
:10286000BD465DF8047B704700E100E000ED00E04C
:1028700080B489B000AFF860B9607A60FB6803F09B
:102880000703FB61FB69C3F10703042B28BF042383
:10289000BB61FB690433062B02D9FB69033B00E0F3
:1028A00000237B614FF0FF32BB6902FA03F3DA4386
:1028B000BB681A407B699A404FF0FF317B6901FA8F
:1028C00003F3D9437B680B40134318462437BD46B6
:1028D0005DF8047B704780B582B000AF786078689F
:1028E000FFF70AFF00BF0837BD4680BD80B586B040
:1028F00000AF0346B9607A60FB73FFF721FF034620
:1029000003F007037B617A68B9687869FFF7B0FF65
:10291000024697F90F3011461846FFF77FFF00BFB8
:102920001837BD4680BD80B582B000AF0346FB714D
:1029300097F907301846FFF711FF00BF0837BD466B
:1029400080BD80B582B000AF0346FB7197F90730B8
:102950001846FFF721FF00BF0837BD4680BD0000C5
:1029600080B483B000AF78607B68013BB3F1807FB7
:1029700001D301230DE00A4A7B68013B5360084BF9
:1029800000229A60064B1B68054A43F0030313605C
:10299000002318460C37BD465DF8047B704700BF26
:1029A00010E000E080B582B000AF0346FB7197F9FC
:1029B00007301846FFF714FF00BF0837BD4680BD3B
:1029C00080B483B000AF78607B68042B44D801A248
:1029D00052F823F0F7290008152A0008372A0008C2
:1029E000592A0008E92900081F4B1B681E4A43F0BA
:1029F0000403136031E01C4B1B681B4A23F00403E3
:102A000013601A4BD3F8E030184A23F44003C2F89D
:102A1000E03022E0144B1B68134A23F004031360D8
:102A2000124BD3F8E03023F44003104A43F4800300
:102A3000C2F8E03011E00C4B1B680B4A23F0040392
:102A400013600A4BD3F8E03023F44003074A43F401
:102A50000003C2F8E03000E000BF00BF0C37BD4605
:102A60005DF8047B704700BF10E000E0000C0246F8
:102A700080B582B000AF78607B68002B01D1012364
:102A800054E07B685B7FDBB2002B05D17B680022C2
:102A90001A777868FEF7A2FB7B6802225A777B6878
:102AA0001B79002B0CD17B681B68224A5A617B681A
:102AB0001B689A687B681B6822F018029A600CE019
:102AC0007B6899687B68DB681A46786800F0BCF917
:102AD0000346002B01D0012328E07B685B79002BA3
:102AE00005D17B681B684FF0FF321A6104E07B68F8
:102AF0001B687A6812691A617B681B689B6823F0FF
:102B000060017B685A697B681B680A439A607B682E
:102B10001B689B6823F080017B689A697B681B684F
:102B20000A439A607B6801225A77002318460837C7
:102B3000BD4680BDB71DC10480B582B000AF7860CE
:102B40007B68002B01D1012322E07B685B7FDBB235
:102B5000022B01D102231BE07B6802225A777B689B
:102B60001B689A687B681B6842F001029A607B6868
:102B70001B685B687B681B6800225A607868FEF7F8
:102B80004FFB7B6800225A777B6800221A7700236C
:102B900018460837BD4680BD80B586B000AFF860E6
:102BA000B9607A6000233B61FB6802225A77FB68B8
:102BB0001B6A032B06D0032B29D8012B19D0022B1B
:102BC0001ED024E000237B610AE07B699B00BA6889
:102BD0001A44FB681B6812681A607B6901337B61C9
:102BE0007A697B689A42F0D3FB681B681B683B617B
:102BF0000EE07A68B968F86800F05EF8386107E0BE
:102C00007A68B968F86800F0E5F8386100E000BF5C
:102C1000FB6801225A773B6918461837BD4680BDCC
:102C200080B586B000AFF860B9607A6000233B6180
:102C3000FB6802225A77FB681B689A68FB681B686E
:102C400042F001029A60FB681B6A032B06D0032B3B
:102C500029D8012B19D0022B1ED024E000237B6140
:102C60000AE07B699B00BA681A44FB681B6812681B
:102C70001A607B6901337B617A697B689A42F0D381
:102C8000FB681B681B683B610EE07A68B968F868EE
:102C900000F012F8386107E07A68B968F86800F067
:102CA00099F8386100E000BFFB6801225A773B6960
:102CB00018461837BD4680BD80B489B000AFF860B3
:102CC000B9607A600023FB6123E0FB699B00BA686E
:102CD00013441B781A06FB699B000133B9680B4447
:102CE0001B781B041A43FB699B000233B9680B4431
:102CF0001B781B021A43FB699B000333B9680B4422
:102D00001B781946FB681B680A431A60FB6901338C
:102D1000FB617B689B08FA699A42D6D37B6803F013
:102D20000303002B4DD07B6803F00303012B07D175
:102D3000FB699B00BA681344FA6812681B78137029
:102D40007B6803F00303022B16D1FB699B00BA6872
:102D500013441B781B021AB2FB699B000133B9684C
:102D60000B441B781BB213431BB27B83FB681B68AD
:102D70007B617B697A8B1A807B6803F00303032BEA
:102D80001FD1FB699B00BA6813441B781B021AB25F
:102D9000FB699B000133B9680B441B781BB21343DA
:102DA0001BB27B83FB681B687B617B697A8B1A8013
:102DB000FB699B000233BA681344FA6812681B78F7
:102DC0001370FB681B681B6818462437BD465DF806
:102DD000047B704780B487B000AFF860B9607A6058
:102DE00000237B6113E07B699B00BA6813441B8856
:102DF0001A047B699B000233B9680B441B8819468F
:102E0000FB681B680A431A607B6901337B617B683E
:102E10005B087A699A42E6D37B6803F00103002BD2
:102E200009D0FB681B683B617B699B00BA6813444F
:102E30001A883B691A80FB681B681B6818461C3798
:102E4000BD465DF8047B704780B487B000AFF86082
:102E5000B9607A600023FB751F233B61BB6803F0F8
:102E60000103002B02D10123FB7563E000BF3B6926
:102E70005A1E3A61002B09D03B6903F01F03BA6860
:102E800022FA03F303F00103002BF0D07B68182B28
:102E900046D801A252F823F0272F0008212F00085E
:102EA000212F0008212F0008212F0008212F0008C2
:102EB000212F0008212F0008152F0008212F0008BE
:102EC000212F0008212F0008212F0008212F0008A2
:102ED000212F0008212F0008092F0008212F0008AA
:102EE000212F0008212F0008212F0008212F000882
:102EF000212F0008212F0008FD2E00083B69062B1A
:102F000013D90123FB7510E03B69072B0FD901236F
:102F1000FB750CE03B690F2B0BD90123FB7508E017
:102F20000123FB7506E000BF04E000BF02E000BF24
:102F300000E000BFFB7D002B0DD1FB681B68BA6869
:102F40005A61FB681B689B6823F01801FB681B68CB
:102F50007A680A439A60FB7D18461C37BD465DF8C7
:102F6000047B704780B586B000AFF860B9607A60C6
:102F70001F4B1B78012B01D1022334E01C4B012293
:102F80001A701B4B00225A604FF47A7000F070F8F0
:102F90000346FB75FB7D002B21D1154AFB6893602E
:102FA000144B3B61FB6823F00043012B04D179688B
:102FB000B86800F0A3F803E07968B86800F0DAF8C0
:102FC0004FF47A7000F054F80346FB753B691A68B9
:102FD000FB6823F00043DB431A403B691A60044B53
:102FE00000221A70FB7D18461837BD4680BD00BF11
:102FF0002C1700202820024080B483B000AF0023AB
:10300000FB710B4B9B6A002B0BDA094B094A9A6048
:10301000074B094A9A60064B9B6A002B01DA012391
:10302000FB71FB7918460C37BD465DF8047B704791
:103030000020024023016745AB89EFCD80B483B007
:1030400000AF0123FB71094B9B6A084A43F0004320
:103050009362064B9B6A002B01DA0023FB71FB791C
:1030600018460C37BD465DF8047B704700200240CF
:1030700080B586B000AF7860FEF7B6FC02467B688C
:1030800013447B611B4B3B610BE07B68B3F1FF3F5B
:1030900007D0FEF7A9FC02467B69934201D80323BF
:1030A00023E03B691B6803F44033002BEDD13B69FF
:1030B0001A6842F2FA031340FB60FB68002B0AD047
:1030C0000D4B5A68FB6813430B4A53603B69FA681F
:1030D0001A60012309E03B691B6803F00103002B20
:1030E00002D03B6901221A60002318461837BD46FA
:1030F00080BD00BF202002402C17002080B48BB080
:1031000000AF78603960042387F827307B683B6222
:103110003B68FB61164BBB61BB691B6843F0010256
:10312000BB691A60EFF310833B613B697B6172B648
:1031300000BFFB691A683B6A1A603B6A04333B6252
:10314000FB690433FB6197F82730013B87F8273090
:1031500097F82730002BECD17B69FB60FB6883F389
:10316000108800BF00BF2C37BD465DF8047B704758
:103170002820024080B48BB000AF786039602023F3
:1031800087F827307B683B623B68FB61174BBB616C
:10319000BB691B6843F4804343F00103BA691360C1
:1031A000EFF310833B613B697B6172B600BFFB6943
:1031B0001A683B6A1A603B6A04333B62FB6904335A
:1031C000FB6197F82730013B87F8273097F82730C5
:1031D000002BECD17B69FB60FB6883F3108800BF98
:1031E00000BF2C37BD465DF8047B704728200240A5
:1031F00080B586B000AF78603960314B1B78012B09
:1032000001D1022358E02E4B01221A702C4B0022D0
:103210005A604FF47A70FFF72BFF0346FB75FB7D76
:10322000002B45D17B681B68254A9360254BFB60CA
:103230007B681B6823F00043042B08D100F044F89E
:103240004FF47A70FFF714FF0346FB7522E03B68EA
:103250004FF0FF321A607B685B683B6112E03869AF
:1032600000F048F84FF47A70FFF702FF0346FB7551
:10327000FB7D002B03D03B683A691A600AE03B698A
:1032800001333B617B685A687B689B6813443A69E9
:103290009A42E4D3FB681A687B681B6823F00043FA
:1032A00023F47E7343F47E73DB431A40FB681A6099
:1032B000034B00221A70FB7D18461837BD4680BDAF
:1032C0002C1700202820024080B483B000AF084BA8
:1032D0007B607B681B6843F4803343F004037A68A7
:1032E000136000BF0C37BD465DF8047B704700BF1C
:1032F0002820024080B485B000AF78600B4BFB60A3
:10330000FB681B6823F4813323F4FD737A68D200D1
:10331000134343F4803343F00203FA68136000BFA1
:103320001437BD465DF8047B704700BF282002407B
:1033300080B487B000AF7860396000237B6130E1F2
:103340003B681A6801217B6901FA03F31340FB60B3
:10335000FB68002B00F022813B685B6803F00303ED
:10336000012B05D03B685B6803F00303022B30D1CF
:103370007B689B683B617B695B00032202FA03F375
:10338000DB433A6913403B613B68DA687B695B0069
:1033900002FA03F33A6913433B617B683A699A6026
:1033A0007B685B683B6101227B6902FA03F3DB43C4
:1033B0003A6913403B613B685B681B0903F00102FB
:1033C0007B6902FA03F33A6913433B617B683A690C
:1033D0005A603B685B6803F00303032B17D07B68DC
:1033E000DB683B617B695B00032202FA03F3DB438A
:1033F0003A6913403B613B689A687B695B0002FA5B
:1034000003F33A6913433B617B683A69DA603B68CE
:103410005B6803F00303022B23D17B69DA087B6826
:10342000083253F822303B617B6903F007039B00AD
:103430000F2202FA03F3DB433A6913403B613B6816
:103440001A697B6903F007039B0002FA03F33A69E8
:1034500013433B617B69DA087B680832396943F8BA
:1034600022107B681B683B617B695B00032202FAC8
:1034700003F3DB433A6913403B613B685B6803F04D
:1034800003027B695B0002FA03F33A6913433B6171
:103490007B683A691A603B685B6803F44033002B31
:1034A0007CD0474A7B699B08183352F823303B6134
:1034B0007B6903F00303DB000F2202FA03F3DB4313
:1034C0003A6913403B617B689A0A3E4B13407A6924
:1034D00002F00302D20093403A6913433B6138493A
:1034E0007B699B0818333A6941F82320344B1B68E9
:1034F0003B61FB68DB433A6913403B613B685B68B7
:1035000003F48013002B03D03A69FB6813433B613B
:103510002B4A3B6913602A4B5B683B61FB68DB43CA
:103520003A6913403B613B685B6803F40013002B6E
:1035300003D03A69FB6813433B61214A3B695360FE
:103540001F4BD3F884303B61FB68DB433A6913407F
:103550003B613B685B6803F40033002B03D03A699E
:10356000FB6813433B61164A3B69C2F88430144B35
:10357000D3F880303B61FB68DB433A6913403B6121
:103580003B685B6803F48033002B03D03A69FB6827
:1035900013433B610A4A3B69C2F880307B690133BF
:1035A0007B613B681A687B6922FA03F3002B7FF486
:1035B000C7AE00BF00BF1C37BD465DF8047B704737
:1035C000002002467F7F2F0080B483B000AF786078
:1035D0000B467B8013467B707B78002B03D07A8868
:1035E0007B689A6102E07A887B689A6200BF0C3738
:1035F000BD465DF8047B704780B485B000AF78604D
:103600000023FB730B4B1B6803F00103002B02D05C
:103610000123FB7307E0074B1B6823F004020549F5
:103620007B6813430B60FB7B18461437BD465DF87F
:10363000047B70470004034080B400AF054B1B6857
:10364000044A43F00103136000231846BD465DF8A9
:10365000047B70470004034080B400AF054B9B6AB5
:10366000044A43F00103936200BFBD465DF8047B4A
:10367000704700BF0008024680B487B000AF786092
:103680001B4B9A697B68DBB2DB431A407B681B0AE1
:10369000174913438B61164BDA697B68DBB23B61D8
:1036A0003B6993FAA3F3FB60FB687B617B69002BAA
:1036B00001D1202303E07B69B3FA83F3DBB25B0023
:1036C000032101FA03F3DB431A407B681B0C084912
:1036D0001343CB61064B5A697B68DBB20449134341
:1036E0004B6100BF1C37BD465DF8047B704700BFCF
:1036F0000008024680B582B000AF78607B68002B7E
:1037000001D101230CE07B6802221A717868FDF771
:10371000A3FD7B6800229A607B6801221A71002356
:1037200018460837BD4680BD80B483B000AF7860CE
:1037300039607B681B79DBB2012B0BD17B680222DD
:103740001A717B681B683A681A607B6801221A71DB
:10375000002303E07B6802229A60012318460C379D
:10376000BD465DF8047B704780B483B000AF7860DD
:103770007B681B681B6803F4E02318460C37BD46C2
:103780005DF8047B7047000080B58CB000AF7860B6
:103790007B68002B02D1012300F000BC8F4BDB695A
:1037A00003F00C033B628D4B9B6A03F00303FB6247
:1037B0007B681B6803F00103002B72D03B6A082B67
:1037C00005D03B6A0C2B2AD1FB6A032B27D17B68DF
:1037D0005B68002B01D10123E0E33B6A082B5FD13A
:1037E0007E4B1B6823F488127B689B6813437B4ADB
:1037F00043F480331360794B1B681B0D03F0010306
:10380000774A22FA03F3774A1360774B1B6818460E
:10381000FEF758F80346002B42D00123BEE37B6835
:103820005B68002B1FD06D4B1B6823F488127B68EC
:1038300059687B689B680B43684913430B60FEF72C
:10384000D3F8F86108E0FEF7CFF80246FB69D31A17
:10385000642B01D90323A1E3604B1B6803F40033FD
:10386000002BF0D01DE05D4B1B6823F488127B68B1
:103870005B685A4913430B60FEF7B6F8F86108E03D
:10388000FEF7B2F80246FB69D31A642B01D9032371
:1038900084E3524B1B6803F40033002BF0D100E0AB
:1038A00000BF7B681B6803F00203002B5AD03B6A01
:1038B000002B05D03B6A0C2B13D1FB6A022B10D1D5
:1038C0007B681B69002B01D1012367E3434B1B6914
:1038D00023F4F8127B685B691B04404913430B61B6
:1038E00040E07B681B69002B23D03C4B1B683B4AA4
:1038F00043F480731360FEF777F8F86108E0FEF791
:1039000073F80246FB69D31A022B01D9032345E35E
:10391000324B1B6803F48063002BF0D02F4B1B69E4
:1039200023F4F8127B685B691B042C4913430B6179
:1039300018E02A4B1B68294A23F480731360FEF7B2
:1039400053F8F86108E0FEF74FF80246FB69D31A16
:10395000022B01D9032321E3204B1B6803F480636E
:10396000002BF0D17B681B6803F00803002B00F0EC
:10397000F880002387F82730184BD3F8943003F0F1
:103980000403002B11D1154BD3F89430134A43F0A4
:103990000403C2F89430114BD3F8943003F00403BD
:1039A0003B613B69012387F82730104B9B6A03F08A
:1039B0000103002B22D10D4B9B6A0C4A43F00103FB
:1039C0009362FEF711F8F86112E0FEF70DF8024677
:1039D000FB69D31A022B0BD90323DFE2000C02464A
:1039E0000048E801200000202400002000080246D2
:1039F000A84B9B6A03F00103002BE6D0A64BD3F83B
:103A0000F030BB624FF08063BB61BB6943F0005391
:103A1000BB617B689B69002B79D07B689B6903F055
:103A20008063002B30D07B68DA69BB6A03F0805377
:103A30009A4220D0BB6A03F00063002B1BD0BB6A04
:103A400023F08063BB62944ABB6AC2F8F030FDF792
:103A5000CBFFF86108E0FDF7C7FF0246FB69D31A08
:103A6000142B01D9032399E28B4BD3F8F03003F0E8
:103A70000063002BEFD1BB6A23F08053BB627B68ED
:103A8000DB69BA6A1343BB627B689B69BA6A1343FA
:103A9000BB62814ABB6AC2F8F030FDF7A5FFF8614E
:103AA00008E0FDF7A1FF0246FB69D31A142B01D9E8
:103AB000032373E2784BD3F8F0207B689B695B00AB
:103AC0001340002BEDD07B689B69BA695340BB6102
:103AD000BB69DB43BA6A1340BB626F4ABB6AC2F878
:103AE000F030FDF781FFF86108E0FDF77DFF024649
:103AF000FB69D31A142B01D903234FE2664BD3F889
:103B0000F020BB695B001340002BEED11DE0BB69C8
:103B1000DB43BA6A1340BB625F4ABB6AC2F8F0304B
:103B2000FDF762FFF86108E0FDF75EFF0246FB6902
:103B3000D31A142B01D9032330E2574BD3F8F020CA
:103B4000BB695B001340002BEED197F82730012BA7
:103B500007D1514BD3F894304F4A23F00403C2F8F5
:103B600094307B681B6803F00403002B00F0E280B4
:103B7000002387F82630484BD3F8943003F0040331
:103B8000002B11D1444BD3F89430434A43F0040343
:103B9000C2F89430404BD3F8943003F00403FB6038
:103BA000FB68012387F826303A4B9B6A03F0010338
:103BB000002B18D1374B9B6A364A43F001039362BE
:103BC000FDF712FFF86108E0FDF70EFF0246FB6902
:103BD000D31A022B01D90323E0E12E4B9B6A03F099
:103BE0000103002BF0D07B68DB68002B56D02A4BFA
:103BF000D3F8F03023F08003BB627B68DB68BA6ADD
:103C00001343BB62244ABB6AC2F8F030FDF7ECFEF6
:103C1000F8610AE0FDF7E8FE0246FB69D31A41F2BB
:103C20008832934201D90323B8E11B4BD3F8F0301B
:103C300003F00203002BEDD07B68DB6803F0800308
:103C4000002B1ED00AE0FDF7CFFE0246FB69D31A17
:103C500041F28832934201D903239FE10E4BD3F8FE
:103C6000F03003F40063002BEDD057E0FDF7BCFE0D
:103C70000246FB69D31A41F28832934201D90323E9
:103C80008CE1054BD3F8F03003F40063002BEDD149
:103C900044E000BF00080246000C02468A4BD3F8FD
:103CA000F030894A23F08103C2F8F030864BD3F814
:103CB000F030854A23F00403C2F8F030FDF794FE9B
:103CC000F8610AE0FDF790FE0246FB69D31A41F263
:103CD0008832934201D9032360E17B4BD3F8F03063
:103CE00003F00203002BEDD1774BD3F8F03003F053
:103CF0008003002B12D00AE0FDF776FE0246FB6936
:103D0000D31A41F28832934201D9032346E16E4B24
:103D1000D3F8F03003F40063002BEDD197F8263090
:103D2000012B07D1684BD3F89430674A23F0040382
:103D3000C2F894307B681B6A002B00F02E813B6A2E
:103D40000C2B00F0BA807B681B6A022B40F093803A
:103D50005D4B1B6823F08073BB625B4ABB6A1360D8
:103D6000FDF742FEF861584B1B68BB62FDF73CFE55
:103D70000246FB69D31A022B01D903230EE1BB6A69
:103D800003F00073002BEED17B685B6A032B08D134
:103D9000BB6A1B0D03F001034C4A22FA03F3FB62DA
:103DA00001E04B4BFB627B689B6AFA6AB2FBF3F360
:103DB000FB62FB6A474A934202D90C23FB6201E093
:103DC0000023FB62404B9B6A7B617B6923F4E363C6
:103DD00023F007037B617B685A6AFB6A1A437B689E
:103DE0009B6A013B1B021A437B69134343F4802304
:103DF0007B61354A7B6993627B68DB6A5A1E7B680C
:103E00001B6B013B5B021A437B685B6B013B1B0432
:103E10001A437B689B6B013B1B0613437B612A4A59
:103E20007B6953637B68DB6B002B0AD07B68DB6BA1
:103E3000254ADB009363244B9B6A234A43F010031B
:103E40009362214B1B68204A43F080731360FDF797
:103E5000CBFDF86108E0FDF7C7FD0246FB69D31A08
:103E6000022B01D9032399E0174B1B6803F0007361
:103E7000002BF0D091E0144B1B68134A23F08073A1
:103E80001360FDF7B1FDF86108E0FDF7ADFD0246F6
:103E9000FB69D31A022B01D903237FE00A4B1B686D
:103EA00003F00073002BF0D1074B9B6A064A23F402
:103EB000E02323F0030393626FE07B681B6A012B0E
:103EC0000AD101236AE000BF000C02460048E80165
:103ED0000024F40000127A00324B9B6ABB62314B23
:103EE0005B6B7B61BB6A03F003027B685B6A9A428F
:103EF0002BD1BB6A1B0A03F007027B689B6A013B5C
:103F00009A4222D17B69C3F308027B68DB6A013BDA
:103F10009A421AD17B695B0A03F07F027B681B6BB4
:103F2000013B9A4211D17B691B0C03F07F027B6835
:103F30005B6B013B9A4208D17B691B0E03F07F0249
:103F40007B689B6B013B9A4201D0012326E0154B15
:103F50009B6BDB08C3F30C03BB627B68DB6BBA6A49
:103F60009A421AD00F4B9B6A0E4A23F010039362B9
:103F7000FDF73AFDF86100BFFDF736FD0246FB692B
:103F80009342F9D07B68DB6B064ADB009363054BF9
:103F90009B6A044A43F010039362002318463037AB
:103FA000BD4680BD000C024680B586B000AF78608B
:103FB00039607B68002B01D1012315E18C4B1B6814
:103FC00003F00F033A689A4210D9894B1B6823F01B
:103FD0000F0287493B6813430B60854B1B6803F056
:103FE0000F033A689A4201D00123FDE07B681B6809
:103FF00003F02003002B0DD07E4BD3F8003223F0CA
:1040000017027B6899697B68DB690B437949134325
:10401000C1F800327B681B6803F00103002B6FD0EE
:10402000744B1B687B617B685B68032B18D17B69D1
:1040300003F00073002B01D10123D5E06D4BDB6948
:1040400003F00C027B685B689B009A421AD0694BB4
:104050009B6A23F44013674A43F48013936211E090
:104060007B685B68022B06D17B6903F40033002B6D
:1040700008D10123B8E07B6903F48063002B01D1F0
:104080000123B1E05B4BDB6923F003027B685B68D3
:1040900058491343CB61FDF7A7FCF8600AE0FDF730
:1040A000A3FC0246FB68D31A41F28832934201D93D
:1040B000032399E04F4BDB6903F00C027B685B68DC
:1040C0009B009A42EBD17B685B68032B18D1494B6C
:1040D0009B6A484A23F480139362FDF785FCF860DD
:1040E00008E0FDF781FC0246FB68D31A0A2B01D9D0
:1040F000032379E03F4B9B6A03F48003002BF0D04D
:104100003C4B1B6A7B6100233B617B681B6803F0AF
:104110000203002B0AD07B6923F007037B617B68D5
:104120009B687A6913437B6101233B617B681B6851
:1041300003F00403002B0AD07B6923F070037B613A
:104140007B68DB687A6913437B6101233B617B6891
:104150001B6803F00803002B0BD07B6923F4E0639A
:104160007B617B681B691B017A6913437B610123B7
:104170003B613B69002B02D01E4A7B6913627B685E
:104180001B6803F01003002B03D01A4A7B685B699D
:104190005362174B1B6803F00F033A689A4210D220
:1041A000134B1B6823F00F0211493B6813430B604C
:1041B0000F4B1B6803F00F033A689A4201D00123AA
:1041C00012E000F01FF802460A4B1B6A03F00703D7
:1041D0000949CB5C22FA03F3084A1360084B1B68B9
:1041E0001846FDF76FFB034618461837BD4680BDDD
:1041F00000200240000C02462CFB02082000002098
:104200002400002080B582B000AF104BDB6903F0C2
:104210000C037B607B68002B02D10D4B7B600FE0B1
:104220007B68082B09D1094B1B681B0D03F00103A8
:10423000084A22FA03F37B6002E000F063F878603A
:104240007B6818460837BD4680BD00BF000C02469B
:104250000024F4000048E80180B500AFFFF7D2FF6A
:104260000246074B1B6A03F007030649CB5C22FAA0
:1042700003F3054A1360044B1B68184680BD00BF5A
:10428000000C02462CFB02082000002080B500AF85
:10429000FFF7E2FF0246054B1B6A1B0903F0070309
:1042A0000349CB5C22FA03F3184680BD000C02469A
:1042B00034FB020880B500AFFFF7CEFF0246054B86
:1042C0001B6A1B0A03F007030349CB5C22FA03F3C2
:1042D000184680BD000C024634FB020880B500AFD2
:1042E000FFF7BAFF0246054B5B6A1B0903F00703A1
:1042F0000349CB5C22FA03F3184680BD000C02464A
:1043000034FB020880B582B000AF0B4B5B6B1B0E19
:1043100003F07F0301337B6000F010F8F0EE407A89
:10432000FCEEE77A17EE902A7B68B2FBF3F31846AF
:104330000837BD4680BD00BF000C024680B487B080
:1043400000AF364B5B6BFB60FB68C3F308030133C4
:104350007B617B6907EE903AF8EE677AC7ED027AE7
:104360002E4B9B6AFB60FB681B0A03F007030133BB
:104370007B617B6907EE903AF8EE677AC7ED017AC8
:10438000FB6803F01003002B06D0244B9B6BDB086B
:10439000C3F30C037B6101E000237B617B6907EEC3
:1043A000903AF8EE677AC7ED007AFB6803F00303F2
:1043B000022B02D0032B03D013E0194B3B6114E016
:1043C000164B1B681B0D03F00103164A22FA03F378
:1043D0007B617B6907EE903AF8EE677AC7ED047A65
:1043E00003E04FF000033B6100BFD7ED046AD7ED57
:1043F000017A86EEA77AD7ED007A9FED0B6AC7EEB9
:10440000866AD7ED027A76EEA77A67EE277AB0EE63
:10441000670A1C37BD465DF8047B7047000C0246F6
:104420000024744B0048E8010000004680B588B0C5
:1044300000AF78607B681B6803F00103002B0AD093
:10444000464BD3F8E03023F003027B685B684349B6
:104450001343C1F8E0307B681B6803F00203002BB4
:104460000AD03E4BD3F8E03023F00C027B689B6807
:104470003A491343C1F8E0307B681B6803F004033A
:10448000002B0AD0354BD3F8E03023F440627B6830
:10449000DB6832491343C1F8E0307B681B6803F0E6
:1044A0000803002B0AD02D4BD3F8E03023F4402230
:1044B0007B681B6929491343C1F8E0307B681B689E
:1044C00003F01003002B0AD0244BD3F8E03023F480
:1044D00040127B685B6921491343C1F8E0307B6877
:1044E0001B6803F02003002B0AD01C4BD3F8E030EC
:1044F00023F440027B689B6918491343C1F8E030FC
:104500007B681B6803F04003002B0AD0134BD3F8E1
:10451000E03023F000427B68DB6910491343C1F8A7
:10452000E0307B681B6803F08003002B22D00B4B2C
:10453000D3F8E43023F0E0027B681B6A0749134399
:10454000C1F8E4307B681B6A002B09D1034B9B6ADE
:10455000024A43F4803393620CE000BF000C024631
:104560007B681B6A202B05D1A84B9B6AA74A43F4A2
:10457000003393627B681B6803F48073002B15D0B3
:10458000A24BD3F8E43023F440527B685B6A9F4926
:104590001343C1F8E4307B685B6AB3F5405F05D133
:1045A0009A4B9B6A994A43F4003393627B681B6879
:1045B00003F40013002B0AD0944BD3F8E43023F01B
:1045C00080427B689B6A91491343C1F8E4307B6861
:1045D0001B6803F40073002B0AD08C4BD3F8E8302F
:1045E00023F003027B68DB6A88491343C1F8E83093
:1045F0007B681B6803F48063002B0AD0834BD3F8DD
:10460000E83023F018027B681B6B80491343C1F824
:10461000E8307B681B6803F40063002B0AD07B4BF7
:10462000D3F8E83023F0C0027B685B6B7749134313
:10463000C1F8E8307B681B6803F48053002B0AD074
:10464000724BD3F8E83023F440627B689B6B6F4970
:104650001343C1F8E8307B681B6803F40053002B58
:1046600015D06A4BD3F8E83023F4E0427B68DB6B6B
:1046700066491343C1F8E8307B68DB6BB3F5005F34
:1046800005D1624B9B6A614A43F4803393627B6835
:104690001B6803F48043002B00F096800023FB7717
:1046A0005A4BD3F8F03003F44073BB617B681B6C4A
:1046B000BA699A4200F08880544BD3F8943003F0E2
:1046C0000403002B10D1514BD3F894304F4A43F0E0
:1046D0000403C2F894304D4BD3F8943003F0040334
:1046E000FB60FB680123FB77494B9B6A484A43F018
:1046F00001039362FDF778F9786108E0FDF774F93A
:1047000002467B69D31A022B01D9032379E0404B7F
:104710009B6A03F00103002BF0D03C4BD3F8F03040
:1047200023F440733B61BB69002B17D0374BD3F8A0
:10473000F830BB61354BD3F8F030344A43F4803362
:10474000C2F8F030314BD3F8F030304A23F48033E4
:10475000C2F8F0302D4ABB69C2F8F8307B681A6C99
:104760002A493B691343C1F8F0302A4BBB61BB694E
:1047700043F00053BB61BA693B691340BB61BB693D
:10478000002B16D0FDF730F978610AE0FDF72CF91F
:1047900002467B69D31A41F28832934201D903233E
:1047A0002FE01A4BD3F8F020BB695B001340002BBD
:1047B000ECD0FB7F012B07D1144BD3F89430134A74
:1047C00023F00403C2F894307B681B6803F40043B1
:1047D000002B15D00D4BD3F8F03023F440227B682A
:1047E0005B6C0A491343C1F8F030084BD3F8F03042
:1047F00003F440227B685B6C9A4201D0012300E005
:10480000002318462037BD4680BD00BF000C02467D
:10481000000802460100000480B483B000AF786055
:10482000084BD3F8103223F47C127B681B04054933
:104830001343C1F8103200BF0C37BD465DF8047B4E
:10484000704700BF000C024680B400AF064BD3F89F
:104850000832054A43F00203C2F8083200BFBD46E1
:104860005DF8047B704700BF000C024680B400AFC7
:10487000064BD3F80832054A23F00203C2F8083287
:1048800000BFBD465DF8047B704700BF000C0246C8
:1048900080B584B000AF78607B68002B01D1012324
:1048A0008BE07B685B7ADBB2002B05D17B68002252
:1048B0001A727868FCF7ECFC7B6802225A727B68FB
:1048C0001B681A687B681B6822F004021A607B6808
:1048D0001B681A683B4B13407A68526813437A6826
:1048E000126843F0804343F4005313607B681B68F5
:1048F0001A687B681B6822F080421A60FDF774F822
:10490000F86016E0FDF770F80246FB68D31A0A2B30
:104910000FD97B681B681B6803F08043B3F1804F9D
:1049200007D17B6801225A727B680222DA60012378
:1049300043E07B681B681B6803F08043B3F1804F42
:10494000E0D07B681B681A687B681B6842F0040231
:104950001A607B681B685B6803F04003402B04D13E
:104960007B6804225A72012327E0FDF73DF8F860C6
:1049700015E0FDF739F80246FB68D31A0A2B0ED969
:104980007B681B685B6803F00403042B07D17B681A
:1049900004225A727B680222DA6001230DE07B68F0
:1049A0001B685B6803F00403042BE2D07B680122E0
:1049B0005A727B680022DA60002318461037BD4621
:1049C00080BD00BFDF1FFFBF80B584B000AF78603F
:1049D0000123FB737B68002B71D07B6893F82D302B
:1049E000DBB2002B06D17B68002283F82C2078688C
:1049F000FCF786FC7B68022283F82D20324BDB68B3
:104A000003F01003102B51D02F4BCA225A622E4BA9
:104A100053225A62786800F0CDF90346FB73FB7BA2
:104A2000002B3FD1284B9B69274A23F08E6323F04C
:104A300040039361244B9A697B6859687B681B69C2
:104A400019437B689B690B431F4913438B617B6848
:104A5000DA687B689B681B041B4913430B611A4B84
:104A6000DB6823F4F8527B68596A7B689B6A0B43C6
:104A700015491343CB60786800F0D8F90346FB73FF
:104A8000FB7B002B0ED1104B9B6923F060427B68AF
:104A9000196A7B68DB6919437B685B690B430A49C8
:104AA00013438B61084BFF225A6201E00023FB7322
:104AB000FB7B002B03D17B68012283F82D20FB7B3D
:104AC00018461037BD4680BD0078004690B587B0C7
:104AD00000AFF860B9607A6000237B61FB6893F8EF
:104AE0002C30012B01D10223EAE0FB68012283F87C
:104AF0002C20FB68022283F82D20734BDB6803F423
:104B000040733B613B69B3F5807F5CD07B68002BD1
:104B100036D16D4B9B6903F04003002B02D1BB687B
:104B20000022DA70BB681B78184600F0BDF9034616
:104B30001C04BB685B78184600F0B6F903461B02FC
:104B40001C43BB689B78184600F0AEF9034644EA64
:104B50000302BB68DB789B0542EA0304BB6893F859
:104B60002430184600F0A0F903461B0644EA03026D
:104B7000BB681B6A1A43BB685B6913437B6122E015
:104B8000514B9B6903F04003002B02D1BB6800220C
:104B9000DA70BB681B781A04BB685B781B0213438E
:104BA000BA6892781A43BB68DB789B051A43BB68E6
:104BB00093F824301B061A43BB681B6A1A43BB6870
:104BC0005B6913437B61BB68DB6AB3F5807F37D1D8
:104BD0003D4B9B693C4A23F4885393613A4B012235
:104BE000DA653B69B3F5807F07D1BB689A69BB681A
:104BF000DB69354913434B6406E0334A7B69136430
:104C0000314ABB689B6953642F4ABB685B68136772
:104C1000BB689B6A012B06D12B4B9B692A4A43F048
:104C20000063936105E0284B9B69274A23F00063EA
:104C30009361254B9B69244A43F48853936136E082
:104C4000214B9B69204A23F4085393611E4B022297
:104C5000DA653B69B3F5807F07D1BB689A69BB68A9
:104C6000DB6919491343CB6406E0174A7B699364F7
:104C7000154ABB689B69D364134ABB685B6853677A
:104C8000BB689B6A012B06D10F4B9B690E4A43F010
:104C90008053936105E00C4B9B690B4A23F08053D2
:104CA0009361094B9B69084A43F408539361FB687D
:104CB000012283F82D20FB68002283F82C2000239A
:104CC00018461C37BD4690BD0078004680B483B0BE
:104CD00000AF786039607B6893F82C30012B01D1EC
:104CE00002232DE07B68012283F82C207B680222BE
:104CF00083F82D203B68B3F5807F0CD1134B9B6963
:104D0000124A23F488539361104B5B6C0F4A23F0D3
:104D1000004353640BE00D4B9B690C4A23F408538A
:104D200093610A4BDB6C094A23F00043D3647B6830
:104D3000012283F82D207B68002283F82C20002399
:104D400018460C37BD465DF8047B70470078004676
:104D500080B584B000AF7860154BDB68144A23F04F
:104D60002003D360FCF740FEF86013E0FCF73CFE44
:104D70000246FB68D31AB3F57A7F0BD90C4BDB687C
:104D800003F02003002B0CD17B68032283F82D2035
:104D9000032308E0064BDB6803F02003002BE5D07B
:104DA00000E000BF002318461037BD4680BD00BF9D
:104DB0000078004680B584B000AF78600023FB73B4
:104DC000194BDB6803F04003002B28D1164BDB683E
:104DD000154A43F08003D360FCF706FEB86013E089
:104DE000FCF702FE0246BB68D31AB3F57A7F0BD9F3
:104DF0000D4BDB6803F04003002B0FD10323FB7343
:104E00007B68032283F82D20074BDB6803F0400307
:104E1000002B04D1FB7B032BE2D100E000BFFB7B26
:104E200018461037BD4680BD0078004680B584B076
:104E300000AF78600023FB731A4BDB68194A23F03C
:104E40008003D360174B9B6903F02003002B0CD128
:104E50007868FFF77DFF0346002B1ED07B68032296
:104E600083F82D200323FB7317E00E4B9B690D4A3B
:104E700023F0200393617868FFF76AFF0346002B55
:104E800005D07B68032283F82D200323FB73054B99
:104E90009B69044A43F020039361FB7B184610375B
:104EA000BD4680BD0078004680B485B000AF0346A3
:104EB000FB710023FB60FB79FB7205E0FB680133AB
:104EC000FB60FB7A0A3BFB72FB7A092BF6D8FB6886
:104ED000DBB21B01DAB2FB7A1343DBB2184614379C
:104EE000BD465DF8047B704780B483B000AF786046
:104EF0007B6893F82C30012B01D1022316E07B68EC
:104F0000012283F82C207B68022283F82D200A4B93
:104F10009B69094A43F0200393617B68012283F86F
:104F20002D207B68002283F82C20002318460C37A4
:104F3000BD465DF8047B70470078004680B487B0BA
:104F400000AFF860B9607A60074B7B61BB689B007B
:104F50007A6913447B617B697A681A6000BF1C37E9
:104F6000BD465DF8047B7047007D004680B483B089
:104F700000AF786039603B681A683B685B6810492D
:104F80001343CB613B689A683B68DB681A433B6814
:104F90009B690C4913434B620A4B1B6A03F0FF22C7
:104FA0003B6819693B685B691B040B430549134364
:104FB0000B62002318460C37BD465DF8047B704732
:104FC00000780046007C004680B582B000AF786073
:104FD0007B68002B01D1012349E07B6893F83D30C9
:104FE000DBB2002B06D17B68002283F83C20786876
:104FF000FCF7BEF97B68022283F83D207B681A68C3
:105000007B6804331946104600F04AFC7B68012295
:1050100083F848207B68012283F83E207B680122C8
:1050200083F83F207B68012283F840207B680122BF
:1050300083F841207B68012283F842207B680122AB
:1050400083F843207B68012283F844207B68012297
:1050500083F845207B68012283F846207B68012283
:1050600083F847207B68012283F83D2000231846FF
:105070000837BD4680BD000080B485B000AF7860C1
:105080007B6893F83D30DBB2012B01D001233BE07C
:105090007B68022283F83D207B681B68DA687B68A6
:1050A0001B6842F00102DA607B681B68194A934270
:1050B00009D07B681B68B3F1804F04D07B681B6804
:1050C000154A934215D17B681B689A68134B1340AD
:1050D000FB60FB68062B15D0FB68B3F5803F11D051
:1050E0007B681B681A687B681B6842F001021A60C3
:1050F00008E07B681B681A687B681B6842F0010245
:105100001A6000E000BF002318461437BD465DF862
:10511000047B7047002C01400004004007000100A0
:1051200080B483B000AF78607B681B68DA687B6806
:105130001B6822F00102DA607B681B681A6A41F280
:1051400011131340002B0FD17B681B681A6A44F2BD
:1051500044431340002B07D17B681B681A687B68A7
:105160001B6822F001021A607B68012283F83D204F
:10517000002318460C37BD465DF8047B704780B5A8
:1051800082B000AF78607B68002B01D1012349E039
:105190007B6893F83D30DBB2002B06D17B680022A0
:1051A00083F83C20786800F041F87B68022283F89D
:1051B0003D207B681A687B6804331946104600F06E
:1051C0006FFB7B68012283F848207B68012283F80B
:1051D0003E207B68012283F83F207B68012283F810
:1051E00040207B68012283F841207B68012283F8FC
:1051F00042207B68012283F843207B68012283F8E8
:1052000044207B68012283F845207B68012283F8D3
:1052100046207B68012283F847207B68012283F8BF
:105220003D20002318460837BD4680BD80B483B0BA
:1052300000AF786000BF0C37BD465DF8047B704757
:1052400080B582B000AF786039607B68002B01D1F7
:10525000012341E07B6893F83D30DBB2002B06D19F
:105260007B68002283F83C20786800F039F87B687E
:10527000022283F83D207B681A687B680433194654
:10528000104600F00DFB7B681B681A687B681B6882
:1052900022F008021A607B681B6819687B681B682B
:1052A0003A680A431A607B68012283F848207B68C9
:1052B000012283F83E207B68012283F83F207B682F
:1052C000012283F844207B68012283F845207B6813
:1052D000012283F83D20002318460837BD4680BDD3
:1052E00080B483B000AF786000BF0C37BD465DF876
:1052F000047B704780B584B000AF78607B681B6822
:10530000DB68FB607B681B681B69BB60BB6803F0E4
:105310000203002B20D0FB6803F00203002B1BD0FC
:105320007B681B686FF002021A617B6801221A77A2
:105330007B681B689B6903F00303002B03D078682C
:1053400000F090FA05E0786800F082FA786800F0E2
:1053500093FA7B6800221A77BB6803F00403002BE2
:1053600020D0FB6803F00403002B1BD07B681B6874
:105370006FF004021A617B6802221A777B681B684F
:105380009B6903F44073002B03D0786800F06AFA3D
:1053900005E0786800F05CFA786800F06DFA7B68E8
:1053A00000221A77BB6803F00803002B20D0FB68AB
:1053B00003F00803002B1BD07B681B686FF008020A
:1053C0001A617B6804221A777B681B68DB6903F02B
:1053D0000303002B03D0786800F044FA05E07868F6
:1053E00000F036FA786800F047FA7B6800221A77F6
:1053F000BB6803F01003002B20D0FB6803F0100300
:10540000002B1BD07B681B686FF010021A617B6851
:1054100008221A777B681B68DB6903F44073002B52
:1054200003D0786800F01EFA05E0786800F010FA02
:10543000786800F021FA7B6800221A77BB6803F0D5
:105440000103002B0CD0FB6803F00103002B07D0F5
:105450007B681B686FF001021A61786800F0EEF952
:10546000BB6803F08003002B04D1BB6803F4005336
:10547000002B0CD0FB6803F08003002B07D07B6867
:105480001B686FF402521A61786800F0B1FEBB68C5
:1054900003F48073002B0CD0FB6803F08003002B17
:1054A00007D07B681B686FF480721A61786800F01F
:1054B000A9FEBB6803F04003002B0CD0FB6803F08F
:1054C0004003002B07D07B681B686FF040021A6115
:1054D000786800F0DBF9BB6803F02003002B0CD0E8
:1054E000FB6803F02003002B07D07B681B686FF07C
:1054F00020021A61786800F071FEBB6803F4801323
:10550000002B0CD0FB6803F48013002B07D07B68C2
:105510001B686FF480121A61786800F07DFEBB682A
:1055200003F40013002B0CD0FB6803F40013002BD2
:1055300007D07B681B686FF400121A61786800F06E
:1055400075FEBB6803F48003002B0CD0FB6803F4EA
:105550008003002B07D07B681B686FF480021A6100
:10556000786800F06DFEBB6803F40003002B0CD0DC
:10557000FB6803F40003002B07D07B681B686FF403
:1055800000021A61786800F065FE00BF1037BD4662
:1055900080BD000080B586B000AFF860B9607A6069
:1055A0000023FB75FB6893F83C30012B01D10223EB
:1055B00066E0FB68012283F83C207B68142B57D8F7
:1055C00001A252F823F000BF1D56000871560008D2
:1055D00071560008715600082B56000871560008D5
:1055E00071560008715600083956000871560008B7
:1055F0007156000871560008475600087156000899
:10560000715600087156000855560008715600087A
:10561000715600087156000863560008FB681B6845
:10562000B968184600F0B6F925E0FB681B68B96850
:10563000184600F02BFA1EE0FB681B68B968184694
:1056400000F09EFA17E0FB681B68B968184600F086
:105650000FFB10E0FB681B68B968184600F082FB7E
:1056600009E0FB681B68B968184600F0D3FB02E04C
:105670000123FB7500BFFB68002283F83C20FB7D03
:1056800018461837BD4680BD80B584B000AF78603D
:1056900039600023FB737B6893F83C30012B01D108
:1056A0000223C2E07B68012283F83C207B6802224F
:1056B00083F83D207B681B689B68BB60BB6823F454
:1056C000441323F07703BB60BB6823F47F43BB60C4
:1056D0007B681B68BA689A603B681B68554A9342AE
:1056E00000F08D80534A934200F29280524A9342D6
:1056F00000F08580504A934200F28A80B3F5005F43
:105700003AD0B3F5005F00F28380B3F5805F00F01C
:105710008280B3F5805F7BD8702B16D0702B77D842
:10572000602B4CD0602B73D8502B38D0502B6FD8B7
:10573000402B54D0402B6BD8202B60D0202B67D827
:10574000002B5CD0102B5AD062E07B6818683B6855
:1057500099683B685A683B68DB6800F031FC7B68FD
:105760001B689B68BB60BB6843F07703BB607B68CA
:105770001B68BA689A604FE07B6818683B68996854
:105780003B685A683B68DB6800F01AFC7B681B6862
:105790009A687B681B6842F480429A603CE07B68B0
:1057A00018683B6859683B68DB681A4600F08CFB58
:1057B0007B681B685021184600F0E5FB2CE07B68F5
:1057C00018683B6859683B68DB681A4600F0ABFB19
:1057D0007B681B686021184600F0D5FB1CE07B68E5
:1057E00018683B6859683B68DB681A4600F06CFB38
:1057F0007B681B684021184600F0C5FB0CE07B6805
:105800001A683B681B681946104600F0BCFB03E0B1
:105810000123FB7300E000BF7B68012283F83D2079
:105820007B68002283F83C20FB7B18461037BD467E
:1058300080BD00BF400010003000100080B483B075
:1058400000AF786000BF0C37BD465DF8047B704741
:1058500080B483B000AF786000BF0C37BD465DF800
:10586000047B704780B483B000AF786000BF0C3712
:10587000BD465DF8047B704780B483B000AF7860AC
:1058800000BF0C37BD465DF8047B704780B483B021
:1058900000AF786000BF0C37BD465DF8047B7047F1
:1058A00080B485B000AF786039607B681B68FB60AE
:1058B0007B68344A934207D07B68B3F1804F03D0B2
:1058C0007B68314A934208D1FB6823F07003FB6088
:1058D0003B685B68FA681343FB607B68294A934224
:1058E0000FD07B68B3F1804F0BD07B68264A934280
:1058F00007D07B68254A934203D07B68244A9342B1
:1059000008D1FB6823F44073FB603B68DB68FA68EE
:105910001343FB60FB6823F080023B685B69134321
:10592000FB607B68FA681A603B689A687B68DA6299
:105930003B681A687B689A627B68124A934207D078
:105940007B68124A934203D07B68114A934203D189
:105950003B681A697B681A637B6801225A617B681D
:105960001B6903F00103012B05D17B681B6923F040
:1059700001027B681A6100BF1437BD465DF8047BE5
:10598000704700BF002C014000040040004401406B
:105990000048014080B487B000AF786039607B6810
:1059A0001B6A7B617B681B6A23F001027B681A62B9
:1059B0007B685B683B617B689B69FB60FB6823F4E9
:1059C000803323F07003FB60FB6823F00303FB606C
:1059D0003B681B68FA681343FB607B6923F0020392
:1059E0007B613B689B687A6913437B617B68244ACF
:1059F000934207D07B68234A934203D07B68224AB4
:105A000093420CD17B6923F008037B613B68DB6820
:105A10007A6913437B617B6923F004037B617B68B4
:105A2000174A934207D07B68164A934203D07B689B
:105A3000154A934211D13B6923F480733B613B6962
:105A400023F400733B613B685B693A6913433B6134
:105A50003B689B693A6913433B617B683A695A60CA
:105A60007B68FA689A613B685A687B685A637B680E
:105A70007A691A6200BF1C37BD465DF8047B704727
:105A8000002C0140004401400048014080B487B030
:105A900000AF786039607B681B6A7B617B681B6A3A
:105AA00023F010027B681A627B685B683B617B684D
:105AB0009B69FB60FB6823F0807323F4E043FB6089
:105AC000FB6823F44073FB603B681B681B02FA68A9
:105AD0001343FB607B6923F020037B613B689B6879
