:020000040800F2
:1000000000000220E9510108233A00082B3A0008B9
:10001000333A00083B3A0008433A00080941000817
:100020000000000000000000000000004B3A000843
:10003000593A000800000000673A0008753A0008C5
:100040000941000809410008813A000809410008F7
:100050000941000809410008094100080941000858
:100060000941000809410008094100080941000848
:100070000941000809410008094100080941000838
:100080000941000809410008094100080941000828
:100090000941000809410008094100080941000818
:1000A0000941000809410008913B00080941000886
:1000B00009410008D13B0008094100080941000836
:1000C00009410008094100080941000809410008E8
:1000D00009410008094100080941000809410008D8
:1000E00009410008094100080941000809410008C8
:1000F00009410008094100080941000809410008B8
:1001000009410008053D000809410008193D0008A3
:100110003D3D000809410008094100080941000867
:100120000941000809410008094100080941000887
:1001300009410008B93D00080941000809410008CB
:1001400009410008753D0008893D00080941000883
:10015000AD3D0008094100080941000809410008B7
:1001600010B5054C237833B9044B13B10448AFF3F1
:1001700000800123237010BD300600200000000025
:10018000BC81030808B5034B1BB103490348AFF317
:10019000008008BD0000000034060020BC81030878
:1001A00070B4840746D04C1E002941D0D5B2034616
:1001B00002E0611EE4B30C4603F8015B9907F8D135
:1001C000032C2ED9D5B245EA05250F2C45EA054565
:1001D00019D9264603F11001103E0F2E41F8105C8C
:1001E00041F80C5C41F8085C41F8045C01F1100135
:1001F000F2D8A4F1100121F00F0104F00F04103126
:10020000032C0B440DD91E4621460439032946F818
:10021000045BFAD8211F21F0030104310B4404F0E0
:1002200003042CB1D2B21C4403F8012BA342FBD12E
:1002300070BC70470C460346C2E7034613F8012B17
:10024000002AFBD1181A01387047000081F00041E4
:1002500002E000BF83F0004330B54FEA41044FEAAB
:10026000430594EA050F08BF90EA020F1FBF54EA46
:10027000000C55EA020C7FEA645C7FEA655C00F0E2
:10028000E2804FEA5454D4EB5555B8BF6D420CDDB3
:100290002C4480EA020281EA030382EA000083EA36
:1002A000010180EA020281EA0303362D88BF30BDD6
:1002B00011F0004F4FEA01314FF4801C4CEA11312C
:1002C00002D0404261EB410113F0004F4FEA03338B
:1002D0004CEA133302D0524263EB430394EA050F16
:1002E00000F0A780A4F10104D5F1200E0DDB02FA85
:1002F0000EFC22FA05F2801841F1000103FA0EF219
:10030000801843FA05F359410EE0A5F120050EF1DE
:10031000200E012A03FA0EFC28BF4CF0020C43FA0F
:1003200005F3C01851EBE37101F0004507D54FF01C
:10033000000EDCF1000C7EEB00006EEB0101B1F56C
:10034000801F1BD3B1F5001F0CD349085FEA3000B2
:100350004FEA3C0C04F101044FEA445212F5800FBD
:1003600080F09A80BCF1004F08BF5FEA500C50F15A
:10037000000041EB045141EA050130BD5FEA4C0C3D
:10038000404141EB0101013C28BFB1F5801FE9D29A
:1003900091F0000F04BF01460020B1FA81F308BFBD
:1003A0002033A3F10B03B3F120020CDA0C3208DD89
:1003B00002F1140CC2F10C0201FA0CF021FA02F164
:1003C0000CE002F11402D8BFC2F1200C01FA02F1D4
:1003D00020FA0CFCDCBF41EA0C019040E41AA2BFF9
:1003E00001EB0451294330BD6FEA04041F3C1CDAC1
:1003F0000C340EDC04F11404C4F1200220FA04F0E1
:1004000001FA02F340EA030021FA04F345EA03018A
:1004100030BDC4F10C04C4F1200220FA02F001FA4C
:1004200004F340EA0300294630BD21FA04F02946CE
:1004300030BD94F0000F83F4801306BF81F4801167
:100440000134013D4EE77FEA645C18BF7FEA655CDA
:1004500029D094EA050F08BF90EA020F05D054EAAC
:10046000000C04BF1946104630BD91EA030F1EBFB1
:100470000021002030BD5FEA545C05D140004941B5
:1004800028BF41F0004130BD14F580043CBF01F5A8
:10049000801130BD01F0004545F0FE4141F470018E
:1004A0004FF0000030BD7FEA645C1ABF1946104669
:1004B0007FEA655C1CBF0B46024650EA013406BF6A
:1004C00052EA033591EA030F41F4002130BD00BF29
:1004D00090F0000F04BF0021704730B54FF48064E6
:1004E00004F132044FF000054FF0000150E700BF67
:1004F00090F0000F04BF0021704730B54FF48064C6
:1005000004F1320410F0004548BF40424FF00001B2
:100510003EE700BF42004FEAE2014FEA31014FEAF5
:1005200002701FBF12F07F4393F07F4F81F0605144
:10053000704732F07F4208BF704793F07F4F04BF8F
:1005400041F40021704730B54FF4607401F000456C
:1005500021F000411CE700BF50EA010208BF7047CC
:1005600030B54FF000050AE050EA010208BF7047BD
:1005700030B511F0004502D5404261EB41014FF426
:10058000806404F132045FEA915C3FF4D8AE4FF02E
:1005900003025FEADC0C18BF03325FEADC0C18BF11
:1005A000033202EBDC02C2F1200300FA03FC20FA62
:1005B00002F001FA03FE40EA0E0021FA02F11444AF
:1005C000BDE600BF70B54FF0FF0C4CF4E06C1CEAC8
:1005D00011541DBF1CEA135594EA0C0F95EA0C0F39
:1005E00000F0DEF82C4481EA030621EA4C5123EAAC
:1005F0004C5350EA013518BF52EA033541F48011DB
:1006000043F4801338D0A0FB02CE4FF00005E1FB8D
:1006100002E506F00042E0FB03E54FF00006E1FBD7
:1006200003569CF0000F18BF4EF0010EA4F1FF041A
:10063000B6F5007F64F5407404D25FEA4E0E6D415A
:1006400046EB060642EAC62141EA55514FEAC5206B
:1006500040EA5E504FEACE2EB4F1FD0C88BFBCF5E7
:10066000E06F1ED8BEF1004F08BF5FEA500E50F198
:10067000000041EB045170BD06F0004646EA01015E
:1006800040EA020081EA0301B4EB5C04C2BFD4EB90
:100690000C0541EA045170BD41F480114FF0000E89
:1006A000013C00F3AB8014F1360FDEBF002001F0F7
:1006B000004170BDC4F10004203C35DA0C341BDC71
:1006C00004F11404C4F1200500FA05F320FA04F043
:1006D00001FA05F240EA020001F0004221F0004177
:1006E00010EBD37021FA04F642EB06015EEA430EEA
:1006F00008BF20EAD37070BDC4F10C04C4F120051A
:1007000000FA04F320FA05F001FA04F240EA0200CC
:1007100001F0004110EBD37041F100015EEA430E9D
:1007200008BF20EAD37070BDC4F1200500FA05F2BD
:100730004EEA020E20FA04F301FA05F243EA02033C
:1007400021FA04F001F0004121FA04F220EA02004B
:1007500000EBD3705EEA430E08BF20EAD37070BD91
:1007600094F0000F0FD101F00046400041EB010171
:1007700011F4801F08BF013CF7D041EA060195F053
:10078000000F18BF704703F00046520043EB03030D
:1007900013F4801F08BF013DF7D043EA06037047FA
:1007A00094EA0C0F0CEA135518BF95EA0C0F0CD005
:1007B00050EA410618BF52EA4306D1D181EA03014B
:1007C00001F000414FF0000070BD50EA410606BF45
:1007D0001046194652EA430619D094EA0C0F02D18A
:1007E00050EA013613D195EA0C0F05D152EA0336CF
:1007F0001CBF104619460AD181EA030101F00041ED
:1008000041F0FE4141F470014FF0000070BD41F035
:10081000FE4141F4780170BD70B54FF0FF0C4CF40F
:10082000E06C1CEA11541DBF1CEA135594EA0C0F2E
:1008300095EA0C0F00F0A7F8A4EB050481EA030E7B
:1008400052EA03354FEA013100F088804FEA033362
:100850004FF0805545EA131343EA12634FEA022230
:1008600045EA111545EA10654FEA00260EF00041F1
:100870009D4208BF964244F1FD0404F5407402D243
:100880005B084FEA3202B61A65EB03055B084FEAD4
:1008900032024FF480104FF4002CB6EB020E75EBD1
:1008A000030E22BFB61A754640EA0C005B084FEAF9
:1008B0003202B6EB020E75EB030E22BFB61A754676
:1008C00040EA5C005B084FEA3202B6EB020E75EBC1
:1008D000030E22BFB61A754640EA9C005B084FEA39
:1008E0003202B6EB020E75EB030E22BFB61A754646
:1008F00040EADC0055EA060E18D04FEA051545EA35
:1009000016754FEA06164FEAC30343EA52734FEADD
:10091000C2025FEA1C1CC0D111F4801F0BD141EA56
:1009200000014FF000004FF0004CB6E711F4801FBB
:1009300004BF01430020B4F1FD0C88BFBCF5E06F9B
:100940003FF6AFAEB5EB030C04BFB6EB020C5FEAAB
:10095000500C50F1000041EB045170BD0EF0004E00
:100960004EEA113114EB5C04C2BFD4EB0C0541EA32
:10097000045170BD41F480114FF0000E013C90E62F
:1009800045EA060E8DE60CEA135594EA0C0F08BFF3
:1009900095EA0C0F3FF43BAF94EA0C0F0AD150EAF2
:1009A00001347FF434AF95EA0C0F7FF425AF104685
:1009B00019462CE795EA0C0F06D152EA03353FF4AD
:1009C000FDAE1046194622E750EA410618BF52EA2A
:1009D00043067FF4C5AE50EA41047FF40DAF52EAFE
:1009E00043057FF4EBAE12E74FF0FF3C06E000BF9B
:1009F0004FF0010C02E000BF4FF0010C4DF804CDA8
:100A00004FEA410C7FEA6C5C4FEA430C18BF7FEA67
:100A10006C5C1BD001B050EA410C0CBF52EA430C95
:100A200091EA030F02BF90EA020F0020704710F115
:100A3000000F91EA030F58BF994208BF90422CBFA4
:100A4000D8176FEAE37040F0010070474FEA410C9D
:100A50007FEA6C5C02D150EA013C07D14FEA430CBB
:100A60007FEA6C5CD6D152EA033CD3D05DF8040B2C
:100A7000704700BF8446104662468C46194663465E
:100A800000E000BF01B5FFF7B7FF002848BF10F135
:100A9000000F01BD4DF808EDFFF7F4FF0CBF01207A
:100AA00000205DF808FB00BF4DF808EDFFF7EAFFF6
:100AB00034BF012000205DF808FB00BF4DF808EDB1
:100AC000FFF7E0FF94BF012000205DF808FB00BFA6
:100AD0004DF808EDFFF7CEFF94BF012000205DF830
:100AE00008FB00BF4DF808EDFFF7C4FF34BF01203D
:100AF00000205DF808FB00BF4FEA410C7FEA6C5C08
:100B000002D150EA013C0AD14FEA430C7FEA6C5C07
:100B100002D152EA033C02D14FF0000070474FF07F
:100B2000010070474FEA410212F5001215D211D5AB
:100B30006FF47873B3EB625212D94FEAC12343F0DA
:100B4000004343EA505311F0004F23FA02F018BF5C
:100B5000404270474FF00000704750EA013005D125
:100B600011F0004008BF6FF0004070474FF00000E8
:100B7000704700BF53B94AB9002908BF00281CBFFD
:100B80004FF0FF314FF0FF3000F07EB9ADF1080CAF
:100B90006DE904CE00F006F8DDF804E0DDE902239B
:100BA00004B070472DE9F04F099D0C46002B4DD144
:100BB0008A420F4684469646B2FA82F360D94BB118
:100BC00002FA03FEC3F120029F4000FA03FC20FA60
:100BD00002F217434FEA1E461FFA8EF44FEA1C42F8
:100BE000B7FBF6F106FB117701FB04F042EA07427E
:100BF000904208D91EEB020201F1FF3702D2904267
:100C000000F22D813946121A1FFA8CFCB2FBF6F065
:100C100006FB102200FB04F44CEA024C644508D9A0
:100C20001EEB0C0C00F1FF3202D2644500F21A8177
:100C3000104640EA0140ACEB040C002125B12CFA2F
:100C400003F30022C5E90032BDE8F08F8B4205D9DD
:100C50000DB1C5E9000100210846F5E7B3FA83F1BB
:100C600000294DD1A342C0F0F280904280F0EF8085
:100C7000064623460846002DE6D0C5E90063E3E7B3
:100C8000002B40F0A2808A1A4FEA1E471FFA8EF608
:100C90000121B2FBF7F407FB14204FEA1C4242EAA1
:100CA000004206FB04F090420FD91EEB020204F151
:100CB000FF382CBF4FF001094FF00009904203D9D3
:100CC000B9F1000F00F0C8804446121A1FFA8CFCDC
:100CD000B2FBF7F007FB102200FB06F64CEA024CD1
:100CE000664508D91EEB0C0C00F1FF3202D26645B6
:100CF00000F2BB801046ACEB060C40EA04409DE7D6
:100D0000C1F120068B4004FA01FE22FA06F720FA10
:100D100006FCF4408A401F434EEA0C0300FA01FE31
:100D20004FEA17484FEA13491FFA87FCB4FBF8F063
:100D300008FB104449EA044400FB0CF9A1450ED914
:100D40003C1900F1FF3A2CBF4FF0010B4FF0000BA4
:100D5000A14503D9BBF1000F00F093805046A4EBEE
:100D600009041FFA83F9B4FBF8F308FB134403FBEF
:100D70000CFC49EA0444A44506D93C1903F1FF38A8
:100D800001D2A4457AD8434643EA0040A4EB0C04C0
:100D9000A0FB02984445CC46434602D306D1CE453B
:100DA00004D20138B9EB020C68EB07035DB1BEEB6E
:100DB0000C0264EB030404FA06F622FA01F3CC40B9
:100DC0001E43C5E9006400213EE702FA03FEC3F1B9
:100DD000200104FA03F200FA03FCCC404FEA1E475C
:100DE00020FA01F11FFA8EF6B4FBF7F00A4307FB75
:100DF0001044110C41EA044100FB06F48C420ED968
:100E00001EEB010100F1FF382CBF4FF001094FF03C
:100E100000098C4202D9B9F1000F2CD04046091BC1
:100E200092B2B1FBF7F407FB141142EA014204FB52
:100E300006F1914207D91EEB020204F1FF3801D2FC
:100E4000914215D84446521A44EA004121E7861AD5
:100E500064EB030301200EE7023C724435E70239DC
:100E60007244D0E6F4440238E3E6F444023842E740
:100E7000023C7244E7E702387144D0E7023B3C444D
:100E800082E702383C446AE7704700BF80B584B00F
:100E900000AF03460A46FB711346BB80BB889B002C
:100EA0009AB240F6FC731340FB81FB79002B10D102
:100EB0003C4B1B88BA889A426BD03A4ABB88138055
:100EC000FB8943F07F4343F47F0343F41043FB81EA
:100ED00012E0FB79012B5ED1334B1B88BA889A4212
:100EE0005BD0314ABB881380FB8943F07F4343F4D6
:100EF0007F0343F42043FB81002280212B4806F02E
:100F00003DFB01228021294806F038FB01224FF4E5
:100F10008071264806F032FB00224FF4807123488E
:100F200006F02CFB00228021204806F027FB00233E
:100F3000BB6025E0FA89BB68C3F10F0342FA03F3F3
:100F400003F00103002B06D100224FF48051184812
:100F500006F014FB05E001224FF48051144806F01E
:100F60000DFB01224FF48071104806F007FB0022B0
:100F70004FF480710D4806F001FBBB680133BB6084
:100F8000BB680F2BD6DD01228021084806F0F6FA57
:100F900004E000BF02E000BF00E000BF1037BD4624
:100FA00080BD00BF4C0600204E060020000002421B
:100FB0000004024280B400AF054B1B68044A23F4CE
:100FC0008073136000BFBD465DF8047B704700BFAF
:100FD000000C024680B400AF064BD3F8F430054A4B
:100FE00043F40003C2F8F43000BFBD465DF8047B53
:100FF000704700BF000C024680B485B000AF786037
:101000000A4BD3F8982009497B681343C1F89830FC
:10101000064BD3F898207B681340FB60FB6800BF49
:101020001437BD465DF8047B704700BF000C0246D4
:1010300080B400AF034B01229A6300BFBD465DF848
:10104000047B70470008024680B500AF00F05AF8F4
:1010500000BF80BD80B582B000AF786000200DF089
:1010600077FA00F069F800F079F800F0F1F800F094
:10107000C9F800F0D5F8012101200EF0ABFF0021E6
:1010800002200EF0A7FF002100200EF0A3FF00F0C9
:10109000D3F8164B1B884FF6FF7293420ED0134BBA
:1010A0001B88002B08D0114B1B889B025B0B03F5A0
:1010B0007F533E335B0302E00D4B00E00C4B1846C0
:1010C0000FF0F8FB0346002B01D001F081F90BF083
:1010D0000FF9012102200EF07DFF00200DF043FAF0
:1010E000002318460837BD4680BD00BFA007F90B96
:1010F00000C00F0880B500AF4FF0FF3014F09EF92C
:1011000000BF80BD80B582B000AF00237B603B1D77
:101110001946002012F0D2FF0346002B03D00C200A
:1011200008F0E4FA04E07B689B7B184608F0DEFADE
:1011300000BF0837BD4680BD80B500AFFFF74AFF4E
:1011400014F004FB034807F011F9034B01221A7055
:1011500000BF80BD400000305006002080B588B040
:1011600000AF13F07DFC07F10C0300221A605A60F7
:101170009A60DA601A6103233B6100237B614FF4BC
:101180006043FB601C4BD3F88C301B4A43F00103D7
:10119000C2F88C30184BD3F88C3003F00103BB60DD
:1011A000BB6807F10C031946144805F0DFFF032361
:1011B0003B6100237B611823FB600F4BD3F88C301D
:1011C0000D4A43F00203C2F88C300B4BD3F88C303D
:1011D00003F002037B607B6807F10C0319460848A3
:1011E00005F0C4FF14F056F80121012014F094F822
:1011F00000BF2037BD4680BD000C02460000024201
:101200000004024280B500AF0EF03AF8034A002114
:10121000012014F015FA00BF80BD00BF71F3000873
:1012200080B500AF034A0021402014F009FA00BF46
:1012300080BD00BFFD02010880B500AF034A002158
:10124000202014F0FDF900BF80BD00BF55DD00086F
:1012500080B500AF074811F061FC0346002B01D0B8
:1012600001F0B6F8044A0021102014F0E9F900BF9B
:1012700080BD00BF100000202932010880B500AFFA
:1012800003F026F813F0ACFE14F0A2F803F030F8E7
:1012900000BF80BD80B500AFFFF7CAFE074B1B78CB
:1012A000002B06D014F068F80346022B01D112F08F
:1012B00088FCFFF78FFE00BF80BD00BF50060020F6
:1012C00080B500AF0120FFF797FE0AF07FFE0021F6
:1012D000042014F021F800BF80BD80B500AF0021CC
:1012E000202014F0CFF900BF80BD80B500AF0021F1
:1012F000012014F0C7F900BF80BD000080B483B0A6
:1013000000AF78607B68074A1A607B68064A5A60BB
:101310007B68064A9A6000BF0C37BD465DF8047BC7
:10132000704700BF411300085F1300087B130008DB
:1013300080B500AF0021102014F0A4F900BF80BDDB
:1013400080B582B000AF786039603B689B00194679
:10135000786812F095F800BF0837BD4680BD80B5AB
:1013600082B000AF78607B689B00184611F0BCFF2C
:10137000034618460837BD4680BD80B582B000AF31
:101380007860786812F040F800BF0837BD4680BD2D
:1013900080B500AF0021402014F074F900BF80BD7B
:1013A00080B500AFFFF706FE00BF80BD80B500AF7F
:1013B000FFF700FE00BF80BD80B582B000AF0346DE
:1013C0003960FB711A4B1B78002B03D1194B1B782A
:1013D000002B14D0FB7903F00303002B0FD0164A27
:1013E0003B685363144806F071F90346002B06D19D
:1013F000124AFB79137000210F4806F009FB104BCD
:101400001B78002B0FD0FB7903F00403002B0AD0CC
:101410000C4B01221A70012220210B4806F0AEF875
:101420000A4808F01FFE00BF0837BD4680BD00BF58
:10143000200000202100002048170020A06100208B
:1014400060610020E519002000000242041900201C
:1014500080B400AF1B4B1B6807EE903AF8EEE76ACA
:10146000194B93ED007AC6EE877AFCEEE77A17EE19
:10147000902A164B1A60164B1B6807EE903AF8EE4E
:10148000E76A114B93ED007AC6EE877AFCEEE77AB5
:1014900017EE902A0F4B1A600F4B1B6807EE903A1D
:1014A000F8EEE76A084B93ED007AC6EE877AFCEE19
:1014B000E77A17EE902A094B1A6000BFBD465DF827
:1014C000047B70476C6100208461002078610020FB
:1014D000706100207C610020746100208061002028
:1014E00080B58AB000AF994B1B881A46984B1B8871
:1014F000D31A07EE903AB8EEE77ADFED966AC6EEB9
:10150000877A954BC3ED007A914B1B889BB207EE0F
:10151000903AB8EE677A904BD3ED007A67EE277A6F
:10152000B3EE0E7A77EE677A8C4BC3ED007A8A4B76
:10153000D3ED007A9FED8A7A27EE877AF0EE086A7B
:10154000C7EE267A844BC3ED007A02F0DFFDFFF789
:101550007BFD00F0ABFA00F009FB00F023FE00F089
:10156000DDFB00F01FFB00F0C7FD00F0ADFB00F05D
:101570009BFC00F0ADFC00F0C1FC00F0EFFB00F0C4
:1015800049FC00F0FFFB00F033FD00F00BFD754857
:1015900003F099FF744809F0D7FC0020FFF75AFDCB
:1015A00001F098FAFFF754FF704B1B881946002092
:1015B000FFF76CFC6E4B1B8819460120FFF766FC99
:1015C0006C4B1B78002B1CD06B4B00221A70032233
:1015D0006A49644803F082FA624B9B6D1B685A6942
:1015E000604B9B6D1B6822F400725A615D4B1B6857
:1015F0009B6A5C4B9A6E5B4B1B6862F00F029A62AF
:1016000002E0584803F0DEF95D4B00221A605D4BA2
:1016100000221A605C4B00221A6001210120FFF7B2
:10162000CBFEFFF767FD594B1B7883F00103DBB25C
:10163000002B574B1B685A1C564B1B689A4203D20F
:10164000544B1B68524A1360504B1B78002B00F020
:10165000EC81514B1A684F4B1B689A4280F0E58130
:101660004C4B1B6805334C4A13604C4A3B4692E88E
:10167000030083E803000023FB840023BB840023D2
:101680003B62474B1B78042B00F2A58001A252F865
:1016900023F000BFA9160008A916000819170008B2
:1016A00029170008371700083E4B1B78022B16D06D
:1016B000022B1CDC002B02D0012B08D017E00923E1
:1016C000FB8440F24943BB8400233B710FE01123AC
:1016D000FB8440F61903BB8400233B7107E02223FF
:1016E000FB8441F23303BB8400233B7100BF3723EB
:1016F000FB610CE03B6A5A1C3A622B4A32F8131029
:101700002A4AFB6922F81310FB690133FB61BB8C89
:10171000FA699A42EEDB5EE00323FB8440F26D132C
:10172000BB8400233B7156E00123FB847923BB84F7
:1017300000233B714FE00423FB8440F2E713BB849A
:1017400000233B713723BB613FE000BF4207F90B29
:101750001007F90B0000C842646100206861002096
:10176000333333400C160020501900202A0000208B
:1017700028000020E819002062610020141A0020CF
:101780000C1A0020101A0020201A0020E419002052
:10179000001A0020081A0020FC190020D881030834
:1017A000F91B0020F81B0020F41C0020F84000204A
:1017B0003B6A5A1C3A628B4A32F813108A4ABB6958
:1017C00022F81310BB690133BB61BB6940F23622BA
:1017D0009342EDDD00BFFB8CDBB2FB703B781AB2AD
:1017E0007B781B021BB223F0FF031BB213431BB217
:1017F0009AB27D4B1A80BB781AB2FB781B021BB2DF
:1018000023F0FF031BB213431BB29AB2764B5A80EC
:101810003B791AB27B791B021BB223F0FF031BB288
:1018200013431BB29AB2704B9A80BB791AB2FB7900
:101830001B021BB223F0FF031BB213431BB29AB26D
:10184000694BDA80694B1B689AB2674B5A81674BC8
:101850001B681B0C9AB2644B9A81654B1B689AB249
:10186000614BDA81624B1B681B0C9AB25E4B1A8289
:10187000604B1B689AB25C4B5A825E4B1B681B0C18
:101880009AB2594B9A82594B1B6807EE903AF8EE80
:10189000676A584B1B6807EE903AB8EE677AC6EE57
:1018A000877A554BC3ED007A534B1A884E4BDA8238
:1018B000514B5A884C4B1A83504B1B8807EE903A79
:1018C000B8EE677A4E4BD3ED007A27EE277A4D4B70
:1018D000D3ED007A77EE277A4B4BC3ED007A4B4B72
:1018E0001B8807EE903AF8EEE77A9FED497A27EEEB
:1018F000877ADFED486AC7EE267A474BC3ED007A58
:10190000414B1A88384B5A833F4B5A88364B9A833F
:10191000414B1A88344BDA833F4B5A88324B1A8436
:101920000023FB82BB8C304A002122F813100023D5
:101930003B6200233B614FE0384B1B7883F001038F
:10194000DBB2002B70D10023FB6024E03B6A5A1C01
:101950003A62254A32F813307B817B897B72FB68BF
:101960005A1CFA602E497A7ACA547B7A9AB2FB8A58
:101970001344FB827B891B0A9BB27B72284AFB685B
:1019800013447A7A1A707B7A9AB2FB8A1344FB82E8
:10199000FB680133FB60234B1B881A46FB689342AC
:1019A000D4DBBB8C3A6A9A420BDBFB8ADAB21C4B63
:1019B00083F8F220FB8A1B0A9BB2DAB2184B83F839
:1019C000F32017480BF00EFEFFF794FB282002F0DF
:1019D0005BFC3B6901333B61FB8C3A699A42ABDBB0
:1019E00023E000BFF43C0020F8400020F419002060
:1019F000241A0020F01900209C610020F01C002017
:101A0000646100206861002094610020F21C0020C5
:101A10006666864000007F4598610020E41900203A
:101A2000FC1B00204091002000BF1A4B1A681A4B83
:101A30001B689A4204D2184B1B680133154A136085
:101A4000164B1A68144B1B689A42BFF4EAAD124B4E
:101A50001B680133114A1360114B1B78002B3FF4B4
:101A6000E0AD104B1B7883F00103DBB2002B3FF499
:101A7000D8AD0D4B1B689B6A0B4B9B6E0A4A1268D4
:101A80006FEA03536FEA13539362064B01221A70F5
:101A9000C7E500BFF8190020081A0020041A00202A
:101AA00062610020616100200C16002080B598B0B2
:101AB00000AF07F1200340220021184634F0AAF9B4
:101AC0003B4620220021184634F0A4F9002006F0FD
:101AD0008BFC0346002B01D000F07AFC06F036FCAC
:101AE000214BD3F8F03023F018031F4A43F00803CA
:101AF000C2F8F03007233B624FF480337B624FF42F
:101B00008013BB628123FB624FF480733B6310231D
:101B10007B6300233B6407F12003184606F088FD31
:101B20000346002B01D000F053FC3F233B60002311
:101B30007B600423BB600023FB6000233B61002328
:101B40007B610023BB610023FB613B4600211846FB
:101B500007F07EF90346002B01D000F039FC00BFEE
:101B60006037BD4680BD00BF000C024680B592B014
:101B700000AF3B4648220021184634F04BF94FF4A1
:101B800000433B604FF480237B643B46184607F0DC
:101B9000A1FB0346002B01D000F01AFC00BF483720
:101BA000BD4680BD80B584B000AF3B1D00221A60E9
:101BB0005A609A603E4B3F4A1A603D4B00225A6081
:101BC0003B4B00229A603A4B0022DA60384B4FF4CC
:101BD00000121A61364B04225A61354B00225A76A4
:101BE000334B0022DA61324B00221A76304B00224E
:101BF00083F820202E4B03225A622D4B012283F8BA
:101C000028202B4B4FF4B862DA62294B4FF48062E4
:101C10001A63274B012283F83420254B00225A6592
:101C2000234B4FF480529A63214B0322DA63204BFB
:101C300007221A641E4B002283F844201C4802F03D
:101C400013FD0346002B01D000F0C2FB1A4B7B6052
:101C50000023BB600023FB603B1D1946144803F0C2
:101C60003DF90346002B01D000F0B2FB134B7B6023
:101C70000423BB60124BFB603B1D19460C4803F06C
:101C80002DF90346002B01D000F0A2FB0D4B7B6029
:101C90000823BB603B1D1946054803F01FF90346A6
:101CA000002B01D000F094FB00BF1037BD4680BD73
:101CB0000C16002000100246000200248000001CC8
:101CC00004FFFF03002000B480B500AF114B124A9F
:101CD0001A60104B01221A710E4B00225A710D4BE3
:101CE00041F6B7529A600B4B0822DA60094B00228A
:101CF0005A61084B00229A61064B03221A6205487A
:101D000003F056FE0346002B01D000F061FB00BF3C
:101D100080BD00BF241700200030024080B582B093
:101D200000AF0D4BD3F888300B4A43F00103C2F8E3
:101D30008830094BD3F8883003F001037B607B685F
:101D4000002200211D2003F071FD1D2003F08BFDFA
:101D500000BF0837BD4680BD000C024680B500AF0D
:101D6000002005F083FC0346002B01D000F030FB7F
:101D700005F09CFC0346002B01D000F029FB00BFBE
:101D800080BD000080B582B000AF3B4600221A60E3
:101D90005A601E4B1E4A1A601C4B00225A601B4B95
:101DA0004FF460629A60194B4FF6FF725A61174BFD
:101DB00042F210721A62154B00225A62134B002233
:101DC0009A62124B0022DA62104B00221A630F4B08
:101DD00000225A630D4805F079FC0346002B01D020
:101DE00000F0F6FA4FF47A633B6000237B603B46D9
:101DF00000221946054805F071FF0346002B01D06B
:101E000000F0E6FA00BF0837BD4680BD4817002045
:101E10000044004680B582B000AF3B4600221A6005
:101E20005A601F4B1F4A1A601D4B00225A601C4B00
:101E300000229A601A4B4FF6FF725A61184B40F617
:101E4000EC121A62164B00225A62154B00229A625B
:101E5000134B0022DA62124B00221A63104B00224D
:101E60005A630F4805F032FC0346002B01D000F006
:101E7000AFFA40F2F6433B6000237B603B46012211
:101E80001946074805F02AFF0346002B01D000F051
:101E90009FFA034801F0BAFB00BF0837BD4680BD7A
:101EA000D81700200094004080B500AF064B074AC9
:101EB0001A60054806F072FB0346002B01D000F0C3
:101EC00087FA00BF80BD00BF681800200060024094
:101ED00080B500AF074B084A1A60064B00225A60D3
:101EE000044807F03FFC0346002B01D000F070FAD5
:101EF00000BF80BD7418002000080C4280B588B077
:101F000000AF3B1D00221A605A609A60DA601A61C5
:101F10005A619A61214B224A1A60204B7F229A60B3
:101F20001E4B00221A611D4B00225A611B4B0022DE
:101F30009A611A4B4FF08042DA61184B00221A6204
:101F4000164B4FF480725A62144807F0A3FC034604
:101F5000002B01D000F03CFA00237B6000233B61A2
:101F600000237B610023BB613B1D19460B4807F032
:101F7000F3FF0346002B01D000F02AFA00230422CD
:101F80000021064807F016FF0346002B01D000F0A1
:101F90001FFA00BF2037BD4680BD00BF8818002053
:101FA0000078004680B500AF0F4B104A1A600E4B08
:101FB00000225A600C4B10229A600B4B4FF448627F
:101FC000DA60094B00221A61074B00225A61064B66
:101FD00000229A61044807F0EDFF0346002B01D070
:101FE00000F0F6F900BF80BDB818002000440140A1
:101FF00080B594B000AF07F1340300221A605A6034
:102000009A60DA601A615A619A613B463422002173
:10201000184633F0FFFE364B364A1A60344B0F2217
:102020005A60334B10229A60314B4FF47A72DA6067
:102030002F4B00221A612E4B00225A612C4B80221A
:102040009A612B4807F0B6FF0346002B01D000F041
:10205000BFF9274808F089F80346002B01D000F0AB
:10206000B7F90821224808F0E1F80346002B01D017
:1020700000F0AEF930237B630023BB630023FB63D6
:1020800000233B6400237B640023BB640023FB64C8
:1020900007F1340300221946154808F071FA034687
:1020A000002B01D000F094F900233B6000237B60FB
:1020B0000023BB600023FB6000233B614FF400530F
:1020C0007B610023BB6100233B633B461946084804
:1020D00008F016FE0346002B01D000F079F9044BFE
:1020E0001B686FF001021A6100BF5037BD4680BD0A
:1020F000041900200048014080B500AF274B284A52
:102100001A60264B4FF4E1325A60244B00229A6049
:10211000224B0022DA60214B00221A611F4B082259
:102120005A611E4B00229A611C4B4FF40042DA6147
:102130001A4B00221A62194B00225A62174B3022A6
:102140009A62164B4FF48052DA63144B4FF40052EC
:102150001A64124808F0A0FE0346002B01D000F0DC
:1021600037F900210D4809F0B5FC0346002B01D0DA
:1021700000F02EF90021094809F0EAFC0346002B83
:1021800001D000F025F9054809F069FC0346002B51
:1021900001D000F01DF900BF80BD00BF5019002024
:1021A0000044004080B588B000AF07F10C03002266
:1021B0001A605A609A60DA601A61414BD3F88C3029
:1021C0003F4A43F00203C2F88C303D4BD3F88C30C9
:1021D00003F00203BB60BB68394BD3F88C30384A3C
:1021E00043F00103C2F88C30354BD3F88C3003F048
:1021F00001037B607B68324BD3F88C30304A43F06C
:102200000403C2F88C302E4BD3F88C3003F0040357
:102210003B603B6800224FF498512A4805F0AEF924
:1022200000224FF4F071284805F0A8F94FF48053CC
:10223000FB6001233B6100237B610023BB6107F14D
:102240000C0319461F4804F091FF4FF4F073FB6034
:1022500001233B6100237B610023BB6107F10C0379
:102260001946194804F082FF4FF44073FB601123B4
:102270003B6100237B610023BB6107F10C0319461E
:10228000104804F073FF4FF40043FB604FF48813D1
:102290003B6100237B6107F10C031946094804F0F8
:1022A00065FF0CF06BF9002200211A2003F0BEFA42
:1022B0001A2003F0D8FA00BF2037BD4680BD00BF0A
:1022C000000C0246000402420000024280B582B0C7
:1022D00000AF78607B6893F83830012B22D1134B24
:1022E0001B78002B0CD0124B1B7803F00103002B42
:1022F00006D0104B01221A7001210F4805F0D0FAC8
:102300000E4B1B78002B0DD0094B1B7803F00203FA
:10231000002B07D00A4B01221A70012240210948E4
:1023200005F02CF900BF0837BD4680BD2000002015
:10233000A0610020E6190020D8170020210000200D
:10234000E71900200000024280B582B000AF78603B
:102350000D4B1B78002B06D00B4B00221A7001216D
:102360000A4805F007FB0A4B1B78002B07D0084BE7
:1023700000221A7000224021064805F0FFF800BF35
:102380000837BD4680BD00BFE6190020D8170020E1
:10239000E71900200000024280B582B000AF7860EB
:1023A0000021084805F0E6FB0121074805F0E2FAA4
:1023B00000224021054805F0E1F800BF0837BD467E
:1023C00080BD00BF48170020D8170020000002423F
:1023D00080B400AF72B600BF00BFFDE780B582B029
:1023E00000AF0346FB71FB79002B23D0304B1B78E9
:1023F0005A1CD1B22E4A1170022B04D82D4900204C
:102400000EF0FCFE50E02C4B18464FF4C8731A46F1
:10241000002133F0FFFC2949274833F0B1FC26485E
:10242000FDF70BFF03469AB264232349244808F0C2
:10243000CAFD39E0234B1B884FF6FF7293420BD045
:10244000204B1B88002B05D01E4B1B889A021E4B6D
:10245000134402E01D4B00E01C4B1B681C4A9342D6
:1024600022D0134B1B785A1CD1B2114A1170022B87
:1024700004D8104900200EF0C1FE15E00E4B18469E
:102480004FF4C8731A46002133F0C4FC0B490A48C4
:1024900033F076FC0848FDF7D0FE03469AB2642379
:1024A0000549074808F08FFD00BF0837BD4680BDCD
:1024B000A1610020DD230008281A0020E081030824
:1024C00050190020A007F90B10C0FF0710C00F081B
:1024D00068452301000000002DE9B04FD8B000AFDF
:1024E000002387F85731544951A3D3E90023C1E9A8
:1024F00000234FF000024FF00003C7E956234F4B73
:102500001B78002B06D04FF001024FF00003C7E903
:10251000562305E04FF000024FF00003C7E95623B1
:10252000474B1B78002B06D0D7E9562342F0020414
:102530001D46C7E95645434B1B78002B06D0D7E90B
:10254000562342F004089946C7E956893E4B1B784A
:10255000002B06D0D7E9562342F0080A9B46C7E96C
:1025600056AB3A4B1B78002B09D0D7E9562342F0E3
:10257000100139677B67D7E91C34C7E95634344BFF
:102580001B78002B09D0D7E9562342F02001B96609
:10259000FB66D7E91A34C7E956342E4B1B78002B5B
:1025A00009D0D7E9562342F0400139667B66D7E966
:1025B0001834C7E95634284B1B78002B09D0D7E9CB
:1025C000562342F08001B965FB65D7E91634C7E9A7
:1025D0005634224B1B78002B09D0D7E9562342F4FE
:1025E000807139657B65D7E91434C7E956341C4BD3
:1025F0001B78022B10D0022B35DC002B32D0012BA4
:1026000031D1D7E9562342F40071B964FB64D7E9AC
:102610001234C7E9563426E0D7E9562342F48061E4
:1026200039647B64D7E91034C7E956341BE000BF36
:102630006845230100000000B81B00202000002096
:1026400060610020210000202200002023000020E3
:102650002400002025000020260000202700002064
:10266000F81B002000BFD94B1B78002B09D0D7E9FD
:10267000562342F40061B963FB63D7E90E34C7E91E
:102680005634D34B1B881B03DA17C7F84831C7F8F9
:102690004C21D7E95623D7E95245214611433963E6
:1026A000294619437963D7E90C34C7E95634C94B35
:1026B0001B889BB20022C7F84031C7F84421D7E9F4
:1026C00050120B469B0AC7F83C310B469B05C7F8D6
:1026D0003831D7E95623D7E94E4521461143B9622F
:1026E00029461943F962D7E90A34C7E95634BA4B87
:1026F0001B78DBB20022C7F83031C7F834214FF025
:1027000000004FF00001D7F8303119000020B24B23
:102710005B78DBB20022C7F82831C7F82C214FF0D4
:1027200000024FF00003D7F828412302002240EABC
:102730000204C7F820410B43C7F82431A64B9B780D
:10274000DBB20022C7F81831C7F81C214FF0000295
:102750004FF00003D7F818110B040022D7E94845C1
:1027600021461143C7F8101129461943C7F814111F
:10277000994BDB78DBB20022C7F80831C7F80C218F
:102780004FF000024FF00003D7F808110B060022AB
:10279000D7E9444521461143C7F80011294619439A
:1027A000C7F80411D7E95623D7E94045214611431C
:1027B0003962294619437962D7E90834C7E95634A2
:1027C0008649D7E95623C1E90223854B1B68DA17EE
:1027D000C7F8F830C7F8FC20824B1B68DA17C7F837
:1027E000F030C7F8F4204FF000024FF00003D7F8A4
:1027F000F0100B000022D7E93E4521461143B96194
:1028000029461943F961D7E90634C7E956347349B3
:10281000D7E95623C1E90423734B1B68DA173B61E0
:102820007A61D7E90434C7E956346C49D7E95623AD
:10283000C1E906236D4B1B78DBB20022C7F8E830F4
:10284000C7F8EC20694B5B78DBB20022C7F8E030B8
:10285000C7F8E4204FF000024FF00003D7E93845F5
:1028600029460B02214643EA116321460A02D7E9B1
:102870003A4521461143C7F8D81029461943C7F8ED
:10288000DC105A4B9B78DBB20022C7F8D030C7F877
:10289000D4204FF000024FF00003D7E93445294619
:1028A0000B04214643EA114321460A04D7E9364581
:1028B00021461143C7F8C81029461943C7F8CC1060
:1028C0004A4BDB78DBB20022C7F8C030C7F8C4201F
:1028D000D7E930120B461B0AC7F8BC300B461B0663
:1028E000C7F8B830D7E932452346D7E92E0102466A
:1028F0001343C7F8B0302B460A461343C7F8B43029
:102900003B4B1B78DBB20022C7F8A830C7F8AC20DD
:102910004FF000024FF00003D7F8A8100B00002280
:10292000D7E92C4521461143C7F8A0102946194381
:10293000C7F8A4102E4B5B78DBB20022C7F89830A2
:10294000C7F89C204FF000024FF00003D7F8981012
:102950000B020022D7E9284521461143C7F8901001
:1029600029461943C7F89410214B9B78DBB200220B
:10297000C7F88830C7F88C204FF000024FF00003F2
:10298000D7F888100B040022D7E9244521461143CB
:10299000C7F8801029461943C7F88410144BDB7818
:1029A000DBB20022BB67FA674FF000024FF0000372
:1029B000B96F0B060022D7E9204521461143B960C3
:1029C00029461943F960D7E9023413E0E8190020D9
:1029D000280000202A00002084610020B81B00206D
:1029E0006C6100207061002074610020886100200B
:1029F0008C610020C7E956342F49D7E95623C1E935
:102A000008232E4B1B781A462C4B5B781B021A436B
:102A10002A4B9B781B041A43284BDB781B06134375
:102A2000DA173B607A60D7E90034C7E956342249A7
:102A3000D7E95623C1E90A231F494FF0CC324FF0A2
:102A4000DD33C1E90C231C494FF0EE324FF0FF3368
:102A5000C1E90E231A4B00221A701A4900200EF009
:102A6000CDFB034687F85631174B18464FF4C87311
:102A70001A46002133F0CEF997F85631002B12D0C8
:102A800097F856311A4611490F4833F079F90E4834
:102A9000FDF7D3FB03469AB264230B490C4808F0B8
:102AA00092FA012301E097F85731184607F5B077FD
:102AB000BD46BDE8B08F00BFB81B0020906100206C
:102AC000A1610020DD230008281A0020E881030806
:102AD000501900202DE9F04FADB018AF0023FB6472
:102AE0000023BB643FE0634B1B884FF6FF729342A9
:102AF0000BD0604B1B88002B05D05E4B1B889A02C5
:102B00005D4B134402E05D4B00E05C4BBA6C9200FD
:102B100013443B645A4B18464FF4C8731A460021BD
:102B200033F078F93B6C1B683A6C5649544833F0E3
:102B300027F95348FDF781FB03469AB264235049B5
:102B4000514808F040FAFB6C5A1CFA64022B07DD6E
:102B50000023FB64642302224C494B4808F033FAFB
:102B6000BB6C0133BB64BB6C0F2BBCD9642302224A
:102B70004649454808F027FA3E4B1B884FF6FF723E
:102B800093420BD03B4B1B88002B05D0394B1B8845
:102B90009A02394B134402E0384B00E0374B1B6874
:102BA0003B4A934240F0AB82354B18464FF4C87312
:102BB0001A46002133F02EF93649314833F0E0F857
:102BC0002F48FDF73AFB03469AB264232C492E485E
:102BD00008F0F9F92A4B18464FF4C8731A46002139
:102BE00033F018F9234B1B884FF6FF7293420BD03A
:102BF000204B1B88002B05D01E4B1B889B02264AAE
:102C00001A4402E0254A00E0244A1A4B1B884FF67A
:102C1000FF718B420BD0174B1B88002B05D0154B37
:102C20001B8899021C4B0B4402E01C4B00E01B4B21
:102C30001B681B49124833F0A3F81148FDF7FDFA51
:102C400003469AB264230E490F4808F0BCF9094BB9
:102C50001B884FF6FF72934228D0064B1B88002B2F
:102C600005D0044B1B889A020E4B13441FE00E4BF9
:102C70001DE000BFA007F90B10C0FF0710C00F0830
:102C8000281A00200082030850190020148203082B
:102C900068452301188203081CC0FF071CC00F08E9
:102CA0002C82030818C0FF0718C00F08914B1B683F
:102CB0007B647B6C03F00103002B14BF0123002312
:102CC000DAB28D4B1A707B6C03F00203002B14BF39
:102CD00001230023DAB2894B1A707B6C03F00403E2
:102CE000002B14BF01230023DAB2854B1A707B6CD2
:102CF00003F00803002B14BF01230023DAB2814B39
:102D00001A707B6C03F01003002B14BF0123002307
:102D1000DAB27D4B1A707B6C03F02003002B14BFDA
:102D200001230023DAB2794B1A707B6C03F0400365
:102D3000002B14BF01230023DAB2754B1A707B6C91
:102D400003F08003002B14BF01230023DAB2714B80
:102D50001A707B6C03F48073002B14BF01230023D3
:102D6000DAB26D4B1A707B6C03F40063002B14BF56
:102D700001230023DAB2694B1A707B6C5B0ADBB269
:102D800003F00303DAB2664B1A707B6C1B0B9BB229
:102D9000C3F309039AB2634B1A807B6C9B0D9AB202
:102DA000614B1A80614B1B884FF6FF7293420BD028
:102DB0005E4B1B88002B05D05C4B1B889A025C4B3A
:102DC000134402E05B4B00E05A4B1B687B647B6C56
:102DD000DAB2594B1A707B6C1B0ADAB2564B5A7036
:102DE0007B6C1B0CDAB2544B9A707B6C1B0EDAB204
:102DF000514BDA704D4B1B884FF6FF7293420BD04C
:102E00004A4B1B88002B05D0484B1B889A024B4B22
:102E1000134402E04A4B00E0494B1B681A46494BF9
:102E20001A60424B1B884FF6FF7293420BD03F4B08
:102E30001B88002B05D03D4B1B889A02424B134444
:102E400002E0424B00E0414B1B681A46404B1A60BF
:102E5000364B1B884FF6FF7293420BD0334B1B88C7
:102E6000002B05D0314B1B889A023A4B134402E0E9
:102E7000394B00E0384B1B681A46384B1A602B4B15
:102E80001B884FF6FF7293420BD0284B1B88002BF8
:102E900005D0264B1B889A02314B134402E0314B7C
:102EA00000E0304B1B687B647B6CDAB22E4B1A70EF
:102EB0007B6C1B0ADAB22C4B5A707B6C1B0CDAB29F
:102EC000294B9A707B6C1B0EDAB2274BDA70174BCA
:102ED0001B884FF6FF7293424CD0144B1B88002B7B
:102EE00005D0124B1B889A02204B134443E0204B21
:102EF00041E000BF18C00F082000002060610020E2
:102F000021000020220000202300002024000020B7
:102F1000250000202600002027000020E8190020BE
:102F2000F81B0020280000202A000020A007F90B31
:102F30001CC0FF071CC00F088461002020C0FF07D1
:102F400020C00F086C61002024C0FF0724C00F08B8
:102F50007061002028C0FF0728C00F08746100209E
:102F600030C0FF0730C00F088861002034C0FF0761
:102F700034C00F088E4B1B687B647B6CDAB28D4BC0
:102F80001A707B6C1B0ADAB28A4B5A707B6C1B0C72
:102F9000DAB2884B9A707B6C1B0EDAB2854BDA7012
:102FA000854B1B884FF6FF7293420BD0824B1B88D8
:102FB000002B05D0804B1B889A02804B134402E003
:102FC0007F4B00E07E4B1B687B647B6CDAB27D4BF1
:102FD0001A707B6C1B0ADAB27A4B5A707B6C1B0C32
:102FE000DAB2784B9A707B6C1B0EDAB2754BDA70E2
:102FF000754B18464FF4C8731A46002132F00AFF89
:10300000724B1B78FB63724B1B78BB63714B1B7855
:103010007B63714B1B783B63704B1B78FB62704B7F
:103020001B78BB626F4B1B787B626F4B1B783B62DC
:103030006E4B1B78FB616E4B1B78BB616D4B1B7835
:103040007B616D4B1B883B616C4B1B88FB606C4B41
:103050001B681846FDF75EFA82468B46694B196875
:10306000B960694B18687860684B1E68684B1B68CC
:103070001846FDF74FFA804689464E4B1B681846A6
:10308000FDF748FA04460D464E4B1B681846FDF7FF
:1030900041FA02460B46CDE91623CDE91445CDE9A8
:1030A0001289109678680F90B9680E91CDE90CAB33
:1030B000F9680A913969099179690891B9690791A3
:1030C000F9690691396A0591796A0491B96A03919F
:1030D000F96A0291396B0191796B0091BB6BFA6BC4
:1030E0004C49394832F04CFE3748FDF7A6F8034604
:1030F0009AB264233449484807F065FF52E0324BE6
:1031000018464FF4C8731A46002132F083FE434933
:103110002D4832F035FE2C48FDF78FF803469AB261
:10312000642329493C4807F04EFF284B01221A70BE
:10313000274B00221A70274B01221A70264B0122BE
:103140001A70264B01221A70254B01221A70254B4A
:1031500001221A70244B01221A70244B01221A708A
:10316000244B00221A70244B4FF448721A80234BD0
:103170004FF416721A80234B1E221A60224B3C22F7
:103180001A60224B78221A601D4B254A1A60204B88
:10319000244A1A60074B244A1A600A4B234A1A60D1
:1031A000FFF79AF9002318465437BD46BDE8F08F63
:1031B00034C00F088C610020A007F90B38C0FF074E
:1031C00038C00F0890610020281A0020200000203D
:1031D0006061002021000020220000202300002048
:1031E00024000020250000202600002027000020C9
:1031F000E8190020F81B0020280000202A000020E9
:10320000846100206C6100207061002074610020E6
:103210008861002040820308501900206C83030855
:103220003333333F6F12833ACDCC8C3FCDCC0C403F
:1032300080B582B000AF194BD3F89430174A43F0F1
:103240000403C2F89430154BD3F8943003F0040310
:103250007B607B68114BD3F88C30104A43F48013A9
:10326000C2F88C300D4BD3F88C3003F480133B60E4
:103270003B6800220521422002F0D8FA422002F0E9
:10328000F2FA00220021442002F0D0FA442002F099
:10329000EAFA00BF0837BD4680BD00BF000C0246F9
:1032A00080B5B2B000AF786007F1B40300221A60B5
:1032B0005A609A60DA601A6107F11403482200210B
:1032C000184632F0A7FD7B681B68634A934240F0C2
:1032D000BE804FF400537B614FF480433B6507F1A0
:1032E0001403184605F0F6FF0346002B01D0FFF744
:1032F0006FF85A4BD3F89430584A43F02003C2F881
:103300009430564BD3F8943003F020033B613B6973
:10331000524BD3F88C30514A43F00103C2F88C3041
:103320004E4BD3F88C3003F00103FB60FB680523A0
:10333000C7F8B4300323C7F8B8300023C7F8BC304F
:1033400007F1B4031946464803F010FF2123FB653B
:1033500000233B6600237B660023BB660023FB66DD
:103360004FF400233B6701237B674FF48033BB6737
:103370000123C7F880300123C7F884300023C7F841
:1033800088300023C7F88C300023C7F89030002322
:10339000C7F8A0300023C7F894300023C7F898304E
:1033A00007F15C032F49184603F044F90346002B4C
:1033B00001D0FFF70DF82B4A00212B4803F050F9FC
:1033C0000346002B01D0FFF703F8274803F011FA5A
:1033D0000346002B01D0FEF7FBFF244B244A1A6062
:1033E000224B00229A63214B0022DA631F4B0022FA
:1033F0001A641E4B00225A641C4B81229A641B489B
:1034000003F006F80346002B01D0FEF7E1FF164952
:10341000164803F04EFA0346002B01D0FEF7D8FF02
:103420007B68124A9A65114A7B68D36510210F4860
:1034300002F08CFF0346002B01D0FEF7C9FF0022EB
:103440000021412002F0F2F9412002F00CFA00BF05
:10345000C837BD4680BD00BF00100246000C0246C2
:10346000000002427816002094160020AC160020BE
:103470005000024080B582B000AF78607B681B6866
:103480000D4A934213D10D4BD3F894300B4A23F0DD
:103490002003C2F894300521094803F0B3FF7B688C
:1034A0009B6D184602F0FCFC412002F0EAF900BFD7
:1034B0000837BD4680BD00BF00100246000C024622
:1034C0000000024280B485B000AF78607B681B6862
:1034D0000B4A93420ED10B4BD3F88830094A43F480
:1034E0008053C2F88830074BD3F8883003F48053F8
:1034F000FB60FB6800BF1437BD465DF8047B704776
:1035000000300240000C024680B483B000AF786007
:103510007B681B68084A934207D1084BD3F8883070
:10352000064A23F48053C2F8883000BF0C37BD46EA
:103530005DF8047B704700BF00300240000C02467B
:1035400080B596B000AF786007F1100348220021E3
:10355000184632F05FFC7B681B68294A934227D1EA
:103560004FF480533B614FF40063BB6407F11003D9
:10357000184605F0AFFE0346002B01D0FEF728FFEA
:10358000204BD3F8A8301F4A43F40063C2F8A83098
:103590001C4BD3F8A83003F40063FB60FB680022E7
:1035A0000021312002F042F9312002F05CF922E0E2
:1035B0007B681B68144A93421DD108233B614FF47A
:1035C00000233B6207F11003184605F083FE034613
:1035D000002B01D0FEF7FCFE0A4BD3F8A030094ABD
:1035E00043F02003C2F8A030064BD3F8A03003F01C
:1035F0002003BB60BB6800BF5837BD4680BD00BF1D
:1036000000440046000C02460094004080B588B09B
:1036100000AF786007F10C0300221A605A609A60CC
:10362000DA601A617B681B68124A93421ED1124B02
:10363000D3F88C30104A43F00103C2F88C300E4BA3
:10364000D3F88C3003F00103BB60BB680223FB603E
:1036500002233B6100237B610023BB610D23FB61DF
:1036600007F10C031946054803F080FD00BF203721
:10367000BD4680BD00940040000C0246000002429E
:1036800080B485B000AF78600A4BD3F88830094A1F
:1036900043F40033C2F88830064BD3F8883003F483
:1036A0000033FB60FB6800BF1437BD465DF8047B48
:1036B000704700BF000C024680B596B000AF78603E
:1036C00007F1100348220021184632F0A3FB7B6863
:1036D0001B68134A93421ED14FF480733B614FF431
:1036E00000537B6307F11003184605F0F3FD034612
:1036F000002B01D0FEF76CFE0A4BD3F88C30094A40
:1037000043F48023C2F88C30064BD3F88C3003F49A
:103710008023FB60FB6800BF5837BD4680BD00BFFB
:1037200000080C42000C024680B596B000AF7860ED
:1037300007F1100348220021184632F06BFB7B682A
:103740001B68174A934226D14FF480433B614FF4E4
:1037500080733B6507F11003184605F0BBFD034677
:10376000002B01D0FEF734FE0E4BD3F8A8300D4AE3
:1037700043F40013C2F8A8300A4BD3F8A83003F47E
:103780000013FB60FB6800220021022002F04EF8CB
:10379000022002F068F800BF5837BD4680BD00BF68
:1037A00000780046000C024680B584B000AF786017
:1037B0007B681B681D4A934217D11D4BD3F8A43078
:1037C0001B4A43F40033C2F8A430194BD3F8A43099
:1037D00003F40033FB60FB6800220021332002F079
:1037E00025F8332002F03FF81BE07B681B68114A84
:1037F000934216D10E4BD3F8A4300D4A43F48023E4
:10380000C2F8A4300A4BD3F8A43003F48023BB6081
:10381000BB6800220021342002F008F8342002F0B6
:1038200022F800BF1037BD4680BD00BF00440140F4
:10383000000C02460048014080B59CB000AF7860A3
:1038400007F15C0300221A605A609A60DA601A611C
:1038500007F1140348220021184632F0DBFA7B6896
:103860001B68224A93423CD102237B610823FB61FF
:1038700007F11403184605F02DFD0346002B01D077
:10388000FEF7A6FD1A4BD3F89C30194A43F40033D7
:10389000C2F89C30164BD3F89C3003F400333B61E4
:1038A0003B69134BD3F88C30114A43F00103C2F843
:1038B0008C300F4BD3F88C3003F00103FB60FB68B6
:1038C0004FF48053FB6512233B6600237B66002385
:1038D000BB660323FB6607F15C031946054803F04A
:1038E00045FC00BF7037BD4680BD00BF00440040AE
:1038F000000C02460000024280B582B000AF786042
:103900007B681B68094A93420CD1094BD3F89C3061
:10391000074A23F40033C2F89C304FF48051054825
:1039200003F070FD00BF0837BD4680BD0044004075
:10393000000C02460000024280B483B000AF034690
:10394000FB7197F90730002B0BDBFB7903F01F02AB
:10395000074997F907305B09012000FA02F241F8A4
:10396000232000BF0C37BD465DF8047B704700BFC5
:1039700000E100E080B483B000AF0346FB7197F92B
:103980000730002B12DBFB7903F01F020A4997F97D
:1039900007305B09012000FA02F2203341F82320AE
:1039A000BFF34F8F00BFBFF36F8F00BF00BF0C3757
:1039B000BD465DF8047B704700E100E080B400AFD5
:1039C000064BD3F80832054A23F48033C2F8083294
:1039D00000BFBD465DF8047B704700BF000C024687
:1039E00080B483B000AF78607B686FF001021A6129
:1039F00000BF0C37BD465DF8047B704780B483B0D0
:103A000000AF78607B681B6903F00103012B01D1D3
:103A1000012300E0002318460C37BD465DF8047B07
:103A2000704780B400AF00BFFDE780B400AF00BFB7
:103A3000FDE780B400AF00BFFDE780B400AF00BF7A
:103A4000FDE780B400AF00BFFDE780B400AF00BF6A
:103A5000BD465DF8047B704780B400AF00BFBD4633
:103A60005DF8047B704780B400AF00BFBD465DF8D1
:103A7000047B704780B500AF00F0E6FB00BF80BD5F
:103A800080B500AF314806F001FA314B1B680133B5
:103A90002F4A13602F4B1B685A1C2E490A602E4A6E
:103AA00013602E4B1B682E4A13602E4B1B682E4A48
:103AB00013602E4B1B68B3F5007F02DB2B4B0022FB
:103AC0001A60284B1868294B1B685A1C27490A6042
:103AD00081B2274A22F81310224B00221A60254B8C
:103AE00000221A60244B1B68002B08DD1E4B1A684D
:103AF000224B1B689A4202D91E4B01221A60204BAE
:103B00001B68002B08DD184B1A681E4B1B689A4275
:103B100002D9184B02221A601B4B1B68002B08DDD0
:103B2000114B1A68194B1B689A4202D9114B032298
:103B30001A60104B1B68002B06D00E4B1B68013B14
:103B400019460320FDF738FC00BF80BD881800200F
:103B5000081A0020201A0020F01900200C1A00205A
:103B6000F4190020101A0020241A0020F44000202C
:103B7000F43C0020EC1900206C61002078610020EA
:103B8000706100207C610020746100208061002051
:103B900080B500AF4FF4004003F008FD094B1B68EF
:103BA0000133084A1360084B1B680133064A13604F
:103BB000064B1B78002B03D000210420FDF7FCFBF3
:103BC00000BF80BD0C1A0020101A00206061002088
:103BD00080B500AF434802F058FA434B1B78022BE4
:103BE0003ED0022B5BDC002B02D0012B1CD056E018
:103BF0003E4B1B689B08C3F3090337333C4A32F83A
:103C000013304FF6FF72934244D0384B1B689B0829
:103C1000C3F309033733364A32F81320013291B225
:103C2000334A22F8131035E0304B1B685B08C3F3AE
:103C30000A0337332E4A32F813304FF6FF7293429D
:103C40002AD02A4B1B685B08C3F30A033733284A80
:103C500032F81320013291B2254A22F813101BE0EA
:103C6000224B1B68C3F30B033733214A32F813305E
:103C70004FF6FF72934211D01C4B1B68C3F30B032A
:103C800037331B4A32F81320013291B2184A22F816
:103C9000131003E000BF02E000BF00E000BF154BBF
:103CA0001B78002B1CD0134B00221A70124B1B6880
:103CB0009B6A114B9A6E104B1B6862F00F029A625E
:103CC0000A4B9B689BB2C3F30B039AB20B4B1A804F
:103CD000064B5B689BB2C3F30B039AB2084B1A8086
:103CE00000BF80BDAC160020F81B0020141A002075
:103CF000F41C0020616100200C160020F21C002042
:103D0000F01C002080B500AF024804F01AF800BF94
:103D100080BD00BF4817002080B500AF0648FFF700
:103D20006DFE0346012B04D10348FFF759FE11F045
:103D30006BF900BF80BD00BF0044014080B500AFFB
:103D4000094806F0CDFA094B1B78002B07D0074B2A
:103D500000221A7000222021054803F00FFC0248BF
:103D600006F0D4F900BF80BD04190020E519002039
:103D70000000024280B500AF024800F06BFF00BFB8
:103D800080BD00BF0C16002080B500AF064B1B683D
:103D9000002B02D0044B1B689847FFF70FFEBFF3C0
:103DA0006F8F00BF00BF80BDB092002080B500AF14
:103DB00003F038FC00BF80BD80B500AF3D20FFF7A9
:103DC000D9FD0C4B1B68002B02D00A4B1B6898478F
:103DD000094B1B78DBB2002B07D0002205213D20C8
:103DE00001F024FD044B00221A703D20FFF7A4FDD2
:103DF00000BF80BDB4920020D092002080B400AFFC
:103E000001231846BD465DF8047B704780B582B03B
:103E100000AF7860396032F009F8034616221A6064
:103E20004FF0FF3318460837BD4680BD80B582B0DD
:103E300000AF78604FF0FF317868FFF7E7FF00BF11
:103E4000FDE780B586B000AFF860B9607A60002306
:103E50007B610AE0AFF300800146BB685A1CBA6080
:103E6000CAB21A707B6901337B617A697B689A42B6
:103E7000F0DB7B6818461837BD4680BD80B586B03C
:103E800000AFF860B9607A6000237B6109E0BB682D
:103E90005A1CBA601B781846AFF300807B69013367
:103EA0007B617A697B689A42F1DB7B681846183738
:103EB000BD4680BD80B483B000AF78604FF0FF3363
:103EC00018460C37BD465DF8047B704780B483B05C
:103ED00000AF786039603B684FF400525A600023AD
:103EE00018460C37BD465DF8047B704780B483B03C
:103EF00000AF7860012318460C37BD465DF8047B9F
:103F0000704780B485B000AFF860B9607A60002374
:103F100018461437BD465DF8047B704780B586B0FF
:103F200000AF7860144A154BD31A7B617B693B6103
:103F3000134B1B68002B02D1114B124A1A60104B15
:103F40001A687B6813443A699A4207D231F06EFFCF
:103F500003460C221A604FF0FF3309E0084B1B6840
:103F6000FB60074B1A687B681344054A1360FB68C3
:103F700018461837BD4680BD00000220000400002E
:103F8000A4610020F8CD002080B400AF064BD3F828
:103F90008830054A43F47003C2F8883000BFBD463C
:103FA0005DF8047B704700BF00ED00E080B489B08D
:103FB00000AF4F4BDB6903F00C03082B02D00C2B36
:103FC0000BD07DE04A4B1B681B0D03F00103494AEF
:103FD00022FA03F3484A136076E0454B9B6AFB6183
:103FE000434B5B6B7B61FB691B0A03F007030133E7
:103FF0003B617B69C3F308030133FB607B691B0EE4
:1040000003F07F030133BB60FB6903F01003002B57
:104010000BD0374B9B6BDB08C3F30C0307EE903AD6
:10402000F8EE677AC7ED067A02E04FF00003BB6155
:10403000FB6903F003037B607B68022B03D07B6882
:10404000032B03D00CE02D4BFB610CE0284B1B68CD
:104050001B0D03F00103274A22FA03F3FB6102E080
:104060000023FB6100BFFB6907EE903AF8EE676A38
:104070003B6907EE903AF8EE677A86EEA77AFB681E
:1040800007EE903AF8EE676A97ED066ADFED1C5A84
:10409000C6EE257A76EEA77A67EE277AC7ED007A24
:1040A000BB6807EE903AB8EE677AD7ED006AC6EEC5
:1040B000877AFCEEE77A17EE902A0F4B1A6003E03E
:1040C0000D4B0E4A1A6000BF094B1B6A03F0070331
:1040D0000C4AD35CFB61084B1A68FB6922FA03F3B4
:1040E000054A136000BF2437BD465DF8047B704766
:1040F000000C02460048E8012C0000200024F400D7
:104100000000004684830308FEE7000080B500AF8E
:104110000D4B1B680C4A43F480731360032001F0BD
:104120007AFBFFF743FF042001F0EAFB0F2000F0C9
:104130000DF80346002B01D0012302E0FFF778F8C9
:104140000023184680BD00BF0020024080B584B027
:1041500000AF78600023FB60364B1B78002B01D149
:10416000012362E0344B1B6803F00403042B0CD1E1
:10417000324B1A682F4B1B7819464FF47A73B3FBF6
:10418000F1F3B2FBF3F3FB603DE02D4BD3F8E030ED
:1041900003F44003BB60BB68B3F5000F25D0BB68D8
:1041A000B3F5000F2ED8BB68002B04D0BB68B3F565
:1041B000800F0DD026E0214B1A681E4B1B78194644
:1041C0004FF4FA53B3FBF1F3B2FBF3F3FB601AE0E5
:1041D000184B1B781A464FF47A73B3FBF2F34FF483
:1041E000FA42B2FBF3F3FB600DE0124B1B781A4668
:1041F0004FF47A73B3FBF2F34FF40042B2FBF3F3E4
:10420000FB6000E000BFF86801F04AFB0346002BAA
:1042100001D0012309E0002279684FF0FF3001F05E
:1042200005FB084A7B681360002318461037BD461B
:1042300080BD00BF3400002010E000E02C00002012
:10424000000C02463000002080B400AF064B1B7803
:104250001A46064B1B681344044A136000BFBD4650
:104260005DF8047B704700BF34000020A861002087
:1042700080B400AF034B1B681846BD465DF8047B55
:10428000704700BFA861002080B584B000AF78609F
:10429000FFF7EEFFB8607B68FB60FB68B3F1FF3FA0
:1042A00005D00A4B1B781A46FB681344FB6000BF1D
:1042B000FFF7DEFF0246BB68D31AFA689A42F7D8C6
:1042C00000BF00BF1037BD4680BD00BF34000020D6
:1042D00080B400AF054B1B68044A23F0020313604F
:1042E00000BFBD465DF8047B704700BF10E000E0F2
:1042F00080B400AF054B1B68044A43F0020313600F
:1043000000BFBD465DF8047B704700BF10E000E0D1
:1043100080B483B000AF786039607B681B6823F499
:1043200040023B681A437B681A6000BF0C37BD46E9
:104330005DF8047B704780B483B000AF78607B6821
:104340001B6803F4400318460C37BD465DF8047B38
:10435000704780B485B000AFF860B9607A60FB68E0
:104360005A69BB6803F00403072101FA03F3DB4336
:104370001A40BB6803F00403796801FA03F31A4397
:10438000FB685A6100BF1437BD465DF8047B704777
:1043900080B483B000AF78607B68DB6803F440636F
:1043A000002B01D1012300E0002318460C37BD4645
:1043B0005DF8047B704780B485B000AFF860B960E9
:1043C0007A60FB689A6ABB6803F01F030F2101FA49
:1043D00003F3DB431A407B689B0E03F00F01BB68BD
:1043E00003F01F0301FA03F31A43FB689A6200BF4C
:1043F0001437BD465DF8047B704780B483B000AFCE
:10440000786039607B689A6A3B68C3F311031A438A
:104410007B689A6200BF0C37BD465DF8047B70472D
:1044200080B483B000AF786039607B689A6A3B687B
:10443000C3F31103DB431A407B689A6200BF0C3759
:10444000BD465DF8047B704780B483B000AF7860F0
:104450007B68DB6803F0030318460C37BD465DF844
:10446000047B704780B485B000AFF860B9607A60B3
:10447000FB685A69BB681B02DB431A40BB68190220
:104480007B680B4023F07C4323F0FF031A43FB6857
:104490005A6100BF1437BD465DF8047B704780B495
:1044A00083B000AF78607B689B6823F0104323F0F3
:1044B000170343F080527B689A6000BF0C37BD46FB
:1044C0005DF8047B704780B483B000AF78607B6890
:1044D0009B6823F0104323F017037A68936000BFB2
:1044E0000C37BD465DF8047B704780B483B000AFE5
:1044F00078607B689B6803F08053B3F1805F01D1E3
:10450000012300E0002318460C37BD465DF8047B0C
:10451000704780B483B000AF78607B689B6823F0FD
:10452000004323F0170343F001027B689A6000BF49
:104530000C37BD465DF8047B704780B483B000AF94
:1045400078607B689B6823F0004323F0170343F0F7
:1045500002027B689A6000BF0C37BD465DF8047BA1
:10456000704780B483B000AF78607B689B6803F0CD
:104570000103012B01D1012300E0002318460C3771
:10458000BD465DF8047B704780B483B000AF7860AF
:104590007B689B6803F00203022B01D1012300E03A
:1045A000002318460C37BD465DF8047B704780B485
:1045B00083B000AF78607B689B6823F0004323F0F2
:1045C000170343F004027B689A6000BF0C37BD46B6
:1045D0005DF8047B704780B483B000AF78607B687F
:1045E0009B6823F0004323F0170343F010027B681D
:1045F0009A6000BF0C37BD465DF8047B704780B4FD
:1046000083B000AF78607B689B6803F00403042BE1
:1046100001D1012300E0002318460C37BD465DF8A8
:10462000047B704780B483B000AF78607B681B6800
:1046300003F48053B3F5805F01D1012300E0002330
:1046400018460C37BD465DF8047B704780B483B0D4
:1046500000AF78607B684FF480521A6000BF0C375F
:10466000BD465DF8047B704780B588B000AF7860C8
:104670000023FB770023BB6100237B617B68002B59
:1046800001D1012390E17B681B69002B7B681B6EC5
:10469000002B09D17868FEF703FE7B6800225A667A
:1046A0007B68002283F85C207B681B681846FFF754
:1046B0001CFF0346002B32D17B681B681846FFF7AE
:1046C000C5FF7B681B681846FFF7E9FEFFF7D0FDC2
:1046D00038611CE0FFF7CCFD02463B69D31A012B81
:1046E00015D97B681B681846FFF79CFF0346002B13
:1046F0000DD17B681B6E43F010027B681A667B68E5
:104700005B6E43F001027B685A6601234CE17B68D3
:104710001B681846FFF786FF0346002BDAD07B683C
:104720001B681846FFF7E1FE0346002B0DD17B689E
:104730001B6E43F010027B681A667B685B6E43F069
:1047400001027B685A660123FB777B681B68184669
:10475000FFF755FFF8607B681B6E03F01003002B1A
:1047600040F01981FB68002B40F015817B681B6EBF
:1047700023F4817343F002027B681A667B681B682E
:104780001846FFF7EEFE0346002B36D17B681B6808
:10479000DB6823F00C017B689A687B681B680A431E
:1047A000DA607B685B6D7A6913437B617B6893F8A1
:1047B0004430012B0CD17B689A6C7B68DB6C1A430C
:1047C0007B681B6D1A437B69134343F001037B61D4
:1047D0007B681B681A69764B13407A68126879699E
:1047E0000B431361734B1B6823F470127B685B6887
:1047F00003F470136F4913430B607B681B7E9A03AD
:104800007B6893F820305B0313437A68926B002A2D
:1048100002D04FF4805200E000221A437B68DB682C
:104820001A437B681B69002B04DA7B681B6923F041
:10483000004301E04FF400131A437B6893F83430CF
:104840005B001343BA691343BB617B6893F828305C
:10485000012B15D17B6893F82030002B04D1BB6964
:1048600043F48033BB610BE07B681B6E43F0200296
:104870007B681A667B685B6E43F001027B685A6650
:104880007B68DB6A002B09D07B68DB6A03F4E0728B
:104890007B681B6B1343BA691343BB617B681B685E
:1048A000DA68454B13407A681268B9690B43D360E4
:1048B0007B681B681A693E4B13407A6812687969F5
:1048C0000B4313617B681B685B6C23F003017B68FF
:1048D0005B7E1A467B68DB691A437B681B680A4368
:1048E0005A647B6818687B68DB6B1A460021FFF707
:1048F00030FD7B6818687B681B6C1A462F49FFF7F0
:1049000028FD7B681B69002B08D17B681B689A6AAD
:104910007B681B6862F00F029A6217E07B681B6974
:10492000B3F5001F12D17B681B689B6A7B685B6ACA
:10493000013B9B0003F01C036FF00F0202FA03F12E
:104940007B689A6E7B681B680A439A627B681B6867
:10495000DA681B4B1340BA699A420BD17B6800227C
:104960005A667B681B6E23F0030343F001027B68E9
:104970001A6618E07B681B6E23F0120343F01002E6
:104980007B681A667B685B6E43F001027B685A663F
:104990000123FB7707E07B681B6E43F010027B6806
:1049A0001A660123FB77FB7F18462037BD4680BD82
:1049B00002FCFFDF081302460D82DEFF04FFFF0347
:1049C000F3FF3F8380B584B000AF78607B68002B35
:1049D00001D101237AE07B681B6E43F002027B6801
:1049E0001A66786800F090FB0346FB73FB7B002B94
:1049F0000FD1786800F054FC0346FB73FB7B002B5F
:104A000002D17B6801221A667B681B681846FFF793
:104A10005AFD7B681B685B687A68126823F46773C9
:104A200023F0030353607B681B6840F29F321A60D7
:104A30007B681B68D9687B681A68264B0B40D3607B
:104A40007B681B685A697B681B6822F007025A6101
:104A50007B681B689B6A7B681B6800229A627B6884
:104A60001B681A6A7B681B6802F0F0221A627B6876
:104A70001B685A6A7B681B6802F0F0225A627B68E6
:104A80001B68DA6A7B681B6802F0F022DA627B68D6
:104A90001B685A6C7B681B6822F001025A640E4B3B
:104AA0001B680D4A23F47C0313607868FEF7E2FC70
:104AB0007B6800229A667B6800225A667B68002227
:104AC0001A667B68002283F85C20FB7B184610374F
:104AD000BD4680BD00821E830813024680B586B0A5
:104AE00000AFF860B9607A60FB681B681846FFF792
:104AF00086FD0346002B40F09F80FB6893F85C30F6
:104B0000012B01D102239AE0FB68012283F85C208B
:104B1000FB681B68DB6803F00103002B14D1FB6802
:104B20001B681846FFF71DFD0346002B04D0FB68E9
:104B30001B681846FFF701FDFB681B68DA68FB6815
:104B40001B6842F00102DA60F86800F023FB0346BC
:104B5000FB75FB7D002B71D1FB681B6E23F470632A
:104B600023F0010343F48072FB681A66FB6800229D
:104B70005A66FB689B6D344A1A66FB689B6D334A24
:104B80005A66FB689B6D324A9A66FB681B681C225A
:104B90001A60FB68002283F85C20FB681B685A6877
:104BA000FB681B6842F010025A607B689B003B6107
:104BB000FB689B6D1B6D03F08003002B2AD0FB6804
:104BC0009B6D5B6F002B22D0FB689B6D5B6F1B683E
:104BD000002B1CD0FB689B6D5B6F1B683A699A6069
:104BE000FB681B6803F14002FB689B6D5B6F1B68F1
:104BF000DA60FB689B6D5B6F1B68BA681A61FB68C3
:104C00009B6D184601F082FC0346FB750EE0012304
:104C1000FB750BE0FB68986DFB681B684033194619
:104C2000BA683B6901F0D1F90346FB75FB681B6864
:104C30001846FFF7BCFC01E00223FB75FB7D18461C
:104C40001837BD4680BD00BF5F53000829540008D7
:104C50004554000880B586B000AF786000237B61C2
:104C60007B681B681B683B617B681B685B68FB603B
:104C70003B6903F00203002B17D0FB6803F002032B
:104C8000002B12D07B681B6E03F01003002B05D1A4
:104C90007B681B6E43F400627B681A66786800F0DC
:104CA000B6FC7B681B6802221A603B6903F00403B0
:104CB000002B04D0FB6803F00403002B09D13B69EF
:104CC00003F00803002B52D0FB6803F00803002B0D
:104CD0004DD07B681B6E03F01003002B05D17B6861
:104CE0001B6E43F400727B681A667B681B6818466B
:104CF000FFF74EFB0346002B32D07B6893F8203041
:104D0000002B2DD17B681B681B6803F00803082B60
:104D100026D17B681B681846FFF771FC0346002B01
:104D200012D17B681B685A687B681B6822F00C02F2
:104D30005A607B681B6E23F4807323F0010343F0F9
:104D400001027B681A660BE07B681B6E43F0200251
:104D50007B681A667B685B6E43F001027B685A666B
:104D6000786800F092F87B681B680C221A603B6937
:104D700003F08003002B11D0FB6803F08003002BAD
:104D80000CD07B681B6E43F480327B681A667868AF
:104D900000F08FF87B681B6880221A603B6903F47F
:104DA0008073002B12D0FB6803F48073002B0DD0AE
:104DB0007B681B6E43F400327B681A66786800F0EB
:104DC00012FC7B681B684FF480721A603B6903F425
:104DD0000073002B12D0FB6803F40073002B0DD07E
:104DE0007B681B6E43F480227B681A66786800F04B
:104DF00004FC7B681B684FF400721A603B6903F087
:104E00001003002B2BD0FB6803F01003002B26D0DF
:104E10007B689B6B002B02D101237B6109E07B68DF
:104E20001B681846FFF710FB0346002B01D0012337
:104E30007B617B69012B0ED17B681B6E43F4806222
:104E40007B681A667B685B6E43F002027B685A6679
:104E5000786800F038F87B681B6810221A603B699C
:104E600003F48053002B0CD0FB6803F48053002B19
:104E700007D0786800F0D5FB7B681B684FF4805240
:104E80001A6000BF1837BD4680BD80B483B000AF44
:104E9000786000BF0C37BD465DF8047B704780B476
:104EA00083B000AF786000BF0C37BD465DF8047B6F
:104EB000704780B483B000AF786000BF0C37BD4648
:104EC0005DF8047B704780B483B000AF786000BFAA
:104ED0000C37BD465DF8047B7047000080B588B094
:104EE00000AF786039600023FB770023BB607B68EC
:104EF0001B69B3F1004F7B6893F85C30012B01D143
:104F00000223F0E07B68012283F85C207B681B6849
:104F10001846FFF774FB0346002B40F0D7803B6830
:104F20005B68022B00F09E807B681B69B3F1004F29
:104F300004D07B681B696E4A934208D17B681A686B
:104F40003B681B6819461046FFF757FA41E07B683B
:104F50009A6E3B685B6803F01F030F2101FA03F3AD
:104F6000DB431A403B681B68C3F31103002B05D1D8
:104F70003B681B689B0E03F01F0311E03B681B6836
:104F80003B613B6993FAA3F3FB60FB687B617B6940
:104F9000002B01D1202303E07B69B3FA83F3DBB25A
:104FA0003968496801F01F018B401A437B689A6693
:104FB0003B685B689B085A1C7B685B6A9A4208D80E
:104FC0007B6818683B6859683B681B681A46FFF79E
:104FD000F2F97B6818683B6819683B689B681A4659
:104FE000FFF740FA3B681B68002B77DA4148FFF770
:104FF000A2F9B8613B681B683F4A934220D1BB6964
:1050000003F40003002B1BD1BB6943F400031946D2
:105010003848FFF77DF9394B1B689B09384AA2FBDA
:1050200003239B095A1C13465B0013449B00BB607F
:1050300002E0BB68013BBB60BB68002BF9D14DE0CF
:105040003B681B682F4A934248D1BB6903F4800335
:10505000002B43D1BB6943F4800319462548FFF771
:1050600057F93BE07B681B69B3F1004F04D07B68C4
:105070001B691F4A934207D17B681A683B681B680B
:1050800019461046FFF7CCF93B681B68002B25DA60
:105090001848FFF750F9B8613B681B68164A9342FD
:1050A00007D1BB6923F4000319461248FFF730F912
:1050B00014E03B681B68134A93420FD1BB6923F489
:1050C000800319460B48FFF723F907E07B681B6E46
:1050D00043F020027B681A660123FB777B6800227D
:1050E00083F85C20FB7F18462037BD4680BD00BF9B
:1050F0001000008008130246002000B42C0000209D
:10510000632D3E050100008080B584B000AF78605B
:105110007B681B681846FFF772FA0346002B33D0F2
:105120007B681B681846FFF72FFA0346002B04D153
:105130007B681B681846FFF74EFAFFF799F8F8608E
:105140001BE0FFF795F80246FB68D31A022B14D92F
:105150007B681B689B6803F00403002B0DD07B6801
:105160001B6E43F010027B681A667B685B6E43F02F
:1051700001027B685A66012307E07B681B689B6815
:1051800003F00403002BDCD1002318461037BD4682
:1051900080BD000080B584B000AF78600023BB60A4
:1051A0007B681B681846FFF7DCF90346002B69D1C2
:1051B0007B681B689A68364B1340002B0DD07B68C8
:1051C0001B6E43F010027B681A667B685B6E43F0CF
:1051D00001027B685A66012355E07B681B6818460C
:1051E000FFF797F92B48FFF7A6F8034603F40003EF
:1051F000002B0FD0284B1B689B09284AA2FB0323D6
:105200009B090133BB6002E0BB68013BBB60BB682C
:10521000002BF9D17B685B7E012B33D0FFF728F898
:10522000F86028E07B681B681846FFF79AF9034688
:10523000002B04D17B681B681846FFF76AF9FFF75B
:1052400017F80246FB68D31A022B14D97B681B6837
:105250001B6803F00103012B0DD07B681B6E43F02C
:1052600010027B681A667B685B6E43F001027B6804
:105270005A66012307E07B681B681B6803F0010383
:10528000012BCFD1002318461037BD4680BD00BF8B
:1052900017000080081302462C000020632D3E05F5
:1052A00080B584B000AF78607B681B681846FFF754
:1052B0006BF9F8607B681B681846FFF752F90346E4
:1052C000002B47D0FB68002B44D17B681B689B6890
:1052D00003F00503012B0CD17B681B681846FFF710
:1052E0002CF97B681B6803221A60FEF7C1FFB860C7
:1052F00029E07B681B6E43F010027B681A667B68AE
:105300005B6E43F001027B685A66012323E0FEF7DF
:10531000AFFF0246BB68D31A022B14D97B681B6807
:105320009B6803F00103002B0DD07B681B6E43F0DC
:1053300010027B681A667B685B6E43F001027B6833
:105340005A66012307E07B681B689B6803F0010332
:10535000002BDCD1002318461037BD4680BD80B538
:1053600084B000AF78607B68DB6DFB60FB681B6E10
:1053700003F05003002B44D1FB681B6E43F4007212
:10538000FB681A66FB681B681846FFF701F80346BE
:10539000002B32D0FB6893F82030002B2DD1FB6816
:1053A0001B681B6803F00803082B26D1FB681B68E9
:1053B0001846FFF724F90346002B12D1FB681B683F
:1053C0005A68FB681B6822F00C025A60FB681B6E6F
:1053D00023F4807323F0010343F00102FB681A6693
:1053E0000BE0FB681B6E43F02002FB681A66FB684B
:1053F0005B6E43F00102FB685A66F868FFF745FDF3
:105400000EE0FB681B6E03F01003002B03D0F8685E
:10541000FFF759FD04E0FB689B6D9B6E7868984729
:1054200000BF1037BD4680BD80B584B000AF786046
:105430007B68DB6DFB60F868FFF731FD00BF10375C
:10544000BD4680BD80B584B000AF78607B68DB6D01
:10545000FB60FB681B6E43F04002FB681A66FB684A
:105460005B6E43F00402FB685A66F868FFF72BFD99
:1054700000BF1037BD4680BD80B483B000AF7860F8
:105480007B689B6803F00103012B01D1012300E03D
:10549000002318460C37BD465DF8047B704780B486
:1054A00083B000AF78607B689B6803F00043B3F182
:1054B000004F01D1012300E0002318460C37BD4600
:1054C0005DF8047B704780B586B000AF786000233C
:1054D000BB607B6893F85C30012B01D102237EE036
:1054E0007B68012283F85C207868FFF7D9FE0346C9
:1054F000FB757B681B681846FFF7BEFF0346002B51
:1055000062D17B681B6E23F4817343F002027B68D7
:105510001A667B681B685B6C03F001033B617B6868
:105520001B68DB6803F00303FB607B681B68DA68B9
:105530007B681B6822F00302DA607B681B685A6C88
:105540007B681B6822F001025A647B681B689A68BA
:105550007B681B6842F000429A6014E0BB6801332C
:10556000BB60BB68B3F52E3F0DD37B681B6E23F089
:10557000120343F010027B681A667B68002283F8EE
:105580005C2001232BE07B681B681846FFF787FF30
:105590000346002BE2D17B681B68D9687B681B68D7
:1055A000FA680A43DA607B681B68596C7B681B6881
:1055B0003A690A435A647B681B6E23F0030343F085
:1055C00001027B681A6605E07B681B6E43F01002DF
:1055D0007B681A667B68002283F85C20FB7D184696
:1055E0001837BD4680BD80B483B000AF786000BF7F
:1055F0000C37BD465DF8047B704780B483B000AFC4
:10560000786000BF0C37BD465DF8047B704780B4FE
:1056100083B000AF786000BF0C37BD465DF8047BF7
:10562000704780B483B000AF786000BF0C37BD46D0
:105630005DF8047B7047000080B485B000AF7860EF
:105640007B6803F00703FB600C4BDB68BB60BA6848
:105650004FF6FF031340BB60FB681A02BB6813439D
:1056600043F0BF6343F40033BB60044ABB68D360BC
:1056700000BF1437BD465DF8047B704700ED00E0C5
:1056800080B400AF044BDB681B0A03F00703184625
:10569000BD465DF8047B704700ED00E080B483B048
:1056A00000AF0346FB7197F90730002B0BDBFB794A
:1056B00003F01F02074997F907305B09012000FA40
:1056C00002F241F8232000BF0C37BD465DF8047B91
:1056D000704700BF00E100E080B483B000AF034634
:1056E000FB7197F90730002B12DBFB7903F01F02E7
:1056F0000A4997F907305B09012000FA02F22033CA
:1057000041F82320BFF34F8F00BFBFF36F8F00BF5F
:1057100000BF0C37BD465DF8047B704700E100E038
:1057200080B483B000AF0346FB7197F90730002BBC
:105730000CDBFB7903F01F02074997F907305B097F
:10574000012000FA02F2403341F8232000BF0C3759
:10575000BD465DF8047B704700E100E080B483B093
:1057600000AF03463960FB7197F90730002B0ADB65
:105770003B68DAB20C4997F907301201D2B20B44F8
:1057800083F800230AE03B68DAB20849FB7903F0AA
:105790000F03043B1201D2B20B441A7600BF0C3740
:1057A000BD465DF8047B704700E100E000ED00E0DD
:1057B00080B489B000AFF860B9607A60FB6803F02C
:1057C0000703FB61FB69C3F10703042B28BF042314
:1057D000BB61FB690433062B02D9FB69033B00E084
:1057E00000237B614FF0FF32BB6902FA03F3DA4317
:1057F000BB681A407B699A404FF0FF317B6901FA20
:1058000003F3D9437B680B40134318462437BD4646
:105810005DF8047B704780B582B000AF786078682F
:10582000FFF70AFF00BF0837BD4680BD80B586B0D0
:1058300000AF0346B9607A60FB73FFF721FF0346B0
:1058400003F007037B617A68B9687869FFF7B0FFF6
:10585000024697F90F3011461846FFF77FFF00BF49
:105860001837BD4680BD80B582B000AF0346FB71DE
:1058700097F907301846FFF711FF00BF0837BD46FC
:1058800080BD80B582B000AF0346FB7197F9073049
:105890001846FFF721FF00BF0837BD4680BD000056
:1058A00080B483B000AF78607B68013BB3F1807F48
:1058B00001D301230DE00A4A7B68013B5360084B8A
:1058C00000229A60064B1B68054A43F003031360ED
:1058D000002318460C37BD465DF8047B704700BFB7
:1058E00010E000E080B582B000AF0346FB7197F98D
:1058F00007301846FFF714FF00BF0837BD4680BDCC
:1059000080B483B000AF78607B68042B44D801A2D8
:1059100052F823F037590008555900087759000804
:1059200099590008295900081F4B1B681E4A43F06B
:105930000403136031E01C4B1B681B4A23F0040373
:1059400013601A4BD3F8E030184A23F44003C2F82E
:10595000E03022E0144B1B68134A23F00403136069
:10596000124BD3F8E03023F44003104A43F4800391
:10597000C2F8E03011E00C4B1B680B4A23F0040323
:1059800013600A4BD3F8E03023F44003074A43F492
:105990000003C2F8E03000E000BF00BF0C37BD4696
:1059A0005DF8047B704700BF10E000E0000C024689
:1059B00080B582B000AF78607B68002B01D10123F5
:1059C00054E07B685B7FDBB2002B05D17B68002253
:1059D0001A777868FDF776FD7B6802225A777B6834
:1059E0001B79002B0CD17B681B68224A5A617B68AB
:1059F0001B689A687B681B6822F018029A600CE0AA
:105A00007B6899687B68DB681A46786800F0BAF9A9
:105A10000346002B01D0012328E07B685B79002B33
:105A200005D17B681B684FF0FF321A6104E07B6888
:105A30001B687A6812691A617B681B689B6823F08F
:105A400060017B685A697B681B680A439A607B68BF
:105A50001B689B6823F080017B689A697B681B68E0
:105A60000A439A607B6801225A7700231846083758
:105A7000BD4680BDB71DC10480B582B000AF78605F
:105A80007B68002B01D101231FE07B685B7FDBB2C9
:105A9000022B01D1022318E07B6802225A777B682F
:105AA0001B689A687B681B6842F001029A607B68F9
:105AB0001B6800225A607868FDF726FD7B6800228B
:105AC0005A777B6800221A77002318460837BD46AC
:105AD00080BD80B586B000AFF860B9607A60002301
