:020000040800F2
:1000000000000220C1900008C9110008CB110008AF
:10001000CD110008CF110008D111000861140008AB
:10002000000000000000000000000000D3110008E4
:10003000D511000800000000D7110008D9110008F0
:1000400061140008611400086114000861140008BC
:1000500061140008611400086114000861140008AC
:10006000611400086114000861140008611400089C
:10007000611400086114000861140008611400088C
:10008000611400086114000861140008611400087C
:10009000611400086114000861140008611400086C
:1000A0006114000861140008DD11000861140008E3
:1000B00061140008F51100086114000861140008BB
:1000C000611400086114000861140008611400083C
:1000D0006114000861140008591200086114000836
:1000E000611400086114000861140008611400081C
:1000F000611400086114000861140008611400080C
:1001000061140008611400086114000861140008FB
:1001100061140008611400086114000861140008EB
:1001200061140008611400086114000861140008DB
:1001300061140008ED120008611400086114000841
:1001400061140008B9120008C51200086114000803
:1001500061140008611400086114000861140008AB
:1001600010B5054C237833B9044B13B10448AFF3F1
:1001700000800123237010BDD00400200000000087
:100180007484020808B5034B1BB103490348AFF35D
:10019000008008BD00000000D40400207484020820
:1001A00070B4840746D04C1E002941D0D5B2034616
:1001B00002E0611EE4B30C4603F8015B9907F8D135
:1001C000032C2ED9D5B245EA05250F2C45EA054565
:1001D00019D9264603F11001103E0F2E41F8105C8C
:1001E00041F80C5C41F8085C41F8045C01F1100135
:1001F000F2D8A4F1100121F00F0104F00F04103126
:10020000032C0B440DD91E4621460439032946F818
:10021000045BFAD8211F21F0030104310B4404F0E0
:1002200003042CB1D2B21C4403F8012BA342FBD12E
:1002300070BC70470C460346C2E7034613F8012B17
:10024000002AFBD1181A01387047000053B94AB987
:10025000002908BF00281CBF4FF0FF314FF0FF30CE
:1002600000F07EB9ADF1080C6DE904CE00F006F89F
:10027000DDF804E0DDE9022304B070472DE9F04F1A
:10028000099D0C46002B4DD18A420F468446964666
:10029000B2FA82F360D94BB102FA03FEC3F1200235
:1002A0009F4000FA03FC20FA02F217434FEA1E4671
:1002B0001FFA8EF44FEA1C42B7FBF6F106FB1177EA
:1002C00001FB04F042EA0742904208D91EEB020209
:1002D00001F1FF3702D2904200F22D813946121A05
:1002E0001FFA8CFCB2FBF6F006FB102200FB04F4B4
:1002F0004CEA024C644508D91EEB0C0C00F1FF32AD
:1003000002D2644500F21A81104640EA0140ACEB8B
:10031000040C002125B12CFA03F30022C5E90032B8
:10032000BDE8F08F8B4205D90DB1C5E90001002170
:100330000846F5E7B3FA83F100294DD1A342C0F096
:10034000F280904280F0EF80064623460846002D5A
:10035000E6D0C5E90063E3E7002B40F0A2808A1AEB
:100360004FEA1E471FFA8EF60121B2FBF7F407FB96
:1003700014204FEA1C4242EA004206FB04F090427D
:100380000FD91EEB020204F1FF382CBF4FF0010918
:100390004FF00009904203D9B9F1000F00F0C88076
:1003A0004446121A1FFA8CFCB2FBF7F007FB10222E
:1003B00000FB06F64CEA024C664508D91EEB0C0C15
:1003C00000F1FF3202D2664500F2BB801046ACEB72
:1003D000060C40EA04409DE7C1F120068B4004FA78
:1003E00001FE22FA06F720FA06FCF4408A401F4379
:1003F0004EEA0C0300FA01FE4FEA17484FEA134990
:100400001FFA87FCB4FBF8F008FB104449EA0444E7
:1004100000FB0CF9A1450ED93C1900F1FF3A2CBFA5
:100420004FF0010B4FF0000BA14503D9BBF1000FBA
:1004300000F093805046A4EB09041FFA83F9B4FB43
:10044000F8F308FB134403FB0CFC49EA0444A445FD
:1004500006D93C1903F1FF3801D2A4457AD84346A6
:1004600043EA0040A4EB0C04A0FB02984445CC46B0
:10047000434602D306D1CE4504D20138B9EB020C73
:1004800068EB07035DB1BEEB0C0264EB030404FAF6
:1004900006F622FA01F3CC401E43C5E900640021B0
:1004A0003EE702FA03FEC3F1200104FA03F200FA68
:1004B00003FCCC404FEA1E4720FA01F11FFA8EF6EA
:1004C000B4FBF7F00A4307FB1044110C41EA044166
:1004D00000FB06F48C420ED91EEB010100F1FF383F
:1004E0002CBF4FF001094FF000098C4202D9B9F13D
:1004F000000F2CD04046091B92B2B1FBF7F407FB6A
:10050000141142EA014204FB06F1914207D91EEBA5
:10051000020204F1FF3801D2914215D84446521A22
:1005200044EA004121E7861A64EB030301200EE749
:10053000023C724435E702397244D0E6F444023892
:10054000E3E6F444023842E7023C7244E7E702384B
:100550007144D0E7023B3C4482E702383C446AE7FE
:10056000704700BF07F012BE800007F0B9BD8900D8
:1005700007F02EBE07B5002001A9019008F03CF954
:1005800028B10C2003F04AF903B05DF804FB019B8D
:10059000987BF7E770B5414C88B0002005F0F2FD7C
:1005A000D4F8F430002543F40003C4F8F43008F024
:1005B000D3FE3B4802F052FB032608F08DFB4FF4BC
:1005C0006043CDE90555CDE903360795D4F88C3065
:1005D00003A943F00103C4F88C30D4F88C303148BF
:1005E00003F001030193019B02F054F91823CDE9B4
:1005F00004650393D4F88C3003A943F00203C4F8D4
:100600008C30D4F88C30284803F002030293029B0C
:1006100002F040F9254807F00BFB20202946244A28
:1006200008F08AFE4FF6FD71224BB3F8A020531E4E
:100630009BB28B429BBF43F6FE7000EBD2001E487C
:10064000400307F06FF8002140201C4A08F074FEB8
:10065000002110201A4A08F06FFE05F011FB05F08A
:10066000BBFF184A0021012008F066FE0121084660
:1006700006F0A8F90021022006F0A4F9002108469E
:1006800006F0A0F904F01AFB0121022006F09AF905
:10069000002005F078FD002008B070BD000C024677
:1006A000400000300000024200040242000000202E
:1006B000698000080007F90B00C00F08256C0008CE
:1006C000295E0008556600084FF0FF3008F09EBD17
:1006D0007047704770470021102008F055BD002179
:1006E000012008F051BD0000034B0360034B436041
:1006F000034B8360704700BF6F0500086905000861
:10070000650500080021202008F03EBD00214020A2
:1007100008F03ABDF8B5184F04463B783BB1C10725
:1007200005D50122154B16481A7002F01DFA154E18
:10073000337843B1A20706D50122134B4021134859
:100740001A7002F047F9124D2B7843B1630706D5B2
:100750000122104B20210D481A7002F03BF93B7822
:100760001BB933780BB92B7823B1BDE8F8400A48A0
:1007700003F0A0BBF8BD00BF220000207D56002082
:10078000B0570020210000207C56002000000242CB
:10079000200000207E5600201457002030B599B06C
:1007A0004022002108A827F0E1F920220021684614
:1007B00027F0DCF9002002F06FFA044608B172B6A7
:1007C000FEE702F043FA194A4FF48011D2F8F030F4
:1007D000102523F0180343F00803C2F8F030072275
:1007E0004FF48033CDE908238123CDE90A134FF478
:1007F000807308A8CDE90C35109402F0E7FA0146A1
:1008000008B172B6FEE73F23CDE900300423CDE9FD
:100810000400CDE90230CDE90605684602F0ACFDE2
:1008200008B172B6FEE719B030BD00BF000C024639
:1008300000B593B04022002101A827F097F94FF4AA
:10084000004300934FF480236846119302F09AFE10
:1008500008B172B6FEE713B05DF804FB10B588B0BE
:100860001C22002101A827F081F90023114C124A13
:100870007F21C4E90023FF22C4E902124FF0804225
:100880002046C4E90433C4E90723A361636203F08B
:10089000D1F808B172B6FEE7CDE9040001900690E8
:1008A00001A9204603F0E8F908B172B6FEE708B0E6
:1008B00010BD00BF60570020007800462DE9F04FC2
:1008C00000244FF001084FF480569DB0B04D00F069
:1008D00015FEFFF74FFEFFF761FFFFF7A9FF142298
:1008E00000210FA827F042F9D5F88C30002243F000
:1008F0000203C5F88C30D5F88C304FF4805103F0EA
:1009000002030293029BD5F88C30A24843F0010306
:10091000C5F88C30D5F88C304FF4004703F0010354
:100920000393039BD5F88C3043F00403C5F88C3057
:10093000D5F88C3003F004030493049B02F04AF8CA
:1009400000224FF4F071944802F044F891480FA946
:10095000CDE90F68CDE9114401F09CFF4FF4F0732D
:100960008D480FA9CDE90F38CDE9114401F092FF70
:100970004FF4881387480FA9CDE90F73119401F044
:1009800089FF05F001FC224621461A2001F08AF970
:100990001A2001F0B7F9D5F88830214643EA080358
:1009A000C5F88830D5F88830224603EA08031D20B0
:1009B0000193019B01F076F91D2001F0A3F9774D19
:1009C000774B4FF4B861C5E9003404236B614FF4F1
:1009D0008063C5E90B1303232846CDE90F44C5E91D
:1009E0000244C5E90F341194EC612C612C8385F825
:1009F0002040C5F8248085F834806C65AE6385F8A6
:100A0000444000F0BFFD08B172B6FEE7654B11909F
:100A1000CDE90F300FA9284600F0A8FF08B172B643
:100A2000FEE74FF4E133604C604AC4E90200C4E9D8
:100A300000230823C4E905303023A3624FF4005398
:100A4000C4E90770206160622046E663236403F016
:100A50006AFF014608B172B6FEE7204603F0DAFFEE
:100A6000014608B172B6FEE7204603F0F3FF08B175
:100A700072B6FEE7204603F0ADFF08B172B6FEE79E
:100A80004B4B4C48036002F039F9034608B172B68B
:100A9000FEE74948494AC0E9002302F0DFFE044668
:100AA00008B172B6FEE7FFF7D9FE204601F0AEFFAF
:100AB00008B172B6FEE701F0B9FF08B172B6FEE701
:100AC00000233F4C3F4A4FF6FF76C4E9002340F233
:100AD000B4522046CDE90F33C4E90823C4E90A33F0
:100AE000C4E90C33A360666101F0C2FF08B172B6BD
:100AF000FEE7CDE90F00012220460FA902F063F8BE
:100B0000054608B172B6FEE7204600F05BFA1C22EB
:100B1000294608A8CDE90555079527F027F834227E
:100B200029460FA827F022F8274C284B2046C4E975
:100B300000360523C4E903358023A5606561A36100
:100B400003F01AFB08B172B6FEE70821204603F055
:100B500043FB08B172B6FEE720230790CDE90530CC
:100B600005A9204603F0D0FB024608B172B6FEE7A5
:100B70003023CDE90A00CDE90830CDE90C000E9014
:100B800008A9204603F08EFB10B372B6FEE700BF43
:100B9000000C02460004024200000242AC58002051
:100BA000001002460002002480560020004400404D
:100BB00000600240A45700209057002000080C421B
:100BC000B05700200094004014570020002C014032
:100BD0004FF40053CDE914304FF00073CDE90F000E
:100BE000CDE91100CDE91600CDE91830CDE91A00A4
:100BF00013900FA9204603F0BBFB054608B172B65F
:100C0000FEE764220146554826F0B0FF5449534898
:100C100026F0DEFF5148FFF710FB504982B26423F3
:100C2000504803F0D0FD2846FFF7B4FC6FF00102F6
:100C3000236807201A61FFF76DFD01224A494B48DE
:100C400000F0AEFF4A4FDFF85081FFF73DFD00F0A6
:100C50007DFC98F800303860002B6ED0454A136850
:100C600003F59C530833984267D90024424B434D07
:100C70001C7044F23C232B8040F63E134FF0090ACF
:100C800026466B803E4B10601B684FF400626B8100
:100C90003C491B0C05F19200DFF80091AC80EC8020
:100CA000AB8126F0A2FFA5F89248374A002094466F
:100CB000B9F8001005EB440E0CE03EF8023B0230A0
:100CC0004FEA132B02F8023C5BFA83F3334402F839
:100CD00001BC9EB2814202F10202EEDC013104EB62
:100CE0005104B4F5896FC8BF330A2748C4BF8CF8D4
:100CF000F2608CF8F33004F049FFFFF7E5FC1420B4
:100D000000F02AFCBAF1010ACFD1642251461348FF
:100D100026F02CFF3246B9F800301C490F4826F067
:100D2000DBFE0E48FFF789FA642382B20B490D48B7
:100D300003F049FD0122164B1A70164A39681368F0
:100D400003F5FA638B4280D298F800301160002BD3
:100D50003FF47BAF0420FFF7DDFC76E7015600206F
:100D60008C8402088056002068560020AC58002071
:100D7000705600207456002000560020A414002055
:100D80006C5600200C3500200C550020978402087A
:100D90007D560020785600207F5600208488002051
:100DA00072B6FEE70C4B07B5D3F89420052142F04C
:100DB0000402C3F89420D3F89430002203F0040313
:100DC00001934220019B00F06DFF422003B05DF8CB
:100DD00004EB00F097BF00BF000C024630B505469B
:100DE000B1B01422002103A826F0C0FE4822002141
:100DF00008A826F0BBFE2A68424B9A427FD14FF4E6
:100E0000005308934FF4804308A8179302F0BAFBED
:100E100008B1FFF7C5FF3C4B0521D3F8942000240F
:100E200042F02002C3F89420D3F89420374802F00F
:100E300020020192019AD3F88C2042F00102C3F8FB
:100E40008C20D3F88C30059403F001030293029BAD
:100E50000323CDE9031303A901F01CFD21234FF463
:100E60008032CDE91A34012329491AA8CDE91C445E
:100E7000CDE91E44CDE92032CDE92333CDE9254427
:100E8000CDE9284427942B9401F0F7FA08B1FFF735
:100E900087FF00211E4A1F4801F046FB08B1FFF7FB
:100EA0007FFF1C4801F0A2FB08B1FFF779FF1A4C45
:100EB0001A4B204623600023C4E90E33C4E91033E3
:100EC0008123A36401F034FA08B1FFF769FF1149E7
:100ED000114801F0B7FB08B1FFF762FFAC651021C4
:100EE0000D48E56501F089F908B1FFF759FF0022C7
:100EF0004120114600F0D6FE412000F003FF31B042
:100F000030BD00BF00100246000C02460000024245
:100F100090580020785800200058002050000240CF
:100F20000268094B82B09A420CD1084BD3F8882052
:100F300042F48052C3F88820D3F8883003F48053F9
:100F40000193019B02B0704700300240000C024642
:100F50000268054B9A4201BF044AD2F8883023F454
:100F60008053C2F88830704700300240000C0246BF
:100F700010B5044694B04822002102A826F0F6FDE0
:100F800022680E4B9A4217D1082302934FF4002394
:100F900002A8069302F0F6FA08B1FFF701FF084B2A
:100FA000D3F8A02042F02002C3F8A020D3F8A0304C
:100FB00003F020030193019B14B010BD0094004086
:100FC000000C024610B5044686B01422002101A888
:100FD00026F0CCFD22680D4B9A4215D10C4B0D48E2
:100FE000D3F88C2001A942F00102C3F88C20D3F879
:100FF0008C3003F001030093009B0223CDE9013301
:101000000D23059301F046FC06B010BD009400408E
:10101000000C024600000242074B82B0D3F8882041
:1010200042F40032C3F88820D3F8883003F4003348
:101030000193019B02B07047000C024610B50446B4
:1010400094B04822002102A826F090FD22680F4BA0
:101050009A4218D14FF4807302934FF4005302A8C0
:101060000B9302F08FFA08B1FFF79AFE084BD3F802
:101070008C2042F48022C3F88C20D3F88C3003F407
:1010800080230193019B14B010BD00BF00080C42E7
:10109000000C024610B5044694B04822002102A874
:1010A00026F064FD22680F4B9A4218D14FF480431A
:1010B00002934FF4807302A8129302F063FA08B10E
:1010C000FFF76EFE084BD3F8A82042F40012C3F8D5
:1010D000A820D3F8A83003F400130193019B14B0A7
:1010E00010BD00BF00780046000C024607B50F4B4C
:1010F00002689A4217D10E4B2620D3F8A42042F45E
:101100000062C3F8A4200022D3F8A430114603F4EF
:1011100000630193019B00F0C5FD262003B05DF83C
:1011200004EB00F0EFBD03B05DF804FB002C0140C0
:10113000000C024610B504469AB01422002103A800
:1011400026F014FD4822002108A826F00FFD226891
:101150001A4B9A4230D102230893082308A80A9315
:1011600002F010FA08B1FFF71BFE154B1548D3F833
:101170009C2003A942F40032C3F89C20D3F89C20A1
:1011800002F400320192019AD3F88C2042F001025D
:10119000C3F88C20D3F88C304FF4805203F0010355
:1011A0000293029B1223CDE903230023CDE90533EB
:1011B0000323079301F06EFB1AB010BD00440040FA
:1011C000000C024600000242FEE7FEE7FEE7FEE7F3
:1011D000FEE770477047704700F0ACB908B54FF4B0
:1011E000004001F0FFFB024A13680133136008BDA1
:1011F0006C56002008B5144800F040FF134B1B68E4
:10120000962B13D9124A1278012A14D0022A16D02A
:1012100062B9C3F3890349334FF6FF700D4931F8C2
:10122000132082421CBF013221F813200420BDE8A4
:101230000840FFF76FBAC3F34A031933ECE7C3F36F
:101240000B033333E8E700BF005800206856002046
:10125000005600200C35002008B5114802F072FE3F
:10126000104B1A782AB1002220210F481A7001F081
:10127000B1FB0E4B1A782AB1002240210A481A709D
:1012800001F0A8FB0A4B1A7822B1002209481A7013
:1012900001F086FCBDE80840014802F035BE00BF01
:1012A000145700207E560020000002427C56002089
:1012B0007D560020B0570020014800F0B6BA00BFAC
:1012C000AC58002008B5074B1B6803B19847064A85
:1012D000D2F8083223F48033C2F80832BFF36F8F9C
:1012E00008BD00BF088A0020000C024638B54FF048
:1012F00000530C4CC4F88430BFF34F8FBFF36F8F93
:10130000094B1B6803B19847084D2B7833B1002275
:1013100005213D2000F0C6FC00232B704FF0005348
:10132000636038BD00E100E0048A0020EA89002003
:101330000B4A0346116810B509B90A4911601068D3
:1013400009490A4C0344091B8B4206D926F016FCB6
:101350000C2303604FF0FF3010BD1360FCE700BFAB
:101360001859002070C20020000002200004000074
:10137000034AD2F8883043F47003C2F888307047CB
:1013800000ED00E02F48C36903F00C03082B0CD0DC
:101390000C2B10D02C4B2B4A2C49126A02F007025E
:1013A0008A5CD3402A4A136070470268294BC2F313
:1013B0000052D340EFE7816A436BC1F3022201324E
:1013C00006EE102AC3F30802013207EE902ACA067D
:1013D00048BF826B01F0030145BFC2F3CC0207EEA8
:1013E000102ADFED1D6AF8EEC76AC3F3066302290F
:1013F00003F1010322D0032922D1124A1168154AB0
:10140000C1F30051CA4007EE102AB8EEC66AB8EE22
:10141000C77AF8EEE77AC7EE065A9FED107AE6EE45
:10142000877A65EEA76A07EE903AB8EEE77AC6EEDD
:10143000877AFCEEE77A17EE903AACE7024AE2E7E9
:101440000022E0E7000C02460024F400B184020808
:10145000240000200048E8010000000000000039DE
:10146000FEE7000038B5214B05461A780AB901207D
:1014700038BD4FF0E023186910F0040016D04FF487
:101480007A73B3FBF2F21A4B1868B0FBF2F000F07B
:1014900059FC04460028EAD1024629464FF0FF30A5
:1014A00000F000FC134B20461D60E1E7124BD3F81F
:1014B000E03003F44003B3F5800F07D0B3F5000F1D
:1014C0000DD0002BE3D14FF4FA53DAE74FF47A73DF
:1014D000B3FBF2F24FF4FA43B3FBF2F0D7E74FF469
:1014E0007A73B3FBF2F24FF40043F5E728000020D3
:1014F000240000202C000020000C02460C4A10B5ED
:101500001368032043F48073136000F0B9FBFFF706
:1015100039FF042000F034FC0F20FFF7A3FF04463E
:1015200018B9FFF73FFC204610BD0124FBE700BFC0
:1015300000200240034A044B11681B780B441360DF
:10154000704700BF1C59002028000020014B18687C
:10155000704700BF1C59002038B50446FFF7F6FF5E
:101560000546631C1EBF044B1B78E418FFF7EEFF13
:10157000431BA342FAD338BD280000208068C0F383
:1015800080007047F8B5044668B3056E25B9FFF7CB
:1015900025FC656684F85C5022689368DF0025D4DA
:1015A0004FF480531360936823F0104323F0170324
:1015B00043F080539360FFF7C9FF054623681B681B
:1015C000D80413D4FFF7C2FF401B0128F6D92368C3
:1015D0001B68DE04F2D4236E43F010032366636EAF
:1015E00043F00103636601252846F8BD23689A6825
:1015F0001846D1005FBF226E012542F0100222661C
:1016000057BF626E002542F001026266FFF7B6FF27
:10161000226E02F01002104340F0A780226E22F4E6
:10162000817242F0020222669A68D20722D4DA68F6
:10163000A16822F00C020A43DA6094F84420606D3D
:10164000012A07D1226DA16C02430A43E16C0A43CF
:1016500042F001001969474A474E0A4002431A61A5
:10166000D6F80813626821F4701102F470120A436C
:10167000C6F80823A26B94F82070003A18BF012224
:10168000267E11037A0342EA8632E66894F834E053
:101690003243266942EA4E02002EA8BF4FF4001CD6
:1016A00042EA010294F82810B8BF26F0004C012944
:1016B00042EA0C0203D1002F3AD142F48032E16AAF
:1016C00021B1276B01F4E07139430A43DF682B49EC
:1016D00039401143D9601F692649394001431961D6
:1016E000586C617EE76920F0030039430143596477
:1016F0005969E06B21F00701014359615969206C78
:1017000021F0700141EA00115961D6B9996A61F07E
:101710000F019962D9681A4B0B40934221D10023E3
:101720006366236E23F0030343F0010323665BE744
:10173000216E41F020012166616E41F00101616678
:10174000BDE7B6F5001FE5D16FF00F00996A616A39
:101750000139890001F01C0100FA01F1A06E01437A
:10176000D7E7236E23F0120336E7236E43F010030E
:10177000236638E702FCFFDF001002460D82DEFF21
:10178000F3FF3F837047704708B5C06DFFF7FBFF5D
:1017900008BD70477047C06D08B5036E43F0400345
:1017A0000366436E43F004034366FFF7F3FF08BD8F
:1017B000C36D10B51A6E12F0500F1A6E2AD142F492
:1017C00000721A661A68D16811F4406F15D193F847
:1017D000201091B9116809070FD51046FFF7CEFE0A
:1017E00078B9516821F00C0151601A6E22F48072B0
:1017F00022F0010242F001021A661846FFF7C2FF0A
:1018000010BD1A6E42F020021A665A6E42F00102B2
:101810005A66F2E7D20603D51846FFF7BBFFEFE79B
:101820009B6DBDE810409B6E1847036870B51E683D
:101830000446B0075D680ED5A9070CD5236E204677
:10184000DA065EBF236E43F40063236600F016FAE7
:10185000022223681A60730701D5680703D4310791
:101860002AD52A0728D5236EDB065EBF236E43F4F4
:10187000007323662368DA6812F4406F16D194F877
:1018800020209AB91A68100710D51846FFF776FE7F
:10189000002861D15A6822F00C025A60236E23F4AA
:1018A000807323F0010343F0010323662046FFF712
:1018B00069FF0C2223681A6031060BD52A0609D568
:1018C000236E204643F480332366FFF762FF8022B5
:1018D00023681A60F3050CD5E8050AD5236E204667
:1018E00043F40033236600F0C7F94FF48072236895
:1018F0001A60B1050CD5AA050AD5236E204643F41B
:101900008023236600F0B9F94FF4007223681A604F
:10191000F30615D5E80613D5A36B1BB12368DB6866
:1019200099070AD0236E204643F480632366636ED2
:1019300043F002036366FFF72DFF102223681A604D
:10194000F20408D5EB0406D5204600F098F94FF4D0
:10195000805223681A6070BD236E43F02003236613
:10196000636E43F001036366A0E700000023F7B550
:10197000019390F85C300246012B00F0AB8001230C
:101980000468066980F85C302046FFF7F7FD002800
:1019900040F09A80D1E90035022D26F0100071D078
:1019A000B0F1004FC3F3110E35D1A06A40EA0E002A
:1019B000A0628968606901EA032121F07C4121F07D
:1019C000FF0120EA03200143002B61611DDA424937
:1019D000424DD1F80803AB4200F4400443D1000269
:1019E00013D4D1F8083323F44003234343F4000312
:1019F000C1F808333A4B19683A4BB1FBF3F10C23A9
:101A000001FB03330193019B53BB0020002382F8A9
:101A10005C3003B0F0BD4FF00F0C906E05F01F0767
:101A20000CFA07FC6FEA0C0620EA0C0CBEF1000F62
:101A300011D1C3F38460B84040EA0C009066AD0851
:101A4000506A01358542B4D8A56AC3F38360B840B3
:101A50002E403043ACE793FAA3F0B0FA80F0EAE707
:101A6000019B013BCEE7204DAB42CED14302CCD40B
:101A7000D1F8083323F44003234343F48003C1F82F
:101A80000833C2E7B0F1004F01BFA16AC3F31100F0
:101A90008143A162002BB8DA104C0F48A342D0F862
:101AA000081309D1D0F8083301F4800123F440036E
:101AB0001943C0F80813A8E70B4CA342A5D1D0F8EE
:101AC000083301F40001F1E7116E184641F02001DE
:101AD00011669BE702209CE700100246002000B43C
:101AE00024000020400D030001000080002373B596
:101AF0000268019393680446DD0702D5002002B016
:101B000070BD9168214B194209D0236E012043F02A
:101B100010032366636E43F001036366EFE7936887
:101B200023F0004323F0170343F001039360184BA5
:101B3000D3F8083318021CD4637E012BDED0FFF7E4
:101B400005FD0546134E22681368DB07D6D493685B
:101B5000D9075FBF9368334043F001039360FFF7F9
:101B6000F5FC401B0228EED923681B68DA07EAD48B
:101B7000CBE7094B094A1B68B3FBF2F3013301932E
:101B8000019B002BD8D0019B013BF8E71700008098
:101B900000100246E8FFFF7F24000020400D0300F4
:101BA000F8B50468054620460F461646FFF7E6FCE2
:101BB000002859D195F85C30012B55D0012385F8C8
:101BC0005C30E368D8070ED4A368D90707D5A368AB
:101BD00023F0004323F0170343F00203A360E368FC
:101BE00043F00103E3602846FFF780FF0446002826
:101BF00031D1286E1D4B20F4706020F0010040F4BC
:101C000080702866A86D6C660366194B2968436668
:101C1000184B83661C230B6085F85C404B68026D93
:101C200043F0100312064B604FEA860315D5426F4E
:101C3000C2B11268B2B14031C2E90317936000F03B
:101C4000CDFB04462A68936823F0004323F0170372
:101C500043F0040393602046F8BD3A46403100F05B
:101C6000CFF9EEE70124EDE70224F4E7B11700080D
:101C7000891700089717000870477047704770472A
:101C800007490302CA6803F4E06322F4E062120425
:101C9000120C134343F0BF6343F40033CB6070472F
:101CA00000ED00E0154B30B5DC68C4F30224C4F14C
:101CB0000703251D042B28BF0423062D4FF0FF35F5
:101CC00094BF0024033C05FA03F321EA0303A54073
:101CD00022EA0502A340002843EA0203ACBF00F158
:101CE0006040074A4FEA0313DBB2ABBF00F5614027
:101CF00000F00F0080F80033135430BD00ED00E019
:101D000014ED00E0002807DB01234109034A00F03D
:101D10001F00834042F82130704700BF00E100E01F
:101D200000280CDB01220649430900F01F00824015
:101D3000203341F82320BFF34F8FBFF36F8F7047DD
:101D400000E100E00138B0F1807F3FBF4FF0E023B9
:101D500058610020986137BF1A69012042F00302E0
:101D60001A617047002808DB01224309034900F08B
:101D70001F008240403341F82320704700E100E01B
:101D8000042818D8DFE800F00A18261703004FF0DF
:101D9000E022136943F00403136170474FF0E0221F
:101DA000136923F004031361114AD2F8E03023F4DD
:101DB0004003C2F8E03070474FF0E022136923F08F
:101DC000040313610A4AD2F8E03023F4400343F4D9
:101DD0008003EEE74FF0E022136923F00403136160
:101DE000034AD2F8E03023F4400343F40003E0E771
:101DF000000C0246F0B50C4622F003050668970871
:101E00000D44A54208D112F003021ED0012A14D1BC
:101E100011F82730337018E0637894F800C01B0481
:101E200043EA0C6394F803C0043443EA0C0314F847
:101E300002CC43EA0C233360E3E76B78022A11F803
:101E4000272043EA0223338002D103681868F0BDDB
:101E5000AB78DFE700230068F0B555088E1C9D4283
:101E600006D1D30744BF31F8253003800068F0BDA8
:101E700031F8237036F82340013344EA0744046004
:101E8000EDE7000010B5044608B9012010BD437FFE
:101E900003F0FF0213B90277FFF742F802236377DA
:101EA0002379E3B92368134A5A619A6822F0180229
:101EB0009A6062792368D2B94FF0FF321A619A684A
:101EC000616922F060020A439A609A68A16922F06F
:101ED00080020A439A60012300206377D6E72046F8
:101EE000D4E9021200F065F80028E2D0CDE72269BB
:101EF000E4E700BFB71DC10438B5054698B1437F7C
:101F0000022BDCB20DD002230024437703689A68C9
:101F100042F001029A605A685C60FFF719F86C772A
:101F20002C77204638BD0124FBE770B502264677A2
:101F3000066A0446022E15D0032E05D0012E0ED0BF
:101F400000200123637770BD036801EB8205A9427D
:101F500001D11868F5E751F8042B1A60F7E7FFF78D
:101F600049FFEEE7FFF776FFEBE7F8B50226467785
:101F700006680446B76847F00107B760076A022F92
:101F800014D0032F05D0012F0DD00020012363773B
:101F9000F8BD01EB8205A94201D13068F6E751F89E
:101FA000043B3360F7E7FFF725FFEFE7FFF752FF4A
:101FB000ECE7CB0710B50DD51F23013B1DD321FA4C
:101FC00003F4E407F9D5102A13D0102A04D83AB143
:101FD000082A10D001200BE0182AFBD1062BF9D8D3
:101FE00000684161836823F0180313438360002075
:101FF00010BD072BF3E70F2BF1E7102AE5D1E9E736
:1020000030B5002836D090F84C40012C34D0012453
:1020100080F84C4090F85440012C4FF0000425D13A
:10202000022580F85450846504689BB2A56C2D0C81
:102030002D041D434FF4FE43A564E360E164226573
:10204000636943F4BA436361436E1BB1636943F44C
:1020500000736361036F1BB1636943F400536361F1
:102060000020636943F00103636130BD402380F8C1
:102070004C4083650120F8E70220F6E70121036860
:1020800010B523F47F6222F00F020446D068C3F338
:102090000B02503AC2F3C41201FA02F2024200F0FB
:1020A000AB801A69500508D55A69520505D54FF419
:1020B0008062DA60A26D0A43A2651A69100509D52B
:1020C0005A69110506D54FF40062DA60A26D42F03C
:1020D0000202A2651A69D20409D55A69D00406D54C
:1020E0004FF48052DA60A26D42F00402A2651A69D0
:1020F000510409D55A69520406D54FF48042DA607A
:10210000A26D42F00802A2651A69900509D55A69C4
:10211000910506D54FF40072DA60636E0BB120466C
:10212000984723681A6992042ED55A6990042BD5D2
:102130004FF40052DA6094F85420042A1DD15A69F1
:10214000216D22F400525A615A69090642F00202D6
:102150005A614FF0010248BF616F84F8542042BFBA
:102160000A7300229A64002384F84C30E36E002B3B
:1021700042D02046BDE810401847052384F854306B
:10218000236F0BB12046984723681A69D20518D5EA
:102190005A69D00515D5226D110626D5DA6F32B9E8
:1021A0009A6C22B90122616F84F854200A734FF4AB
:1021B0004072DA60002384F84C30236E0BB1204665
:1021C0009847A36DC3B12268536943F0020353617A
:1021D0000123226D84F85430120644BF626F1373DA
:1021E000002384F84C30A36EC1E79A6C002ADED13C
:1021F000012284F85420DAE710BDD0B1CB0601D417
:10220000002070470368012023F47F62C3F30B03AF
:1022100022F00F0201F01101503B1129C3F3C41346
:10222000516800FA03F30CBF0B4321EA0303536028
:10223000E6E70120704741EA0203034318B949B9B0
:10224000002A18BF10465840B0F5803F34BF002028
:10225000012070470846F6E740B1037E49B97AB1DC
:10226000107E984214BF03200020704731B10B7ECE
:10227000F5E7097E9942F2D0022070470846704780
:10228000104670472DE9F043D0F808C0176889B3AD
:1022900000254FF6FC762B462C464FF6FC7EDFF8E9
:1022A0008C800E404FEA870964453BD09E420CD09B
:1022B00001684CBB01EA0E030134F5E7016894B9EB
:1022C00001EA060301346445F8D101689460090C01
:1022D00009040B43D36053F827300D435560D3B93D
:1022E0000020BDE8F08308EB030501EA0E01695800
:1022F0001D46E5E70D460B460C464FF6FC76DFF82B
:102300002CE04FEA8708DEE709EB030501EA080144
:1023100069581D46CEE723F003031B041B0C0B4337
:102320001361DDE79E42D0D00120DAE70000FFFF15
:1023300038B50446FFF70AF90546002C49D00023BA
:1023400084F84C300223226884F85430536943F0F7
:102350000603536123685A69D20730D4D4E90E12B8
:1023600011431D4A934214D08032934211D08032DF
:1023700093420ED0803293420BD08032934208D0E9
:102380008032934205D08032934202D08032934211
:1023900001D1226C114300205A6922F443020A43FE
:1023A0005A61626C18645A649864D8641865D86776
:1023B000A36CA0652365012384F854300AE0FFF77D
:1023C000C5F8401B0528C5D91023A365032384F84D
:1023D0005430012038BD00BF50000240034630B5E4
:1023E000002848D0416F002945D090F854001A6861
:1023F00001285469C5B203D0022D37D1E00335D589
:1024000093F854000128C4B22AD193F84C00012853
:102410004FF0020029D083F8540083F84C40087331
:10242000002098650861506940F4BA405061586EC8
:1024300018B1506940F4007050611B6F1BB15369B3
:1024400043F4005353610B68190C23F003031B047E
:102450001B0C43F07843090443F480331160D367C5
:102460000020536943F00103536130BD40229A6557
:10247000002283F84C200120F7E7F0B5002851D066
:1024800000294FD0C369456902681D43C36B12F030
:10249000200445EA0305036945EA0305836945EA23
:1024A00003050D6010D0836AC66A876B013B1B056C
:1024B0003E4303F07C733343466A013E360106F423
:1024C0007C7633432B430B604368056B23F4E07346
:1024D0009B059B0D2B43C5684B60B5F5806F1BD1E9
:1024E00014B143F480634B60436C4BB1046C2343E1
:1024F0004C682343846C240404F4F81423434B6095
:10250000B0F8543042F4A0628B60C36CCB60036DB2
:1025100000200B618A61F0BDB5F5007FE4D143F482
:102520000073E0E70120F6E7F0B50E4615460446D5
:1025300087B028B122B14369012B04D10423236160
:10254000012007B0F0BD07683846FFF774FE08B1F8
:102550000523F4E73846FFF77FFE0028EED102237B
:10256000237320619FB93EB9012322600020A3603C
:10257000012320612373E4E722F003052D042D0CD1
:1025800045F0784545F4803526607561EEE766B91B
:1025900027F003073F043F0C47F0784747F48037A4
:1025A00057612260A3680133E0E7052331462046E6
:1025B00001AA0193FFF766FE98B94FF6FC70A36875
:1025C000039F094905EA00029F4242EA010206D13F
:1025D000636813B103400B436B617261E2E7736997
:1025E000FAE70623ABE700BF000001F870B5044628
:1025F00086B018B1066826B902232361012006B00F
:1026000070BD45681DB1AE421AD00423F5E7436999
:10261000012BFAD002230373052301AA2946056181
:102620000193FFF72FFE4FF6FC733340049A43F0FB
:10263000784343F48033536101232561666023733B
:102640000020DCE770B169B190F8543090F8542064
:10265000DBB2022A01D0052B06D14023836500237B
:1026600080F84C30012070470B7B022B02D10123F4
:102670000B61F7E7026D4B68812A02D11BB9042375
:10268000F6E7002BFBD1416700207047084A10B5E0
:10269000936A43F001039362EFF3108272B6002352
:1026A000CC58C4500433102BFAD182F3108810BDDB
:1026B00000200240094A10B5936A43F4804343F076
:1026C00001039362EFF3108272B60023CC58C4501A
:1026D0000433802BFAD182F3108810BD0020024011
:1026E000064B9A6A002ABFBF054A9A6002F18832F7
:1026F0009A60BABF986AC00F00207047002002405D
:1027000023016745044B9A6A42F000429A62986A34
:10271000C043C00F704700BF0020024070B505469F
:10272000FEF714FF104C4619236A13F4403F0BD1F7
:1027300042F2FA02236A13400ED001200B494A6884
:102740001A434A60236270BD6A1CEDD0FEF7FEFE9C
:10275000B042E9D30320F6E7236A0020DB0744BF39
:1027600001232362EFE700BF002002402059002030
:10277000F8B5154D04462B780E46012B174620D090
:1027800001232B7000234FF47A706B60FFF7C6FFB4
:1027900088B9AC6024F00044012C394630460DD194
:1027A000FFF774FF4FF47A70FFF7B8FF074A936A98
:1027B00023EA0403936200232B70F8BDFFF77AFF2E
:1027C000F0E70220F9E700BF205900200020024076
:1027D000064A936A23F4813323F4FD7343EAC0036A
:1027E00043F4803343F002039362704700200240B9
:1027F0002DE9F041254E054633788846012B43D01C
:102800000123337000234FF47A707360FFF786FF63
:102810000446E8B92B68B36023F00043042B1CD1B5
:102820001B4A4FF47A70936A43F4803343F00403F5
:102830009362FFF773FF04462B68154923F00043AA
:102840008A6A23F47E7343F47E7322EA03038B6265
:10285000002333702046BDE8F0814FF0FF33C8F805
:1028600000306F68D5E901321344BB42E4D93846E1
:10287000FFF7AEFF4FF47A70FFF750FF10B1C8F8C2
:102880000070D8E70137EDE70224E3E72059002084
:10289000002002402DE9F74F4C4B4FF00F0903EA9F
:1028A0009023019300234A4C0A6832FA03F502D1BF
:1028B00003B0BDE8F08F012505FA03F818EA02021B
:1028C00000F0828003274E684FEA430E06F00305AE
:1028D00007FA0EFC6F1E012F6FEA0C0C32D88768C6
:1028E00007EA0C0ACF6807FA0EF747EA0A0787607B
:1028F000476827EA0808C6F300179F4047EA080719
:102900004760C768022D07EA0C088F6807FA0EF7C0
:1029100047EA0807C76017D14FEAD30800EB8808D9
:1029200003F0070AD8F820704FEA8A0A09FA0AFB6E
:1029300027EA0B0B0F6907FA0AF747EA0B07C8F8F3
:10294000207001E0032DDCD1076805FA0EF507EAD7
:102950000C073D4316F4403F056035D023F00307D4
:1029600007F18C4803F00305019FED0009FA05FE0D
:1029700007FA05F5D74308F50838D8F860C016F40B
:10298000801F2CEA0E0C45EA0C05C8F8605025683B
:102990000CBF3D4015432560656816F4001F0CBF51
:1029A0003D4015436560D4F8845016F4003F0CBFD9
:1029B0003D401543C4F88450D4F88050F60354BF0A
:1029C0003D401543C4F8805001336DE77F7F2F00F1
:1029D000002002460AB181617047816270477047EA
:1029E0007047000038B5084D0446EB68034202D03A
:1029F000E860FFF7F4FF2B691C4203D020462C61EE
:102A0000FFF7EEFF38BD00BF002002460146064A30
:102A1000106810F0010009BF1368012023F00403BF
:102A20000B4308BF1360704700040340034A0020B3
:102A3000136843F001031360704700BF00040340B4
:102A400044F62062094B10B51B680468B3FBF2F32F
:102A50004FF47A72002053432268013B08BF0320E1
:102A600031EA020201D0002BF6D110BD2400002073
:102A7000F8B50446002872D090F84A3003F0FF02FF
:102A80001BB980F84920FEF773FA02234FF48071D6
:102A9000256884F84A302B69204643F001032B61F6
:102AA000636B6960AB62FFF7CBFF032801D10320A2
:102AB000F8BD1021236A69602046AB61FFF7C0FFB3
:102AC0000328F4D0EB6A9A0706D4EB6A9B035EBF37
:102AD0002B6923F001032B616168EB680129A06A6F
:102AE00002D0B0F5000F01D123F01E034FF6FF76A0
:102AF00062691C4FB24218BF23F46043A66818BF36
:102B000023F0C0031F4041EA00033343666A3343A6
:102B10003B43E9B9E169266931430B43B0F5000F46
:102B200018D04FF6FF718A4204D0A1690A43E169C7
:102B30000A431343EB60D4E90B3213436B62012366
:102B4000002084F84B3084F84C3084F84A30AFE7EA
:102B50000129E3D1D4E9031001430B43E1E701204C
:102B6000A6E700BFFEF139FF022380F84A30D0E922
:102B70000032012A07D0826AB2F5000F02BFDA687C
:102B800022F46062DA601A6942F001021A611A697D
:102B900042F004021A61012380F84A300020704795
:102BA000022380F84A300368DA6A910706D4DA6AA9
:102BB00092035EBF1A6922F001021A61012380F8B4
:102BC0004A30002070470B46022170B5054680F858
:102BD0004A1032B1012A19D00123002085F84A3069
:102BE00013E0082104685A68E66A1B6826F00D069F
:102BF00046EA8206226942F0010222616160636155
:102C0000FFF71EFF032815D1032070BD4FF40021EC
:102C100004685A68E66A1B6826F4502646EA82462B
:102C2000226942F00102226161606363FFF708FFDD
:102C30000028E9D1E36A9A0706D4E36A9B035EBFE2
:102C4000236923F001032361E662C5E7024A936A20
:102C500043F0010393627047000802460D49C3B276
:102C60008A6910B522EA030242EA10228A61CA691F
:102C700093FAA3F1B1FA81F10324490004FA01F1B6
:102C800022EA010242EA1040024AD06151690B4334
:102C9000536110BD000802461549CB6B03F4803325
:102CA000834201D1002070473222CB6823F4803365
:102CB0001843104BC8601B6853430F4AB3FBF2F331
:102CC00001331A46C868000404D40AB903207047C7
:102CD000013AF7E7002AF9D0054AD16B090403D479
:102CE000002BF3D0013BF8E7002BDBD1EEE700BF70
:102CF000000802462400002040420F0010B50446A0
:102D000040B102230371FEF787F900200123A06080
:102D1000237110BD0120FCE70379012BDAB24FF0DB
:102D2000020305BF037103688360196006BF027167
:102D30000020012070470368186800F4E020704705
:102D40001D494B6BC3F30803013300EE103A8B6A45
:102D5000B8EEC00AC3F30222013207EE902A13F044
:102D6000100218BF8A6BF8EEE76A18BFC2F3CC02F4
:102D700007EE902A03F00303022BB8EEE77A14D093
:102D8000032B15D10C4B1A680C4BC2F30052D340E5
:102D900007EE903AF8EEE77A87EEA66ADFED087A5A
:102DA000A7EE270A26EE000A7047DFED067AF3E762
:102DB000DFED057AF0E700BF000C02460048E801AD
:102DC000000000390024744B000000002DE9F34797
:102DD0000446002864D0714BDE699D6A036806F0E2
:102DE0000C06DF0705F003053AD42368980700F1C5
:102DF00084802368190740F11D81684BD3F8942023
:102E0000520700F1B6800127D3F8942042F0040263
:102E1000C3F89420D3F8943003F004030093009B8C
:102E20005F4DAB6ADB0740F1A680DFF87081A369D4
:102E3000D8F8F050002B40F0BB8025F01055C8F8B2
:102E4000F050FEF783FB0546D8F8F03013F0904FB2
:102E500000F0E880FEF77AFB401B1428F4D936E036
:102E6000082E436803D00C2E1CD1032D1AD1BBB100
:102E7000082EBAD1494AA168136823F488130B437A
:102E800043F4803313601268464BC2F30052D340C0
:102E9000454A1360454B1868FEF7E4FA0028A4D0B1
:102EA000012015E03D4FB3B13A68A16822F48812C1
:102EB0000B4313433B60FEF749FB80463B68990395
:102EC00093D4FEF743FBA0EB08006428F6D9032057
:102ED00002B0BDE8F0873B6823F488133B60FEF73F
:102EE00035FB80463B689A037FF57FAFFEF72EFBEC
:102EF000A0EB08006428F5D9E9E723691EB10C2E80
:102F00000CD1022D0AD1002BCAD0244A6169136961
:102F100023F4F81343EA014313616AE71F4DBBB181
:102F20002B6843F480732B60FEF710FB07462B6879
:102F30005B0507D52B69626923F4F81343EA024362
:102F40002B6156E7FEF702FBC01B0228EFD9BEE754
:102F50002B6823F480732B60FEF7F8FA07462B6882
:102F600058057FF546AFFEF7F1FAC01B0228F6D9E7
:102F7000ADE7002754E7AB6A43F00103AB62FEF70D
:102F8000E5FA8046AB6AD8073FF54FAFFEF7DEFAA9
:102F9000A0EB08000228F5D999E700BF000C024613
:102FA000000802460048E801240000202C00002010
:102FB000590115D5E26905F080539A420CD02A01D7
:102FC0000AD525F08065C8F8F050FEF7BFFA8146B3
:102FD000D8F8F0301B0172D4E36925F080551D4309
:102FE000A369DFF894921D43C9F8F050FEF7AEFADA
:102FF0008246A369D9F8F0204FEA430812EA430257
:1030000064D083F01053DB432B40C9F8F030FEF757
:103010009DFA8146984D88F09048D5F8F03018EA2E
:10302000030F5AD137B1944AD2F8943023F00403F5
:10303000C2F8943023685D0740F18D808E4BD3F841
:103040009420500750D44FF00108D3F8942042F058
:103050000402C3F89420D3F8943003F004030193DE
:10306000019B864DAB6AD90741D5E368824D002BA1
:103070004DD1D5F8F03041F2883923F08103C5F8FD
:10308000F030D5F8F03023F00403C5F8F030FEF747
:103090005DFA0746D5F8F0309B0777D4D5F8F030C5
:1030A00018064ED541F28839734DD5F8F030190520
:1030B00047D5FEF74BFAC01B4845F6D907E7FEF7A0
:1030C00045FAA0EB0900142882D900E7FEF73EFA82
:1030D000A0EB0A0014288CD9F9E6FEF737FAA0EB2A
:1030E0000900142899D9F2E64FF00008B9E7AB6A55
:1030F00043F00103AB62FEF729FA0746AB6ADA0731
:10310000B3D4FEF723FAC01B0228F7D9DFE6D5F8BF
:10311000F02041F2883922F080021343C5F8F030E4
:10312000FEF714FA0746D5F8F0309B0717D5E36889
:1031300041F288391806504D23D5D5F8F0301905DD
:1031400013D5B8F1000F06D04B4AD2F8943023F0D3
:103150000403C2F89430236AFBB90020B8E6FEF7F6
:10316000F5F9C01B4845DED9B1E6FEF7EFF9C01B03
:103170004845E2D9ABE6FEF7E9F9C01B48453FF602
:10318000A6AED5F8F0301A05F5D4DAE7FEF7DEF989
:10319000C01B48457FF67EAF99E60C2E76D0364DA3
:1031A000022B2B6823F080732B6052D1FEF7CEF9EF
:1031B00080462E68FEF7CAF9A0EB080002283FF609
:1031C00086AE16F00077F4D1606AA16A032809BFC1
:1031D0002B4B2C4BC6F30056F340B3FBF1F32A4ABA
:1031E0000139934288BF0C27234A936A23F4E3638F
:1031F00023F007033B43034343EA012343F48023C3
:103200009362236B591E636B013B1B0443EA41230A
:10321000E16A01390B43A16B013943EA016353634E
:10322000E36B2BB1DB009363936A43F0100393626B
:103230001368114D43F080731360FEF787F904465D
:103240002B689A0189D4FEF781F9001B0228F7D96F
:103250003DE6FEF77BF904462B689B0106D4AB6A7A
:1032600023F4E02323F00303AB6276E7FEF76EF965
:10327000001B0228F0D92AE6000C0246000802468C
:103280000048E8010024F40000127A00012B3FF40A
:1032900007AE2349606A8A6A4B6B02F003058542D8
:1032A0007FF4FEADA06AC2F30222013882427FF4AD
:1032B000F7ADE26AC3F30800013A90427FF4F0AD43
:1032C000226BC3F34620013A90427FF4E9AD626B72
:1032D000C3F30640013A90427FF4E2ADA26BC3F320
:1032E0000663013A93427FF4DBAD8B6BE26BC3F371
:1032F000CC039A423FF431AF8B6A0D4623F01003A2
:103300008B62FEF723F90646FEF720F9B042FBD0A8
:10331000E36BDB00AB63AB6A43F01003A4E700BFD1
:10332000000C0246074B10B55C6BFFF709FDFCEE85
:10333000C07A17EE900AC4F306640134B0FBF4F0CF
:1033400010BD00BF000C0246084AD36913F00C03FD
:1033500009D0082B05D113680548C3F30053D840A2
:103360007047FFF7DFBF0348704700BF000C0246FD
:103370000048E8010024F4002DE9F0410D46044620
:1033800010B90120BDE8F081574A136803F00F031C
:103390008B421BD321688F0623D4CE072DD42268FD
:1033A000524B12F002011B6A6ED1560741BFE16811
:1033B00023F070030B43012110076BD5216923F41F
:1033C000E06343EA011349490B6265E0136823F0A7
:1033D0000F030B431360136803F00F038B42D0D12C
:1033E000D8E74248D4E90636D0F80022334322F029
:1033F00017021343C0F80032CFE761683B4A032944
:10340000136831D19801BCD5D36903F00C030C2BA0
:1034100005D0936A23F4401343F480139362334E30
:1034200041F28838F36923F003030B43F361FEF79D
:103430008DF80746F369626803F00C03B3EB820F63
:103440001BD1032AABD1B36A284F23F48013B36294
:10345000FEF77CF80646BB6A5B02A0D4FEF776F85E
:10346000801B0A28F7D90DE0022903D113F4003F8D
:10347000D5D186E713F4806FFAE7FEF767F8C01B33
:103480004045D7D903207DE7A16823F007030B430C
:1034900001218AE7002996D1D30642BF6269134B06
:1034A0005A62114A136803F00F03AB4210D8FFF7BA
:1034B0004BFFBDE8F0410D4B0D4A1B6A03F00703BB
:1034C000D35CD8400B4B18600B4B1868FDF7CABF94
:1034D000136823F00F032B431360136803F00F03EB
:1034E000AB427FF44EAFE2E700200240000C024600
:1034F000B1840208240000202C00002008B5FFF74A
:1035000023FF054B054A1B6A03F00703D35CD84031
:10351000034B186008BD00BF000C0246B1840208CE
:103520002400002008B5FFF7E9FF044B044A1B6A9A
:10353000C3F30213D35CD84008BD00BF000C0246A1
:10354000A984020808B5FFF7D9FF044B044A1B6A97
:10355000C3F30223D35CD84008BD00BF000C024671
:10356000A984020808B5FFF7C9FF044B044A5B6A47
:10357000C3F30213D35CD84008BD00BF000C024661
:10358000A984020803682DE9F743DE07044608D53D
:103590009F494068D1F8E02022F003020243C1F8BD
:1035A000E0209D0708D59A49A068D1F8E02022F0D4
:1035B0000C020243C1F8E020580708D59449E0689E
:1035C000D1F8E02022F440620243C1F8E02019075C
:1035D00008D58F492069D1F8E02022F44022024327
:1035E000C1F8E020DA0608D589496069D1F8E02001
:1035F00022F440120243C1F8E0209F0608D5844916
:10360000A069D1F8E02022F440020243C1F8E02092
:103610005E0608D57E49E069D1F8E02022F000423C
:103620000243C1F8E0201D060FD5794A206AD2F87E
:10363000E41021F0E0010143C2F8E410002840F05A
:10364000C380916A41F480319162D80510D57049E8
:10365000606AD1F8E420B0F5405F22F4405242EABB
:103660000002C1F8E42002BF8A6A42F400328A6292
:10367000990208D56649A06AD1F8E42022F0804278
:103680000243C1F8E4209A0508D56149E06AD1F8FF
:10369000E82022F003020243C1F8E8205F0508D5C4
:1036A0005B49206BD1F8E82022F018020243C1F8F0
:1036B000E8201E0508D55649606BD1F8E82022F0B5
:1036C000C0020243C1F8E820DD0408D55049A06BD0
:1036D000D1F8E82022F440620243C1F8E8209804BF
:1036E00010D54B49E06BD1F8E820B0F5005F22F42B
:1036F000E04242EA0002C1F8E82002BF8A6A42F4CE
:1037000080328A6259044AD5414B226CD3F8F0507A
:1037100005F44075AA4242D0D3F8942052075AD4F7
:103720000127D3F8942042F00402C3F89420D3F880
:10373000943003F004030193019B364EB36A43F0C7
:103740000103B362FDF702FF8046B36ADB0744D58D
:103750002F4AD2F8F03023F440717DB1D2F8F850FE
:10376000D2F8F00040F48030C2F8F000D2F8F00057
:1037700020F48030C2F8F000C2F8F850226C264DD8
:10378000DFF88C800A431D40C8F8F0202FD137B1F4
:103790001F4AD2F8943023F00403C2F89430206812
:1037A00010F4004020D01A4A616CD2F8F03023F4B3
:1037B00040230B43C2F8F030D2F8F00000F4402070
:1037C000401A18BF01200FE020287FF43EAF916A15
:1037D00041F4003138E70027AFE7FDF7B7FEA0EB73
:1037E00008000228B1D9032003B0BDE8F083FDF73B
:1037F000ADFE41F2883906466D00D8F8F0302B4214
:10380000C5D1FDF7A3FE801B4845F6D9EBE700BF05
:10381000000C02460008024601000024044AD2F8C7
:10382000103223F47C1343EA0043C2F8103270478D
:10383000000C0246034AD2F8083243F00203C2F8F1
:1038400008327047000C0246034AD2F8083223F0CF
:103850000203C2F808327047000C024638B504462D
:10386000002839D0437A03F0FF0213B90272FDF742
:10387000E5FB022322686372136823F004031360DC
:103880001168224B0B4061680B4343F0804343F4C3
:1038900000531360136823F080431360FDF756FE56
:1038A000054623681A68510009D41A6842F00402D8
:1038B0001A605B685A0611D5042363720CE0FDF7A9
:1038C00045FE401B0A28ECD923681B685800E8D540
:1038D000012363720223E360012038BDFDF736FE49
:1038E00005462368586810F0040003D10123637271
:1038F000E060F2E7FDF72AFE401B0A28F1D92368B1
:103900005B685B07EDD50423E3E700BFDF1FFFBF64
:1039100090F82C300246012B4FF0020016D0012304
:1039200082F82C300E4B82F82D00B1F5807F99691A
:103930000DD121F488519961596C21F000415964ED
:103940000123002082F82D3082F82C00704721F4EA
:1039500008519961D96C21F00041D964F0E700BFAA
:103960000078004670B50D4C0646E36823F020034E
:10397000E360FDF7EBFD0546E3689B0608D4FDF721
:10398000E5FD401BB0F57A7FF6D9E3689A0601D5CC
:10399000002070BD032086F82D00FAE7007800466D
:1039A000F8B5124D0646EC6814F0400402D000232E
:1039B0001846F8BDEB6843F08003EB60FDF7C6FDE9
:1039C00023460746EC6814F04004F1D1032BEFD0F6
:1039D000FDF7BCFDC01BB0F57A7F2346F2D9EB683A
:1039E0005B06E4D4032386F82D30EBE7007800462D
:1039F00038B50F4C0546E36823F08003E360A36904
:103A00009B0606D4FFF7AEFF10B1032085F82D000A
:103A100038BDA36923F02003A361FFF7A3FF10B112
:103A2000032085F82D00A36943F02003A361EFE78D
:103A30000078004638B5044600284BD090F82D3069
:103A400003F0FF021BB980F82C20FDF723FB0223B3
:103A5000214D84F82D30EB68DB0636D4CA236B6227
:103A6000532320466B62FFF79BFF10B1FF236B626D
:103A700038BDAB69204623F08E6323F04003AB6171
:103A800021696368AA690B431343A2691343AB61BD
:103A9000D4E9022343EA02432B61EA68D4E90931FD
:103AA00022F4F8520B431343EB60FFF7A1FF002809
:103AB000DCD1D4E90713AA690B4322F06042134317
:103AC00062691343AB61FF236B620123002084F81A
:103AD0002D30CDE70120CBE70078004600230928F0
:103AE00003D840EA0310C0B270470A380133C0B2AD
:103AF000F5E700002DE9F84390F82C300546012B3E
:103B00004FF0020060D0012385F82C30494B85F836
:103B10002D00DE6806F44076B6F5807F6AD00C6A28
:103B2000087891F8018091F802909B69002A4DD1A4
:103B300013F0400308BFCB70FFF7D0FF07464046A5
:103B4000FFF7CCFF02464846FFF7C8FF804691F8D2
:103B50002400FFF7C3FF4B6991F803C0234343EAF6
:103B60008C5343EA080343EA074343EA022343EA48
:103B70000063CA6A8869B2F5807F2E4A94693BD196
:103B800024F4885494610124B6F5807FD46509BF7C
:103B9000CB6913640343536418BF5064254B4A68D0
:103BA0001A678A6A012A9A690CBF42F0006222F001
:103BB00000629A619A6942F488529A610020012356
:103BC00085F82C0085F82D30BDE8F88313F040030C
:103BD00008BFCB704B69CA781C4344EA090444EA25
:103BE000004343EA082343EA825391F8242043EA3E
:103BF0000263BEE70023BCE724F408549461022466
:103C0000B6F5807FD46509BFCB6993640343D36461
:103C100018BFD064074B4A685A678A6A012A9A69B2
:103C20000CBF42F0805222F080529A619A6942F4AD
:103C30000852C2E70078004690F82C200346012A7B
:103C40004FF002000CD0074983F82D008A6900204C
:103C500042F020028A61012283F82C0083F82D2093
:103C6000704700BF00780046890001F18C4101F5E2
:103C7000FA410A6070470000D1E9003213430A4A52
:103C8000D361D1E9023213438A691343074A53626D
:103C9000136A086903F0FF234969034343EA0143B8
:103CA00000201362704700BF00780046007C004689
:103CB000036A026A70B522F00102026244688269F6
:103CC0000D6822F4803222F073022A438D6823F0BB
:103CD00002032B43124DA84206D0124EB04203D02D
:103CE00006F58066B04214D1CE6823F00803334352
:103CF000A84223F0040306D00A4DA84203D005F5DC
:103D00008065A84205D124F44075D1E905463443C5
:103D10002C43446082614A684263036270BD00BF05
:103D2000002C014000440140036A026A70B522F48D
:103D3000807202624268C4690D6824F4803424F001
:103D400073042C438D6823F4007343EA05230F4D5D
:103D5000A8420ED1CD6823F4006343EA052323F47F
:103D6000806322F44052D1E90556354342EA0512F8
:103D700006E0074DA842F4D005F58065A842F0D0D2
:103D800042604A68C461C263036270BD002C014096
:103D900000440140036A026A70B522F48052026254
:103DA0004268C4690D6824F0807424F4E64444EA4F
:103DB00005248D6823F4005343EA05330F4DA842D0
:103DC0000ED1CD6823F4004343EA053323F4804346
:103DD00022F44042D1E90556354342EA851206E015
:103DE000074DA842F4D005F58065A842F0D04260A6
:103DF0004A68C4610264036270BD00BF002C0140C8
:103E000000440140026A036A30B523F48033036240
:103E10004468036D0D6823F4803323F070032B4353
:103E20008D6822F4003242EA05420B4DA84207D0C9
:103E300005F5C055A84203D005F58065A84204D118
:103E40004D6924F4803444EA0524446003654B68DA
:103E50008364026230BD00BF002C0140026A036A25
:103E600030B523F4801303624468036D0D6823F0BA
:103E7000807323F4E04343EA05238D6822F40012A3
:103E800042EA05520A4DA84207D005F5C055A8429E
:103E900003D005F58065A84204D14D6924F480243F
:103EA00044EA8524446003654B68C364026230BD04
:103EB000002C014090F83D30012B1FD1022380F8E7
:103EC0003D300368DA6842F00102DA600C4A93423E
:103ED00006D0B3F1804F03D0A2F59432934207D1BC
:103EE0009968084A0A40062A06D0B2F5803F03D0F6
:103EF0001A6842F001021A600020704701207047E2
:103F0000002C0140070001000368DA6822F001027A
:103F1000DA6041F21112196A114208D144F24442A6
:103F2000196A114202BF1A6822F001021A600123C5
:103F300080F83D30002070477047704770477047E9
:103F400070477047036870B5DD681E690446B207A4
:103F50000ED5A9070CD56FF002021A610122027773
:103F60009B699A0700F0A480FFF7E9FF00232377FD
:103F7000730711D568070FD56FF004022368204638
:103F80001A61022222779B6913F4407F00F0968029
:103F9000FFF7D5FF00232377310710D52A070ED569
:103FA0006FF00802236820461A6104222277DB6939
:103FB0009B0700F08980FFF7C2FF00232377F106FB
:103FC00010D5EA060ED56FF01002236820461A615C
:103FD00008222277DB6913F4407F7BD0FFF7AFFF25
:103FE00000232377F30708D5E80706D56FF0010211
:103FF000236820461A61FFF7A0FF16F4025F08D07D
:10400000290606D56FF40252236820461A6100F093
:10401000F6F9F20508D52B0606D56FF480722368F1
:1040200020461A6100F0ECF9700608D5690606D53D
:104030006FF04002236820461A61FFF782FFB20644
:1040400008D5AB0606D56FF02002236820461A611A
:1040500000F0D4F9F00208D5E90206D56FF4801219
:10406000236820461A6100F0CCF9B20208D5AB02F1
:1040700006D56FF40012236820461A6100F0C2F9D9
:10408000700208D5690206D56FF4800223682046C5
:104090001A6100F0B8F9320222D52B0220D56FF454
:1040A000000223682046BDE870401A6100F0ACB9F8
:1040B000FFF744FF2046FFF743FF57E7FFF73EFFB8
:1040C0002046FFF73DFF65E7FFF738FF2046FFF783
:1040D00037FF72E7FFF732FF2046FFF731FF7FE738
:1040E00070BD0000214A10B59042036805D0B0F1C0
:1040F000804F02D01E4CA0420CD14C6823F07003BC
:10410000904243EA04030CD0B0F1804F09D0184A22
:10411000904206D0174A904203D002F58062904246
:1041200003D1CA6823F4407313434A6923F0800320
:10413000134303608B68C3620B6883620B4B984226
:1041400007D003F5C053984203D003F5806398422B
:1041500001D10B690363012343610369DB0742BF9C
:10416000036923F00103036110BD00BF002C01406F
:10417000000400400044014010B5044650B390F8DC
:104180003D3003F0FF021BB980F83C20FCF7AEFF86
:104190000223206884F83D30211DFFF7A3FF01238F
:1041A000002084F8483084F83E3084F83F3084F8AA
:1041B000403084F8413084F8423084F8433084F849
:1041C000443084F8453084F8463084F8473084F829
:1041D0003D3010BD0120FCE738B50D46044630B334
:1041E00090F83D3003F0FF021BB980F83C20FFF748
:1041F000A3FE0223214684F83D3051F8040BFFF75B
:1042000071FF036823F00803036003682B43036016
:104210000123002084F8483084F83E3084F83F3091
:1042200084F8443084F8453084F83D3038BD0120AE
:10423000FCE70000036A026A70B522F01002026215
:10424000426884690D6824F0807424F4E64444EAEA
:1042500005248D6823F0200343EA05130F4DA8427F
:104260000ED1CD6823F0800343EA051323F0400309
:1042700022F44062D1E90556354342EA850206E060
:10428000074DA842F4D005F58065A842F0D0426001
:104290004A6884618263036270BD00BF002C0140E4
:1042A0000044014010B590F83C300446012B29D061
:1042B0000C2A1FD009D8042A14D0082A16D062B1BB
:1042C0000120002384F83C3010BD102A16D0142A97
:1042D000F6D10068FFF7C2FD02E00068FFF7E8FCD6
:1042E0000020EEE70068FFF7A5FFF9E70068FFF799
:1042F0001BFDF5E70068FFF74DFDF1E70068FFF7EC
:1043000081FDEDE70220DFE730B590F83C30044650
:10431000012B4FF0020027D02268144D84F83D0095
:104320005368AA4202BF4D6823F470032B4323F065
:1043300000730D6823F070032B43906853600B4BA0
:104340009A4206D0B2F1804F03D0A3F594339A423B
:1043500004D1896820F080030B439360012300207F
:1043600084F83D3084F83C0030BD00BF002C014093
:1043700010B590F83C300246012B3BD0CB688868E2
:1043800023F440730343486823F4806303430868BD
:1043900023F400630343086923F48053034348690B
:1043A00023F400530343086B23F4804303438869D9
:1043B00023F4702343EA0043C86923F080530E4C72
:1043C00003431068A04210D18C6A23F4700343EABF
:1043D00004530C6A23F0807323434C6A23F0007368
:1043E000C96A234323F000530B434364002082F83F
:1043F0003C0010BD0220FCE7002C014070477047D4
:1044000070477047704770477047000010B50268EA
:1044100052E8003F23F4907342E80031026800291B
:10442000F5D10F4C02F1080353E8003F234002F19D
:10443000080C4CE800310029F4D1C36E012B07D1E0
:1044400052E8003F23F0100342E800310029F7D181
:104450002023C0F88C300023C366436710BD00BF23
:10446000FEFFFFEF38B504462169A26803680A43DE
:1044700061691D68C0690A437C49024329400A43B7
:104480001A605A68E16822F440520A435A60784A36
:10449000A16993421CBF226A11439A6822F06E42BE
:1044A00022F430620A439A60DA6A616A22F00F02EB
:1044B0000A43DA626F4A934219D16F4BD3F8E03066
:1044C00003F00303022B00F0AE80032B24D0012B5A
:1044D00000F0C5800123B0F5004F03F1FF3340F039
:1044E0009180032B14D8DFE803F08513138B634A04
:1044F000934217D1604BD3F8E03003F00C03082B44
:1045000057D007D8002B00F09380042B00F0A78031
:10451000012019E00C2BFBD1B0F5004F4FD04FF428
:1045200000408CE0524A9342F2D1534BD3F8E8302A
:1045300003F00303022B11D0032B37D0012B0AD039
:10454000FFF710F858B900204FF00113A3660023BD
:10455000C4E91D3338BDFEF7F7FEF3E74848494B81
:10456000626A656833F8122005EB4501B0FBF2F38F
:104570009942CDD8B3EB053FCAD800231946FBF7C3
:1045800065FE090241EA10616B080002C0182A4664
:104590004FF0000341F10001FBF758FE3A4BA0F544
:1045A00040729A42B4D82368D860CCE74FF40040F8
:1045B000D5E704238FE7FEF7B5FF0028C3D0314BC2
:1045C000626A616833F812204B08B0FBF2F203EB29
:1045D0004203B3FBF1F34FF6EF72A3F110019142E6
:1045E00096D823F00F02216892B2C3F3420313431B
:1045F000CB60A8E7FEF7A6FFDFE7FEF7A5FEDCE746
:104600001F48DCE7032B83D801A252F823F000BF38
:104610002146000811450008114500082D460008F4
:10462000FEF790FF09E0B0F5004FE9D0144806E02E
:10463000B0F5004FBFD0FEF775FF002883D0616A48
:10464000104A636832F81120B0FBF2F000EB53001F
:10465000B0FBF3F04FF6EF73A0F11002A1E7B0F555
:10466000004FCAD0FEF770FEE7E700BFF369FFCF47
:104670000024004600380140000C0246004400407F
:104680000024F400BA840208FFFC0F00836A10B50E
:104690001A0706D50168846B4A6822F40042224357
:1046A0004A60DC0706D50168C46A4A6822F4003211
:1046B00022434A60990706D50168046B4A6822F4D0
:1046C000803222434A605A0706D50168446B4A6823
:1046D00022F4802222434A60DC0606D50168C46BBE
:1046E0008A6822F4805222438A60990606D50168BE
:1046F000046C8A6822F4005222438A605A0610D55C
:104700000168446C4A68B4F5801F22F4801242EAC2
:1047100004024A6005D14A68846C22F4C002224334
:104720004A601B0606D50268C16C536823F4002357
:104730000B43536010BD2DE9F84304460D46174660
:104740009846DDF820902268D36935EA03030CBF50
:1047500001230023BB4201D0002022E0B9F1FF3F3A
:10476000F2D0FCF7F3FEA0EB0800484529D8B9F1D8
:10477000000F26D021680B685A07E4D5802DE2D0BF
:10478000402DE0D0CE6916F008060CD00825204652
:104790000D62FFF73BFE00230120C4F8905084F81F
:1047A0008430BDE8F883CB691B05CCD54FF400639A
:1047B00020460B62FFF72AFE202384F88460C4F8A9
:1047C00090300320EDE72DE9F7439846D0F8883084
:1047D0000446202B0E46174646D1002946D0002A13
:1047E00044D021230025C0F89050C0F88830FCF751
:1047F000ADFEA3688146B3F5805FA4F85470A4F8B9
:10480000567003D123690BB935461E46B4F85620BD
:104810004B4692B2CDF8008042B940212046FFF7C6
:104820008AFF202348B9C4F8883009E0002280219B
:104830002046FFF780FF30B120230320C4F88830E2
:1048400003B0BDE8F08322685EB935F8023BC3F3DC
:1048500008039362B4F85620013A92B2A4F85620A5
:10486000D4E716F8013BF4E70220E9E70120E7E787
:1048700073B500260446C0F89060FCF767FE236815
:1048800005461B681A071CD56FF07E43324600931D
:104890004FF4001103462046FFF74DFF88B1226810
:1048A00052E8003F23F0800342E800310029F6D1AE
:1048B0002023C4F888300320002384F8843002B019
:1048C00070BD23681B685B0724D56FF07E43002210
:1048D00000934FF480012B462046FFF72CFFC8B110
:1048E000226852E8003F23F4907342E800312268C6
:1048F0000029F5D102F1080353E8003F23F001033A
:1049000002F1080040E800310029F3D12023C4F867
:104910008C30D0E720230020C4F88830C4F88C30D5
:10492000E0662067C8E710B5044670B3D0F8883059
:104930001BB980F88430FCF7FDFB24232268C4F8FF
:104940008830136823F001031360A36A13B1204673
:10495000FFF79CFE2046FFF785FD012815D0236850
:104960002046BDE810405A6822F490425A609A6886
:1049700022F022029A609A6842F008029A601A684D
:1049800042F001021A60FFF773BF012010BD000062
:10499000436E30B52BB90123A0F86A30A0F8683017
:1049A00030BD0368094D9A689968094C490F6B5CE2
:1049B000615CDB00B3FBF1F3C2F34262A0F86A3042
:1049C000AB5CA25CDB00B3FBF2F3E7E7DA8402083E
:1049D000D284020810B590F884300446012B17D019
:1049E0002423C0F8883003681A68196842F000521E
:1049F00021F0010119604FF0005141661A60FFF784
:104A0000C7FF2023C0F88830002084F8840010BD40
:104A10000220FCE770B590F884300446012B17D0D3
:104A200024230568C0F888302E682B6823F0010322
:104A30002B60AB6823F060431943A960FFF7A8FF20
:104A400020232E60C0F88830002084F8840070BDD8
:104A50000220FCE770B590F884300446012B17D093
:104A600024230568C0F888302E682B6823F00103E2
:104A70002B60AB6823F060631943A960FFF788FFE0
:104A800020232E60C0F88830002084F8840070BD98
:104A90000220FCE70023034A1377034A1370034AFA
:104AA000137070473C5900203959002038590020B4
:104AB000034A137F42F8230001331377704700BF86
:104AC0003C59002070B543780446FF2B0CD1B0F858
:104AD000033003F47F43B3F5406F05D100250A4E40
:104AE000327FEBB29A4204D82046BDE8704000F015
:104AF0002FBB204656F82330984701350028EFD0C9
:104B0000023818BF012070BD3C59002001F05CBA8A
:104B100001F088BA01F0FDBA01F0FCBA002208B534
:104B20001146044815F030FD034B1860B0FA80F0D0
:104B3000400908BD7D4B00086059002038B50D4C78
:104B400001F0A7FA23786BB10B4D286815F0F7FE3A
:104B5000022802D0286815F04BFE002008F085FCE2
:104B600028B92070002401F091FA204638BD0124B4
:104B7000F9E700BF5C5900206059002008B5054BDB
:104B8000186815F035FE18B9BDE80840FFF7D6BF24
:104B900008BD00BF6059002001F054B901F066B9AA
:104BA00001F078B901F078B901F086B901F0AAB93D
:104BB00001F0B8B901F0C6B908B101F06DBA01F061
:104BC0007DBA08B101F08CBA01F096BA01F0A0BA32
:104BD00001F0A1BA0820704708B515F0E7FA28B926
:104BE000FFF7ACFF15F018FA01F029F915F0DEFA1D
:104BF00018B9BDE8084001F097BA08BD704708B57C
:104C0000FFF78CFFB0FA80F04009FFF7C9FF01F011
:104C100083FABDE8084001F08DBA000013B50446E0
:104C200001A807F0DDFB019808F027FA204608F0FC
:104C3000A1FC034808F0ABFCFFF7E1FF02B010BD98
:104C4000FD4B0008002313B5104801A9019304F09F
:104C5000FBF801980830FFF735FF044688B101984A
:104C600003F076F9094804F0C2F8014618B914B106
:104C7000042004F089FA0021082004F085FA02B02B
:104C800010BD0199014804F0BCF8EBE776880020DC
:104C900008B51AF08BFE18B9BDE8084001F0CBB892
:104CA00008BD4FF00F0008F07FBC000018B10020D5
:104CB000014902F041BF7047AD4C000830B5CB4808
:104CC0008FB004F091F800210820C94A04F034FBA9
:104CD00000210420C74A04F02FFBFC220021C64813
:104CE00003F0A0FA4FF4FC72C349002002F014FE56
:104CF000002002F08BFE0023FF211A461846009385
:104D000003F0A8FA033002D0032003F0D3FBBB4822
:104D1000BB4B4FF48B54036041F274534360B94B67
:104D2000B94D8360B94BC0E90343B94BC0E90553A2
:104D3000B84BC36180230384002343621AF0D4FD7F
:104D40000546002840F01F810221B34AADF8260035
:104D5000ADF82800ADF82A00ADF8240001F015FAEE
:104D60003423AE4C06222370122363702A23A370CF
:104D7000E123E370082320460CA9CDE90B55ADF8DB
:104D800034502371657122F0C7FE88B9A44BD3F863
:104D9000002A511C00F01681D3F8043A2270120A3E
:104DA00062701A0AE2701A0CA37022711B0E6371F2
:104DB0009A4C2246062100201BF01CFA05460028CA
:104DC00000F05E81034602210020964A01F0DDF9E1
:104DD00010211820944A1BF00DFA0346002800F019
:104DE000648102210020914A01F0CFF910210820AE
:104DF0008F4A1BF0FFF90346002800F05B81022177
:104E000000208C4A01F0C1F9172101201BF002FAA1
:104E10000346002800F0538102210020864A01F059
:104E2000B4F91CF029FE0346002800F04D81022150
:104E30000020824A01F0A9F90DF12A0301930AAB7F
:104E4000009304220DF12603002101201BF010FE27
:104E50000346002800F03D8102210020784A01F03D
:104E600094F9784B00220093BDF828100423BDF874
:104E700026001DF09FF80346002800F02F81022134
:104E80000020714A01F081F909AB0093002202234E
:104E9000BDF82A10BDF826001DF08CF80346002846
:104EA00000F0218102210020684A01F06EF90222FF
:104EB000002011461BF06EF90346002800F018810F
:104EC00002210020624A01F060F90320614C207049
:104ED00020F030FD0346002800F00F810221002061
:104EE0005D4A01F052F94FF480720025628041F270
:104EF00008025A4BA280A36065700122CDE90335F8
:104F00001023CDE9013208232A46009329462B4677
:104F1000284620F019FD0346002800F0F380022106
:104F200028464F4A01F031F9A37853B11CF07AF8C2
:104F30000346002800F0EB8002210020494A01F0DE
:104F400024F9002502210020474A01F01EF9FFF74D
:104F5000A1FD4FF6FF7302212846444AE3822576DD
:104F600001F013F902212846414A01F00EF900F040
:104F70000BFE022128463F4A01F007F9022128468C
:104F80003A4A01F002F900234FF4F0724FF4A07195
:104F90001846CDE90533CDE90333CDE9013300935C
:104FA0001BF0F2FE002840F0B7800A201BF0A6FF9D
:104FB000002840F0B1800B202F490FB0BDE83040F1
:104FC0001BF014BF0BA903F017FC60B90B9B1A7AF6
:104FD00022705A7A62709A7AA270DA7AE2701A7B38
:104FE0005B7B2271E3E6254CE3E600BF7688002078
:104FF000914C0008454C0008708000206459002046
:10500000EC6A00208C5900204005021E4400080074
:105010006F00FB00F8004020E28402087088002046
:105020000000F90B0D8502085B900208EE8502086E
:105030004B9002088A860208268702089487020895
:10504000E88702083B0000203A880208B48802087A
:105050002C890208548800209289020807B20100B6
:10506000FE890208848A0208F48A0208168C020863
:10507000248B02081D8B0208300000206B90020870
:105080000221264A01F081F822786379049262783D
:1050900002210392A27828460292E27801922279B4
:1050A00000921F4A01F071F892E602211D4A01F0B8
:1050B0006CF89BE602211C4A01F067F8A4E6022185
:1050C0001A4A01F062F8ACE60221194A01F05DF8D3
:1050D000B2E60221174A01F058F8C2E60221164A48
:1050E00001F053F8D0E60221144A01F04EF8DEE652
:1050F0000221134A01F049F8E7E60221114A01F0C2
:1051000044F8F0E60221104A01F03FF80CE70221D2
:105110000E4A01F03AF814E70FB030BD6885020876
:10512000B385020844860208E08602086587020803
:10513000C6870208198802087F880208F8880208D2
:1051400067890208D0890208498A0208C48A0208CD
:1051500070B5437804463E2B88B067D0FF2B00F033
:105160004281052B5FD1BE4B8188DA8ABD4E9142C8
:1051700022D1002502212846BB4ADD821D7601F09E
:1051800004F8A37902210093A3882846B74A00F0C7
:10519000FCFF64222946B648357022F0E7FCB54989
:1051A000B34822F015FDB248FBF747F8642382B2FA
:1051B000AF49B148FFF707FB0025012003F0FAFFD4
:1051C00064222946AA48357022F0D0FCAB49A84891
:1051D00022F0FEFCA648FBF730F8A54982B2642312
:1051E000A548FFF7F0FA0123A548037062792379F7
:1051F00043EA0223438000F089FC4FF4A0712B4660
:105200004FF4F0722846CDE90555CDE90355CDE9B7
:10521000015500951BF0B8FD0A201BF06FFE0B2016
:1052200098491BF0E3FD012008B070BDC378013B35
:105230000B2BF8D801A252F823F000BF3D53000811
:10524000275200086D520008275200082752000814
:10525000275200082752000827520008275200084A
:10526000B752000827520008AF52000840F2E2434C
:10527000B0F8075002210020834A5D4300F085FF0B
:105280004FF47A70B5FBF0F30A2100FB1355B5FB20
:10529000F1F5B4F80B2000204A430292B4F809203B
:1052A000022101920095794A00F06FFFBBE70120CF
:1052B00003F080FFB7E740F2E243B0F81B50022151
:1052C0005D43734AB0F80530002000F05EFF637A5A
:1052D00002210493A37A00200393E37A6D4A029398
:1052E000237B0193637B0093A37B00F04EFF4FF47D
:1052F0007A70B5FBF0F30A2100FB1355B5FBF1F50D
:10530000B4F81F2000204A430292B4F81D20022165
:10531000019200955D4A00F038FF514B58481A7EC3
:10532000012A14BF022203221A76B4F80520DA8279
:1053300000234280037000F0E9FB74E740F2E2438F
:10534000B0F80F5002215D43534AB0F805300020F9
:1053500000F01BFF637A02210493A37A00200393D9
:10536000E37A4C4A0293237B0193637B0093A37BF4
:1053700000F00BFF4FF47A70B5FBF0F30A2100FB4D
:105380001355B5FBF1F5B4F8132000204A430292FF
:10539000B4F811200221019200953C4A00F0F5FE7C
:1053A0002F4B37481A7E012A14BF022203221A7695
:1053B000B4F805200024DA820470428000F0A6FBD5
:1053C000642221462A4822F0D1FB3449284822F0A1
:1053D000FFFB2748FAF731FF642382B224492648AD
:1053E000FFF7F1F91FE76FF48062B0F80330134460
:1053F000092B3FF618AF01A252F823F0F55400082C
:10540000355400082752000827520008215500088B
:10541000275200082554000827520008B9540008F4
:10542000315400081E4A0221002000F0AEFEFAE6C8
:105430001C4AF8E7022100201B4A00F0A6FE084B98
:105440001A49D88A20F0E0FA034628B1184A022106
:10545000002000F09AFEE6E6164A0221E5E700BFCA
:10546000548800207F5600204B8B0208758B020861
:1054700001560020B28B020880560020CB8B020818
:105480005088002030000020E48B0208188C0208AD
:10549000878C0208D98C02081D8D0208668D0208CF
:1054A000818D0208A88D0208D78D020807B201007D
:1054B000FD8D0208308E020802210020204A00F0F3
:1054C00064FE02210020D4F807301E4A00F05DFE81
:1054D00002210020D4F807301B4A00F056FE1B4B77
:1054E0000121D88A22F09EF9034608B1184AAEE796
:1054F000184AB2E702210020174A00F046FEE3797D
:1055000043B1227A022100920020144A00F03DFEAD
:10551000134A88E702211846124A00F036FEF7E7E0
:1055200002210020104A00F030FE084BD88A20F0FB
:1055300057FA034608B10D4A89E70D4A8DE700BFC7
:10554000568E0208888E0208A48E02085488002015
:10555000BC8E0208088F0208478F0208718F02086C
:10556000168C0208B08F0208C88F0208E68F020866
:1055700018900208F7B5002406780546042E1A464E
:1055800001942BD11144174B174889B20B31986005
:1055900001AA0220890802F023FC074630B102214B
:1055A0002046124A00F0F1FD912015E0019C002CEC
:1055B000FAD026726B78E91C6372AA7804F10B00AA
:1055C000A27222F012FB2146094803F026FC39465C
:1055D000304603F0D9FD002003B0F0BD022EE3D128
:1055E000F9E700BF60800020A34C00083D9002084E
:1055F000768800200020014902F09EBAAD4C0008D8
:1056000010B543780446FF2B86B002D0002006B0C8
:1056100010BD40F60142B0F8033093421ED040F670
:1056200003429342F2D1642200214E4822F09EFAB6
:105630004D494C4822F0CCFA4A48FAF7FEFD642363
:1056400082B248494948FFF7BEF8B4F80730484AE3
:10565000F32B8CBFF423033B1380D7E76422002194
:10566000404822F083FA43493E4822F0B1FA3D48CF
:10567000FAF7E3FD642382B23A493C48FFF7A3F806
:10568000A27963793C4943EA0223ADF81030B4F8BB
:105690000730ADF812309AB2B4F80B308DF80C30F8
:1056A00004F10D0302934B8802339A4241D1617B8E
:1056B000A9B1012929D0642200212A4822F056FAF2
:1056C0002E49284822F084FA2648FAF7B6FD6423CA
:1056D00082B224492548FFF776F8012097E7642233
:1056E000204822F043FA26491E4822F071FA1D484C
:1056F000FAF7A3FD642382B21A491C48FFF763F846
:1057000001238DF8043001A822E06422002115480D
:1057100022F02CFA1B49134822F05AFA1148FAF7E2
:105720008CFD642382B20F491048FFF74CF8002328
:10573000E7E78B88991C8A420DD1637B1BB1012B53
:10574000CBD10323DDE704238DF804300DEB0300F8
:1057500000F03AF9C1E701339A427FF457AF0223D0
:10576000CFE700BF015600200191020880560020BB
:1057700084880020719002087E880020E79002084B
:105780009A900208BB9002082DE9F04136488AB091
:10579000FFF78EF9354A364B3649CDE906234FF6E9
:1057A0008063354DCDE908130122072302200095BF
:1057B00006A91CF0BFF90346002846D002210020AC
:1057C0002E4A00F0E2FC4FF681632D4E0024CDE915
:1057D00008632C4B012205931023CDE90142CDE94A
:1057E00003340093DFF8BC80274FFF230221288871
:1057F00006AACDE906871CF085FD034650B30221B9
:105800002046224A00F0C1FC4FF682630993204BE8
:10581000002405931023CDE903340123CDE901438E
:10582000142300930221FF23288806AACDE90687C6
:1058300008961CF067FD034688B102212046154AF0
:1058400000F0A3FC0AB0BDE8F0810221124A00F08A
:105850009CFCB8E70221114A00F097FCD4E7022132
:105860000F4A00F092FCEDE7015600088FE5B3D532
:105870002E7F4A982A487ACC7E88002028910208F8
:105880004145228E80880020ED214C9D9C9102088C
:1058900082880020099202086B910208DC910208BC
:1058A0004992020819ED82AE37B50C4605466422CE
:1058B0000021394822F05AF922793849364822F035
:1058C0000BF93548FAF7B9FC642382B232493448FF
:1058D000FEF779FF2DB1012D41D09224204603B06F
:1058E00030BD23682F480093237941882A460088D9
:1058F0001CF060FB044658B30346022128462A4A9E
:1059000000F043FC64220021234822F02FF92749AC
:10591000214822F05DF92048FAF78FFC1E4982B237
:1059200064231F48FEF74FFF642200211A4822F02B
:105930001DF994B11E49184822F04AF91648FAF7A1
:105940007CFC642382B214491548FEF73CFFC5E78E
:105950000221184A00F019FCD4E71749EBE7236845
:105960001048009323798188002200881CF022FBD4
:10597000044660B1034602210020104A00F005FCF5
:1059800000216422044822F0F1F80D49D3E70221F6
:105990000C4A00F0FAFBF3E7015600207692020869
:1059A000805600207E8800209F92020816930208ED
:1059B0002E930208E4920208319302083B930208F6
:1059C000B2930208809302082DE9F0416422044654
:1059D0000021424822F0CAF84149404822F0F8F834
:1059E0003E48FAF72AFC642382B23C493D48FEF760
:1059F000EAFE2378042B6ED8DFE803F003161D5F60
:105A000066000122384B00211A703448642222F0CB
:105A1000ADF83649314822F0DBF83048FAF70DFC92
:105A200064232E4982B235E0002164222B4822F003
:105A30009DF82F49EEE764220021284822F096F8CD
:105A40002C49264822F0C4F82448FAF7F6FB6423D0
:105A500082B222492348FEF7B6FE237A0A2B3AD9AE
:105A6000642200211D4822F081F823491B4822F0BE
:105A7000AFF8642319491A461A48FEF7A4FE002518
:105A80001E4F164EDFF85C80237AAB4207DC64239E
:105A900002221B491348BDE8F041FEF794BE63683B
:105AA00039465A5D304622F017F864230322314606
:105AB0004046FEF788FE0135E6E7002164220748EC
:105AC00022F054F80F49A5E700216422034822F090
:105AD0004DF80D499EE7BDE8F08100BF015600205A
