:020000040800F2
:1000000000000220E58E00087D1100087F11000825
:1000100081110008831100088511000811140008DF
:100020000000000000000000000000008711000830
:1000300089110008000000008B1100088D110008D4
:1000400011140008111400081114000811140008FC
:1000500011140008111400081114000811140008EC
:1000600011140008111400081114000811140008DC
:1000700011140008111400081114000811140008CC
:1000800011140008111400081114000811140008BC
:1000900011140008111400081114000811140008AC
:1000A000111400081114000891110008111400081F
:1000B00011140008A91100081114000811140008F7
:1000C000111400081114000811140008111400087C
:1000D0001114000811140008091200081114000876
:1000E000111400081114000811140008111400085C
:1000F000111400081114000811140008111400084C
:10010000111400081114000811140008111400083B
:10011000111400081114000811140008111400082B
:10012000111400081114000811140008111400081B
:10013000111400089D120008111400081114000881
:100140001114000869120008751200081114000843
:1001500011140008111400081114000811140008EB
:1001600010B5054C237833B9044B13B10448AFF3F1
:1001700000800123237010BDD00400200000000087
:100180009882020808B5034B1BB103490348AFF33B
:10019000008008BD00000000D404002098820208FE
:1001A00070B4840746D04C1E002941D0D5B2034616
:1001B00002E0611EE4B30C4603F8015B9907F8D135
:1001C000032C2ED9D5B245EA05250F2C45EA054565
:1001D00019D9264603F11001103E0F2E41F8105C8C
:1001E00041F80C5C41F8085C41F8045C01F1100135
:1001F000F2D8A4F1100121F00F0104F00F04103126
:10020000032C0B440DD91E4621460439032946F818
:10021000045BFAD8211F21F0030104310B4404F0E0
:1002200003042CB1D2B21C4403F8012BA342FBD12E
:1002300070BC70470C460346C2E7034613F8012B17
:10024000002AFBD1181A01387047000053B94AB987
:10025000002908BF00281CBF4FF0FF314FF0FF30CE
:1002600000F07EB9ADF1080C6DE904CE00F006F89F
:10027000DDF804E0DDE9022304B070472DE9F04F1A
:10028000099D0C46002B4DD18A420F468446964666
:10029000B2FA82F360D94BB102FA03FEC3F1200235
:1002A0009F4000FA03FC20FA02F217434FEA1E4671
:1002B0001FFA8EF44FEA1C42B7FBF6F106FB1177EA
:1002C00001FB04F042EA0742904208D91EEB020209
:1002D00001F1FF3702D2904200F22D813946121A05
:1002E0001FFA8CFCB2FBF6F006FB102200FB04F4B4
:1002F0004CEA024C644508D91EEB0C0C00F1FF32AD
:1003000002D2644500F21A81104640EA0140ACEB8B
:10031000040C002125B12CFA03F30022C5E90032B8
:10032000BDE8F08F8B4205D90DB1C5E90001002170
:100330000846F5E7B3FA83F100294DD1A342C0F096
:10034000F280904280F0EF80064623460846002D5A
:10035000E6D0C5E90063E3E7002B40F0A2808A1AEB
:100360004FEA1E471FFA8EF60121B2FBF7F407FB96
:1003700014204FEA1C4242EA004206FB04F090427D
:100380000FD91EEB020204F1FF382CBF4FF0010918
:100390004FF00009904203D9B9F1000F00F0C88076
:1003A0004446121A1FFA8CFCB2FBF7F007FB10222E
:1003B00000FB06F64CEA024C664508D91EEB0C0C15
:1003C00000F1FF3202D2664500F2BB801046ACEB72
:1003D000060C40EA04409DE7C1F120068B4004FA78
:1003E00001FE22FA06F720FA06FCF4408A401F4379
:1003F0004EEA0C0300FA01FE4FEA17484FEA134990
:100400001FFA87FCB4FBF8F008FB104449EA0444E7
:1004100000FB0CF9A1450ED93C1900F1FF3A2CBFA5
:100420004FF0010B4FF0000BA14503D9BBF1000FBA
:1004300000F093805046A4EB09041FFA83F9B4FB43
:10044000F8F308FB134403FB0CFC49EA0444A445FD
:1004500006D93C1903F1FF3801D2A4457AD84346A6
:1004600043EA0040A4EB0C04A0FB02984445CC46B0
:10047000434602D306D1CE4504D20138B9EB020C73
:1004800068EB07035DB1BEEB0C0264EB030404FAF6
:1004900006F622FA01F3CC401E43C5E900640021B0
:1004A0003EE702FA03FEC3F1200104FA03F200FA68
:1004B00003FCCC404FEA1E4720FA01F11FFA8EF6EA
:1004C000B4FBF7F00A4307FB1044110C41EA044166
:1004D00000FB06F48C420ED91EEB010100F1FF383F
:1004E0002CBF4FF001094FF000098C4202D9B9F13D
:1004F000000F2CD04046091B92B2B1FBF7F407FB6A
:10050000141142EA014204FB06F1914207D91EEBA5
:10051000020204F1FF3801D2914215D84446521A22
:1005200044EA004121E7861A64EB030301200EE749
:10053000023C724435E702397244D0E6F444023892
:10054000E3E6F444023842E7023C7244E7E702384B
:100550007144D0E7023B3C4482E702383C446AE7FE
:10056000704700BF07F024BD800007F0CBBC8900B6
:1005700007F040BD07B5002001A9019008F04EF832
:1005800028B10C2003F010F903B05DF804FB019BC7
:10059000987BF7E770B5414C88B0002005F004FD6A
:1005A000D4F8F430002543F40003C4F8F43008F024
:1005B000E5FD3B4802F018FB032608F09FFA4FF4D4
:1005C0006043CDE90555CDE903360795D4F88C3065
:1005D00003A943F00103C4F88C30D4F88C303148BF
:1005E00003F001030193019B02F01AF91823CDE9EE
:1005F00004650393D4F88C3003A943F00203C4F8D4
:100600008C30D4F88C30284803F002030293029B0C
:1006100002F006F9254807F01DFA20202946244A51
:1006200008F09CFD4FF6FD71224BB3F8A020531E3D
:100630009BB28B429BBF43F6FE7000EBD2001E487C
:10064000400306F081FF002140201C4A08F086FD8F
:10065000002110201A4A08F081FD05F023FA05F068
:10066000CDFE184A0021012008F078FD012108463E
:1006700006F0BAF80021022006F0B6F8002108467C
:1006800006F0B2F804F0E0FA0121022006F0ACF81E
:10069000002005F08AFC002008B070BD000C024666
:1006A000400000300000024200040242000000202E
:1006B0008D7E00080007F90B00C00F08496A00088A
:1006C0004D5C0008796400084FF0FF3008F0B0BCC2
:1006D0007047704770470021102008F067BC002168
:1006E000012008F063BC0000034B0360034B436030
:1006F000034B8360704700BF6F0500086905000861
:10070000650500080021202008F050BC0021402091
:1007100008F04CBCF8B5184F04463B783BB1C10714
:1007200005D50122154B16481A7002F0E3F9154E53
:10073000337843B1A20706D50122134B4021134859
:100740001A7002F00DF9124D2B7843B1630706D5EC
:100750000122104B20210D481A7002F001F93B785C
:100760001BB933780BB92B7823B1BDE8F8400A48A0
:1007700003F066BBF8BD00BF2200002079360020E0
:10078000AC37002021000020783600200000024213
:10079000200000207A3600201037002030B599B0B4
:1007A0004022002108A827F0F3F820220021684603
:1007B00027F0EEF8002002F035FA044608B172B6D0
:1007C000FEE702F009FA194A4FF48011D2F8F0302E
:1007D000102523F0180343F00803C2F8F030072275
:1007E0004FF48033CDE908238123CDE90A134FF478
:1007F000807308A8CDE90C35109402F0ADFA0146DB
:1008000008B172B6FEE73F23CDE900300423CDE9FD
:100810000400CDE90230CDE90605684602F072FD1C
:1008200008B172B6FEE719B030BD00BF000C024639
:1008300000B593B04022002101A827F0A9F84FF499
:10084000004300934FF480236846119302F060FE4A
:1008500008B172B6FEE713B05DF804FB10B588B0BE
:100860001C22002101A827F093F80023114C124A02
:100870007F21C4E90023FF22C4E902124FF0804225
:100880002046C4E90433C4E90723A361636203F08B
:1008900097F808B172B6FEE7CDE904000190069022
:1008A00001A9204603F0AEF908B172B6FEE708B020
:1008B00010BD00BF5C370020007800462DE9F04FE6
:1008C00000244FF001084FF480569DB0AF4D00F06A
:1008D000EDFDFFF74FFEFFF761FFFFF7A9FF1422C1
:1008E00000210FA827F054F8D5F88C30002243F0EF
:1008F0000203C5F88C30D5F88C304FF4805103F0EA
:1009000002030293029BD5F88C30A14843F0010307
:10091000C5F88C30D5F88C304FF4004703F0010354
:100920000393039BD5F88C3043F00403C5F88C3057
:10093000D5F88C3003F004030493049B02F010F804
:1009400000224FF4F071934802F00AF890480FA982
:10095000CDE90F68CDE9114401F062FF4FF4F07367
:100960008C480FA9CDE90F38CDE9114401F058FFAB
:100970004FF4881386480FA9CDE90F73119401F045
:100980004FFF05F013FB224621461A2001F050F9D3
:100990001A2001F07DF9D5F88830214643EA080392
:1009A000C5F88830D5F88830224603EA08031D20B0
:1009B0000193019B01F03CF91D2001F069F9764D8E
:1009C000764B4FF4B861C5E9003404236B614FF4F2
:1009D00080632846CDE90F44C5E90244C5E90B13FD
:1009E000C5E90E641194EC612C612C8385F82040DC
:1009F000C5F8248085F834806C652C6485F8444003
:100A000000F086FD08B172B6FEE7654B1190CDE9A6
:100A10000F300FA9284600F06FFF08B172B6FEE74D
:100A20004FF4E1335F4C604AC4E90200C4E900239B
:100A30000823C4E905303023A3624FF40053C4E90E
:100A40000770206160622046E663236403F031FF93
:100A5000014608B172B6FEE7204603F0A1FF014649
:100A600008B172B6FEE7204603F0BAFF08B172B6CD
:100A7000FEE7204603F074FF08B172B6FEE74B4B69
:100A80004B48036002F000F9034608B172B6FEE776
:100A90004848494AC0E9002302F0A6FE044608B1CE
:100AA00072B6FEE7FFF7DAFE204601F075FF08B1E7
:100AB00072B6FEE701F080FF08B172B6FEE70023D0
:100AC0003E4C3F4A4FF6FF76C4E9002340F2B45251
:100AD0002046CDE90F33C4E90823C4E90A33C4E949
:100AE0000C33A360666101F089FF08B172B6FEE7BE
:100AF000CDE90F00012220460FA902F02AF8054691
:100B000008B172B6FEE7204600F036FA1C222946EC
:100B100008A8CDE90555079526F03AFF3422294665
:100B20000FA826F035FF274C274B2046C4E9003696
:100B30000523C4E903358023A5606561A36103F043
:100B4000E1FA08B172B6FEE70821204603F00AFB7D
:100B500008B172B6FEE720230790CDE9053005A95C
:100B6000204603F097FB024608B172B6FEE7302339
:100B7000CDE90A00CDE90830CDE90C000E9008A9B6
:100B8000204603F055FB08B372B6FEE7000C0246A0
:100B90000004024200000242A83800200010024671
:100BA000002000B47C360020004400400060024079
:100BB000A03700208C37002000080C42AC37002002
:100BC0000094004010370020002C01404FF40053E7
:100BD000CDE914304FF00073CDE90F00CDE91100DD
:100BE000CDE91600CDE91830CDE91A0013900FA910
:100BF000204603F083FB054608B172B6FEE7642287
:100C00000146444826F0C4FE4349424826F0F2FE1D
:100C10004048FFF712FB3F4982B264233F4803F08C
:100C200098FD2846FFF7B6FC6FF001022368072005
:100C30001A61FFF76FFD012239493A4800F076FF4B
:100C4000394FDFF80C81FFF73FFD00F057FC98F8B3
:100C500000303860002B4DD0344A136803F59C53A4
:100C60000833984246D944F23C230024304D4FF0DB
:100C700009092B8040F63E13264640F2494A6B8014
:100C80002C4B1060AC80EC801C70A5F894482A4B6B
:100C90002A4A00209446198805EB440E0CE03EF8E1
:100CA000023B02304FEA132B02F8023C5BFA83F35B
:100CB000334402F801BC9EB2814202F10202EEDC32
:100CC000013104EB51045445C8BF330A1B48C4BF6B
:100CD0008CF8F2608CF8F33004F06AFEB9F1010987
:100CE000D5D10122164B17481A7001F003FF1648A0
:100CF00003F0A6F8154A3968136803F5FA638B42C6
:100D0000A1D298F800301160002B9CD00420FFF78E
:100D100001FD98E7FF350020B08202087C360020F4
:100D200064360020A83800206C3600207036002081
:100D3000A4140020FE3500207C6800200A35002025
:100D400079360020AC3700201037002074360020A0
:100D50007B36002072B6FEE70C4B07B5D3F8942023
:100D6000052142F00402C3F89420D3F89430002205
:100D700003F0040301934220019B00F059FF42203D
:100D800003B05DF804EB00F083BF00BF000C024627
:100D900030B50546B1B01422002103A826F0F8FDB5
:100DA0004822002108A826F0F3FD2A68424B9A4207
:100DB0007FD14FF4005308934FF4804308A8179352
:100DC00002F0A6FB08B1FFF7C5FF3C4B0521D3F8A5
:100DD0009420002442F02002C3F89420D3F89420F9
:100DE000374802F020020192019AD3F88C2042F099
:100DF0000102C3F88C20D3F88C30059403F0010372
:100E00000293029B0323CDE9031303A901F008FD1C
:100E100021234FF48032CDE91A34012329491AA83D
:100E2000CDE91C44CDE91E44CDE92032CDE9233380
:100E3000CDE92544CDE9284427942B9401F0E3FA29
:100E400008B1FFF787FF00211E4A1F4801F032FB5F
:100E500008B1FFF77FFF1C4801F08EFB08B1FFF7D8
:100E600079FF1A4C1A4B204623600023C4E90E3345
:100E7000C4E910338123A36401F020FA08B1FFF71D
:100E800069FF1149114801F0A3FB08B1FFF762FFA8
:100E9000AC6510210D48E56501F075F908B1FFF763
:100EA00059FF00224120114600F0C2FE412000F00F
:100EB000EFFE31B030BD00BF00100246000C02460C
:100EC000000002428C38002074380020FC370020DB
:100ED000500002400268094B82B09A420CD1084B84
:100EE000D3F8882042F48052C3F88820D3F88830A1
:100EF00003F480530193019B02B07047003002401D
:100F0000000C02460268054B9A4201BF044AD2F81F
:100F1000883023F48053C2F8883070470030024094
:100F2000000C024610B5044694B04822002102A8E5
:100F300026F02EFD22680E4B9A4217D10823029309
:100F40004FF4002302A8069302F0E2FA08B1FFF77B
:100F500001FF084BD3F8A02042F02002C3F8A020E4
:100F6000D3F8A03003F020030193019B14B010BD0F
:100F700000940040000C024610B5044686B01422CE
:100F8000002101A826F004FD22680D4B9A4215D1DC
:100F90000C4B0D48D3F88C2001A942F00102C3F894
:100FA0008C20D3F88C3003F001030093009B0223C4
:100FB000CDE901330D23059301F032FC06B010BDDD
:100FC00000940040000C024600000242074B82B031
:100FD000D3F8882042F40032C3F88820D3F8883050
:100FE00003F400330193019B02B07047000C0246EA
:100FF00010B5044694B04822002102A826F0C8FC8F
:1010000022680F4B9A4218D14FF4807302934FF429
:10101000005302A80B9302F07BFA08B1FFF79AFE87
:10102000084BD3F88C2042F48022C3F88C20D3F8EC
:101030008C3003F480230193019B14B010BD00BFDA
:1010400000080C42000C024610B5044694B0482239
:10105000002102A826F09CFC22680F4B9A4218D16E
:101060004FF4804302934FF4807302A8129302F06E
:101070004FFA08B1FFF76EFE084BD3F8A82042F4F0
:101080000012C3F8A820D3F8A83003F4001301938A
:10109000019B14B010BD00BF00780046000C024652
:1010A00007B50F4B02689A4217D10E4B2620D3F892
:1010B000A42042F40062C3F8A4200022D3F8A43094
:1010C000114603F400630193019B00F0B1FD26205B
:1010D00003B05DF804EB00F0DBBD03B05DF804FB8A
:1010E000002C0140000C024610B504469AB01422B0
:1010F000002103A826F04CFC4822002108A826F075
:1011000047FC22681A4B9A4230D1022308930823E5
:1011100008A80A9302F0FCF908B1FFF71BFE154B73
:101120001548D3F89C2003A942F40032C3F89C2050
:10113000D3F89C2002F400320192019AD3F88C205B
:1011400042F00102C3F88C20D3F88C304FF4805267
:1011500003F001030293029B1223CDE90323002332
:10116000CDE905330323079301F05AFB1AB010BDF4
:1011700000440040000C024600000242FEE7FEE789
:10118000FEE7FEE7FEE770477047704700F0AAB938
:1011900008B54FF4004001F0EBFB024A136801333D
:1011A000136008BD6836002008B5134800F02CFF16
:1011B000124B1B78012B12D0022B16D053B9104BB7
:1011C0001B68C3F3890349330E4931F813200132F8
:1011D00021F813200420BDE80840FFF79BBA084B14
:1011E0001B68C3F34A031933EEE7054B1B68C3F3CF
:1011F0000B033333E8E700BFFC370020FE35002047
:1012000064360020A414002008B5114802F060FEE6
:10121000104B1A782AB1002220210F481A7001F0D1
:101220009FFB0E4B1A782AB1002240210A481A70FF
:1012300001F096FB0A4B1A7822B1002209481A7075
:1012400001F074FCBDE80840014802F023BE00BF75
:10125000103700207A360020000002427836002045
:1012600079360020AC370020014800F0A4BA00BF56
:10127000A838002008B5074B1B6803B19847064AF9
:10128000D2F8083223F48033C2F80832BFF36F8FEC
:1012900008BD00BF006A0020000C024638B54FF0C0
:1012A00000530C4CC4F88430BFF34F8FBFF36F8FE3
:1012B000094B1B6803B19847084D2B7833B10022C6
:1012C00005213D2000F0B4FC00232B704FF00053AB
:1012D000636038BD00E100E0FC690020E2690020A5
:1012E0000B4A0346116810B509B90A491160106824
:1012F00009490A4C0344091B8B4206D926F050FBCE
:101300000C2303604FF0FF3010BD1360FCE700BFFB
:101310001439002070A20020000002200004000008
:10132000034AD2F8883043F47003C2F8883070471B
:1013300000ED00E02F48C36903F00C03082B0CD02C
:101340000C2B10D02C4B2B4A2C49126A02F00702AE
:101350008A5CD3402A4A136070470268294BC2F363
:101360000052D340EFE7816A436BC1F3022201329E
:1013700006EE102AC3F30802013207EE902ACA06CD
:1013800048BF826B01F0030145BFC2F3CC0207EEF8
:10139000102ADFED1D6AF8EEC76AC3F3066302295F
:1013A00003F1010322D0032922D1124A1168154A00
:1013B000C1F30051CA4007EE102AB8EEC66AB8EE73
:1013C000C77AF8EEE77AC7EE065A9FED107AE6EE96
:1013D000877A65EEA76A07EE903AB8EEE77AC6EE2E
:1013E000877AFCEEE77A17EE903AACE7024AE2E73A
:1013F0000022E0E7000C02460024F400C382020849
:10140000240000200048E80100000000000000392E
:10141000FEE7000038B5214B05461A780AB90120CD
:1014200038BD4FF0E023186910F0040016D04FF4D7
:101430007A73B3FBF2F21A4B1868B0FBF2F000F0CB
:1014400047FC04460028EAD1024629464FF0FF3007
:1014500000F0EEFB134B20461D60E1E7124BD3F882
:10146000E03003F44003B3F5800F07D0B3F5000F6D
:101470000DD0002BE3D14FF4FA53DAE74FF47A732F
:10148000B3FBF2F24FF4FA43B3FBF2F0D7E74FF4B9
:101490007A73B3FBF2F24FF40043F5E72800002023
:1014A000240000202C000020000C02460C4A10B53D
:1014B0001368032043F48073136000F0A7FBFFF769
:1014C00039FF042000F022FC0F20FFF7A3FF0446A1
:1014D00018B9FFF741FC204610BD0124FBE700BF0F
:1014E00000200240034A044B11681B780B44136030
:1014F000704700BF1839002028000020014B1868F1
:10150000704700BF183900208068C0F38000704722
:10151000F8B5044668B3056E25B9FFF739FC656672
:1015200084F85C5022689368DF0025D44FF4805320
:101530001360936823F0104323F0170343F08053A4
:101540009360FFF7DBFF054623681B68D80413D4BC
:10155000FFF7D4FF401B0128F6D923681B68DE047F
:10156000F2D4236E43F010032366636E43F001034D
:10157000636601252846F8BD23689A681846D1009D
:101580005FBF226E012542F01002226657BF626ED5
:10159000002542F001026266FFF7B6FF226E02F0FC
:1015A0001002104340F0A780226E22F4817242F0B4
:1015B000020222669A68D20722D4DA68A16822F071
:1015C0000C020A43DA6094F84420606D012A07D1C6
:1015D000226DA16C02430A43E16C0A4342F0010010
:1015E0001969474A474E0A4002431A61D6F8081360
:1015F000626821F4701102F470120A43C6F80823DD
:10160000A26B94F82070003A18BF0122267E1103C5
:101610007A0342EA8632E66894F834E03243266977
:1016200042EA4E02002EA8BF4FF4001C42EA01021B
:1016300094F82810B8BF26F0004C012942EA0C02A9
:1016400003D1002F3AD142F48032E16A21B1276BF5
:1016500001F4E07139430A43DF682B4939401143F3
:10166000D9601F692649394001431961586C617E70
:10167000E76920F003003943014359645969E06B7D
:1016800021F00701014359615969206C21F0700173
:1016900041EA00115961D6B9996A61F00F01996266
:1016A000D9681A4B0B40934221D100236366236E05
:1016B00023F0030343F0010323665BE7216E41F04F
:1016C00020012166616E41F001016166BDE7B6F55A
:1016D000001FE5D16FF00F00996A616A0139890036
:1016E00001F01C0100FA01F1A06E0143D7E7236E5F
:1016F00023F0120336E7236E43F01003236638E726
:1017000002FCFFDF001002460D82DEFFF3FF3F8385
:101710007047704708B5C06DFFF7FBFF08BD704705
:101720007047C06D08B5036E43F040030366436E17
:1017300043F004034366FFF7F3FF08BDC36D10B524
:101740001A6E12F0500F1A6E2AD142F400721A6605
:101750001A68D16811F4406F15D193F8201091B92F
:10176000116809070FD51046FFF7CEFE78B951680A
:1017700021F00C0151601A6E22F4807222F00102F5
:1017800042F001021A661846FFF7C2FF10BD1A6E3A
:1017900042F020021A665A6E42F001025A66F2E7DF
:1017A000D20603D51846FFF7BBFFEFE79B6DBDE8F8
:1017B00010409B6E1847036870B51E680446B0075A
:1017C0005D680ED5A9070CD5236E2046DA065EBFEC
:1017D000236E43F40063236600F016FA02222368A6
:1017E0001A60730701D5680703D431072AD52A0781
:1017F00028D5236EDB065EBF236E43F40073236699
:101800002368DA6812F4406F16D194F820209AB950
:101810001A68100710D51846FFF776FE002861D128
:101820005A6822F00C025A60236E23F4807323F06E
:10183000010343F0010323662046FFF769FF0C22F2
:1018400023681A6031060BD52A0609D5236E204677
:1018500043F480332366FFF762FF802223681A6017
:10186000F3050CD5E8050AD5236E204643F4003372
:10187000236600F0C7F94FF4807223681A60B1053F
:101880000CD5AA050AD5236E204643F4802323668F
:1018900000F0B9F94FF4007223681A60F30615D509
:1018A000E80613D5A36B1BB12368DB6899070AD040
:1018B000236E204643F480632366636E43F0020385
:1018C0006366FFF72DFF102223681A60F20408D523
:1018D000EB0406D5204600F098F94FF480522368B7
:1018E0001A6070BD236E43F020032366636E43F0DD
:1018F00001036366A0E700000023F7B5019390F8A9
:101900005C300246012B00F0AB80012304680669BD
:1019100080F85C302046FFF7F7FD002840F09A8001
:10192000D1E90035022D26F0100071D0B0F1004F42
:10193000C3F3110E35D1A06A40EA0E00A062896897
:10194000606901EA032121F07C4121F0FF0120EAD6
:1019500003200143002B61611DDA4249424DD1F859
:101960000803AB4200F4400443D1000213D4D1F881
:10197000083323F44003234343F40003C1F808333E
:101980003A4B19683A4BB1FBF3F10C2301FB0333DB
:101990000193019B53BB0020002382F85C3003B00D
:1019A000F0BD4FF00F0C906E05F01F070CFA07FC0E
:1019B0006FEA0C0620EA0C0CBEF1000F11D1C3F344
:1019C0008460B84040EA0C009066AD08506A01356A
:1019D0008542B4D8A56AC3F38360B8402E40304333
:1019E000ACE793FAA3F0B0FA80F0EAE7019B013B81
:1019F000CEE7204DAB42CED14302CCD4D1F8083350
:101A000023F44003234343F48003C1F80833C2E7BF
:101A1000B0F1004F01BFA16AC3F311008143A1627D
:101A2000002BB8DA104C0F48A342D0F8081309D1A4
:101A3000D0F8083301F4800123F440031943C0F8BF
:101A40000813A8E70B4CA342A5D1D0F8083301F442
:101A50000001F1E7116E184641F0200111669BE785
:101A600002209CE700100246002000B42400002061
:101A7000400D030001000080002373B5026801934C
:101A800093680446DD0702D5002002B070BD91685E
:101A9000214B194209D0236E012043F01003236625
:101AA000636E43F001036366EFE7936823F000433E
:101AB00023F0170343F001039360184BD3F8083366
:101AC00018021CD4637E012BDED0FFF717FD0546FC
:101AD000134E22681368DB07D6D49368D9075FBF1B
:101AE0009368334043F001039360FFF707FD401B09
:101AF0000228EED923681B68DA07EAD4CBE7094B42
:101B0000094A1B68B3FBF2F301330193019B002BDD
:101B1000D8D0019B013BF8E7170000800010024677
:101B2000E8FFFF7F24000020400D0300F8B50468A3
:101B3000054620460F461646FFF7E6FC002859D119
:101B400095F85C30012B55D0012385F85C30E368B3
:101B5000D8070ED4A368D90707D5A36823F000439C
:101B600023F0170343F00203A360E36843F001038B
:101B7000E3602846FFF780FF0446002831D1286E35
:101B80001D4B20F4706020F0010040F48070286646
:101B9000A86D6C660366194B29684366184B83660B
:101BA0001C230B6085F85C404B68026D43F010030A
:101BB00012064B604FEA860315D5426FC2B1126818
:101BC000B2B14031C2E90317936000F0CDFB044687
:101BD0002A68936823F0004323F0170343F00403BB
:101BE00093602046F8BD3A46403100F0CFF9EEE769
:101BF0000124EDE70224F4E73D170008151700085B
:101C00002317000870477047704770470749030261
:101C1000CA6803F4E06322F4E0621204120C134376
:101C200043F0BF6343F40033CB60704700ED00E046
:101C3000154B30B5DC68C4F30224C4F10703251D3D
:101C4000042B28BF0423062D4FF0FF3594BF00243A
:101C5000033C05FA03F321EA0303A54022EA050247
:101C6000A340002843EA0203ACBF00F16040074AEA
:101C70004FEA0313DBB2ABBF00F5614000F00F0089
:101C800080F80033135430BD00ED00E014ED00E0A7
:101C9000002807DB01234109034A00F01F008340AD
:101CA00042F82130704700BF00E100E000280CDB63
:101CB00001220649430900F01F008240203341F809
:101CC0002320BFF34F8FBFF36F8F704700E100E019
:101CD0000138B0F1807F3FBF4FF0E0235861002012
:101CE000986137BF1A69012042F003021A617047F8
:101CF000002808DB01224309034900F01F0082404D
:101D0000403341F82320704700E100E0042818D850
:101D1000DFE800F00A18261703004FF0E0221369ED
:101D200043F00403136170474FF0E022136923F07E
:101D300004031361114AD2F8E03023F44003C2F8DF
:101D4000E03070474FF0E022136923F00403136181
:101D50000A4AD2F8E03023F4400343F48003EEE76C
:101D60004FF0E022136923F004031361034AD2F811
:101D7000E03023F4400343F40003E0E7000C0246A4
:101D8000F0B50C4622F00305066897080D44A542FD
:101D900008D112F003021ED0012A14D111F8273005
:101DA000337018E0637894F800C01B0443EA0C63B6
:101DB00094F803C0043443EA0C0314F802CC43EA59
:101DC0000C233360E3E76B78022A11F8272043EAFB
:101DD0000223338002D103681868F0BDAB78DFE7D7
:101DE00000230068F0B555088E1C9D4206D1D3072C
:101DF00044BF31F8253003800068F0BD31F823700E
:101E000036F82340013344EA07440460EDE700005C
:101E100010B5044608B9012010BD437F03F0FF024E
:101E200013B90277FFF756F8022363772379E3B9F2
:101E30002368134A5A619A6822F018029A606279FC
:101E40002368D2B94FF0FF321A619A68616922F0B3
:101E500060020A439A609A68A16922F080020A43EC
:101E60009A60012300206377D6E72046D4E9021266
:101E700000F065F80028E2D0CDE72269E4E700BF72
:101E8000B71DC10438B5054698B1437F022BDCB2BB
:101E90000DD002230024437703689A6842F00102C0
:101EA0009A605A685C60FFF72DF86C772C772046B3
:101EB00038BD0124FBE770B502264677066A044662
:101EC000022E15D0032E05D0012E0ED000200123A6
:101ED000637770BD036801EB8205A94201D11868E0
:101EE000F5E751F8042B1A60F7E7FFF749FFEEE733
:101EF000FFF776FFEBE7F8B502264677066804465B
:101F0000B76847F00107B760076A022F14D0032FA4
:101F100005D0012F0DD0002001236377F8BD01EB20
:101F20008205A94201D13068F6E751F8043B3360DD
:101F3000F7E7FFF725FFEFE7FFF752FFECE7CB07E7
:101F400010B50DD51F23013B1DD321FA03F4E4077F
:101F5000F9D5102A13D0102A04D83AB1082A10D083
:101F600001200BE0182AFBD1062BF9D8006841614B
:101F7000836823F0180313438360002010BD072BF0
:101F8000F3E70F2BF1E7102AE5D1E9E730B5002898
:101F900036D090F84C40012C34D0012480F84C40CD
:101FA00090F85440012C4FF0000425D1022580F810
:101FB0005450846504689BB2A56C2D0C2D041D4300
:101FC0004FF4FE43A564E360E1642265636943F472
:101FD000BA436361436E1BB1636943F40073636189
:101FE000036F1BB1636943F40053636100206369AD
:101FF00043F00103636130BD402380F84C408365AA
:102000000120F8E70220F6E70121036810B523F468
:102010007F6222F00F020446D068C3F30B02503AED
:10202000C2F3C41201FA02F2024200F0AB801A6954
:10203000500508D55A69520505D54FF48062DA601B
:10204000A26D0A43A2651A69100509D55A691105DE
:1020500006D54FF40062DA60A26D42F00202A2657A
:102060001A69D20409D55A69D00406D54FF48052B2
:10207000DA60A26D42F00402A2651A69510409D522
:102080005A69520406D54FF48042DA60A26D42F0DC
:102090000802A2651A69900509D55A69910506D505
:1020A0004FF40072DA60636E0BB1204698472368E4
:1020B0001A6992042ED55A6990042BD54FF4005218
:1020C000DA6094F85420042A1DD15A69216D22F453
:1020D00000525A615A69090642F002025A614FF0F1
:1020E000010248BF616F84F8542042BF0A73002286
:1020F0009A64002384F84C30E36E002B42D02046D3
:10210000BDE810401847052384F85430236F0BB105
:102110002046984723681A69D20518D55A69D00510
:1021200015D5226D110626D5DA6F32B99A6C22B90F
:102130000122616F84F854200A734FF44072DA6010
:10214000002384F84C30236E0BB120469847A36DD2
:10215000C3B12268536943F0020353610123226D26
:1021600084F85430120644BF626F1373002384F85E
:102170004C30A36EC1E79A6C002ADED1012284F8AC
:102180005420DAE710BDD0B1CB0601D4002070474F
:102190000368012023F47F62C3F30B0322F00F02D4
:1021A00001F01101503B1129C3F3C413516800FA27
:1021B00003F30CBF0B4321EA03035360E6E701205E
:1021C000704741EA0203034318B949B9002A18BF0E
:1021D00010465840B0F5803F34BF002001207047C2
:1021E0000846F6E740B1037E49B97AB1107E9842BD
:1021F00014BF03200020704731B10B7EF5E7097E44
:102200009942F2D002207047084670471046704746
:102210002DE9F043D0F808C0176889B300254FF6C0
:10222000FC762B462C464FF6FC7EDFF88C800E4069
:102230004FEA870964453BD09E420CD001684CBBF5
:1022400001EA0E030134F5E7016894B901EA0603D7
:1022500001346445F8D101689460090C09040B430A
:10226000D36053F827300D435560D3B90020BDE843
:10227000F08308EB030501EA0E0169581D46E5E706
:102280000D460B460C464FF6FC76DFF82CE04FEA85
:102290008708DEE709EB030501EA080169581D46D6
:1022A000CEE723F003031B041B0C0B431361DDE794
:1022B0009E42D0D00120DAE70000FFFF38B5044687
:1022C000FFF71CF90546002C49D0002384F84C3058
:1022D0000223226884F85430536943F006035361A3
:1022E00023685A69D20730D4D4E90E1211431D4A2B
:1022F000934214D08032934211D0803293420ED058
:10230000803293420BD08032934208D08032934285
:1023100005D08032934202D08032934201D1226CA8
:10232000114300205A6922F443020A435A61626C45
:1023300018645A649864D8641865D867A36CA0655B
:102340002365012384F854300AE0FFF7D7F8401BD7
:102350000528C5D91023A365032384F85430012030
:1023600038BD00BF50000240034630B5002848D0B9
:10237000416F002945D090F854001A68012854692B
:10238000C5B203D0022D37D1E00335D593F8540000
:102390000128C4B22AD193F84C0001284FF0020062
:1023A00029D083F8540083F84C40087300209865C6
:1023B0000861506940F4BA405061586E18B15069D4
:1023C00040F4007050611B6F1BB1536943F400531C
:1023D00053610B68190C23F003031B041B0C43F01F
:1023E0007843090443F480331160D36700205369B4
:1023F00043F00103536130BD40229A65002283F807
:102400004C200120F7E7F0B5002851D000294FD02B
:10241000C369456902681D43C36B12F0200445EA95
:102420000305036945EA0305836945EA03050D6071
:1024300010D0836AC66A876B013B1B053E4303F0DD
:102440007C733343466A013E360106F47C7633439F
:102450002B430B604368056B23F4E0739B059B0DD6
:102460002B43C5684B60B5F5806F1BD114B143F4A5
:1024700080634B60436C4BB1046C23434C68234333
:10248000846C240404F4F81423434B60B0F85430F3
:1024900042F4A0628B60C36CCB60036D00200B61C3
:1024A0008A61F0BDB5F5007FE4D143F40073E0E745
:1024B0000120F6E7F0B50E461546044687B028B170
:1024C00022B14369012B04D104232361012007B009
:1024D000F0BD07683846FFF774FE08B10523F4E73E
:1024E0003846FFF77FFE0028EED1022323732061D8
:1024F0009FB93EB9012322600020A360012320611F
:102500002373E4E722F003052D042D0C45F07845F4
:1025100045F4803526607561EEE766B927F003075C
:102520003F043F0C47F0784747F4803757612260FB
:10253000A3680133E0E705233146204601AA019351
:10254000FFF766FE98B94FF6FC70A368039F094930
:1025500005EA00029F4242EA010206D1636813B114
:1025600003400B436B617261E2E77369FAE706238C
:10257000ABE700BF000001F870B5044686B018B1A3
:10258000066826B902232361012006B070BD4568A4
:102590001DB1AE421AD00423F5E74369012BFAD0EE
:1025A00002230373052301AA294605610193FFF75E
:1025B0002FFE4FF6FC733340049A43F0784343F404
:1025C0008033536101232561666023730020DCE7BB
:1025D00070B169B190F8543090F85420DBB2022AFF
:1025E00001D0052B06D140238365002380F84C30B1
:1025F000012070470B7B022B02D101230B61F7E70F
:10260000026D4B68812A02D11BB90423F6E7002B27
:10261000FBD1416700207047084A10B5936A43F028
:1026200001039362EFF3108272B60023CC58C450BA
:102630000433102BFAD182F3108810BD0020024021
:10264000094A10B5936A43F4804343F0010393624F
:10265000EFF3108272B60023CC58C4500433802BA1
:10266000FAD182F3108810BD00200240064B9A6A0E
:10267000002ABFBF054A9A6002F188329A60BABF49
:10268000986AC00F00207047002002402301674570
:10269000044B9A6A42F000429A62986AC043C00FA3
:1026A000704700BF0020024070B50546FEF726FFC8
:1026B000104C4619236A13F4403F0BD142F2FA0240
:1026C000236A13400ED001200B494A681A434A601E
:1026D000236270BD6A1CEDD0FEF710FFB042E9D353
:1026E0000320F6E7236A0020DB0744BF01232362AF
:1026F000EFE700BF002002401C390020F8B5154D5F
:1027000004462B780E46012B174620D001232B7050
:1027100000234FF47A706B60FFF7C6FF88B9AC6096
:1027200024F00044012C394630460DD1FFF774FFE8
:102730004FF47A70FFF7B8FF074A936A23EA04035D
:10274000936200232B70F8BDFFF77AFFF0E70220B9
:10275000F9E700BF1C39002000200240064A936AB6
:1027600023F4813323F4FD7343EAC00343F480333D
:1027700043F0020393627047002002402DE9F041CC
:10278000254E054633788846012B43D0012333700C
:1027900000234FF47A707360FFF786FF0446E8B9B0
:1027A0002B68B36023F00043042B1CD11B4A4FF469
:1027B0007A70936A43F4803343F004039362FFF723
:1027C00073FF04462B68154923F000438A6A23F4FB
:1027D0007E7343F47E7322EA03038B62002333701B
:1027E0002046BDE8F0814FF0FF33C8F800306F6835
:1027F000D5E901321344BB42E4D93846FFF7AEFFB6
:102800004FF47A70FFF750FF10B1C8F80070D8E7A6
:102810000137EDE70224E3E71C39002000200240E5
:102820002DE9F74F4C4B4FF00F0903EA902301932A
:1028300000234A4C0A6832FA03F502D103B0BDE81E
:10284000F08F012505FA03F818EA020200F08280F1
:1028500003274E684FEA430E06F0030507FA0EFC05
:102860006F1E012F6FEA0C0C32D8876807EA0C0A3A
:10287000CF6807FA0EF747EA0A078760476827EA32
:102880000808C6F300179F4047EA08074760C76873
:10289000022D07EA0C088F6807FA0EF747EA0807C7
:1028A000C76017D14FEAD30800EB880803F0070A86
:1028B000D8F820704FEA8A0A09FA0AFB27EA0B0BBC
:1028C0000F6907FA0AF747EA0B07C8F8207001E01A
:1028D000032DDCD1076805FA0EF507EA0C073D4326
:1028E00016F4403F056035D023F0030707F18C480C
:1028F00003F00305019FED0009FA05FE07FA05F54F
:10290000D74308F50838D8F860C016F4801F2CEAC1
:102910000E0C45EA0C05C8F8605025680CBF3D4018
:1029200015432560656816F4001F0CBF3D40154334
:102930006560D4F8845016F4003F0CBF3D40154349
:10294000C4F88450D4F88050F60354BF3D4015437A
:10295000C4F8805001336DE77F7F2F0000200246CE
:102960000AB181617047816270477047704700000B
:1029700038B5084D0446EB68034202D0E860FFF723
:10298000F4FF2B691C4203D020462C61FFF7EEFFB9
:1029900038BD00BF002002460146064A106810F00C
:1029A000010009BF1368012023F004030B4308BF93
:1029B0001360704700040340034A0020136843F08B
:1029C00001031360704700BF0004034044F6206217
:1029D000094B10B51B680468B3FBF2F34FF47A722D
:1029E000002053432268013B08BF032031EA020262
:1029F00001D0002BF6D110BD24000020F8B504460C
:102A0000002872D090F84A3003F0FF021BB980F81A
:102A10004920FEF787FA02234FF48071256884F875
:102A20004A302B69204643F001032B61636B6960D8
:102A3000AB62FFF7CBFF032801D10320F8BD1021C3
:102A4000236A69602046AB61FFF7C0FF0328F4D01A
:102A5000EB6A9A0706D4EB6A9B035EBF2B6923F0EF
:102A600001032B616168EB680129A06A02D0B0F50F
:102A7000000F01D123F01E034FF6FF7662691C4F51
:102A8000B24218BF23F46043A66818BF23F0C00306
:102A90001F4041EA00033343666A33433B43E9B9CD
:102AA000E169266931430B43B0F5000F18D04FF6AA
:102AB000FF718A4204D0A1690A43E1690A431343C2
:102AC000EB60D4E90B3213436B620123002084F8DE
:102AD0004B3084F84C3084F84A30AFE70129E3D119
:102AE000D4E9031001430B43E1E70120A6E700BF4F
:102AF000FEF139FF022380F84A30D0E90032012A82
:102B000007D0826AB2F5000F02BFDA6822F4606271
:102B1000DA601A6942F001021A611A6942F004028D
:102B20001A61012380F84A3000207047022380F8A0
:102B30004A300368DA6A910706D4DA6A92035EBF04
:102B40001A6922F001021A61012380F84A3000203C
:102B500070470B46022170B5054680F84A1032B125
:102B6000012A19D00123002085F84A3013E00821FA
:102B700004685A68E66A1B6826F00D0646EA820673
:102B8000226942F00102226161606361FFF71EFF6A
:102B9000032815D1032070BD4FF4002104685A6842
:102BA000E66A1B6826F4502646EA8246226942F00D
:102BB0000102226161606363FFF708FF0028E9D129
:102BC000E36A9A0706D4E36A9B035EBF236923F096
:102BD00001032361E662C5E7024A936A43F00103F9
:102BE00093627047000802460D49C3B28A6910B566
:102BF00022EA030242EA10228A61CA6993FAA3F127
:102C0000B1FA81F10324490004FA01F122EA010238
:102C100042EA1040024AD06151690B43536110BD32
:102C2000000802461549CB6B03F48033834201D17F
:102C3000002070473222CB6823F480331843104BB6
:102C4000C8601B6853430F4AB3FBF2F301331A46C3
:102C5000C868000404D40AB903207047013AF7E7B2
:102C6000002AF9D0054AD16B090403D4002BF3D014
:102C7000013BF8E7002BDBD1EEE700BF000802467E
:102C80002400002040420F0010B5044640B102234A
:102C90000371FEF79BF900200123A060237110BD92
:102CA0000120FCE70379012BDAB24FF0020305BFE4
:102CB000037103688360196006BF02710020012060
:102CC00070470368186800F4E02070471D494B6B9B
:102CD000C3F30803013300EE103A8B6AB8EEC00A62
:102CE000C3F30222013207EE902A13F0100218BF3C
:102CF0008A6BF8EEE76A18BFC2F3CC0207EE902A9F
:102D000003F00303022BB8EEE77A14D0032B15D19E
:102D10000C4B1A680C4BC2F30052D34007EE903AAA
:102D2000F8EEE77A87EEA66ADFED087AA7EE270AC3
:102D300026EE000A7047DFED067AF3E7DFED057A4D
:102D4000F0E700BF000C02460048E801000000392F
:102D50000024744B000000002DE9F34704460028CE
:102D600064D0714BDE699D6A036806F00C06DF07CC
:102D700005F003053AD42368980700F1848023689E
:102D8000190740F11D81684BD3F89420520700F1D8
:102D9000B6800127D3F8942042F00402C3F89420AF
:102DA000D3F8943003F004030093009B5F4DAB6AAB
:102DB000DB0740F1A680DFF87081A369D8F8F050F6
:102DC000002B40F0BB8025F01055C8F8F050FEF7FE
:102DD00095FB0546D8F8F03013F0904F00F0E880EE
:102DE000FEF78CFB401B1428F4D936E0082E43680C
:102DF00003D00C2E1CD1032D1AD1BBB1082EBAD191
:102E0000494AA168136823F488130B4343F48033C1
:102E100013601268464BC2F30052D340454A136018
:102E2000454B1868FEF7F6FA0028A4D0012015E0FB
:102E30003D4FB3B13A68A16822F488120B431343A3
:102E40003B60FEF75BFB80463B68990393D4FEF73B
:102E500055FBA0EB08006428F6D9032002B0BDE8BA
:102E6000F0873B6823F488133B60FEF747FB8046FE
:102E70003B689A037FF57FAFFEF740FBA0EB0800AD
:102E80006428F5D9E9E723691EB10C2E0CD1022D77
:102E90000AD1002BCAD0244A6169136923F4F813BC
:102EA00043EA014313616AE71F4DBBB12B6843F44A
:102EB00080732B60FEF722FB07462B685B0507D566
:102EC0002B69626923F4F81343EA02432B6156E746
:102ED000FEF714FBC01B0228EFD9BEE72B6823F4D2
:102EE00080732B60FEF70AFB07462B6858057FF5B9
:102EF00046AFFEF703FBC01B0228F6D9ADE700275B
:102F000054E7AB6A43F00103AB62FEF7F7FA804681
:102F1000AB6AD8073FF54FAFFEF7F0FAA0EB080019
:102F20000228F5D999E700BF000C024600080246C6
:102F30000048E801240000202C000020590115D58C
:102F4000E26905F080539A420CD02A010AD525F097
:102F50008065C8F8F050FEF7D1FA8146D8F8F03015
:102F60001B0172D4E36925F080551D43A369DFF886
:102F700094921D43C9F8F050FEF7C0FA8246A36947
:102F8000D9F8F0204FEA430812EA430264D083F0F4
:102F90001053DB432B40C9F8F030FEF7AFFA8146FF
:102FA000984D88F09048D5F8F03018EA030F5AD1C0
:102FB00037B1944AD2F8943023F00403C2F8943025
:102FC00023685D0740F18D808E4BD3F89420500725
:102FD00050D44FF00108D3F8942042F00402C3F813
:102FE0009420D3F8943003F004030193019B864DA1
:102FF000AB6AD90741D5E368824D002B4DD1D5F896
:10300000F03041F2883923F08103C5F8F030D5F86B
:10301000F03023F00403C5F8F030FEF76FFA0746EE
:10302000D5F8F0309B0777D4D5F8F03018064ED598
:1030300041F28839734DD5F8F030190547D5FEF7C0
:103040005DFAC01B4845F6D907E7FEF757FAA0EB33
:103050000900142882D900E7FEF750FAA0EB0A0015
:1030600014288CD9F9E6FEF749FAA0EB09001428D8
:1030700099D9F2E64FF00008B9E7AB6A43F00103D3
:10308000AB62FEF73BFA0746AB6ADA07B3D4FEF74A
:1030900035FAC01B0228F7D9DFE6D5F8F02041F257
:1030A000883922F080021343C5F8F030FEF726FA83
:1030B0000746D5F8F0309B0717D5E36841F2883909
:1030C0001806504D23D5D5F8F030190513D5B8F1B1
:1030D000000F06D04B4AD2F8943023F00403C2F814
:1030E0009430236AFBB90020B8E6FEF707FAC01B4C
:1030F0004845DED9B1E6FEF701FAC01B4845E2D9E2
:10310000ABE6FEF7FBF9C01B48453FF6A6AED5F887
:10311000F0301A05F5D4DAE7FEF7F0F9C01B4845A0
:103120007FF67EAF99E60C2E76D0364D022B2B68BB
:1031300023F080732B6052D1FEF7E0F980462E68B1
:10314000FEF7DCF9A0EB080002283FF686AE16F089
:103150000077F4D1606AA16A032809BF2B4B2C4B7E
:10316000C6F30056F340B3FBF1F32A4A0139934208
:1031700088BF0C27234A936A23F4E36323F00703F1
:103180003B43034343EA012343F480239362236BCD
:10319000591E636B013B1B0443EA4123E16A013979
:1031A0000B43A16B013943EA01635363E36B2BB11A
:1031B000DB009363936A43F0100393621368114D2D
:1031C00043F080731360FEF799F904462B689A0167
:1031D00089D4FEF793F9001B0228F7D93DE6FEF7E4
:1031E0008DF904462B689B0106D4AB6A23F4E023D7
:1031F00023F00303AB6276E7FEF780F9001B022899
:10320000F0D92AE6000C0246000802460048E80110
:103210000024F40000127A00012B3FF407AE23498A
:10322000606A8A6A4B6B02F0030585427FF4FEAD4B
:10323000A06AC2F30222013882427FF4F7ADE26A4B
:10324000C3F30800013A90427FF4F0AD226BC3F360
:103250004620013A90427FF4E9AD626BC3F3064029
:10326000013A90427FF4E2ADA26BC3F30663013AE8
:1032700093427FF4DBAD8B6BE26BC3F3CC039A42DA
:103280003FF431AF8B6A0D4623F010038B62FEF7DB
:1032900035F90646FEF732F9B042FBD0E36BDB00AE
:1032A000AB63AB6A43F01003A4E700BF000C024617
:1032B000074B10B55C6BFFF709FDFCEEC07A17EE0B
:1032C000900AC4F306640134B0FBF4F010BD00BFF3
:1032D000000C0246084AD36913F00C0309D0082BEE
:1032E00005D113680548C3F30053D8407047FFF772
:1032F000DFBF0348704700BF000C02460048E801EA
:103300000024F4002DE9F0410D46044610B90120D7
:10331000BDE8F081574A136803F00F038B421BD3BB
:1033200021688F0623D4CE072DD42268524B12F089
:1033300002011B6A6ED1560741BFE16823F070039A
:103340000B43012110076BD5216923F4E06343EAA5
:10335000011349490B6265E0136823F00F030B4327
:103360001360136803F00F038B42D0D1D8E74248B3
:10337000D4E90636D0F80022334322F01702134373
:10338000C0F80032CFE761683B4A0329136831D1A6
:103390009801BCD5D36903F00C030C2B05D0936ABC
:1033A00023F4401343F480139362334E41F2883880
:1033B000F36923F003030B43F361FEF79FF807461D
:1033C000F369626803F00C03B3EB820F1BD1032A8D
:1033D000ABD1B36A284F23F48013B362FEF78EF8A3
:1033E0000646BB6A5B02A0D4FEF788F8801B0A2859
:1033F000F7D90DE0022903D113F4003FD5D186E7B8
:1034000013F4806FFAE7FEF779F8C01B4045D7D96F
:1034100003207DE7A16823F007030B4301218AE71E
:10342000002996D1D30642BF6269134B5A62114AF2
:10343000136803F00F03AB4210D8FFF74BFFBDE852
:10344000F0410D4B0D4A1B6A03F00703D35CD840D3
:103450000B4B18600B4B1868FDF7DCBF136823F0AB
:103460000F032B431360136803F00F03AB427FF489
:103470004EAFE2E700200240000C0246C382020881
:10348000240000202C00002008B5FFF723FF054B87
:10349000054A1B6A03F00703D35CD840034B18604E
:1034A00008BD00BF000C0246C382020824000020B1
:1034B00008B5FFF7E9FF044B044A1B6AC3F3021384
:1034C000D35CD84008BD00BF000C0246BB82020896
:1034D00008B5FFF7D9FF044B044A1B6AC3F3022364
:1034E000D35CD84008BD00BF000C0246BB82020876
:1034F00008B5FFF7C9FF044B044A5B6AC3F3021324
:10350000D35CD84008BD00BF000C0246BB82020855
:1035100003682DE9F743DE07044608D59F49406854
:10352000D1F8E02022F003020243C1F8E0209D0719
:1035300008D59A49A068D1F8E02022F00C02024395
:10354000C1F8E020580708D59449E068D1F8E02098
:1035500022F440620243C1F8E020190708D58F49E0
:103560002069D1F8E02022F440220243C1F8E02093
:10357000DA0608D589496069D1F8E02022F44012C2
:103580000243C1F8E0209F0608D58449A069D1F81C
:10359000E02022F440020243C1F8E0205E0608D594
:1035A0007E49E069D1F8E02022F000420243C1F8F0
:1035B000E0201D060FD5794A206AD2F8E41021F0E8
:1035C000E0010143C2F8E410002840F0C380916A92
:1035D00041F480319162D80510D57049606AD1F804
:1035E000E420B0F5405F22F4405242EA0002C1F804
:1035F000E42002BF8A6A42F400328A62990208D546
:103600006649A06AD1F8E42022F080420243C1F862
:10361000E4209A0508D56149E06AD1F8E82022F053
:1036200003020243C1F8E8205F0508D55B49206B1F
:10363000D1F8E82022F018020243C1F8E8201E0564
:1036400008D55649606BD1F8E82022F0C002024349
:10365000C1F8E820DD0408D55049A06BD1F8E82076
:1036600022F440620243C1F8E820980410D54B4987
:10367000E06BD1F8E820B0F5005F22F4E04242EAC6
:103680000002C1F8E82002BF8A6A42F480328A62EE
:1036900059044AD5414B226CD3F8F05005F44075DB
:1036A000AA4242D0D3F8942052075AD40127D3F823
:1036B000942042F00402C3F89420D3F8943003F02D
:1036C00004030193019B364EB36A43F00103B362D6
:1036D000FDF714FF8046B36ADB0744D52F4AD2F8C2
:1036E000F03023F440717DB1D2F8F850D2F8F000F8
:1036F00040F48030C2F8F000D2F8F00020F48030BE
:10370000C2F8F000C2F8F850226C264DDFF88C8029
:103710000A431D40C8F8F0202FD137B11F4AD2F814
:10372000943023F00403C2F89430206810F4004071
:1037300020D01A4A616CD2F8F03023F440230B43B6
:10374000C2F8F030D2F8F00000F44020401A18BF60
:1037500001200FE020287FF43EAF916A41F4003150
:1037600038E70027AFE7FDF7C9FEA0EB0800022805
:10377000B1D9032003B0BDE8F083FDF7BFFE41F2ED
:10378000883906466D00D8F8F0302B42C5D1FDF7D8
:10379000B5FE801B4845F6D9EBE700BF000C02469A
:1037A0000008024601000024044AD2F8103223F433
:1037B0007C1343EA0043C2F810327047000C024603
:1037C000034AD2F8083243F00203C2F808327047C5
:1037D000000C0246034AD2F8083223F00203C2F872
:1037E00008327047000C024638B50446002839D02C
:1037F000437A03F0FF0213B90272FDF7F9FB0223CB
:1038000022686372136823F0040313601168224B6B
:103810000B4061680B4343F0804343F40053136053
:10382000136823F080431360FDF768FE05462368A4
:103830001A68510009D41A6842F004021A605B68E1
:103840005A0611D5042363720CE0FDF757FE401BA6
:103850000A28ECD923681B685800E8D50123637255
:103860000223E360012038BDFDF748FE05462368CA
:10387000586810F0040003D101236372E060F2E79E
:10388000FDF73CFE401B0A28F1D923685B685B0703
:10389000EDD50423E3E700BFDF1FFFBF90F82C3016
:1038A0000246012B4FF0020016D0012382F82C3083
:1038B0000E4B82F82D00B1F5807F99690DD121F46E
:1038C00088519961596C21F000415964012300200D
:1038D00082F82D3082F82C00704721F4085199614C
:1038E000D96C21F00041D964F0E700BF00780046B0
:1038F00070B50D4C0646E36823F02003E360FDF746
:10390000FDFD0546E3689B0608D4FDF7F7FD401B67
:10391000B0F57A7FF6D9E3689A0601D5002070BD2C
:10392000032086F82D00FAE700780046F8B5124D1E
:103930000646EC6814F0400402D000231846F8BD97
:10394000EB6843F08003EB60FDF7D8FD23460746A4
:10395000EC6814F04004F1D1032BEFD0FDF7CEFD5D
:10396000C01BB0F57A7F2346F2D9EB685B06E4D43E
:10397000032386F82D30EBE70078004638B50F4C6E
:103980000546E36823F08003E360A3699B0606D441
:10399000FFF7AEFF10B1032085F82D0038BDA369F5
:1039A00023F02003A361FFF7A3FF10B1032085F8E4
:1039B0002D00A36943F02003A361EFE700780046E0
:1039C00038B5044600284BD090F82D3003F0FF02A4
:1039D0001BB980F82C20FDF737FB0223214D84F81A
:1039E0002D30EB68DB0636D4CA236B6253232046A6
:1039F0006B62FFF79BFF10B1FF236B6238BDAB69B1
:103A0000204623F08E6323F04003AB612169636895
:103A1000AA690B431343A2691343AB61D4E90223A0
:103A200043EA02432B61EA68D4E9093122F4F852EF
:103A30000B431343EB60FFF7A1FF0028DCD1D4E96F
:103A40000713AA690B4322F06042134362691343D0
:103A5000AB61FF236B620123002084F82D30CDE79A
:103A60000120CBE7007800460023092803D840EA6C
:103A70000310C0B270470A380133C0B2F5E7000046
:103A80002DE9F84390F82C300546012B4FF0020049
:103A900060D0012385F82C30494B85F82D00DE6875
:103AA00006F44076B6F5807F6AD00C6A087891F803
:103AB000018091F802909B69002A4DD113F04003D8
:103AC00008BFCB70FFF7D0FF07464046FFF7CCFF9B
:103AD00002464846FFF7C8FF804691F82400FFF7EA
:103AE000C3FF4B6991F803C0234343EA8C5343EA75
:103AF000080343EA074343EA022343EA0063CA6A2E
:103B00008869B2F5807F2E4A94693BD124F48854A9
:103B100094610124B6F5807FD46509BFCB69136435
:103B20000343536418BF5064254B4A681A678A6A76
:103B3000012A9A690CBF42F0006222F000629A6189
:103B40009A6942F488529A610020012385F82C007A
:103B500085F82D30BDE8F88313F0400308BFCB7023
:103B60004B69CA781C4344EA090444EA004343EA27
:103B7000082343EA825391F8242043EA0263BEE714
:103B80000023BCE724F4085494610224B6F5807F36
:103B9000D46509BFCB6993640343D36418BFD06471
:103BA000074B4A685A678A6A012A9A690CBF42F031
:103BB000805222F080529A619A6942F40852C2E718
:103BC0000078004690F82C200346012A4FF00200AE
:103BD0000CD0074983F82D008A69002042F02002AA
:103BE0008A61012283F82C0083F82D20704700BFE2
:103BF00000780046890001F18C4101F5FA410A6024
:103C000070470000D1E9003213430A4AD361D1E979
:103C1000023213438A691343074A5362136A0869DD
:103C200003F0FF234969034343EA01430020136281
:103C3000704700BF00780046007C0046036A026AB5
:103C400070B522F001020262446882690D6822F4B4
:103C5000803222F073022A438D6823F002032B4343
:103C6000124DA84206D0124EB04203D006F580662F
:103C7000B04214D1CE6823F008033343A84223F0A6
:103C8000040306D00A4DA84203D005F58065A8427A
:103C900005D124F44075D1E9054634432C434460F2
:103CA00082614A684263036270BD00BF002C01401C
:103CB00000440140036A026A70B522F48072026215
:103CC0004268C4690D6824F4803424F073042C43E2
:103CD0008D6823F4007343EA05230F4DA8420ED1EB
:103CE000CD6823F4006343EA052323F4806322F4C0
:103CF0004052D1E90556354342EA051206E0074D28
:103D0000A842F4D005F58065A842F0D042604A6828
:103D1000C461C263036270BD002C014000440140D5
:103D2000036A026A70B522F4805202624268C46972
:103D30000D6824F0807424F4E64444EA05248D6878
:103D400023F4005343EA05330F4DA8420ED1CD684A
:103D500023F4004343EA053323F4804322F4404232
:103D6000D1E90556354342EA851206E0074DA842DF
:103D7000F4D005F58065A842F0D042604A68C4617D
:103D80000264036270BD00BF002C0140004401408A
:103D9000026A036A30B523F4803303624468036D1A
:103DA0000D6823F4803323F070032B438D6822F4D5
:103DB000003242EA05420B4DA84207D005F5C05536
:103DC000A84203D005F58065A84204D14D6924F4CA
:103DD000803444EA0524446003654B6883640262CE
:103DE00030BD00BF002C0140026A036A30B523F4E5
:103DF000801303624468036D0D6823F0807323F41D
:103E0000E04343EA05238D6822F4001242EA05529A
:103E10000A4DA84207D005F5C055A84203D005F5C4
:103E20008065A84204D14D6924F4802444EA8524A5
:103E3000446003654B68C364026230BD002C0140DE
:103E400090F83D30012B1FD1022380F83D300368EC
:103E5000DA6842F00102DA600C4A934206D0B3F10C
:103E6000804F03D0A2F59432934207D19968084A53
:103E70000A40062A06D0B2F5803F03D01A6842F005
:103E800001021A600020704701207047002C014099
:103E9000070001000368DA6822F00102DA6041F2EB
:103EA0001112196A114208D144F24442196A1142AE
:103EB00002BF1A6822F001021A60012380F83D3027
:103EC00000207047704770477047704770477047D1
:103ED000036870B5DD681E690446B2070ED5A907F0
:103EE0000CD56FF002021A61012202779B699A07D2
:103EF00000F0A480FFF7E9FF00232377730711D5B3
:103F000068070FD56FF00402236820461A61022269
:103F100022779B6913F4407F00F09680FFF7D5FF6E
:103F200000232377310710D52A070ED56FF008023A
:103F3000236820461A6104222277DB699B0700F080
:103F40008980FFF7C2FF00232377F10610D5EA0628
:103F50000ED56FF01002236820461A6108222277DE
:103F6000DB6913F4407F7BD0FFF7AFFF002323779B
:103F7000F30708D5E80706D56FF00102236820464D
:103F80001A61FFF7A0FF16F4025F08D0290606D5D4
:103F90006FF40252236820461A6100F0F6F9F20528
:103FA00008D52B0606D56FF48072236820461A6167
:103FB00000F0ECF9700608D5690606D56FF04002EE
:103FC000236820461A61FFF782FFB20608D5AB06C8
:103FD00006D56FF02002236820461A6100F0D4F95C
:103FE000F00208D5E90206D56FF480122368204656
:103FF0001A6100F0CCF9B20208D5AB0206D56FF415
:104000000012236820461A6100F0C2F9700208D538
:10401000690206D56FF48002236820461A6100F019
:10402000B8F9320222D52B0220D56FF400022368A2
:104030002046BDE870401A6100F0ACB9FFF744FFBC
:104040002046FFF743FF57E7FFF73EFF2046FFF705
:104050003DFF65E7FFF738FF2046FFF737FF72E7C0
:10406000FFF732FF2046FFF731FF7FE770BD00000A
:10407000214A10B59042036805D0B0F1804F02D0BC
:104080001E4CA0420CD14C6823F07003904243EACE
:1040900004030CD0B0F1804F09D0184A904206D0EA
:1040A000174A904203D002F58062904203D1CA6859
:1040B00023F4407313434A6923F0800313430360DE
:1040C0008B68C3620B6883620B4B984207D003F581
:1040D000C053984203D003F58063984201D10B6925
:1040E0000363012343610369DB0742BF036923F0D4
:1040F0000103036110BD00BF002C0140000400401B
:104100000044014010B5044650B390F83D3003F030
:10411000FF021BB980F83C20FCF7C2FF0223206895
:1041200084F83D30211DFFF7A3FF0123002084F810
:10413000483084F83E3084F83F3084F8403084F8CA
:10414000413084F8423084F8433084F8443084F8B5
:10415000453084F8463084F8473084F83D3010BD4F
:104160000120FCE738B50D46044630B390F83D30E9
:1041700003F0FF021BB980F83C20FFF7A3FE0223E7
:10418000214684F83D3051F8040BFFF771FF0368B6
:1041900023F00803036003682B430360012300201E
:1041A00084F8483084F83E3084F83F3084F8443056
:1041B00084F8453084F83D3038BD0120FCE700002C
:1041C000036A026A70B522F01002026242688469D2
:1041D0000D6824F0807424F4E64444EA05248D68D4
:1041E00023F0200343EA05130F4DA8420ED1CD68FA
:1041F00023F0800343EA051323F0400322F44062D6
:10420000D1E90556354342EA850206E0074DA8424A
:10421000F4D005F58065A842F0D042604A68846118
:104220008263036270BD00BF002C01400044014066
:1042300010B590F83C300446012B29D00C2A1FD031
:1042400009D8042A14D0082A16D062B1012000230C
:1042500084F83C3010BD102A16D0142AF6D100681C
:10426000FFF7C2FD02E00068FFF7E8FC0020EEE780
:104270000068FFF7A5FFF9E70068FFF71BFDF5E70A
:104280000068FFF74DFDF1E70068FFF781FDEDE7FE
:104290000220DFE730B590F83C300446012B4FF0A8
:1042A000020027D02268144D84F83D005368AA42CA
:1042B00002BF4D6823F470032B4323F000730D6895
:1042C00023F070032B43906853600B4B9A4206D047
:1042D000B2F1804F03D0A3F594339A4204D1896898
:1042E00020F080030B4393600123002084F83D30CD
:1042F00084F83C0030BD00BF002C014010B590F8A0
:104300003C300246012B3BD0CB68886823F44073D5
:104310000343486823F480630343086823F400637D
:104320000343086923F480530343486923F400538B
:104330000343086B23F480430343886923F4702309
:1043400043EA0043C86923F080530E4C03431068CE
:10435000A04210D18C6A23F4700343EA04530C6A20
:1043600023F0807323434C6A23F00073C96A23430C
:1043700023F000530B434364002082F83C0010BD3F
:104380000220FCE7002C01407047704770477047DF
:10439000704770477047000010B5026852E8003F50
:1043A00023F4907342E8003102680029F5D10F4CE4
:1043B00002F1080353E8003F234002F1080C4CE8E7
:1043C00000310029F4D1C36E012B07D152E8003F20
:1043D00023F0100342E800310029F7D12023C0F870
:1043E0008C300023C366436710BD00BFFEFFFFEFA4
:1043F00038B504462169A26803680A4361691D68EB
:10440000C0690A437C49024329400A431A605A683A
:10441000E16822F440520A435A60784AA169934203
:104420001CBF226A11439A6822F06E4222F4306265
:104430000A439A60DA6A616A22F00F020A43DA627A
:104440006F4A934219D16F4BD3F8E03003F0030366
:10445000022B00F0AE80032B24D0012B00F0C5808E
:104460000123B0F5004F03F1FF3340F09180032B9F
:1044700014D8DFE803F08513138B634A934217D1F6
:10448000604BD3F8E03003F00C03082B57D007D86B
:10449000002B00F09380042B00F0A780012019E08E
:1044A0000C2BFBD1B0F5004F4FD04FF400408CE007
:1044B000524A9342F2D1534BD3F8E83003F003034E
:1044C000022B11D0032B37D0012B0AD0FFF710F8A5
:1044D00058B900204FF00113A3660023C4E91D332F
:1044E00038BDFEF7F7FEF3E74848494B626A656856
:1044F00033F8122005EB4501B0FBF2F39942CDD819
:10450000B3EB053FCAD800231946FBF79FFE09020B
:1045100041EA10616B080002C0182A464FF0000300
:1045200041F10001FBF792FE3A4BA0F540729A422E
:10453000B4D82368D860CCE74FF40040D5E7042313
:104540008FE7FEF7B5FF0028C3D0314B626A616880
:1045500033F812204B08B0FBF2F203EB4203B3FB3B
:10456000F1F34FF6EF72A3F11001914296D823F0C8
:104570000F02216892B2C3F342031343CB60A8E752
:10458000FEF7A6FFDFE7FEF7A5FEDCE71F48DCE746
:10459000032B83D801A252F823F000BFAD450008D9
:1045A0009D4400089D440008B9450008FEF790FFAF
:1045B00009E0B0F5004FE9D0144806E0B0F5004F2F
:1045C000BFD0FEF775FF002883D0616A104A636888
:1045D00032F81120B0FBF2F000EB5300B0FBF3F027
:1045E0004FF6EF73A0F11002A1E7B0F5004FCAD06B
:1045F000FEF770FEE7E700BFF369FFCF0024004637
:1046000000380140000C0246004400400024F40041
:10461000CC820208FFFC0F00836A10B51A0706D58A
:104620000168846B4A6822F4004222434A60DC0736
:1046300006D50168C46A4A6822F4003222434A60FF
:10464000990706D50168046B4A6822F48032224338
:104650004A605A0706D50168446B4A6822F48022F2
:1046600022434A60DC0606D50168C46B8A6822F4DE
:10467000805222438A60990606D50168046C8A68D4
:1046800022F4005222438A605A0610D50168446C15
:104690004A68B4F5801F22F4801242EA04024A609C
:1046A00005D14A68846C22F4C00222434A601B068A
:1046B00006D50268C16C536823F400230B43536092
:1046C00010BD2DE9F84304460D4617469846DDF81F
:1046D00020902268D36935EA03030CBF012300232D
:1046E000BB4201D0002022E0B9F1FF3FF2D0FCF73D
:1046F00005FFA0EB0800484529D8B9F1000F26D0E6
:1047000021680B685A07E4D5802DE2D0402DE0D017
:10471000CE6916F008060CD0082520460D62FFF77A
:104720003BFE00230120C4F8905084F88430BDE89B
:10473000F883CB691B05CCD54FF4006320460B6290
:10474000FFF72AFE202384F88460C4F89030032009
:10475000EDE72DE9F7439846D0F888300446202B42
:104760000E46174646D1002946D0002A44D02123C0
:104770000025C0F89050C0F88830FCF7BFFEA36851
:104780008146B3F5805FA4F85470A4F8567003D145
:1047900023690BB935461E46B4F856204B4692B2F3
:1047A000CDF8008042B940212046FFF78AFF202340
:1047B00048B9C4F8883009E0002280212046FFF77C
:1047C00080FF30B120230320C4F8883003B0BDE857
:1047D000F08322685EB935F8023BC3F308039362A5
:1047E000B4F85620013A92B2A4F85620D4E716F84D
:1047F000013BF4E70220E9E70120E7E773B5002673
:104800000446C0F89060FCF779FE236805461B68F3
:104810001A071CD56FF07E43324600934FF4001107
:1048200003462046FFF74DFF88B1226852E8003F5B
:1048300023F0800342E800310029F6D12023C4F898
:1048400088300320002384F8843002B070BD2368D0
:104850001B685B0724D56FF07E43002200934FF462
:1048600080012B462046FFF72CFFC8B1226852E892
:10487000003F23F4907342E8003122680029F5D10B
:1048800002F1080353E8003F23F0010302F108009E
:1048900040E800310029F3D12023C4F88C30D0E760
:1048A00020230020C4F88830C4F88C30E0662067EC
:1048B000C8E710B5044670B3D0F888301BB980F84B
:1048C0008430FCF711FC24232268C4F88830136874
:1048D00023F001031360A36A13B12046FFF79CFE87
:1048E0002046FFF785FD012815D023682046BDE846
:1048F00010405A6822F490425A609A6822F02202CC
:104900009A609A6842F008029A601A6842F00102BE
:104910001A60FFF773BF012010BD0000436E30B571
:104920002BB90123A0F86A30A0F8683030BD0368C5
:10493000094D9A689968094C490F6B5C615CDB0012
:10494000B3FBF1F3C2F34262A0F86A30AB5CA25C45
:10495000DB00B3FBF2F3E7E7EC820208E482020833
:1049600010B590F884300446012B17D02423C0F8EA
:10497000883003681A68196842F0005221F001017A
:1049800019604FF0005141661A60FFF7C7FF2023FE
:10499000C0F88830002084F8840010BD0220FCE7B5
:1049A00070B590F884300446012B17D02423056895
:1049B000C0F888302E682B6823F001032B60AB68A9
:1049C00023F060431943A960FFF7A8FF20232E605E
:1049D000C0F88830002084F8840070BD0220FCE715
:1049E00070B590F884300446012B17D02423056855
:1049F000C0F888302E682B6823F001032B60AB6869
:104A000023F060631943A960FFF788FF20232E601D
:104A1000C0F88830002084F8840070BD0220FCE7D4
:104A20000023034A1377034A1370034A1370704735
:104A3000383900203539002034390020034A137FEB
:104A400042F8230001331377704700BF3839002044
:104A500070B543780446FF2B0CD1B0F8033003F453
:104A60007F43B3F5406F05D100250A4E327FEBB28C
:104A70009A4204D82046BDE8704000F02FBB204683
:104A800056F82330984701350028EFD0023818BF78
:104A9000012070BD3839002001F0A8B901F0D4B967
:104AA00001F049BA01F048BA002208B5114604489D
:104AB00015F07CFC034B1860B0FA80F0400908BD8B
:104AC000094B00085C39002038B50D4C01F0F3F9B2
:104AD00023786BB10B4D286815F043FE022802D0F5
:104AE000286815F097FD002008F0D1FB28B9207048
:104AF000002401F0DDF9204638BD0124F9E700BFAC
:104B0000583900205C39002008B5054B186815F0AD
:104B100081FD18B9BDE80840FFF7D6BF08BD00BF4A
:104B20005C39002001F0A0B801F0B2B801F0C4B8BF
:104B300001F0C4B801F0D2B801F0F6B801F004B940
:104B400001F012B908B101F0B9B901F0C9B908B161
:104B500001F0D8B901F0E2B901F0ECB901F0EDB91A
:104B60000820704708B515F033FA28B9FFF7ACFFF5
:104B700015F064F901F075F815F02AFA18B9BDE8D6
:104B8000084001F0E3B908BD704708B5FFF78CFF96
:104B9000B0FA80F04009FFF7C9FF01F0CFF9BDE896
:104BA000084001F0D9B9000013B5044601A807F088
:104BB00029FB019808F073F9204608F0EDFB034843
:104BC00008F0F7FBFFF7E1FF02B010BD894B0008CA
:104BD000002313B5104801A9019304F047F8019888
:104BE0000830FFF735FF044688B1019803F0C2F89A
:104BF000094804F00EF8014618B914B1042004F075
:104C0000D5F90021082004F0D1F902B010BD0199B6
:104C1000014804F008F8EBE76E68002008B51AF0C8
:104C2000D7FD18B9BDE8084001F017B808BD4FF02E
:104C30000F0008F0CBBB000018B10020014902F0C2
:104C40008DBE7047394C000830B5CB488FB003F0AB
:104C5000DDFF00210820C94A04F080FA0021042069
:104C6000C74A04F07BFAFC220021C64803F0ECF9A5
:104C70004FF4FC72C349002002F060FD002002F0F6
:104C8000D7FD0023FF211A461846009303F0F4F9DC
:104C9000033002D0032003F01FFBBB48BB4B4FF493
:104CA0008B54036041F274534360B94BB94D836038
:104CB000B94BC0E90343B94BC0E90553B84BC361D5
:104CC00080230384002343621AF020FD0546002858
:104CD00040F01F810221B34AADF82600ADF828004C
:104CE000ADF82A00ADF8240001F061F93423AE4C90
:104CF00006222370122363702A23A370E123E3703A
:104D0000082320460CA9CDE90B55ADF8345023718A
:104D1000657122F013FE88B9A44BD3F8002A511C08
:104D200000F01681D3F8043A2270120A62701A0A4F
:104D3000E2701A0CA37022711B0E63719A4C22460A
:104D4000062100201BF068F90546002800F05E816E
:104D5000034602210020964A01F029F9102118206B
:104D6000944A1BF059F90346002800F0648102219F
:104D70000020914A01F01BF9102108208F4A1BF0F6
:104D80004BF90346002800F05B81022100208C4A89
:104D900001F00DF9172101201BF04EF90346002800
:104DA00000F0538102210020864A01F000F91CF036
:104DB00075FD0346002800F04D8102210020824A43
:104DC00001F0F5F80DF12A0301930AAB00930422D8
:104DD0000DF12603002101201BF05CFD0346002895
:104DE00000F03D8102210020784A01F0E0F8784B84
:104DF00000220093BDF828100423BDF826001CF003
:104E0000EBFF0346002800F02F8102210020714AA9
:104E100001F0CDF809AB009300220223BDF82A105F
:104E2000BDF826001CF0D8FF0346002800F02181C1
:104E300002210020684A01F0BAF80222002011463F
:104E40001BF0BAF80346002800F018810221002068
:104E5000624A01F0ACF80320614C207020F07CFC29
:104E60000346002800F00F81022100205D4A01F076
:104E70009EF84FF480720025628041F208025A4B7E
:104E8000A280A36065700122CDE903351023CDE92E
:104E9000013208232A46009329462B46284620F053
:104EA00065FC0346002800F0F380022128464F4AA3
:104EB00001F07DF8A37853B11BF0C6FF034600282C
:104EC00000F0EB8002210020494A01F070F8002533
:104ED00002210020474A01F06AF8FFF7A1FD4FF6D2
:104EE000FF7302212846444AE382257601F05FF8E9
:104EF00002212846414A01F05AF800F057FD0221EC
:104F000028463F4A01F053F8022128463A4A01F068
:104F10004EF800234FF4F0724FF4A0711846CDE91B
:104F20000533CDE90333CDE9013300931BF03EFE99
:104F3000002840F0B7800A201BF0F2FE002840F065
:104F4000B1800B202F490FB0BDE830401BF060BE90
:104F50000BA903F063FB60B90B9B1A7A22705A7A93
:104F600062709A7AA270DA7AE2701A7B5B7B2271A5
:104F7000E3E6254CE3E600BF6E6800201D4C000808
:104F8000D14B00086860002060390020E84A00200A
:104F9000883900204005021E440008006F00FB0015
:104FA000F8004020F4820208686800200000F90B35
:104FB0001F830208208E020800840208108E020857
:104FC0009C84020838850208A6850208FA85020832
:104FD0003B0000204C860208C68602083E87020875
:104FE0004C680020A487020807B20100108802085C
:104FF0009688020806890208F6890208368902089E
:105000002F89020830000020308E02080221264A33
:1050100000F0CDFF22786379049262780221039236
:10502000A27828460292E2780192227900921F4AE1
:1050300000F0BDFF92E602211D4A00F0B8FF9BE69A
:1050400002211C4A00F0B3FFA4E602211A4A00F034
:10505000AEFFACE60221194A00F0A9FFB2E6022138
:10506000174A00F0A4FFC2E60221164A00F09FFF93
:10507000D0E60221144A00F09AFFDEE60221134A2C
:1050800000F095FFE7E60221114A00F090FFF0E6FC
:105090000221104A00F08BFF0CE702210E4A00F0BB
:1050A00086FF14E70FB030BD7A830208C58302087B
:1050B00056840208F284020877850208D88502081F
:1050C0002B860208918602080A870208798702085F
:1050D000E28702085B880208D688020830B5437868
:1050E00004463E2B89B042D0FF2B00F00D81052BEA
:1050F0003AD1BE4B8188DA8A91420FD10025022134
:105100002846BB4ADD821D7600F051FFA3790221BB
:1051100000932846A388B74A00F049FF00250120E4
:1051200003F05AFFB44BB5481D7001230370627938
:10513000237943EA0223438000F01AFC4FF4A07164
:105140002B464FF4F0722846CDE90555CDE90355BD
:10515000CDE9015500951BF029FD0A201BF0E0FD6B
:105160000B20A7491BF054FD012009B030BDC378C6
:10517000013B0B2BF8D801A252F823F07D52000816
:1051800069510008AD5100086951000869510008D3
:105190006951000869510008695100086951000807
:1051A000F751000869510008EF51000840F2E2434E
:1051B000B0F8075002210020924A5D4300F0F7FE4C
:1051C0004FF47A70B5FBF0F30A2100FB1355B5FBE1
:1051D000F1F5B4F80B2000204A430292B4F80920FC
:1051E000022101920095884A00F0E1FEBCE701200F
:1051F00003F0F2FEB8E740F2E243B0F81B500221A0
:105200005D43824AB0F80530002000F0D0FE637A9A
:1052100002210493A37A00200393E37A7C4A029349
:10522000237B0193637B0093A37B00F0C0FE4FF4CC
:105230007A70B5FBF0F30A2100FB1355B5FBF1F5CD
:10524000B4F81F2000204A430292B4F81D20022126
:10525000019200956C4A00F0AAFE644B67481A7EE2
:10526000012A14BF022203221A76B4F80520DA823A
:1052700000234280037000F07BFB75E740F2E243BD
:10528000B0F80F5002215D43624AB0F805300020AB
:1052900000F08DFE637A02210493A37A0020039329
:1052A000E37A5B4A0293237B0193637B0093A37BA6
:1052B00000F07DFE4FF47A70B5FBF0F30A2100FB9D
:1052C0001355B5FBF1F5B4F8132000204A430292C0
:1052D000B4F811200221019200954B4A00F067FEBC
:1052E000424B46481A7E012A14BF022203221A7634
:1052F000B4F80520DA8200234280037000F038FB06
:1053000001223D4B1A702FE76FF48062B0F8033032
:105310001344092B3FF628AF01A252F823F000BF37
:10532000BF5300085953000869510008695100082B
:105330005554000869510008495300086951000894
:105340008353000855530008334A0221002000F01F
:105350002EFE09E7314AF8E702210020304A00F02A
:1053600026FE224B2F49D88A20F060FA034628B146
:105370002D4A0221002000F01AFEF5E62B4A0221F8
:10538000E5E7022100202A4A00F011FE0221002058
:10539000D4F80730274A00F00AFE02210020D4F892
:1053A0000730254A00F003FE104B0121D88A22F075
:1053B0004BF9034608B1214ADBE7214ADFE7022126
:1053C0000020204A00F0F3FDE37943B1227A022164
:1053D000009200201C4A00F0EAFD1C4AB5E70221B9
:1053E00018461B4A00F0E3FDF7E700BF4C680020B9
:1053F0005D890208878902087B3600204868002002
:1054000030000020C4890208F8890208678A02086F
:10541000B98A0208FD8A0208468B02086D8B0208D1
:105420009C8B020807B20100C28B0208F58B0208B0
:105430001B8C02084D8C0208698C0208818C0208C2
:10544000CD8C02080C8D0208368D0208F689020800
:10545000758D020802210020064A00F0A8FD064BC7
:10546000D88A20F0CFF9034608B1044A81E7044AFC
:1054700085E700BF8D8D02084C680020AB8D0208C7
:10548000DD8D0208F7B5002406780546042E1A467D
:1054900001942BD11144174B174889B20B319860F6
:1054A00001AA0220890802F0ADFB074630B10221B3
:1054B0002046124A00F07BFD912015E0019C002C53
:1054C000FAD026726B78E91C6372AA7804F10B009B
:1054D000A27222F09CFA2146094803F0B0FB39463B
:1054E000304603F063FD002003B0F0BD022EE3D18F
:1054F000F9E700BF5C6000202F4C0008028E020814
:105500006E6800200020014902F028BA394C0008DA
:1055100010B543780446FF2B86B002D0002006B0B9
:1055200010BD40F60142B0F8033093421ED040F661
:1055300003429342F2D1642200212A4822F028FA41
:105540002949284822F056FA2648FAF776FE6423BD
:1055500082B224492548FFF7FCF8B4F80730244A02
:10556000F32B8CBFF423033B1380D7E78279437975
:10557000204943EA0223ADF81030B0F80730ADF807
:1055800012309AB2B0F80B308DF80C3000F10D03E8
:1055900002934B8802339A420CD1437B1BB1012BFF
:1055A00006D00120BBE701238DF8043001A810E0EC
:1055B0000023F9E78B88991C8A420DD1437B1BB1EC
:1055C000012BEED10323EFE704238DF804300DEB1C
:1055D000030000F031F9E4E701339A429ED102233F
:1055E000E2E700BFFF350020368E02087C3600203F
:1055F0007C680020766800202DE9F04136488AB0AA
:10560000FFF71CFA354A364B3649CDE906234FF6EB
:105610008063354DCDE90813012207230220009550
:1056200006A91CF099F90346002846D00221002063
:105630002E4A00F0BCFC4FF681632D4E0024CDE9CC
:1056400008632C4B012205931023CDE90142CDE9DB
:1056500003340093DFF8BC80274FFF230221288802
:1056600006AACDE906871CF05FFD034650B3022170
:105670002046224A00F09BFC4FF682630993204BA0
:10568000002405931023CDE903340123CDE9014320
:10569000142300930221FF23288806AACDE9068758
:1056A00008961CF041FD034688B102212046154AA8
:1056B00000F07DFC0AB0BDE8F0810221124A00F042
:1056C00076FCB8E70221114A00F071FCD4E7022110
:1056D0000F4A00F06CFCEDE7115500088FE5B3D5DB
:1056E0002E7F4A982A487ACC766800205D8E020880
:1056F0004145228E78680020ED214C9DD18E020814
:105700007A6800203E8F0208A08E0208118F0208DE
:105710007E8F020819ED82AE37B50C46054664222D
:105720000021394822F034F922793849364822F0EC
:10573000E5F83548FAF781FD642382B232493448EE
:10574000FFF707F82DB1012D41D09224204603B078
:1057500030BD23682F480093237941882A4600886A
:105760001CF03AFB044658B30346022128462A4A55
:1057700000F01DFC64220021234822F009F927498A
:10578000214822F037F92048FAF757FD1E4982B226
:1057900064231F48FEF7DDFF642200211A4822F02F
:1057A000F7F894B11E49184822F024F91648FAF780
:1057B00044FD642382B214491548FEF7CAFFC5E7C9
:1057C0000221184A00F0F3FBD4E71749EBE72368FE
:1057D0001048009323798188002200881CF0FCFA8D
:1057E000044660B1034602210020104A00F0DFFBAE
:1057F00000216422044822F0CBF80D49D3E70221AE
:105800000C4A00F0D4FBF3E7FF350020AB8F020811
:105810007C36002076680020D48F02084B90020866
:1058200063900208199002086690020870900208BE
:10583000E7900208B59002082DE9F0416422044681
:105840000021404822F0A4F83F493E4822F0D2F817
:105850003C48FAF7F2FC642382B23A493B48FEF72F
:1058600078FF2378042B6BD8DFE803F003131A5C6E
:10587000630000216422334822F08AF83449314819
:1058800022F0B8F82F48FAF7D8FC64232D4982B2E9
:1058900035E0002164222B4822F07AF82D49EEE70A
:1058A00064220021274822F073F82B49254822F072
:1058B000A1F82448FAF7C1FC642382B221492348A5
:1058C000FEF747FF237A0A2B3AD9642200211D48AC
:1058D00022F05EF821491B4822F08CF86423194914
:1058E0001A461A48FEF735FF00251D4F154EDFF802
:1058F0005C80237AAB4207DC6423022219491348F7
:10590000BDE8F041FEF725BF636839465A5D304671
:1059100021F0F4FF6423032231464046FEF719FFCD
:105920000135E6E700216422064822F031F80E49ED
:10593000A5E700216422034822F02AF80B499EE7DC
:10594000BDE8F081FF350020FF9002087C36002082
:10595000199102083C9102086091020882910208A4
:105960009E910208CE8E0208A4910208C7910208F7
:1059700070B564250A4C2A460021204622F008F81A
:105980000849204622F036F82046FAF756FC2B4606
:105990002146BDE8704082B20348FEF7DABE00BF80
:1059A000FF350020EB9102087C360020FFF724BE73
:1059B00038B5184B1B7863B3174B1A88174B8118EF
:1059C0001C46884216D1164900200C600A71FFF768
:1059D000A3FE6428044612D102460021114821F09A
:1059E000D7FF224610490F4821F088FFBDE8384014
:1059F00000F033B910F8015B03F8015BE1E76422C2
:105A00000021084821F0C4FF0849064821F0F2FFB0
:105A1000ECE738BD7B3600207C6800207E680020E3
:105A200074690020FF350020029202082E920208BD
:105A300008B503F009FA00F035F8BDE8084002F0B7
:105A4000B7BC10B4BDF8044001945DF8044B02F0FB
:105A50009DBB10B4BDF8044001945DF8044B02F006
:105A60000BBB02F06BBB02F037BC00F0DDBC0123C6
:105A700003F0ECB903F026B903F036B900F048B8EA
:105A800000F01AB800F05AB800F028B808B51AF0BB
:105A9000D5FEBDE8084000F0E4B802F0BDBC02F05D
:105AA00099BC000008B500F0B7FB0022014B1A704A
:105AB00008BD00BFE1690020034630B5064C04F183
:105AC0004005224603CAAA4218605960144603F1F1
:105AD0000803F6D130BD00BF8069002030B50A4A06
