:020000040800F2
:1000000000000220799D0008F11B0008F31B000886
:10001000F51B0008F71B0008F91B0008FD1E00086F
:10002000000000000000000000000000FB1B0008B2
:10003000FD1B000800000000FF1B0008011C000859
:10004000FD1E0008FD1E0008FD1E0008FD1E000824
:10005000FD1E0008FD1E0008FD1E0008FD1E000814
:10006000FD1E0008FD1E0008FD1E0008FD1E000804
:10007000FD1E0008FD1E0008FD1E0008FD1E0008F4
:10008000FD1E0008FD1E0008FD1E0008FD1E0008E4
:10009000FD1E0008FD1E0008FD1E0008FD1E0008D4
:1000A000FD1E0008FD1E0008051C0008FD1E0008BE
:1000B000FD1E0008251C0008FD1E0008FD1E00088E
:1000C000FD1E0008FD1E0008FD1E0008FD1E0008A4
:1000D000FD1E0008FD1E0008851C0008FD1E00080E
:1000E000FD1E0008FD1E0008FD1E0008FD1E000884
:1000F000FD1E0008FD1E0008FD1E0008FD1E000874
:10010000FD1E0008FD1E0008FD1E0008FD1E000863
:10011000FD1E0008FD1E0008FD1E0008FD1E000853
:10012000FD1E0008FD1E0008FD1E0008FD1E000843
:10013000FD1E0008191D0008FD1E0008FD1E000818
:10014000FD1E0008E51C0008F11C0008FD1E00084B
:10015000FD1E0008FD1E0008FD1E0008FD1E000813
:1001600010B5054C237833B9044B13B10448AFF3F1
:1001700000800123237010BD6006002000000000F5
:100180008CB4020808B5034B1BB103490348AFF315
:10019000008008BD00000000640600208CB4020846
:1001A00070B4840746D04C1E002941D0D5B2034616
:1001B00002E0611EE4B30C4603F8015B9907F8D135
:1001C000032C2ED9D5B245EA05250F2C45EA054565
:1001D00019D9264603F11001103E0F2E41F8105C8C
:1001E00041F80C5C41F8085C41F8045C01F1100135
:1001F000F2D8A4F1100121F00F0104F00F04103126
:10020000032C0B440DD91E4621460439032946F818
:10021000045BFAD8211F21F0030104310B4404F0E0
:1002200003042CB1D2B21C4403F8012BA342FBD12E
:1002300070BC70470C460346C2E7034613F8012B17
:10024000002AFBD1181A01387047000081F00041E4
:1002500002E000BF83F0004330B54FEA41044FEAAB
:10026000430594EA050F08BF90EA020F1FBF54EA46
:10027000000C55EA020C7FEA645C7FEA655C00F0E2
:10028000E2804FEA5454D4EB5555B8BF6D420CDDB3
:100290002C4480EA020281EA030382EA000083EA36
:1002A000010180EA020281EA0303362D88BF30BDD6
:1002B00011F0004F4FEA01314FF4801C4CEA11312C
:1002C00002D0404261EB410113F0004F4FEA03338B
:1002D0004CEA133302D0524263EB430394EA050F16
:1002E00000F0A780A4F10104D5F1200E0DDB02FA85
:1002F0000EFC22FA05F2801841F1000103FA0EF219
:10030000801843FA05F359410EE0A5F120050EF1DE
:10031000200E012A03FA0EFC28BF4CF0020C43FA0F
:1003200005F3C01851EBE37101F0004507D54FF01C
:10033000000EDCF1000C7EEB00006EEB0101B1F56C
:10034000801F1BD3B1F5001F0CD349085FEA3000B2
:100350004FEA3C0C04F101044FEA445212F5800FBD
:1003600080F09A80BCF1004F08BF5FEA500C50F15A
:10037000000041EB045141EA050130BD5FEA4C0C3D
:10038000404141EB0101013C28BFB1F5801FE9D29A
:1003900091F0000F04BF01460020B1FA81F308BFBD
:1003A0002033A3F10B03B3F120020CDA0C3208DD89
:1003B00002F1140CC2F10C0201FA0CF021FA02F164
:1003C0000CE002F11402D8BFC2F1200C01FA02F1D4
:1003D00020FA0CFCDCBF41EA0C019040E41AA2BFF9
:1003E00001EB0451294330BD6FEA04041F3C1CDAC1
:1003F0000C340EDC04F11404C4F1200220FA04F0E1
:1004000001FA02F340EA030021FA04F345EA03018A
:1004100030BDC4F10C04C4F1200220FA02F001FA4C
:1004200004F340EA0300294630BD21FA04F02946CE
:1004300030BD94F0000F83F4801306BF81F4801167
:100440000134013D4EE77FEA645C18BF7FEA655CDA
:1004500029D094EA050F08BF90EA020F05D054EAAC
:10046000000C04BF1946104630BD91EA030F1EBFB1
:100470000021002030BD5FEA545C05D140004941B5
:1004800028BF41F0004130BD14F580043CBF01F5A8
:10049000801130BD01F0004545F0FE4141F470018E
:1004A0004FF0000030BD7FEA645C1ABF1946104669
:1004B0007FEA655C1CBF0B46024650EA013406BF6A
:1004C00052EA033591EA030F41F4002130BD00BF29
:1004D00090F0000F04BF0021704730B54FF48064E6
:1004E00004F132044FF000054FF0000150E700BF67
:1004F00090F0000F04BF0021704730B54FF48064C6
:1005000004F1320410F0004548BF40424FF00001B2
:100510003EE700BF42004FEAE2014FEA31014FEAF5
:1005200002701FBF12F07F4393F07F4F81F0605144
:10053000704732F07F4208BF704793F07F4F04BF8F
:1005400041F40021704730B54FF4607401F000456C
:1005500021F000411CE700BF50EA010208BF7047CC
:1005600030B54FF000050AE050EA010208BF7047BD
:1005700030B511F0004502D5404261EB41014FF426
:10058000806404F132045FEA915C3FF4D8AE4FF02E
:1005900003025FEADC0C18BF03325FEADC0C18BF11
:1005A000033202EBDC02C2F1200300FA03FC20FA62
:1005B00002F001FA03FE40EA0E0021FA02F11444AF
:1005C000BDE600BF70B54FF0FF0C4CF4E06C1CEAC8
:1005D00011541DBF1CEA135594EA0C0F95EA0C0F39
:1005E00000F0DEF82C4481EA030621EA4C5123EAAC
:1005F0004C5350EA013518BF52EA033541F48011DB
:1006000043F4801338D0A0FB02CE4FF00005E1FB8D
:1006100002E506F00042E0FB03E54FF00006E1FBD7
:1006200003569CF0000F18BF4EF0010EA4F1FF041A
:10063000B6F5007F64F5407404D25FEA4E0E6D415A
:1006400046EB060642EAC62141EA55514FEAC5206B
:1006500040EA5E504FEACE2EB4F1FD0C88BFBCF5E7
:10066000E06F1ED8BEF1004F08BF5FEA500E50F198
:10067000000041EB045170BD06F0004646EA01015E
:1006800040EA020081EA0301B4EB5C04C2BFD4EB90
:100690000C0541EA045170BD41F480114FF0000E89
:1006A000013C00F3AB8014F1360FDEBF002001F0F7
:1006B000004170BDC4F10004203C35DA0C341BDC71
:1006C00004F11404C4F1200500FA05F320FA04F043
:1006D00001FA05F240EA020001F0004221F0004177
:1006E00010EBD37021FA04F642EB06015EEA430EEA
:1006F00008BF20EAD37070BDC4F10C04C4F120051A
:1007000000FA04F320FA05F001FA04F240EA0200CC
:1007100001F0004110EBD37041F100015EEA430E9D
:1007200008BF20EAD37070BDC4F1200500FA05F2BD
:100730004EEA020E20FA04F301FA05F243EA02033C
:1007400021FA04F001F0004121FA04F220EA02004B
:1007500000EBD3705EEA430E08BF20EAD37070BD91
:1007600094F0000F0FD101F00046400041EB010171
:1007700011F4801F08BF013CF7D041EA060195F053
:10078000000F18BF704703F00046520043EB03030D
:1007900013F4801F08BF013DF7D043EA06037047FA
:1007A00094EA0C0F0CEA135518BF95EA0C0F0CD005
:1007B00050EA410618BF52EA4306D1D181EA03014B
:1007C00001F000414FF0000070BD50EA410606BF45
:1007D0001046194652EA430619D094EA0C0F02D18A
:1007E00050EA013613D195EA0C0F05D152EA0336CF
:1007F0001CBF104619460AD181EA030101F00041ED
:1008000041F0FE4141F470014FF0000070BD41F035
:10081000FE4141F4780170BD70B54FF0FF0C4CF40F
:10082000E06C1CEA11541DBF1CEA135594EA0C0F2E
:1008300095EA0C0F00F0A7F8A4EB050481EA030E7B
:1008400052EA03354FEA013100F088804FEA033362
:100850004FF0805545EA131343EA12634FEA022230
:1008600045EA111545EA10654FEA00260EF00041F1
:100870009D4208BF964244F1FD0404F5407402D243
:100880005B084FEA3202B61A65EB03055B084FEAD4
:1008900032024FF480104FF4002CB6EB020E75EBD1
:1008A000030E22BFB61A754640EA0C005B084FEAF9
:1008B0003202B6EB020E75EB030E22BFB61A754676
:1008C00040EA5C005B084FEA3202B6EB020E75EBC1
:1008D000030E22BFB61A754640EA9C005B084FEA39
:1008E0003202B6EB020E75EB030E22BFB61A754646
:1008F00040EADC0055EA060E18D04FEA051545EA35
:1009000016754FEA06164FEAC30343EA52734FEADD
:10091000C2025FEA1C1CC0D111F4801F0BD141EA56
:1009200000014FF000004FF0004CB6E711F4801FBB
:1009300004BF01430020B4F1FD0C88BFBCF5E06F9B
:100940003FF6AFAEB5EB030C04BFB6EB020C5FEAAB
:10095000500C50F1000041EB045170BD0EF0004E00
:100960004EEA113114EB5C04C2BFD4EB0C0541EA32
:10097000045170BD41F480114FF0000E013C90E62F
:1009800045EA060E8DE60CEA135594EA0C0F08BFF3
:1009900095EA0C0F3FF43BAF94EA0C0F0AD150EAF2
:1009A00001347FF434AF95EA0C0F7FF425AF104685
:1009B00019462CE795EA0C0F06D152EA03353FF4AD
:1009C000FDAE1046194622E750EA410618BF52EA2A
:1009D00043067FF4C5AE50EA41047FF40DAF52EAFE
:1009E00043057FF4EBAE12E74FF0FF3C06E000BF9B
:1009F0004FF0010C02E000BF4FF0010C4DF804CDA8
:100A00004FEA410C7FEA6C5C4FEA430C18BF7FEA67
:100A10006C5C1BD001B050EA410C0CBF52EA430C95
:100A200091EA030F02BF90EA020F0020704710F115
:100A3000000F91EA030F58BF994208BF90422CBFA4
:100A4000D8176FEAE37040F0010070474FEA410C9D
:100A50007FEA6C5C02D150EA013C07D14FEA430CBB
:100A60007FEA6C5CD6D152EA033CD3D05DF8040B2C
:100A7000704700BF8446104662468C46194663465E
:100A800000E000BF01B5FFF7B7FF002848BF10F135
:100A9000000F01BD4DF808EDFFF7F4FF0CBF01207A
:100AA00000205DF808FB00BF4DF808EDFFF7EAFFF6
:100AB00034BF012000205DF808FB00BF4DF808EDB1
:100AC000FFF7E0FF94BF012000205DF808FB00BFA6
:100AD0004DF808EDFFF7CEFF94BF012000205DF830
:100AE00008FB00BF4DF808EDFFF7C4FF34BF01203D
:100AF00000205DF808FB00BF4FEA410C7FEA6C5C08
:100B000002D150EA013C0AD14FEA430C7FEA6C5C07
:100B100002D152EA033C02D14FF0000070474FF07F
:100B2000010070474FEA410212F5001215D211D5AB
:100B30006FF47873B3EB625212D94FEAC12343F0DA
:100B4000004343EA505311F0004F23FA02F018BF5C
:100B5000404270474FF00000704750EA013005D125
:100B600011F0004008BF6FF0004070474FF00000E8
:100B7000704700BF53B94AB9002908BF00281CBFFD
:100B80004FF0FF314FF0FF3000F07EB9ADF1080CAF
:100B90006DE904CE00F006F8DDF804E0DDE902239B
:100BA00004B070472DE9F04F099D0C46002B4DD144
:100BB0008A420F4684469646B2FA82F360D94BB118
:100BC00002FA03FEC3F120029F4000FA03FC20FA60
:100BD00002F217434FEA1E461FFA8EF44FEA1C42F8
:100BE000B7FBF6F106FB117701FB04F042EA07427E
:100BF000904208D91EEB020201F1FF3702D2904267
:100C000000F22D813946121A1FFA8CFCB2FBF6F065
:100C100006FB102200FB04F44CEA024C644508D9A0
:100C20001EEB0C0C00F1FF3202D2644500F21A8177
:100C3000104640EA0140ACEB040C002125B12CFA2F
:100C400003F30022C5E90032BDE8F08F8B4205D9DD
:100C50000DB1C5E9000100210846F5E7B3FA83F1BB
:100C600000294DD1A342C0F0F280904280F0EF8085
:100C7000064623460846002DE6D0C5E90063E3E7B3
:100C8000002B40F0A2808A1A4FEA1E471FFA8EF608
:100C90000121B2FBF7F407FB14204FEA1C4242EAA1
:100CA000004206FB04F090420FD91EEB020204F151
:100CB000FF382CBF4FF001094FF00009904203D9D3
:100CC000B9F1000F00F0C8804446121A1FFA8CFCDC
:100CD000B2FBF7F007FB102200FB06F64CEA024CD1
:100CE000664508D91EEB0C0C00F1FF3202D26645B6
:100CF00000F2BB801046ACEB060C40EA04409DE7D6
:100D0000C1F120068B4004FA01FE22FA06F720FA10
:100D100006FCF4408A401F434EEA0C0300FA01FE31
:100D20004FEA17484FEA13491FFA87FCB4FBF8F063
:100D300008FB104449EA044400FB0CF9A1450ED914
:100D40003C1900F1FF3A2CBF4FF0010B4FF0000BA4
:100D5000A14503D9BBF1000F00F093805046A4EBEE
:100D600009041FFA83F9B4FBF8F308FB134403FBEF
:100D70000CFC49EA0444A44506D93C1903F1FF38A8
:100D800001D2A4457AD8434643EA0040A4EB0C04C0
:100D9000A0FB02984445CC46434602D306D1CE453B
:100DA00004D20138B9EB020C68EB07035DB1BEEB6E
:100DB0000C0264EB030404FA06F622FA01F3CC40B9
:100DC0001E43C5E9006400213EE702FA03FEC3F1B9
:100DD000200104FA03F200FA03FCCC404FEA1E475C
:100DE00020FA01F11FFA8EF6B4FBF7F00A4307FB75
:100DF0001044110C41EA044100FB06F48C420ED968
:100E00001EEB010100F1FF382CBF4FF001094FF03C
:100E100000098C4202D9B9F1000F2CD04046091BC1
:100E200092B2B1FBF7F407FB141142EA014204FB52
:100E300006F1914207D91EEB020204F1FF3801D2FC
:100E4000914215D84446521A44EA004121E7861AD5
:100E500064EB030301200EE7023C724435E70239DC
:100E60007244D0E6F4440238E3E6F444023842E740
:100E7000023C7244E7E702387144D0E7023B3C444D
:100E800082E702383C446AE7704700BF70B540F61D
:100E9000FC7404EA810400283ED144F4104400228A
:100EA0008021204802F0E4FA012280211D4802F04E
:100EB000DFFA01224FF480711A4802F0D9FA0022B9
:100EC0004FF48071174802F0D3FA002280211548B0
:100ED00002F0CEFA0F25144E44FA05F212F0010288
:100EE00018BF01224FF48051304602F0C1FA0122AE
:100EF0004FF480710B4802F0BBFA00224FF480716E
:100F0000084802F0B5FA013DE6D20122BDE8704082
:100F10008021044802F0ACBA012808BF44F4204400
:100F2000BDE700BF000002420004024207F08ABF92
:100F3000800007F031BF890007F0A6BF07B5002089
:100F400001A9019008F0B4FA28B10C2003F0B4F91B
:100F500003B05DF804FB019B987BF7E770B5414C4B
:100F600088B0002005F06AFFD4F8F430002543F47F
:100F70000003C4F8F43009F04BF83B4802F0BCFB26
:100F8000032608F005FD4FF46043CDE90555CDE992
:100F900003360795D4F88C3003A943F00103C4F855
:100FA0008C30D4F88C30314803F001030193019B5D
:100FB00002F0BEF91823CDE904650393D4F88C3010
:100FC00003A943F00203C4F88C30D4F88C302848CD
:100FD00003F002030293029B02F0AAF9254807F0EE
:100FE00083FC20202946244A09F002F84FF6FD71BF
:100FF000224BB3F8A020531E9BB28B429BBF43F6FB
:10100000FE7000EBD2001E48400307F0E7F9002114
:1010100040201C4A08F0ECFF002110201A4A08F07A
:10102000E7FF05F089FC06F033F9184A002101209A
:1010300008F0DEFF0121084606F020FB0021022017
:1010400006F01CFB0021084606F018FB04F084FBA8
:101050000121022006F012FB002005F0F0FE002026
:1010600008B070BD000C0246400000300000024293
:101070000004024200000020218D00080007F90B47
:1010800000C00F08DD780008E16A00080D73000851
:101090004FF0FF3008F016BF7047704770470021CF
:1010A000102008F0CDBE0021012008F0C9BE0000CC
:1010B000034B0360034B4360034B8360704700BFE7
:1010C000370F0008310F00082D0F000800212020E5
:1010D00008F0B6BE0021402008F0B2BEF8B5184FA7
:1010E00004463B783BB1C10705D50122154B164894
:1010F0001A7002F087FA154E337843B1A20706D56D
:101100000122134B402113481A7002F0B1F9124D1D
:101110002B7843B1630706D50122104B20210D48DF
:101120001A7002F0A5F93B781BB933780BB92B780C
:1011300023B1BDE8F8400A4803F00ABCF8BD00BF7F
:101140002C0000202D580020605900202B0000208A
:101150002C580020000002422A0000202E580020B7
:10116000C458002030B599B04022002108A827F0CB
:10117000B3FF20220021684627F0AEFF002002F0D6
:10118000D9FA044608B172B6FEE702F0ADFA194A80
:101190004FF48011D2F8F030102523F0180343F0FB
:1011A0000803C2F8F03007224FF48033CDE908235A
:1011B0008123CDE90A134FF4807308A8CDE90C35DB
:1011C000109402F051FB014608B172B6FEE73F23CE
:1011D000CDE900300423CDE90400CDE90230CDE9AA
:1011E0000605684602F016FE08B172B6FEE719B0B1
:1011F00030BD00BF000C024600B593B04022002174
:1012000001A827F069FF4FF4004300934FF48023B7
:101210006846119302F004FF08B172B6FEE713B0FE
:101220005DF804FB10B588B01C22002101A827F04E
:1012300053FF0023114C124A7F21C4E90023FF22EF
:10124000C4E902124FF080422046C4E90433C4E9E5
:101250000723A361636203F03BF908B172B6FEE7AE
:10126000CDE904000190069001A9204603F052FA4E
:1012700008B172B6FEE708B010BD00BF10590020DB
:10128000007800462DE9F04F00244FF001084FF49C
:1012900080569FB0B04D00F07FFEFFF74FFEFFF786
:1012A00061FFFFF7A9FF1422002111A827F014FF06
:1012B000D5F88C30002243F00203C5F88C30D5F805
:1012C0008C304FF4805103F002030493049BD5F853
:1012D0008C30A24843F00103C5F88C30D5F88C302F
:1012E0004FF4004703F001030593059BD5F88C30BC
:1012F00043F00403C5F88C30D5F88C3003F00403B8
:101300000693069B02F0B4F800224FF4F071944863
:1013100002F0AEF8914811A9CDE91168CDE9134466
:1013200002F006F84FF4F0738D4811A9CDE9113899
:10133000CDE9134401F0FCFF4FF48813874811A94D
:10134000CDE91173139401F0F3FF05F079FD224606
:1013500021461A2001F0F4F91A2001F021FAD5F8FB
:101360008830214643EA0803C5F88830D5F888302C
:10137000224603EA08031D200393039B01F0E0F9D2
:101380001D2001F00DFA774D774B4FF4B861C5E998
:10139000003404236B614FF48063C5E90B1303230E
:1013A0002846CDE91144C5E90244C5E90F34139438
:1013B000EC612C612C8385F82040C5F8248085F8E9
:1013C00034806C65AE6385F8444000F029FE08B1B6
:1013D00072B6FEE7654B1390CDE9113011A928468E
:1013E00001F012F808B172B6FEE74FF4E133604C39
:1013F000604AC4E90200C4E900230823C4E90530B7
:101400003023A3624FF40053C4E907702061606287
:101410002046E663236403F0D4FF014608B172B6A8
:10142000FEE7204604F044F8014608B172B6FEE734
:10143000204604F05DF808B172B6FEE7204604F0DD
:1014400017F808B172B6FEE74B4B4C48036002F048
:10145000A3F9034608B172B6FEE74948494AC0E914
:10146000002302F049FF044608B172B6FEE7FFF719
:10147000D9FE204602F018F808B172B6FEE702F075
:1014800023F808B172B6FEE700233F4C3F4A4FF6FF
:10149000FF76C4E9002340F2B4522046CDE911336F
:1014A000C4E90823C4E90A33C4E90C33A3606661C4
:1014B00002F02CF808B172B6FEE7CDE91100012266
:1014C000204611A902F0CDF8054608B172B6FEE734
:1014D000204600F08BFA1C2229460AA8CDE90755C0
:1014E000099527F0F9FD3422294611A827F0F4FDCB
:1014F000274C284B2046C4E900360523C4E90335B0
:101500008023A5606561A36103F084FB08B172B616
:10151000FEE70821204603F0ADFB08B172B6FEE7F6
:1015200020230990CDE9073007A9204603F03AFCB3
:10153000024608B172B6FEE73023CDE90C00CDE9D2
:101540000A30CDE90E0010900AA9204603F0F8FBFE
:1015500010B372B6FEE700BF000C02460004024260
:10156000000002425C5A00200010024600020024E3
:1015700030580020004400400060024054590020D0
:101580004059002000080C4260590020009400409F
:10159000C4580020002C01404FF40053CDE9163010
:1015A0004FF00073CDE91100CDE91300CDE918002B
:1015B000CDE91A30CDE91C00159011A9204603F0A1
:1015C00025FC054608B172B6FEE76422014669486B
:1015D00027F082FD6849674827F0B4FD6548FEF7AB
:1015E0002CFE644982B26423644803F03AFE284624
:1015F000FFF7B4FC6FF00102236807201A61FFF7C0
:101600006DFD01225E495F4801F018F8F02128467F
:10161000FFF73CFC4FF400710120FFF737FC5A4BF9
:10162000DFF8A0911D70FFF733FD00F0DDFC574B94
:101630001860D9F8003003F5FA639842544B88BF1C
:10164000C9F800001B78002B00F08180514A136814
:1016500003F59C530833984279D94B4B10601B78A3
:10166000052B31D84C4A12F803B04C4A32F813809B
:101670004B4AD05C44F23C2300244A4DA8EB0002C4
:101680002B804FEA0B2343F03E036B80464B520006
:101690001B68804538BF22466B8144491B0C05EB13
:1016A0004000AC80EC80AB81264627F066FD2246E8
:1016B00025F818403E4BA3451F8831DD3D4B0020E7
:1016C0009C4605EB420A10E0002080468346D1E7A5
:1016D0003AF8021B02304FEA112E03F8021C5EFAA0
:1016E00081F1314403F801EC8EB2B84203F10203F8
:1016F000EEDB013702EB57024245A8BF330A2D4803
:101700000192A4BF8CF8F2608CF8F33005F0B6F8C3
:10171000FFF7BEFC142000F06DFC0134019AC9E70C
:1017200064220021134827F0D7FC3B463246224969
:10173000104827F087FC0F48FEF77FFD642382B234
:101740000C490E4803F08DFD01221C4B1A700F4B03
:101750001B4A1968136803F5FA638B42BFF463AF41
:101760000B4B11601B78002B3FF45DAF0420FFF79B
:10177000B5FC58E7AD570020A8B402083058002047
:10178000145800205C5A0020AC5700201C58002040
:101790002F58002024580020D8B40208CCB40208E6
:1017A000C5B402085016002018580020B836002092
:1017B000348A0020B8560020B3B402082D58002007
:1017C000285800202058002072B6FEE70C4B07B5C1
:1017D000D3F89420052142F00402C3F89420D3F8F2
:1017E0009430002203F0040301934220019B00F097
:1017F000A7FF422003B05DF804EB00F0D1BF00BFAB
:10180000000C024630B50546B1B01422002103A8F1
:1018100027F062FC4822002108A827F05DFC2A6816
:10182000424B9A427FD14FF4005308934FF48043C8
:1018300008A8179302F0F4FB08B1FFF7C5FF3C4B73
:101840000521D3F89420002442F02002C3F894200C
:10185000D3F89420374802F020020192019AD3F87D
:101860008C2042F00102C3F88C20D3F88C30059410
:1018700003F001030293029B0323CDE9031303A9A1
:1018800001F056FD21234FF48032CDE91A340123B3
:1018900029491AA8CDE91C44CDE91E44CDE92032DE
:1018A000CDE92333CDE92544CDE9284427942B9471
:1018B00001F031FB08B1FFF787FF00211E4A1F48E6
:1018C00001F080FB08B1FFF77FFF1C4801F0DCFB53
:1018D00008B1FFF779FF1A4C1A4B2046236000230A
:1018E000C4E90E33C4E910338123A36401F06EFA16
:1018F00008B1FFF769FF1149114801F0F1FB08B188
:10190000FFF762FFAC6510210D48E56501F0C3F9F2
:1019100008B1FFF759FF00224120114600F010FFE7
:10192000412000F03DFF31B030BD00BF0010024645
:10193000000C024600000242405A0020285A0020B3
:10194000B0590020500002400268094B82B09A4210
:101950000CD1084BD3F8882042F48052C3F8882079
:10196000D3F8883003F480530193019B02B0704791
:1019700000300240000C02460268054B9A4201BF4B
:10198000044AD2F8883023F48053C2F88830704774
:1019900000300240000C024610B5044694B04822C4
:1019A000002102A827F098FB22680E4B9A4217D11B
:1019B000082302934FF4002302A8069302F030FBA1
:1019C00008B1FFF701FF084BD3F8A02042F0200236
:1019D000C3F8A020D3F8A03003F020030193019BAB
:1019E00014B010BD00940040000C024610B504462F
:1019F00086B01422002101A827F06EFB22680D4B4F
:101A00009A4215D10C4B0D48D3F88C2001A942F015
:101A10000102C3F88C20D3F88C3003F0010300934B
:101A2000009B0223CDE901330D23059301F080FCD7
:101A300006B010BD00940040000C024600000242B7
:101A4000074B82B0D3F8882042F40032C3F88820D4
:101A5000D3F8883003F400330193019B02B0704740
:101A6000000C024610B5044694B04822002102A89A
:101A700027F032FB22680F4B9A4218D14FF4807343
:101A800002934FF4005302A80B9302F0C9FA08B175
:101A9000FFF79AFE084BD3F88C2042F48022C3F85B
:101AA0008C20D3F88C3003F480230193019B14B075
:101AB00010BD00BF00080C42000C024610B50446E1
:101AC00094B04822002102A827F006FB22680F4BA1
:101AD0009A4218D14FF4804302934FF4807302A8C6
:101AE000129302F09DFA08B1FFF76EFE084BD3F88F
:101AF000A82042F40012C3F8A820D3F8A83003F4B9
:101B000000130193019B14B010BD00BF0078004684
:101B1000000C024607B50F4B02689A4217D10E4BD4
:101B20002620D3F8A42042F40062C3F8A4200022A7
:101B3000D3F8A430114603F400630193019B00F035
:101B4000FFFD262003B05DF804EB00F029BE03B0D2
:101B50005DF804FB002C0140000C024610B5044661
:101B60009AB01422002103A827F0B6FA48220021D7
:101B700008A827F0B1FA22681A4B9A4230D1022302
:101B80000893082308A80A9302F04AFA08B1FFF75D
:101B90001BFE154B1548D3F89C2003A942F40032D4
:101BA000C3F89C20D3F89C2002F400320192019AE1
:101BB000D3F88C2042F00102C3F88C20D3F88C308B
:101BC0004FF4805203F001030293029B1223CDE9EC
:101BD00003230023CDE905330323079301F0A8FB7A
:101BE0001AB010BD00440040000C02460000024242
:101BF000FEE7FEE7FEE7FEE7FEE770477047704747
:101C000000F0E6B908B54FF4004001F039FC044A91
:101C10000420136801331360BDE80840FFF75EBA83
:101C20001858002008B5134800F076FF124B1B78B7
:101C3000012B12D0022B16D073B9104B1B68C3F3C3
:101C4000890349334FF6FF700D4931F81320824262
:101C50001CBF013221F8132008BD084B1B68C3F3D9
:101C60004A031933EEE7054B1B68C3F30B03333309
:101C7000E8E700BFB0590020AC57002014580020FE
:101C8000B836002008B5114802F0AAFE104B1A78A9
:101C90002AB1002220210F481A7001F0E9FB0E4BF7
:101CA0001A782AB1002240210A481A7001F0E0FB9C
:101CB0000A4B1A7822B1002209481A7001F0BEFCC2
:101CC000BDE80840014802F06DBE00BFC4580020C6
:101CD0002E580020000002422C5800202D580020D1
:101CE00060590020014800F0EEBA00BF5C5A0020A5
:101CF00008B5074B1B6803B19847064AD2F808326B
:101D000023F48033C2F80832BFF36F8F08BD00BFE1
:101D1000B88B0020000C024638B54FF000530C4C35
:101D2000C4F88430BFF34F8FBFF36F8F094B1B682C
:101D300003B19847084D2B7833B1002205213D208F
:101D400000F0FEFC00232B704FF00053636038BDA1
:101D500000E100E0B48B00209A8B00200120704746
:101D600008B527F0C5F9162303604FF0FF3008BD12
:101D700008B527F0BDF916230360FEE770B50D46E0
:101D800014460E46731B9C4201DC204670BDAFF327
:101D9000008006F8010BF5E770B50D4614460E46B7
:101DA000731B9C4201DC204670BD16F8010BAFF39B
:101DB0000080F5E74FF0FF3070474FF400530020EC
:101DC0004B60704701207047002070470B4A034664
:101DD000116810B509B90A491160106809490A4C1F
:101DE0000344091B8B4206D927F082F90C230360B8
:101DF0004FF0FF3010BD1360FCE700BFC85A002051
:101E000058C500200000022000040000034AD2F858
:101E1000883043F47003C2F88830704700ED00E06A
:101E20002F48C36903F00C03082B0CD00C2B10D0E7
:101E30002C4B2B4A2C49126A02F007028A5CD340D1
:101E40002A4A136070470268294BC2F30052D340FC
:101E5000EFE7816A436BC1F30222013206EE102ADA
:101E6000C3F30802013207EE902ACA0648BF826B0C
:101E700001F0030145BFC2F3CC0207EE102ADFEDEB
:101E80001D6AF8EEC76AC3F30663022903F1010372
:101E900022D0032922D1124A1168154AC1F30051F8
:101EA000CA4007EE102AB8EEC66AB8EEC77AF8EE56
:101EB000E77AC7EE065A9FED107AE6EE877A65EE6E
:101EC000A76A07EE903AB8EEE77AC6EE877AFCEE9C
:101ED000E77A17EE903AACE7024AE2E70022E0E741
:101EE000000C02460024F400E6B402083000002092
:101EF0000048E8010000000000000039FEE7000093
:101F000038B5214B05461A780AB9012038BD4FF083
:101F1000E023186910F0040016D04FF47A73B3FB75
:101F2000F2F21A4B1868B0FBF2F000F059FC0446CC
:101F30000028EAD1024629464FF0FF3000F000FCAD
:101F4000134B20461D60E1E7124BD3F8E03003F459
:101F50004003B3F5800F07D0B3F5000F0DD0002B71
:101F6000E3D14FF4FA53DAE74FF47A73B3FBF2F2AA
:101F70004FF4FA43B3FBF2F0D7E74FF47A73B3FBB5
:101F8000F2F24FF40043F5E7340000203000002067
:101F900038000020000C02460C4A10B513680320DC
:101FA00043F48073136000F0B9FBFFF739FF04209E
:101FB00000F034FC0F20FFF7A3FF044618B9FFF729
:101FC00005FC204610BD0124FBE700BF00200240B5
:101FD000034A044B11681B780B441360704700BF21
:101FE000CC5A002034000020014B1868704700BF15
:101FF000CC5A002038B50446FFF7F6FF0546631CAF
:102000001EBF044B1B78E418FFF7EEFF431BA342EF
:10201000FAD338BD340000208068C0F380007047D8
:10202000F8B5044668B3056E25B9FFF7EBFB6566A6
:1020300084F85C5022689368DF0025D44FF4805305
:102040001360936823F0104323F0170343F0805389
:102050009360FFF7C9FF054623681B68D80413D4B3
:10206000FFF7C2FF401B0128F6D923681B68DE0476
:10207000F2D4236E43F010032366636E43F0010332
:10208000636601252846F8BD23689A681846D10082
:102090005FBF226E012542F01002226657BF626EBA
:1020A000002542F001026266FFF7B6FF226E02F0E1
:1020B0001002104340F0A780226E22F4817242F099
:1020C000020222669A68D20722D4DA68A16822F056
:1020D0000C020A43DA6094F84420606D012A07D1AB
:1020E000226DA16C02430A43E16C0A4342F00100F5
:1020F0001969474A474E0A4002431A61D6F8081345
:10210000626821F4701102F470120A43C6F80823C1
:10211000A26B94F82070003A18BF0122267E1103AA
:102120007A0342EA8632E66894F834E0324326695C
:1021300042EA4E02002EA8BF4FF4001C42EA010200
:1021400094F82810B8BF26F0004C012942EA0C028E
:1021500003D1002F3AD142F48032E16A21B1276BDA
:1021600001F4E07139430A43DF682B4939401143D8
:10217000D9601F692649394001431961586C617E55
:10218000E76920F003003943014359645969E06B62
:1021900021F00701014359615969206C21F0700158
:1021A00041EA00115961D6B9996A61F00F0199624B
:1021B000D9681A4B0B40934221D100236366236EEA
:1021C00023F0030343F0010323665BE7216E41F034
:1021D00020012166616E41F001016166BDE7B6F53F
:1021E000001FE5D16FF00F00996A616A013989001B
:1021F00001F01C0100FA01F1A06E0143D7E7236E44
:1022000023F0120336E7236E43F01003236638E70A
:1022100002FCFFDF001002460D82DEFFF3FF3F836A
:102220007047704708B5C06DFFF7FBFF08BD7047EA
:102230007047C06D08B5036E43F040030366436EFC
:1022400043F004034366FFF7F3FF08BDC36D10B509
:102250001A6E12F0500F1A6E2AD142F400721A66EA
:102260001A68D16811F4406F15D193F8201091B914
:10227000116809070FD51046FFF7CEFE78B95168EF
:1022800021F00C0151601A6E22F4807222F00102DA
:1022900042F001021A661846FFF7C2FF10BD1A6E1F
:1022A00042F020021A665A6E42F001025A66F2E7C4
:1022B000D20603D51846FFF7BBFFEFE79B6DBDE8DD
:1022C00010409B6E1847036870B51E680446B0073F
:1022D0005D680ED5A9070CD5236E2046DA065EBFD1
:1022E000236E43F40063236600F016FA022223688B
:1022F0001A60730701D5680703D431072AD52A0766
:1023000028D5236EDB065EBF236E43F4007323667D
:102310002368DA6812F4406F16D194F820209AB935
:102320001A68100710D51846FFF776FE002861D10D
:102330005A6822F00C025A60236E23F4807323F053
:10234000010343F0010323662046FFF769FF0C22D7
:1023500023681A6031060BD52A0609D5236E20465C
:1023600043F480332366FFF762FF802223681A60FC
:10237000F3050CD5E8050AD5236E204643F4003357
:10238000236600F0C7F94FF4807223681A60B10524
:102390000CD5AA050AD5236E204643F48023236674
:1023A00000F0B9F94FF4007223681A60F30615D5EE
:1023B000E80613D5A36B1BB12368DB6899070AD025
:1023C000236E204643F480632366636E43F002036A
:1023D0006366FFF72DFF102223681A60F20408D508
:1023E000EB0406D5204600F098F94FF4805223689C
:1023F0001A6070BD236E43F020032366636E43F0C2
:1024000001036366A0E700000023F7B5019390F88D
:102410005C300246012B00F0AB80012304680669A2
:1024200080F85C302046FFF7F7FD002840F09A80E6
:10243000D1E90035022D26F0100071D0B0F1004F27
:10244000C3F3110E35D1A06A40EA0E00A06289687C
:10245000606901EA032121F07C4121F0FF0120EABB
:1024600003200143002B61611DDA4249424DD1F83E
:102470000803AB4200F4400443D1000213D4D1F866
:10248000083323F44003234343F40003C1F8083323
:102490003A4B19683A4BB1FBF3F10C2301FB0333C0
:1024A0000193019B53BB0020002382F85C3003B0F2
:1024B000F0BD4FF00F0C906E05F01F070CFA07FCF3
:1024C0006FEA0C0620EA0C0CBEF1000F11D1C3F329
:1024D0008460B84040EA0C009066AD08506A01354F
:1024E0008542B4D8A56AC3F38360B8402E40304318
:1024F000ACE793FAA3F0B0FA80F0EAE7019B013B66
:10250000CEE7204DAB42CED14302CCD4D1F8083334
:1025100023F44003234343F48003C1F80833C2E7A4
:10252000B0F1004F01BFA16AC3F311008143A16262
:10253000002BB8DA104C0F48A342D0F8081309D189
:10254000D0F8083301F4800123F440031943C0F8A4
:102550000813A8E70B4CA342A5D1D0F8083301F427
:102560000001F1E7116E184641F0200111669BE76A
:1025700002209CE700100246002000B4300000203A
:10258000400D030001000080002373B50268019331
:1025900093680446DD0702D5002002B070BD916843
:1025A000214B194209D0236E012043F0100323660A
:1025B000636E43F001036366EFE7936823F0004323
:1025C00023F0170343F001039360184BD3F808334B
:1025D00018021CD4637E012BDED0FFF705FD0546F3
:1025E000134E22681368DB07D6D49368D9075FBF00
:1025F0009368334043F001039360FFF7F5FC401B01
:102600000228EED923681B68DA07EAD4CBE7094B26
:10261000094A1B68B3FBF2F301330193019B002BC2
:10262000D8D0019B013BF8E717000080001002465C
:10263000E8FFFF7F30000020400D0300F8B504687C
:10264000054620460F461646FFF7E6FC002859D1FE
:1026500095F85C30012B55D0012385F85C30E36898
:10266000D8070ED4A368D90707D5A36823F0004381
:1026700023F0170343F00203A360E36843F0010370
:10268000E3602846FFF780FF0446002831D1286E1A
:102690001D4B20F4706020F0010040F4807028662B
:1026A000A86D6C660366194B29684366184B8366F0
:1026B0001C230B6085F85C404B68026D43F01003EF
:1026C00012064B604FEA860315D5426FC2B11268FD
:1026D000B2B14031C2E90317936000F0CDFB04466C
:1026E0002A68936823F0004323F0170343F00403A0
:1026F00093602046F8BD3A46403100F0CFF9EEE74E
:102700000124EDE70224F4E74D2200082522000809
:10271000332200087047704770477047074903022B
:10272000CA6803F4E06322F4E0621204120C13435B
:1027300043F0BF6343F40033CB60704700ED00E02B
:10274000154B30B5DC68C4F30224C4F10703251D22
:10275000042B28BF0423062D4FF0FF3594BF00241F
:10276000033C05FA03F321EA0303A54022EA05022C
:10277000A340002843EA0203ACBF00F16040074ACF
:102780004FEA0313DBB2ABBF00F5614000F00F006E
:1027900080F80033135430BD00ED00E014ED00E08C
:1027A000002807DB01234109034A00F01F00834092
:1027B00042F82130704700BF00E100E000280CDB48
:1027C00001220649430900F01F008240203341F8EE
:1027D0002320BFF34F8FBFF36F8F704700E100E0FE
:1027E0000138B0F1807F3FBF4FF0E02358610020F7
:1027F000986137BF1A69012042F003021A617047DD
:10280000002808DB01224309034900F01F00824031
:10281000403341F82320704700E100E0042818D835
:10282000DFE800F00A18261703004FF0E0221369D2
:1028300043F00403136170474FF0E022136923F063
:1028400004031361114AD2F8E03023F44003C2F8C4
:10285000E03070474FF0E022136923F00403136166
:102860000A4AD2F8E03023F4400343F48003EEE751
:102870004FF0E022136923F004031361034AD2F8F6
:10288000E03023F4400343F40003E0E7000C024689
:10289000F0B50C4622F00305066897080D44A542E2
:1028A00008D112F003021ED0012A14D111F82730EA
:1028B000337018E0637894F800C01B0443EA0C639B
:1028C00094F803C0043443EA0C0314F802CC43EA3E
:1028D0000C233360E3E76B78022A11F8272043EAE0
:1028E0000223338002D103681868F0BDAB78DFE7BC
:1028F00000230068F0B555088E1C9D4206D1D30711
:1029000044BF31F8253003800068F0BD31F82370F2
:1029100036F82340013344EA07440460EDE7000041
:1029200010B5044608B9012010BD437F03F0FF0233
:1029300013B90277FFF708F8022363772379E3B925
:102940002368134A5A619A6822F018029A606279E1
:102950002368D2B94FF0FF321A619A68616922F098
:1029600060020A439A609A68A16922F080020A43D1
:102970009A60012300206377D6E72046D4E902124B
:1029800000F065F80028E2D0CDE72269E4E700BF57
:10299000B71DC10438B5054698B1437F022BDCB2A0
:1029A0000DD002230024437703689A6842F00102A5
:1029B0009A605A685C60FEF7DFFF6C772C772046E0
:1029C00038BD0124FBE770B502264677066A044647
:1029D000022E15D0032E05D0012E0ED0002001238B
:1029E000637770BD036801EB8205A94201D11868C5
:1029F000F5E751F8042B1A60F7E7FFF749FFEEE718
:102A0000FFF776FFEBE7F8B502264677066804463F
:102A1000B76847F00107B760076A022F14D0032F89
:102A200005D0012F0DD0002001236377F8BD01EB05
:102A30008205A94201D13068F6E751F8043B3360C2
:102A4000F7E7FFF725FFEFE7FFF752FFECE7CB07CC
:102A500010B50DD51F23013B1DD321FA03F4E40764
:102A6000F9D5102A13D0102A04D83AB1082A10D068
:102A700001200BE0182AFBD1062BF9D80068416130
:102A8000836823F0180313438360002010BD072BD5
:102A9000F3E70F2BF1E7102AE5D1E9E730B500287D
:102AA00036D090F84C40012C34D0012480F84C40B2
:102AB00090F85440012C4FF0000425D1022580F8F5
:102AC0005450846504689BB2A56C2D0C2D041D43E5
:102AD0004FF4FE43A564E360E1642265636943F457
:102AE000BA436361436E1BB1636943F4007363616E
:102AF000036F1BB1636943F4005363610020636992
:102B000043F00103636130BD402380F84C4083658E
:102B10000120F8E70220F6E70121036810B523F44D
:102B20007F6222F00F020446D068C3F30B02503AD2
:102B3000C2F3C41201FA02F2024200F0AB801A6939
:102B4000500508D55A69520505D54FF48062DA6000
:102B5000A26D0A43A2651A69100509D55A691105C3
:102B600006D54FF40062DA60A26D42F00202A2655F
:102B70001A69D20409D55A69D00406D54FF4805297
:102B8000DA60A26D42F00402A2651A69510409D507
:102B90005A69520406D54FF48042DA60A26D42F0C1
:102BA0000802A2651A69900509D55A69910506D5EA
:102BB0004FF40072DA60636E0BB1204698472368C9
:102BC0001A6992042ED55A6990042BD54FF40052FD
:102BD000DA6094F85420042A1DD15A69216D22F438
:102BE00000525A615A69090642F002025A614FF0D6
:102BF000010248BF616F84F8542042BF0A7300226B
:102C00009A64002384F84C30E36E002B42D02046B7
:102C1000BDE810401847052384F85430236F0BB1EA
:102C20002046984723681A69D20518D55A69D005F5
:102C300015D5226D110626D5DA6F32B99A6C22B9F4
:102C40000122616F84F854200A734FF44072DA60F5
:102C5000002384F84C30236E0BB120469847A36DB7
:102C6000C3B12268536943F0020353610123226D0B
:102C700084F85430120644BF626F1373002384F843
:102C80004C30A36EC1E79A6C002ADED1012284F891
:102C90005420DAE710BDD0B1CB0601D40020704734
:102CA0000368012023F47F62C3F30B0322F00F02B9
:102CB00001F01101503B1129C3F3C413516800FA0C
:102CC00003F30CBF0B4321EA03035360E6E7012043
:102CD000704741EA0203034318B949B9002A18BFF3
:102CE00010465840B0F5803F34BF002001207047A7
:102CF0000846F6E740B1037E49B97AB1107E9842A2
:102D000014BF03200020704731B10B7EF5E7097E28
:102D10009942F2D00220704708467047104670472B
:102D20002DE9F043D0F808C0176889B300254FF6A5
:102D3000FC762B462C464FF6FC7EDFF88C800E404E
:102D40004FEA870964453BD09E420CD001684CBBDA
:102D500001EA0E030134F5E7016894B901EA0603BC
:102D600001346445F8D101689460090C09040B43EF
:102D7000D36053F827300D435560D3B90020BDE828
:102D8000F08308EB030501EA0E0169581D46E5E7EB
:102D90000D460B460C464FF6FC76DFF82CE04FEA6A
:102DA0008708DEE709EB030501EA080169581D46BB
:102DB000CEE723F003031B041B0C0B431361DDE779
:102DC0009E42D0D00120DAE70000FFFF38B504466C
:102DD000FFF70AF90546002C49D0002384F84C304F
:102DE0000223226884F85430536943F00603536188
:102DF00023685A69D20730D4D4E90E1211431D4A10
:102E0000934214D08032934211D0803293420ED03C
:102E1000803293420BD08032934208D0803293426A
:102E200005D08032934202D08032934201D1226C8D
:102E3000114300205A6922F443020A435A61626C2A
:102E400018645A649864D8641865D867A36CA06540
:102E50002365012384F854300AE0FFF7C5F8401BCE
:102E60000528C5D91023A365032384F85430012015
:102E700038BD00BF50000240034630B5002848D09E
:102E8000416F002945D090F854001A680128546910
:102E9000C5B203D0022D37D1E00335D593F85400E5
:102EA0000128C4B22AD193F84C0001284FF0020047
:102EB00029D083F8540083F84C40087300209865AB
:102EC0000861506940F4BA405061586E18B15069B9
:102ED00040F4007050611B6F1BB1536943F4005301
:102EE00053610B68190C23F003031B041B0C43F004
:102EF0007843090443F480331160D3670020536999
:102F000043F00103536130BD40229A65002283F8EB
:102F10004C200120F7E7F0B5002851D000294FD010
:102F2000C369456902681D43C36B12F0200445EA7A
:102F30000305036945EA0305836945EA03050D6056
:102F400010D0836AC66A876B013B1B053E4303F0C2
:102F50007C733343466A013E360106F47C76334384
:102F60002B430B604368056B23F4E0739B059B0DBB
:102F70002B43C5684B60B5F5806F1BD114B143F48A
:102F800080634B60436C4BB1046C23434C68234318
:102F9000846C240404F4F81423434B60B0F85430D8
:102FA00042F4A0628B60C36CCB60036D00200B61A8
:102FB0008A61F0BDB5F5007FE4D143F40073E0E72A
:102FC0000120F6E7F0B50E461546044687B028B155
:102FD00022B14369012B04D104232361012007B0EE
:102FE000F0BD07683846FFF774FE08B10523F4E723
:102FF0003846FFF77FFE0028EED1022323732061BD
:103000009FB93EB9012322600020A3600123206103
:103010002373E4E722F003052D042D0C45F07845D9
:1030200045F4803526607561EEE766B927F0030741
:103030003F043F0C47F0784747F4803757612260E0
:10304000A3680133E0E705233146204601AA019336
:10305000FFF766FE98B94FF6FC70A368039F094915
:1030600005EA00029F4242EA010206D1636813B1F9
:1030700003400B436B617261E2E77369FAE7062371
:10308000ABE700BF000001F870B5044686B018B188
:10309000066826B902232361012006B070BD456889
:1030A0001DB1AE421AD00423F5E74369012BFAD0D3
:1030B00002230373052301AA294605610193FFF743
:1030C0002FFE4FF6FC733340049A43F0784343F4E9
:1030D0008033536101232561666023730020DCE7A0
:1030E00070B169B190F8543090F85420DBB2022AE4
:1030F00001D0052B06D140238365002380F84C3096
:10310000012070470B7B022B02D101230B61F7E7F3
:10311000026D4B68812A02D11BB90423F6E7002B0C
:10312000FBD1416700207047084A10B5936A43F00D
:1031300001039362EFF3108272B60023CC58C4509F
:103140000433102BFAD182F3108810BD0020024006
:10315000094A10B5936A43F4804343F00103936234
:10316000EFF3108272B60023CC58C4500433802B86
:10317000FAD182F3108810BD00200240064B9A6AF3
:10318000002ABFBF054A9A6002F188329A60BABF2E
:10319000986AC00F00207047002002402301674555
:1031A000044B9A6A42F000429A62986AC043C00F88
:1031B000704700BF0020024070B50546FEF714FFBF
:1031C000104C4619236A13F4403F0BD142F2FA0225
:1031D000236A13400ED001200B494A681A434A6003
:1031E000236270BD6A1CEDD0FEF7FEFEB042E9D34B
:1031F0000320F6E7236A0020DB0744BF0123236294
:10320000EFE700BF00200240D05A0020F8B5154D6E
:1032100004462B780E46012B174620D001232B7035
:1032200000234FF47A706B60FFF7C6FF88B9AC607B
:1032300024F00044012C394630460DD1FFF774FFCD
:103240004FF47A70FFF7B8FF074A936A23EA040342
:10325000936200232B70F8BDFFF77AFFF0E702209E
:10326000F9E700BFD05A002000200240064A936AC6
:1032700023F4813323F4FD7343EAC00343F4803322
:1032800043F0020393627047002002402DE9F041B1
:10329000254E054633788846012B43D001233370F1
:1032A00000234FF47A707360FFF786FF0446E8B995
:1032B0002B68B36023F00043042B1CD11B4A4FF44E
:1032C0007A70936A43F4803343F004039362FFF708
:1032D00073FF04462B68154923F000438A6A23F4E0
:1032E0007E7343F47E7322EA03038B620023337000
:1032F0002046BDE8F0814FF0FF33C8F800306F681A
:10330000D5E901321344BB42E4D93846FFF7AEFF9A
:103310004FF47A70FFF750FF10B1C8F80070D8E78B
:103320000137EDE70224E3E7D05A002000200240F5
:103330002DE9F74F4C4B4FF00F0903EA902301930F
:1033400000234A4C0A6832FA03F502D103B0BDE803
:10335000F08F012505FA03F818EA020200F08280D6
:1033600003274E684FEA430E06F0030507FA0EFCEA
:103370006F1E012F6FEA0C0C32D8876807EA0C0A1F
:10338000CF6807FA0EF747EA0A078760476827EA17
:103390000808C6F300179F4047EA08074760C76858
:1033A000022D07EA0C088F6807FA0EF747EA0807AC
:1033B000C76017D14FEAD30800EB880803F0070A6B
:1033C000D8F820704FEA8A0A09FA0AFB27EA0B0BA1
:1033D0000F6907FA0AF747EA0B07C8F8207001E0FF
:1033E000032DDCD1076805FA0EF507EA0C073D430B
:1033F00016F4403F056035D023F0030707F18C48F1
:1034000003F00305019FED0009FA05FE07FA05F533
:10341000D74308F50838D8F860C016F4801F2CEAA6
:103420000E0C45EA0C05C8F8605025680CBF3D40FD
:1034300015432560656816F4001F0CBF3D40154319
:103440006560D4F8845016F4003F0CBF3D4015432E
:10345000C4F88450D4F88050F60354BF3D4015435F
:10346000C4F8805001336DE77F7F2F0000200246B3
:103470000AB18161704781627047704770470000F0
:1034800038B5084D0446EB68034202D0E860FFF708
:10349000F4FF2B691C4203D020462C61FFF7EEFF9E
:1034A00038BD00BF002002460146064A106810F0F1
:1034B000010009BF1368012023F004030B4308BF78
:1034C0001360704700040340034A0020136843F070
:1034D00001031360704700BF0004034044F62062FC
:1034E000094B10B51B680468B3FBF2F34FF47A7212
:1034F000002053432268013B08BF032031EA020247
:1035000001D0002BF6D110BD30000020F8B50446E4
:10351000002872D090F84A3003F0FF021BB980F8FF
:103520004920FEF739FA02234FF48071256884F8A8
:103530004A302B69204643F001032B61636B6960BD
:10354000AB62FFF7CBFF032801D10320F8BD1021A8
:10355000236A69602046AB61FFF7C0FF0328F4D0FF
:10356000EB6A9A0706D4EB6A9B035EBF2B6923F0D4
:1035700001032B616168EB680129A06A02D0B0F5F4
:10358000000F01D123F01E034FF6FF7662691C4F36
:10359000B24218BF23F46043A66818BF23F0C003EB
:1035A0001F4041EA00033343666A33433B43E9B9B2
:1035B000E169266931430B43B0F5000F18D04FF68F
:1035C000FF718A4204D0A1690A43E1690A431343A7
:1035D000EB60D4E90B3213436B620123002084F8C3
:1035E0004B3084F84C3084F84A30AFE70129E3D1FE
:1035F000D4E9031001430B43E1E70120A6E700BF34
:10360000FEF139FF022380F84A30D0E90032012A66
:1036100007D0826AB2F5000F02BFDA6822F4606256
:10362000DA601A6942F001021A611A6942F0040272
:103630001A61012380F84A3000207047022380F885
:103640004A300368DA6A910706D4DA6A92035EBFE9
:103650001A6922F001021A61012380F84A30002021
:1036600070470B46022170B5054680F84A1032B10A
:10367000012A19D00123002085F84A3013E00821DF
:1036800004685A68E66A1B6826F00D0646EA820658
:10369000226942F00102226161606361FFF71EFF4F
:1036A000032815D1032070BD4FF4002104685A6827
:1036B000E66A1B6826F4502646EA8246226942F0F2
:1036C0000102226161606363FFF708FF0028E9D10E
:1036D000E36A9A0706D4E36A9B035EBF236923F07B
:1036E00001032361E662C5E7024A936A43F00103DE
:1036F00093627047000802460D49C3B28A6910B54B
:1037000022EA030242EA10228A61CA6993FAA3F10B
:10371000B1FA81F10324490004FA01F122EA01021D
:1037200042EA1040024AD06151690B43536110BD17
:10373000000802461549CB6B03F48033834201D164
:10374000002070473222CB6823F480331843104B9B
:10375000C8601B6853430F4AB3FBF2F301331A46A8
:10376000C868000404D40AB903207047013AF7E797
:10377000002AF9D0054AD16B090403D4002BF3D0F9
:10378000013BF8E7002BDBD1EEE700BF0008024663
:103790003000002040420F0010B5044640B1022323
:1037A0000371FEF74DF900200123A060237110BDC5
:1037B0000120FCE70379012BDAB24FF0020305BFC9
:1037C000037103688360196006BF02710020012045
:1037D00070470368186800F4E02070471D494B6B80
:1037E000C3F30803013300EE103A8B6AB8EEC00A47
:1037F000C3F30222013207EE902A13F0100218BF21
:103800008A6BF8EEE76A18BFC2F3CC0207EE902A83
:1038100003F00303022BB8EEE77A14D0032B15D183
:103820000C4B1A680C4BC2F30052D34007EE903A8F
:10383000F8EEE77A87EEA66ADFED087AA7EE270AA8
:1038400026EE000A7047DFED067AF3E7DFED057A32
:10385000F0E700BF000C02460048E8010000003914
:103860000024744B000000002DE9F34704460028B3
:1038700064D0714BDE699D6A036806F00C06DF07B1
:1038800005F003053AD42368980700F18480236883
:10389000190740F11D81684BD3F89420520700F1BD
:1038A000B6800127D3F8942042F00402C3F8942094
:1038B000D3F8943003F004030093009B5F4DAB6A90
:1038C000DB0740F1A680DFF87081A369D8F8F050DB
:1038D000002B40F0BB8025F01055C8F8F050FEF7E3
:1038E00083FB0546D8F8F03013F0904F00F0E880E5
:1038F000FEF77AFB401B1428F4D936E0082E436803
:1039000003D00C2E1CD1032D1AD1BBB1082EBAD175
:10391000494AA168136823F488130B4343F48033A6
:1039200013601268464BC2F30052D340454A1360FD
:10393000454B1868FEF7E4FA0028A4D0012015E0F2
:103940003D4FB3B13A68A16822F488120B43134388
:103950003B60FEF749FB80463B68990393D4FEF732
:1039600043FBA0EB08006428F6D9032002B0BDE8B1
:10397000F0873B6823F488133B60FEF735FB8046F5
:103980003B689A037FF57FAFFEF72EFBA0EB0800A4
:103990006428F5D9E9E723691EB10C2E0CD1022D5C
:1039A0000AD1002BCAD0244A6169136923F4F813A1
:1039B00043EA014313616AE71F4DBBB12B6843F42F
:1039C00080732B60FEF710FB07462B685B0507D55D
:1039D0002B69626923F4F81343EA02432B6156E72B
:1039E000FEF702FBC01B0228EFD9BEE72B6823F4C9
:1039F00080732B60FEF7F8FA07462B6858057FF5B1
:103A000046AFFEF7F1FAC01B0228F6D9ADE7002752
:103A100054E7AB6A43F00103AB62FEF7E5FA804678
:103A2000AB6AD8073FF54FAFFEF7DEFAA0EB080010
:103A30000228F5D999E700BF000C024600080246AB
:103A40000048E8013000002038000020590115D559
:103A5000E26905F080539A420CD02A010AD525F07C
:103A60008065C8F8F050FEF7BFFA8146D8F8F0300C
:103A70001B0172D4E36925F080551D43A369DFF86B
:103A800094921D43C9F8F050FEF7AEFA8246A3693E
:103A9000D9F8F0204FEA430812EA430264D083F0D9
:103AA0001053DB432B40C9F8F030FEF79DFA8146F6
:103AB000984D88F09048D5F8F03018EA030F5AD1A5
:103AC00037B1944AD2F8943023F00403C2F894300A
:103AD00023685D0740F18D808E4BD3F8942050070A
:103AE00050D44FF00108D3F8942042F00402C3F8F8
:103AF0009420D3F8943003F004030193019B864D86
:103B0000AB6AD90741D5E368824D002B4DD1D5F87A
:103B1000F03041F2883923F08103C5F8F030D5F850
:103B2000F03023F00403C5F8F030FEF75DFA0746E5
:103B3000D5F8F0309B0777D4D5F8F03018064ED57D
:103B400041F28839734DD5F8F030190547D5FEF7A5
:103B50004BFAC01B4845F6D907E7FEF745FAA0EB3C
:103B60000900142882D900E7FEF73EFAA0EB0A000C
:103B700014288CD9F9E6FEF737FAA0EB09001428CF
:103B800099D9F2E64FF00008B9E7AB6A43F00103B8
:103B9000AB62FEF729FA0746AB6ADA07B3D4FEF741
:103BA00023FAC01B0228F7D9DFE6D5F8F02041F24E
:103BB000883922F080021343C5F8F030FEF714FA7A
:103BC0000746D5F8F0309B0717D5E36841F28839EE
:103BD0001806504D23D5D5F8F030190513D5B8F196
:103BE000000F06D04B4AD2F8943023F00403C2F8F9
:103BF0009430236AFBB90020B8E6FEF7F5F9C01B44
:103C00004845DED9B1E6FEF7EFF9C01B4845E2D9D9
:103C1000ABE6FEF7E9F9C01B48453FF6A6AED5F87E
:103C2000F0301A05F5D4DAE7FEF7DEF9C01B484597
:103C30007FF67EAF99E60C2E76D0364D022B2B68A0
:103C400023F080732B6052D1FEF7CEF980462E68A8
:103C5000FEF7CAF9A0EB080002283FF686AE16F080
:103C60000077F4D1606AA16A032809BF2B4B2C4B63
:103C7000C6F30056F340B3FBF1F32A4A01399342ED
:103C800088BF0C27234A936A23F4E36323F00703D6
:103C90003B43034343EA012343F480239362236BB2
:103CA000591E636B013B1B0443EA4123E16A01395E
:103CB0000B43A16B013943EA01635363E36B2BB1FF
:103CC000DB009363936A43F0100393621368114D12
:103CD00043F080731360FEF787F904462B689A015E
:103CE00089D4FEF781F9001B0228F7D93DE6FEF7DB
:103CF0007BF904462B689B0106D4AB6A23F4E023CE
:103D000023F00303AB6276E7FEF76EF9001B02288F
:103D1000F0D92AE6000C0246000802460048E801F5
:103D20000024F40000127A00012B3FF407AE23496F
:103D3000606A8A6A4B6B02F0030585427FF4FEAD30
:103D4000A06AC2F30222013882427FF4F7ADE26A30
:103D5000C3F30800013A90427FF4F0AD226BC3F345
:103D60004620013A90427FF4E9AD626BC3F306400E
:103D7000013A90427FF4E2ADA26BC3F30663013ACD
:103D800093427FF4DBAD8B6BE26BC3F3CC039A42BF
:103D90003FF431AF8B6A0D4623F010038B62FEF7C0
:103DA00023F90646FEF720F9B042FBD0E36BDB00B7
:103DB000AB63AB6A43F01003A4E700BF000C0246FC
:103DC000074B10B55C6BFFF709FDFCEEC07A17EEF0
:103DD000900AC4F306640134B0FBF4F010BD00BFD8
:103DE000000C0246084AD36913F00C0309D0082BD3
:103DF00005D113680548C3F30053D8407047FFF757
:103E0000DFBF0348704700BF000C02460048E801CE
:103E10000024F4002DE9F0410D46044610B90120BC
:103E2000BDE8F081574A136803F00F038B421BD3A0
:103E300021688F0623D4CE072DD42268524B12F06E
:103E400002011B6A6ED1560741BFE16823F070037F
:103E50000B43012110076BD5216923F4E06343EA8A
:103E6000011349490B6265E0136823F00F030B430C
:103E70001360136803F00F038B42D0D1D8E7424898
:103E8000D4E90636D0F80022334322F01702134358
:103E9000C0F80032CFE761683B4A0329136831D18B
:103EA0009801BCD5D36903F00C030C2B05D0936AA1
:103EB00023F4401343F480139362334E41F2883865
:103EC000F36923F003030B43F361FEF78DF8074614
:103ED000F369626803F00C03B3EB820F1BD1032A72
:103EE000ABD1B36A284F23F48013B362FEF77CF89A
:103EF0000646BB6A5B02A0D4FEF776F8801B0A2850
:103F0000F7D90DE0022903D113F4003FD5D186E79C
:103F100013F4806FFAE7FEF767F8C01B4045D7D966
:103F200003207DE7A16823F007030B4301218AE703
:103F3000002996D1D30642BF6269134B5A62114AD7
:103F4000136803F00F03AB4210D8FFF74BFFBDE837
:103F5000F0410D4B0D4A1B6A03F00703D35CD840B8
:103F60000B4B18600B4B1868FDF7CABF136823F0A2
:103F70000F032B431360136803F00F03AB427FF46E
:103F80004EAFE2E700200240000C0246E6B4020811
:103F9000300000203800002008B5FFF723FF054B54
:103FA000054A1B6A03F00703D35CD840034B186033
:103FB00008BD00BF000C0246E6B402083000002035
:103FC00008B5FFF7E9FF044B044A1B6AC3F3021369
:103FD000D35CD84008BD00BF000C0246DEB4020826
:103FE00008B5FFF7D9FF044B044A1B6AC3F3022349
:103FF000D35CD84008BD00BF000C0246DEB4020806
:1040000008B5FFF7C9FF044B044A5B6AC3F3021308
:10401000D35CD84008BD00BF000C0246DEB40208E5
:1040200003682DE9F743DE07044608D59F49406839
:10403000D1F8E02022F003020243C1F8E0209D07FE
:1040400008D59A49A068D1F8E02022F00C0202437A
:10405000C1F8E020580708D59449E068D1F8E0207D
:1040600022F440620243C1F8E020190708D58F49C5
:104070002069D1F8E02022F440220243C1F8E02078
:10408000DA0608D589496069D1F8E02022F44012A7
:104090000243C1F8E0209F0608D58449A069D1F801
:1040A000E02022F440020243C1F8E0205E0608D579
:1040B0007E49E069D1F8E02022F000420243C1F8D5
:1040C000E0201D060FD5794A206AD2F8E41021F0CD
:1040D000E0010143C2F8E410002840F0C380916A77
:1040E00041F480319162D80510D57049606AD1F8E9
:1040F000E420B0F5405F22F4405242EA0002C1F8E9
:10410000E42002BF8A6A42F400328A62990208D52A
:104110006649A06AD1F8E42022F080420243C1F847
:10412000E4209A0508D56149E06AD1F8E82022F038
:1041300003020243C1F8E8205F0508D55B49206B04
:10414000D1F8E82022F018020243C1F8E8201E0549
:1041500008D55649606BD1F8E82022F0C00202432E
:10416000C1F8E820DD0408D55049A06BD1F8E8205B
:1041700022F440620243C1F8E820980410D54B496C
:10418000E06BD1F8E820B0F5005F22F4E04242EAAB
:104190000002C1F8E82002BF8A6A42F480328A62D3
:1041A00059044AD5414B226CD3F8F05005F44075C0
:1041B000AA4242D0D3F8942052075AD40127D3F808
:1041C000942042F00402C3F89420D3F8943003F012
:1041D00004030193019B364EB36A43F00103B362BB
:1041E000FDF702FF8046B36ADB0744D52F4AD2F8B9
:1041F000F03023F440717DB1D2F8F850D2F8F000DD
:1042000040F48030C2F8F000D2F8F00020F48030A2
:10421000C2F8F000C2F8F850226C264DDFF88C800E
:104220000A431D40C8F8F0202FD137B11F4AD2F8F9
:10423000943023F00403C2F89430206810F4004056
:1042400020D01A4A616CD2F8F03023F440230B439B
:10425000C2F8F030D2F8F00000F44020401A18BF45
:1042600001200FE020287FF43EAF916A41F4003135
:1042700038E70027AFE7FDF7B7FEA0EB08000228FC
:10428000B1D9032003B0BDE8F083FDF7ADFE41F2E4
:10429000883906466D00D8F8F0302B42C5D1FDF7BD
:1042A000A3FE801B4845F6D9EBE700BF000C024691
:1042B0000008024601000024044AD2F8103223F418
:1042C0007C1343EA0043C2F810327047000C0246E8
:1042D000034AD2F8083243F00203C2F808327047AA
:1042E000000C0246034AD2F8083223F00203C2F857
:1042F00008327047000C024638B50446002839D011
:10430000437A03F0FF0213B90272FDF7ABFB0223FD
:1043100022686372136823F0040313601168224B50
:104320000B4061680B4343F0804343F40053136038
:10433000136823F080431360FDF756FE054623689B
:104340001A68510009D41A6842F004021A605B68C6
:104350005A0611D5042363720CE0FDF745FE401B9D
:104360000A28ECD923681B685800E8D5012363723A
:104370000223E360012038BDFDF736FE05462368C1
:10438000586810F0040003D101236372E060F2E783
:10439000FDF72AFE401B0A28F1D923685B685B07FA
:1043A000EDD50423E3E700BFDF1FFFBF90F82C30FB
:1043B0000246012B4FF0020016D0012382F82C3068
:1043C0000E4B82F82D00B1F5807F99690DD121F453
:1043D00088519961596C21F00041596401230020F2
:1043E00082F82D3082F82C00704721F40851996131
:1043F000D96C21F00041D964F0E700BF0078004695
:1044000070B50D4C0646E36823F02003E360FDF72A
:10441000EBFD0546E3689B0608D4FDF7E5FD401B70
:10442000B0F57A7FF6D9E3689A0601D5002070BD11
:10443000032086F82D00FAE700780046F8B5124D03
:104440000646EC6814F0400402D000231846F8BD7C
:10445000EB6843F08003EB60FDF7C6FD234607469B
:10446000EC6814F04004F1D1032BEFD0FDF7BCFD54
:10447000C01BB0F57A7F2346F2D9EB685B06E4D423
:10448000032386F82D30EBE70078004638B50F4C53
:104490000546E36823F08003E360A3699B0606D426
:1044A000FFF7AEFF10B1032085F82D0038BDA369DA
:1044B00023F02003A361FFF7A3FF10B1032085F8C9
:1044C0002D00A36943F02003A361EFE700780046C5
:1044D00038B5044600284BD090F82D3003F0FF0289
:1044E0001BB980F82C20FDF7E9FA0223214D84F84E
:1044F0002D30EB68DB0636D4CA236B62532320468B
:104500006B62FFF79BFF10B1FF236B6238BDAB6995
:10451000204623F08E6323F04003AB61216963687A
:10452000AA690B431343A2691343AB61D4E9022385
:1045300043EA02432B61EA68D4E9093122F4F852D4
:104540000B431343EB60FFF7A1FF0028DCD1D4E954
:104550000713AA690B4322F06042134362691343B5
:10456000AB61FF236B620123002084F82D30CDE77F
:104570000120CBE7007800460023092803D840EA51
:104580000310C0B270470A380133C0B2F5E700002B
:104590002DE9F84390F82C300546012B4FF002002E
:1045A00060D0012385F82C30494B85F82D00DE685A
:1045B00006F44076B6F5807F6AD00C6A087891F8E8
:1045C000018091F802909B69002A4DD113F04003BD
:1045D00008BFCB70FFF7D0FF07464046FFF7CCFF80
:1045E00002464846FFF7C8FF804691F82400FFF7CF
:1045F000C3FF4B6991F803C0234343EA8C5343EA5A
:10460000080343EA074343EA022343EA0063CA6A12
:104610008869B2F5807F2E4A94693BD124F488548E
:1046200094610124B6F5807FD46509BFCB6913641A
:104630000343536418BF5064254B4A681A678A6A5B
:10464000012A9A690CBF42F0006222F000629A616E
:104650009A6942F488529A610020012385F82C005F
:1046600085F82D30BDE8F88313F0400308BFCB7008
:104670004B69CA781C4344EA090444EA004343EA0C
:10468000082343EA825391F8242043EA0263BEE7F9
:104690000023BCE724F4085494610224B6F5807F1B
:1046A000D46509BFCB6993640343D36418BFD06456
:1046B000074B4A685A678A6A012A9A690CBF42F016
:1046C000805222F080529A619A6942F40852C2E7FD
:1046D0000078004690F82C200346012A4FF0020093
:1046E0000CD0074983F82D008A69002042F020028F
:1046F0008A61012283F82C0083F82D20704700BFC7
:1047000000780046890001F18C4101F5FA410A6008
:1047100070470000D1E9003213430A4AD361D1E95E
:10472000023213438A691343074A5362136A0869C2
:1047300003F0FF234969034343EA01430020136266
:10474000704700BF00780046007C0046036A026A9A
:1047500070B522F001020262446882690D6822F499
:10476000803222F073022A438D6823F002032B4328
:10477000124DA84206D0124EB04203D006F5806614
:10478000B04214D1CE6823F008033343A84223F08B
:10479000040306D00A4DA84203D005F58065A8425F
:1047A00005D124F44075D1E9054634432C434460D7
:1047B00082614A684263036270BD00BF002C014001
:1047C00000440140036A026A70B522F480720262FA
:1047D0004268C4690D6824F4803424F073042C43C7
:1047E0008D6823F4007343EA05230F4DA8420ED1D0
:1047F000CD6823F4006343EA052323F4806322F4A5
:104800004052D1E90556354342EA051206E0074D0C
:10481000A842F4D005F58065A842F0D042604A680D
:10482000C461C263036270BD002C014000440140BA
:10483000036A026A70B522F4805202624268C46957
:104840000D6824F0807424F4E64444EA05248D685D
:1048500023F4005343EA05330F4DA8420ED1CD682F
:1048600023F4004343EA053323F4804322F4404217
:10487000D1E90556354342EA851206E0074DA842C4
:10488000F4D005F58065A842F0D042604A68C46162
:104890000264036270BD00BF002C0140004401406F
:1048A000026A036A30B523F4803303624468036DFF
:1048B0000D6823F4803323F070032B438D6822F4BA
:1048C000003242EA05420B4DA84207D005F5C0551B
:1048D000A84203D005F58065A84204D14D6924F4AF
:1048E000803444EA0524446003654B6883640262B3
:1048F00030BD00BF002C0140026A036A30B523F4CA
:10490000801303624468036D0D6823F0807323F401
:10491000E04343EA05238D6822F4001242EA05527F
:104920000A4DA84207D005F5C055A84203D005F5A9
:104930008065A84204D14D6924F4802444EA85248A
:10494000446003654B68C364026230BD002C0140C3
:1049500090F83D30012B1FD1022380F83D300368D1
:10496000DA6842F00102DA600C4A934206D0B3F1F1
:10497000804F03D0A2F59432934207D19968084A38
:104980000A40062A06D0B2F5803F03D01A6842F0EA
:1049900001021A600020704701207047002C01407E
:1049A000070001000368DA6822F00102DA6041F2D0
:1049B0001112196A114208D144F24442196A114293
:1049C00002BF1A6822F001021A60012380F83D300C
:1049D00000207047704770477047704770477047B6
:1049E000036870B5DD681E690446B2070ED5A907D5
:1049F0000CD56FF002021A61012202779B699A07B7
:104A000000F0A480FFF7E9FF00232377730711D597
:104A100068070FD56FF00402236820461A6102224E
:104A200022779B6913F4407F00F09680FFF7D5FF53
:104A300000232377310710D52A070ED56FF008021F
:104A4000236820461A6104222277DB699B0700F065
:104A50008980FFF7C2FF00232377F10610D5EA060D
:104A60000ED56FF01002236820461A6108222277C3
:104A7000DB6913F4407F7BD0FFF7AFFF0023237780
:104A8000F30708D5E80706D56FF001022368204632
:104A90001A61FFF7A0FF16F4025F08D0290606D5B9
:104AA0006FF40252236820461A6100F0F6F9F2050D
:104AB00008D52B0606D56FF48072236820461A614C
:104AC00000F0ECF9700608D5690606D56FF04002D3
:104AD000236820461A61FFF782FFB20608D5AB06AD
:104AE00006D56FF02002236820461A6100F0D4F941
:104AF000F00208D5E90206D56FF48012236820463B
:104B00001A6100F0CCF9B20208D5AB0206D56FF4F9
:104B10000012236820461A6100F0C2F9700208D51D
:104B2000690206D56FF48002236820461A6100F0FE
:104B3000B8F9320222D52B0220D56FF40002236887
:104B40002046BDE870401A6100F0ACB9FFF744FFA1
:104B50002046FFF743FF57E7FFF73EFF2046FFF7EA
:104B60003DFF65E7FFF738FF2046FFF737FF72E7A5
:104B7000FFF732FF2046FFF731FF7FE770BD0000EF
:104B8000214A10B59042036805D0B0F1804F02D0A1
:104B90001E4CA0420CD14C6823F07003904243EAB3
:104BA00004030CD0B0F1804F09D0184A904206D0CF
:104BB000174A904203D002F58062904203D1CA683E
:104BC00023F4407313434A6923F0800313430360C3
:104BD0008B68C3620B6883620B4B984207D003F566
:104BE000C053984203D003F58063984201D10B690A
:104BF0000363012343610369DB0742BF036923F0B9
:104C00000103036110BD00BF002C014000040040FF
:104C10000044014010B5044650B390F83D3003F015
:104C2000FF021BB980F83C20FCF774FF02232068C8
:104C300084F83D30211DFFF7A3FF0123002084F8F5
:104C4000483084F83E3084F83F3084F8403084F8AF
:104C5000413084F8423084F8433084F8443084F89A
:104C6000453084F8463084F8473084F83D3010BD34
:104C70000120FCE738B50D46044630B390F83D30CE
:104C800003F0FF021BB980F83C20FFF7A3FE0223CC
:104C9000214684F83D3051F8040BFFF771FF03689B
:104CA00023F00803036003682B4303600123002003
:104CB00084F8483084F83E3084F83F3084F844303B
:104CC00084F8453084F83D3038BD0120FCE7000011
:104CD000036A026A70B522F01002026242688469B7
:104CE0000D6824F0807424F4E64444EA05248D68B9
:104CF00023F0200343EA05130F4DA8420ED1CD68DF
:104D000023F0800343EA051323F0400322F44062BA
:104D1000D1E90556354342EA850206E0074DA8422F
:104D2000F4D005F58065A842F0D042604A688461FD
:104D30008263036270BD00BF002C0140004401404B
:104D400010B590F83C300446012B29D00C2A1FD016
:104D500009D8042A14D0082A16D062B101200023F1
:104D600084F83C3010BD102A16D0142AF6D1006801
:104D7000FFF7C2FD02E00068FFF7E8FC0020EEE765
:104D80000068FFF7A5FFF9E70068FFF71BFDF5E7EF
:104D90000068FFF74DFDF1E70068FFF781FDEDE7E3
:104DA0000220DFE730B590F83C300446012B4FF08D
:104DB000020027D02268144D84F83D005368AA42AF
:104DC00002BF4D6823F470032B4323F000730D687A
:104DD00023F070032B43906853600B4B9A4206D02C
:104DE000B2F1804F03D0A3F594339A4204D189687D
:104DF00020F080030B4393600123002084F83D30B2
:104E000084F83C0030BD00BF002C014010B590F884
:104E10003C300246012B3BD0CB68886823F44073BA
:104E20000343486823F480630343086823F4006362
:104E30000343086923F480530343486923F4005370
:104E40000343086B23F480430343886923F47023EE
:104E500043EA0043C86923F080530E4C03431068B3
:104E6000A04210D18C6A23F4700343EA04530C6A05
:104E700023F0807323434C6A23F00073C96A2343F1
:104E800023F000530B434364002082F83C0010BD24
:104E90000220FCE7002C01407047704770477047C4
:104EA000704770477047000010B5026852E8003F35
:104EB00023F4907342E8003102680029F5D10F4CC9
:104EC00002F1080353E8003F234002F1080C4CE8CC
:104ED00000310029F4D1C36E012B07D152E8003F05
:104EE00023F0100342E800310029F7D12023C0F855
:104EF0008C300023C366436710BD00BFFEFFFFEF89
:104F000038B504462169A26803680A4361691D68CF
:104F1000C0690A437C49024329400A431A605A681F
:104F2000E16822F440520A435A60784AA1699342E8
:104F30001CBF226A11439A6822F06E4222F430624A
:104F40000A439A60DA6A616A22F00F020A43DA625F
:104F50006F4A934219D16F4BD3F8E03003F003034B
:104F6000022B00F0AE80032B24D0012B00F0C58073
:104F70000123B0F5004F03F1FF3340F09180032B84
:104F800014D8DFE803F08513138B634A934217D1DB
:104F9000604BD3F8E03003F00C03082B57D007D850
:104FA000002B00F09380042B00F0A780012019E073
:104FB0000C2BFBD1B0F5004F4FD04FF400408CE0EC
:104FC000524A9342F2D1534BD3F8E83003F0030333
:104FD000022B11D0032B37D0012B0AD0FFF710F88A
:104FE00058B900204FF00113A3660023C4E91D3314
:104FF00038BDFEF7F7FEF3E74848494B626A65683B
:1050000033F8122005EB4501B0FBF2F39942CDD8FD
:10501000B3EB053FCAD800231946FBF7ABFD0902E5
:1050200041EA10616B080002C0182A464FF00003E5
:1050300041F10001FBF79EFD3A4BA0F540729A4208
:10504000B4D82368D860CCE74FF40040D5E70423F8
:105050008FE7FEF7B5FF0028C3D0314B626A616865
:1050600033F812204B08B0FBF2F203EB4203B3FB20
:10507000F1F34FF6EF72A3F11001914296D823F0AD
:105080000F02216892B2C3F342031343CB60A8E737
:10509000FEF7A6FFDFE7FEF7A5FEDCE71F48DCE72B
:1050A000032B83D801A252F823F000BFBD500008A3
:1050B000AD4F0008AD4F0008C9500008FEF790FF43
:1050C00009E0B0F5004FE9D0144806E0B0F5004F14
:1050D000BFD0FEF775FF002883D0616A104A63686D
:1050E00032F81120B0FBF2F000EB5300B0FBF3F00C
:1050F0004FF6EF73A0F11002A1E7B0F5004FCAD050
:10510000FEF770FEE7E700BFF369FFCF002400461B
:1051100000380140000C0246004400400024F40026
:10512000EEB40208FFFC0F00836A10B51A0706D51B
:105130000168846B4A6822F4004222434A60DC071B
:1051400006D50168C46A4A6822F4003222434A60E4
:10515000990706D50168046B4A6822F4803222431D
:105160004A605A0706D50168446B4A6822F48022D7
:1051700022434A60DC0606D50168C46B8A6822F4C3
:10518000805222438A60990606D50168046C8A68B9
:1051900022F4005222438A605A0610D50168446CFA
:1051A0004A68B4F5801F22F4801242EA04024A6081
:1051B00005D14A68846C22F4C00222434A601B066F
:1051C00006D50268C16C536823F400230B43536077
:1051D00010BD2DE9F84304460D4617469846DDF804
:1051E00020902268D36935EA03030CBF0123002312
:1051F000BB4201D0002022E0B9F1FF3FF2D0FCF722
:10520000F3FEA0EB0800484529D8B9F1000F26D0DD
:1052100021680B685A07E4D5802DE2D0402DE0D0FC
:10522000CE6916F008060CD0082520460D62FFF75F
:105230003BFE00230120C4F8905084F88430BDE880
:10524000F883CB691B05CCD54FF4006320460B6275
:10525000FFF72AFE202384F88460C4F890300320EE
:10526000EDE72DE9F7439846D0F888300446202B27
:105270000E46174646D1002946D0002A44D02123A5
:105280000025C0F89050C0F88830FCF7ADFEA36848
:105290008146B3F5805FA4F85470A4F8567003D12A
:1052A00023690BB935461E46B4F856204B4692B2D8
:1052B000CDF8008042B940212046FFF78AFF202325
:1052C00048B9C4F8883009E0002280212046FFF761
:1052D00080FF30B120230320C4F8883003B0BDE83C
:1052E000F08322685EB935F8023BC3F3080393628A
:1052F000B4F85620013A92B2A4F85620D4E716F832
:10530000013BF4E70220E9E70120E7E773B5002657
:105310000446C0F89060FCF767FE236805461B68EA
:105320001A071CD56FF07E43324600934FF40011EC
:1053300003462046FFF74DFF88B1226852E8003F40
:1053400023F0800342E800310029F6D12023C4F87D
:1053500088300320002384F8843002B070BD2368B5
:105360001B685B0724D56FF07E43002200934FF447
:1053700080012B462046FFF72CFFC8B1226852E877
:10538000003F23F4907342E8003122680029F5D1F0
:1053900002F1080353E8003F23F0010302F1080083
:1053A00040E800310029F3D12023C4F88C30D0E745
:1053B00020230020C4F88830C4F88C30E0662067D1
:1053C000C8E710B5044670B3D0F888301BB980F830
:1053D0008430FCF7C3FB24232268C4F888301368A8
:1053E00023F001031360A36A13B12046FFF79CFE6C
:1053F0002046FFF785FD012815D023682046BDE82B
:1054000010405A6822F490425A609A6822F02202B0
:105410009A609A6842F008029A601A6842F00102A3
:105420001A60FFF773BF012010BD0000436E30B556
:105430002BB90123A0F86A30A0F8683030BD0368AA
:10544000094D9A689968094C490F6B5C615CDB00F7
:10545000B3FBF1F3C2F34262A0F86A30AB5CA25C2A
:10546000DB00B3FBF2F3E7E70EB5020806B502086E
:1054700010B590F884300446012B17D02423C0F8CF
:10548000883003681A68196842F0005221F001015F
:1054900019604FF0005141661A60FFF7C7FF2023E3
:1054A000C0F88830002084F8840010BD0220FCE79A
:1054B00070B590F884300446012B17D0242305687A
:1054C000C0F888302E682B6823F001032B60AB688E
:1054D00023F060431943A960FFF7A8FF20232E6043
:1054E000C0F88830002084F8840070BD0220FCE7FA
:1054F00070B590F884300446012B17D0242305683A
:10550000C0F888302E682B6823F001032B60AB684D
:1055100023F060631943A960FFF788FF20232E6002
:10552000C0F88830002084F8840070BD0220FCE7B9
:105530000023034A1377034A1370034A137070471A
:10554000EC5A0020E95A0020E85A0020034A137F51
:1055500042F8230001331377704700BFEC5A002054
:1055600070B543780446FF2B0CD1B0F8033003F438
:105570007F43B3F5406F05D100250A4E327FEBB271
:105580009A4204D82046BDE8704000F02FBB204668
:1055900056F82330984701350028EFD0023818BF5D
:1055A000012070BDEC5A002001F06ABB01F096BBEF
:1055B00001F00BBC01F00ABC002208B511460448FA
:1055C00015F03EFE034B1860B0FA80F0400908BDAC
:1055D00019560008105B002038B50D4C01F0B5FBE2
:1055E00023786BB10B4D286816F005F8022802D01D
:1055F000286815F059FF002008F093FD28B92070A5
:10560000002401F09FFB204638BD0124F9E700BFCC
:105610000C5B0020105B002008B5054B186815F0E6
:1056200043FF18B9BDE80840FFF7D6BF08BD00BF6B
:10563000105B002001F062BA01F074BA01F086BA82
:1056400001F086BA01F094BA01F0B8BA01F0C6BA16
:1056500001F0D4BA08B101F07BBB01F08BBB08B1FB
:1056600001F09ABB01F0A4BB01F0AEBB01F0AFBBEF
:105670000820704708B515F0F5FB28B9FFF7ACFF17
:1056800015F026FB01F037FA15F0ECFB18B9BDE870
:10569000084001F0A5BB08BD704708B5FFF78CFFB7
:1056A000B0FA80F04009FFF7C9FF01F091FBBDE8B7
:1056B000084001F09BBB000013B5044601A807F0A9
:1056C000EBFC019808F035FB204608F0AFFD0348DD
:1056D00008F0B9FDFFF7E1FF02B010BD99560008D0
:1056E000002313B5104801A9019304F009FA0198A9
:1056F0000830FFF735FF044688B1019803F084FABB
:10570000094804F0D0F9014618B914B1042004F096
:1057100097FB0021082004F093FB02B010BD019913
:10572000014804F0CAF9EBE7268A002008B51AF010
:1057300099FF18B9BDE8084001F0D9B908BD4FF08C
:105740000F0008F08DBD000018B10020014903F0E2
:105750004FB870474957000830B5CB488FB004F0B8
:105760009FF900210820C94A04F042FC00210420CE
:10577000C74A04F03DFCFC220021C64803F0AEFB02
:105780004FF4FC72C349002002F022FF002002F017
:1057900099FF0023FF211A461846009303F0B6FB39
:1057A000033002D0032003F0E1FCBB48BB4B4FF4B5
:1057B0008B54036041F274534360B94BB94D83601D
:1057C000B94BC0E90343B94BC0E90553B84BC361BA
:1057D00080230384002343621AF0E2FE054600287A
:1057E00040F01F810221B34AADF82600ADF8280031
:1057F000ADF82A00ADF8240001F023FB3423AE4CB1
:1058000006222370122363702A23A370E123E3701E
:10581000082320460CA9CDE90B55ADF8345023716F
:10582000657123F02FFC88B9A44BD3F8002A511CD2
:1058300000F01681D3F8043A2270120A62701A0A34
:10584000E2701A0CA37022711B0E63719A4C2246EF
:10585000062100201BF02AFB0546002800F05E818F
:10586000034602210020964A01F0EBFA102118208D
:10587000944A1BF01BFB0346002800F064810221C0
:105880000020914A01F0DDFA102108208F4A1BF018
:105890000DFB0346002800F05B81022100208C4AAA
:1058A00001F0CFFA172101201BF010FB034600285E
:1058B00000F0538102210020864A01F0C2FA1CF058
:1058C00037FF0346002800F04D8102210020824A64
:1058D00001F0B7FA0DF12A0301930AAB00930422F9
:1058E0000DF12603002101201BF01EFF03460028B6
:1058F00000F03D8102210020784A01F0A2FA784BA5
:1059000000220093BDF828100423BDF826001DF0E6
:10591000ADF90346002800F02F8102210020714AD2
:1059200001F08FFA09AB009300220223BDF82A1080
:10593000BDF826001DF09AF90346002800F02181E9
:1059400002210020684A01F07CFA02220020114660
:105950001BF07CFA0346002800F018810221002089
:10596000624A01F06EFA0320614C207020F03EFE86
:105970000346002800F00F81022100205D4A01F05B
:1059800060FA4FF480720025628041F208025A4B9F
:10599000A280A36065700122CDE903351023CDE913
:1059A000013208232A46009329462B46284620F038
:1059B00027FE0346002800F0F380022128464F4AC4
:1059C00001F03FFAA37853B11CF088F90346002890
:1059D00000F0EB8002210020494A01F032FA002554
:1059E00002210020474A01F02CFAFFF7A1FD4FF6F3
:1059F000FF7302212846444AE382257601F021FA0A
:105A000002212846414A01F01CFA00F035FF02212C
:105A100028463F4A01F015FA022128463A4A01F089
:105A200010FA00234FF4F0724FF4A0711846CDE93C
:105A30000533CDE90333CDE9013300931CF000F8C1
:105A4000002840F0B7800A201CF0B4F8002840F08D
:105A5000B1800B202F490FB0BDE830401CF022B8B8
:105A60000BA903F025FD60B90B9B1A7A22705A7AB4
:105A700062709A7AA270DA7AE2701A7B5B7B22718A
:105A8000E3E6254CE3E600BF268A00202D570008F8
:105A9000E156000820820020145B00209C6C00204E
:105AA0003C5B00204005021E440008006F00FB0024
:105AB000F800402016B50208208A00200000F90BEB
:105AC00041B502088FC0020822B602087FC0020852
:105AD000BEB602085AB70208C8B702081CB80208C6
