:020000040800F2
:1000000000000220B9AD0008492600084B26000870
:100010004D2600084F26000851260008DD2900085B
:10002000000000000000000000000000532600084F
:100030005526000800000000572600085926000831
:10004000DD290008DD2900085D260008DD290008FB
:10005000DD290008DD290008DD290008DD29000868
:10006000DD290008DD290008DD290008DD29000858
:10007000DD290008DD290008DD290008DD29000848
:10008000DD290008DD290008DD290008DD29000838
:10009000DD290008DD290008DD290008DD29000828
:1000A000DD290008DD290008C5260008DD29000833
:1000B000DD29000811270008DD290008DD290008D6
:1000C000DD290008DD290008DD290008DD290008F8
:1000D000DD290008DD290008DD290008DD290008E8
:1000E000DD290008DD290008DD290008DD290008D8
:1000F000DD290008DD290008DD290008DD290008C8
:10010000DD29000899270008DD290008DD290008FD
:10011000A5270008DD290008DD290008DD290008E1
:10012000DD290008DD290008DD290008DD29000897
:10013000DD290008F9270008DD290008DD2900086D
:10014000DD290008C5270008D1270008DD2900089F
:10015000DD290008DD290008DD290008DD29000867
:1001600010B5054C237833B9044B13B10448AFF3F1
:1001700000800123237010BD500600200000000005
:10018000CCC4020808B5034B1BB103490348AFF3C5
:10019000008008BD0000000054060020CCC4020806
:1001A00070B4840746D04C1E002941D0D5B2034616
:1001B00002E0611EE4B30C4603F8015B9907F8D135
:1001C000032C2ED9D5B245EA05250F2C45EA054565
:1001D00019D9264603F11001103E0F2E41F8105C8C
:1001E00041F80C5C41F8085C41F8045C01F1100135
:1001F000F2D8A4F1100121F00F0104F00F04103126
:10020000032C0B440DD91E4621460439032946F818
:10021000045BFAD8211F21F0030104310B4404F0E0
:1002200003042CB1D2B21C4403F8012BA342FBD12E
:1002300070BC70470C460346C2E7034613F8012B17
:10024000002AFBD1181A01387047000081F00041E4
:1002500002E000BF83F0004330B54FEA41044FEAAB
:10026000430594EA050F08BF90EA020F1FBF54EA46
:10027000000C55EA020C7FEA645C7FEA655C00F0E2
:10028000E2804FEA5454D4EB5555B8BF6D420CDDB3
:100290002C4480EA020281EA030382EA000083EA36
:1002A000010180EA020281EA0303362D88BF30BDD6
:1002B00011F0004F4FEA01314FF4801C4CEA11312C
:1002C00002D0404261EB410113F0004F4FEA03338B
:1002D0004CEA133302D0524263EB430394EA050F16
:1002E00000F0A780A4F10104D5F1200E0DDB02FA85
:1002F0000EFC22FA05F2801841F1000103FA0EF219
:10030000801843FA05F359410EE0A5F120050EF1DE
:10031000200E012A03FA0EFC28BF4CF0020C43FA0F
:1003200005F3C01851EBE37101F0004507D54FF01C
:10033000000EDCF1000C7EEB00006EEB0101B1F56C
:10034000801F1BD3B1F5001F0CD349085FEA3000B2
:100350004FEA3C0C04F101044FEA445212F5800FBD
:1003600080F09A80BCF1004F08BF5FEA500C50F15A
:10037000000041EB045141EA050130BD5FEA4C0C3D
:10038000404141EB0101013C28BFB1F5801FE9D29A
:1003900091F0000F04BF01460020B1FA81F308BFBD
:1003A0002033A3F10B03B3F120020CDA0C3208DD89
:1003B00002F1140CC2F10C0201FA0CF021FA02F164
:1003C0000CE002F11402D8BFC2F1200C01FA02F1D4
:1003D00020FA0CFCDCBF41EA0C019040E41AA2BFF9
:1003E00001EB0451294330BD6FEA04041F3C1CDAC1
:1003F0000C340EDC04F11404C4F1200220FA04F0E1
:1004000001FA02F340EA030021FA04F345EA03018A
:1004100030BDC4F10C04C4F1200220FA02F001FA4C
:1004200004F340EA0300294630BD21FA04F02946CE
:1004300030BD94F0000F83F4801306BF81F4801167
:100440000134013D4EE77FEA645C18BF7FEA655CDA
:1004500029D094EA050F08BF90EA020F05D054EAAC
:10046000000C04BF1946104630BD91EA030F1EBFB1
:100470000021002030BD5FEA545C05D140004941B5
:1004800028BF41F0004130BD14F580043CBF01F5A8
:10049000801130BD01F0004545F0FE4141F470018E
:1004A0004FF0000030BD7FEA645C1ABF1946104669
:1004B0007FEA655C1CBF0B46024650EA013406BF6A
:1004C00052EA033591EA030F41F4002130BD00BF29
:1004D00090F0000F04BF0021704730B54FF48064E6
:1004E00004F132044FF000054FF0000150E700BF67
:1004F00090F0000F04BF0021704730B54FF48064C6
:1005000004F1320410F0004548BF40424FF00001B2
:100510003EE700BF42004FEAE2014FEA31014FEAF5
:1005200002701FBF12F07F4393F07F4F81F0605144
:10053000704732F07F4208BF704793F07F4F04BF8F
:1005400041F40021704730B54FF4607401F000456C
:1005500021F000411CE700BF50EA010208BF7047CC
:1005600030B54FF000050AE050EA010208BF7047BD
:1005700030B511F0004502D5404261EB41014FF426
:10058000806404F132045FEA915C3FF4D8AE4FF02E
:1005900003025FEADC0C18BF03325FEADC0C18BF11
:1005A000033202EBDC02C2F1200300FA03FC20FA62
:1005B00002F001FA03FE40EA0E0021FA02F11444AF
:1005C000BDE600BF70B54FF0FF0C4CF4E06C1CEAC8
:1005D00011541DBF1CEA135594EA0C0F95EA0C0F39
:1005E00000F0DEF82C4481EA030621EA4C5123EAAC
:1005F0004C5350EA013518BF52EA033541F48011DB
:1006000043F4801338D0A0FB02CE4FF00005E1FB8D
:1006100002E506F00042E0FB03E54FF00006E1FBD7
:1006200003569CF0000F18BF4EF0010EA4F1FF041A
:10063000B6F5007F64F5407404D25FEA4E0E6D415A
:1006400046EB060642EAC62141EA55514FEAC5206B
:1006500040EA5E504FEACE2EB4F1FD0C88BFBCF5E7
:10066000E06F1ED8BEF1004F08BF5FEA500E50F198
:10067000000041EB045170BD06F0004646EA01015E
:1006800040EA020081EA0301B4EB5C04C2BFD4EB90
:100690000C0541EA045170BD41F480114FF0000E89
:1006A000013C00F3AB8014F1360FDEBF002001F0F7
:1006B000004170BDC4F10004203C35DA0C341BDC71
:1006C00004F11404C4F1200500FA05F320FA04F043
:1006D00001FA05F240EA020001F0004221F0004177
:1006E00010EBD37021FA04F642EB06015EEA430EEA
:1006F00008BF20EAD37070BDC4F10C04C4F120051A
:1007000000FA04F320FA05F001FA04F240EA0200CC
:1007100001F0004110EBD37041F100015EEA430E9D
:1007200008BF20EAD37070BDC4F1200500FA05F2BD
:100730004EEA020E20FA04F301FA05F243EA02033C
:1007400021FA04F001F0004121FA04F220EA02004B
:1007500000EBD3705EEA430E08BF20EAD37070BD91
:1007600094F0000F0FD101F00046400041EB010171
:1007700011F4801F08BF013CF7D041EA060195F053
:10078000000F18BF704703F00046520043EB03030D
:1007900013F4801F08BF013DF7D043EA06037047FA
:1007A00094EA0C0F0CEA135518BF95EA0C0F0CD005
:1007B00050EA410618BF52EA4306D1D181EA03014B
:1007C00001F000414FF0000070BD50EA410606BF45
:1007D0001046194652EA430619D094EA0C0F02D18A
:1007E00050EA013613D195EA0C0F05D152EA0336CF
:1007F0001CBF104619460AD181EA030101F00041ED
:1008000041F0FE4141F470014FF0000070BD41F035
:10081000FE4141F4780170BD70B54FF0FF0C4CF40F
:10082000E06C1CEA11541DBF1CEA135594EA0C0F2E
:1008300095EA0C0F00F0A7F8A4EB050481EA030E7B
:1008400052EA03354FEA013100F088804FEA033362
:100850004FF0805545EA131343EA12634FEA022230
:1008600045EA111545EA10654FEA00260EF00041F1
:100870009D4208BF964244F1FD0404F5407402D243
:100880005B084FEA3202B61A65EB03055B084FEAD4
:1008900032024FF480104FF4002CB6EB020E75EBD1
:1008A000030E22BFB61A754640EA0C005B084FEAF9
:1008B0003202B6EB020E75EB030E22BFB61A754676
:1008C00040EA5C005B084FEA3202B6EB020E75EBC1
:1008D000030E22BFB61A754640EA9C005B084FEA39
:1008E0003202B6EB020E75EB030E22BFB61A754646
:1008F00040EADC0055EA060E18D04FEA051545EA35
:1009000016754FEA06164FEAC30343EA52734FEADD
:10091000C2025FEA1C1CC0D111F4801F0BD141EA56
:1009200000014FF000004FF0004CB6E711F4801FBB
:1009300004BF01430020B4F1FD0C88BFBCF5E06F9B
:100940003FF6AFAEB5EB030C04BFB6EB020C5FEAAB
:10095000500C50F1000041EB045170BD0EF0004E00
:100960004EEA113114EB5C04C2BFD4EB0C0541EA32
:10097000045170BD41F480114FF0000E013C90E62F
:1009800045EA060E8DE60CEA135594EA0C0F08BFF3
:1009900095EA0C0F3FF43BAF94EA0C0F0AD150EAF2
:1009A00001347FF434AF95EA0C0F7FF425AF104685
:1009B00019462CE795EA0C0F06D152EA03353FF4AD
:1009C000FDAE1046194622E750EA410618BF52EA2A
:1009D00043067FF4C5AE50EA41047FF40DAF52EAFE
:1009E00043057FF4EBAE12E74FF0FF3C06E000BF9B
:1009F0004FF0010C02E000BF4FF0010C4DF804CDA8
:100A00004FEA410C7FEA6C5C4FEA430C18BF7FEA67
:100A10006C5C1BD001B050EA410C0CBF52EA430C95
:100A200091EA030F02BF90EA020F0020704710F115
:100A3000000F91EA030F58BF994208BF90422CBFA4
:100A4000D8176FEAE37040F0010070474FEA410C9D
:100A50007FEA6C5C02D150EA013C07D14FEA430CBB
:100A60007FEA6C5CD6D152EA033CD3D05DF8040B2C
:100A7000704700BF8446104662468C46194663465E
:100A800000E000BF01B5FFF7B7FF002848BF10F135
:100A9000000F01BD4DF808EDFFF7F4FF0CBF01207A
:100AA00000205DF808FB00BF4DF808EDFFF7EAFFF6
:100AB00034BF012000205DF808FB00BF4DF808EDB1
:100AC000FFF7E0FF94BF012000205DF808FB00BFA6
:100AD0004DF808EDFFF7CEFF94BF012000205DF830
:100AE00008FB00BF4DF808EDFFF7C4FF34BF01203D
:100AF00000205DF808FB00BF4FEA410C7FEA6C5C08
:100B000002D150EA013C0AD14FEA430C7FEA6C5C07
:100B100002D152EA033C02D14FF0000070474FF07F
:100B2000010070474FEA410212F5001215D211D5AB
:100B30006FF47873B3EB625212D94FEAC12343F0DA
:100B4000004343EA505311F0004F23FA02F018BF5C
:100B5000404270474FF00000704750EA013005D125
:100B600011F0004008BF6FF0004070474FF00000E8
:100B7000704700BF53B94AB9002908BF00281CBFFD
:100B80004FF0FF314FF0FF3000F07EB9ADF1080CAF
:100B90006DE904CE00F006F8DDF804E0DDE902239B
:100BA00004B070472DE9F04F099D0C46002B4DD144
:100BB0008A420F4684469646B2FA82F360D94BB118
:100BC00002FA03FEC3F120029F4000FA03FC20FA60
:100BD00002F217434FEA1E461FFA8EF44FEA1C42F8
:100BE000B7FBF6F106FB117701FB04F042EA07427E
:100BF000904208D91EEB020201F1FF3702D2904267
:100C000000F22D813946121A1FFA8CFCB2FBF6F065
:100C100006FB102200FB04F44CEA024C644508D9A0
:100C20001EEB0C0C00F1FF3202D2644500F21A8177
:100C3000104640EA0140ACEB040C002125B12CFA2F
:100C400003F30022C5E90032BDE8F08F8B4205D9DD
:100C50000DB1C5E9000100210846F5E7B3FA83F1BB
:100C600000294DD1A342C0F0F280904280F0EF8085
:100C7000064623460846002DE6D0C5E90063E3E7B3
:100C8000002B40F0A2808A1A4FEA1E471FFA8EF608
:100C90000121B2FBF7F407FB14204FEA1C4242EAA1
:100CA000004206FB04F090420FD91EEB020204F151
:100CB000FF382CBF4FF001094FF00009904203D9D3
:100CC000B9F1000F00F0C8804446121A1FFA8CFCDC
:100CD000B2FBF7F007FB102200FB06F64CEA024CD1
:100CE000664508D91EEB0C0C00F1FF3202D26645B6
:100CF00000F2BB801046ACEB060C40EA04409DE7D6
:100D0000C1F120068B4004FA01FE22FA06F720FA10
:100D100006FCF4408A401F434EEA0C0300FA01FE31
:100D20004FEA17484FEA13491FFA87FCB4FBF8F063
:100D300008FB104449EA044400FB0CF9A1450ED914
:100D40003C1900F1FF3A2CBF4FF0010B4FF0000BA4
:100D5000A14503D9BBF1000F00F093805046A4EBEE
:100D600009041FFA83F9B4FBF8F308FB134403FBEF
:100D70000CFC49EA0444A44506D93C1903F1FF38A8
:100D800001D2A4457AD8434643EA0040A4EB0C04C0
:100D9000A0FB02984445CC46434602D306D1CE453B
:100DA00004D20138B9EB020C68EB07035DB1BEEB6E
:100DB0000C0264EB030404FA06F622FA01F3CC40B9
:100DC0001E43C5E9006400213EE702FA03FEC3F1B9
:100DD000200104FA03F200FA03FCCC404FEA1E475C
:100DE00020FA01F11FFA8EF6B4FBF7F00A4307FB75
:100DF0001044110C41EA044100FB06F48C420ED968
:100E00001EEB010100F1FF382CBF4FF001094FF03C
:100E100000098C4202D9B9F1000F2CD04046091BC1
:100E200092B2B1FBF7F407FB141142EA014204FB52
:100E300006F1914207D91EEB020204F1FF3801D2FC
:100E4000914215D84446521A44EA004121E7861AD5
:100E500064EB030301200EE7023C724435E70239DC
:100E60007244D0E6F4440238E3E6F444023842E740
:100E7000023C7244E7E702387144D0E7023B3C444D
:100E800082E702383C446AE7704700BF70B540F61D
:100E9000FC7404EA8104002843D1274B1A888A4253
:100EA00049D0198044F4104400228021234803F0E3
:100EB000D9F801228021214803F0D4F801224FF40F
:100EC00080711E4803F0CEF800224FF480711B4859
:100ED00003F0C8F800228021184803F0C3F80F255A
:100EE000174E44FA05F212F0010218BF01224FF426
:100EF0008051304603F0B6F801224FF480710F485C
:100F000003F0B0F800224FF480710C4803F0AAF807
:100F1000013DE6D20122BDE870408021074803F080
:100F2000A1B8012807D1074B1A888A4203D019803B
:100F300044F42044B8E770BD6E0600200000024271
:100F4000000402426C06002008F09CBF800008F0FC
:100F500043BF890008F0B8BF07B5002001A9019080
:100F600009F0C6FA28B10C2004F04EF903B05DF880
:100F700004FB019B987BF7E770B5414C88B00020DB
:100F800006F07CFFD4F8F430002543F40003C4F8E5
:100F9000F4300AF05DF83B4803F056FB032609F0F5
:100FA00017FD4FF46043CDE90555CDE903360795AC
:100FB000D4F88C3003A943F00103C4F88C30D4F882
:100FC0008C30314803F001030193019B02F0AAFF2A
:100FD0001823CDE904650393D4F88C3003A943F0BA
:100FE0000203C4F88C30D4F88C30284803F0020394
:100FF0000293029B02F096FF254808F095FC202002
:101000002946244A0AF014F84FF6FD71224BB3F832
:10101000A020531E9BB28B429BBF43F6FE7000EB99
:10102000D2001E48400308F0F9F9002140201C4A74
:1010300009F0FEFF002110201A4A09F0F9FF06F01E
:101040009BFC07F045F9184A0021012009F0F0FF48
:101050000121084607F032FB0021022007F02EFB99
:101060000021084607F02AFB05F05EFB0121022063
:1010700007F024FB002006F002FF002008B070BD3E
:10108000000C024640000030000002420004024210
:1010900000000020619D00080007F90B00C00F0848
:1010A0001D890008217B00084D8300084FF0FF30A8
:1010B00009F028BF7047704770470021102009F0E1
:1010C000DFBE0021012009F0DBBE0000034B0360FE
:1010D000034B4360034B8360704700BF530F00080E
:1010E0004D0F0008490F00080021202009F0C8BE5C
:1010F0000021402009F0C4BE30B599B04022002143
:1011000008A829F009F820220021684629F004F8EF
:10111000002003F0B7FA044608B172B6FEE703F008
:101120008BFA194A4FF48011D2F8F030102523F0D1
:10113000180343F00803C2F8F03007224FF480335D
:10114000CDE908238123CDE90A134FF4807308A861
:10115000CDE90C35109403F02FFB014608B172B6AF
:10116000FEE73F23CDE900300423CDE90400CDE9BB
:101170000230CDE90605684603F0F4FD08B172B609
:10118000FEE719B030BD00BF000C024600B593B0B9
:101190004022002101A828F0BFFF4FF40043009334
:1011A0004FF480236846119303F0E2FE08B172B653
:1011B000FEE713B05DF804FB10B588B01C220021D7
:1011C00001A828F0A9FF164C164B4FF0804223606F
:1011D0007F23A3600023C4E90433C4E90723A36188
:1011E0004FF480732046636204F01AF908B172B6B6
:1011F000FEE7CDE904000190069001A9204604F025
:101200008DFA034608B172B6FEE701460422204675
:1012100004F008FA08B172B6FEE708B010BD00BFCE
:10122000B85E0020007800462DE9F04FB64EDFEDA5
:10123000B76A328AB6F8423000259B1A07EE903A18
:10124000F8EEE77A338A86EEA77A9BB207EE903AF9
:10125000F3EE0E6AF8EE677AE7EE676ADFEDAC7AD6
:10126000AC4B27EE277AC3ED006AF0EE086AC7EEB2
:10127000267A01274FF48058A74B9BB0A74CC3EDAB
:10128000007A01F0F9FBFFF767FEFFF735FFFFF784
:101290007DFF142200210DA828F03EFFD4F88C30E9
:1012A000002243F00203C4F88C30D4F88C304FF4A1
:1012B000805103F002030393039BD4F88C309848C9
:1012C00043F00103C4F88C30D4F88C304FF400495B
:1012D00003F001030493049BD4F88C304FF0040B0B
:1012E00043F00403C4F88C30D4F88C304FF0030A78
:1012F00003F004030593059B02F0B4FE00224FF4B3
:10130000F071884802F0AEFE85480DA9CDE90D8741
:10131000CDE90F5502F006FE4FF4F07381480DA998
:10132000CDE90D37CDE90F5502F0FCFD4FF48813E0
:101330007B480DA9CDE90D930F9502F0F3FD06F062
:101340009FFD2A4629461A2001F0F4FF1A2002F0D8
:1013500021F8D4F888302A463B43C4F88830D4F8C2
:10136000883029463B401D200293029B01F0E2FF9A
:101370001D2002F00FF86C4C6C4B4FF4B86EC4E9B2
:1013800000354FF40013C4E9043B4FF48063C4E913
:101390000BE307232046CDE90D55C4E90255C4E906
:1013A0000E8A0F95E561258384F82050C4F824A0A7
:1013B00084F8287084F834706565236484F8445098
:1013C00001F09EFB08B172B6FEE7594B0F90CDE9D4
:1013D0000D300DA9204601F087FD08B172B6FEE779
:1013E000544B2046CDE90D3B534B0DA90F9301F013
:1013F0007BFD08B172B6FEE74FF0080B4F4B20465D
:101400000DA9CDE90D3B01F06FFD08B172B6FEE705
:101410004FF4E1334A4DDFF84CC1C5E90200C5E99C
:1014200000C33023AB624FF40053C5E9040BC5E998
:101430000609C5E908002846C5F83C802B6404F07D
:10144000A8FF014608B172B6FEE7284605F018F875
:10145000014608B172B6FEE7284605F031F808B13A
:1014600072B6FEE7284604F0EBFF034608B172B6F9
:10147000FEE73448344AC0E90533026041F6B7520A
:101480008780C0E9022BC0F820A002F043F808B121
:1014900072B6FEE72D482E4B036003F025F908B124
:1014A00072B6FEE700232B482B49C0E9001303F076
:1014B000CBFE054608B172B6FEE7FFF77DFE284673
:1014C00002F0ECFD08B172B6FEE702F0F7FD08B1DC
:1014D00072B6FEE7214D224B4FF6FF78C5E900308A
:1014E00040F6EC13CDE90D00C5E90830C5E90A0066
:1014F000C5E90C00A8602846C5F8148002F00CFE6F
:1015000090B372B6FEE700BF0007F90B0000C842B7
:10151000333333405416002058160020000C024686
:101520000004024200000242F8600020001002465F
:10153000000200248000001C04FFFF03002000B410
:10154000D85D00202860002000300240FC5E0020B2
:1015500000600240E85E002000080C42085F0020A6
:10156000009400400044004040F2F6430122CDE9DF
:101570000D300DA9284602F04DFF074608B172B69E
:10158000FEE7284600F056FF384D394B2846C5E99E
:1015900000374FF46063AB6042F21073CDE90D7712
:1015A000C5E90837C5E90A77C5E90C77C5F814809D
:1015B00002F0B2FD024608B172B6FEE74FF47A635C
:1015C0000DA9CDE90D30284602F024FF074608B1E9
:1015D00072B6FEE701461C2206A828F09DFD3422C3
:1015E00039460DEB020028F097FD0F23214D224ACA
:1015F0002846C5E900238023C5E90278C5E90477B8
:10160000AB6104F0F3FA08B172B6FEE7284604F0C5
:101610001DFB08B172B6FEE70821284604F046FB20
:1016200008B172B6FEE700223023124806A9CDE9C0
:101630000632CDE90822CDE90A220C9204F09CFB87
:1016400008B172B6FEE74FF40053CDE90D00CDE9C5
:101650000F00CDE91230119019900DA9054804F042
:10166000BDFB054650B172B6FEE700BF985F002093
:10167000004400466C5E002000480140B44801F080
:10168000EDFD4FF4C8722946B24828F045FDB24935
:10169000B04828F077FDAF48FEF7CFFDAD4982B2E4
:1016A0006423AE4804F0C5FD2846FFF765FC00F052
:1016B0003BFB0146E8B94FF4C872A64828F02CFD60
:1016C0004FF6FD72B6F8A010A2484B1E9BB2934293
:1016D00096BFA34AA34A02EB8122A34928F0D2FC79
:1016E0009C48FEF7AAFD642382B29A499B4804F005
:1016F000A0FD9E4B00201988FFF7C8FB9C4B0120E2
:101700001988FFF7C3FB9B4B1B7883B103229A49CF
:101710008F4801F003FDA36D1A68536923F4007329
:1017200053612268936AA36E63F00F0393620023F0
:10173000924ADFF8BC921360914A1360914A136099
:10174000FFF7B4FC01F0C0F98F4B1860D9F80030F6
:1017500003F5FA6398428D4B88BFC9F800001B78E7
:10176000002B00F0A0808A4A136803F59C530833CD
:10177000984240F29880874B10601B78864C052B6E
:101780008BBF0026854AB34612F803B098BF844A3F
:101790009FED846A98BF32F8136044F23C232380A3
:1017A0004FEA0B2343F03E0363807F4B00251A680A
:1017B000362E07EE902A4FEA1243A3817B4BF8EEB8
:1017C000676A1B686281E3814FEA13432382784B87
:1017D000A6F137021B684FEA420207EE903AB8EED4
:1017E000677AC6EE877A4FEA13416382714B98BFDE
:1017F0002A46C3ED007A17EE903AE382C3F30F4313
:1018000023836D4BA1821B886C4907EE103A6C4B09
:10181000B8EE477AD3ED006A6A4B04F16E00D3ED5F
:10182000007AE7EE267A684B9FED687AC3ED007A7E
:10183000674BA5801B88E58006EE903AF8EEE66AD5
:1018400066EE876A86EE867A624B2F4683ED007AD3
:1018500017EE903A6383C3F30F43A38317EE103A56
:10186000E383C3F30F43238428F0A7FC2A4624F81C
:101870001650594BAB45B3F8008036DC4FF4C872B4
:101880000021344828F048FC43463A465349314841
:1018900028F0F8FB2F48FEF7D0FC642382B22D49D4
:1018A0002E4804F0C6FC4E49374B0A681B6802F507
:1018B0007A729A4238BF0B604A490A6802F57A7216
:1018C00093427FF63DAF484A0B601378002B7FF4BC
:1018D00037AF1F4B19689B6E886A6FEA03536FEA34
:1018E00013538B62012313702AE7284B1B78002BBC
:1018F000C4D03E4B00209C4604EB420A404503F115
:10190000020317DB08F1010802EB5802B242A8BF3C
:101910003B0A36480192A4BF8CF8F2708CF8F33081
:1019200005F0B2FFFFF7C2FB282001F0D3F8013524
:10193000019A9EE73AF8021B02304FEA112E03F893
:10194000021C5EFA81F1394403F801EC8FB2D5E74D
:10195000F8600020085C0020E8C40208D85D002080
:1019600010C0FF0710C00F08F3C4020820000020B9
:1019700022000020D05D0020A05D0020B05D00208E
:10198000AC5D00209C5D0020B45D0020D45D002093
:10199000C05D0020C45B00205E16002032C5020836
:1019A00026C5020800007F45C85D0020985D002024
:1019B000CC5D00202C160020CE5A0020CC3A00200E
:1019C0005816002054160020341600206666864003
:1019D000CC5A002030160020D490002013C50208F5
:1019E000C45D0020B85D00205C160020D05A0020A5
:1019F000BC5D002008B590F83830012B25D1134B81
:101A00001A782AB10022202111481A7002F02AFB0C
:101A1000104B1B784BB1104B1B78DA0705D5012111
:101A20000E4B0F48197002F037FC0E4B1B7863B158
:101A3000094B1B789B0708D501220B4B40211A70DC
:101A40000348BDE8084002F00DBB08BDD35D00208F
:101A5000000002422B00002028160020D25D00204A
:101A6000085F00202A000020D15D002008B50A4B45
:101A70001A782AB10022012108481A7002F03FFCAE
:101A8000074B1A783AB1002240211A700548BDE888
:101A9000084002F0E7BA08BDD25D0020085F0020D0
:101AA000D15D00200000024208B50021064802F086
:101AB000AFFC0121054802F022FCBDE808400022ED
:101AC0004021034802F0CEBA985F0020085F002052
:101AD0000000024272B6FEE710B558B1194A1378F9
:101AE000591C022B117017D8BDE810400020164970
:101AF00007F09EBE4FF6FD71144BB3F8A020531EA5
:101B00009BB28B4296BF124B124B03EB82231A6897
:101B1000114B9A42E2D110BD4FF4C87200210F4818
:101B200028F0FAFA0E490D4828F02CFB0B48FEF776
:101B300084FBBDE8104082B264230849094804F0E0
:101B400078BB00BF64610020D91A00080007F90BB8
:101B500010C0FF0710C00F0868452301085C002073
:101B600038C50208D85D0020554A53A1D1E90001CB
:101B700070B5C2E900015349534B09781B7809B18C
:101B800043F002035149097809B143F00403504975
:101B9000097809B143F008034E49097809B143F0C7
:101BA00010034D49097809B143F020034B490978E6
:101BB00009B143F040034A49097809B143F0800371
:101BC0004849097809B143F48073474909780129E4
:101BD00069D002296AD04549097809B143F4006304
:101BE000434D444900240E882978B00541EA9621E6
:101BF0006E7841EA0621AE78ED7841EA06413E4E24
:101C000041EA0561368840EA06300343C2E9023101
:101C10003A4B3B491B68096843EAE173C2E9041384
:101C2000384B1B68D917C2E90631374948780B7819
:101C30008D7843EA00233548C978006843EA0543B4
:101C400043EA0163C2E90803314B4FF0CC301B6813
:101C5000D917C2E90A314FF0DD31C2E90C014FF06A
:101C6000EE304FF0FF312B4BC2E90E012A492046DE
:101C70001C7007F0DDFD05464FF4C8722146274869
:101C800028F04AFA6DB12A462549244828F0FAF985
:101C90002248FEF7D2FA642382B22049214804F098
:101CA000C8FA012070BD43F4007394E743F48063E5
:101CB00091E700BFAFF300806845230100000000FA
:101CC000C85B00205D1600202B0000202A000020A9
:101CD00029000020280000202700002026000020E6
:101CE0002500002024000020C45B0020D05D0020DF
:101CF0004416002020000020220000204C16002066
:101D000050160020481600203C16002040160020E7
:101D10003816002064610020D91A0008085C0020F1
:101D200040C50208D85D00202DE9F04F002426466A
:101D3000DFF86C93AC4FA1B04FF6FD71B9F8A0205D
:101D40003846531E9BB28B4296BFA84DA84D05EB5B
:101D5000822500214FF4C87204EB050828F0DCF955
:101D600042466359A349384628F08CF93846FEF7B5
:101D700064FA642382B239469F4804F05AFA032E6B
:101D800006F1010340F0A381642302229B499A4893
:101D900004F04FFA00260434402CCDD164230222F3
:101DA0009649954804F045FA4FF6FD71B9F8A02020
:101DB000934D531E9BB28B4296BF8C4B8C4B03EBC7
:101DC00082231A688F4B00219A4287484FF4C872C9
:101DD00040F07F8128F0A0F98B49834828F0D2F9A0
:101DE0008148FEF72AFA642382B27F49824804F0D0
:101DF00020FA4FF4C87200217B4828F08DF94FF685
:101E0000FD72B9F8A01078484B1E9BB2934296BF62
:101E10007E4A7F4A02EB812213687E4928F032F91C
:101E20007148FEF70AFA642382B26F49724804F0DF
:101E300000FA4FF6FD71B9F8A020531E9BB28B42F9
:101E400096BF754B754B03EB82231C684FF6FD71F3
:101E500004F001032B70724BC4F3400A83F800A016
:101E6000704BC4F3800B83F800B0C4F3C003189325
:101E7000189A6D4BC4F3C0251A70C4F3001319935C
:101E8000199A6A4BC4F341261A70C4F340131A938B
:101E90001A9A674BC4F309371A70C4F380131B9363
:101EA0001B9A644B4FEA94581A70C4F3C0131C93E6
:101EB0001C9A614B1A70C4F300231D931D9A5F4B4B
:101EC00004F001041A705E4B1D705E4B1E705E4B79
:101ED0001F805E4BA3F80080B9F8A020531E9BB270
:101EE0008B4296BF49494A4901EB8221086858490B
:101EF00008604FF6FD718B4296BF5649564901EB7B
:101F00008221D1F800905549C1F800904FF6FD713B
:101F10008B4296BF5249534901EB822109681E91B9
:101F20001E98514908604FF6FD718B4296BF4F498C
:101F30004F4901EB822109681F911F984D490860A4
:101F40004FF6FD718B4296BF4B494C4901EB822104
:101F500008684B4908604FF6FD718B4296BF4949AE
:101F6000494901EB82210868484908604FF6FD7134
:101F70008B4296BF464B474B03EB82231A68464B76
:101F800000211A6018484FF4C87228F0C5F8424B77
:101F90001868FEF7BFFACDE916013C4B1868FEF74A
:101FA000B9FACDE91401364B1868FEF7B3FA1F9B56
:101FB000CDE9120110931E9BCDE90E93244B1868B6
:101FC000FEF7A8FA1D9B224606931C9BCDE90C0147
:101FD00005931B9B314904931A9B03480393199B58
:101FE000CDE9097802935DE0085C002010C0FF078E
:101FF00010C00F0858C50208D85D0020C1D30208E0
:102000002B0000206845230169C502081CC0FF079A
:102010001CC00F087CC5020818C0FF0718C00F08B5
:102020005D1600202A000020290000202800002042
:10203000270000202600002025000020240000208A
:10204000D05D0020C45B0020220000202000002082
:102050004416002020C0FF0720C00F0850160020A3
:1020600024C0FF0724C00F084C16002028C0FF071B
:1020700028C00F084816002030C0FF0730C00F08E6
:102080004016002034C0FF0734C00F083C16002063
:1020900038C0FF0738C00F08381600208EC5020868
:1020A0000007F90B189BCDE90756CDE900B353465D
:1020B00027F0E8FF2948FEF7C0F8642382B22749D9
:1020C000274804F0B6F8002021B0BDE8F08F1E4686
:1020D00061E628F021F82349204828F053F81F48EA
:1020E000FEF7ABF8642382B21C491D4804F0A1F846
:1020F000002201231C492B700A701C490B701C49DB
:102100000B701C490B701C490B701C490B701C494F
:102110000B701C490B701C4B1A704FF448721B4B10
:102120001A804FF416721A4B1A801E22194B1A602D
:102130003C22194B1A607822184B1A60184B194A26
:102140001A60194B194A1A60194B1A4A1A601A4B2D
:102150001A4A1A60FFF708FDB5E700BF085C0020C7
:10216000D85D0020BAC602085D1600202A000020B3
:102170002900002028000020270000202600002041
:102180002500002024000020C45B00202200002045
:1021900020000020501600204C1600204816002079
:1021A000441600203333333F401600206F12833A29
:1021B0003C160020CDCC8C3F38160020CDCC0C40F6
:1021C0000C4B07B5D3F89420052142F00402C3F864
:1021D0009420D3F89430002203F0040301934220AA
:1021E000019B01F0A7F8422003B05DF804EB01F079
:1021F000D1B800BF000C024630B50546B1B014227C
:10220000002103A827F088FF4822002108A827F012
:1022100083FF2A68434B9A4240F082804FF4005378
:1022200008934FF4804308A8179302F0A1FE08B169
:10223000FFF750FC3C4B0521D3F89420002442F0DA
:102240002002C3F89420D3F89420384802F02002EA
:102250000192019AD3F88C2042F00102C3F88C203D
:10226000D3F88C30059403F001030293029B0323FF
:10227000CDE9031303A901F055FE21234FF40020FB
:10228000CDE91A3401234FF48032CDE91F032849E8
:102290001AA8CDE91C44CDE92333CDE92544CDE985
:1022A00028441E94219227942B9401F02EFC08B10F
:1022B000FFF710FC00211E4A1E4801F07DFC08B10A
:1022C000FFF708FC1B4801F0D9FC08B1FFF702FC3E
:1022D000194C1A4B204623600023C4E90E33C4E98D
:1022E00010338123A36401F06BFB08B1FFF7F2FB0D
:1022F0001049114801F0EEFC08B1FFF7EBFBAC65AB
:1023000010210D48E56501F0C0FA08B1FFF7E2FBC6
:1023100000224120114601F00DF8412001F03AF869
:1023200031B030BD00100246000C024600000242EF
:10233000DC600020C46000204C600020500002409F
:102340000268094B82B09A420CD1084BD3F888201E
:1023500042F48052C3F88820D3F8883003F48053C5
:102360000193019B02B0704700300240000C02460E
:102370000268054B9A4201BF044AD2F8883023F420
:102380008053C2F88830704700300240000C02468B
:1023900010B5044694B04822002102A827F0BCFEE4
:1023A0002368214A934222D14FF4805302934FF481
:1023B000006302A8109302F0DBFD08B1FFF78AFB6F
:1023C0001A4B3120D3F8A82042F40062C3F8A820A9
:1023D0000022D3F8A830114603F400630093009B59
:1023E00000F0A8FF312000F0D5FF14B010BD104A56
:1023F0009342FAD1082302934FF4002302A80693D4
:1024000002F0B6FD08B1FFF765FB084BD3F8A0203A
:1024100042F02002C3F8A020D3F8A03003F020033C
:102420000193019BE1E700BF00440046000C024617
:102430000094004010B5044686B01422002101A883
:1024400027F06AFE22680D4B9A4215D10C4B0D48BD
:10245000D3F88C2001A942F00102C3F88C20D3F8F4
:102460008C3003F001030093009B0223CDE901337C
:102470000D23059301F056FD06B010BD00940040F9
:10248000000C024600000242074B82B0D3F88820BD
:1024900042F40032C3F88820D3F8883003F40033C4
:1024A0000193019B02B07047000C024610B5044630
:1024B00094B04822002102A827F02EFE22680F4B7C
:1024C0009A4218D14FF4807302934FF4005302A83C
:1024D0000B9302F04DFD08B1FFF7FCFA084BD3F85F
:1024E0008C2042F48022C3F88C20D3F88C3003F483
:1024F00080230193019B14B010BD00BF00080C4263
:10250000000C024610B5044694B04822002102A8EF
:1025100027F002FE2268134B9A4220D14FF48043E9
:1025200002934FF4807302A8129302F021FD08B1C8
:10253000FFF7D0FA0C4B0220D3F8A82042F4001287
:10254000C3F8A8200022D3F8A830114603F40013E2
:102550000193019B00F0EEFE022000F01BFF14B07F
:1025600010BD00BF00780046000C024607B50F4BB7
:1025700002689A4217D10E4B3420D3F8A42042F4BB
:102580008022C3F8A4200022D3F8A430114603F41B
:1025900080230193019B00F0CDFE342003B05DF851
:1025A00004EB00F0F7BE03B05DF804FB0048014007
:1025B000000C024610B504469AB01422002103A86C
:1025C00027F0AAFD4822002108A827F0A5FD2268CF
:1025D0001A4B9A4230D102230893082308A80A9381
:1025E00002F0C6FC08B1FFF775FA154B1548D3F891
:1025F0009C2003A942F40032C3F89C20D3F89C200D
:1026000002F400320192019AD3F88C2042F00102C8
:10261000C3F88C20D3F88C304FF4805203F00103C0
:102620000293029B1223CDE903230023CDE9053356
:102630000323079301F076FC1AB010BD004400405C
:10264000000C024600000242FEE7FEE7FEE7FEE75E
:10265000FEE770477047704700F02ABA10B510487F
:1026600003F02CF80F4A1368591C11600E4A1360CE
:102670000E4B1A680E4B1A600E4A0F4B106818600A
:102680000E4B1968B1F5007FA4BF002119601968CD
:102690004C1C1C600A4B23F811000023136010BD72
:1026A000B85E00209C5D0020CC5D0020B05D002065
:1026B000C85D0020AC5D0020985D0020C836002079
:1026C000CC36002008B54FF4004001F0D3FC0B4A93
:1026D0001368013313600A4A136801331360094B0E
:1026E0001B784BB108480122202101F0BBFCBDE85A
:1026F0000840064803F030B908BD00BFB05D0020B7
:10270000AC5D00205D160020000002426C5E0020DF
:1027100008B51A4800F0FAFF194B1B78012B22D09C
:10272000022B25D073B9174B1B68C3F389034FF6EF
:10273000FF701549373331F8132082421CBF013234
:1027400021F81320114B1A7862B100221A700D4A39
:102750000F499368C3F30B030B8053680D4AC3F30F
:102760000B03138008BD074B1B68C3F34A03DEE766
:10277000044B1B68C3F30B03D9E700BF4C60002078
:10278000C45B0020A05D0020CC3A00205C16002035
:10279000CC5A0020CE5A0020014801F07EBE00BF76
:1027A000985F002008B5054803F007F9BDE8084028
:1027B00000222021024801F055BC00BF6C5E0020C1
:1027C00000000242014800F0EEBA00BFF8600020AD
:1027D00008B5074B1B6803B19847064AD2F8083280
:1027E00023F48033C2F80832BFF36F8F08BD00BFF7
:1027F00058920020000C024638B54FF000530C4CA4
:10280000C4F88430BFF34F8FBFF36F8F094B1B6841
:1028100003B19847084D2B7833B1002205213D20A4
:1028200000F088FD00232B704FF00053636038BD2B
:1028300000E100E0549200203A920020012070470D
:1028400008B527F075FC162303604FF0FF3008BD74
:1028500008B527F06DFC16230360FEE770B50D4642
:1028600014460E46731B9C4201DC204670BDAFF33C
:10287000008006F8010BF5E770B50D4614460E46CC
:10288000731B9C4201DC204670BD16F8010BAFF3B0
:102890000080F5E74FF0FF3070474FF40053002001
:1028A0004B60704701207047002070470B4A034679
:1028B000116810B509B90A491160106809490A4C34
:1028C0000344091B8B4206D927F032FC0C2303601A
:1028D0004FF0FF3010BD1360FCE700BF68610020BF
:1028E000F8CB00200000022000040000034AD2F8C8
:1028F000883043F47003C2F88830704700ED00E080
:102900002F48C36903F00C03082B0CD00C2B10D0FC
:102910002C4B2B4A2C49126A02F007028A5CD340E6
:102920002A4A136070470268294BC2F30052D34011
:10293000EFE7816A436BC1F30222013206EE102AEF
:10294000C3F30802013207EE902ACA0648BF826B21
:1029500001F0030145BFC2F3CC0207EE102ADFED00
:102960001D6AF8EEC76AC3F30663022903F1010387
:1029700022D0032922D1124A1168154AC1F300510D
:10298000CA4007EE102AB8EEC66AB8EEC77AF8EE6B
:10299000E77AC7EE065A9FED107AE6EE877A65EE83
:1029A000A76A07EE903AB8EEE77AC6EE877AFCEEB1
:1029B000E77A17EE903AACE7024AE2E70022E0E756
:1029C000000C02460024F400D9C602082C000020A6
:1029D0000048E8010000000000000039FEE70000A8
:1029E00038B5214B05461A780AB9012038BD4FF099
:1029F000E023186910F0040016D04FF47A73B3FB8B
:102A0000F2F21A4B1868B0FBF2F000F0E3FC044657
:102A10000028EAD1024629464FF0FF3000F08AFC38
:102A2000134B20461D60E1E7124BD3F8E03003F46E
:102A30004003B3F5800F07D0B3F5000F0DD0002B86
:102A4000E3D14FF4FA53DAE74FF47A73B3FBF2F2BF
:102A50004FF4FA43B3FBF2F0D7E74FF47A73B3FBCA
:102A6000F2F24FF40043F5E7300000202C00002084
:102A700034000020000C02460C4A10B513680320F5
:102A800043F48073136000F043FCFFF739FF042028
:102A900000F0BEFC0F20FFF7A3FF044618B9FFF7B4
:102AA0008FFB204610BD0124FBE700BF0020024041
:102AB000034A044B11681B780B441360704700BF36
:102AC0006C61002030000020014B1868704700BF87
:102AD0006C61002038B50446FFF7F6FF0546631C1D
:102AE0001EBF044B1B78E418FFF7EEFF431BA34205
:102AF000FAD338BD300000208068C0F380007047F2
:102B0000F8B5044668B3056E25B9FFF775FB656631
:102B100084F85C5022689368DF0025D44FF480531A
:102B20001360936823F0104323F0170343F080539E
:102B30009360FFF7C9FF054623681B68D80413D4C8
:102B4000FFF7C2FF401B0128F6D923681B68DE048B
:102B5000F2D4236E43F010032366636E43F0010347
:102B6000636601252846F8BD23689A681846D10097
:102B70005FBF226E012542F01002226657BF626ECF
:102B8000002542F001026266FFF7B6FF226E02F0F6
:102B90001002104340F0A780226E22F4817242F0AE
:102BA000020222669A68D20722D4DA68A16822F06B
:102BB0000C020A43DA6094F84420606D012A07D1C0
:102BC000226DA16C02430A43E16C0A4342F001000A
:102BD0001969474A474E0A4002431A61D6F808135A
:102BE000626821F4701102F470120A43C6F80823D7
:102BF000A26B94F82070003A18BF0122267E1103C0
:102C00007A0342EA8632E66894F834E03243266971
:102C100042EA4E02002EA8BF4FF4001C42EA010215
:102C200094F82810B8BF26F0004C012942EA0C02A3
:102C300003D1002F3AD142F48032E16A21B1276BEF
:102C400001F4E07139430A43DF682B4939401143ED
:102C5000D9601F692649394001431961586C617E6A
:102C6000E76920F003003943014359645969E06B77
:102C700021F00701014359615969206C21F070016D
:102C800041EA00115961D6B9996A61F00F01996260
:102C9000D9681A4B0B40934221D100236366236EFF
:102CA00023F0030343F0010323665BE7216E41F049
:102CB00020012166616E41F001016166BDE7B6F554
:102CC000001FE5D16FF00F00996A616A0139890030
:102CD00001F01C0100FA01F1A06E0143D7E7236E59
:102CE00023F0120336E7236E43F01003236638E720
:102CF00002FCFFDF001002460D82DEFFF3FF3F8380
:102D00007047704708B5C06DFFF7FBFF08BD7047FF
:102D10007047C06D08B5036E43F040030366436E11
:102D200043F004034366FFF7F3FF08BDC36D10B51E
:102D30001A6E12F0500F1A6E2AD142F400721A66FF
:102D40001A68D16811F4406F15D193F8201091B929
:102D5000116809070FD51046FFF7CEFE78B9516804
:102D600021F00C0151601A6E22F4807222F00102EF
:102D700042F001021A661846FFF7C2FF10BD1A6E34
:102D800042F020021A665A6E42F001025A66F2E7D9
:102D9000D20603D51846FFF7BBFFEFE79B6DBDE8F2
:102DA00010409B6E1847036870B51E680446B00754
:102DB0005D680ED5A9070CD5236E2046DA065EBFE6
:102DC000236E43F40063236600F09FFA0222236817
:102DD0001A60730701D5680703D431072AD52A077B
:102DE00028D5236EDB065EBF236E43F40073236693
:102DF0002368DA6812F4406F16D194F820209AB94B
:102E00001A68100710D51846FFF776FE002861D122
:102E10005A6822F00C025A60236E23F4807323F068
:102E2000010343F0010323662046FFF769FF0C22EC
:102E300023681A6031060BD52A0609D5236E204671
:102E400043F480332366FFF762FF802223681A6011
:102E5000F3050CD5E8050AD5236E204643F400336C
:102E6000236600F050FA4FF4807223681A60B105AF
:102E70000CD5AA050AD5236E204643F48023236689
:102E800000F042FA4FF4007223681A60F30615D579
:102E9000E80613D5A36B1BB12368DB6899070AD03A
:102EA000236E204643F480632366636E43F002037F
:102EB0006366FFF72DFF102223681A60F20408D51D
:102EC000EB0406D5204600F021FA4FF48052236827
:102ED0001A6070BD236E43F020032366636E43F0D7
:102EE00001036366A0E700000023F7B5019390F8A3
:102EF0005C300246012B00F0AB80012304680669B8
:102F000080F85C302046FFF7F7FD002840F09A80FB
:102F1000D1E90035022D26F0100071D0B0F1004F3C
:102F2000C3F3110E35D1A06A40EA0E00A062896891
:102F3000606901EA032121F07C4121F0FF0120EAD0
:102F400003200143002B61611DDA4249424DD1F853
:102F50000803AB4200F4400443D1000213D4D1F87B
:102F6000083323F44003234343F40003C1F8083338
:102F70003A4B19683A4BB1FBF3F10C2301FB0333D5
:102F80000193019B53BB0020002382F85C3003B007
:102F9000F0BD4FF00F0C906E05F01F070CFA07FC08
:102FA0006FEA0C0620EA0C0CBEF1000F11D1C3F33E
:102FB0008460B84040EA0C009066AD08506A013564
:102FC0008542B4D8A56AC3F38360B8402E4030432D
:102FD000ACE793FAA3F0B0FA80F0EAE7019B013B7B
:102FE000CEE7204DAB42CED14302CCD4D1F808334A
:102FF00023F44003234343F48003C1F80833C2E7BA
:10300000B0F1004F01BFA16AC3F311008143A16277
:10301000002BB8DA104C0F48A342D0F8081309D19E
:10302000D0F8083301F4800123F440031943C0F8B9
:103030000813A8E70B4CA342A5D1D0F8083301F43C
:103040000001F1E7116E184641F0200111669BE77F
:1030500002209CE700100246002000B42C00002053
:10306000400D030001000080002373B50268019346
:1030700093680446DD0702D5002002B070BD916858
:10308000214B194209D0236E012043F0100323661F
:10309000636E43F001036366EFE7936823F0004338
:1030A00023F0170343F001039360184BD3F8083360
:1030B00018021CD4637E012BDED0FFF705FD054608
:1030C000134E22681368DB07D6D49368D9075FBF15
:1030D0009368334043F001039360FFF7F5FC401B16
:1030E0000228EED923681B68DA07EAD4CBE7094B3C
:1030F000094A1B68B3FBF2F301330193019B002BD8
:10310000D8D0019B013BF8E7170000800010024671
:10311000E8FFFF7F2C000020400D0300F8B5046895
:10312000054620460F461646FFF7E6FC002859D113
:1031300095F85C30012B55D0012385F85C30E368AD
:10314000D8070ED4A368D90707D5A36823F0004396
:1031500023F0170343F00203A360E36843F0010385
:10316000E3602846FFF780FF0446002831D1286E2F
:103170001D4B20F4706020F0010040F48070286640
:10318000A86D6C660366194B29684366184B836605
:103190001C230B6085F85C404B68026D43F0100304
:1031A00012064B604FEA860315D5426FC2B1126812
:1031B000B2B14031C2E90317936000F057FC0446F6
:1031C0002A68936823F0004323F0170343F00403B5
:1031D00093602046F8BD3A46403100F059FAEEE7D8
:1031E0000124EDE70224F4E72D2D0008052D000849
:1031F000132D0008026838B5936891680446C80723
:1032000001D4002038BD9907FBD4936803F005036F
:10321000012B19D1936823F0004323F0170343F0E7
:103220000203936003231360FFF74EFC05462368F7
:103230009B68DB07E5D5FFF747FC401B0228F6D962
:1032400023689B68DA07F2D5236E012043F0100350
:103250002366636E43F001036366D3E7002337B54B
:10326000019390F85C300446012B4AD0012380F88A
:103270005C30FFF7BFFF23689A68D20707D5236E3B
:1032800043F010032366002384F85C302BE0226EA9
:1032900022F4817242F002022266596CDD68DA681B
:1032A00001F0010122F00302DA605A6C05F0030517
:1032B00022F001025A649A6842F000429A609A68C9
:1032C000002A12DA019A01320192019AB2F52E3FD8
:1032D000F5D3236E012023F0120343F0100323667D
:1032E000002384F85C3003B030BDDA682A43DA602A
:1032F0005A6C0A435A64236E23F0030343F001031C
:10330000C0E70220EFE77047704770477047000042
:1033100007490302CA6803F4E06322F4E06212047E
:10332000120C134343F0BF6343F40033CB60704788
:1033300000ED00E0154B30B5DC68C4F30224C4F1A5
:103340000703251D042B28BF0423062D4FF0FF354E
:1033500094BF0024033C05FA03F321EA0303A540CC
:1033600022EA0502A340002843EA0203ACBF00F1B1
:103370006040074A4FEA0313DBB2ABBF00F5614080
:1033800000F00F0080F80033135430BD00ED00E072
:1033900014ED00E0002807DB01234109034A00F097
:1033A0001F00834042F82130704700BF00E100E079
:1033B00000280CDB01220649430900F01F0082406F
:1033C000203341F82320BFF34F8FBFF36F8F704737
:1033D00000E100E00138B0F1807F3FBF4FF0E02313
:1033E00058610020986137BF1A69012042F003023A
:1033F0001A617047002808DB01224309034900F0E5
:103400001F008240403341F82320704700E100E074
:10341000042818D8DFE800F00A18261703004FF038
:10342000E022136943F00403136170474FF0E02278
:10343000136923F004031361114AD2F8E03023F436
:103440004003C2F8E03070474FF0E022136923F0E8
:10345000040313610A4AD2F8E03023F4400343F432
:103460008003EEE74FF0E022136923F004031361B9
:10347000034AD2F8E03023F4400343F40003E0E7CA
:10348000000C0246F0B50C4622F0030506689708CA
:103490000D44A54208D112F003021ED0012A14D116
:1034A00011F82730337018E0637894F800C01B04DB
:1034B00043EA0C6394F803C0043443EA0C0314F8A1
:1034C00002CC43EA0C233360E3E76B78022A11F85D
:1034D000272043EA0223338002D103681868F0BD35
:1034E000AB78DFE700230068F0B555088E1C9D42DD
:1034F00006D1D30744BF31F8253003800068F0BD02
:1035000031F8237036F82340013344EA074404605D
:10351000EDE7000010B5044608B9012010BD437F57
:1035200003F0FF0213B90277FEF70AFF0223637765
:103530002379E3B92368134A5A619A6822F0180282
:103540009A6062792368D2B94FF0FF321A619A68A3
:10355000616922F060020A439A609A68A16922F0C8
:1035600080020A439A60012300206377D6E7204651
:10357000D4E9021200F065F80028E2D0CDE7226914
:10358000E4E700BFB71DC10438B5054698B1437FD5
:10359000022BDCB20DD002230024437703689A6823
:1035A00042F001029A605A685C60FEF7E1FE6C77B7
:1035B0002C77204638BD0124FBE770B502264677FC
:1035C000066A0446022E15D0032E05D0012E0ED019
:1035D00000200123637770BD036801EB8205A942D7
:1035E00001D11868F5E751F8042B1A60F7E7FFF7E7
:1035F00049FFEEE7FFF776FFEBE7F8B502264677DF
:1036000006680446B76847F00107B760076A022FEB
:1036100014D0032F05D0012F0DD000200123637794
:10362000F8BD01EB8205A94201D13068F6E751F8F7
:10363000043B3360F7E7FFF725FFEFE7FFF752FFA3
:10364000ECE7CB0710B50DD51F23013B1DD321FAA5
:1036500003F4E407F9D5102A13D0102A04D83AB19C
:10366000082A10D001200BE0182AFBD1062BF9D82C
:1036700000684161836823F01803134383600020CE
:1036800010BD072BF3E70F2BF1E7102AE5D1E9E78F
:1036900030B5002836D090F84C40012C34D00124AD
:1036A00080F84C4090F85440012C4FF0000425D194
:1036B000022580F85450846504689BB2A56C2D0CDB
:1036C0002D041D434FF4FE43A564E360E1642265CD
:1036D000636943F4BA436361436E1BB1636943F4A6
:1036E00000736361036F1BB1636943F4005363614B
:1036F0000020636943F00103636130BD402380F81B
:103700004C4083650120F8E70220F6E701210368B9
:1037100010B523F47F6222F00F020446D068C3F391
:103720000B02503AC2F3C41201FA02F2024200F054
:10373000AB801A69500508D55A69520505D54FF472
:103740008062DA60A26D0A43A2651A69100509D584
:103750005A69110506D54FF40062DA60A26D42F095
:103760000202A2651A69D20409D55A69D00406D5A5
:103770004FF48052DA60A26D42F00402A2651A6929
:10378000510409D55A69520406D54FF48042DA60D3
:10379000A26D42F00802A2651A69900509D55A691E
:1037A000910506D54FF40072DA60636E0BB12046C6
:1037B000984723681A6992042ED55A6990042BD52C
:1037C0004FF40052DA6094F85420042A1DD15A694B
:1037D000216D22F400525A615A69090642F0020230
:1037E0005A614FF0010248BF616F84F8542042BF14
:1037F0000A7300229A64002384F84C30E36E002B95
:1038000042D02046BDE810401847052384F85430C4
:10381000236F0BB12046984723681A69D20518D543
:103820005A69D00515D5226D110626D5DA6F32B941
:103830009A6C22B90122616F84F854200A734FF404
:103840004072DA60002384F84C30236E0BB12046BE
:103850009847A36DC3B12268536943F002035361D3
:103860000123226D84F85430120644BF626F137333
:10387000002384F84C30A36EC1E79A6C002ADED195
:10388000012284F85420DAE710BDD0B1CB0601D470
:10389000002070470368012023F47F62C3F30B0309
:1038A00022F00F0201F01101503B1129C3F3C413A0
:1038B000516800FA03F30CBF0B4321EA0303536082
:1038C000E6E70120704741EA0203034318B949B90A
:1038D000002A18BF10465840B0F5803F34BF002082
:1038E000012070470846F6E740B1037E49B97AB136
:1038F000107E984214BF03200020704731B10B7E28
:10390000F5E7097E9942F2D00220704708467047D9
:10391000104670472DE9F043D0F808C0176889B306
:1039200000254FF6FC762B462C464FF6FC7EDFF842
:103930008C800E404FEA870964453BD09E420CD0F4
:1039400001684CBB01EA0E030134F5E7016894B944
:1039500001EA060301346445F8D101689460090C5A
:1039600009040B43D36053F827300D435560D3B996
:103970000020BDE8F08308EB030501EA0E01695859
:103980001D46E5E70D460B460C464FF6FC76DFF884
:103990002CE04FEA8708DEE709EB030501EA08019E
:1039A00069581D46CEE723F003031B041B0C0B4391
:1039B0001361DDE79E42D0D00120DAE70000FFFF6F
:1039C00038B50446FFF780F80546002C49D000239F
:1039D00084F84C300223226884F85430536943F051
:1039E0000603536123685A69D20730D4D4E90E1212
:1039F00011431D4A934214D08032934211D0803239
:103A000093420ED0803293420BD08032934208D042
:103A10008032934205D08032934202D0803293426A
:103A200001D1226C114300205A6922F443020A4357
:103A30005A61626C18645A649864D8641865D867CF
:103A4000A36CA0652365012384F854300AE0FFF7D6
:103A50003BF8401B0528C5D91023A365032384F830
:103A60005430012038BD00BF50000240034630B53D
:103A7000002848D0416F002945D090F854001A68BA
:103A800001285469C5B203D0022D37D1E00335D5E2
:103A900093F854000128C4B22AD193F84C000128AD
:103AA0004FF0020029D083F8540083F84C4008738B
:103AB000002098650861506940F4BA405061586E22
:103AC00018B1506940F4007050611B6F1BB153690D
:103AD00043F4005353610B68190C23F003031B04D8
:103AE0001B0C43F07843090443F480331160D3671F
:103AF0000020536943F00103536130BD40229A65B1
:103B0000002283F84C200120F7E7F0B5002851D0BF
:103B100000294FD0C369456902681D43C36B12F089
:103B2000200445EA0305036945EA0305836945EA7C
:103B300003050D6010D0836AC66A876B013B1B05C5
:103B40003E4303F07C733343466A013E360106F47C
:103B50007C7633432B430B604368056B23F4E0739F
:103B60009B059B0D2B43C5684B60B5F5806F1BD142
:103B700014B143F480634B60436C4BB1046C23433A
:103B80004C682343846C240404F4F81423434B60EE
:103B9000B0F8543042F4A0628B60C36CCB60036D0C
:103BA00000200B618A61F0BDB5F5007FE4D143F4DC
:103BB0000073E0E70120F6E7F0B50E46154604462F
:103BC00087B028B122B14369012B04D104232361BA
:103BD000012007B0F0BD07683846FFF774FE08B152
:103BE0000523F4E73846FFF77FFE0028EED10223D5
:103BF000237320619FB93EB9012322600020A36096
:103C0000012320612373E4E722F003052D042D0C2A
:103C100045F0784545F4803526607561EEE766B974
:103C200027F003073F043F0C47F0784747F48037FD
:103C300057612260A3680133E0E70523314620463F
:103C400001AA0193FFF766FE98B94FF6FC70A368CE
:103C5000039F094905EA00029F4242EA010206D198
:103C6000636813B103400B436B617261E2E77369F0
:103C7000FAE70623ABE700BF000001F870B5044681
:103C800086B018B1066826B902232361012006B068
:103C900070BD45681DB1AE421AD00423F5E74369F3
:103CA000012BFAD002230373052301AA29460561DB
:103CB0000193FFF72FFE4FF6FC733340049A43F055
:103CC000784343F480335361012325616660237395
:103CD0000020DCE770B169B190F8543090F85420BE
:103CE000DBB2022A01D0052B06D1402383650023D5
:103CF00080F84C30012070470B7B022B02D101234E
:103D00000B61F7E7026D4B68812A02D11BB90423CE
:103D1000F6E7002BFBD1416700207047084A10B539
:103D2000936A43F001039362EFF3108272B60023AB
:103D3000CC58C4500433102BFAD182F3108810BD34
:103D400000200240094A10B5936A43F4804343F0CF
:103D500001039362EFF3108272B60023CC58C45073
:103D60000433802BFAD182F3108810BD002002406A
:103D7000064B9A6A002ABFBF054A9A6002F1883250
:103D80009A60BABF986AC00F0020704700200240B6
:103D900023016745044B9A6A42F000429A62986A8E
:103DA000C043C00F704700BF0020024070B50546F9
:103DB000FEF78AFE104C4619236A13F4403F0BD1DC
:103DC00042F2FA02236A13400ED001200B494A68DE
:103DD0001A434A60236270BD6A1CEDD0FEF774FE80
:103DE000B042E9D30320F6E7236A0020DB0744BF93
:103DF00001232362EFE700BF002002407061002032
:103E0000F8B5154D04462B780E46012B174620D0E9
:103E100001232B7000234FF47A706B60FFF7C6FF0D
:103E200088B9AC6024F00044012C394630460DD1ED
:103E3000FFF774FF4FF47A70FFF7B8FF074A936AF1
:103E400023EA0403936200232B70F8BDFFF77AFF87
:103E5000F0E70220F9E700BF706100200020024077
:103E6000064A936A23F4813323F4FD7343EAC003C3
:103E700043F4803343F00203936270470020024012
:103E80002DE9F041254E054633788846012B43D075
:103E90000123337000234FF47A707360FFF786FFBD
:103EA0000446E8B92B68B36023F00043042B1CD10F
:103EB0001B4A4FF47A70936A43F4803343F004034F
:103EC0009362FFF773FF04462B68154923F0004304
:103ED0008A6A23F47E7343F47E7322EA03038B62BF
:103EE000002333702046BDE8F0814FF0FF33C8F85F
:103EF00000306F68D5E901321344BB42E4D938463B
:103F0000FFF7AEFF4FF47A70FFF750FF10B1C8F81B
:103F10000070D8E70137EDE70224E3E77061002085
:103F2000002002402DE9F74F4C4B4FF00F0903EAF8
:103F30009023019300234A4C0A6832FA03F502D118
:103F400003B0BDE8F08F012505FA03F818EA020274
:103F500000F0828003274E684FEA430E06F0030507
:103F600007FA0EFC6F1E012F6FEA0C0C32D887681F
:103F700007EA0C0ACF6807FA0EF747EA0A078760D4
:103F8000476827EA0808C6F300179F4047EA080772
:103F90004760C768022D07EA0C088F6807FA0EF71A
:103FA00047EA0807C76017D14FEAD30800EB880833
:103FB00003F0070AD8F820704FEA8A0A09FA0AFBC8
:103FC00027EA0B0B0F6907FA0AF747EA0B07C8F84D
:103FD000207001E0032DDCD1076805FA0EF507EA31
:103FE0000C073D4316F4403F056035D023F003072E
:103FF00007F18C4803F00305019FED0009FA05FE67
:1040000007FA05F5D74308F50838D8F860C016F464
:10401000801F2CEA0E0C45EA0C05C8F86050256894
:104020000CBF3D4015432560656816F4001F0CBFAA
:104030003D4015436560D4F8845016F4003F0CBF32
:104040003D401543C4F88450D4F88050F60354BF63
:104050003D401543C4F8805001336DE77F7F2F004A
:10406000002002460AB18161704781627047704743
:104070007047000038B5084D0446EB68034202D093
:10408000E860FFF7F4FF2B691C4203D020462C6147
:10409000FFF7EEFF38BD00BF002002460146064A8A
:1040A000106810F0010009BF1368012023F0040319
:1040B0000B4308BF1360704700040340034A00200D
:1040C000136843F001031360704700BF000403400E
:1040D00044F62062094B10B51B680468B3FBF2F389
:1040E0004FF47A72002053432268013B08BF03203B
:1040F00031EA020201D0002BF6D110BD2C000020C5
:1041000070477047704770477047704770477047F7
:104110007047704770470000F8B50446002800F06B
:10412000998090F84A3003F0FF02002B28D14A4BC7
:1041300080F849208365494BC365494B0366494B69
:104140004366494B8366494BC366494B0367494BFA
:104150004367494B8367494BC367494BC0F8843079
:10416000484BC0F88830484BC0F88C30474BC0F8FB
:104170008030036D0BB9464B03652046236D98478D
:1041800002234FF48071256884F84A302B69204659
:1041900043F001032B61636B6960AB62FFF798FF2B
:1041A000032801D10320F8BD1021236A696020464D
:1041B000AB61FFF78DFF0328F4D0EB6A9A0706D4B2
:1041C000EB6A9B035EBF2B6923F001032B616168DF
:1041D000EB680129A06A02D0B0F5000F01D123F0ED
:1041E0001E034FF6FF7662692A4FB24218BF23F4CE
:1041F0006043A66818BF23F0C0031F4041EA0003D4
:104200003343666A33433B43E9B9E1692669314385
:104210000B43B0F5000F18D04FF6FF718A4204D05F
:10422000A1690A43E1690A431343EB60D4E90B3205
:1042300013436B620123002084F84B3084F84C3028
:1042400084F84A30AFE70129E3D1D4E903100143F0
:104250000B43E1E70120A6E7F51900086D1A0008F5
:104260000341000805410008074100080941000812
:104270000B410008A91A00080D410008154100086B
:104280000F410008134100081141000801410008D6
:1042900091230008FEF139FF39B990F84B30013B0A
:1042A00018BF012323B10120704790F84C30F6E786
:1042B000022380F84A30B1B980F84B300368DA68DD
:1042C00022F48012DA601A6942F001021A6169B1BF
:1042D000012910D01A6942F004021A61012380F802
:1042E0004A300020704780F84C30E7E7DA6A42F045
:1042F0000202DA62EEE7DA6A42F40032F9E70223F8
:1043000080F84A30036899B1012916D0DA6A920719
:1043100006D4DA6A92035EBF1A6922F001021A61BA
:10432000012371B980F84B3080F84A300020704783
:10433000DA6A22F00202DA62E8E7DA6A22F400328C
:10434000F9E780F84C30EFE7022370B505460E46DA
:10435000046880F84A30F1B1012921D0E36A980756
:1043600006D4E36A99035EBF236923F00103236146
:10437000236943F0010323614FF0807363609EB1B2
:10438000012E18D04FF080712846FFF7A1FE0328B8
:1043900015D1032070BDE36A23F00203E362DDE779
:1043A000E36A23F40033F9E7A36823F4CD7323F021
:1043B0000103A360E6E7A268144B1340F9E74FF648
:1043C000FF736A699A420AD1E36A9A0712D50123F8
:1043D000C6B985F84B30002085F84A30DAE76160CD
:1043E000A368284623F00403A360FFF771FE0328A7
:1043F000EAD1CEE7E36A9B035EBF236923F00103A2
:104400002361E4E785F84C30E5E700BF6DFCF7FF7A
:10441000FFF79ABF0B46022170B5054680F84A1097
:1044200032B1012A19D00123002085F84A3013E067
:10443000082104685A68E66A1B6826F00D0646EAF9
:104440008206226942F00102226161606361FFF726
:104450003FFE032815D1032070BD4FF400210468EE
:104460005A68E66A1B6826F4502646EA82462269A4
:1044700042F00102226161606363FFF729FE0028B8
:10448000E9D1E36A9A0706D4E36A9B035EBF236916
:1044900023F001032361E662C5E7036810B51A68DB
:1044A0000446D10710D59A68D2070DD501225A606B
:1044B00080F83820DB6AD9074CBFD0F88430836D90
:1044C0009847002384F8383023681A68920513D57A
:1044D0009A68900510D54FF400725A60022284F851
:1044E0003820DB6A2046D9034CBFD4F88430A36D52
:1044F0009847002384F8383023681A68D2040FD50F
:104500009A68D0040CD54FF480525A60012320469B
:1045100084F83830D4F88C309847002384F8383049
:1045200023681A6891040FD59A6892040CD54FF449
:1045300000525A600223204684F83830D4F88C3078
:104540009847002384F8383023681A68900707D505
:104550009A68910704D5022220465A60E36D984775
:1045600023681A68520707D59A68500704D50422B1
:1045700020465A60236E984723681A6811070AD5A7
:104580009A68120707D508225A600123204684F84A
:104590003830636E984723681A6810030BD59A6801
:1045A000110308D54FF400225A600223204684F8F4
:1045B0003830636E984723681A68D20607D59A6820
:1045C000D00604D5102220465A60A36E984723686F
:1045D0001A68910607D59A68920604D520222046CB
:1045E0005A60E36E984723681A68500607D59A68A0
:1045F000510604D5402220465A60236F984723680D
:104600001A68120607D59A68100604D5802220463B
:104610005A60636F984723681A68D1050AD59A686B
:10462000D20507D54FF4807220465A60A36FBDE8CB
:104630001040184710BD0000024A936A43F001037E
:1046400093627047000802460D49C3B28A6910B5EB
:1046500022EA030242EA10228A61CA6993FAA3F1AC
:10466000B1FA81F10324490004FA01F122EA0102BE
:1046700042EA1040024AD06151690B43536110BDB8
:10468000000802461549CB6B03F48033834201D105
:10469000002070473222CB6823F480331843104B3C
:1046A000C8601B6853430F4AB3FBF2F301331A4649
:1046B000C868000404D40AB903207047013AF7E738
:1046C000002AF9D0054AD16B090403D4002BF3D09A
:1046D000013BF8E7002BDBD1EEE700BF0008024604
:1046E0002C00002040420F0010B5044640B10223C8
:1046F0000371FDF7C9FE00200123A060237110BDE6
:104700000120FCE70379012BDAB24FF0020305BF69
:10471000037103688360196006BF027100200120E5
:1047200070470368186800F4E02070471D494B6B20
:10473000C3F30803013300EE103A8B6AB8EEC00AE7
:10474000C3F30222013207EE902A13F0100218BFC1
:104750008A6BF8EEE76A18BFC2F3CC0207EE902A24
:1047600003F00303022BB8EEE77A14D0032B15D124
:104770000C4B1A680C4BC2F30052D34007EE903A30
:10478000F8EEE77A87EEA66ADFED087AA7EE270A49
:1047900026EE000A7047DFED067AF3E7DFED057AD3
:1047A000F0E700BF000C02460048E80100000039B5
:1047B0000024744B000000002DE9F3470446002854
:1047C00064D0714BDE699D6A036806F00C06DF0752
:1047D00005F003053AD42368980700F18480236824
:1047E000190740F11D81684BD3F89420520700F15E
:1047F000B6800127D3F8942042F00402C3F8942035
:10480000D3F8943003F004030093009B5F4DAB6A30
:10481000DB0740F1A680DFF87081A369D8F8F0507B
:10482000002B40F0BB8025F01055C8F8F050FEF783
:104830004BF90546D8F8F03013F0904F00F0E880BF
:10484000FEF742F9401B1428F4D936E0082E4368DD
:1048500003D00C2E1CD1032D1AD1BBB1082EBAD116
:10486000494AA168136823F488130B4343F4803347
:1048700013601268464BC2F30052D340454A13609E
:10488000454B1868FEF7ACF80028A4D0012015E0CD
:104890003D4FB3B13A68A16822F488120B43134329
:1048A0003B60FEF711F980463B68990393D4FEF70D
:1048B0000BF9A0EB08006428F6D9032002B0BDE88C
:1048C000F0873B6823F488133B60FEF7FDF88046D1
:1048D0003B689A037FF57FAFFEF7F6F8A0EB080080
:1048E0006428F5D9E9E723691EB10C2E0CD1022DFD
:1048F0000AD1002BCAD0244A6169136923F4F81342
:1049000043EA014313616AE71F4DBBB12B6843F4CF
:1049100080732B60FEF7D8F807462B685B0507D538
:104920002B69626923F4F81343EA02432B6156E7CB
:10493000FEF7CAF8C01B0228EFD9BEE72B6823F4A4
:1049400080732B60FEF7C0F807462B6858057FF58B
:1049500046AFFEF7B9F8C01B0228F6D9ADE700272D
:1049600054E7AB6A43F00103AB62FEF7ADF8804653
:10497000AB6AD8073FF54FAFFEF7A6F8A0EB0800EB
:104980000228F5D999E700BF000C0246000802464C
:104990000048E8012C00002034000020590115D502
:1049A000E26905F080539A420CD02A010AD525F01D
:1049B0008065C8F8F050FEF787F88146D8F8F030E7
:1049C0001B0172D4E36925F080551D43A369DFF80C
:1049D00094921D43C9F8F050FEF776F88246A36919
:1049E000D9F8F0204FEA430812EA430264D083F07A
:1049F0001053DB432B40C9F8F030FEF765F88146D1
:104A0000984D88F09048D5F8F03018EA030F5AD145
:104A100037B1944AD2F8943023F00403C2F89430AA
:104A200023685D0740F18D808E4BD3F894205007AA
:104A300050D44FF00108D3F8942042F00402C3F898
:104A40009420D3F8943003F004030193019B864D26
:104A5000AB6AD90741D5E368824D002B4DD1D5F81B
:104A6000F03041F2883923F08103C5F8F030D5F8F1
:104A7000F03023F00403C5F8F030FEF725F80746C0
:104A8000D5F8F0309B0777D4D5F8F03018064ED51E
:104A900041F28839734DD5F8F030190547D5FEF746
:104AA00013F8C01B4845F6D907E7FEF70DF8A0EB51
:104AB0000900142882D900E7FEF706F8A0EB0A00E7
:104AC00014288CD9F9E6FDF7FFFFA0EB09001428A4
:104AD00099D9F2E64FF00008B9E7AB6A43F0010359
:104AE000AB62FDF7F1FF0746AB6ADA07B3D4FDF717
:104AF000EBFFC01B0228F7D9DFE6D5F8F02041F222
:104B0000883922F080021343C5F8F030FDF7DCFF4E
:104B10000746D5F8F0309B0717D5E36841F288398E
:104B20001806504D23D5D5F8F030190513D5B8F136
:104B3000000F06D04B4AD2F8943023F00403C2F899
:104B40009430236AFBB90020B8E6FDF7BDFFC01B17
:104B50004845DED9B1E6FDF7B7FFC01B4845E2D9AD
:104B6000ABE6FDF7B1FFC01B48453FF6A6AED5F852
:104B7000F0301A05F5D4DAE7FDF7A6FFC01B48456B
:104B80007FF67EAF99E60C2E76D0364D022B2B6841
:104B900023F080732B6052D1FDF796FF80462E687C
:104BA000FDF792FFA0EB080002283FF686AE16F054
:104BB0000077F4D1606AA16A032809BF2B4B2C4B04
:104BC000C6F30056F340B3FBF1F32A4A013993428E
:104BD00088BF0C27234A936A23F4E36323F0070377
:104BE0003B43034343EA012343F480239362236B53
:104BF000591E636B013B1B0443EA4123E16A0139FF
:104C00000B43A16B013943EA01635363E36B2BB19F
:104C1000DB009363936A43F0100393621368114DB2
:104C200043F080731360FDF74FFF04462B689A0131
:104C300089D4FDF749FF001B0228F7D93DE6FDF7AF
:104C400043FF04462B689B0106D4AB6A23F4E023A0
:104C500023F00303AB6276E7FDF736FF001B022863
:104C6000F0D92AE6000C0246000802460048E80196
:104C70000024F40000127A00012B3FF407AE234910
:104C8000606A8A6A4B6B02F0030585427FF4FEADD1
:104C9000A06AC2F30222013882427FF4F7ADE26AD1
:104CA000C3F30800013A90427FF4F0AD226BC3F3E6
:104CB0004620013A90427FF4E9AD626BC3F30640AF
:104CC000013A90427FF4E2ADA26BC3F30663013A6E
:104CD00093427FF4DBAD8B6BE26BC3F3CC039A4260
:104CE0003FF431AF8B6A0D4623F010038B62FDF762
:104CF000EBFE0646FDF7E8FEB042FBD0E36BDB00BF
:104D0000AB63AB6A43F01003A4E700BF000C02469C
:104D1000074B10B55C6BFFF709FDFCEEC07A17EE90
:104D2000900AC4F306640134B0FBF4F010BD00BF78
:104D3000000C0246084AD36913F00C0309D0082B73
:104D400005D113680548C3F30053D8407047FFF7F7
:104D5000DFBF0348704700BF000C02460048E8016F
:104D60000024F4002DE9F0410D46044610B901205D
:104D7000BDE8F081574A136803F00F038B421BD341
:104D800021688F0623D4CE072DD42268524B12F00F
:104D900002011B6A6ED1560741BFE16823F0700320
:104DA0000B43012110076BD5216923F4E06343EA2B
:104DB000011349490B6265E0136823F00F030B43AD
:104DC0001360136803F00F038B42D0D1D8E7424839
:104DD000D4E90636D0F80022334322F017021343F9
:104DE000C0F80032CFE761683B4A0329136831D12C
:104DF0009801BCD5D36903F00C030C2B05D0936A42
:104E000023F4401343F480139362334E41F2883805
:104E1000F36923F003030B43F361FDF755FE0746E7
:104E2000F369626803F00C03B3EB820F1BD1032A12
:104E3000ABD1B36A284F23F48013B362FDF744FE6D
:104E40000646BB6A5B02A0D4FDF73EFE801B0A2823
:104E5000F7D90DE0022903D113F4003FD5D186E73D
:104E600013F4806FFAE7FDF72FFEC01B4045D7D93A
:104E700003207DE7A16823F007030B4301218AE7A4
:104E8000002996D1D30642BF6269134B5A62114A78
:104E9000136803F00F03AB4210D8FFF74BFFBDE8D8
:104EA000F0410D4B0D4A1B6A03F00703D35CD84059
:104EB0000B4B18600B4B1868FDF792BD136823F07D
:104EC0000F032B431360136803F00F03AB427FF40F
:104ED0004EAFE2E700200240000C0246D9C60208AD
:104EE0002C0000203400002008B5FFF723FF054BFD
:104EF000054A1B6A03F00703D35CD840034B1860D4
:104F000008BD00BF000C0246D9C602082C000020D4
:104F100008B5FFF7E9FF044B044A1B6AC3F3021309
:104F2000D35CD84008BD00BF000C0246D1C60208C1
:104F300008B5FFF7D9FF044B044A1B6AC3F30223E9
:104F4000D35CD84008BD00BF000C0246D1C60208A1
:104F500008B5FFF7C9FF044B044A5B6AC3F30213A9
:104F6000D35CD84008BD00BF000C0246D1C6020881
:104F700003682DE9F743DE07044608D59F494068DA
:104F8000D1F8E02022F003020243C1F8E0209D079F
:104F900008D59A49A068D1F8E02022F00C0202431B
:104FA000C1F8E020580708D59449E068D1F8E0201E
:104FB00022F440620243C1F8E020190708D58F4966
:104FC0002069D1F8E02022F440220243C1F8E02019
:104FD000DA0608D589496069D1F8E02022F4401248
:104FE0000243C1F8E0209F0608D58449A069D1F8A2
:104FF000E02022F440020243C1F8E0205E0608D51A
:105000007E49E069D1F8E02022F000420243C1F875
:10501000E0201D060FD5794A206AD2F8E41021F06D
:10502000E0010143C2F8E410002840F0C380916A17
:1050300041F480319162D80510D57049606AD1F889
:10504000E420B0F5405F22F4405242EA0002C1F889
:10505000E42002BF8A6A42F400328A62990208D5CB
:105060006649A06AD1F8E42022F080420243C1F8E8
:10507000E4209A0508D56149E06AD1F8E82022F0D9
:1050800003020243C1F8E8205F0508D55B49206BA5
:10509000D1F8E82022F018020243C1F8E8201E05EA
:1050A00008D55649606BD1F8E82022F0C0020243CF
:1050B000C1F8E820DD0408D55049A06BD1F8E820FC
:1050C00022F440620243C1F8E820980410D54B490D
:1050D000E06BD1F8E820B0F5005F22F4E04242EA4C
:1050E0000002C1F8E82002BF8A6A42F480328A6274
:1050F00059044AD5414B226CD3F8F05005F4407561
:10510000AA4242D0D3F8942052075AD40127D3F8A8
:10511000942042F00402C3F89420D3F8943003F0B2
:1051200004030193019B364EB36A43F00103B3625B
:10513000FDF7CAFC8046B36ADB0744D52F4AD2F894
:10514000F03023F440717DB1D2F8F850D2F8F0007D
:1051500040F48030C2F8F000D2F8F00020F4803043
:10516000C2F8F000C2F8F850226C264DDFF88C80AF
:105170000A431D40C8F8F0202FD137B11F4AD2F89A
:10518000943023F00403C2F89430206810F40040F7
:1051900020D01A4A616CD2F8F03023F440230B433C
:1051A000C2F8F030D2F8F00000F44020401A18BFE6
:1051B00001200FE020287FF43EAF916A41F40031D6
:1051C00038E70027AFE7FDF77FFCA0EB08000228D7
:1051D000B1D9032003B0BDE8F083FDF775FC41F2BF
:1051E000883906466D00D8F8F0302B42C5D1FDF75E
:1051F0006BFC801B4845F6D9EBE700BF000C02466C
:105200000008024601000024044AD2F8103223F4B8
:105210007C1343EA0043C2F810327047000C024688
:10522000034AD2F8083243F00203C2F8083270474A
:10523000000C0246034AD2F8083223F00203C2F8F7
:1052400008327047000C024638B50446002839D0B1
:10525000437A03F0FF0213B90272FDF727F9022324
:1052600022686372136823F0040313601168224BF1
:105270000B4061680B4343F0804343F400531360D9
:10528000136823F080431360FDF71EFC0546236876
:105290001A68510009D41A6842F004021A605B6867
:1052A0005A0611D5042363720CE0FDF70DFC401B78
:1052B0000A28ECD923681B685800E8D501236372DB
:1052C0000223E360012038BDFDF7FEFB054623689D
:1052D000586810F0040003D101236372E060F2E724
:1052E000FDF7F2FB401B0A28F1D923685B685B07D6
:1052F000EDD50423E3E700BFDF1FFFBF90F82C309C
:105300000246012B4FF0020016D0012382F82C3008
:105310000E4B82F82D00B1F5807F99690DD121F4F3
:1053200088519961596C21F0004159640123002092
:1053300082F82D3082F82C00704721F408519961D1
:10534000D96C21F00041D964F0E700BF0078004635
:1053500070B50D4C0646E36823F02003E360FDF7CB
:10536000B3FB0546E3689B0608D4FDF7ADFB401B85
:10537000B0F57A7FF6D9E3689A0601D5002070BDB2
:10538000032086F82D00FAE700780046F8B5124DA4
:105390000646EC6814F0400402D000231846F8BD1D
:1053A000EB6843F08003EB60FDF78EFB2346074676
:1053B000EC6814F04004F1D1032BEFD0FDF784FB2F
:1053C000C01BB0F57A7F2346F2D9EB685B06E4D4C4
:1053D000032386F82D30EBE70078004638B50F4CF4
:1053E0000546E36823F08003E360A3699B0606D4C7
:1053F000FFF7AEFF10B1032085F82D0038BDA3697B
:1054000023F02003A361FFF7A3FF10B1032085F869
:105410002D00A36943F02003A361EFE70078004665
:1054200038B5044600284BD090F82D3003F0FF0229
:105430001BB980F82C20FDF765F80223214D84F874
:105440002D30EB68DB0636D4CA236B62532320462B
:105450006B62FFF79BFF10B1FF236B6238BDAB6936
:10546000204623F08E6323F04003AB61216963681B
:10547000AA690B431343A2691343AB61D4E9022326
:1054800043EA02432B61EA68D4E9093122F4F85275
:105490000B431343EB60FFF7A1FF0028DCD1D4E9F5
:1054A0000713AA690B4322F0604213436269134356
:1054B000AB61FF236B620123002084F82D30CDE720
:1054C0000120CBE7007800460023092803D840EAF2
:1054D0000310C0B270470A380133C0B2F5E70000CC
:1054E0002DE9F84390F82C300546012B4FF00200CF
:1054F00060D0012385F82C30494B85F82D00DE68FB
:1055000006F44076B6F5807F6AD00C6A087891F888
:10551000018091F802909B69002A4DD113F040035D
:1055200008BFCB70FFF7D0FF07464046FFF7CCFF20
:1055300002464846FFF7C8FF804691F82400FFF76F
:10554000C3FF4B6991F803C0234343EA8C5343EAFA
:10555000080343EA074343EA022343EA0063CA6AB3
:105560008869B2F5807F2E4A94693BD124F488542F
:1055700094610124B6F5807FD46509BFCB691364BB
:105580000343536418BF5064254B4A681A678A6AFC
:10559000012A9A690CBF42F0006222F000629A610F
:1055A0009A6942F488529A610020012385F82C0000
:1055B00085F82D30BDE8F88313F0400308BFCB70A9
:1055C0004B69CA781C4344EA090444EA004343EAAD
:1055D000082343EA825391F8242043EA0263BEE79A
:1055E0000023BCE724F4085494610224B6F5807FBC
:1055F000D46509BFCB6993640343D36418BFD064F7
:10560000074B4A685A678A6A012A9A690CBF42F0B6
:10561000805222F080529A619A6942F40852C2E79D
:10562000007800462DE9F8431E4690F82C300446D9
:10563000012B884617464FF0020021D001231D4D53
:1056400084F82C3084F82D00AB6923F48063AB61BF
:105650000423EB65EB685A0614D5164B48EA064658
:105660005E619969002021F00701394399619A69C7
:1056700042F488429A61012384F82C0084F82D308A
:10568000BDE8F883FDF720FA8146EB685B07E4D4B8
:10569000FDF71AFAA0EB0900B0F57A7FF5D9EB68AF
:1056A00013F00403D9D1032084F82C3084F82D00A2
:1056B000E6E700BF0078004670470000064B10B5D3
:1056C0005A6D0446520703D50422DA65FFF7F4FF4A
:1056D000012384F82D3010BD0078004690F82C206E
:1056E0000346012A4FF002000CD0074983F82D0031
:1056F0008A69002042F020028A61012283F82C008E
:1057000083F82D20704700BF00780046890001F122
:105710008C4101F5FA410A6070470000D1E900327E
:1057200013430A4AD361D1E9023213438A6913430E
:10573000074A5362136A086903F0FF234969034368
:1057400043EA014300201362704700BF007800461F
:10575000007C0046036A026A70B522F00102026210
:10576000446882690D6822F4803222F073022A4371
:105770008D6823F002032B43124DA84206D0124E2F
:10578000B04203D006F58066B04214D1CE6823F053
:1057900008033343A84223F0040306D00A4DA8426D
:1057A00003D005F58065A84205D124F44075D1E900
:1057B000054634432C43446082614A684263036275
:1057C00070BD00BF002C014000440140036A026A22
:1057D00070B522F4807202624268C4690D6824F4D4
:1057E000803424F073042C438D6823F4007343EA5F
:1057F00005230F4DA8420ED1CD6823F4006343EA80
:10580000052323F4806322F44052D1E90556354341
:1058100042EA051206E0074DA842F4D005F580657E
:10582000A842F0D042604A68C461C263036270BD9E
:10583000002C014000440140036A026A70B522F462
:10584000805202624268C4690D6824F0807424F4B6
:10585000E64444EA05248D6823F4005343EA053303
:105860000F4DA8420ED1CD6823F4004343EA05331F
:1058700023F4804322F44042D1E90556354342EAFD
:10588000851206E0074DA842F4D005F58065A842D0
:10589000F0D042604A68C4610264036270BD00BF18
:1058A000002C014000440140026A036A30B523F431
:1058B000803303624468036D0D6823F4803323F062
:1058C00070032B438D6822F4003242EA05420B4DEF
:1058D000A84207D005F5C055A84203D005F580655C
:1058E000A84204D14D6924F4803444EA052444607C
:1058F00003654B688364026230BD00BF002C014029
:10590000026A036A30B523F4801303624468036DAE
:105910000D6823F0807323F4E04343EA05238D6888
:1059200022F4001242EA05520A4DA84207D005F5BA
:10593000C055A84203D005F58065A84204D14D6941
:1059400024F4802444EA8524446003654B68C364DE
:10595000026230BD002C014090F83D30012B1FD178
:10596000022380F83D300368DA6842F00102DA6011
:105970000C4A934206D0B3F1804F03D0A2F5943283
:10598000934207D19968084A0A40062A06D0B2F520
:10599000803F03D01A6842F001021A60002070476D
:1059A00001207047002C014007000100704770473C
:1059B00070477047704770477047036870B5DD687F
:1059C0001E690446B2070ED5A9070CD56FF0020276
:1059D0001A61012202779B699A0700F0A480FFF701
:1059E000E9FF00232377730711D568070FD56FF000
:1059F0000402236820461A61022222779B6913F46D
:105A0000407F00F09680FFF7D5FF00232377310712
:105A100010D52A070ED56FF00802236820461A61B8
:105A200004222277DB699B0700F08980FFF7C2FF21
:105A300000232377F10610D5EA060ED56FF0100289
:105A4000236820461A6108222277DB6913F4407F1D
:105A50007BD0FFF7AFFF00232377F30708D5E807D4
:105A600006D56FF00102236820461A61FFF7A0FFF8
:105A700016F4025F08D0290606D56FF40252236897
:105A800020461A6100F0F1F9F20508D52B0606D57B
:105A90006FF48072236820461A6100F0E7F97006FF
:105AA00008D5690606D56FF04002236820461A61C2
:105AB000FFF782FFB20608D5AB0606D56FF02002CD
:105AC000236820461A6100F0CFF9F00208D5E902F8
:105AD00006D56FF48012236820461A6100F0C7F9DA
