:020000040800F2
:100000000000022009B100085D2800085F280008F0
:10001000612800086328000865280008992C00085A
:100020000000000000000000000000006728000839
:1000300069280008000000006B2800086D280008EF
:10004000992C0008992C000871280008992C0008A8
:10005000992C0008992C0008992C0008992C00086C
:10006000992C0008992C0008992C0008992C00085C
:10007000992C0008992C0008992C0008992C00084C
:10008000992C0008992C0008992C0008992C00083C
:10009000992C0008992C0008992C0008992C00082C
:1000A000992C0008992C000851290008992C000867
:1000B000992C00088D290008992C0008992C00081B
:1000C000992C0008992C0008992C0008992C0008FC
:1000D000992C0008992C0008992C0008992C0008EC
:1000E000992C0008992C0008992C0008992C0008DC
:1000F000992C0008992C0008992C0008992C0008CC
:10010000992C0008252A0008992C0008312A00089B
:10011000492A0008992C0008992C0008992C0008FD
:10012000992C0008992C0008992C0008992C00089B
:10013000992C0008B52A0008992C0008992C000871
:10014000992C0008792A0008852A0008AD2A0008A1
:10015000B12A0008992C0008992C0008992C000855
:1001600010B5054C237833B9044B13B10448AFF3F1
:1001700000800123237010BD300600200000000025
:1001800024DD020808B5034B1BB103490348AFF354
:10019000008008BD000000003406002024DD0208B5
:1001A00070B4840746D04C1E002941D0D5B2034616
:1001B00002E0611EE4B30C4603F8015B9907F8D135
:1001C000032C2ED9D5B245EA05250F2C45EA054565
:1001D00019D9264603F11001103E0F2E41F8105C8C
:1001E00041F80C5C41F8085C41F8045C01F1100135
:1001F000F2D8A4F1100121F00F0104F00F04103126
:10020000032C0B440DD91E4621460439032946F818
:10021000045BFAD8211F21F0030104310B4404F0E0
:1002200003042CB1D2B21C4403F8012BA342FBD12E
:1002300070BC70470C460346C2E7034613F8012B17
:10024000002AFBD1181A01387047000081F00041E4
:1002500002E000BF83F0004330B54FEA41044FEAAB
:10026000430594EA050F08BF90EA020F1FBF54EA46
:10027000000C55EA020C7FEA645C7FEA655C00F0E2
:10028000E2804FEA5454D4EB5555B8BF6D420CDDB3
:100290002C4480EA020281EA030382EA000083EA36
:1002A000010180EA020281EA0303362D88BF30BDD6
:1002B00011F0004F4FEA01314FF4801C4CEA11312C
:1002C00002D0404261EB410113F0004F4FEA03338B
:1002D0004CEA133302D0524263EB430394EA050F16
:1002E00000F0A780A4F10104D5F1200E0DDB02FA85
:1002F0000EFC22FA05F2801841F1000103FA0EF219
:10030000801843FA05F359410EE0A5F120050EF1DE
:10031000200E012A03FA0EFC28BF4CF0020C43FA0F
:1003200005F3C01851EBE37101F0004507D54FF01C
:10033000000EDCF1000C7EEB00006EEB0101B1F56C
:10034000801F1BD3B1F5001F0CD349085FEA3000B2
:100350004FEA3C0C04F101044FEA445212F5800FBD
:1003600080F09A80BCF1004F08BF5FEA500C50F15A
:10037000000041EB045141EA050130BD5FEA4C0C3D
:10038000404141EB0101013C28BFB1F5801FE9D29A
:1003900091F0000F04BF01460020B1FA81F308BFBD
:1003A0002033A3F10B03B3F120020CDA0C3208DD89
:1003B00002F1140CC2F10C0201FA0CF021FA02F164
:1003C0000CE002F11402D8BFC2F1200C01FA02F1D4
:1003D00020FA0CFCDCBF41EA0C019040E41AA2BFF9
:1003E00001EB0451294330BD6FEA04041F3C1CDAC1
:1003F0000C340EDC04F11404C4F1200220FA04F0E1
:1004000001FA02F340EA030021FA04F345EA03018A
:1004100030BDC4F10C04C4F1200220FA02F001FA4C
:1004200004F340EA0300294630BD21FA04F02946CE
:1004300030BD94F0000F83F4801306BF81F4801167
:100440000134013D4EE77FEA645C18BF7FEA655CDA
:1004500029D094EA050F08BF90EA020F05D054EAAC
:10046000000C04BF1946104630BD91EA030F1EBFB1
:100470000021002030BD5FEA545C05D140004941B5
:1004800028BF41F0004130BD14F580043CBF01F5A8
:10049000801130BD01F0004545F0FE4141F470018E
:1004A0004FF0000030BD7FEA645C1ABF1946104669
:1004B0007FEA655C1CBF0B46024650EA013406BF6A
:1004C00052EA033591EA030F41F4002130BD00BF29
:1004D00090F0000F04BF0021704730B54FF48064E6
:1004E00004F132044FF000054FF0000150E700BF67
:1004F00090F0000F04BF0021704730B54FF48064C6
:1005000004F1320410F0004548BF40424FF00001B2
:100510003EE700BF42004FEAE2014FEA31014FEAF5
:1005200002701FBF12F07F4393F07F4F81F0605144
:10053000704732F07F4208BF704793F07F4F04BF8F
:1005400041F40021704730B54FF4607401F000456C
:1005500021F000411CE700BF50EA010208BF7047CC
:1005600030B54FF000050AE050EA010208BF7047BD
:1005700030B511F0004502D5404261EB41014FF426
:10058000806404F132045FEA915C3FF4D8AE4FF02E
:1005900003025FEADC0C18BF03325FEADC0C18BF11
:1005A000033202EBDC02C2F1200300FA03FC20FA62
:1005B00002F001FA03FE40EA0E0021FA02F11444AF
:1005C000BDE600BF70B54FF0FF0C4CF4E06C1CEAC8
:1005D00011541DBF1CEA135594EA0C0F95EA0C0F39
:1005E00000F0DEF82C4481EA030621EA4C5123EAAC
:1005F0004C5350EA013518BF52EA033541F48011DB
:1006000043F4801338D0A0FB02CE4FF00005E1FB8D
:1006100002E506F00042E0FB03E54FF00006E1FBD7
:1006200003569CF0000F18BF4EF0010EA4F1FF041A
:10063000B6F5007F64F5407404D25FEA4E0E6D415A
:1006400046EB060642EAC62141EA55514FEAC5206B
:1006500040EA5E504FEACE2EB4F1FD0C88BFBCF5E7
:10066000E06F1ED8BEF1004F08BF5FEA500E50F198
:10067000000041EB045170BD06F0004646EA01015E
:1006800040EA020081EA0301B4EB5C04C2BFD4EB90
:100690000C0541EA045170BD41F480114FF0000E89
:1006A000013C00F3AB8014F1360FDEBF002001F0F7
:1006B000004170BDC4F10004203C35DA0C341BDC71
:1006C00004F11404C4F1200500FA05F320FA04F043
:1006D00001FA05F240EA020001F0004221F0004177
:1006E00010EBD37021FA04F642EB06015EEA430EEA
:1006F00008BF20EAD37070BDC4F10C04C4F120051A
:1007000000FA04F320FA05F001FA04F240EA0200CC
:1007100001F0004110EBD37041F100015EEA430E9D
:1007200008BF20EAD37070BDC4F1200500FA05F2BD
:100730004EEA020E20FA04F301FA05F243EA02033C
:1007400021FA04F001F0004121FA04F220EA02004B
:1007500000EBD3705EEA430E08BF20EAD37070BD91
:1007600094F0000F0FD101F00046400041EB010171
:1007700011F4801F08BF013CF7D041EA060195F053
:10078000000F18BF704703F00046520043EB03030D
:1007900013F4801F08BF013DF7D043EA06037047FA
:1007A00094EA0C0F0CEA135518BF95EA0C0F0CD005
:1007B00050EA410618BF52EA4306D1D181EA03014B
:1007C00001F000414FF0000070BD50EA410606BF45
:1007D0001046194652EA430619D094EA0C0F02D18A
:1007E00050EA013613D195EA0C0F05D152EA0336CF
:1007F0001CBF104619460AD181EA030101F00041ED
:1008000041F0FE4141F470014FF0000070BD41F035
:10081000FE4141F4780170BD70B54FF0FF0C4CF40F
:10082000E06C1CEA11541DBF1CEA135594EA0C0F2E
:1008300095EA0C0F00F0A7F8A4EB050481EA030E7B
:1008400052EA03354FEA013100F088804FEA033362
:100850004FF0805545EA131343EA12634FEA022230
:1008600045EA111545EA10654FEA00260EF00041F1
:100870009D4208BF964244F1FD0404F5407402D243
:100880005B084FEA3202B61A65EB03055B084FEAD4
:1008900032024FF480104FF4002CB6EB020E75EBD1
:1008A000030E22BFB61A754640EA0C005B084FEAF9
:1008B0003202B6EB020E75EB030E22BFB61A754676
:1008C00040EA5C005B084FEA3202B6EB020E75EBC1
:1008D000030E22BFB61A754640EA9C005B084FEA39
:1008E0003202B6EB020E75EB030E22BFB61A754646
:1008F00040EADC0055EA060E18D04FEA051545EA35
:1009000016754FEA06164FEAC30343EA52734FEADD
:10091000C2025FEA1C1CC0D111F4801F0BD141EA56
:1009200000014FF000004FF0004CB6E711F4801FBB
:1009300004BF01430020B4F1FD0C88BFBCF5E06F9B
:100940003FF6AFAEB5EB030C04BFB6EB020C5FEAAB
:10095000500C50F1000041EB045170BD0EF0004E00
:100960004EEA113114EB5C04C2BFD4EB0C0541EA32
:10097000045170BD41F480114FF0000E013C90E62F
:1009800045EA060E8DE60CEA135594EA0C0F08BFF3
:1009900095EA0C0F3FF43BAF94EA0C0F0AD150EAF2
:1009A00001347FF434AF95EA0C0F7FF425AF104685
:1009B00019462CE795EA0C0F06D152EA03353FF4AD
:1009C000FDAE1046194622E750EA410618BF52EA2A
:1009D00043067FF4C5AE50EA41047FF40DAF52EAFE
:1009E00043057FF4EBAE12E74FF0FF3C06E000BF9B
:1009F0004FF0010C02E000BF4FF0010C4DF804CDA8
:100A00004FEA410C7FEA6C5C4FEA430C18BF7FEA67
:100A10006C5C1BD001B050EA410C0CBF52EA430C95
:100A200091EA030F02BF90EA020F0020704710F115
:100A3000000F91EA030F58BF994208BF90422CBFA4
:100A4000D8176FEAE37040F0010070474FEA410C9D
:100A50007FEA6C5C02D150EA013C07D14FEA430CBB
:100A60007FEA6C5CD6D152EA033CD3D05DF8040B2C
:100A7000704700BF8446104662468C46194663465E
:100A800000E000BF01B5FFF7B7FF002848BF10F135
:100A9000000F01BD4DF808EDFFF7F4FF0CBF01207A
:100AA00000205DF808FB00BF4DF808EDFFF7EAFFF6
:100AB00034BF012000205DF808FB00BF4DF808EDB1
:100AC000FFF7E0FF94BF012000205DF808FB00BFA6
:100AD0004DF808EDFFF7CEFF94BF012000205DF830
:100AE00008FB00BF4DF808EDFFF7C4FF34BF01203D
:100AF00000205DF808FB00BF4FEA410C7FEA6C5C08
:100B000002D150EA013C0AD14FEA430C7FEA6C5C07
:100B100002D152EA033C02D14FF0000070474FF07F
:100B2000010070474FEA410212F5001215D211D5AB
:100B30006FF47873B3EB625212D94FEAC12343F0DA
:100B4000004343EA505311F0004F23FA02F018BF5C
:100B5000404270474FF00000704750EA013005D125
:100B600011F0004008BF6FF0004070474FF00000E8
:100B7000704700BF53B94AB9002908BF00281CBFFD
:100B80004FF0FF314FF0FF3000F07EB9ADF1080CAF
:100B90006DE904CE00F006F8DDF804E0DDE902239B
:100BA00004B070472DE9F04F099D0C46002B4DD144
:100BB0008A420F4684469646B2FA82F360D94BB118
:100BC00002FA03FEC3F120029F4000FA03FC20FA60
:100BD00002F217434FEA1E461FFA8EF44FEA1C42F8
:100BE000B7FBF6F106FB117701FB04F042EA07427E
:100BF000904208D91EEB020201F1FF3702D2904267
:100C000000F22D813946121A1FFA8CFCB2FBF6F065
:100C100006FB102200FB04F44CEA024C644508D9A0
:100C20001EEB0C0C00F1FF3202D2644500F21A8177
:100C3000104640EA0140ACEB040C002125B12CFA2F
:100C400003F30022C5E90032BDE8F08F8B4205D9DD
:100C50000DB1C5E9000100210846F5E7B3FA83F1BB
:100C600000294DD1A342C0F0F280904280F0EF8085
:100C7000064623460846002DE6D0C5E90063E3E7B3
:100C8000002B40F0A2808A1A4FEA1E471FFA8EF608
:100C90000121B2FBF7F407FB14204FEA1C4242EAA1
:100CA000004206FB04F090420FD91EEB020204F151
:100CB000FF382CBF4FF001094FF00009904203D9D3
:100CC000B9F1000F00F0C8804446121A1FFA8CFCDC
:100CD000B2FBF7F007FB102200FB06F64CEA024CD1
:100CE000664508D91EEB0C0C00F1FF3202D26645B6
:100CF00000F2BB801046ACEB060C40EA04409DE7D6
:100D0000C1F120068B4004FA01FE22FA06F720FA10
:100D100006FCF4408A401F434EEA0C0300FA01FE31
:100D20004FEA17484FEA13491FFA87FCB4FBF8F063
:100D300008FB104449EA044400FB0CF9A1450ED914
:100D40003C1900F1FF3A2CBF4FF0010B4FF0000BA4
:100D5000A14503D9BBF1000F00F093805046A4EBEE
:100D600009041FFA83F9B4FBF8F308FB134403FBEF
:100D70000CFC49EA0444A44506D93C1903F1FF38A8
:100D800001D2A4457AD8434643EA0040A4EB0C04C0
:100D9000A0FB02984445CC46434602D306D1CE453B
:100DA00004D20138B9EB020C68EB07035DB1BEEB6E
:100DB0000C0264EB030404FA06F622FA01F3CC40B9
:100DC0001E43C5E9006400213EE702FA03FEC3F1B9
:100DD000200104FA03F200FA03FCCC404FEA1E475C
:100DE00020FA01F11FFA8EF6B4FBF7F00A4307FB75
:100DF0001044110C41EA044100FB06F48C420ED968
:100E00001EEB010100F1FF382CBF4FF001094FF03C
:100E100000098C4202D9B9F1000F2CD04046091BC1
:100E200092B2B1FBF7F407FB141142EA014204FB52
:100E300006F1914207D91EEB020204F1FF3801D2FC
:100E4000914215D84446521A44EA004121E7861AD5
:100E500064EB030301200EE7023C724435E70239DC
:100E60007244D0E6F4440238E3E6F444023842E740
:100E7000023C7244E7E702387144D0E7023B3C444D
:100E800082E702383C446AE7704700BF70B540F61D
:100E9000FC7404EA8104002843D1274B1A888A4253
:100EA00049D0198044F4104400228021234803F0E3
:100EB0006DFB01228021214803F068FB01224FF4E1
:100EC00080711E4803F062FB00224FF480711B48C2
:100ED00003F05CFB00228021184803F057FB0F252C
:100EE000174E44FA05F212F0010218BF01224FF426
:100EF0008051304603F04AFB01224FF480710F48C5
:100F000003F044FB00224FF480710C4803F03EFBD9
:100F1000013DE6D20122BDE870408021074803F080
:100F200035BB012807D1074B1A888A4203D01980A4
:100F300044F42044B8E770BD4E0600200000024291
:100F4000000402424C06002009F0A0B8800009F01D
:100F500047B8890009F0BCB807B5002001A9019085
:100F600009F0CAFB28B10C2004F092FC03B05DF834
:100F700004FB019B987BF7E770B5464C88B00020D6
:100F800007F04CF8D4F8F430002543F40003C4F81B
:100F9000F4300AF0DFF9404803F05CFE032609F064
:100FA00085FF4FF46043CDE90555CDE9033607953C
:100FB000D4F88C30394843F00103C4F88C30D4F8AD
:100FC0008C3003A903F001030193019B03F0D6F9D0
:100FD0001823CDE904650393D4F88C30304843F0EE
:100FE0000203C4F88C30D4F88C3003A903F0020358
:100FF0000293029B03F0C2F92A4A2B48136823F09C
:101000002003136008F094FD08B100F005FE0021F4
:101010001020264A0AF090F907F0F4FA0021012086
:10102000234A0AF089F9234A002140200AF084F972
:101030000121084607F030FD0021022007F02CFDB9
:101040000021084607F028FD202000211A4A0AF056
:1010500073F94FF6FD71194BB3F8A020531E9BB2E4
:101060008B429BBF43F6FE7000EBD2001448400356
:1010700008F00EFB08B100F0CFFD05F02DFF0121B7
:10108000022007F009FD002006F0C9FF002008B08B
:1010900070BD00BF000C024640000030000002425C
:1010A000000402420008024600000020699F000878
:1010B00081860008D58C0008457C00080007F90BE4
:1010C00000C00F084FF0FF300AF0A0B8704770471B
:1010D0007047002120200AF06DB8002101200AF09D
:1010E00069B80000034B0360034B4360034B83600C
:1010F000704700BF530F00084D0F0008490F00084C
:10110000002110200AF056B8002140200AF052B801
:1011100038B5134B04461B7813B9124B1B786BB1CF
:10112000A2070BD0104D2846696303F099FA0146D7
:1011300020B90E4B28461C7003F00EFC0C4B1B789C
:101140006BB163070BD501220A4B0B4820211A70A3
:1011500003F01CFABDE83840084804F03DBF38BD34
:101160002B0000202A0000208C5F002008160020A1
:101170004A160020C75D002000000242605E002089
:10118000134B93ED007A134BD3ED006AF8EEE66A49
:10119000C6EE877AFCEEE77A0F4BC3ED007A0F4B71
:1011A000D3ED006AF8EEE66AC6EE877AFCEEE77ADF
:1011B0000B4BC3ED007A0B4BD3ED006AF8EEE66AF9
:1011C000C6EE877AFCEEE77A074BC3ED007A7047EC
:1011D000241600203C16002030160020381600206F
:1011E0002C160020341600202816002010B598B0C8
:1011F0004022002108A82AF0BBFB202200216846DB
:101200002AF0B6FB002003F073FD044608B172B665
:10121000FEE703F017FD1D4A0721D2F8F0304FF426
:10122000801023F0180343F00803C2F8F0304FF4A5
:101230008033CDE9081381234FF4807CCDE90A0384
:10124000102308A8CDE90CC3109403F0EBFD014670
:1012500008B172B6FEE702233F22CDE90023042342
:10126000CDE90400CDE90230CDE90600684604F07E
:10127000AFF808B172B6FEE702F0ACFA0F2001F049
:101280000DFD08B172B6FEE718B010BD000C0246A5
:1012900000B593B04022002101A82AF069FB4FF469
:1012A000004300934FF480236846119304F096F9AD
:1012B00008B172B6FEE713B05DF804FB002330B549
:1012C000294A2A4C01210425C4E900234FF40012C5
:1012D00084F82810C4E9042584F8341003224FF45C
:1012E00080514FF480604FF4B86CC4E90E12626212
:1012F000072285B0C4E90BC02046CDE90133C4E91B
:1013000002330393E361238384F82030636522640E
:1013100084F8443001F052FD08B172B6FEE7144B78
:101320000390CDE9013001A9204601F03BFF08B14F
:1013300072B6FEE70F4B2046CDE901350E4B01A9F1
:10134000039301F02FFF08B172B6FEE708230B4AA2
:10135000204601A9CDE9012301F024FF08B172B6AE
:10136000FEE705B030BD00BF00100246EC60002073
:10137000000200248000001C04FFFF03002000B4D2
:1013800008B50A480A4B41F6B7520360012383802F
:101390000823C0E902230023C0E9053303230362C5
:1013A00002F09AFA08B172B6FEE708BD1C60002090
:1013B0000030024008B5002003F014F908B172B6FD
:1013C000FEE703F01FF908B172B6FEE708BD0000A2
:1013D000002313B5134A144CCDE90033C4E90023AC
:1013E0004FF46062A2604FF6FF72626142F21072C7
:1013F0002046C4E90823C4E90A33C4E90C3303F0E6
:101400002FF9024608B172B6FEE74FF47A636946D7
:10141000CDE90030204603F003FB08B172B6FEE7C9
:1014200002B010BD004400468C5F0020002313B5BD
:10143000144A154CCDE90033C4E900234FF6FF727E
:10144000626140F6EC122046C4E90823C4E90A337D
:10145000C4E90C33A36003F003F908B172B6FEE7E8
:1014600040F2F6430122CDE900306946204603F000
:10147000D7FA08B172B6FEE7204601F0B3F802B021
:1014800010BD00BF00940040FC5E002008B5044879
:10149000044B036003F05EFC08B172B6FEE708BDC2
:1014A000F05E00200060024008B500230648074AAD
:1014B000C0E9002304F00CFA08B172B6FEE7BDE8FB
:1014C000084007F02DB800BFDC5E002000080C4289
:1014D00010B588B01C22002101A82AF049FA164C48
:1014E000164B4FF0804223607F23A3600023C4E9A2
:1014F0000433C4E90723A3614FF480732046636279
:1015000004F0CEFA08B172B6FEE7CDE9040001900E
:10151000069001A9204604F041FC034608B172B6CA
:10152000FEE701460422204604F0BCFB08B172B677
:10153000FEE708B010BD00BFAC5E0020007800469A
:1015400010B594B01C22002168462AF011FA34220A
:10155000002107A82AF00CFA0F23244C244A10215A
:10156000C4E900234FF47A73C4E902130023C4E9E9
:10157000043380232046A36104F090FE08B172B6C4
:10158000FEE7204604F0BAFE08B172B6FEE7082175
:10159000204604F0E3FE024608B172B6FEE73023AF
:1015A000CDE90200CDE90030CDE90400069069469E
:1015B000204604F039FF08B172B6FEE74FF400533D
:1015C000CDE90700CDE90900CDE90C300B9013906F
:1015D00007A9204604F05AFF08B172B6FEE76FF083
:1015E000010223681A6114B010BD00BF605E0020C4
:1015F000004801404FF4E13310B5194A194C4FF43B
:101600008050C4E9002300230822C4E905234FF4D5
:101610000042C4E90233C4E9072323616362302333
:10162000A3624FF40053C4E90F03204605F029FAE2
:10163000014608B172B6FEE7204605F099FA014668
:1016400008B172B6FEE7204605F0B2FA08B172B6EC
:10165000FEE7204605F06CFA08B172B6FEE710BD51
:1016600000440040CC5D0020A44ADFEDA56A118A49
:10167000B2F842302DE9F04F5B1A07EE903AF8EEDF
:10168000E77A138A86EEA77A9BB207EE903AF3EEDA
:101690000E6AF8EE677AE7EE676ADFED9A7ADFF8AE
:1016A000BC9227EE277AC9ED006AF0EE086AC7EE11
:1016B000267ADFF8ACA28BB0CAED007A01F03AFBD3
:1016C000FFF74AFCFFF792FDFFF7E2FD002205213C
:1016D000432002F011F8432002F03EF814228A4D14
:1016E00000210DEB02002AF043F9D5F88C300022DE
:1016F00043F00203C5F88C30D5F88C304FF4985184
:1017000003F002030293029BD5F88C307F4843F02C
:101710000103C5F88C30D5F88C30002403F00103A8
:101720000393039BD5F88C30012643F00403C5F8DE
:101730008C30D5F88C30764F03F004030493049B6F
:1017400002F024FF00224FF4F071724802F01EFFF5
:101750004FF480536D4805A9CDE90536CDE907441E
:1017600002F00CFE4FF4F0736A4805A9CDE9053686
:10177000CDE9074402F002FE4FF4407211236348A2
:1017800005A9CDE90523CDE9074402F0F7FD4FF4A3
:1017900088134FF400415D48CDE9051305A907946E
:1017A00002F0ECFD06F03CFC224621461A2001F036
:1017B000A3FF1A2001F0D0FFD5F88830224633432A
:1017C000C5F88830D5F88830214633401D20059370
:1017D000059B01F091FF1D2001F0BEFFFFF76EFD9C
:1017E000FFF708FFFFF7CCFDFFF750FEFFF75CFEA9
:1017F000FFF76EFEFFF7DEFDFFF718FEFFF7E8FDCF
:10180000FFF79EFE384601F00BFF434804F0B8FE98
:101810002046FFF7B1FB00F02BFBFFF7B1FC3F4B7D
:1018200020461988FFF732FB3D4B30461988FFF7F9
:101830002DFB3C4B1B78002B4AD03B4B03223846F8
:101840003A491C7001F0F6FDBB6D1A68536923F428
:10185000007353613A68936ABB6E63F00F0393623F
:1018600000230121324A08461360324A1360324A8B
:101870001360FFF74DFCFFF725FC304B304918781B
:10188000304B0A681B6801329A4238BF0B6018BBA4
:101890002C4B2D4A1B6811689942C0F02D812B4AB0
:1018A00011688B42E7D9013313601F4B1B78002B63
:1018B000E1D0274A1378002BDDD139688B6ABB6EE3
:1018C0006FEA03536FEA13538B6201231370D2E75D
:1018D000384601F04FFEC3E71E4A11688B42D7D944
:1018E000053313601C4B1B78042B00F2EE80DFE8FD
:1018F00013F0C800C800EF003900E1000007F90B41
:101900000000C84233333340000C02460004024258
:10191000EC60002000000242CC5D0020200000208E
:1019200022000020C45D002048160020905D0020A9
:10193000A05D00209C5D00208C5D0020C85D002023
:10194000AC5D0020A45D0020B45D0020A85D0020F7
:1019500049160020B05D0020B05B0020401600203A
:101960004416002079254FF0010844F23C23644CD2
:101970009FED646A23804FEA082343F03E036380AF
:10198000614B00261A68B34607EE902A130CA38118
:101990005E4BF8EE676A1B686281E3811B0C238251
:1019A0005B4B32461B68A68007EE903AB8EE677A2A
:1019B000C6EE877A6382190C564BDAED006AC3EDE6
:1019C000007A17EE903AE382C3F30F432383524B1E
:1019D000D9ED007A1B88E68007EE103AB8EE477A18
:1019E000E7EE267A4D4B9FED4E7AC3ED007A4D4BD4
:1019F000A1821B8806EE903AF8EEE66A66EE876AE8
:101A000086EE867A484B83ED007A17EE903A638330
:101A1000C3F30F43A38317EE103AE383C3F30F43DB
:101A2000238424F81560B0457FF732AF3F4B1B7815
:101A3000002B3FF42DAF3E4B4FF0000C1B883D4870
:101A4000019304EB4B031946019B0230634544DCD0
:101A500001330BEB530B5D45DCBF3649130A3548A8
:101A6000D8BF81F8F2200192D8BF81F8F33005F099
:101A70005BFFFFF727FB282001F08AF90136019A66
:101A8000D1E72D4B2D491B782D48022B8BBF00250C
:101A90002C4AA84612F803809CBF2B4A32F81350F8
:101AA000A5F13702362D4FEA420298BF002229F0F5
:101AB000B0FF5AE74FF480622449214829F0A9FF7A
:101AC00040F2E7154FF004084FE70025A8464CE721
:101AD00040F26D154FF0030847E731F8023B0CF177
:101AE000020C4FEA132E00F8023C5EFA83F3134413
:101AF00000F801EC9AB2A7E7591C1160CFE600BFCD
:101B00004C16002000007F45B85D0020885D002055
:101B1000BC5D00200C160020BA5A002014160020CC
:101B200066668640B85A002010160020C85D002066
:101B300018910020BC5A0020B15B0020B83A002068
:101B4000BA16002046DD020840DD0208B836002043
:101B500008B590F8381001291BD10E4B1B7843B102
:101B60000D4B1B78DA0704D50C4B0D48197002F0A9
:101B700037FE0C4B1B7863B1074B1B789B0708D5CE
:101B80000122094B40211A700848BDE8084002F0C4
:101B9000FDBC08BD2B00002008160020C65D0020FB
:101BA000FC5E00202A000020C55D002000000242EB
:101BB00008B50A4B1A782AB10022012108481A7088
:101BC00002F041FE074B1A783AB1002240211A7008
:101BD0000548BDE8084002F0D9BC08BDC65D00203C
:101BE000FC5E0020C55D00200000024208B5002117
:101BF000064802F013FF0121054802F024FEBDE86B
:101C0000084000224021034802F0C0BC8C5F002045
:101C1000FC5E00200000024272B6FEE710B558B12B
:101C2000194A1378591C022B117017D8BDE81040BF
:101C30000020164907F01CBF4FF6FD71144BB3F896
:101C4000A020531E9BB28B4296BF124B124B03EB4C
:101C500082231A68114B9A42E2D110BD4FF4C87228
:101C600000210F4829F084FE0E490D4829F0B6FEE8
:101C70000B48FEF7E2FABDE8104082B2642308493F
:101C8000094804F04EBE00BF586100201D1C00082A
:101C90000007F90B10C0FF0710C00F0868452301AB
:101CA000F85B002049DD0208CC5D00200000000048
:101CB000554A53A1D1E9000170B5C2E90001534969
:101CC000534B09781B7809B143F002035149097855
:101CD00009B143F004035049097809B143F00803FE
:101CE0004E49097809B143F010034D49097809B10B
:101CF00043F020034B49097809B143F040034A49B6
:101D0000097809B143F080034849097809B143F4DF
:101D100080734749097801296AD002296BD0454967
:101D2000097809B143F40063434D444900240E8807
:101D30002978B00541EA96216E7841EA0621AE780D
:101D4000ED7841EA06413E4E41EA0561368840EAB7
:101D500006300343C2E902313A4B3B491B6809682C
:101D600043EAE173C2E90413384B1B68D917C2E98F
:101D70000631374948780B788D7843EA0023354897
:101D8000C978006843EA054343EA0163C2E90803EE
:101D9000314B4FF0CC301B68D917C2E90A314FF0F4
:101DA000DD31C2E90C014FF0EE304FF0FF312B4B2B
:101DB000C2E90E012A4920461C7007F059FE05466B
:101DC0004FF4C8722146274829F0D2FD75B12A4642
:101DD0002549244829F082FD2248FEF72EFA642383
:101DE00082B22049214804F09CFD0125284670BD9F
:101DF00043F4007393E743F4806390E7AFF300800C
:101E00006845230100000000B85B00204A1600204E
:101E10002B0000202A00002029000020280000209C
:101E2000270000202600002025000020240000209C
:101E3000B15B0020C45D002024160020200000209B
:101E400022000020381600203C1600203416002006
:101E50001C160020201600201816002058610020B3
:101E60001D1C0008F85B002051DD0208CC5D00203D
:101E70002DE9F04F00242646DFF86C93AC4FA1B05B
:101E80004FF6FD71B9F8A0203846531E9BB28B4225
:101E900096BFA84DA84D05EB822500214FF4C872CE
:101EA00004EB050829F064FD42466359A34938460E
:101EB00029F014FD3846FEF7C0F9642382B2394692
:101EC0009F4804F02EFD032E06F1010340F0A3818C
:101ED000642302229B499A4804F023FD002604341F
:101EE000402CCDD1642302229649954804F019FD77
:101EF0004FF6FD71B9F8A020934D531E9BB28B4253
:101F000096BF8C4B8C4B03EB82231A688F4B0021BE
:101F10009A4287484FF4C87240F07F8129F028FD2B
:101F20008B49834829F05AFD8148FEF786F96423DE
:101F300082B27F49824804F0F4FC4FF4C872002159
:101F40007B4829F015FD4FF6FD72B9F8A0107848CE
:101F50004B1E9BB2934296BF7E4A7F4A02EB812280
:101F600013687E4929F0BAFC7148FEF766F96423CC
:101F700082B26F49724804F0D4FC4FF6FD71B9F893
:101F8000A020531E9BB28B4296BF754B754B03EB43
:101F900082231C684FF6FD7104F001032B70724B15
:101FA000C4F3400A83F800A0704BC4F3800B83F89D
:101FB00000B0C4F3C0031893189A6D4BC4F3C02546
:101FC0001A70C4F300131993199A6A4BC4F341268B
:101FD0001A70C4F340131A931A9A674BC4F3093763
:101FE0001A70C4F380131B931B9A644B4FEA9458E6
:101FF0001A70C4F3C0131C931C9A614B1A70C4F37B
:1020000000231D931D9A5F4B04F001041A705E4B70
:102010001D705E4B1E705E4B1F805E4BA3F80080F0
:10202000B9F8A020531E9BB28B4296BF49494A493A
:1020300001EB82210868584908604FF6FD718B4218
:1020400096BF5649564901EB8221D1F80090554977
:10205000C1F800904FF6FD718B4296BF524953492B
:1020600001EB822109681E911E98514908604FF6C4
:10207000FD718B4296BF4F494F4901EB82210968A0
:102080001F911F984D4908604FF6FD718B4296BF16
:102090004B494C4901EB822108684B4908604FF6D7
:1020A000FD718B4296BF4949494901EB822108687D
:1020B000484908604FF6FD718B4296BF464B474B2F
:1020C00003EB82231A68464B00211A6018484FF42C
:1020D000C87229F04DFC424B1868FEF71BFACDE997
:1020E00016013C4B1868FEF715FACDE91401364B82
:1020F0001868FEF70FFA1F9BCDE9120110931E9B83
:10210000CDE90E93244B1868FEF704FA1D9B224676
:1021100006931C9BCDE90C0105931B9B314904934D
:102120001A9B03480393199BCDE9097802935DE05C
:10213000F85B002010C0FF0710C00F0869DD02081F
:10214000CC5D0020DFDE02082B0000206845230163
:102150007ADD02081CC0FF071CC00F088DDD0208D5
:1021600018C0FF0718C00F084A1600202A000020D8
:102170002900002028000020270000202600002041
:102180002500002024000020C45D0020B15B002059
:1021900022000020200000202416002020C0FF077D
:1021A00020C00F083C16002024C0FF0724C00F08E1
:1021B0003816002028C0FF0728C00F08341600205A
:1021C00030C0FF0730C00F082016002034C0FF07C2
:1021D00034C00F081C16002038C0FF0738C00F0895
:1021E000181600209FDD02080007F90B189BCDE9A7
:1021F0000756CDE900B3534629F070FB2948FEF796
:102200001CF8642382B22749274804F08AFB002087
:1022100021B0BDE8F08F1E4661E629F0A9FB2349F5
:10222000204829F0DBFB1F48FEF707F8642382B241
:102230001C491D4804F075FB002201231C492B702A
:102240000A701C490B701C490B701C490B701C490F
:102250000B701C490B701C490B701C490B701C4BFC
:102260001A704FF448721B4B1A804FF416721A4BB7
:102270001A801E22194B1A603C22194B1A607822D0
:10228000184B1A60184B194A1A60194B194A1A60F0
:10229000194B1A4A1A601A4B1A4A1A60FFF708FDBE
:1022A000B5E700BFF85B0020CC5D0020CBDE020864
:1022B0004A1600202A0000202900002028000020C3
:1022C00027000020260000202500002024000020F8
:1022D000B15B002022000020200000203C160020DE
:1022E0003816002034160020241600203333333FE4
:1022F000201600206F12833A1C160020CDCC8C3F94
:1023000018160020CDCC0C40164B07B5D3F89420FE
:10231000052142F00402C3F89420D3F8942042200F
:1023200002F004020092009AD3F88C2042F480124A
:10233000C3F88C20D3F88C30002203F4801301936F
:10234000019B01F0D9F9422001F006FA0022442055
:10235000114601F0D1F9442003B05DF804EB01F01F
:10236000FBB900BF000C024630B50546B1B01422DF
:10237000002103A829F0FCFA4822002108A829F02E
:10238000F7FA2A68434B9A4240F082804FF4005398
:1023900008934FF4804308A8179303F01FF908B17E
:1023A000FFF73AFC3C4B0521D3F89420002442F07F
:1023B0002002C3F89420D3F89420384802F0200279
:1023C0000192019AD3F88C2042F00102C3F88C20CC
:1023D000D3F88C30059403F001030293029B03238E
:1023E000CDE9031303A901F0C9FF21234FF4002015
:1023F000CDE91A3401234FF48032CDE91F03284977
:102400001AA8CDE91C44CDE92333CDE92544CDE913
:1024100028441E94219227942B9401F0A0FD08B12A
:10242000FFF7FAFB00211E4A1E4801F0F1FD08B13A
:10243000FFF7F2FB1B4801F04DFE08B1FFF7ECFB84
:10244000194C1A4B204623600023C4E90E33C4E91B
:1024500010338123A36401F0DDFC08B1FFF7DCFB3E
:102460001049114801F062FE08B1FFF7D5FBAC65D9
:1024700010210D48E56501F032FC08B1FFF7CCFBF7
:1024800000224120114601F037F9412001F064F9A2
:1024900031B030BD00100246000C0246000002427E
:1024A000D0600020B8600020406000205000024052
:1024B00002680C4B10B59A42044612D10A4A052113
:1024C000D2F89430094823F02003C2F8943001F088
:1024D000F5FFA06D01F0BDFABDE81040412001F00C
:1024E00049B910BD00100246000C0246000002422D
:1024F0000268094B82B09A420CD1084BD3F888206D
:1025000042F48052C3F88820D3F8883003F4805313
:102510000193019B02B0704700300240000C02465C
:102520000268054B9A4201BF044AD2F8883023F46E
:102530008053C2F88830704700300240000C0246D9
:1025400010B5044694B04822002102A829F010FAE0
:102550002368214A934222D14FF4805302934FF4CF
:10256000006302A8109303F039F808B1FFF754FB99
:102570001A4B3120D3F8A82042F40062C3F8A820F7
:102580000022D3F8A830114603F400630093009BA7
:1025900001F0B2F8312001F0DFF814B010BD104A9C
:1025A0009342FAD1082302934FF4002302A8069322
:1025B00003F014F808B1FFF72FFB084BD3F8A02065
:1025C00042F02002C3F8A020D3F8A03003F020038B
:1025D0000193019BE1E700BF00440046000C024666
:1025E0000094004010B5044686B01422002101A8D2
:1025F00029F0BEF922680D4B9A4215D10C4B0D48BB
:10260000D3F88C2001A942F00102C3F88C20D3F842
:102610008C3003F001030093009B0223CDE90133CA
:102620000D23059301F0AAFE06B010BD00940040F2
:10263000000C024600000242074B82B0D3F888200B
:1026400042F40032C3F88820D3F8883003F4003312
:102650000193019B02B07047000C024610B504467E
:1026600094B04822002102A829F082F922680F4B79
:102670009A4218D14FF4807302934FF4005302A88A
:102680000B9302F0ABFF08B1FFF7C6FA084BD3F883
:102690008C2042F48022C3F88C20D3F88C3003F4D1
:1026A00080230193019B14B010BD00BF00080C42B1
:1026B000000C024610B5044694B04822002102A83E
:1026C00029F056F92268134B9A4220D14FF48043E7
:1026D00002934FF4807302A8129302F07FFF08B1B7
:1026E000FFF79AFA0C4B0220D3F8A82042F400120C
:1026F000C3F8A8200022D3F8A830114603F4001331
:102700000193019B00F0F8FF022001F025F814B0BE
:1027100010BD00BF00780046000C024607B50368F4
:102720001A4A934217D11A4B3320D3F8A42042F40B
:102730000032C3F8A4200022D3F8A430114603F4D9
:1027400000330093009B00F0D7FF332003B05DF807
:1027500004EB01F001B80F4A934213D10C4B342023
:10276000D3F8A42042F48022C3F8A4200022D3F896
:10277000A430114603F480230193019B00F0BCFFB9
:102780003420E3E703B05DF804FB00BF00440140E0
:10279000000C02460048014010B504469AB01422CD
:1027A000002103A829F0E4F84822002108A829F014
:1027B000DFF822681A4B9A4230D10223089308238B
:1027C00008A80A9302F00AFF08B1FFF725FA154B93
:1027D0001548D3F89C2003A942F40032C3F89C208A
:1027E000D3F89C2002F400320192019AD3F88C2095
:1027F00042F00102C3F88C20D3F88C304FF48052A1
:1028000003F001030293029B1223CDE9032300236B
:10281000CDE905330323079301F0B0FD1AB010BDD5
:1028200000440040000C0246000002420268084BCF
:102830009A420BD1074A4FF48051D2F89C30064897
:1028400023F40033C2F89C3001F038BE704700BF5B
:1028500000440040000C024600000242FEE7FEE792
:10286000FEE7FEE7FEE770477047704700F07EBA6C
:1028700010B5264803F062FA254A2648136801334A
:102880001360254A1368591C1160244A1360244BB5
:102890001A68244B1A600268234B1A60234B19688C
:1028A000B1F5007FA4BF0021196019684C1C1C60A1
:1028B0001F4B23F8112000211E4B016019601E4997
:1028C0000968002905DD1D4909688A4284BF012184
:1028D00019601B490968002905DD1A4909688A42FF
:1028E00084BF0221196018490968002905DD1749CC
:1028F00009688A4284BF03221A60196829B1BDE8B9
:10290000104003200139FEF703BC10BDAC5E00206F
:10291000A45D00209C5D00208C5D0020BC5D00203B
:10292000A05D0020B85D0020885D0020B436002046
:10293000B8360020C05D00203C1600203016002074
:10294000381600202C1600203416002028160020EF
:1029500008B54FF4004001F021FE094A1368013325
:102960001360084A136801331360074B1B782BB1BF
:10297000BDE8084000210420FEF7CABB08BD00BF27
:10298000A05D00209C5D00204A16002008B51D486F
:1029900001F0E6F81C4B1B78012B29D0022B2CD020
:1029A00073B91A4B1B68C3F389034FF6FF701849BC
:1029B000373331F8132082421CBF013221F8132033
:1029C000144B1A789AB100221A70134B1A689B6E36
:1029D000916A63F00F0393620C4A10499368C3F342
:1029E0000B030B8053680E4AC3F30B03138008BD1F
:1029F000064B1B68C3F34A03D7E7044B1B68C3F3BA
:102A00000B03D2E740600020B15B0020905D002006
:102A1000B83A002049160020EC600020B85A002087
:102A2000BA5A0020014802F03EB800BF8C5F002077
:102A3000044B1A69D20704D56FF001021A6108F03D
:102A4000F3BA70470044014008B5084803F00DFB95
:102A5000074B1A782AB10022202106481A7001F08B
:102A600095FDBDE80840014803F0E0BA605E002033
:102A7000C75D002000000242014800F0F2BA00BF2A
:102A8000EC60002008B5074B1B6803B19847064A65
:102A9000D2F8083223F48033C2F80832BFF36F8FC4
:102AA00008BD00BFA4920020000C024602F0F8B856
:102AB00001F08ABD38B54FF000530C4CC4F8843097
:102AC000BFF34F8FBFF36F8F094B1B6803B198475C
:102AD000084D2B7833B1002205213D2000F00CFE7B
:102AE00000232B704FF00053636038BD00E100E01D
:102AF000A0920020859200200120704708B528F0A0
:102B000043FF162303604FF0FF3008BD08B528F0DF
:102B10003BFF16230360FEE770B50D4614460E46D4
:102B2000731B9C4201DC204670BDAFF3008006F8A9
:102B3000010BF5E770B50D4614460E46731B9C421B
:102B400001DC204670BD16F8010BAFF30080F5E7FD
:102B50004FF0FF3070474FF4005300204B60704738
:102B600001207047002070470B4A0346116810B5DA
:102B700009B90A491160106809490A4C0344091B44
:102B80008B4206D928F000FF0C2303604FF0FF3082
:102B900010BD1360FCE700BF5C61002098CD0020F1
:102BA0000000022000040000034AD2F8883043F4F9
:102BB0007003C2F88830704700ED00E02F48C36909
:102BC00003F00C03082B0CD00C2B10D02C4B2B4AF1
:102BD0002C49126A02F007028A5CD3402A4A136029
:102BE00070470268294BC2F30052D340EFE7816A75
:102BF000436BC1F30222013206EE102AC3F308022E
:102C0000013207EE902ACA0648BF826B01F0030129
:102C100045BFC2F3CC0207EE102ADFED1D6AF8EEC5
:102C2000C76AC3F30663022903F1010322D0032913
:102C300022D1124A1168154AC1F30051CA4007EE69
:102C4000102AB8EEC66AB8EEC77AF8EEE77AC7EE91
:102C5000065A9FED107AE6EE877A65EEA76A07EED0
:102C6000903AB8EEE77AC6EE877AFCEEE77A17EE8E
:102C7000903AACE7024AE2E70022E0E7000C0246A5
:102C80000024F400EADE02082C0000200048E801DD
:102C90000000000000000039FEE7000038B5214BBD
:102CA00005461A780AB9012038BD4FF0E0231869AB
:102CB00010F0040016D04FF47A73B3FBF2F21A4B03
:102CC0001868B0FBF2F000F067FD04460028EAD176
:102CD000024629464FF0FF3000F00EFD134B204610
:102CE0001D60E1E7124BD3F8E03003F44003B3F585
:102CF000800F07D0B3F5000F0DD0002BE3D14FF4B8
:102D0000FA53DAE74FF47A73B3FBF2F24FF4FA4373
:102D1000B3FBF2F0D7E74FF47A73B3FBF2F24FF460
:102D20000043F5E7300000202C0000203400002094
:102D3000000C02460C4A10B51368032043F480735C
:102D4000136000F0C7FCFFF739FF042000F042FDDC
:102D50000F20FFF7A3FF044618B9FFF7D5FA204666
:102D600010BD0124FBE700BF00200240034A044BD2
:102D700011681B780B441360704700BF606100202E
:102D800030000020014B1868704700BF60610020D0
:102D900038B50446FFF7F6FF0546631C1EBF044B1B
:102DA0001B78E418FFF7EEFF431BA342FAD338BDAC
:102DB000300000208068C0F380007047F8B50446FA
:102DC00068B3056E25B9FFF7CFFA656684F85C50E5
:102DD00022689368DF0025D44FF480531360936812
:102DE00023F0104323F0170343F080539360FFF761
:102DF000C9FF054623681B68D80413D4FFF7C2FF38
:102E0000401B0128F6D923681B68DE04F2D4236E28
:102E100043F010032366636E43F0010363660125EC
:102E20002846F8BD23689A681846D1005FBF226E15
:102E3000012542F01002226657BF626E002542F063
:102E400001026266FFF7B6FF226E02F01002104325
:102E500040F0A780226E22F4817242F002022266C4
:102E60009A68D20722D4DA68A16822F00C020A43D9
:102E7000DA6094F84420606D012A07D1226DA16CBC
:102E800002430A43E16C0A4342F001001969474AD0
:102E9000474E0A4002431A61D6F80813626821F4CB
:102EA000701102F470120A43C6F80823A26B94F85A
:102EB0002070003A18BF0122267E11037A0342EAED
:102EC0008632E66894F834E03243266942EA4E02DC
:102ED000002EA8BF4FF4001C42EA010294F828100B
:102EE000B8BF26F0004C012942EA0C0203D1002FA2
:102EF0003AD142F48032E16A21B1276B01F4E071EA
:102F000039430A43DF682B4939401143D9601F69AF
:102F10002649394001431961586C617EE76920F008
:102F200003003943014359645969E06B21F00701FB
:102F3000014359615969206C21F0700141EA001187
:102F40005961D6B9996A61F00F019962D9681A4B33
:102F50000B40934221D100236366236E23F00303C9
:102F600043F0010323665BE7216E41F020012166F7
:102F7000616E41F001016166BDE7B6F5001FE5D164
:102F80006FF00F00996A616A0139890001F01C0134
:102F900000FA01F1A06E0143D7E7236E23F012037C
:102FA00036E7236E43F01003236638E702FCFFDFA9
:102FB000001002460D82DEFFF3FF3F83704770472B
:102FC00008B5C06DFFF7FBFF08BD70477047C06DC7
:102FD00008B5036E43F040030366436E43F00403F9
:102FE0004366FFF7F3FF08BDC36D10B51A6E12F00C
:102FF000500F1A6E2AD142F400721A661A68D1680C
:1030000011F4406F15D193F8201091B91168090798
:103010000FD51046FFF7CEFE78B9516821F00C01AC
:1030200051601A6E22F4807222F0010242F0010215
:103030001A661846FFF7C2FF10BD1A6E42F0200252
:103040001A665A6E42F001025A66F2E7D20603D5BA
:103050001846FFF7BBFFEFE79B6DBDE810409B6E86
:103060001847036870B51E680446B0075D680ED542
:10307000A9070CD5236E2046DA065EBF236E43F403
:103080000063236600F023FB022223681A607307A3
:1030900001D5680703D431072AD52A0728D5236E1E
:1030A000DB065EBF236E43F4007323662368DA6891
:1030B00012F4406F16D194F820209AB91A681007BC
:1030C00010D51846FFF776FE002861D15A6822F025
:1030D0000C025A60236E23F4807323F0010343F043
:1030E000010323662046FFF769FF0C2223681A605C
:1030F00031060BD52A0609D5236E204643F48033CA
:103100002366FFF762FF802223681A60F3050CD55F
:10311000E8050AD5236E204643F40033236600F009
:10312000D4FA4FF4807223681A60B1050CD5AA0551
:103130000AD5236E204643F48023236600F0C6FAA6
:103140004FF4007223681A60F30615D5E80613D50C
:10315000A36B1BB12368DB6899070AD0236E204656
:1031600043F480632366636E43F002036366FFF7F4
:103170002DFF102223681A60F20408D5EB0406D54F
:10318000204600F0A5FA4FF4805223681A6070BD03
:10319000236E43F020032366636E43F001036366EE
:1031A000A0E700000023F7B5019390F85C300246D9
:1031B000012B00F0AB8001230468066980F85C30C5
:1031C0002046FFF7F7FD002840F09A80D1E900354E
:1031D000022D26F0100071D0B0F1004FC3F3110E94
:1031E00035D1A06A40EA0E00A0628968606901EAF0
:1031F000032121F07C4121F0FF0120EA032001435B
:10320000002B61611DDA4249424DD1F80803AB42FF
:1032100000F4400443D1000213D4D1F8083323F45E
:103220004003234343F40003C1F808333A4B1968C1
:103230003A4BB1FBF3F10C2301FB03330193019BE8
:1032400053BB0020002382F85C3003B0F0BD4FF088
:103250000F0C906E05F01F070CFA07FC6FEA0C06C6
:1032600020EA0C0CBEF1000F11D1C3F38460B8400A
:1032700040EA0C009066AD08506A01358542B4D82A
:10328000A56AC3F38360B8402E403043ACE793FA9D
:10329000A3F0B0FA80F0EAE7019B013BCEE7204DB6
:1032A000AB42CED14302CCD4D1F8083323F440034F
:1032B000234343F48003C1F80833C2E7B0F1004F61
:1032C00001BFA16AC3F311008143A162002BB8DAE8
:1032D000104C0F48A342D0F8081309D1D0F8083396
:1032E00001F4800123F440031943C0F80813A8E750
:1032F0000B4CA342A5D1D0F8083301F40001F1E74B
:10330000116E184641F0200111669BE702209CE7F0
:1033100000100246002000B42C000020400D0300E5
:1033200001000080026838B504461046FFF742FDF0
:1033300008B9002038BD9368990707D4936823F033
:10334000004323F0170343F010039360FFF71AFDC7
:10335000054623689B685B07EBD5FFF713FD401B11
:103360000228F6D923689B685A07F2D5236E0120FC
:1033700043F010032366636E43F001036366D9E7ED
:10338000002373B50268019393680446DD0702D5F4
:10339000002002B070BD9168214B194209D0236E04
:1033A000012043F010032366636E43F0010363665C
:1033B000EFE7936823F0004323F0170343F0010382
:1033C0009360184BD3F8083318021CD4637E012B8A
:1033D000DED0FFF7D7FC0546134E22681368DB07E3
:1033E000D6D49368D9075FBF9368334043F0010395
:1033F0009360FFF7C7FC401B0228EED923681B68C7
:10340000DA07EAD4CBE7094B094A1B68B3FBF2F3AE
:1034100001330193019B002BD8D0019B013BF8E7BE
:103420001700008000100246E8FFFF7F2C000020FC
:10343000400D0300F8B50468054620460F461646C1
:10344000FFF7B8FC002859D195F85C30012B55D016
:10345000012385F85C30E368D8070ED4A368D90748
:1034600007D5A36823F0004323F0170343F00203BA
:10347000A360E36843F00103E3602846FFF780FFA1
:103480000446002831D1286E1D4B20F4706020F0D6
:10349000010040F480702866A86D6C660366194BC5
:1034A00029684366184B83661C230B6085F85C40D3
:1034B0004B68026D43F0100312064B604FEA86031F
:1034C00015D5426FC2B11268B2B14031C2E90317DB
:1034D000936000F0F5FC04462A68936823F00043EB
:1034E00023F0170343F0040393602046F8BD3A46E7
:1034F000403100F0F7FAEEE70124EDE70224F4E7AB
:10350000E92F0008C12F0008CF2F0008026838B546
:10351000936891680446C80701D4002038BD990714
:10352000FBD4936803F00503012B19D1936823F0B2
:10353000004323F0170343F0020393600323136057
:10354000FFF720FC054623689B68DB07E5D5FFF7FE
:1035500019FC401B0228F6D923689B68DA07F2D5CC
:10356000236E012043F010032366636E43F00103D2
:103570006366D3E770B5044600284BD0036E43F072
:1035800002030366FFF7CEFE054668B92046FFF743
:10359000BDFF054608B9012323662268936823F01E
:1035A000104323F017039360236800265A682046CF
:1035B00022F4677222F003025A6040F29F321A60CE
:1035C000D968154A0A40DA605A6922F007025A613E
:1035D0009A6A9E621A6A02F0F0221A625A6A02F02D
:1035E000F0225A62DA6A02F0F022DA625A6C22F0B1
:1035F00001025A64094AD2F8083323F47C03C2F862
:103600000833FEF755FF6666A666266684F85C609A
:10361000284670BD0125FBE700821E83001002468C
:10362000002337B5019390F85C300446012B4AD053
:10363000012380F85C30FFF769FF23689A68D2079E
:1036400007D5236E43F010032366002384F85C3013
:103650002BE0226E22F4817242F002022266596C43
:10366000DD68DA6801F0010122F00302DA605A6CC9
:1036700005F0030522F001025A649A6842F0004204
:103680009A609A68002A12DA019A01320192019A2C
:10369000B2F52E3FF5D3236E012023F0120343F041
:1036A00010032366002384F85C3003B030BDDA6871
:1036B0002A43DA605A6C0A435A64236E23F00303E8
:1036C00043F00103C0E70220EFE7704770477047FF
:1036D0007047000007490302CA6803F4E06322F45C
:1036E000E0621204120C134343F0BF6343F400334F
:1036F000CB60704700ED00E0154B30B5DC68C4F3DB
:103700000224C4F10703251D042B28BF0423062D22
:103710004FF0FF3594BF0024033C05FA03F321EA80
:103720000303A54022EA0502A340002843EA02035E
:10373000ACBF00F16040074A4FEA0313DBB2ABBFF6
:1037400000F5614000F00F0080F80033135430BDE5
:1037500000ED00E014ED00E0002807DB0123410943
:10376000034A00F01F00834042F82130704700BF39
:1037700000E100E000280CDB01220649430900F0CB
:103780001F008240203341F82320BFF34F8FBFF347
:103790006F8F704700E100E00138B0F1807F3FBFDC
:1037A0004FF0E02358610020986137BF1A6901206B
:1037B00042F003021A617047002808DB0122430926
:1037C000034900F01F008240403341F82320704736
:1037D00000E100E0042818D8DFE800F00A182617F6
:1037E00003004FF0E022136943F0040313617047B4
:1037F0004FF0E022136923F004031361114AD2F859
:10380000E03023F44003C2F8E03070474FF0E0228C
:10381000136923F0040313610A4AD2F8E03023F459
:10382000400343F48003EEE74FF0E022136923F0F6
:1038300004031361034AD2F8E03023F4400343F455
:103840000003E0E7000C0246F0B50C4622F0030549
:10385000066897080D44A54208D112F003021ED055
:10386000012A14D111F82730337018E0637894F8E6
:1038700000C01B0443EA0C6394F803C0043443EA19
:103880000C0314F802CC43EA0C233360E3E76B78B3
:10389000022A11F8272043EA0223338002D1036869
:1038A0001868F0BDAB78DFE700230068F0B5550875
:1038B0008E1C9D4206D1D30744BF31F825300380CA
:1038C0000068F0BD31F8237036F82340013344EA34
:1038D00007440460EDE7000010B5044608B9012074
:1038E00010BD437F03F0FF0213B90277FEF700FE1D
:1038F000022363772379E3B92368134A5A619A68EC
:1039000022F018029A6062792368D2B94FF0FF3230
:103910001A619A68616922F060020A439A609A68A3
:10392000A16922F080020A439A6001230020637794
:10393000D6E72046D4E9021200F064F80028E2D06D
:10394000CDE72269E4E700BFB71DC10438B50546DD
:1039500090B1437F022BDCB20CD0022300244377CA
:1039600003689A6842F001029A605C60FEF7D8FD35
:103970006C772C77204638BD0124FBE770B5022612
:103980004677066A0446022E15D0032E05D0012E76
:103990000ED000200123637770BD036801EB820520
:1039A000A94201D11868F5E751F8042B1A60F7E72E
:1039B000FFF74AFFEEE7FFF777FFEBE7F8B50226E0
:1039C000467706680446B76847F00107B760076A9C
:1039D000022F14D0032F05D0012F0DD0002001237A
:1039E0006377F8BD01EB8205A94201D13068F6E7A3
:1039F00051F8043B3360F7E7FFF726FFEFE7FFF7E7
:103A000053FFECE7CB0710B50DD51F23013B1DD3AA
:103A100021FA03F4E407F9D5102A13D0102A04D8A8
:103A20003AB1082A10D001200BE0182AFBD1062B4E
:103A3000F9D800684161836823F018031343836059
:103A4000002010BD072BF3E70F2BF1E7102AE5D17B
:103A5000E9E7F8B50446FFF795F90646002C3FD094
:103A600025686B6943F006036B6127687B6913F077
:103A700001032BD125F47F620125C7F30B013B60C5
:103A800022F00F027B6150393B647B64BB64FB64B2
:103A90003B65FB675068C1F3C41105FA01F120EAE8
:103AA000010151604FF4FE42FA60E26DC4E918333F
:103AB000C4E91A33C4E91C3302B1E3650020A065F0
:103AC000206584F8540084F84C000AE0FFF75AF9A6
:103AD000801B0528C9D91023A365032384F854301B
:103AE0000120F8BD30B5002836D090F84C40012CAC
:103AF00034D0012480F84C4090F85440012C4FF011
:103B0000000425D1022580F85450846504689BB2D6
:103B1000A56C2D0C2D041D434FF4FE43A564E360FA
:103B2000E1642265636943F4BA436361436E1BB188
:103B3000636943F400736361036F1BB1636943F40A
:103B4000005363610020636943F00103636130BD8A
:103B5000402380F84C4083650120F8E70220F6E717
:103B60000121036810B523F47F6222F00F0204469E
:103B7000D068C3F30B02503AC2F3C41201FA02F246
:103B8000024200F0AB801A69500508D55A69520507
:103B900005D54FF48062DA60A26D0A43A2651A6906
:103BA000100509D55A69110506D54FF40062DA608F
:103BB000A26D42F00202A2651A69D20409D55A69BF
:103BC000D00406D54FF48052DA60A26D42F00402B0
:103BD000A2651A69510409D55A69520406D54FF4F1
:103BE0008042DA60A26D42F00802A2651A6990056F
:103BF00009D55A69910506D54FF40072DA60636EF3
:103C00000BB12046984723681A6992042ED55A6949
:103C100090042BD54FF40052DA6094F85420042A13
:103C20001DD15A69216D22F400525A615A69090660
:103C300042F002025A614FF0010248BF616F84F8FE
:103C4000542042BF0A7300229A64002384F84C3047
:103C5000E36E002B42D02046BDE8104018470523F4
:103C600084F85430236F0BB12046984723681A69B3
:103C7000D20518D55A69D00515D5226D110626D55D
:103C8000DA6F32B99A6C22B90122616F84F854203C
:103C90000A734FF44072DA60002384F84C30236ECC
:103CA0000BB120469847A36DC3B12268536943F016
:103CB000020353610123226D84F85430120644BF7D
:103CC000626F1373002384F84C30A36EC1E79A6CC3
:103CD000002ADED1012284F85420DAE710BDD0B1E9
:103CE000CB0601D4002070470368012023F47F62D3
:103CF000C3F30B0322F00F0201F01101503B112915
:103D0000C3F3C413516800FA03F30CBF0B4321EA59
:103D100003035360E6E70120704741EA02030343CF
:103D200018B949B9002A18BF10465840B0F5803F6D
:103D300034BF0020012070470846F6E740B1037EFB
:103D400049B97AB1107E984214BF03200020704711
:103D500031B10B7EF5E7097E9942F2D0022070471F
:103D600008467047104670472DE9F043D0F808C068
:103D7000176889B300254FF6FC762B462C464FF684
:103D8000FC7EDFF88C800E404FEA870964453BD00B
:103D90009E420CD001684CBB01EA0E030134F5E7EA
:103DA000016894B901EA060301346445F8D1016859
:103DB0009460090C09040B43D36053F827300D437A
:103DC0005560D3B90020BDE8F08308EB030501EA94
:103DD0000E0169581D46E5E70D460B460C464FF6A9
:103DE000FC76DFF82CE04FEA8708DEE709EB0305F5
:103DF00001EA080169581D46CEE723F003031B04BE
:103E00001B0C0B431361DDE79E42D0D00120DAE7A3
:103E10000000FFFF38B50446FEF7B4FF0546002C4E
:103E200049D0002384F84C300223226884F85430AF
:103E3000536943F00603536123685A69D20730D4AB
:103E4000D4E90E1211431D4A934214D0803293429A
:103E500011D0803293420ED0803293420BD0803208
:103E6000934208D08032934205D08032934202D0F0
:103E70008032934201D1226C114300205A6922F40E
:103E800043020A435A61626C18645A649864D864A5
:103E90001865D867A36CA0652365012384F85430A6
:103EA0000AE0FEF76FFF401B0528C5D91023A36564
:103EB000032384F85430012038BD00BF5000024075
:103EC000034630B5002848D0416F002945D090F80E
:103ED00054001A6801285469C5B203D0022D37D1A5
:103EE000E00335D593F854000128C4B22AD193F8E1
:103EF0004C0001284FF0020029D083F8540083F8C9
:103F00004C400873002098650861506940F4BA403D
:103F10005061586E18B1506940F4007050611B6FC9
:103F20001BB1536943F4005353610B68190C23F020
:103F300003031B041B0C43F07843090443F4803350
:103F40001160D3670020536943F00103536130BD12
:103F500040229A65002283F84C200120F7E7F0B553
:103F6000002852D0002950D0C369456902681D431A
:103F7000C36B12F0200445EA0305036945EA030513
:103F8000836945EA03050D6010D0836AC66A876BB2
:103F9000013B1B053E4303F07C733343466A013EFD
:103FA000360106F47C7633432B430B604368056B84
:103FB00023F4E0739B059B0D2B43C5684B60B5F55F
:103FC000806F1CD114B143F480634B60436C4BB1E0
:103FD000046C23434C682343846C240404F4F814D5
:103FE00023434B60B0F8543042F4A0628B60C36C42
:103FF000CB60036D00200B6148618A61F0BDB5F5AF
:10400000007FE3D143F40073DFE70120F6E700000F
:10401000F0B50E461546044687B028B122B1436973
:10402000012B04D104232361012007B0F0BD0768F0
:104030003846FFF772FE08B10523F4E73846FFF76C
:104040007DFE0028EED10223237320619FB93EB983
:10405000012322600020A360012320612373E4E791
:1040600022F003052D042D0C45F0784545F48035EC
:1040700026607561EEE766B927F003073F043F0C41
:1040800047F0784747F4803757612260A3680133CF
:10409000E0E705233146204601AA0193FFF764FEBD
:1040A00098B94FF6FC70A368039F094905EA00021E
:1040B0009F4242EA010206D1636813B103400B43F9
:1040C0006B617261E2E77369FAE70623ABE700BF51
:1040D000000001F870B5044686B018B1066826B92C
:1040E00002232361012006B070BD45681DB1AE42B8
:1040F0001AD00423F5E74369012BFAD00223037396
:10410000052301AA294605610193FFF72DFE4FF60D
:10411000FC733340049A43F0784343F48033536193
:1041200001232561666023730020DCE770B169B16B
:1041300090F8543090F85420DBB2022A01D0052BBD
:1041400006D140238365002380F84C30012070475E
:104150000B7B022B02D101230B61F7E7026D4B6849
:10416000812A02D11BB90423F6E7002BFBD141675A
:1041700000207047084A10B5936A43F00103936228
:10418000EFF3108272B60023CC58C4500433102BC6
:10419000FAD182F3108810BD00200240094A10B500
:1041A000936A43F4804343F001039362EFF3108278
:1041B00072B60023CC58C4500433802BFAD182F35A
:1041C000108810BD00200240064B9A6A002ABFBF2B
:1041D000054A9A6002F188329A60BABF986AC00FA5
:1041E000002070470020024023016745044B9A6A73
:1041F00042F000429A62986AC043C00F704700BF05
:104200000020024070B50546FEF7BCFD104C461973
:10421000236A13F4403F0BD142F2FA02236A13409F
:104220000ED001200B494A681A434A60236270BDD0
:104230006A1CEDD0FEF7A6FDB042E9D30320F6E7F5
:10424000236A0020DB0744BF01232362EFE700BF9E
:104250000020024064610020F8B5154D04462B781B
:104260000E46012B174620D001232B7000234FF45C
:104270007A706B60FFF7C6FF88B9AC6024F0004429
:10428000012C394630460DD1FFF774FF4FF47A7098
:10429000FFF7B8FF074A936A23EA040393620023F7
:1042A0002B70F8BDFFF77AFFF0E70220F9E700BFB7
:1042B0006461002000200240064A936A23F481339F
:1042C00023F4FD7343EAC00343F4803343F0020355
:1042D00093627047002002402DE9F041254E0546CB
:1042E00033788846012B43D00123337000234FF4E9
:1042F0007A707360FFF786FF0446E8B92B68B360F5
:1043000023F00043042B1CD11B4A4FF47A70936AAC
:1043100043F4803343F004039362FFF773FF0446D2
:104320002B68154923F000438A6A23F47E7343F413
:104330007E7322EA03038B62002333702046BDE8BC
:10434000F0814FF0FF33C8F800306F68D5E90132D3
:104350001344BB42E4D93846FFF7AEFF4FF47A70FE
:10436000FFF750FF10B1C8F80070D8E70137EDE74C
:104370000224E3E764610020002002402DE9F74FAA
:104380004C4B4FF00F0903EA9023019300234A4C52
:104390000A6832FA03F502D103B0BDE8F08F0125B7
:1043A00005FA03F818EA020200F0828003274E683B
:1043B0004FEA430E06F0030507FA0EFC6F1E012FAD
:1043C0006FEA0C0C32D8876807EA0C0ACF6807FA44
:1043D0000EF747EA0A078760476827EA0808C6F326
:1043E00000179F4047EA08074760C768022D07EAA1
:1043F0000C088F6807FA0EF747EA0807C76017D15D
:104400004FEAD30800EB880803F0070AD8F82070B9
:104410004FEA8A0A09FA0AFB27EA0B0B0F6907FA27
:104420000AF747EA0B07C8F8207001E0032DDCD13A
:10443000076805FA0EF507EA0C073D4316F4403FFE
:10444000056035D023F0030707F18C4803F003051E
:10445000019FED0009FA05FE07FA05F5D74308F5B7
:104460000838D8F860C016F4801F2CEA0E0C45EA14
:104470000C05C8F8605025680CBF3D401543256009
:10448000656816F4001F0CBF3D4015436560D4F805
:10449000845016F4003F0CBF3D401543C4F88450CF
:1044A000D4F88050F60354BF3D401543C4F8805003
:1044B00001336DE77F7F2F00002002462DE9F04F8A
:1044C00000234FF001084FF00F0E4FF003092D4F5E
:1044D0002D4A07EA902731FA03F401D1BDE8F08FA5
:1044E00008FA03FC1CEA010649D023F0030404F196
:1044F0008C4404F5083403F00305ED00D4F860A003
:104500000EFA05FB0BEA0A0A07FA05F5554517D11D
:10451000D2F8805025EA0605C2F88050D2F88450BF
:1045200025EA0605C2F88450556825EA0605556057
:10453000156825EA06051560256E25EA0B05256632
:1045400005685C0009FA04F42543DE08056000EB09
:10455000860603F00705D6F820A0AD000EFA05F593
:104560002AEA05053562856825EA040585604568FF
:1045700025EA0C054560C56825EA0404C4600133DA
:10458000A9E700BF7F7F2F00002002460AB18161AA
:1045900070478162704770477047000038B5084D1A
:1045A0000446EB68034202D0E860FFF7F4FF2B6992
:1045B0001C4203D020462C61FFF7EEFF38BD00BF40
:1045C000002002467047000008B5054BD8681A68FD
:1045D00022EA00021A605860FFF7F4FF08BD00BF2E
:1045E000001D0C420146064A106810F0010009BF88
:1045F0001368012023F004030B4308BF13607047C6
:1046000000040340034A0020136843F001031360D1
:10461000704700BF0004034044F62062094B10B508
:104620001B680468B3FBF2F34FF47A720020534323
:104630002268013B08BF032031EA020201D0002BAF
:10464000F6D110BD2C0000207047704770477047AE
:104650007047704770477047704770477047000059
:10466000F8B50446002800F0998090F84A3003F02D
:10467000FF02002B28D14A4B80F849208365494B23
:10468000C365494B0366494B4366494B8366494BB7
:10469000C366494B0367494B4367494B8367494BA3
:1046A000C367494BC0F88430484BC0F88830484B4A
:1046B000C0F88C30474BC0F88030036D0BB9464BC7
:1046C00003652046236D984702234FF480712568C7
:1046D00084F84A302B69204643F001032B61636B59
:1046E0006960AB62FFF798FF032801D10320F8BD92
:1046F0001021236A69602046AB61FFF78DFF032814
:10470000F4D0EB6A9A0706D4EB6A9B035EBF2B6971
:1047100023F001032B616168EB680129A06A02D0D4
:10472000B0F5000F01D123F01E034FF6FF7662694A
:104730002A4FB24218BF23F46043A66818BF23F083
:10474000C0031F4041EA00033343666A33433B43DF
:10475000E9B9E169266931430B43B0F5000F18D080
:104760004FF6FF718A4204D0A1690A43E1690A4306
:104770001343EB60D4E90B3213436B620123002037
:1047800084F84B3084F84C3084F84A30AFE7012984
:10479000E3D1D4E9031001430B43E1E70120A6E78D
:1047A000511B0008B11B00084B4600084D4600088D
:1047B0004F4600085146000853460008ED1B00080C
:1047C000554600085D460008574600085B4600084D
:1047D000594600084946000841250008FEF139FF06
:1047E00039B990F84B30013B18BF012323B10120A8
:1047F000704790F84C30F6E7022380F84A30B1B9A0
:1048000080F84B300368DA6822F48012DA601A69A3
:1048100042F001021A6169B1012910D01A6942F00F
:1048200004021A61012380F84A300020704780F8A2
:104830004C30E7E7DA6A42F00202DA62EEE7DA6A5F
:1048400042F40032F9E7022380F84A30036899B154
:10485000012916D0DA6A920706D4DA6A92035EBF9B
:104860001A6922F001021A61012371B980F84B30F4
:1048700080F84A3000207047DA6A22F00202DA62D9
:10488000E8E7DA6A22F40032F9E780F84C30EFE723
:10489000022370B505460E46046880F84A30F1B12F
:1048A000012921D0E36A980706D4E36A99035EBF21
:1048B000236923F001032361236943F0010323618A
:1048C0004FF0807363609EB1012E18D04FF080715D
:1048D0002846FFF7A1FE032815D1032070BDE36A27
:1048E00023F00203E362DDE7E36A23F40033F9E730
:1048F000A36823F4CD7323F00103A360E6E7A26865
:10490000144B1340F9E74FF6FF736A699A420AD1D4
:10491000E36A9A0712D50123C6B985F84B30002007
:1049200085F84A30DAE76160A368284623F004037B
:10493000A360FFF771FE0328EAD1CEE7E36A9B0389
:104940005EBF236923F001032361E4E785F84C305F
:10495000E5E700BF6DFCF7FF70B505460E4639B9B7
:1049600090F84B30013B18BF012323B101201FE019
:1049700090F84C30F6E7022385F84A30CEB985F836
:104980004B302C68E36823F48013E360236943F021
:10499000010323614FF0807363606EB1012E12D06A
:1049A0004FF080712846FFF737FE03280FD1032010
:1049B00070BD85F84C30E4E7A36843F4CD7343F051
:1049C0000103A360ECE7A268134B1343F9E74FF62A
:1049D000FF736A699A420BD1AEB1012E18D02369D8
:1049E000002043F002032361012385F84A30DFE70A
:1049F0006160A368284643F00403A360FFF70CFE40
:104A00000328E9D1D3E7E36A43F00203E362E6E770
:104A1000E36A43F40033F9E792030800FFF738BF75
:104A20000B46022170B5054680F84A1032B1012AC2
:104A300019D00123002085F84A3013E008210468CA
:104A40005A68E66A1B6826F00D0646EA8206226965
:104A500042F00102226161606361FFF7DDFD03281E
:104A600015D1032070BD4FF4002104685A68E66A2E
:104A70001B6826F4502646EA8246226942F001026B
:104A8000226161606363FFF7C7FD0028E9D1E36A33
:104A90009A0706D4E36A9B035EBF236923F00103F0
:104AA0002361E662C5E7036810B51A680446D107BA
:104AB00010D59A68D2070DD501225A6080F83820A7
:104AC000DB6AD9074CBFD0F88430836D9847002348
:104AD00084F8383023681A68920513D59A689005CF
:104AE00010D54FF400725A60022284F83820DB6A35
:104AF0002046D9034CBFD4F88430A36D98470023D7
:104B000084F8383023681A68D2040FD59A68D00424
:104B10000CD54FF480525A600123204684F8383077
:104B2000D4F88C309847002384F8383023681A680A
:104B300091040FD59A6892040CD54FF400525A6034
:104B40000223204684F83830D4F88C30984700236C
:104B500084F8383023681A68900707D59A68910757
:104B600004D5022220465A60E36D984723681A68EC
:104B7000520707D59A68500704D5042220465A6088
:104B8000236E984723681A6811070AD59A68120796
:104B900007D508225A600123204684F83830636E16
:104BA000984723681A6810030BD59A68110308D533
:104BB0004FF400225A600223204684F83830636E96
:104BC000984723681A68D20607D59A68D00604D594
:104BD000102220465A60A36E984723681A689106EF
:104BE00007D59A68920604D5202220465A60E36EC3
:104BF000984723681A68500607D59A68510604D565
:104C0000402220465A60236F984723681A6812068C
:104C100007D59A68100604D5802220465A60636F33
:104C2000984723681A68D1050AD59A68D20507D52E
:104C30004FF4807220465A60A36FBDE810401847B9
:104C400010BD0000024A936A43F00103936270476B
:104C5000000802460D49C3B28A6910B522EA030270
:104C600042EA10228A61CA6993FAA3F1B1FA81F18A
:104C70000324490004FA01F122EA010242EA104049
:104C8000024AD06151690B43536110BD00080246CE
:104C9000704770477047704770477047704770475C
:104CA000124B10B55C6CE0079C6401D5FFF7F0FF78
:104CB000A10701D5FFF7EDFF620701D5FFF7EAFF76
:104CC000230701D5FFF7E7FFE00601D5FFF7E4FF73
:104CD000A10601D5FFF7E1FF620601D5FFF7DEFF70
:104CE000230601D5FFF7DBFF10BD00BF0008024619
:104CF0001549CB6B03F48033834201D10020704708
:104D00003222CB6823F480331843104BC8601B68F1
:104D100053430F4AB3FBF2F301331A46C868000449
:104D200004D40AB903207047013AF7E7002AF9D002
:104D3000054AD16B090403D4002BF3D0013BF8E7FB
:104D4000002BDBD1EEE700BF000802462C0000205C
:104D500040420F0010B5044640B102230371FDF735
:104D60006BFC00200123A060237110BD0120FCE733
:104D70000379012BDAB24FF0020305BF0371036818
:104D80008360196006BF027100200120704703682C
:104D9000186800F4E02070471D494B6BC3F308030B
:104DA000013300EE103A8B6AB8EEC00AC3F3022258
:104DB000013207EE902A13F0100218BF8A6BF8EE4A
:104DC000E76A18BFC2F3CC0207EE902A03F0030390
:104DD000022BB8EEE77A14D0032B15D10C4B1A68CE
:104DE0000C4BC2F30052D34007EE903AF8EEE77A4C
:104DF00087EEA66ADFED087AA7EE270A26EE000AFC
:104E00007047DFED067AF3E7DFED057AF0E700BFE4
:104E1000000C02460048E801000000390024744BF1
:104E2000000000002DE9F3470446002864D0714BD0
:104E3000DE699D6A036806F00C06DF0705F00305CE
:104E40003AD42368980700F184802368190740F159
:104E50001D81684BD3F89420520700F1B6800127DA
:104E6000D3F8942042F00402C3F89420D3F894308D
:104E700003F004030093009B5F4DAB6ADB0740F136
:104E8000A680DFF87081A369D8F8F050002B40F0BD
:104E9000BB8025F01055C8F8F050FDF773FF0546AC
:104EA000D8F8F03013F0904F00F0E880FDF76AFF7B
:104EB000401B1428F4D936E0082E436803D00C2E8A
:104EC0001CD1032D1AD1BBB1082EBAD1494AA16811
:104ED000136823F488130B4343F480331360126880
:104EE000464BC2F30052D340454A1360454B186805
:104EF000FDF7D4FE0028A4D0012015E03D4FB3B14A
:104F00003A68A16822F488120B4313433B60FDF713
:104F100039FF80463B68990393D4FDF733FFA0EB3C
:104F200008006428F6D9032002B0BDE8F0873B688A
:104F300023F488133B60FDF725FF80463B689A0306
:104F40007FF57FAFFDF71EFFA0EB08006428F5D9C1
:104F5000E9E723691EB10C2E0CD1022D0AD1002BDA
:104F6000CAD0244A6169136923F4F81343EA014360
:104F700013616AE71F4DBBB12B6843F480732B604C
:104F8000FDF700FF07462B685B0507D52B696269B3
:104F900023F4F81343EA02432B6156E7FDF7F2FED0
:104FA000C01B0228EFD9BEE72B6823F480732B6067
:104FB000FDF7E8FE07462B6858057FF546AFFDF77D
:104FC000E1FEC01B0228F6D9ADE7002754E7AB6A23
:104FD00043F00103AB62FDF7D5FE8046AB6AD8070C
:104FE0003FF54FAFFDF7CEFEA0EB08000228F5D944
:104FF00099E700BF000C0246000802460048E8019D
:105000002C00002034000020590115D5E26905F07C
:1050100080539A420CD02A010AD525F08065C8F841
:10502000F050FDF7AFFE8146D8F8F0301B0172D486
:10503000E36925F080551D43A369DFF894921D4371
:10504000C9F8F050FDF79EFE8246A369D9F8F0201A
:105050004FEA430812EA430264D083F01053DB4363
:105060002B40C9F8F030FDF78DFE8146984D88F051
:105070009048D5F8F03018EA030F5AD137B1944A66
:10508000D2F8943023F00403C2F8943023685D070B
:1050900040F18D808E4BD3F89420500750D44FF0C0
:1050A0000108D3F8942042F00402C3F89420D3F806
:1050B000943003F004030193019B864DAB6AD9073A
:1050C00041D5E368824D002B4DD1D5F8F03041F247
:1050D000883923F08103C5F8F030D5F8F03023F09B
:1050E0000403C5F8F030FDF74DFE0746D5F8F03063
:1050F0009B0777D4D5F8F03018064ED541F28839A1
:10510000734DD5F8F030190547D5FDF73BFEC01BB0
:105110004845F6D907E7FDF735FEA0EB090014284E
:1051200082D900E7FDF72EFEA0EB0A0014288CD9E7
:10513000F9E6FDF727FEA0EB0900142899D9F2E65D
:105140004FF00008B9E7AB6A43F00103AB62FDF72B
:1051500019FE0746AB6ADA07B3D4FDF713FEC01B8E
:105160000228F7D9DFE6D5F8F02041F2883922F09D
:1051700080021343C5F8F030FDF704FE0746D5F86A
:10518000F0309B0717D5E36841F288391806504D77
:1051900023D5D5F8F030190513D5B8F1000F06D096
:1051A0004B4AD2F8943023F00403C2F89430236AB7
:1051B000FBB90020B8E6FDF7E5FDC01B4845DED988
:1051C000B1E6FDF7DFFDC01B4845E2D9ABE6FDF7D0
:1051D000D9FDC01B48453FF6A6AED5F8F0301A05FC
:1051E000F5D4DAE7FDF7CEFDC01B48457FF67EAF6C
:1051F00099E60C2E76D0364D022B2B6823F0807367
:105200002B6052D1FDF7BEFD80462E68FDF7BAFD3A
:10521000A0EB080002283FF686AE16F00077F4D126
:10522000606AA16A032809BF2B4B2C4BC6F30056BA
:10523000F340B3FBF1F32A4A0139934288BF0C27AC
:10524000234A936A23F4E36323F007033B430343B6
:1052500043EA012343F480239362236B591E636B5B
:10526000013B1B0443EA4123E16A01390B43A16B73
:10527000013943EA01635363E36B2BB1DB009363B2
:10528000936A43F0100393621368114D43F08073E7
:105290001360FDF777FD04462B689A0189D4FDF76A
:1052A00071FD001B0228F7D93DE6FDF76BFD0446B2
:1052B0002B689B0106D4AB6A23F4E02323F003039D
:1052C000AB6276E7FDF75EFD001B0228F0D92AE607
:1052D000000C0246000802460048E8010024F400E1
:1052E00000127A00012B3FF407AE2349606A8A6AF4
:1052F0004B6B02F0030585427FF4FEADA06AC2F35A
:105300000222013882427FF4F7ADE26AC3F308005B
:10531000013A90427FF4F0AD226BC3F34620013A8C
:1053200090427FF4E9AD626BC3F30640013A9042CC
:105330007FF4E2ADA26BC3F30663013A93427FF4BC
:10534000DBAD8B6BE26BC3F3CC039A423FF431AF1E
:105350008B6A0D4623F010038B62FDF713FD0646A2
:10536000FDF710FDB042FBD0E36BDB00AB63AB6A33
:1053700043F01003A4E700BF000C0246074B10B532
:105380005C6BFFF709FDFCEEC07A17EE900AC4F3E0
:1053900006640134B0FBF4F010BD00BF000C0246FF
:1053A000084AD36913F00C0309D0082B05D1136800
:1053B0000548C3F30053D8407047FFF7DFBF0348E9
:1053C000704700BF000C02460048E8010024F400CA
:1053D0002DE9F0410D46044610B90120BDE8F081E9
:1053E000574A136803F00F038B421BD321688F06C3
:1053F00023D4CE072DD42268524B12F002011B6A2F
:105400006ED1560741BFE16823F070030B430121C1
:1054100010076BD5216923F4E06343EA011349497E
:105420000B6265E0136823F00F030B4313601368EE
:1054300003F00F038B42D0D1D8E74248D4E90636B7
:10544000D0F80022334322F017021343C0F8003291
:10545000CFE761683B4A0329136831D19801BCD575
:10546000D36903F00C030C2B05D0936A23F440138B
:1054700043F480139362334E41F28838F36923F08A
:1054800003030B43F361FDF77DFC0746F369626894
:1054900003F00C03B3EB820F1BD1032AABD1B36A29
:1054A000284F23F48013B362FDF76CFC0646BB6AF9
:1054B0005B02A0D4FDF766FC801B0A28F7D90DE03B
:1054C000022903D113F4003FD5D186E713F4806F8E
:1054D000FAE7FDF757FCC01B4045D7D903207DE70D
:1054E000A16823F007030B4301218AE7002996D125
:1054F000D30642BF6269134B5A62114A136803F024
:105500000F03AB4210D8FFF74BFFBDE8F0410D4B46
:105510000D4A1B6A03F00703D35CD8400B4B18609D
:105520000B4B1868FDF7BABB136823F00F032B432E
:105530001360136803F00F03AB427FF44EAFE2E752
:1055400000200240000C0246EADE02082C00002087
:105550003400002008B5FFF723FF054B054A1B6AFE
:1055600003F00703D35CD840034B186008BD00BFAD
:10557000000C0246EADE02082C00002008B5FFF706
:10558000E9FF044B044A1B6AC3F30213D35CD840FF
:1055900008BD00BF000C0246E2DE020808B5FFF7B6
:1055A000D9FF044B044A1B6AC3F30223D35CD840DF
:1055B00008BD00BF000C0246E2DE020808B5FFF796
:1055C000C9FF044B044A5B6AC3F30213D35CD8409F
:1055D00008BD00BF000C0246E2DE020803682DE9A8
:1055E000F743DE07044608D5A6494068D1F8E02015
:1055F00022F003020243C1F8E0209D0708D5A1492B
:10560000A068D1F8E02022F00C020243C1F8E020AB
:10561000580708D59B49E068D1F8E02022F44062A1
:105620000243C1F8E020190708D596492069D1F84E
:10563000E02022F440220243C1F8E020DA0608D537
:1056400090496069D1F8E02022F440120243C1F889
:10565000E0209F0608D58B49A069D1F8E02022F40C
:1056600040020243C1F8E0205E0608D58549E069A2
:10567000D1F8E02022F000420243C1F8E0201D06EC
:105680000FD5804A206AD2F8E41021F0E0010143EE
:10569000C2F8E410002840F0CA80916A41F48031D9
:1056A0009162D80510D57749606AD1F8E420B0F549
:1056B000405F22F4405242EA0002C1F8E42002BFF7
:1056C0008A6A42F400328A6299020FD56D4AA06A52
:1056D000D2F8E41021F080410143C2F8E410002820
:1056E00040F0AC80916A41F4803191629A0508D50E
:1056F0006449E06AD1F8E82022F003020243C1F8CD
:10570000E8205F0508D55F49206BD1F8E82022F03A
:1057100018020243C1F8E8201E0508D55949606BFC
:10572000D1F8E82022F0C0020243C1F8E820DD04ED
:1057300008D55449A06BD1F8E82022F44062024316
:10574000C1F8E820980410D54E49E06BD1F8E82064
:10575000B0F5005F22F4E04242EA0002C1F8E8201E
:1057600002BF8A6A42F480328A6259044AD5454BA4
:10577000226CD3F8F05005F44075AA4242D0D3F819
:105780009420520762D40127D3F8942042F00402F7
:10579000C3F89420D3F8943003F004030193019BE1
:1057A000394EB36A43F00103B362FDF7EBFA80466A
:1057B000B36ADB074CD5334AD2F8F03023F440719A
:1057C0007DB1D2F8F850D2F8F00040F48030C2F841
:1057D000F000D2F8F00020F48030C2F8F000C2F8F7
:1057E000F850226C294DDFF89C800A431D40C8F810
:1057F000F02037D137B1234AD2F8943023F0040394
:10580000C2F89430206810F4004028D01D4A616C22
:10581000D2F8F03023F440230B43C2F8F030D2F832
:10582000F00000F44020401A18BF012017E02028A3
:105830007FF437AF916A41F4003131E7B0F1804F26
:105840007FF454AF916A41F400314EE70027A7E797
:10585000FDF798FAA0EB08000228A9D9032003B0AD
:10586000BDE8F083FDF78EFA41F2883906466D00F7
:10587000D8F8F0302B42BDD1FDF784FA801B4845A3
:10588000F6D9EBE7000C02460008024601000024AE
:10589000044AD2F8103223F47C1343EA0043C2F8DE
:1058A00010327047000C0246034AD2F8083243F027
:1058B0000203C2F808327047000C0246034AD2F8CD
:1058C000083223F00203C2F808327047000C024687
:1058D00038B50446002836D0437A03F0FF0213B9E6
:1058E0000272FCF7BBFE02236372236861681A68C8
:1058F00022F004021A60204A0A431A604AF6C722BC
:105900001A611A6822F080421A60FDF73BFA0546D8
:1059100023681A68500009D41A6842F004021A6019
:105920005B68590611D5042363720CE0FDF72AFA6F
:10593000401B0A28ECD923681B685B00E8D50123CB
:1059400063720223E360012038BDFDF71BFA0546B0
:1059500023685B68DB0704D5012300206372E060E5
:10596000F2E7FDF70FFA401B0A28F1D923685B68BC
:10597000DA07EDD40423E3E7002DF04090F82C3053
:105980000246012B4FF0020016D0012382F82C3082
:105990000E4B82F82D00B1F5807F99690DD121F46D
:1059A00088519961596C21F000415964012300200C
:1059B00082F82D3082F82C00704721F4085199614B
:1059C000D96C21F00041D964F0E700BF00780046AF
:1059D00070B50D4C0646E36823F02003E360FDF745
:1059E000D1F90546E3689B0608D4FDF7CBF9401BC7
:1059F000B0F57A7FF6D9E3689A0601D5002070BD2C
:105A0000032086F82D00FAE700780046F8B5124D1D
:105A10000646EC6814F0400402D000231846F8BD96
:105A2000EB6843F08003EB60FDF7ACF923460746D3
:105A3000EC6814F04004F1D1032BEFD0FDF7A2F98C
:105A4000C01BB0F57A7F2346F2D9EB685B06E4D43D
:105A5000032386F82D30EBE70078004638B50F4C6D
:105A60000546E36823F08003E360A3699B0606D440
:105A7000FFF7AEFF10B1032085F82D0038BDA369F4
:105A800023F02003A361FFF7A3FF10B1032085F8E3
:105A90002D00A36943F02003A361EFE700780046DF
:105AA00038B5044600284BD090F82D3003F0FF02A3
:105AB0001BB980F82C20FCF7FDFD0223214D84F852
:105AC0002D30EB68DB0636D4CA236B6253232046A5
:105AD0006B62FFF79BFF10B1FF236B6238BDAB69B0
