:020000040800F2
:100000000000022049AC0008092700080B2700085F
:100010000D2700080F27000811270008252B0008CE
:10002000000000000000000000000000132700088E
:1000300015270008000000001727000819270008EE
:10004000252B0008252B00081D270008252B00085C
:10005000252B0008252B0008252B0008252B000840
:10006000252B0008252B0008252B0008252B000830
:10007000252B0008252B0008252B0008252B000820
:10008000252B0008252B0008252B0008252B000810
:10009000252B0008252B0008252B0008252B000800
:1000A000252B0008252B0008FD270008252B00081C
:1000B000252B000839280008252B0008252B0008CF
:1000C000252B0008252B0008252B0008252B0008D0
:1000D000252B0008252B0008252B0008252B0008C0
:1000E000252B0008252B0008252B0008252B0008B0
:1000F000252B0008252B0008252B0008252B0008A0
:10010000252B0008D1280008252B0008252B0008E6
:10011000DD280008252B0008252B0008252B0008CA
:10012000252B0008252B0008252B0008252B00086F
:10013000252B000841290008252B0008252B000845
:10014000252B00080D29000819290008252B000877
:10015000252B0008252B0008252B0008252B00083F
:1001600010B5054C237833B9044B13B10448AFF3F1
:1001700000800123237010BD500600200000000005
:100180005CC3020808B5034B1BB103490348AFF336
:10019000008008BD00000000540600205CC3020877
:1001A00070B4840746D04C1E002941D0D5B2034616
:1001B00002E0611EE4B30C4603F8015B9907F8D135
:1001C000032C2ED9D5B245EA05250F2C45EA054565
:1001D00019D9264603F11001103E0F2E41F8105C8C
:1001E00041F80C5C41F8085C41F8045C01F1100135
:1001F000F2D8A4F1100121F00F0104F00F04103126
:10020000032C0B440DD91E4621460439032946F818
:10021000045BFAD8211F21F0030104310B4404F0E0
:1002200003042CB1D2B21C4403F8012BA342FBD12E
:1002300070BC70470C460346C2E7034613F8012B17
:10024000002AFBD1181A01387047000081F00041E4
:1002500002E000BF83F0004330B54FEA41044FEAAB
:10026000430594EA050F08BF90EA020F1FBF54EA46
:10027000000C55EA020C7FEA645C7FEA655C00F0E2
:10028000E2804FEA5454D4EB5555B8BF6D420CDDB3
:100290002C4480EA020281EA030382EA000083EA36
:1002A000010180EA020281EA0303362D88BF30BDD6
:1002B00011F0004F4FEA01314FF4801C4CEA11312C
:1002C00002D0404261EB410113F0004F4FEA03338B
:1002D0004CEA133302D0524263EB430394EA050F16
:1002E00000F0A780A4F10104D5F1200E0DDB02FA85
:1002F0000EFC22FA05F2801841F1000103FA0EF219
:10030000801843FA05F359410EE0A5F120050EF1DE
:10031000200E012A03FA0EFC28BF4CF0020C43FA0F
:1003200005F3C01851EBE37101F0004507D54FF01C
:10033000000EDCF1000C7EEB00006EEB0101B1F56C
:10034000801F1BD3B1F5001F0CD349085FEA3000B2
:100350004FEA3C0C04F101044FEA445212F5800FBD
:1003600080F09A80BCF1004F08BF5FEA500C50F15A
:10037000000041EB045141EA050130BD5FEA4C0C3D
:10038000404141EB0101013C28BFB1F5801FE9D29A
:1003900091F0000F04BF01460020B1FA81F308BFBD
:1003A0002033A3F10B03B3F120020CDA0C3208DD89
:1003B00002F1140CC2F10C0201FA0CF021FA02F164
:1003C0000CE002F11402D8BFC2F1200C01FA02F1D4
:1003D00020FA0CFCDCBF41EA0C019040E41AA2BFF9
:1003E00001EB0451294330BD6FEA04041F3C1CDAC1
:1003F0000C340EDC04F11404C4F1200220FA04F0E1
:1004000001FA02F340EA030021FA04F345EA03018A
:1004100030BDC4F10C04C4F1200220FA02F001FA4C
:1004200004F340EA0300294630BD21FA04F02946CE
:1004300030BD94F0000F83F4801306BF81F4801167
:100440000134013D4EE77FEA645C18BF7FEA655CDA
:1004500029D094EA050F08BF90EA020F05D054EAAC
:10046000000C04BF1946104630BD91EA030F1EBFB1
:100470000021002030BD5FEA545C05D140004941B5
:1004800028BF41F0004130BD14F580043CBF01F5A8
:10049000801130BD01F0004545F0FE4141F470018E
:1004A0004FF0000030BD7FEA645C1ABF1946104669
:1004B0007FEA655C1CBF0B46024650EA013406BF6A
:1004C00052EA033591EA030F41F4002130BD00BF29
:1004D00090F0000F04BF0021704730B54FF48064E6
:1004E00004F132044FF000054FF0000150E700BF67
:1004F00090F0000F04BF0021704730B54FF48064C6
:1005000004F1320410F0004548BF40424FF00001B2
:100510003EE700BF42004FEAE2014FEA31014FEAF5
:1005200002701FBF12F07F4393F07F4F81F0605144
:10053000704732F07F4208BF704793F07F4F04BF8F
:1005400041F40021704730B54FF4607401F000456C
:1005500021F000411CE700BF50EA010208BF7047CC
:1005600030B54FF000050AE050EA010208BF7047BD
:1005700030B511F0004502D5404261EB41014FF426
:10058000806404F132045FEA915C3FF4D8AE4FF02E
:1005900003025FEADC0C18BF03325FEADC0C18BF11
:1005A000033202EBDC02C2F1200300FA03FC20FA62
:1005B00002F001FA03FE40EA0E0021FA02F11444AF
:1005C000BDE600BF70B54FF0FF0C4CF4E06C1CEAC8
:1005D00011541DBF1CEA135594EA0C0F95EA0C0F39
:1005E00000F0DEF82C4481EA030621EA4C5123EAAC
:1005F0004C5350EA013518BF52EA033541F48011DB
:1006000043F4801338D0A0FB02CE4FF00005E1FB8D
:1006100002E506F00042E0FB03E54FF00006E1FBD7
:1006200003569CF0000F18BF4EF0010EA4F1FF041A
:10063000B6F5007F64F5407404D25FEA4E0E6D415A
:1006400046EB060642EAC62141EA55514FEAC5206B
:1006500040EA5E504FEACE2EB4F1FD0C88BFBCF5E7
:10066000E06F1ED8BEF1004F08BF5FEA500E50F198
:10067000000041EB045170BD06F0004646EA01015E
:1006800040EA020081EA0301B4EB5C04C2BFD4EB90
:100690000C0541EA045170BD41F480114FF0000E89
:1006A000013C00F3AB8014F1360FDEBF002001F0F7
:1006B000004170BDC4F10004203C35DA0C341BDC71
:1006C00004F11404C4F1200500FA05F320FA04F043
:1006D00001FA05F240EA020001F0004221F0004177
:1006E00010EBD37021FA04F642EB06015EEA430EEA
:1006F00008BF20EAD37070BDC4F10C04C4F120051A
:1007000000FA04F320FA05F001FA04F240EA0200CC
:1007100001F0004110EBD37041F100015EEA430E9D
:1007200008BF20EAD37070BDC4F1200500FA05F2BD
:100730004EEA020E20FA04F301FA05F243EA02033C
:1007400021FA04F001F0004121FA04F220EA02004B
:1007500000EBD3705EEA430E08BF20EAD37070BD91
:1007600094F0000F0FD101F00046400041EB010171
:1007700011F4801F08BF013CF7D041EA060195F053
:10078000000F18BF704703F00046520043EB03030D
:1007900013F4801F08BF013DF7D043EA06037047FA
:1007A00094EA0C0F0CEA135518BF95EA0C0F0CD005
:1007B00050EA410618BF52EA4306D1D181EA03014B
:1007C00001F000414FF0000070BD50EA410606BF45
:1007D0001046194652EA430619D094EA0C0F02D18A
:1007E00050EA013613D195EA0C0F05D152EA0336CF
:1007F0001CBF104619460AD181EA030101F00041ED
:1008000041F0FE4141F470014FF0000070BD41F035
:10081000FE4141F4780170BD70B54FF0FF0C4CF40F
:10082000E06C1CEA11541DBF1CEA135594EA0C0F2E
:1008300095EA0C0F00F0A7F8A4EB050481EA030E7B
:1008400052EA03354FEA013100F088804FEA033362
:100850004FF0805545EA131343EA12634FEA022230
:1008600045EA111545EA10654FEA00260EF00041F1
:100870009D4208BF964244F1FD0404F5407402D243
:100880005B084FEA3202B61A65EB03055B084FEAD4
:1008900032024FF480104FF4002CB6EB020E75EBD1
:1008A000030E22BFB61A754640EA0C005B084FEAF9
:1008B0003202B6EB020E75EB030E22BFB61A754676
:1008C00040EA5C005B084FEA3202B6EB020E75EBC1
:1008D000030E22BFB61A754640EA9C005B084FEA39
:1008E0003202B6EB020E75EB030E22BFB61A754646
:1008F00040EADC0055EA060E18D04FEA051545EA35
:1009000016754FEA06164FEAC30343EA52734FEADD
:10091000C2025FEA1C1CC0D111F4801F0BD141EA56
:1009200000014FF000004FF0004CB6E711F4801FBB
:1009300004BF01430020B4F1FD0C88BFBCF5E06F9B
:100940003FF6AFAEB5EB030C04BFB6EB020C5FEAAB
:10095000500C50F1000041EB045170BD0EF0004E00
:100960004EEA113114EB5C04C2BFD4EB0C0541EA32
:10097000045170BD41F480114FF0000E013C90E62F
:1009800045EA060E8DE60CEA135594EA0C0F08BFF3
:1009900095EA0C0F3FF43BAF94EA0C0F0AD150EAF2
:1009A00001347FF434AF95EA0C0F7FF425AF104685
:1009B00019462CE795EA0C0F06D152EA03353FF4AD
:1009C000FDAE1046194622E750EA410618BF52EA2A
:1009D00043067FF4C5AE50EA41047FF40DAF52EAFE
:1009E00043057FF4EBAE12E74FF0FF3C06E000BF9B
:1009F0004FF0010C02E000BF4FF0010C4DF804CDA8
:100A00004FEA410C7FEA6C5C4FEA430C18BF7FEA67
:100A10006C5C1BD001B050EA410C0CBF52EA430C95
:100A200091EA030F02BF90EA020F0020704710F115
:100A3000000F91EA030F58BF994208BF90422CBFA4
:100A4000D8176FEAE37040F0010070474FEA410C9D
:100A50007FEA6C5C02D150EA013C07D14FEA430CBB
:100A60007FEA6C5CD6D152EA033CD3D05DF8040B2C
:100A7000704700BF8446104662468C46194663465E
:100A800000E000BF01B5FFF7B7FF002848BF10F135
:100A9000000F01BD4DF808EDFFF7F4FF0CBF01207A
:100AA00000205DF808FB00BF4DF808EDFFF7EAFFF6
:100AB00034BF012000205DF808FB00BF4DF808EDB1
:100AC000FFF7E0FF94BF012000205DF808FB00BFA6
:100AD0004DF808EDFFF7CEFF94BF012000205DF830
:100AE00008FB00BF4DF808EDFFF7C4FF34BF01203D
:100AF00000205DF808FB00BF4FEA410C7FEA6C5C08
:100B000002D150EA013C0AD14FEA430C7FEA6C5C07
:100B100002D152EA033C02D14FF0000070474FF07F
:100B2000010070474FEA410212F5001215D211D5AB
:100B30006FF47873B3EB625212D94FEAC12343F0DA
:100B4000004343EA505311F0004F23FA02F018BF5C
:100B5000404270474FF00000704750EA013005D125
:100B600011F0004008BF6FF0004070474FF00000E8
:100B7000704700BF53B94AB9002908BF00281CBFFD
:100B80004FF0FF314FF0FF3000F07EB9ADF1080CAF
:100B90006DE904CE00F006F8DDF804E0DDE902239B
:100BA00004B070472DE9F04F099D0C46002B4DD144
:100BB0008A420F4684469646B2FA82F360D94BB118
:100BC00002FA03FEC3F120029F4000FA03FC20FA60
:100BD00002F217434FEA1E461FFA8EF44FEA1C42F8
:100BE000B7FBF6F106FB117701FB04F042EA07427E
:100BF000904208D91EEB020201F1FF3702D2904267
:100C000000F22D813946121A1FFA8CFCB2FBF6F065
:100C100006FB102200FB04F44CEA024C644508D9A0
:100C20001EEB0C0C00F1FF3202D2644500F21A8177
:100C3000104640EA0140ACEB040C002125B12CFA2F
:100C400003F30022C5E90032BDE8F08F8B4205D9DD
:100C50000DB1C5E9000100210846F5E7B3FA83F1BB
:100C600000294DD1A342C0F0F280904280F0EF8085
:100C7000064623460846002DE6D0C5E90063E3E7B3
:100C8000002B40F0A2808A1A4FEA1E471FFA8EF608
:100C90000121B2FBF7F407FB14204FEA1C4242EAA1
:100CA000004206FB04F090420FD91EEB020204F151
:100CB000FF382CBF4FF001094FF00009904203D9D3
:100CC000B9F1000F00F0C8804446121A1FFA8CFCDC
:100CD000B2FBF7F007FB102200FB06F64CEA024CD1
:100CE000664508D91EEB0C0C00F1FF3202D26645B6
:100CF00000F2BB801046ACEB060C40EA04409DE7D6
:100D0000C1F120068B4004FA01FE22FA06F720FA10
:100D100006FCF4408A401F434EEA0C0300FA01FE31
:100D20004FEA17484FEA13491FFA87FCB4FBF8F063
:100D300008FB104449EA044400FB0CF9A1450ED914
:100D40003C1900F1FF3A2CBF4FF0010B4FF0000BA4
:100D5000A14503D9BBF1000F00F093805046A4EBEE
:100D600009041FFA83F9B4FBF8F308FB134403FBEF
:100D70000CFC49EA0444A44506D93C1903F1FF38A8
:100D800001D2A4457AD8434643EA0040A4EB0C04C0
:100D9000A0FB02984445CC46434602D306D1CE453B
:100DA00004D20138B9EB020C68EB07035DB1BEEB6E
:100DB0000C0264EB030404FA06F622FA01F3CC40B9
:100DC0001E43C5E9006400213EE702FA03FEC3F1B9
:100DD000200104FA03F200FA03FCCC404FEA1E475C
:100DE00020FA01F11FFA8EF6B4FBF7F00A4307FB75
:100DF0001044110C41EA044100FB06F48C420ED968
:100E00001EEB010100F1FF382CBF4FF001094FF03C
:100E100000098C4202D9B9F1000F2CD04046091BC1
:100E200092B2B1FBF7F407FB141142EA014204FB52
:100E300006F1914207D91EEB020204F1FF3801D2FC
:100E4000914215D84446521A44EA004121E7861AD5
:100E500064EB030301200EE7023C724435E70239DC
:100E60007244D0E6F4440238E3E6F444023842E740
:100E7000023C7244E7E702387144D0E7023B3C444D
:100E800082E702383C446AE7704700BF70B540F61D
:100E9000FC7404EA8104002843D1274B1A888A4253
:100EA00049D0198044F4104400228021234803F0E3
:100EB000F3F901228021214803F0EEF901224FF4D9
:100EC00080711E4803F0E8F900224FF480711B483E
:100ED00003F0E2F900228021184803F0DDF90F2524
:100EE000174E44FA05F212F0010218BF01224FF426
:100EF0008051304603F0D0F901224FF480710F4841
:100F000003F0CAF900224FF480710C4803F0C4F9D1
:100F1000013DE6D20122BDE870408021074803F080
:100F2000BBB9012807D1074B1A888A4203D0198020
:100F300044F42044B8E770BD6E0600200000024271
:100F4000000402426C06002008F0E4BE800008F0B5
:100F50008BBE890008F000BF07B5002001A90190F1
:100F600009F00EFA28B10C2004F0DAFA03B05DF8AB
:100F700004FB019B987BF7E770B5414C88B00020DB
:100F800006F0C4FED4F8F430002543F40003C4F89E
:100F9000F43009F0A5FF3B4803F0D2FC032609F02A
:100FA0005FFC4FF46043CDE90555CDE90336079565
:100FB000D4F88C3003A943F00103C4F88C30D4F882
:100FC0008C30314803F001030193019B03F05CF87E
:100FD0001823CDE904650393D4F88C3003A943F0BA
:100FE0000203C4F88C30D4F88C30284803F0020394
:100FF0000293029B03F048F8254808F0DDFB20200F
:101000002946244A09F05CFF4FF6FD71224BB3F8E4
:10101000A020531E9BB28B429BBF43F6FE7000EB99
:10102000D2001E48400308F041F9002140201C4A2C
:1010300009F046FF002110201A4A09F041FF06F08E
:10104000E3FB07F08DF8184A0021012009F038FF72
:101050000121084607F07AFA0021022007F076FA0B
:101060000021084607F072FA05F022FD0121022056
:1010700007F06CFA002006F04AFE002008B070BDB0
:10108000000C024640000030000002420004024210
:1010900000000020F19B00080007F90B00C00F08BA
:1010A000AD870008B1790008DD8100084FF0FF30FE
:1010B00009F070BE7047704770470021102009F09A
:1010C00027BE0021012009F023BE0000034B03606E
:1010D000034B4360034B8360704700BF530F00080E
:1010E0004D0F0008490F00080021202009F010BE14
:1010F0000021402009F00CBE38B5134B04461B7884
:1011000013B9124B1B786BB1A2070BD0104D2846B8
:10111000696303F01BF9014620B90E4B28461C7089
:1011200003F090FA0C4B1B786BB163070BD50122CF
:101130000A4B0B4820211A7003F0AEF8BDE8384086
:10114000084804F095BD38BD2B0000202A0000207F
:10115000AC5F0020281600206A160020E75D002002
:1011600000000242805E0020134B93ED007A134B87
:10117000D3ED006AF8EEE66AC6EE877AFCEEE77A0F
:101180000F4BC3ED007A0F4BD3ED006AF8EEE66A21
:10119000C6EE877AFCEEE77A0B4BC3ED007A0B4B79
:1011A000D3ED006AF8EEE66AC6EE877AFCEEE77ADF
:1011B000074BC3ED007A7047441600205C160020F0
:1011C00050160020581600204C16002054160020FF
:1011D0004816002010B598B04022002108A828F039
:1011E000E3FE20220021684628F0DEFE002003F006
:1011F000D5FB044608B172B6FEE703F099FB194A25
:101200004FF48011D2F8F0304FF4807023F01803BF
:1012100043F00803C2F8F03007224FF48033CDE9E1
:1012200008238123CDE90A131023CDE90C0308A874
:10123000109403F04DFC014608B172B6FEE73F235F
:10124000CDE900300423CDE90400CDE90230CDE939
:101250000600684603F012FF08B172B6FEE718B048
:1012600010BD00BF000C024600B593B04022002123
:1012700001A828F099FE4FF4004300934FF4802317
:101280006846119304F000F808B172B6FEE713B097
:101290005DF804FB10B588B01C22002101A828F0DD
:1012A00083FE164C164B4FF0804223607F23A360D1
:1012B0000023C4E90433C4E90723A3614FF4807316
:1012C0002046636204F038FA08B172B6FEE7CDE951
:1012D00004000190069001A9204604F0ABFB0346F0
:1012E00008B172B6FEE701460422204604F026FB50
:1012F00008B172B6FEE708B010BD00BFCC5E00209A
:1013000000780046BB4ADFEDBC6A118AB2F8423071
:101310002DE9F04F5B1A07EE903AF8EEE77A138A60
:1013200086EEA77A9BB207EE903AF3EE0E6AF8EEDD
:10133000677AE7EE676ADFEDB17AB14B27EE277A7D
:10134000C3ED006AF0EE086AC7EE267A0025012692
:101350004FF48057AB4B99B0AB4CC3ED007A01F022
:101360002FFCFFF7F9FDFFF735FFFFF77DFF142294
:1013700000210BA828F018FED4F88C30002243F08E
:101380000203C4F88C30D4F88C304FF4985103F039
:1013900002030193019BD4F88C309C4843F0010375
:1013A000C4F88C30D4F88C304FF4004803F00103BB
:1013B0000293029BD4F88C304FF0040A43F00403EC
:1013C000C4F88C30D4F88C304FF4B86B03F00403BD
:1013D0000393039B02F060FF00224FF4F0718C48EE
:1013E00002F05AFF89480BA9CDE90B76CDE90D55DE
:1013F00002F04AFE4FF4F07385480BA9CDE90B3695
:10140000CDE90D5502F040FE4FF4407E11237F4898
:101410000BA9CDE90BE3CDE90D5502F035FE4FF4F4
:1014200088137A480BA9CDE90B830D9502F02CFEA9
:1014300006F06EFC2A4629461A2002F02DF81A20E2
:1014400002F05AF8D4F888302A463343C4F888307A
:10145000D4F88830294633401D200093009B02F0C9
:101460001BF81D2002F048F86A4C6B4B4FF0030943
:10147000C4E900354FF40013C4E9043A4FF4806323
:10148000C4E90BB307232046CDE90B55C4E9025547
:10149000C4E90E790D95E561258384F82050C4F8E0
:1014A000249084F8286084F834606565236484F8A7
:1014B000445001F0D7FB08B172B6FEE7574B0D90D0
:1014C000CDE90B300BA9204601F0C0FD08B172B682
:1014D000FEE7534B2046CDE90B3A524B0BA90D9337
:1014E00001F0B4FD08B172B6FEE74FF0080A4E4BAA
:1014F00020460BA9CDE90B3A01F0A8FD08B172B660
:10150000FEE74FF4E133494DDFF844C1C5E902007D
:10151000C5E900C33023AB624FF40053C5E9040AA8
:10152000C5E90608C5E908002846EF632B6405F005
:10153000F4F8014608B172B6FEE7284605F064F9F2
:10154000014608B172B6FEE7284605F07DF908B1FC
:1015500072B6FEE7284605F037F9034608B172B6C1
:10156000FEE73348334AC0E90533026041F6B7521B
:101570008680C0E9022AC0F8209002F07DF808B108
:1015800072B6FEE72C482D4B036003F039FA08B120
:1015900072B6FEE700232A482A49C0E9001303F087
:1015A000DFFF054608B172B6FEE7FFF773FE284677
:1015B00002F08EFE08B172B6FEE702F099FE08B1A5
:1015C00072B6FEE7204D214B4FF6FF77C5E900309C
:1015D00040F6EC13CDE90B00C5E90830C5E90A0077
:1015E000C5E90C00A86028466F6102F0AFFE88B321
:1015F00072B6FEE70007F90B0000C84233333340F0
:101600006016002064160020000C0246000402420E
:10161000000002420C61002000100246000200247B
:101620008000001C04FFFF03002000B4EC5D0020DC
:101630003C60002000300240105F0020006002404B
:10164000FC5E002000080C421C5F0020009400405B
:101650000044004040F2F6430122CDE90B300BA9D3
:10166000284603F053F8064608B172B6FEE728464E
:1016700000F028FF7B4D7C4B2846C5E900364FF42F
:101680006063AB6042F21073CDE90B66C5E90836C2
:10169000C5E90A66C5E90C666F6102F057FE0246AD
:1016A00008B172B6FEE74FF47A630BA9CDE90B30AF
:1016B000284603F02BF8064608B172B6FEE701464D
:1016C0001C2204A828F070FC342231460BA828F014
:1016D0006BFC0F23654D664A2846C5E900234FF48D
:1016E0007A73C5E903368023AE606E61AB6104F0A6
:1016F00021FC08B172B6FEE7284604F04BFC08B1A5
:1017000072B6FEE70821284604F074FC08B172B6F0
:10171000FEE700223023554804A9CDE90432CDE983
:101720000622CDE908220A9204F0CAFC08B172B67A
:10173000FEE74FF40053CDE90B00CDE90D00CDE9F4
:1017400010300F9017900BA9484804F0EBFC0646A8
:1017500008B172B6FEE76FF001022B6845481A61C6
:1017600001F02EFE444804F057FD3046FFF704FC1C
:1017700000F022FBFFF7F8FC404B30461988FFF7DA
:1017800085FB3F4B01201988FFF780FB3D4B1B7801
:1017900083B103223C49374801F072FDA36D1A68FA
:1017A000536923F4007353612268936AA36E63F054
:1017B0000F03936200230121344A08461360344A20
:1017C000DFF8F4801360334A1360FFF795FCFFF7EE
:1017D0006DFC98F8003053B92F4B1B783BB901F0E2
:1017E0002FFA0121084603F0C9F801F030FA2B491D
:1017F0002B4B0A681B6801329A4298F8002038BFC8
:101800000B60E2B9264B274A1B6811689942C0F069
:101810001781254A11688B42D9D901331360234AB5
:101820001378002BD3D1134B19689B6E886A6FEA2B
:1018300003536FEA13538B6201231370C7E71C4AEB
:1018400011688B42DED9053313601A4B1B78042BC9
:1018500000F2E080DFE813F0BC00BC00E1003200E1
:10186000D40000BFAC5F002000440046805E002032
:10187000004801400C610020EC5D002020000020A9
:1018800022000020E45D0020B05D0020C05D00204B
:10189000BC5D0020AC5D002068160020CC5D0020FF
:1018A000C45D0020D45D0020C85D002069160020C2
:1018B000D05D0020D05B0020E85D00207925012765
:1018C00044F23C23604C9FED616A23803B0243F06D
:1018D0003E0363805E4B00261A68B34607EE902AEB
:1018E000130CA3815B4BF8EE676A1B68B246E38179
:1018F0001B0C2382584BA6801B68E68007EE903AAB
:10190000B8EE677AC6EE877A6382190C534B628110
:10191000C3ED007A17EE903AE382C3F30F432383BB
:101920004F4BA1821B8807EE103A4E4BB8EE477A18
:10193000D3ED006A4C4BD3ED007AE7EE267A4B4BA1
:101940009FED4B7AC3ED007A4A4B1B8806EE903A26
:10195000F8EEE66A66EE876A86EE867A464B83ED97
:10196000007A17EE903A6383C3F30F43A38317EE15
:10197000103AE383C3F30F43238424F81560B7427E
:101980007FF740AF98F80030002B3FF43BAF3B4A65
:10199000002094463A4B04EB4A091988814202F12F
:1019A00002023EDC01310AEB510A5545D8BF4FEA2D
:1019B0001B233248DCBF8CF8F2B08CF8F33005F012
:1019C000C5FEFFF773FB282001F028F90136D6E7A2
:1019D0002C4B2D491B782D48022B8BBF00252C4A00
:1019E0002F46D75C9CBF2B4A32F81350A5F1370223
:1019F000362D4FEA420298BF002228F026FB5FE70F
:101A00004FF480622449214828F01FFB40F2E7157B
:101A1000042755E700252F4652E740F26D150327AE
:101A20004EE739F8023B02304FEA132E02F8023C2F
:101A30005EFA83F35B4402F801EC1FFA83FBADE727
:101A4000591C1160E5E600BF6C16002000007F45C0
:101A5000D85D0020A85D0020DC5D00202C16002051
:101A6000DA5A002064160020601600203416002088
:101A700066668640D85A002030160020DC5A0020C6
:101A8000E4900020D15B0020D83A0020DA16002034
:101A90007EC3020878C30208D836002008B590F843
:101AA000381001291BD10E4B1B7843B10D4B1B780D
:101AB000DA0704D50C4B0D48197002F007FD0C4BEA
:101AC0001B7863B1074B1B789B0708D50122094B94
:101AD00040211A700848BDE8084002F0DDBB08BD8F
:101AE0002B00002028160020E65D00201C5F00204F
:101AF0002A000020E55D00200000024208B50A4BE4
:101B00001A782AB10022012108481A7002F011FD4A
:101B1000074B1A783AB1002240211A700548BDE8F7
:101B2000084002F0B9BB08BDE65D00201C5F002044
:101B3000E55D00200000024208B50021064802F0E1
:101B4000E3FD0121054802F0F4FCBDE80840002255
:101B50004021034802F0A0BBAC5F00201C5F0020C6
:101B60000000024272B6FEE710B558B1194A137868
:101B7000591C022B117017D8BDE8104000201649DF
:101B800007F09EBD4FF6FD71144BB3F8A020531E15
:101B90009BB28B4296BF124B124B03EB82231A6807
:101BA000114B9A42E2D110BD4FF4C87200210F4888
:101BB00028F0FAF90E490D4828F02CFA0B48FEF7E8
:101BC0003CFBBDE8104082B264230849094804F098
:101BD000F4BC00BF78610020691B00080007F90B06
:101BE00010C0FF0710C00F0868452301185C0020D3
:101BF00081C30208EC5D0020554A53A1D1E90001E0
:101C000070B5C2E900015349534B09781B7809B1FB
:101C100043F002035149097809B143F004035049E4
:101C2000097809B143F008034E49097809B143F036
:101C300010034D49097809B143F020034B49097855
:101C400009B143F040034A49097809B143F08003E0
:101C50004849097809B143F4807347490978012953
:101C60006AD002296BD04549097809B143F4006371
:101C7000434D444900240E882978B00541EA962155
:101C80006E7841EA0621AE78ED7841EA06413E4E93
:101C900041EA0561368840EA06300343C2E9023171
:101CA0003A4B3B491B68096843EAE173C2E90413F4
:101CB000384B1B68D917C2E90631374948780B7889
:101CC0008D7843EA00233548C978006843EA054324
:101CD00043EA0163C2E90803314B4FF0CC301B6883
:101CE000D917C2E90A314FF0DD31C2E90C014FF0DA
:101CF000EE304FF0FF312B4BC2E90E012A4920464E
:101D00001C7007F0DDFC05464FF4C87221462748D9
:101D100028F04AF975B12A462549244828F0FAF8EE
:101D20002248FEF78AFA642382B22049214804F04F
:101D300044FC0125284670BD43F4007393E743F447
:101D4000806390E7AFF30080684523010000000046
:101D5000D85B00206A1600202B0000202A000020FB
:101D60002900002028000020270000202600002055
:101D70002500002024000020D15B0020E45D00202D
:101D800044160020200000202200002058160020C9
:101D90005C160020541600203C160020401600203F
:101DA0003816002078610020691B0008185C0020AC
:101DB00089C30208EC5D00202DE9F04F002426467F
:101DC000DFF86C93AC4FA1B04FF6FD71B9F8A020CD
:101DD0003846531E9BB28B4296BFA84DA84D05EBCB
:101DE000822500214FF4C87204EB050828F0DCF8C6
:101DF00042466359A349384628F08CF83846FEF726
:101E00001CFA642382B239469F4804F0D6FB032EA5
:101E100006F1010340F0A381642302229B499A4802
:101E200004F0CBFB00260434402CCDD164230222E5
:101E30009649954804F0C1FB4FF6FD71B9F8A02012
:101E4000934D531E9BB28B4296BF8C4B8C4B03EB36
:101E500082231A688F4B00219A4287484FF4C87238
:101E600040F07F8128F0A0F88B49834828F0D2F811
:101E70008148FEF7E2F9642382B27F49824804F088
:101E80009CFB4FF4C87200217B4828F08DF84FF678
:101E9000FD72B9F8A01078484B1E9BB2934296BFD2
:101EA0007E4A7F4A02EB812213687E4928F032F88D
:101EB0007148FEF7C2F9642382B26F49724804F098
:101EC0007CFB4FF6FD71B9F8A020531E9BB28B42EC
:101ED00096BF754B754B03EB82231C684FF6FD7163
:101EE00004F001032B70724BC4F3400A83F800A086
:101EF000704BC4F3800B83F800B0C4F3C003189395
:101F0000189A6D4BC4F3C0251A70C4F300131993CB
:101F1000199A6A4BC4F341261A70C4F340131A93FA
:101F20001A9A674BC4F309371A70C4F380131B93D2
:101F30001B9A644B4FEA94581A70C4F3C0131C9355
:101F40001C9A614B1A70C4F300231D931D9A5F4BBA
:101F500004F001041A705E4B1D705E4B1E705E4BE8
:101F60001F805E4BA3F80080B9F8A020531E9BB2DF
:101F70008B4296BF49494A4901EB8221086858497A
:101F800008604FF6FD718B4296BF5649564901EBEA
:101F90008221D1F800905549C1F800904FF6FD71AB
:101FA0008B4296BF5249534901EB822109681E9129
:101FB0001E98514908604FF6FD718B4296BF4F49FC
:101FC0004F4901EB822109681F911F984D49086014
:101FD0004FF6FD718B4296BF4B494C4901EB822174
:101FE00008684B4908604FF6FD718B4296BF49491E
:101FF000494901EB82210868484908604FF6FD71A4
:102000008B4296BF464B474B03EB82231A68464BE5
:1020100000211A6018484FF4C87227F0C5FF424BE0
:102020001868FEF777FACDE916013C4B1868FEF701
:1020300071FACDE91401364B1868FEF76BFA1F9B55
:10204000CDE9120110931E9BCDE90E93244B186825
:10205000FEF760FA1D9B224606931C9BCDE90C01FE
:1020600005931B9B314904931A9B03480393199BC7
:10207000CDE9097802935DE0185C002010C0FF07ED
:1020800010C00F08A1C30208EC5D002005D10208B2
:102090002B00002068452301B2C302081CC0FF07C3
:1020A0001CC00F08C5C3020818C0FF0718C00F08DE
:1020B0006A1600202A0000202900002028000020A5
:1020C00027000020260000202500002024000020FA
:1020D000E45D0020D15B00202200002020000020D1
:1020E0004416002020C0FF0720C00F085C16002007
:1020F00024C0FF0724C00F085816002028C0FF077F
:1021000028C00F085416002030C0FF0730C00F0849
:102110004016002034C0FF0734C00F083C160020D2
:1021200038C0FF0738C00F0838160020D7C3020890
:102130000007F90B189BCDE90756CDE900B35346CC
:1021400027F0E8FE2948FEF778F8642382B2274991
:10215000274804F032FA002021B0BDE8F08F1E4677
:1021600061E627F021FF2349204827F053FF1F484D
:10217000FEF763F8642382B21C491D4804F01DFA7F
:10218000002201231C492B700A701C490B701C494A
:102190000B701C490B701C490B701C490B701C49BF
:1021A0000B701C490B701C4B1A704FF448721B4B80
:1021B0001A804FF416721A4B1A801E22194B1A609D
:1021C0003C22194B1A607822184B1A60184B194A96
:1021D0001A60194B194A1A60194B1A4A1A601A4B9D
:1021E0001A4A1A60FFF708FDB5E700BF185C002027
:1021F000EC5D002003C502086A1600202A000020BA
:1022000029000020280000202700002026000020B0
:102210002500002024000020D15B002022000020A7
:10222000200000205C1600205816002054160020C4
:10223000441600203333333F401600206F12833A98
:102240003C160020CDCC8C3F38160020CDCC0C4065
:102250000C4B07B5D3F89420052142F00402C3F8D3
:102260009420D3F89430002203F004030193422019
:10227000019B01F011F9422003B05DF804EB01F07D
:102280003BB900BF000C024630B50546B1B0142280
:10229000002103A827F088FE4822002108A827F083
:1022A00083FE2A68434B9A4240F082804FF40053E9
:1022B00008934FF4804308A8179302F0E5FF08B194
:1022C000FFF750FC3C4B0521D3F89420002442F04A
:1022D0002002C3F89420D3F89420384802F020025A
:1022E0000192019AD3F88C2042F00102C3F88C20AD
:1022F000D3F88C30059403F001030293029B03236F
:10230000CDE9031303A901F0BFFE21234FF4002000
:10231000CDE91A3401234FF48032CDE91F03284957
:102320001AA8CDE91C44CDE92333CDE92544CDE9F4
:1023300028441E94219227942B9401F098FC08B114
:10234000FFF710FC00211E4A1E4801F0E7FC08B10F
:10235000FFF708FC1B4801F043FD08B1FFF702FC42
:10236000194C1A4B204623600023C4E90E33C4E9FC
:1023700010338123A36401F0D5FB08B1FFF7F2FB12
:102380001049114801F058FD08B1FFF7EBFBAC65AF
:1023900010210D48E56501F02AFB08B1FFF7E2FBCB
:1023A00000224120114601F077F8412001F0A4F805
:1023B00031B030BD00100246000C0246000002425F
:1023C000F0600020D86000206060002050000240D3
:1023D0000268094B82B09A420CD1084BD3F888208E
:1023E00042F48052C3F88820D3F8883003F4805335
:1023F0000193019B02B0704700300240000C02467E
:102400000268054B9A4201BF044AD2F8883023F48F
:102410008053C2F88830704700300240000C0246FA
:1024200010B5044694B04822002102A827F0BCFD54
:102430002368214A934222D14FF4805302934FF4F0
:10244000006302A8109302F01FFF08B1FFF78AFB98
:102450001A4B3120D3F8A82042F40062C3F8A82018
:102460000022D3F8A830114603F400630093009BC8
:1024700001F012F8312001F03FF814B010BD104AFD
:102480009342FAD1082302934FF4002302A8069343
:1024900002F0FAFE08B1FFF765FB084BD3F8A02065
:1024A00042F02002C3F8A020D3F8A03003F02003AC
:1024B0000193019BE1E700BF00440046000C024687
:1024C0000094004010B5044686B01422002101A8F3
:1024D00027F06AFD22680D4B9A4215D10C4B0D482E
:1024E000D3F88C2001A942F00102C3F88C20D3F864
:1024F0008C3003F001030093009B0223CDE90133EC
:102500000D23059301F0C0FD06B010BD00940040FE
:10251000000C024600000242074B82B0D3F888202C
:1025200042F40032C3F88820D3F8883003F4003333
:102530000193019B02B07047000C024610B504469F
:1025400094B04822002102A827F02EFD22680F4BEC
:102550009A4218D14FF4807302934FF4005302A8AB
:102560000B9302F091FE08B1FFF7FCFA084BD3F889
:102570008C2042F48022C3F88C20D3F88C3003F4F2
:1025800080230193019B14B010BD00BF00080C42D2
:10259000000C024610B5044694B04822002102A85F
:1025A00027F002FD2268134B9A4220D14FF480435A
:1025B00002934FF4807302A8129302F065FE08B1F3
:1025C000FFF7D0FA0C4B0220D3F8A82042F40012F7
:1025D000C3F8A8200022D3F8A830114603F4001352
:1025E0000193019B00F058FF022000F085FF14B01A
:1025F00010BD00BF00780046000C024607B50F4B27
:1026000002689A4217D10E4B3420D3F8A42042F42A
:102610008022C3F8A4200022D3F8A430114603F48A
:1026200080230193019B00F037FF342003B05DF855
:1026300004EB00F061BF03B05DF804FB004801400B
:10264000000C024610B504469AB01422002103A8DB
:1026500027F0AAFC4822002108A827F0A5FC226840
:102660001A4B9A4230D102230893082308A80A93F0
:1026700002F00AFE08B1FFF775FA154B1548D3F8BA
:102680009C2003A942F40032C3F89C20D3F89C207C
:1026900002F400320192019AD3F88C2042F0010238
:1026A000C3F88C20D3F88C304FF4805203F0010330
:1026B0000293029B1223CDE903230023CDE90533C6
:1026C0000323079301F0E0FC1AB010BD0044004062
:1026D000000C0246000002420268084B9A420BD1ED
:1026E000074A4FF48051D2F89C30064823F4003357
:1026F000C2F89C3001F068BD704700BF0044004044
:10270000000C024600000242FEE7FEE7FEE7FEE79D
:10271000FEE770477047704700F06EBA10B5264864
:1027200003F058F9254A2648136801331360254AF7
:102730001368591C1160244A1360244B1A68244BF7
:102740001A600268234B1A60234B1968B1F5007FA9
:10275000A4BF0021196019684C1C1C601F4B23F892
:10276000112000211E4B016019601E4909680029D3
:1027700005DD1D4909688A4284BF012119601B4992
:102780000968002905DD1A4909688A4284BF0221C7
:10279000196018490968002905DD174909688A4246
:1027A00084BF03221A60196829B1BDE810400320D4
:1027B0000139FEF7A1BC10BDCC5E0020C45D002035
:1027C000BC5D0020AC5D0020DC5D0020C05D002011
:1027D000D85D0020A85D0020D4360020D836002027
:1027E000E05D00205C1600205016002058160020E6
:1027F0004C160020541600204816002008B54FF44F
:10280000004001F051FD094A136801331360084A82
:10281000136801331360074B1B782BB1BDE80840E8
:1028200000210420FEF768BC08BD00BFC05D002089
:10283000BC5D00206A16002008B51D4801F018F89C
:102840001C4B1B78012B29D0022B2CD073B91A4BAF
:102850001B68C3F389034FF6FF701849373331F80B
:10286000132082421CBF013221F81320144B1A7826
:102870009AB100221A70134B1A689B6E916A63F02A
:102880000F0393620C4A10499368C3F30B030B8048
:1028900053680E4AC3F30B03138008BD064B1B6835
:1028A000C3F34A03D7E7044B1B68C3F30B03D2E718
:1028B00060600020D15B0020B05D0020D83A00208D
:1028C000691600200C610020D85A0020DA5A002036
:1028D000014801F05EBF00BFAC5F002008B50848AA
:1028E00003F00FFA074B1A782AB10022202106487C
:1028F0001A7001F0D1FCBDE80840014803F0E2B9CC
:10290000805E0020E75D002000000242014800F0E8
:10291000FCBA00BF0C61002008B5074B1B6803B16F
:102920009847064AD2F8083223F48033C2F80832B6
:10293000BFF36F8F08BD00BF68920020000C0246F5
:1029400038B54FF000530C4CC4F88430BFF34F8FB0
:10295000BFF36F8F094B1B6803B19847084D2B7865
:1029600033B1002205213D2000F096FD00232B709D
:102970004FF00053636038BD00E100E06492002036
:102980004A9200200120704708B527F019FB162352
:1029900003604FF0FF3008BD08B527F011FB162388
:1029A0000360FEE770B50D4614460E46731B9C424D
:1029B00001DC204670BDAFF3008006F8010BF5E79F
:1029C00070B50D4614460E46731B9C4201DC204632
:1029D00070BD16F8010BAFF30080F5E74FF0FF3044
:1029E00070474FF4005300204B6070470120704740
:1029F000002070470B4A0346116810B509B90A490F
:102A00001160106809490A4C0344091B8B4206D91E
:102A100027F0D6FA0C2303604FF0FF3010BD13608F
:102A2000FCE700BF7C61002008CC002000000220F1
:102A300000040000034AD2F8883043F47003C2F85F
:102A40008830704700ED00E02F48C36903F00C03A5
:102A5000082B0CD00C2B10D02C4B2B4A2C49126A73
:102A600002F007028A5CD3402A4A1360704702686A
:102A7000294BC2F30052D340EFE7816A436BC1F3A5
:102A80000222013206EE102AC3F30802013207EED9
:102A9000902ACA0648BF826B01F0030145BFC2F30A
:102AA000CC0207EE102ADFED1D6AF8EEC76AC3F309
:102AB0000663022903F1010322D0032922D1124A1D
:102AC0001168154AC1F30051CA4007EE102AB8EE4A
:102AD000C66AB8EEC77AF8EEE77AC7EE065A9FEDF7
:102AE000107AE6EE877A65EEA76A07EE903AB8EEBE
:102AF000E77AC6EE877AFCEEE77A17EE903AACE713
:102B0000024AE2E70022E0E7000C02460024F4005B
:102B100022C502082C0000200048E8010000000047
:102B200000000039FEE7000038B5214B05461A7851
:102B30000AB9012038BD4FF0E023186910F00400F5
:102B400016D04FF47A73B3FBF2F21A4B1868B0FB4D
:102B5000F2F000F0F1FC04460028EAD102462946D2
:102B60004FF0FF3000F098FC134B20461D60E1E76A
:102B7000124BD3F8E03003F44003B3F5800F07D0D5
:102B8000B3F5000F0DD0002BE3D14FF4FA53DAE781
:102B90004FF47A73B3FBF2F24FF4FA43B3FBF2F063
:102BA000D7E74FF47A73B3FBF2F24FF40043F5E743
:102BB000300000202C00002034000020000C0246D1
:102BC0000C4A10B51368032043F48073136000F0BF
:102BD00051FCFFF739FF042000F0CCFC0F20FFF779
:102BE000A3FF044618B9FFF733FB204610BD0124AC
:102BF000FBE700BF00200240034A044B11681B782A
:102C00000B441360704700BF80610020300000203B
:102C1000014B1868704700BF8061002038B504463A
:102C2000FFF7F6FF0546631C1EBF044B1B78E41834
:102C3000FFF7EEFF431BA342FAD338BD300000205C
:102C40004FF0E022136923F00203136170474FF045
:102C5000E022136943F00203136170478068C0F3F8
:102C600080007047F8B5044668B3056E25B9FFF7D4
:102C70000BFB656684F85C5022689368DF0025D4FE
:102C80004FF480531360936823F0104323F017032D
:102C900043F080539360FFF7BBFF054623681B6832
:102CA000D80413D4FFF7B4FF401B0128F6D92368DA
:102CB0001B68DE04F2D4236E43F010032366636EB8
:102CC00043F00103636601252846F8BD23689A682E
:102CD0001846D1005FBF226E012542F01002226625
:102CE00057BF626E002542F001026266FFF7B6FF31
:102CF000226E02F01002104340F0A780226E22F4F0
:102D0000817242F0020222669A68D20722D4DA68FF
:102D1000A16822F00C020A43DA6094F84420606D46
:102D2000012A07D1226DA16C02430A43E16C0A43D8
:102D300042F001001969474A474E0A4002431A61AE
:102D4000D6F80813626821F4701102F470120A4375
:102D5000C6F80823A26B94F82070003A18BF01222D
:102D6000267E11037A0342EA8632E66894F834E05C
:102D70003243266942EA4E02002EA8BF4FF4001CDF
:102D800042EA010294F82810B8BF26F0004C01294D
:102D900042EA0C0203D1002F3AD142F48032E16AB8
:102DA00021B1276B01F4E07139430A43DF682B49F5
:102DB00039401143D9601F692649394001431961DF
:102DC000586C617EE76920F0030039430143596480
:102DD0005969E06B21F00701014359615969206C81
:102DE00021F0700141EA00115961D6B9996A61F088
:102DF0000F019962D9681A4B0B40934221D10023ED
:102E00006366236E23F0030343F0010323665BE74D
:102E1000216E41F020012166616E41F00101616681
:102E2000BDE7B6F5001FE5D16FF00F00996A616A42
:102E30000139890001F01C0100FA01F1A06E014383
:102E4000D7E7236E23F0120336E7236E43F0100317
:102E5000236638E702FCFFDF001002460D82DEFF2A
:102E6000F3FF3F837047704708B5C06DFFF7FBFF66
:102E700008BD70477047C06D08B5036E43F040034E
:102E80000366436E43F004034366FFF7F3FF08BD98
:102E9000C36D10B51A6E12F0500F1A6E2AD142F49B
:102EA00000721A661A68D16811F4406F15D193F850
:102EB000201091B9116809070FD51046FFF7CEFE13
:102EC00078B9516821F00C0151601A6E22F48072B9
:102ED00022F0010242F001021A661846FFF7C2FF13
:102EE00010BD1A6E42F020021A665A6E42F00102BC
:102EF0005A66F2E7D20603D51846FFF7BBFFEFE7A5
:102F00009B6DBDE810409B6E1847036870B51E6846
:102F10000446B0075D680ED5A9070CD5236E204680
:102F2000DA065EBF236E43F40063236600F09FFA67
:102F3000022223681A60730701D5680703D431079A
:102F40002AD52A0728D5236EDB065EBF236E43F4FD
:102F5000007323662368DA6812F4406F16D194F880
:102F600020209AB91A68100710D51846FFF776FE88
:102F7000002861D15A6822F00C025A60236E23F4B3
:102F8000807323F0010343F0010323662046FFF71B
:102F900069FF0C2223681A6031060BD52A0609D571
:102FA000236E204643F480332366FFF762FF8022BE
:102FB00023681A60F3050CD5E8050AD5236E204670
:102FC00043F40033236600F050FA4FF48072236814
:102FD0001A60B1050CD5AA050AD5236E204643F424
:102FE0008023236600F042FA4FF4007223681A60CF
:102FF000F30615D5E80613D5A36B1BB12368DB6870
:1030000099070AD0236E204643F480632366636EDB
:1030100043F002036366FFF72DFF102223681A6056
:10302000F20408D5EB0406D5204600F021FA4FF44F
:10303000805223681A6070BD236E43F0200323661C
:10304000636E43F001036366A0E700000023F7B559
:10305000019390F85C300246012B00F0AB80012315
:103060000468066980F85C302046FFF7F7FD002809
:1030700040F09A80D1E90035022D26F0100071D081
:10308000B0F1004FC3F3110E35D1A06A40EA0E0033
:10309000A0628968606901EA032121F07C4121F086
:1030A000FF0120EA03200143002B61611DDA424940
:1030B000424DD1F80803AB4200F4400443D1000272
:1030C00013D4D1F8083323F44003234343F400031B
:1030D000C1F808333A4B19683A4BB1FBF3F10C23B2
:1030E00001FB03330193019B53BB0020002382F8B3
:1030F0005C3003B0F0BD4FF00F0C906E05F01F0771
:103100000CFA07FC6FEA0C0620EA0C0CBEF1000F6B
:1031100011D1C3F38460B84040EA0C009066AD085A
:10312000506A01358542B4D8A56AC3F38360B840BC
:103130002E403043ACE793FAA3F0B0FA80F0EAE710
:10314000019B013BCEE7204DAB42CED14302CCD414
:10315000D1F8083323F44003234343F48003C1F838
:103160000833C2E7B0F1004F01BFA16AC3F31100F9
:103170008143A162002BB8DA104C0F48A342D0F86B
:10318000081309D1D0F8083301F4800123F4400377
:103190001943C0F80813A8E70B4CA342A5D1D0F8F7
:1031A000083301F40001F1E7116E184641F02001E7
:1031B00011669BE702209CE700100246002000B445
:1031C0002C000020400D030001000080002373B597
:1031D0000268019393680446DD0702D5002002B01F
:1031E00070BD9168214B194209D0236E012043F034
:1031F00010032366636E43F001036366EFE7936891
:1032000023F0004323F0170343F001039360184BAE
:10321000D3F8083318021CD4637E012BDED0FFF7ED
:10322000F7FC0546134E22681368DB07D6D4936873
:10323000D9075FBF9368334043F001039360FFF702
:10324000E7FC401B0228EED923681B68DA07EAD4A2
:10325000CBE7094B094A1B68B3FBF2F30133019337
:10326000019B002BD8D0019B013BF8E717000080A1
:1032700000100246E8FFFF7F2C000020400D0300F5
:10328000F8B50468054620460F461646FFF7E6FCEB
:10329000002859D195F85C30012B55D0012385F8D1
:1032A0005C30E368D8070ED4A368D90707D5A368B4
:1032B00023F0004323F0170343F00203A360E36805
:1032C00043F00103E3602846FFF780FF044600282F
:1032D00031D1286E1D4B20F4706020F0010040F4C5
:1032E00080702866A86D6C660366194B2968436672
:1032F000184B83661C230B6085F85C404B68026D9D
:1033000043F0100312064B604FEA860315D5426F57
:10331000C2B11268B2B14031C2E90317936000F044
:1033200057FC04462A68936823F0004323F01703F0
:1033300043F0040393602046F8BD3A46403100F064
:1033400059FAEEE70124EDE70224F4E7912E000894
:10335000692E0008772E0008026838B593689168D6
:103360000446C80701D4002038BD9907FBD49368F0
:1033700003F00503012B19D1936823F0004323F0D8
:10338000170343F00203936003231360FFF740FC2D
:10339000054623689B68DB07E5D5FFF739FC401B32
:1033A0000228F6D923689B68DA07F2D5236E01203C
:1033B00043F010032366636E43F001036366D3E7B3
:1033C000002337B5019390F85C300446012B4AD0B6
:1033D000012380F85C30FFF7BFFF23689A68D207AB
:1033E00007D5236E43F010032366002384F85C3076
:1033F0002BE0226E22F4817242F002022266596CA6
:10340000DD68DA6801F0010122F00302DA605A6C2B
:1034100005F0030522F001025A649A6842F0004266
:103420009A609A68002A12DA019A01320192019A8E
:10343000B2F52E3FF5D3236E012023F0120343F0A3
:1034400010032366002384F85C3003B030BDDA68D3
:103450002A43DA605A6C0A435A64236E23F003034A
:1034600043F00103C0E70220EFE770477047704761
:103470007047000007490302CA6803F4E06322F4BE
:10348000E0621204120C134343F0BF6343F40033B1
:10349000CB60704700ED00E0154B30B5DC68C4F33D
:1034A0000224C4F10703251D042B28BF0423062D85
:1034B0004FF0FF3594BF0024033C05FA03F321EAE3
:1034C0000303A54022EA0502A340002843EA0203C1
:1034D000ACBF00F16040074A4FEA0313DBB2ABBF59
:1034E00000F5614000F00F0080F80033135430BD48
:1034F00000ED00E014ED00E0002807DB01234109A6
:10350000034A00F01F00834042F82130704700BF9B
:1035100000E100E000280CDB01220649430900F02D
:103520001F008240203341F82320BFF34F8FBFF3A9
:103530006F8F704700E100E00138B0F1807F3FBF3E
:103540004FF0E02358610020986137BF1A690120CD
:1035500042F003021A617047002808DB0122430988
:10356000034900F01F008240403341F82320704798
:1035700000E100E0042818D8DFE800F00A18261758
:1035800003004FF0E022136943F004031361704716
:103590004FF0E022136923F004031361114AD2F8BB
:1035A000E03023F44003C2F8E03070474FF0E022EF
:1035B000136923F0040313610A4AD2F8E03023F4BC
:1035C000400343F48003EEE74FF0E022136923F059
:1035D00004031361034AD2F8E03023F4400343F4B8
:1035E0000003E0E7000C0246F0B50C4622F00305AC
:1035F000066897080D44A54208D112F003021ED0B8
:10360000012A14D111F82730337018E0637894F848
:1036100000C01B0443EA0C6394F803C0043443EA7B
:103620000C0314F802CC43EA0C233360E3E76B7815
:10363000022A11F8272043EA0223338002D10368CB
:103640001868F0BDAB78DFE700230068F0B55508D7
:103650008E1C9D4206D1D30744BF31F8253003802C
:103660000068F0BD31F8237036F82340013344EA96
:1036700007440460EDE7000010B5044608B90120D6
:1036800010BD437F03F0FF0213B90277FEF7A0FEDF
:10369000022363772379E3B92368134A5A619A684E
:1036A00022F018029A6062792368D2B94FF0FF3293
:1036B0001A619A68616922F060020A439A609A6806
:1036C000A16922F080020A439A60012300206377F7
:1036D000D6E72046D4E9021200F065F80028E2D0CF
:1036E000CDE72269E4E700BFB71DC10438B5054640
:1036F00098B1437F022BDCB20DD002230024437724
:1037000003689A6842F001029A605A685C60FEF7AA
:1037100077FE6C772C77204638BD0124FBE770B527
:1037200002264677066A0446022E15D0032E05D0DF
:10373000012E0ED000200123637770BD036801EBDA
:103740008205A94201D11868F5E751F8042B1A60E7
:10375000F7E7FFF749FFEEE7FFF776FFEBE7F8B58E
:103760000226467706680446B76847F00107B76047
:10377000076A022F14D0032F05D0012F0DD000208F
:1037800001236377F8BD01EB8205A94201D13068BE
:10379000F6E751F8043B3360F7E7FFF725FFEFE763
:1037A000FFF752FFECE7CB0710B50DD51F23013B08
:1037B0001DD321FA03F4E407F9D5102A13D0102AF7
:1037C00004D83AB1082A10D001200BE0182AFBD106
:1037D000062BF9D800684161836823F0180313436E
:1037E0008360002010BD072BF3E70F2BF1E7102AB1
:1037F000E5D1E9E730B5002836D090F84C40012CEF
:1038000034D0012480F84C4090F85440012C4FF003
:10381000000425D1022580F85450846504689BB2C9
:10382000A56C2D0C2D041D434FF4FE43A564E360ED
:10383000E1642265636943F4BA436361436E1BB17B
:10384000636943F400736361036F1BB1636943F4FD
:10385000005363610020636943F00103636130BD7D
:10386000402380F84C4083650120F8E70220F6E70A
:103870000121036810B523F47F6222F00F02044691
:10388000D068C3F30B02503AC2F3C41201FA02F239
:10389000024200F0AB801A69500508D55A695205FA
:1038A00005D54FF48062DA60A26D0A43A2651A69F9
:1038B000100509D55A69110506D54FF40062DA6082
:1038C000A26D42F00202A2651A69D20409D55A69B2
:1038D000D00406D54FF48052DA60A26D42F00402A3
:1038E000A2651A69510409D55A69520406D54FF4E4
:1038F0008042DA60A26D42F00802A2651A69900562
:1039000009D55A69910506D54FF40072DA60636EE5
:103910000BB12046984723681A6992042ED55A693C
:1039200090042BD54FF40052DA6094F85420042A06
:103930001DD15A69216D22F400525A615A69090653
:1039400042F002025A614FF0010248BF616F84F8F1
:10395000542042BF0A7300229A64002384F84C303A
:10396000E36E002B42D02046BDE8104018470523E7
:1039700084F85430236F0BB12046984723681A69A6
:10398000D20518D55A69D00515D5226D110626D550
:10399000DA6F32B99A6C22B90122616F84F854202F
:1039A0000A734FF44072DA60002384F84C30236EBF
:1039B0000BB120469847A36DC3B12268536943F009
:1039C000020353610123226D84F85430120644BF70
:1039D000626F1373002384F84C30A36EC1E79A6CB6
:1039E000002ADED1012284F85420DAE710BDD0B1DC
:1039F000CB0601D4002070470368012023F47F62C6
:103A0000C3F30B0322F00F0201F01101503B112907
:103A1000C3F3C413516800FA03F30CBF0B4321EA4C
:103A200003035360E6E70120704741EA02030343C2
:103A300018B949B9002A18BF10465840B0F5803F60
:103A400034BF0020012070470846F6E740B1037EEE
:103A500049B97AB1107E984214BF03200020704704
:103A600031B10B7EF5E7097E9942F2D00220704712
:103A700008467047104670472DE9F043D0F808C05B
:103A8000176889B300254FF6FC762B462C464FF677
:103A9000FC7EDFF88C800E404FEA870964453BD0FE
:103AA0009E420CD001684CBB01EA0E030134F5E7DD
:103AB000016894B901EA060301346445F8D101684C
:103AC0009460090C09040B43D36053F827300D436D
:103AD0005560D3B90020BDE8F08308EB030501EA87
:103AE0000E0169581D46E5E70D460B460C464FF69C
:103AF000FC76DFF82CE04FEA8708DEE709EB0305E8
:103B000001EA080169581D46CEE723F003031B04B0
:103B10001B0C0B431361DDE79E42D0D00120DAE796
:103B20000000FFFF38B50446FFF772F80546002C89
:103B300049D0002384F84C300223226884F85430A2
:103B4000536943F00603536123685A69D20730D49E
:103B5000D4E90E1211431D4A934214D0803293428D
:103B600011D0803293420ED0803293420BD08032FB
:103B7000934208D08032934205D08032934202D0E3
:103B80008032934201D1226C114300205A6922F401
:103B900043020A435A61626C18645A649864D86498
:103BA0001865D867A36CA0652365012384F8543099
:103BB0000AE0FFF72DF8401B0528C5D91023A3659F
:103BC000032384F85430012038BD00BF5000024068
:103BD000034630B5002848D0416F002945D090F801
:103BE00054001A6801285469C5B203D0022D37D198
:103BF000E00335D593F854000128C4B22AD193F8D4
:103C00004C0001284FF0020029D083F8540083F8BB
:103C10004C400873002098650861506940F4BA4030
:103C20005061586E18B1506940F4007050611B6FBC
:103C30001BB1536943F4005353610B68190C23F013
:103C400003031B041B0C43F07843090443F4803343
:103C50001160D3670020536943F00103536130BD05
:103C600040229A65002283F84C200120F7E7F0B546
:103C7000002851D000294FD0C369456902681D430F
:103C8000C36B12F0200445EA0305036945EA030506
:103C9000836945EA03050D6010D0836AC66A876BA5
:103CA000013B1B053E4303F07C733343466A013EF0
:103CB000360106F47C7633432B430B604368056B77
:103CC00023F4E0739B059B0D2B43C5684B60B5F552
:103CD000806F1BD114B143F480634B60436C4BB1D4
:103CE000046C23434C682343846C240404F4F814C8
:103CF00023434B60B0F8543042F4A0628B60C36C35
:103D0000CB60036D00200B618A61F0BDB5F5007FCB
:103D1000E4D143F40073E0E70120F6E7F0B50E4686
:103D20001546044687B028B122B14369012B04D15E
:103D300004232361012007B0F0BD07683846FFF770
:103D400074FE08B10523F4E73846FFF77FFE00282C
:103D5000EED10223237320619FB93EB90123226073
:103D60000020A360012320612373E4E722F0030510
:103D70002D042D0C45F0784545F48035266075619D
:103D8000EEE766B927F003073F043F0C47F078479A
:103D900047F4803757612260A3680133E0E70523C9
:103DA0003146204601AA0193FFF766FE98B94FF607
:103DB000FC70A368039F094905EA00029F4242EA9A
:103DC000010206D1636813B103400B436B6172615A
:103DD000E2E77369FAE70623ABE700BF000001F8EA
:103DE00070B5044686B018B1066826B9022323616F
:103DF000012006B070BD45681DB1AE421AD0042343
:103E0000F5E74369012BFAD002230373052301AAC6
:103E1000294605610193FFF72FFE4FF6FC733340EF
:103E2000049A43F0784343F48033536101232561BE
:103E3000666023730020DCE770B169B190F85430FC
:103E400090F85420DBB2022A01D0052B06D1402382
:103E50008365002380F84C30012070470B7B022BD8
:103E600002D101230B61F7E7026D4B68812A02D171
:103E70001BB90423F6E7002BFBD1416700207047F4
:103E8000084A10B5936A43F001039362EFF310827E
:103E900072B60023CC58C4500433102BFAD182F3ED
:103EA000108810BD00200240094A10B5936A43F4FF
:103EB000804343F001039362EFF3108272B6002354
:103EC000CC58C4500433802BFAD182F3108810BD33
:103ED00000200240064B9A6A002ABFBF054A9A603A
:103EE00002F188329A60BABF986AC00F002070470A
:103EF0000020024023016745044B9A6A42F00042C9
:103F00009A62986AC043C00F704700BF0020024009
:103F100070B50546FEF77CFE104C4619236A13F473
:103F2000403F0BD142F2FA02236A13400ED0012027
:103F30000B494A681A434A60236270BD6A1CEDD07F
:103F4000FEF766FEB042E9D30320F6E7236A0020BD
:103F5000DB0744BF01232362EFE700BF00200240DC
:103F600084610020F8B5154D04462B780E46012BD0
:103F7000174620D001232B7000234FF47A706B601A
:103F8000FFF7C6FF88B9AC6024F00044012C394625
:103F900030460DD1FFF774FF4FF47A70FFF7B8FF8A
:103FA000074A936A23EA0403936200232B70F8BD47
:103FB000FFF77AFFF0E70220F9E700BF84610020F5
:103FC00000200240064A936A23F4813323F4FD73F0
:103FD00043EAC00343F4803343F002039362704723
:103FE000002002402DE9F041254E054633788846F1
:103FF000012B43D00123337000234FF47A70736098
:10400000FFF786FF0446E8B92B68B36023F000434E
:10401000042B1CD11B4A4FF47A70936A43F480330B
:1040200043F004039362FFF773FF04462B681549BE
:1040300023F000438A6A23F47E7343F47E7322EAFA
:1040400003038B62002333702046BDE8F0814FF0FC
:10405000FF33C8F800306F68D5E901321344BB4222
:10406000E4D93846FFF7AEFF4FF47A70FFF750FF00
:1040700010B1C8F80070D8E70137EDE70224E3E794
:1040800084610020002002402DE9F74F4C4B4FF097
:104090000F0903EA9023019300234A4C0A6832FA7D
:1040A00003F502D103B0BDE8F08F012505FA03F84E
:1040B00018EA020200F0828003274E684FEA430E9E
:1040C00006F0030507FA0EFC6F1E012F6FEA0C0CB9
:1040D00032D8876807EA0C0ACF6807FA0EF747EA72
:1040E0000A078760476827EA0808C6F300179F4059
:1040F00047EA08074760C768022D07EA0C088F687F
:1041000007FA0EF747EA0807C76017D14FEAD30846
:1041100000EB880803F0070AD8F820704FEA8A0AF3
:1041200009FA0AFB27EA0B0B0F6907FA0AF747EAB5
:104130000B07C8F8207001E0032DDCD1076805FAF1
:104140000EF507EA0C073D4316F4403F056035D0F5
:1041500023F0030707F18C4803F00305019FED00EE
:1041600009FA05FE07FA05F5D74308F50838D8F827
:1041700060C016F4801F2CEA0E0C45EA0C05C8F846
:10418000605025680CBF3D4015432560656816F4F6
:10419000001F0CBF3D4015436560D4F8845016F4F1
:1041A000003F0CBF3D401543C4F88450D4F8805004
:1041B000F60354BF3D401543C4F8805001336DE70A
:1041C0007F7F2F00002002462DE9F04F00234FF0A3
:1041D00001084FF00F0E4FF003092D4F2D4A07EA4B
:1041E000902731FA03F401D1BDE8F08F08FA03FCFF
:1041F0001CEA010649D023F0030404F18C4404F5C1
:10420000083403F00305ED00D4F860A00EFA05FBB6
:104210000BEA0A0A07FA05F5554517D1D2F880507E
:1042200025EA0605C2F88050D2F8845025EA060532
:10423000C2F88450556825EA06055560156825EAD8
:1042400006051560256E25EA0B05256605685C00E8
:1042500009FA04F42543DE08056000EB860603F046
:104260000705D6F820A0AD000EFA05F52AEA0505E7
:104270003562856825EA04058560456825EA0C05F0
:104280004560C56825EA0404C4600133A9E700BF9E
:104290007F7F2F00002002460AB181617047816252
:1042A000704770477047000038B5084D0446EB680A
:1042B000034202D0E860FFF7F4FF2B691C4203D0F1
:1042C00020462C61FFF7EEFF38BD00BF00200246FC
:1042D0000146064A106810F0010009BF136801206A
:1042E00023F004030B4308BF13607047000403402E
:1042F000034A0020136843F001031360704700BFB6
:104300000004034044F62062094B10B51B680468A2
:10431000B3FBF2F34FF47A72002053432268013B5F
:1043200008BF032031EA020201D0002BF6D110BDF4
:104330002C000020704770477047704770477047E7
:10434000704770477047704770470000F8B50446E3
:10435000002800F0998090F84A3003F0FF02002B0B
:1043600028D14A4B80F849208365494BC365494BA6
:104370000366494B4366494B8366494BC366494BC9
:104380000367494B4367494B8367494BC367494BB5
:10439000C0F88430484BC0F88830484BC0F88C30A7
:1043A000474BC0F88030036D0BB9464B0365204680
:1043B000236D984702234FF48071256884F84A30B2
:1043C0002B69204643F001032B61636B6960AB628C
:1043D000FFF798FF032801D10320F8BD1021236ABD
:1043E00069602046AB61FFF78DFF0328F4D0EB6ACC
:1043F0009A0706D4EB6A9B035EBF2B6923F0010387
:104400002B616168EB680129A06A02D0B0F5000F4A
:1044100001D123F01E034FF6FF7662692A4FB242A4
:1044200018BF23F46043A66818BF23F0C0031F40E1
:1044300041EA00033343666A33433B43E9B9E16928
:10444000266931430B43B0F5000F18D04FF6FF71CA
:104450008A4204D0A1690A43E1690A431343EB602D
:10446000D4E90B3213436B620123002084F84B30F4
:1044700084F84C3084F84A30AFE70129E3D1D4E91D
:10448000031001430B43E1E70120A6E79D1A000852
:10449000FD1A000837430008394300083B43000871
:1044A0003D4300083F430008391B00084143000812
:1044B00049430008434300084743000845430008B8
:1044C0003543000821240008FEF139FF39B990F87E
:1044D0004B30013B18BF012323B10120704790F8F6
:1044E0004C30F6E7022380F84A30B1B980F84B30FF
:1044F0000368DA6822F48012DA601A6942F0010275
:104500001A6169B1012910D01A6942F004021A61D6
:10451000012380F84A300020704780F84C30E7E7EC
:10452000DA6A42F00202DA62EEE7DA6A42F4003254
:10453000F9E7022380F84A30036899B1012916D0BF
:10454000DA6A920706D4DA6A92035EBF1A6922F029
:1045500001021A61012371B980F84B3080F84A30AA
:1045600000207047DA6A22F00202DA62E8E7DA6ACB
:1045700022F40032F9E780F84C30EFE7022370B5FF
:1045800005460E46046880F84A30F1B1012921D071
:10459000E36A980706D4E36A99035EBF236923F0B0
:1045A00001032361236943F0010323614FF080730A
:1045B00063609EB1012E18D04FF080712846FFF73E
:1045C000A1FE032815D1032070BDE36A23F0020386
:1045D000E362DDE7E36A23F40033F9E7A36823F439
:1045E000CD7323F00103A360E6E7A268144B1340E8
:1045F000F9E74FF6FF736A699A420AD1E36A9A07AC
:1046000012D50123C6B985F84B30002085F84A3011
:10461000DAE76160A368284623F00403A360FFF78C
:1046200071FE0328EAD1CEE7E36A9B035EBF2369EC
:1046300023F001032361E4E785F84C30E5E700BF90
:104640006DFCF7FF70B505460E4639B990F84B3052
:10465000013B18BF012323B101201FE090F84C302B
:10466000F6E7022385F84A30CEB985F84B302C683E
:10467000E36823F48013E360236943F001032361BB
:104680004FF0807363606EB1012E12D04FF08071D5
:104690002846FFF737FE03280FD1032070BD85F8A9
:1046A0004C30E4E7A36843F4CD7343F00103A36007
:1046B000ECE7A268134B1343F9E74FF6FF736A69FF
:1046C0009A420BD1AEB1012E18D02369002043F0DD
:1046D00002032361012385F84A30DFE76160A368A4
:1046E000284643F00403A360FFF70CFE0328E9D13A
:1046F000D3E7E36A43F00203E362E6E7E36A43F4E5
:104700000033F9E792030800FFF738BF0B46022198
:1047100070B5054680F84A1032B1012A19D001233C
:10472000002085F84A3013E0082104685A68E66AD8
:104730001B6826F00D0646EA8206226942F0010255
:10474000226161606361FFF7DDFD032815D103205D
:1047500070BD4FF4002104685A68E66A1B6826F4AD
:10476000502646EA8246226942F0010222616160D7
:104770006363FFF7C7FD0028E9D1E36A9A0706D40F
:10478000E36A9B035EBF236923F001032361E662B2
:10479000C5E7036810B51A680446D10710D59A68B2
:1047A000D2070DD501225A6080F83820DB6AD9077C
:1047B0004CBFD0F88430836D9847002384F838309C
:1047C00023681A68920513D59A68900510D54FF49E
:1047D00000725A60022284F83820DB6A2046D9032E
:1047E0004CBFD4F88430A36D9847002384F8383048
:1047F00023681A68D2040FD59A68D0040CD54FF4F8
:1048000080525A600123204684F83830D4F88C3026
:104810009847002384F8383023681A6891040FD52C
:104820009A6892040CD54FF400525A600223204635
:1048300084F83830D4F88C309847002384F8383026
:1048400023681A68900707D59A68910704D5022251
:1048500020465A60E36D984723681A68520707D5C7
:104860009A68500704D5042220465A60236E984760
:1048700023681A6811070AD59A68120707D5082213
:104880005A600123204684F83830636E98472368C5
:104890001A6810030BD59A68110308D54FF400224B
:1048A0005A600223204684F83830636E98472368A4
:1048B0001A68D20607D59A68D00604D51022204679
:1048C0005A60A36E984723681A68910607D59A68BC
:1048D000920604D5202220465A60E36E984723684A
:1048E0001A68500607D59A68510604D5402220461A
:1048F0005A60236F984723681A68120607D59A688A
:10490000100604D5802220465A60636F98472368BA
:104910001A68D1050AD59A68D20507D54FF4807276
:1049200020465A60A36FBDE81040184710BD000034
:10493000024A936A43F001039362704700080246FB
:104940000D49C3B28A6910B522EA030242EA102275
:104950008A61CA6993FAA3F1B1FA81F1032449008B
:1049600004FA01F122EA010242EA1040024AD0614F
:1049700051690B43536110BD00080246064A0129E4
:10498000136923F00403136101D130BF704740BFA6
:1049900020BF20BF704700BF00ED00E01549CB6B82
:1049A00003F48033834201D1002070473222CB6868
:1049B00023F480331843104BC8601B6853430F4ADD
:1049C000B3FBF2F301331A46C868000404D40AB9F1
:1049D00003207047013AF7E7002AF9D0054AD16B66
:1049E000090403D4002BF3D0013BF8E7002BDBD103
:1049F000EEE700BF000802462C00002040420F00F6
:104A000010B5044640B102230371FDF785FD002077
:104A10000123A060237110BD0120FCE70379012B65
:104A2000DAB24FF0020305BF0371036883601960B7
:104A300006BF02710020012070470368186800F467
:104A4000E02070471D494B6BC3F30803013300EEB0
:104A5000103A8B6AB8EEC00AC3F30222013207EEA5
:104A6000902A13F0100218BF8A6BF8EEE76A18BF9D
:104A7000C2F3CC0207EE902A03F00303022BB8EE38
:104A8000E77A14D0032B15D10C4B1A680C4BC2F3E8
:104A90000052D34007EE903AF8EEE77A87EEA66A26
:104AA000DFED087AA7EE270A26EE000A7047DFED51
:104AB000067AF3E7DFED057AF0E700BF000C024667
:104AC0000048E801000000390024744B0000000099
:104AD0002DE9F3470446002864D0714BDE699D6AD6
:104AE000036806F00C06DF0705F003053AD42368D7
:104AF000980700F184802368190740F11D81684BF5
:104B0000D3F89420520700F1B6800127D3F89420FF
:104B100042F00402C3F89420D3F8943003F0040365
:104B20000093009B5F4DAB6ADB0740F1A680DFF886
:104B30007081A369D8F8F050002B40F0BB8025F0BD
:104B40001055C8F8F050FEF763F80546D8F8F03075
:104B500013F0904F00F0E880FEF75AF8401B14283D
:104B6000F4D936E0082E436803D00C2E1CD1032D57
:104B70001AD1BBB1082EBAD1494AA168136823F4EF
:104B800088130B4343F4803313601268464BC2F31F
:104B90000052D340454A1360454B1868FDF7C4FFE7
:104BA0000028A4D0012015E03D4FB3B13A68A168B8
:104BB00022F488120B4313433B60FEF729F880462A
:104BC0003B68990393D4FEF723F8A0EB0800642810
:104BD000F6D9032002B0BDE8F0873B6823F48813C0
:104BE0003B60FEF715F880463B689A037FF57FAF80
:104BF000FEF70EF8A0EB08006428F5D9E9E7236971
:104C00001EB10C2E0CD1022D0AD1002BCAD0244A81
:104C10006169136923F4F81343EA014313616AE7F6
:104C20001F4DBBB12B6843F480732B60FDF7F0FF81
:104C300007462B685B0507D52B69626923F4F813D7
:104C400043EA02432B6156E7FDF7E2FFC01B02284F
:104C5000EFD9BEE72B6823F480732B60FDF7D8FFF4
:104C600007462B6858057FF546AFFDF7D1FFC01BFF
:104C70000228F6D9ADE7002754E7AB6A43F00103F9
:104C8000AB62FDF7C5FF8046AB6AD8073FF54FAF73
:104C9000FDF7BEFFA0EB08000228F5D999E700BF99
:104CA000000C0246000802460048E8012C000020E3
:104CB00034000020590115D5E26905F080539A426D
:104CC0000CD02A010AD525F08065C8F8F050FDF710
:104CD0009FFF8146D8F8F0301B0172D4E36925F0BC
:104CE00080551D43A369DFF894921D43C9F8F05025
:104CF000FDF78EFF8246A369D9F8F0204FEA4308FA
:104D000012EA430264D083F01053DB432B40C9F80E
:104D1000F030FDF77DFF8146984D88F09048D5F83A
:104D2000F03018EA030F5AD137B1944AD2F89430D0
:104D300023F00403C2F8943023685D0740F18D80AE
:104D40008E4BD3F89420500750D44FF00108D3F87D
:104D5000942042F00402C3F89420D3F8943003F076
:104D600004030193019B864DAB6AD90741D5E368E3
:104D7000824D002B4DD1D5F8F03041F2883923F027
:104D80008103C5F8F030D5F8F03023F00403C5F8FE
:104D9000F030FDF73DFF0746D5F8F0309B0777D49C
:104DA000D5F8F03018064ED541F28839734DD5F854
:104DB000F030190547D5FDF72BFFC01B4845F6D944
:104DC00007E7FDF725FFA0EB0900142882D900E7CB
:104DD000FDF71EFFA0EB0A0014288CD9F9E6FDF7B9
:104DE00017FFA0EB0900142899D9F2E64FF000084C
:104DF000B9E7AB6A43F00103AB62FDF709FF074671
:104E0000AB6ADA07B3D4FDF703FFC01B0228F7D95A
:104E1000DFE6D5F8F02041F2883922F08002134312
:104E2000C5F8F030FDF7F4FE0746D5F8F0309B07E3
:104E300017D5E36841F288391806504D23D5D5F8C7
:104E4000F030190513D5B8F1000F06D04B4AD2F84F
:104E5000943023F00403C2F89430236AFBB9002095
:104E6000B8E6FDF7D5FEC01B4845DED9B1E6FDF733
:104E7000CFFEC01B4845E2D9ABE6FDF7C9FEC01B1B
:104E800048453FF6A6AED5F8F0301A05F5D4DAE776
:104E9000FDF7BEFEC01B48457FF67EAF99E60C2E9F
:104EA00076D0364D022B2B6823F080732B6052D1C5
:104EB000FDF7AEFE80462E68FDF7AAFEA0EB0800C7
:104EC00002283FF686AE16F00077F4D1606AA16A38
:104ED000032809BF2B4B2C4BC6F30056F340B3FB02
:104EE000F1F32A4A0139934288BF0C27234A936A77
:104EF00023F4E36323F007033B43034343EA012323
:104F000043F480239362236B591E636B013B1B04A4
:104F100043EA4123E16A01390B43A16B013943EABA
:104F200001635363E36B2BB1DB009363936A43F03C
:104F3000100393621368114D43F080731360FDF703
:104F400067FE04462B689A0189D4FDF761FE001BB9
:104F50000228F7D93DE6FDF75BFE04462B689B016E
:104F600006D4AB6A23F4E02323F00303AB6276E7B5
:104F7000FDF74EFE001B0228F0D92AE6000C02467F
:104F8000000802460048E8010024F40000127A00FC
:104F9000012B3FF407AE2349606A8A6A4B6B02F02B
:104FA000030585427FF4FEADA06AC2F302220138F8
:104FB00082427FF4F7ADE26AC3F30800013A9042FF
:104FC0007FF4F0AD226BC3F34620013A90427FF4A8
:104FD000E9AD626BC3F30640013A90427FF4E2AD63
:104FE000A26BC3F30663013A93427FF4DBAD8B6B94
:104FF000E26BC3F3CC039A423FF431AF8B6A0D46A8
:1050000023F010038B62FDF703FE0646FDF700FE5A
:10501000B042FBD0E36BDB00AB63AB6A43F0100341
:10502000A4E700BF000C0246074B10B55C6BFFF70E
:1050300009FDFCEEC07A17EE900AC4F30664013451
:10504000B0FBF4F010BD00BF000C0246084AD36963
:1050500013F00C0309D0082B05D113680548C3F3DE
:105060000053D8407047FFF7DFBF0348704700BFC9
:10507000000C02460048E8010024F4002DE9F0414C
:105080000D46044610B90120BDE8F081574A136867
:1050900003F00F038B421BD321688F0623D4CE0766
:1050A0002DD42268524B12F002011B6A6ED15607B2
:1050B00041BFE16823F070030B43012110076BD55A
:1050C000216923F4E06343EA011349490B6265E077
:1050D000136823F00F030B431360136803F00F03EF
:1050E0008B42D0D1D8E74248D4E90636D0F8002226
:1050F000334322F017021343C0F80032CFE7616850
:105100003B4A0329136831D19801BCD5D36903F018
:105110000C030C2B05D0936A23F4401343F4801343
:105120009362334E41F28838F36923F003030B4353
:10513000F361FDF76DFD0746F369626803F00C0348
:10514000B3EB820F1BD1032AABD1B36A284F23F4F0
:105150008013B362FDF75CFD0646BB6A5B02A0D418
:10516000FDF756FD801B0A28F7D90DE0022903D16F
:1051700013F4003FD5D186E713F4806FFAE7FDF70B
:1051800047FDC01B4045D7D903207DE7A16823F028
:1051900007030B4301218AE7002996D1D30642BFBA
:1051A0006269134B5A62114A136803F00F03AB4252
:1051B00010D8FFF74BFFBDE8F0410D4B0D4A1B6ABD
:1051C00003F00703D35CD8400B4B18600B4B1868F7
:1051D000FDF7AABC136823F00F032B431360136879
:1051E00003F00F03AB427FF44EAFE2E70020024032
:1051F000000C024622C502082C00002034000020CA
:1052000008B5FFF723FF054B054A1B6A03F00703A8
:10521000D35CD840034B186008BD00BF000C0246A9
:1052200022C502082C00002008B5FFF7E9FF044B57
:10523000044A1B6AC3F30213D35CD84008BD00BF05
:10524000000C02461AC5020808B5FFF7D9FF044B47
:10525000044A1B6AC3F30223D35CD84008BD00BFD5
:10526000000C02461AC5020808B5FFF7C9FF044B37
:10527000044A5B6AC3F30213D35CD84008BD00BF85
:10528000000C02461AC5020803682DE9F743DE0741
:10529000044608D59F494068D1F8E02022F0030277
:1052A0000243C1F8E0209D0708D59A49A068D1F8CB
:1052B000E02022F00C020243C1F8E020580708D594
:1052C0009449E068D1F8E02022F440620243C1F83A
:1052D000E020190708D58F492069D1F8E02022F491
:1052E00040220243C1F8E020DA0608D58949606906
:1052F000D1F8E02022F440120243C1F8E0209F06DA
:1053000008D58449A069D1F8E02022F44002024384
:10531000C1F8E0205E0608D57E49E069D1F8E020BA
:1053200022F000420243C1F8E0201D060FD5794A61
:10533000206AD2F8E41021F0E0010143C2F8E41041
:10534000002840F0C380916A41F480319162D80511
:1053500010D57049606AD1F8E420B0F5405F22F4BE
:10536000405242EA0002C1F8E42002BF8A6A42F4D5
:1053700000328A62990208D56649A06AD1F8E42011
:1053800022F080420243C1F8E4209A0508D5614921
:10539000E06AD1F8E82022F003020243C1F8E820D5
:1053A0005F0508D55B49206BD1F8E82022F0180290
:1053B0000243C1F8E8201E0508D55649606BD1F8B4
:1053C000E82022F0C0020243C1F8E820DD0408D53D
:1053D0005049A06BD1F8E82022F440620243C1F8A2
:1053E000E820980410D54B49E06BD1F8E820B0F5DF
:1053F000005F22F4E04242EA0002C1F8E82002BF66
:105400008A6A42F480328A6259044AD5414B226C3E
:10541000D3F8F05005F44075AA4242D0D3F8942056
:1054200052075AD40127D3F8942042F00402C3F85B
:105430009420D3F8943003F004030193019B364E7B
:10544000B36A43F00103B362FDF7E2FB8046B36A3F
:10545000DB0744D52F4AD2F8F03023F440717DB1F8
:10546000D2F8F850D2F8F00040F48030C2F8F000E2
:10547000D2F8F00020F48030C2F8F000C2F8F85002
:10548000226C264DDFF88C800A431D40C8F8F020BE
:105490002FD137B11F4AD2F8943023F00403C2F859
:1054A0009430206810F4004020D01A4A616CD2F881
:1054B000F03023F440230B43C2F8F030D2F8F00070
:1054C00000F44020401A18BF01200FE020287FF48C
:1054D0003EAF916A41F4003138E70027AFE7FDF7AE
:1054E00097FBA0EB08000228B1D9032003B0BDE868
:1054F000F083FDF78DFB41F2883906466D00D8F840
:10550000F0302B42C5D1FDF783FB801B4845F6D90F
:10551000EBE700BF000C0246000802460100002431
:10552000044AD2F8103223F47C1343EA0043C2F851
:1055300010327047000C0246034AD2F8083243F09A
:105540000203C2F808327047000C0246034AD2F840
:10555000083223F00203C2F808327047000C0246FA
:1055600038B50446002839D0437A03F0FF0213B956
:105570000272FCF7E3FF022322686372136823F0D0
:10558000040313601168224B0B4061680B4343F026
:10559000804343F400531360136823F08043136087
:1055A000FDF736FB054623681A68510009D41A68CE
:1055B00042F004021A605B685A0611D50423637234
:1055C0000CE0FDF725FB401B0A28ECD923681B687B
:1055D0005800E8D5012363720223E360012038BD3F
:1055E000FDF716FB05462368586810F0040003D148
:1055F00001236372E060F2E7FDF70AFB401B0A2813
:10560000F1D923685B685B07EDD50423E3E700BFAE
:10561000DF1FFFBF90F82C300246012B4FF0020035
:1056200016D0012382F82C300E4B82F82D00B1F5F4
:10563000807F99690DD121F488519961596C21F0CD
:10564000004159640123002082F82D3082F82C009B
:10565000704721F408519961D96C21F00041D96457
:10566000F0E700BF0078004670B50D4C0646E368D1
:1056700023F02003E360FDF7CBFA0546E3689B06C1
:1056800008D4FDF7C5FA401BB0F57A7FF6D9E36878
:105690009A0601D5002070BD032086F82D00FAE798
:1056A00000780046F8B5124D0646EC6814F0400448
:1056B00002D000231846F8BDEB6843F08003EB608E
:1056C000FDF7A6FA23460746EC6814F04004F1D132
:1056D000032BEFD0FDF79CFAC01BB0F57A7F234671
:1056E000F2D9EB685B06E4D4032386F82D30EBE7B0
:1056F0000078004638B50F4C0546E36823F0800378
:10570000E360A3699B0606D4FFF7AEFF10B1032048
:1057100085F82D0038BDA36923F02003A361FFF7AE
:10572000A3FF10B1032085F82D00A36943F02003E7
:10573000A361EFE70078004638B5044600284BD057
:1057400090F82D3003F0FF021BB980F82C20FCF7F5
:1057500021FF0223214D84F82D30EB68DB0636D47F
:10576000CA236B62532320466B62FFF79BFF10B185
:10577000FF236B6238BDAB69204623F08E6323F0B4
:105780004003AB6121696368AA690B431343A269B3
:105790001343AB61D4E9022343EA02432B61EA6875
:1057A000D4E9093122F4F8520B431343EB60FFF7BD
:1057B000A1FF0028DCD1D4E90713AA690B4322F02A
:1057C0006042134362691343AB61FF236B620123A1
:1057D000002084F82D30CDE70120CBE7007800468B
:1057E0000023092803D840EA0310C0B270470A38E2
:1057F0000133C0B2F5E700002DE9F84390F82C30F2
:105800000546012B4FF0020060D0012385F82C30B3
:10581000494B85F82D00DE6806F44076B6F5807FAA
:105820006AD00C6A087891F8018091F802909B691F
:10583000002A4DD113F0400308BFCB70FFF7D0FF13
:1058400007464046FFF7CCFF02464846FFF7C8FF31
:10585000804691F82400FFF7C3FF4B6991F803C01D
:10586000234343EA8C5343EA080343EA074343EAEA
:10587000022343EA0063CA6A8869B2F5807F2E4A30
:1058800094693BD124F4885494610124B6F5807F57
:10589000D46509BFCB6913640343536418BF5064D4
:1058A000254B4A681A678A6A012A9A690CBF42F036
:1058B000006222F000629A619A6942F488529A6109
:1058C0000020012385F82C0085F82D30BDE8F883F1
:1058D00013F0400308BFCB704B69CA781C4344EAFD
:1058E000090444EA004343EA082343EA825391F857
:1058F000242043EA0263BEE70023BCE724F40854F3
:1059000094610224B6F5807FD46509BFCB699364A6
:105910000343D36418BFD064074B4A685A678A6A46
:10592000012A9A690CBF42F0805222F080529A619B
:105930009A6942F40852C2E7007800462DE9F8431C
:105940001E4690F82C300446012B884617464FF02F
:10595000020021D001231D4D84F82C3084F82D0045
:10596000AB6923F48063AB610423EB65EB685A06F3
:1059700014D5164B48EA06465E619969002021F06D
:105980000701394399619A6942F488429A61012377
:1059900084F82C0084F82D30BDE8F883FDF738F941
:1059A0008146EB685B07E4D4FDF732F9A0EB090010
:1059B000B0F57A7FF5D9EB6813F00403D9D1032051
:1059C00084F82C3084F82D00E6E700BF007800460C
:1059D00070470000064B10B55A6D0446520703D5B8
:1059E0000422DA65FFF7F4FF012384F82D3010BD9F
:1059F0000078004690F82C200346012A4FF0020060
:105A00000CD0074983F82D008A69002042F020025B
:105A10008A61012283F82C0083F82D20704700BF93
:105A200000780046890001F18C4101F5FA410A60D5
:105A300070470000D1E9003213430A4AD361D1E92B
:105A4000023213438A691343074A5362136A08698F
:105A500003F0FF234969034343EA01430020136233
:105A6000704700BF00780046007C0046036A026A67
:105A700070B522F001020262446882690D6822F466
:105A8000803222F073022A438D6823F002032B43F5
:105A9000124DA84206D0124EB04203D006F58066E1
:105AA000B04214D1CE6823F008033343A84223F058
:105AB000040306D00A4DA84203D005F58065A8422C
:105AC00005D124F44075D1E9054634432C434460A4
:105AD00082614A684263036270BD00BF002C0140CE
